:100000000C949A020C94D2020C94D2020C94D20258
:100010000C94D2020C94D2020C94D2020C94D20210
:100020000C94D2020C94D2020C945E200C943221D7
:100030000C94EA1A0C94D2020C94D2020C94D202C0
:100040000C94D2020C94D2020C94D2020C94D202E0
:100050000C94D2020C94711B0C94D2020C94D20218
:100060000C94D2020C94D2020C94D2020C94D202C0
:100070000C94D2020C94D2020C94D2020C94D202B0
:100080000C94D2020C94D2020C94D2020C94D202A0
:100090000C94D2020C94D2020C94D2020C94D20290
:1000A0000C94D2020C94D2020C94D20229001E00AD
:1000B0001F0020002100220023002400250026002C
:1000C00027002D002E002A0001002B000000140044
:1000D0001A000800150017001C0018000C00120080
:1000E00013002F003000310039000000040016001A
:1000F000070009000A000B000D000E000F0033007E
:10010000340028000000E10001001D001B00060073
:1001100019000500110010003600370038000000FB
:10012000E5000100E000E3000000E2000000000044
:100130002C00000000000000E600E7000000650061
:10014000E4000100010001000100010001000100C4
:100150000100010001000100010001000100010097
:100160000100000001000100010001000100010088
:100170000100010001000100010001000100010077
:100180000000010001000100010001000100010068
:100190000100010001000100010000000100010058
:1001A0000100010001000100010001000100010047
:1001B0000100010000000100010001000100000039
:1001C000010000000000010000000000000001002C
:1001D0000100000001000100010001000100010018
:1001E0000100010001000100010001000100010007
:1001F00001000100010001000000010001000100F8
:1002000001000100010001000100010001000100E6
:1002100001000100010000000100010001000100D7
:1002200001000100010001000100010001000100C6
:1002300000000100010001000100010001000100B7
:1002400001000100010001000100000001000100A7
:10025000010001000000010000000000010000009A
:100260000000000001000100000001000100010089
:100270000100010001000100010001000100010076
:100280000100010001000100010001000100000067
:100290000100010001000100010001000100010056
:1002A0000100010001000100010001000000010047
:1002B0000100010001000100010001000100010036
:1002C0000100010001000000010001000100010027
:1002D0000100010001000100010001000100010016
:1002E0000000010001000100010000000100000009
:1002F00000000100000000000000010001000000FB
:100300000100010000000000000000002A2B28006E
:1003100000000000000000000000000000000029B4
:10032000000000002C1E3420212224342627252EF4
:10033000362D3738271E1F2021222324252633332C
:10034000362E37381F0405060708090A0B0C0D0E58
:100350000F101112131415161718191A1B1C1D2F24
:100360003130232D350405060708090A0B0C0D0E44
:100370000F101112131415161718191A1B1C1D2F04
:100380003130354C0000000000000000000000008B
:10039000000000000000000000000000000000005D
:1003A00000000000000000007E0F00D4FFFFFFC728
:1003B000000000780A0345004B00360030000000C2
:1003C000240345006E006900690067006D0061004C
:1003D00020004B006500790062006F006100720030
:1003E0006400730000000403090409025B000301B8
:1003F00000A0FA0904000001030101000921110114
:1004000000012240000705810308000109040100E2
:10041000020300000009211101000122220007054A
:1004200082032000010705030320000109040200E4
:100430000103000000092111010001227B000705D2
:10044000840320000112010002000000084B450354
:10045000000100010200010660FF0961A1010962BB
:10046000150026FF009520750881020963150026F6
:10047000FF00952075089102C005010902A10185C0
:10048000020901A100050919012908150025019596
:1004900008750181020501093009311581257F9513
:1004A000027508810609381581257F950175088137
:1004B00006050C0A38021581257F9501750881060D
:1004C000C0C005010980A101850319012AB70015E3
:1004D0000126B700950175108100C0050C0901A126
:1004E00001850419012AA002150126A002950175B3
:1004F000108100C005010906A101050719E029E7DF
:100500001500250195087501810295017508810185
:100510000507190029FF150026FF009506750881BB
:1005200000050819012905950575019102950175C8
:10053000039101C011241FBECFEFDAE0DEBFCDBFB3
:1005400004B603FE18C08091760290917702A091C4
:100550007802B09179028730904BA740B04B59F4A4
:10056000109276021092770210927802109279021D
:10057000E0E0F8E3099511E0A0E0B1E0E2EEF7E495
:1005800002C005900D92A03AB107D9F722E0A0EA87
:10059000B1E001C01D92A637B207E1F70E94B11188
:1005A0000C949D230C94000084E008958430B8F4EA
:1005B0006530A8F44F3098F450E09FE0699F400DFB
:1005C000511D1124FA019BE4899FE00DF11D1124B6
:1005D000EE0FFF1FE455FF4F85919491089580E041
:1005E00090E0089581E0089581E008950E94F4026A
:1005F000089508950E94F9020895A5E0B0E0E3E0AF
:10060000F3E00C94092349835A833091A70189812F
:100610009A81311119C0662399F0222389F00E9432
:100620009308182F682F89819A810E946F08698129
:100630007A81812F0E94240F2596E3E00C942523D4
:100640000E948108182FF3CF0E94930869817A8154
:10065000F1CFFC01262F4081518162817381848119
:100660000E94FD02089581E00895CF93DF93EC018D
:1006700060E00E942903BE010E94FA02DF91CF913F
:100680000895E1E0F0E0DF0102C0AA0FBB1F6A9508
:10069000E2F7BD01DF0102C0AA0FBB1F4A95E2F7D6
:1006A0006A2B01C0EE0F2A95EAF7962F982396132E
:1006B00002C08E2B0895E0958E230895242F462F97
:1006C000682F8091C6010E9441030E94D1070895BE
:1006D0000E94521008950E945610089508950E9495
:1006E00065070E946E032FEF84E39CE02150804059
:1006F0009040E1F700C0000008950E946F030E943F
:10070000951B08950E946F030E94B91B08950F93D3
:100710001F93CF93DF938C0161E00E942903EC01CA
:10072000B8010E94A914811106C080E0DF91CF9129
:100730001F910F910895B801CE010E94F6028823FF
:10074000A1F3B801CE010E948719882371F3B80183
:10075000CE010E94AE15882341F3B801CE010E945C
:10076000F918882311F3F8018281882361F0C330DE
:10077000FCE7DF07E9F058F4C115ECE7DE07A9F064
:10078000C130DC47B9F0C8010E94F202CFCFCB35AF
:100790008CE7D807A9F0CC35ECE7DE0771F0CA3555
:1007A000DC4789F70E94BF0CEECF0E947D03BDCFCE
:1007B0000E94C70C0E948203B8CF0E94B50CE3CF01
:1007C0000E94C30CE0CF0E94C61A0E940A0408953A
:1007D0000E940E040E94CB1A0895089581E00895A6
:1007E0000895CF93DF93D82F0E94EE03C82F88235C
:1007F00019F08D2F0E94F0038C2FDF91CF91089577
:100800000895CF93C82F0E94ED038C2F0E94F1030F
:10081000CF91089580E00E94010408950E94D519A7
:100820000E9401040895CF930E94D519C82F80918A
:10083000A2018C1779F0C093A2010E94561B60930D
:10084000A3017093A4018093A5019093A6018C2F1E
:100850000E940104CF910895ABE0B0E0E2E3F4E040
:100860000C940A234F83588769877A878B87611195
:100870000E94000C1E821D8285E0FE013796DE017B
:10088000119601900D928A95E1F78C819D81892BBB
:1008900061F449815A816B817C818D819E810E94A6
:1008A000280B2B96E2E00C94262389819A818923D8
:1008B0008F3F79F3CE0101960E9433038111E9CF76
:1008C000F0CFFC01808191810E94C00808956623C9
:1008D00029F00E9435120E94081308950E948F1279
:1008E000FACFCF93C82F8823B9F08CEF8C0F813AC1
:1008F000A8F46C2F80910001909101010E94571A79
:10090000882329F08C2F0E94C00B0E94210C8C2F71
:100910000E94B80B0E94210CCF91089580E28C0FA9
:10092000883048F4C77081E001C0880FCA95EAF7A3
:100930000E94E30BEFCFEBE5EC0FE33040F4F0E087
:10094000EB5BFE4F808190E00E94FB19E5CFE8E56C
:10095000EC0FE93150F4F0E0EE0FFF1FED5EFE4FBB
:10096000808191810E94201AD7CF83E38C0F83313D
:1009700098F661E08C2F0E946704CECF882381F126
:100980009CEF980F913A28F40E94C00B0E94210C12
:10099000089590E2980F983050F4877091E001C06C
:1009A000990F8A95EAF7892F0E94E90BEFCF9BE513
:1009B000980F933028F490E080E00E94FB1908958E
:1009C00098E5980F993128F490E080E00E94201A71
:1009D000089593E3980F933118F460E00E94670440
:1009E00008951F93CF93DF93182FEB010E9471049A
:1009F000209739F4812F0E94BE04DF91CF911F917F
:100A000008958FE99FE00197F1F700C0000021975A
:100A1000EFCF70E060E0893311F460E570E00E9490
:100A2000F1040895882321F00E94E30B0E94210C19
:100A30000895882321F00E94E90B0E94210C08955B
:100A4000B0E0A0E0E6E2F5E00C9403236C01D62FC1
:100A5000C72FFC011281F580F2949FE0F9220E94D9
:100A6000D90BE82E8823B9F0E12E1123A1F08C2FA9
:100A7000807F803421F080E28D0F8830D0F080912B
:100A8000500282FF16C082E00E94840C0E94D90BA3
:100A900091E0E82EE926BC2EB2948FE0B822FBE06C
:100AA000FB1508F468C0EB2DF0E0E156FC4D0C940A
:100AB000ED22E12CF0CF0C2F0F70C07F11F00295CA
:100AC000007F112399F0002359F080E28D0F8830C8
:100AD00010F0D11107C0802F0E94E30B0E94210C5F
:100AE0008D2F41C0802F0E94F30BF8CF8D2F0E94D5
:100AF000BE04002309F43FC080E28D0F883010F05F
:100B0000D11104C0802F0E94E90B03C0802F0E94E6
:100B1000F90B0E94210C2FC00C2F0F70C07FC03228
:100B200011F00295007FDD2381F0D13009F468C017
:100B3000112309F472C0FF2009F468C0F601858111
:100B400080FFCECF8F70858361C08091500282FD7F
:100B500033C0112359F0002329F0802F0E94E30BAA
:100B60000E94210C80E00E94710405C080E00E9478
:100B7000BE040111C7CFEB2DE850FF0B349720F4D2
:100B80000E94D5190E940104EE2089F00E94D50B25
:100B900080FD0DC0F60112820E94CF0B0E94E30778
:100BA000C6010E9425070E94CF0B0E94EF07CDB718
:100BB000DEB7E9E00C941F23112389F0F11006C081
:100BC0000E94030C802B0E941205D5CF21E0F21267
:100BD000F7CF0E94030C802B0E940A0CCCCFF1109F
:100BE00006C00E94170C802F0E941905C4CF31E067
:100BF000F31609F2802F0E9419050E94170CBBCF33
:100C0000112331F085E08F1508F4B5CF802FDBCFAD
:100C100094E09F1508F4AFCFE6CFFF2021F3D9333E
:100C200049F4FFEF27EE33E0F15020403040E1F788
:100C300000C000008D2F0E94BE049DCF8C2F869592
:100C40008695837069F0813009F095CF8D2F9C2FA8
:100C50009370111102C080E090E00E94201A8BCFA7
:100C60008D2F9C2F9370111102C080E090E00E94A4
:100C7000FB1981CF612F8D2F0E9467047CCF8C2FB1
:100C8000837079F5111177CF4D2F429546954770B6
:100C9000440F440F8D2F8F70042E01C0880F0A94CB
:100CA000EAF72D2F2071D4FF07C02FE030E001C0FC
:100CB000220F4A95EAF72095C695C695C370822BF8
:100CC000C23049F058F4C13019F00E94BF0753CF29
:100CD0000E94B90750CF0E94C5074DCF0E94B607AA
:100CE0004ACF8695112311F08C2F8170882309F447
:100CF00042CF4D2F429546954770440F440F8D2F9C
:100D00008F70042E01C0880F0A94EAF72D2F2071EE
:100D1000D4FF07C02FE030E001C0220F4A95EAF768
:100D20002095C695C695C370822BC23049F058F401
:100D3000C13019F00E940E081ECF0E9408081BCF78
:100D40000E94140818CF0E94D10715CFCF7011232D
:100D500029F08C2F0E94E3078D2F35CF8D2F0E9415
:100D600019058C2F0E94EF0706CFD23F51F160F496
:100D7000D03FB9F0D13F81F0112309F449C0F110FF
:100D8000AFCE8C2F8F7121C0D33F11F1D43FA1F78B
:100D90008091500282FD26C08C2F8F71112311F398
:100DA00014C0112349F084E08F1508F4E4CE8C2F91
:100DB0008F710E94FC07DFCE95E09F1508F4DBCE13
:100DC000F6CF8C2F8F711111CDCF0E94E307D3CEB8
:100DD000112329F08C2F8F710E94DA07CCCE0E944C
:100DE000D607C9CE112349F0CF718C2F0E94E3079B
:100DF00063E08C2F0E94660CBECE81E00E94840CC2
:100E0000E1E0EF1508F0B7CE82E00E94840CB3CE8B
:100E1000F11005CF8C2F8F71A5CF0F931F93CF9318
:100E2000DF93EC01688179818A810E94CB088C0173
:100E30000E941A080E94B507B801CE010E94200541
:100E4000DF91CF911F910F910895CF93DF93EC0124
:100E50008B819C81892B29F08881998189238F3FFF
:100E600051F4DF91CF910895CE010E940D07CE017C
:100E70000E943503F6CFCE010E9487038111F4CF83
:100E80000E94D90B882369F38A81882351F38091CA
:100E9000500282FFE6CF82E00E94840CE2CF90E015
:100EA00080E00E94FB1990E080E00E94201A0E94DE
:100EB000000C0E94210C0E9424130E940813089524
:100EC0000E94C80B0E944F0708950E94F00B0E94D9
:100ED0006007089592959F70963091F058F4925F54
:100EE0009F70923058F4803F19F030F4883E30F40F
:100EF00081E008959A5FF4CF843FD1F380E00895B4
:100F0000883EB0F3813FD1F7F3CFFC018381948118
:100F1000892B29F08081918189238F3F11F480E012
:100F20000895808191810E94C0080E946A070895F7
:100F3000A5E0B0E0EEE9F7E00C940A232596E2E0A4
:100F40000C942623A6E0B0E0E8EAF7E00C940A232C
:100F50002696E2E00C94262308950E94AC0708959B
:100F60000E94AD078093C701089508950E94B007BD
:100F700008959091C701892B0E94B0070895909120
:100F8000C70189230E94B00708959091C70189275E
:100F90000E94B00708950E94AC0708950E94CB07F5
:100FA00008950E94CE078093C601089580E00E94B4
:100FB000D107089591E001C0990F8A95EAF7892F2A
:100FC0000E94D107089521E030E001C0220F8A95E8
:100FD000EAF78091C601822B0E94D107089521E093
:100FE00030E001C0220F8A95EAF720958091C60172
:100FF00082230E94D107089521E030E001C0220F32
:101000008A95EAF78091C60182270E94D107089548
:101010009091C601892B0E94D10708959091C60135
:1010200089230E94D10708959091C60189270E94C3
:10103000D10708950895262F277091E001C0990FD8
:101040002A95EAF723E0769567952A95E1F7FB0163
:10105000EE0FFF1FE60FF71FE40FF51F50E040E013
:10106000682F70E08191DF0111979B01042E02C06F
:10107000369527950A94E2F7217021952827292390
:1010800028272C934F5F5F4F4330510559F7089540
:10109000A82FA77023E0969587952A95E1F7FC0184
:1010A000EE0FFF1FE80FF91FE60FF71F50E040E0BB
:1010B00080E0219130E00A2E02C0369527950A94EF
:1010C000E2F721703327042E01C0220F0A94EAF7B9
:1010D000822B4F5F5F4F4330510559F70895262FFC
:1010E000953070F48F3060F4682F70E08FE0989F37
:1010F000600D711D112448EA51E0822F0E941B08E7
:101100000895292F953068F48F3058F490E068EAFC
:1011100071E03FE0239F800D911D11240E9448083B
:10112000089580E00895CF92DF92FF920F931F936E
:10113000CF93DF936C010091C6018091C701082B0A
:10114000C7E0D0E010E0FC2EC8010C2E02C095953F
:1011500087950A94E2F780FD0CC02197A0F7F12C47
:101160008F2DDF91CF911F910F91FF90DF90CF9046
:101170000895B6018C2F0E94300F019771F3F0CFC4
:10118000CF93DF93EC010E949308BE010E94300FC1
:10119000DF91CF9108951F93CF93DF93EB0190914F
:1011A000A701992339F0CB010E94C008DF91CF91AC
:1011B0001F910895882369F0CB010E949308182F8E
:1011C000682FCE010E946F08BE01812F0E94300F50
:1011D000EDCFCB010E948108182FF6CF1F93CF933C
:1011E000DF93C091C80116E08091C9018C1304C03F
:1011F000DF91CF911F910895D0E01C9FF0011D9FBA
:10120000F00D1124E653FE4F4081518162817381BC
:10121000848195810E94A2072196C770E5CF4091F5
:10122000FA015091FB016091FC017091FD018091E8
:10123000FE019091FF010E94A20708952091C8012C
:101240009091C90156E0291302C080E0089530E072
:10125000529FF001539FF00D1124E653FE4F718110
:10126000761306C07081781303C07281741304C0B2
:101270002F5F3F4F2770E7CF81E008951F93CF93F3
:10128000DF938091FF01807F09F04BC08091FC01CA
:10129000882309F446C08091C801C091C9014091DA
:1012A000FA015091FB016091FD017091FE01D42F74
:1012B000D52316E0C817A9F190E061157105A9F1D1
:1012C000DF3F99F1189FF001199FF00D1124DF0104
:1012D000A653BE4F11962C911197251326C02C9121
:1012E000241323C012962C91129721111EC013961D
:1012F0002D913C91261B370B283C3105B0F4809191
:10130000FF018F7080618093FF01E153FE4F808168
:101310008F70806180838AEF91E00E9425070E9490
:10132000EE08DF91CF911F91089501968770C2CF8B
:10133000A1E1B0E0EEE9F9E00C9400238C0185E036
:10134000F801DE011D9601900D928A95E1F7F801F2
:10135000F2808AEFA82E81E0B82E4091FD015091D5
:10136000FE014115510509F45AC19091FA012091ED
:10137000FB01892F82238F3F09F451C1C080D180A6
:1013800083809480E090FC01B401641B750BEE2017
:1013900009F4F6C08091FF01382F307F683C710559
:1013A00008F0AFC031117AC0EF2C2D1116C09C117E
:1013B00014C0F11012C08F7080618093FF010E94F1
:1013C0000F09C5010E9425078091FF01F80185835F
:1013D0008E2D6196ECE00C941C2381149104C9F1CC
:1013E0008C2D8D218F3FA9F181E08F2580FF05C0D5
:1013F0004F2D6D2D8C2D0E941E098114910459F1E1
:101400008C2D8D218F3F39F181E08F25F82FF170E0
:10141000BF2E80FF39C04F2D6D2D8C2D0E941E09CF
:10142000A82E811131C0CD86DE868D859E850E94D5
:10143000C008292F22952F70243078F49F70223015
:10144000A8F09923B9F0F8019581907F99F4EA2CDE
:10145000BFCF80E0CBCF80E0D9CF2A5F2F70223082
:1014600068F0C8010E942507AB2CF1CF992311F039
:10147000882369F3805E883050F3F3CF803F38F3E0
:10148000815F833070F7E3CFFF2009F4A1CF809113
:10149000FF0181608093FF01E12C9ACF2D1105C0DF
:1014A0009C1103C0FF2009F486C0C8010E94850773
:1014B000882319F1FF2009F18091FF01803270F03B
:1014C0002091FA013091FB0138872F8319869B8682
:1014D0008A868C87CE0107960E94250786E0F80150
:1014E000AAEFB1E001900D928A95E1F70E943E09C2
:1014F0000E940F09EE24E3946BCFC8010E942507D8
:10150000F9CF311114C0782D998A888AA6016F2DE0
:1015100089890E9498078AEF91E00E94250786E05A
:10152000F50111928A95E9F70E940F09B5CF2D11A7
:101530000EC09C110CC0F1100AC08583C8010E9426
:10154000250786E0F50111928A95E9F741CFC80198
:101550000E948507882389F2FF2079F28091FF019C
:10156000803208F4BBCF2091FA013091FB013A831D
:1015700029831B829D828C828E83CE010196ACCF03
:10158000683C710508F03DC0EF2CFF2009F4B5CF91
:101590002D1129C09C1127C08091FF0180FD1AC028
:1015A000982F907FB9F08583903F31F0982F907FEE
:1015B000905F8F70892B8583C8010E94250786E084
:1015C000F801AAEFB1E001900D928A95E1F70E942F
:1015D0000F09FECE86E0F801AAEFB1E001900D926E
:1015E0008A95E1F7F5CEC8010E948507811176CF73
:1015F0008091FF0181608093FF01C8010E9425074F
:10160000E7CE782D998A888AA6016F2D89890E9454
:10161000980786E0F50111928A95E9F7D8CFFF2067
:1016200009F46BCFC8010E948507E82E882309F4CE
:1016300064CF86E0F801AAEFB1E001900D928A959F
:10164000E1F78AEF91E00E9461040E943E09BFCF5A
:10165000ACE0B0E0EEE2FBE00C9409234F83588746
:1016600069877A878B879C87CE0107960E949809A5
:101670008823B1F08A859B85892B39F04F81588565
:10168000842F85238F3F09F06CC016E08091C8013C
:101690009091C901891343C02C96E3E00C94252353
:1016A00086E0FE013796DE01119601900D928A9533
:1016B000E1F78A859B85892B41F38F819885892362
:1016C0008F3F19F32091C90130E0C901019687705D
:1016D00099274091C8014817190671F40E946507BF
:1016E0001092C9011092C80186E0EAEFF1E0DF0133
:1016F0001D928A95E9F7C9CF96E0929FD001939FFA
:10170000B00D1124A653BE4FFE01319601900D92EB
:101710009A95E1F78093C9010E94EE08B6CF819FA8
:10172000C001112486539E4F0E949809882309F412
:10173000B3CFE091C8011E9FF0011124E653FE4F84
:101740004081518162817381848195810E94A207C9
:101750008091C80190E00196877099278093C80115
:1017600095CF69857A858B859C850E94A2078DCF50
:10177000682F80910001909101010E948D1A0895B7
:10178000682F80910001909101010E94901A0895A4
:1017900080910001909101010E94931A0895809117
:1017A0000802859585958595089580910802877032
:1017B000089590910802977081E009F480E00895FF
:1017C00080911302089590911302892B8093130244
:1017D0000895809590911302982390931302089591
:1017E00010921302089590911202892B8093120295
:1017F0000895809590911202982390931202089573
:1018000010921202089580910902089508950E948D
:10181000060C08959091500292FF08C09091090221
:10182000981721F0809309020E94070C0895809177
:101830000902882329F01092090280E00E94070C17
:101840000895CF93DF93E0910001F0910101809121
:1018500013028083E0910001F09101018081909159
:101860001202892B808390910902992381F0E091E3
:101870000001F09101018081892B8083809100011A
:10188000909101010E94451A81110E94170CC0918C
:101890000001D091010148E050E060E072E0CE012B
:1018A0000E944523892B59F088E0FE01A0E0B2E0B8
:1018B00001900D928A95E1F7CE010E94E219DF9125
:1018C000CF91089508950E94620C0895909150025E
:1018D00092FF11C098E0899F90011124622B6093C0
:1018E00008020E94E30780910802859585958595F9
:1018F0000E94630C08950E94E30708951092080265
:1019000080E00E94630C08959091080280958923DD
:1019100080930802282F277091F4282F082E000C9E
:10192000330B9217130659F09091500292FF07C0A3
:101930008595859585950E94EF070E947E0C0895F8
:101940009091500292FB222720F9281769F080FB22
:1019500092F99093500280914F02909150020E9410
:10196000E90C82E00E94840C08958091500282FB71
:10197000882780F991E089270E94A00C089581E0D2
:101980000E94A00C089580E00E94A00C08956FEFC3
:101990007FEF90E080E00E948723089590E080E050
:1019A0000E946323873E9E4F19F40E9442140895BB
:1019B00080E0089582E090E00E945B23089583E038
:1019C00090E00E945B23089584E090E00E946323EE
:1019D0000895BC0184E090E00E9487230895AB0144
:1019E000BC018FE090E00E947B230895AB01BC0115
:1019F00083E190E00E947B23089560E070E0CB01DA
:101A00000E94F60C089560E070E0CB010E94EF0C9C
:101A10000E94FD0C089567EE7EEF90E080E00E944A
:101A2000872360E082E090E00E94692360E083E029
:101A300090E00E9469231092C70160E074E184E0A5
:101A400090E00E94872360E086E090E00E94692396
:101A50006FEF87E090E00E94692340E050E0BA0118
:101A600088E090E00E947B2360E08DE090E00E949F
:101A7000692340E050E0BA0188E190E00E947B23B6
:101A800060E087E190E00E94692340E050E0BA0105
:101A90008CE190E00E947B2370E060E080E290E0C7
:101AA0000E94872340E050E0BA0188E190E00E9464
:101AB0007B2380E00E945B140E948B140E94030D24
:101AC00008950E940B0D0895682F8EE090E00E940B
:101AD000692308950E94561B609324027093250287
:101AE0008093260290932702609320027093210234
:101AF00080932202909323020895089508950E94EE
:101B00007E0D089508950E94820D08958AE190E166
:101B10000E94CB190E947D0D0E947F0D089581E0E7
:101B200008950E948F0D0895089508950E94940DC0
:101B30000E94950D08950E9436100E940004089599
:101B40000E94411B0E949B140E9412110E949B0D37
:101B50000E94830D0895AAE0B0E0E1EBFDE00C9453
:101B6000FF220E94281126E1822E22E0922E64019B
:101B700010E0F601E190F1906F01812F0E94591061
:101B80001F5F153009F449C0E816F90691F38091FA
:101B9000280281FD0E9462100E94910D782E10E0B3
:101BA000812F0E9459107C01F401A190B1904F0146
:101BB0008A159B0561F100E0CC24C394D12CAE249E
:101BC000BF24C5018C219D21892BC1F07720B1F064
:101BD0000E831F8321E0C7018C219D21892B09F4ED
:101BE00020E028870E944A1B8160782F9A87898786
:101BF0004E815F8168858A850E942C040F5FCC0C22
:101C0000DD1C0F30F1F6F4013297F182E0821F5FA4
:101C1000153031F60E946A0D22C0E816F90609F067
:101C2000B6CF0E944A1B8C0180911402909115023C
:101C300008171907A1F08FEF89838A831B820E94FE
:101C40004A1B8160782F9D838C8349815A816B81E7
:101C50008D810E942C0410931502009314020E949F
:101C600046130E9413042A96EDE00C941B23CF9395
:101C7000DF930E94350FEC01811520E59207D0F526
:101C8000811530E4930708F086C0803E910518F571
:101C90008D3C910508F07DC0883A910570F4853A35
:101CA000910508F06EC08130910501F10097F1F0C7
:101CB0000497E0F4D0E0C0E019C0813C9105D0F772
:101CC000C85AD0E0CC0FDD1FC85BDE4F0990D88129
:101CD000C02DD4640BC08115904208F0A8C0C11576
:101CE00081E0D80718F4C83ED10520F7CE01DF9176
:101CF000CF910895803622E5920710F5803432E5C1
:101D0000930708F052C08032924508F047C0C115D1
:101D100082E5D80708F47DC02C2F2695269540E251
:101D2000249F900111248C2F8370C1E0D0E002C069
:101D3000CC0FDD1F8A95E2F7C22BD32BDD68D6CFFF
:101D4000803A22E5920760F4803832E5930708F480
:101D500041C0CF71D0E0DC2FCC27C46FD06AC6CF92
:101D6000803C42E5940708F449C0C03E82E5D807AC
:101D700008F0A0CFDC2FCC27CC27DF71C06FD06A52
:101D8000B5CFC55AD0E0C658DE4FC881D0E0D06488
:101D9000ADCFD065ABCFDF70D06AA8CFCF71D0E028
:101DA000DC2FCC27C16FD06AA1CF282F269526958E
:101DB000277080E2289F900111248C2F8370C1E04E
:101DC000D0E002C0CC0FDD1F8A95E2F7C22BD32BE7
:101DD000DC688CCF282F26952695277040E2249F1B
:101DE000900111248370C1E0D0E002C0CC0FDD1F50
:101DF0008A95E2F7C22BD32BDA6878CF8F710E94D5
:101E0000D70FC82FD0E0DC2FCC27CC27DF71D062D2
:101E10006DCF8C2F8F710E94D70F35E0D695C79567
:101E20003A95E1F7CF709C2FEC01D0695FCF8D2FF1
:101E30008F710E94D70F90E0982F882788279F7175
:101E40009C012C2BE901E3CF462F753030F46F3025
:101E500020F4672F0E941118089590E080E0089503
:101E60000E94240F0E94370E089582389105B9F11F
:101E7000B0F48133910509F47DC048F489329105AD
:101E800009F46DC08A32910509F47BC00895853349
:101E9000910509F45FC08933910509F10895833EE6
:101EA0009105D9F138F4803E910529F1823E9105E2
:101EB00079F10895863E9105D9F1873E910509F49F
:101EC0003EC0843E910541F52091500221FF24C07F
:101ED00080914F0284FD19C087EE90E00895209113
:101EE0004F02237009F05AC02091500223FF14C002
:101EF00089E290E0089520914F0220FD38C0309192
:101F0000500230FF09C024FF43C090E080E00895F4
:101F100020914F0222FDF7CF089520914F0222FD1C
:101F20003AC03091500230FD39C024FFF5CFEDCFDB
:101F300020914F0223FFF0CF24FDE7CFCDCF20919A
:101F40004F0223FD2EC03091500231FFEECF84EEC0
:101F500090E0089520914F0225FFDECFC9CF209158
:101F60004F0225FD21C02091500223FFD5CF89E3E8
:101F700090E0D2CF20914F0226FFCECF8AE290E0B0
:101F8000089520914F0226FFC7CF81E390E0089586
:101F900083EE90E0089582EE90E0089580EE90E068
:101FA000089586EE90E0089585E390E0089590917D
:101FB0004F0292FF06C0282F28712830F9F4877F3E
:101FC000846093FF06C0282F28712831F1F4877EA2
:101FD00084612091500220FF06C0382F38713830BC
:101FE000D9F4877F816021FF06C0282F287128310E
:101FF000D1F4877E816194FD877E0895282F247116
:102000002430F9F68B7F8860DCCF282F24712431AF
:1020100001F78B7E8861DDCF382F3171313019F7B0
:102020008E7F8860E0CF282F2171213121F78E7EAD
:102030008861E1CF80E008950E94C70C08950E9456
:1020400028118FE39CE90197F1F700C000000E947E
:10205000281180E00E94591080FF04C00E941C10CB
:102060000E94951B08950E941F1008950E94CE0C97
:10207000811102C00E94610D0E94DA0C8093280237
:102080000E94E40C9093500280934F020E94331000
:102090000E94DF0C0E94B6078091C6010E94CE0705
:1020A000089508950E945110089508950E945510B2
:1020B0000895E82FF0E0EE0FFF1FE55AFD4F8081F5
:1020C00091810895089580EA8A95F1F7089500C0F6
:1020D00008950E9463100895F894E82FE295EF7038
:1020E000F0E031A1282F2F7081E090E001C0880F2F
:1020F0002A95EAF7982F9095932391A392A1892B83
:1021000082A3789408950F931F93CF93DF93CCE825
:10211000D1E089918F3F11F00E946C1081E0C139AC
:10212000D807B9F7CDE7D1E00CE811E089918F3FEE
:1021300011F00E946C100C171D07C1F7DF91CF91B1
:102140001F910F910895AF92BF92DF92EF92FF928D
:102150000F931F93CF93DF938C01D62EC62FD0E021
:10216000CE0184579E4F7C01FC0120812F3F09F452
:102170004CC0F894E22FE295EF70F0E031A12F709F
:1021800081E090E001C0880F2A95EAF7932F982B01
:1021900091A392A18095892382A378940E946710CD
:1021A000EDE7F1E041E050E0B12CA12C21912F3F6F
:1021B000B1F1A22FA295AF70B0E090968C9190E013
:1021C0002F7002C0959587952A95E2F780FD27C06C
:1021D000CA01A82AB92A440F551F81E0EC38F80734
:1021E00029F7F70180818F3F11F00E946C1061E0A8
:1021F000A114B10409F460E08D2D0E946910CC0F88
:10220000DD1FC00FD11FB982A882DF91CF911F912E
:102210000F91FF90EF90DF90BF90AF90089590E006
:1022200080E0D7CF0E9483108AE0EBE5F2E0DF0187
:10223000982F1D929A95E9F7E1E5F2E0DF011D92F2
:102240008A95E9F785E00E9463110E94680308956A
:10225000AAE0B0E0EEE2F1E10C9407238E010F5FFB
:102260001F4F8AE0F80111928A95E9F7F12C6F2D42
:10227000C8010E94A310F394F5E0FF12F8CF4AE0E2
:1022800050E0B80181E592E00E94452321E00097EB
:1022900009F420E0892B41F08AE0F801A1E5B2E0E1
:1022A00001900D928A95E1F745E06BE572E081E5DA
:1022B00092E00E946411182F0E946B03812F2A96CE
:1022C000E5E00C9423230895CF92DF92EF92FF92E2
:1022D0001F93CF93DF936C017B01C42F222349F01E
:1022E00081E080932B020E944A1B90932A028093E4
:1022F000290210912B0211110AC010E0812FDF91E9
:10230000CF911F91FF90EF90DF90CF900895809133
:10231000290290912A020E94621B059770F3D0E077
:10232000CC0FDD1FAE01B601C7010E944523892BEA
:1023300041F0AE01B601C7010E94522310922B0258
:10234000DDCF10E0FBCF0E94331D0E94A00D0E9444
:10235000401D08950E94451D0E94AB0D0E945F1D07
:1023600008950E94E31A0E94191D0E94860D0E9482
:10237000A3110E94AA110E94960DFBCF80913202F8
:1023800080FF0DC06091070170E0660F771F603815
:10239000710570F56115710569F1862F089581FF4A
:1023A00007C06091070184E0689FB0011124EFCF5E
:1023B0006091070182FD0AC0809131028823A9F053
:1023C0002091060160910701821710F088E0ECCFA0
:1023D000869FC001112433E0880F991F3A95E1F7D9
:1023E000622F70E00E94D922D2CF68E070E0D5CF92
:1023F0008FE7089581E008958091320280FF0CC03C
:102400006091030170E07595679575956795611505
:10241000710549F1862F089581FF06C0609103017F
:1024200070E075956795F3CF6091030182FD0BC055
:10243000909130029923A1F06091020180910301F3
:10244000961738F0682F70E06038710500F38FE759
:102450000895899FC001112470E00E94D922F4CF11
:1024600061E070E0D7CF81E008958D3C31F40E94A7
:10247000BE1181958093360208958E3C19F40E9416
:10248000BE11F8CF8F3C31F40E94BE11819580932C
:1024900035020895803D19F40E94BE11F8CF893DA0
:1024A00029F40E94FC118093370208958A3D21F49B
:1024B0000E94FC118195F7CF8B3D31F40E94FC11F5
:1024C00081958093380208958C3D19F40E94FC1187
:1024D000F8CF9FE2980F983070F4815D990B21E05E
:1024E00030E001C0220F8A95EAF780913402822BF6
:1024F0008093340208958D3D31F4809132028160E1
:102500008093320208958E3D21F4809132028260E0
:10251000F7CF8F3DB9F7809132028460F1CF4091BF
:1025200035028D3C59F48091360287FF0DC0109220
:10253000360241110BC01092310208C08E3C81F46A
:102540008091360218169CF3442381F08091370263
:1025500090913802892B09F05AC0109230020895E8
:102560008F3C49F447FFF0CF10923502809136023C
:102570008111ECCFE0CF803D19F41416ACF3E4CF19
:1025800090913702893D29F41916F4F6109237021A
:10259000DBCF8A3D19F497FFD7CFF8CF909138025F
:1025A0008B3D29F497FFD0CF10923802CDCF8C3DD0
:1025B00019F41916CCF3C8CF9FE2980F983090F415
:1025C000815D990B21E030E0B90102C0660F771FF1
:1025D0008A95E2F7CB01809590913402892380930C
:1025E0003402B2CF8D3D31F4809132028E7F8093E0
:1025F0003202AACF8E3D21F4809132028D7FF7CF37
:102600008F3D09F0A1CF809132028B7FF0CF0895EA
:102610000E944A1B9C019091350280913602982BB2
:1026200021F030932F0220932E0290913702809157
:102630003802982B21F030932D0220932C0283E353
:1026400092E00E94ED19089586E0E3E3F2E0DF01F5
:102650001D928A95E9F71092310210923002109281
:1026600032020895FC01828181110EC083818111A3
:102670000BC08481811108C091E08581811101C066
:1026800090E0892F8170089581E0FCCFA6E0B0E052
:10269000ECE4F3E10C94092386E0E3E3F2E0DE01ED
:1026A000119601900D928A95E1F7109235021092E1
:1026B000360210923702109238028B819C81892B4E
:1026C00089F080912E0290912F020E94621BAC0132
:1026D000909131029923C9F1809108018417150660
:1026E00008F440C08D819E81892B91F080912C024D
:1026F00090912D020E94621BAC01909130029923AF
:1027000009F471C0809104018417150608F479C09A
:10271000BE016F5F7F4F83E392E00E949A1A81119E
:1027200005C083E392E00E94321381110E940813D6
:1027300086E0FE013196A3E3B2E001900D928A9506
:10274000E1F72696E3E00C942523209109018AE025
:10275000289F900111242417350720F69F5F90933E
:10276000310202C09F3FD1F71B81112359F00E9413
:10277000BE119FEF11160CF491E0899F802D11245A
:10278000809335021C81112359F00E94BE119FEFE6
:1027900011160CF491E0899F802D1124809336024C
:1027A00030913502332309F49DCF20913602222344
:1027B00009F498CF45EB3403C0011124992359F053
:1027C0009093350245EB240390011124332339F013
:1027D0003093360287CF81E080933502F3CF81E0DA
:1027E000809336027FCF209105018AE0289F9001D7
:1027F00011242417350708F08BCF9F5F9093300288
:1028000002C09F3FD1F71D81112359F00E94FC1196
:102810009FEF11160CF491E0899F802D1124809375
:1028200037021E81112359F00E94FC119FEF1116EF
:102830000CF491E0899F802D11248093380230910F
:102840003702332309F464CF20913802222309F49C
:102850005FCF45EB3403C0011124992359F09093C5
:10286000370245EB240390011124332339F03093D0
:1028700038024ECF81E080933702F3CF81E080931E
:10288000380246CF82E290E00E945B23833289F4D3
:1028900083E290E00E945B23813059F484E290E06F
:1028A0000E945B2391E0813009F090E0892F8170D4
:1028B000089580E0FCCFCF93C82F6FEF811163E2C2
:1028C00082E290E00E946923C1110DC0CFEF6C2F0E
:1028D00083E290E00E9469236C2F84E290E00E94E2
:1028E0006923CF910895C1E0F2CF089585E290E089
:1028F0000E945B23682F70E090E080E008950895C7
:10290000CF93C62F0E947F146C2F85E290E00E9427
:102910006923CF91089580E00E945B1460E070E02D
:10292000CB010E9480140E949D170E946C1881E0C8
:102930000E945B1408950E9475140E9476140E94F0
:102940007F140E944214811102C00E948B140895CA
:102950000895CF93FB01C281CC2309F19C01225041
:1029600037472031310520F582500E947C18C0E0A5
:102970008C2FCF91089581E00E94E30743E062E04D
:1029800081E00E945E03F3CF81E00E94EF0743E005
:1029900062E081E00E945E03EBCF82E0F6CF81151A
:1029A000F7E79F0789F381309747B9F3C1E0E0CF9C
:1029B0008115E7E79E07F9F281309747C9F682E073
:1029C000DBCF2FEFFC01208308950E94E1140895CE
:1029D00080E00895EF92FF920F931F93CF93DF93C0
:1029E000EC01062F0E94E814811110C0E881E1502B
:1029F000E331B8F4F0E0E555FC4D0C94ED2219827A
:102A00008BE08A83602FCE010E940D1CCDB7DEB70C
:102A1000E6E00C94222389818230C1F028F48130D1
:102A200061F08FEF8883EECF833099F08430C9F75F
:102A30001A821B821C821D82E5CF0E94561B0E94B7
:102A4000F3226A837B838C839D83DCCF0E94761480
:102A5000F6CF7E0110E0812F0E945910F70192837A
:102A600083831F5FF2E0EF0EF11C1530A1F7CACF90
:102A70008981823031F08530A1F68A810E94A814C4
:102A8000C1CF6A817B818C819D810E94F3220E944B
:102A90008014B8CF4B816A8189810E945F17982783
:102AA000892798279D838C83ADCF2C813D81322748
:102AB000232732274B816A8189810E948117A2CF07
:102AC0000E949D179FCF602FCE010E94E5149ACFE0
:102AD0000E941D18898396CF0E941F189827892766
:102AE00098279A8389838ECF6B8170E089819A8140
:102AF000AE014C5F5F4F9827892798270E942218C4
:102B000081CF6B8170E089819A81AE014C5F5F4F0C
:102B10009827892798270E94471874CF0E946C181D
:102B200071CF0E944D17D6CF6B8170E089819A8159
:102B3000AE014C5F5F4F9827892798270E94C917DD
:102B400061CF6B8170E089819A81AE014C5F5F4FEC
:102B50009827892798270E94ED1754CFCF93DF93AA
:102B6000EC01FB018281882309F4D2C09E01305719
:102B70002332310508F0B2C00E94E40C9093500259
:102B800080934F02FE01E150F047E232F10520F45C
:102B9000E254FC4D0C94ED2280914F0281608093B1
:102BA0004F0293C0809150028860809350028DC084
:102BB00080914F028260F3CF80914F028460EFCF0B
:102BC00080914F028860EBCF809150028160EDCF01
:102BD000809150028260E9CF80914F028061DFCF07
:102BE00080914F028062DBCF80914F028064D7CF0B
:102BF0000E94650780914F028068D1CF80914F027B
:102C00008C60CDCF809150028360CFCF80914F02F6
:102C10008E7FC5CF80915002877FC7CF80914F02B2
:102C20008D7FBDCF80914F028B7FB9CF80914F02B6
:102C3000877FB5CF809150028E7FB7CF80915002B1
:102C40008D7FB3CF80914F028F7EA9CF80914F02AD
:102C50008F7DA5CF80914F028F7BA1CF0E9465070A
:102C600080914F028F779BCF80914F02837F97CFC8
:102C7000809150028C7F99CF80914F0282FB9927DF
:102C800090F921E0922790FB82F990FB83F987CF9E
:102C900080915002982F909591708E7F892B90FB98
:102CA00081F983CF90914F02892F8F7B96FF8064AB
:102CB00076CF0E94650790914F02892F97FB87F985
:102CC00080586DCF81E00E94640D80914F029091F9
:102CD00050020E94E90C0E94650780E0DF91CF91CD
:102CE000089580E0F0CF90914F02892F8F7E94FF5E
:102CF000806155CF90914F02892F8E7F90FF816028
:102D00004ECF90915002892F877F93FF88604DCFDF
:102D100081E0E4CFB0E0A0E0E0E9F6E10C94052327
:102D2000E82FF0E0EC5FFC4FD490282F26952695F5
:102D3000269530E0F901EC55FC4F0491877010E0C6
:102D4000082E02C0159507950A94E2F70170112725
:102D5000F901EC56FC4FE490F12C082E02C0F594DA
:102D6000E7940A94E2F791E0E922FF24F901EC5795
:102D7000FC4FC491D0E002C0D595C7958A95E2F783
:102D8000C170DD270115110519F081EE0E94710453
:102D9000E114F10419F086EE0E9471048D2D0E9459
:102DA0000905E114F10419F086EE0E94BE04011534
:102DB000110519F081EE0E94BE04CD2B19F08CE2B2
:102DC0000E940905CDB7DEB7E7E00C942123EF920E
:102DD000FF920F931F93CF93DF93EC01162F0AE01E
:102DE0008881882309F454C0813009F04EC089815C
:102DF000813099F47E0122E0E20EF11C8A810E946A
:102E00000905E7012196812F815050F3EFE9FFE09A
:102E10003197F1F700C00000F7CF823041F47E0116
:102E200082E0E80EF11C8A810E947104EACF8330AF
:102E300041F47E01E2E0EE0EF11C8A810E94BE04A4
:102E4000E0CF843011F02196DDCF2A81229690E0E8
:102E500080E0AE014F5F5F4F2053330B2A303105C6
:102E600048F0019778F2EFE9FFE03197F1F700C001
:102E70000000F7CF089FB001099F700D1124C90110
:102E8000860F971F2981EA01E4CF0E948A16BACFE4
:102E9000CDB7DEB7E6E00C94222384E0089550E03D
:102EA000440F551F9EE1699F400D511D112496E965
:102EB000899F400D511D1124CA01869608950F93D4
:102EC0001F93CF93DF938430C8F46530B8F44F304C
:102ED000A8F40E944F178C010E945B23C82FD0E0FA
:102EE000DC2FCC27C80101960E945B239E01282B72
:102EF000C901DF91CF911F910F91089590E080E07B
:102F0000F8CF0F931F93CF93DF93122F032F8430AB
:102F100078F4653068F44F3058F40E944F17EC0194
:102F2000602F0E946923612FCE0101960E946923C0
:102F3000DF91CF911F910F9108950F931F93CF931E
:102F4000DF93D0E0C0E010E019C00E94D40221E07D
:102F500030E08C171D0639F034F0402F612F8C2F94
:102F60000E94D6029C01402F612F8C2F0E94811756
:102F70000F5F0F3051F71F5F153011F000E0E5CF04
:102F80002196C430D105F9F6DF91CF911F910F91B1
:102F90000895EF92FF920F931F93CF93DF93EC016D
:102FA0008A017C01E60EF71ECE018696CE15DF055E
:102FB00029F4CDB7DEB7E6E00C942223C83522E031
:102FC000D20740F40E945B23F80180830F5F1F4FFC
:102FD0002196EACFF8011082F9CFB0E0A0E0E3EF4C
:102FE000F7E10C9404237C016A018C01060F171F82
:102FF000EC01CE018696C017D10729F4CDB7DEB714
:10300000E8E00C942023C83522E0D20740F4FE010A
:10301000EE19FF09EC0DFD1D60810E9469232196C8
:10302000E8CF843038F4653028F44F3018F40E942B
:103030005F17089590E080E0089580E1089582E8A8
:1030400091E00895EF92FF920F931F93CF93DF9338
:10305000EC018A017C01E60EF71ECE0182589D4FDD
:10306000CE15DF0529F4CDB7DEB7E6E00C942223B8
:10307000C23821E0D20740F40E945B23F80180832C
:103080000F5F1F4F2196E9CFF8011082F9CFB0E012
:10309000A0E0EDE4F8E10C9404237C016A018C01CA
:1030A000060F171FEC01CE0182589D4FC017D107A4
:1030B00029F4CDB7DEB7E8E00C942023C23821E034
:1030C000D20740F4FE01EE19FF09EC0DFD1D6081F1
:1030D0000E9469232196E7CFCF93DF93CEE7D2E01A
:1030E00060E0CE010E9469232196C11584E0D807D3
:1030F000B9F7DF91CF910895A8E0B0E0E2E8F8E1F8
:103100000C940223F82E8FE08F1508F46EC08FEF19
:1031100093E00E945B23811168C00EE712E0F1107A
:1031200035C0FE0131966F0188E011928A95E9F76A
:103130007801FFEFEF1AFF0AC8010E945B23898321
:103140001A82882309F451C08130D1F4580182E0F9
:10315000A80EB11CC7010E945B238A83882309F44F
:1031600044C09FEF980F9330F0F4780193E0E90E9C
:10317000F11CC5010E945B238B838823B1F11C8263
:1031800060E0C6010E94E7168701D2CF011594E0E6
:10319000190759F1C8010E945B23811101C0FA94FB
:1031A0000F5F1F4FBCCF7501843051F702E010E074
:1031B0007501EFEFEE1AFE0AC5010E945B23F601CE
:1031C000E00FF11F8083882381F08C3741F4E2E027
:1031D000F0E0EC0FFD1FE00FF11F1082D1CF0F5F69
:1031E0001F4F57010730110519F72896EAE00C9494
:1031F0001E23CF93DF93EB0186319C4711F50E948C
:10320000E00B9A81992399F08A7A91E009F490E091
:1032100090933902811109C089E20E94B80B0E9483
:10322000210C80E0DF91CF91089585E3F6CF809166
:103230003902811104C089E20E94C00BF0CF85E3FE
:10324000FBCF81E0EFCF0F931F93CF93DF93C42F7A
:10325000D22FFC0182818823C9F040933C020E9456
:103260004A1B90933B0280933A0280E28C0F883095
:1032700040F4C77081E001C0880FCA95EAF70E9448
:103280001205DF91CF911F910F91089510913C028B
:10329000141332C080913A0290913B020E94621B4B
:1032A000883C910548F5C0E2CD0F1D17B9F080E2CA
:1032B000810F883040F4177081E001C0880F1A95A3
:1032C000EAF70E941905C83048F481E09D2F9770F5
:1032D00001C0880F9A95EAF70E941205802F0E947C
:1032E0000905C83070F6D77081E001C0880FDA9503
:1032F000EAF70E941905C5CF80E28C0F883008F6E6
:10330000C77081E001C0880FCA95EAF7F2CF0F932A
:10331000DB0188519C4787309105A0F5FC01E05204
:10332000FC4D0C94ED2206E221EE41EE6AE17CE7D1
:10333000CD010E94231980E00F91089507E225EE48
:1033400045EE6BE17CE7F4CF06E221EE40EE68E16A
:103350007CE7EECF07E225EE44EE69E17CE7E8CFBB
:1033600006E221EE42EE6CE17CE7E2CF07E225EED9
:1033700046EE6DE17CE7DCCF08E221E045EE6EE150
:103380007CE7D6CF12968C91882319F010923C02DC
:10339000D3CF81E0D1CF9093A1018093A001089574
:1033A00090934202809341020895E0914102F0918E
:1033B0004202309729F00190F081E02D099508959F
:1033C00080E00895E0914102F0914202309721F0AF
:1033D0000280F381E02D09950895E0914102F0917A
:1033E0004202309739F022E0DC012C930480F58111
:1033F000E02D09950895A3E0B0E0E1E0FAE10C9436
:103400000A2320913F023091400228173907A1F08A
:103410009093400280933F02E0914102F09142027A
:10342000309751F023E029839B838A830680F781BC
:10343000E02DCE01019609952396E2E00C94262317
:10344000A3E0B0E0E6E2FAE10C940A2320913D0209
:1034500030913E0228173907A1F090933E028093E5
:103460003D02E0914102F0914202309751F024E098
:1034700029839B838A830680F781E02DCE01019604
:1034800009952396E2E00C9426239C012E5F3F4F82
:10349000AC01485F5F4F80E02417350709F40895B9
:1034A000F90191919F019923B9F38F5FF5CF6623BD
:1034B00049F0FC01329608962191261729F0E81769
:1034C000F907D1F780E0089581E008959C01FC019F
:1034D00032969FEF80E04191461751F09F3F19F4DB
:1034E000411101C0982F8F5F8630A9F79F3F09F4E3
:1034F0000895290F311D97FD3A95F90162830895CA
:10350000FC01329608962191261303C0DF01119722
:103510001C92E817F907B9F708950E94661A0895F2
:103520000E94801A0895029626E0FC0111922A95C5
:10353000E9F7089546E050E00E94452321E0892BF9
:1035400009F420E0822F089508950E94A41A089596
:10355000811106C081E0809343020E94A51A08955C
:1035600082E0F9CF83E0809343020E94A51A089578
:103570000E94A81A089581E0809343020E94A51A30
:1035800008950E94BB1A0895089508950E94C51ACF
:103590000895089508950E94C41A0895CF930E9433
:1035A000C91A0E9428110E94CA1AC0E08C2F0E94DA
:1035B0005910892B31F4CF5FC530C1F780E0CF912E
:1035C000089581E0FCCF85B7806885BF85B78068A6
:1035D00085BF08951F921FB61F9211248F939F934A
:1035E000AF93BF9380914402811113C08091650213
:1035F00090916602A0916702B09168024196A11D68
:10360000B11D8093650290936602A0936702B09308
:103610006802BF91AF919F918F911F901FBE1F9025
:10362000189580916D02843031F10E94E30310926D
:10363000440288E190E020E40FB6F894A8958093C6
:1036400060000FBE2093600083B7817F846083BFDA
:1036500083B7816083BF7894889583B78E7F83BF5B
:103660000FB6F894A89580916000886180936000FF
:10367000109260000FBE08950E9465070E94E80343
:10368000089582E084BD93E095BD9AEF97BD809345
:103690006E0008952FB7F8948091650290916602AC
:1036A000A0916702B09168022FBF08952FB7F894D8
:1036B0006091650270916602809167029091680244
:1036C0002FBF08959C014FB7F894809165029091A7
:1036D0006602A0916702B09168024FBF821B930BF4
:1036E000089578941F921FB61F9211248F939F9371
:1036F000AF93BF938091650290916602A09167029B
:10370000B09168020196A11DB11D8093650290934E
:103710006602A0936702B0936802BF91AF919F9138
:103720008F911F901FBE1F90189581E08093E0003D
:1037300080E28093D8001092C9008FE19EE4019747
:10374000F1F700C0000087E090EBDC018093760287
:1037500090937702A0937802B093790288E19CE07D
:103760000FB6F894A895809360000FBE9093600008
:10377000FFCF88E19CE00FB6F894A8958093600095
:103780000FBE90936000FFCF80914D0208959B0182
:10379000BA0190916D029430E9F48F708093E90042
:1037A0009FEF8091E800915085FD06C085ED8A95D8
:1037B000F1F700009111F5CF8091E80085FF0AC074
:1037C00050E040E0C9010E94031E8091E8008E771E
:1037D0008093E800089543E050E0BC0184E00E943B
:1037E000C71B089546E050E0BC0184E00E94C71B5F
:1037F0000895CF93DF93EC0148E050E0BC0181E0F5
:103800000E94C71B88E0FE01A5E4B2E001900D9282
:103810008A95E1F7DF91CF910895603231F440E26B
:1038200050E0BC0182E00E94C71B089580916C02A9
:10383000811109C00E94E21F0E943F208091E20096
:1038400084608093E200089510926C0208950E94B3
:10385000BB1A08956091690281E0611101C080E0A6
:103860000E94B21A089590916D0281E0943009F09F
:1038700080E0609169020E94B81A089542E061EC0C
:1038800081E00E945E1F42E261EC84E00E945E1FC4
:1038900042E261EC82E00E945E1F42E260EC83E063
:1038A0000E945E1F90916D0281E0943009F080E0EB
:1038B000609169020E94A81A089580916F02833076
:1038C00009F463C030F48130E1F1823009F4A0C022
:1038D00008958A3009F48CC08B3009F471C08930A6
:1038E00009F052C080916E02813209F04DC0809182
:1038F000720290917302009719F0029709F044C088
:103900008091E800877F8093E8008091E80082FF43
:1039100037C09091F3008091F200029731F48091CA
:10392000F100813011F0863021F48091F100809314
:103930004D028091E8008B778093E8000E94921FEF
:1039400023C080916E02813AF9F48091E800877F6C
:103950008093E8008091720290917302892B61F448
:1039600068E085E492E070E00E94A11E8091E8008A
:103970008B778093E800089560E090E080E0F3CFDB
:1039800080916D028111C1CF089580916E02813ABC
:10399000D9F78091720290917302892BA9F78091D7
:1039A000E800877F8093E8008091E80080FFFCCFEB
:1039B000809112018093F1008091E8008E77BCCF56
:1039C00080916E02813201F78091720290917302B0
:1039D000892BD1F68091E800877F8093E8000E94D0
:1039E000921F80917002809312010E9465070895D2
:1039F00080916E02813241F68091E800877F80934A
:103A0000E8000E94921F8091710280934E020895F7
:103A100080916E02813A09F0B7CF8091E800877FEC
:103A20008093E8008091E80080FFFCCF80914E02F7
:103A3000C1CF84B7877F84BF0FB6F894A8958091D3
:103A40006000886180936000109260000FBE80E883
:103A500090E00FB6F89480936100909361000FBEE0
:103A60000E94C11A08950E94E21F0E943F20E2EEC8
:103A7000F0E080818460808378940E94BE22089563
:103A80008AE091E00E94D019089580916D028530FE
:103A900031F480916D02853019F00E943C1B08952D
:103AA0000E94111B80916B02882399F30E94CE1A09
:103AB000882379F30E94ED1D0E946507EACFA0E2FA
:103AC000B0E0E5E6FDE10C940A2380916D028430BC
:103AD00009F583E08093E9008091E80082FF1AC035
:103AE0008091E80090E085FF09C050E040E060E28E
:103AF00070E0CE0101960E94521E91E08091E80094
:103B00008B778093E800992329F060E2CE0101963B
:103B10000E94EA14A096E2E00C9426239A014091B8
:103B20007402509175020E94961D0895492F5527E1
:103B30004330510521F168F44130510509F443C087
:103B40004230510509F444C090E080E050E040E08C
:103B500026C04132510551F142325105A9F7633077
:103B6000710590F7FB01EE0FFF1FEC56FE4F4081F1
:103B700051816F567E4FFB01808190E010C09927E4
:103B80008130910581F0009729F00297E9F6E4EB86
:103B9000F3E002C0E6EEF3E0849190E0AF01F901BA
:103BA000518340830895E0ECF3E0F6CF6330710574
:103BB00058F6660F771FFB01E656FE4F4081518194
:103BC00089E090E0ECCF82E190E045E454E0E7CF7B
:103BD0008BE590E04AEE53E0E2CF80E189BD82E1DF
:103BE00089BD09B400FEFDCF8091D8008F7D809300
:103BF000D8008091E00082608093E0008091E00036
:103C000081FDFCCF0895AF92BF92CF92DF92FF92D9
:103C10000F931F93CF93DF936C01EB018A010E94F6
:103C2000B11FF82E811123C00115110539F0F801DB
:103C300080819181C81BD90BC80ED91EB12CA12C33
:103C40002097A9F08091E80085FD22C08091E800CE
:103C50008E778093E80001151105A1F0F8018081AD
:103C60009181A80EB91EB182A08285E0F82E8F2D19
:103C7000DF91CF911F910F91FF90DF90CF90BF9078
:103C8000AF9008950E94B11F8823D1F2F82EEFCF94
:103C9000F60181916F018093F1002197FFEFAF1A38
:103CA000BF0ACECFAF92BF92CF92DF92FF920F9317
:103CB0001F93CF93DF936C01EB018A010E94B11F28
:103CC000F82E811123C00115110539F0F80180810A
:103CD0009181C81BD90BC80ED91EB12CA12C2097DD
:103CE000A9F08091E80085FD22C08091E8008B77E3
:103CF0008093E80001151105A1F0F8018081918100
:103D0000A80EB91EB182A08285E0F82E8F2DDF911A
:103D1000CF911F910F91FF90DF90CF90BF90AF9008
:103D200008950E94B11F8823D1F2F82EEFCF809121
:103D3000F100F60181936F012197FFEFAF1ABF0ADF
:103D4000CECFFC018091740290917502861797077F
:103D5000A0F06115710529F49091E8009E77909389
:103D6000E80090E06115710551F4911108C080914F
:103D7000E80082FF34C080E00895BC01F2CF80915A
:103D80006D028823C1F18530C1F18091E80083FD87
:103D900030C08091E80082FDEACF8091E80080FF8A
:103DA000E1CF8091F3002091F200382F6115710569
:103DB00019F02830310558F091E02830310509F02C
:103DC00090E02091E8002E772093E800CBCF8191FE
:103DD0008093F100615071092F5F3F4FE7CF8091D1
:103DE0006D02882341F0853041F08091E80083FF27
:103DF000BECF81E0089582E0089583E00895FC013C
:103E0000809174029091750286179707A0F0611552
:103E1000710529F48091E8008E778093E80090E0A6
:103E20006115710551F4911108C08091E80082FF7D
:103E300035C080E00895BC01F2CF80916D028823E7
:103E4000C9F18530C9F18091E80083FD31C08091CE
:103E5000E80082FDEACF8091E80080FFE1CF809109
:103E6000F3002091F200382F6115710519F0283008
:103E7000310558F091E02830310509F090E080914B
:103E8000E8008E778093E800CBCF84918093F10097
:103E90003196615071092F5F3F4FE6CF80916D02DF
:103EA000882341F0853041F08091E80083FFBDCF49
:103EB00081E0089582E0089583E00895982F973077
:103EC00028F08F708093E90081E008959093E900D5
:103ED000242F762F50E0981731F07091EC0020914C
:103EE000ED005091F00021FD02C09F5FE8CF3091BE
:103EF000EB003E7F3093EB003091ED003D7F30933F
:103F0000ED003091EB0031603093EB007093EC00EA
:103F10002093ED005093F0002091EE0027FDE5CFB7
:103F200080E0089580916E0287FF13C08091E800C1
:103F300082FF06C08091E8008B778093E80004C080
:103F400080916D028111F2CF089580916D028823D6
:103F5000D9F38091E80080FFF8CF8091E8008E7758
:103F6000ECCF2091E4003091E50095E6A901209185
:103F7000EC00822F817020FF06C08091E80080FF56
:103F800006C080E008952091E80022FD1AC08091CB
:103F90006D02882389F0853089F08091EB0085FDE2
:103FA0000FC02091E4003091E50042175307F9F269
:103FB0009150E1F684E0089582E0089583E0089549
:103FC00081E008950E9451200E945920E0EEF0E027
:103FD000808181608083E8EDF0E080818F7780834D
:103FE00019BCA7EDB0E08C918E7F8C9380818F7E81
:103FF000808310926C0208950F931F93CF93DF93E9
:104000000E9451200E945920C8EDD0E088818F770E
:10401000888388818068888388818F7D888319BCA4
:1040200010926D021092690210926B0210926A0255
:1040300000EE10E0F80180818B7F808388818160B1
:10404000888342E060E080E00E945E1FE1EEF0E0E5
:1040500080818E7F8083E2EEF0E0808181608083CA
:10406000808188608083F80180818E7F8083888151
:1040700080618883DF91CF911F910F910895E8EDC2
:10408000F0E080818F7E8083E7EDF0E080818160C9
:10409000808384E082BF81E080936C020E94FC1FD9
:1040A0000895E8EDF0E080818E7F80831092E20039
:1040B00008951092DA001092E10008951F920F9275
:1040C0000FB60F9211242F933F934F935F936F93EB
:1040D0007F938F939F93AF93BF93EF93FF938091C1
:1040E000E10082FF0BC08091E20082FF07C0809157
:1040F000E1008B7F8093E1000E94BD228091DA0075
:1041000080FF19C08091D80080FF15C08091DA002F
:104110008E7F8093DA008091D90080FF96C080E185
:1041200089BD82E189BD09B400FEFDCF81E08093A5
:104130006D020E94161C8091E10080FF19C08091E1
:10414000E20080FF15C08091E2008E7F8093E20044
:104150008091E20080618093E2008091D8008062CB
:104160008093D80019BC85E080936D020E942A1CC0
:104170008091E10084FF2BC08091E20084FF27C082
:1041800080E189BD82E189BD89B5982F917080FF5A
:10419000FBCF8091D8008F7D8093D8008091E10083
:1041A0008F7E8093E1008091E2008F7E8093E20019
:1041B0008091E20081608093E2008091690288230F
:1041C00009F449C084E080936D020E94331C809101
:1041D000E10083FF29C08091E20083FF25C0809128
:1041E000E100877F8093E10082E080936D0210926E
:1041F00069028091E1008E7F8093E1008091E2006E
:104200008E7F8093E2008091E20080618093E200E3
:1042100042E060E080E00E945E1F8091F0008860D4
:104220008093F0000E94271CFF91EF91BF91AF9106
:104230009F918F917F916F915F914F913F912F91BE
:104240000F900FBE0F901F90189519BC10926D0221
:104250000E94241C70CF8091E30087FD93E090932F
:104260006D02B3CF1F920F920FB60F9211242F93AE
:104270003F934F935F936F937F938F939F93AF93EE
:10428000BF93CF93DF93EF93FF93D091E900DF705B
:104290008091EC00C82FC17080FDC0E81092E90049
:1042A0008091F000877F8093F00078940E947621BF
:1042B0001092E9008091F00088608093F000CD2B8F
:1042C000CF70C093E900FF91EF91DF91CF91BF9143
:1042D000AF919F918F917F916F915F914F913F919E
:1042E0002F910F900FBE0F901F901895AAE2B0E08B
:1042F000ECE7F1E20C9409238EE692E02091F100C4
:10430000FC012193CF01F2E086379F07B9F70E94A5
:104310005D1C8091E80083FF1EC180916E02909128
:104320006F029A3008F017C1E92FF0E0E951FC4D17
:104330000C94ED22803899F0823809F00CC18091FC
:1043400072028F70873008F006C18093E900809177
:10435000EB0085FB882780F91092E90006C0809168
:104360006A0290916B02911182609091E800977FB0
:104370009093E8008093F1001092F1008091E800A2
:104380008E77E5C0882309F4D3C0823009F0E3C0FA
:10439000809170028111D6C0809172028F702FEFD0
:1043A000280F263008F0D7C08093E9002091EB0059
:1043B00020FFC8C0933031F48091EB00806280937D
:1043C000EB00C0C09091EB0090619093EB0021E076
:1043D00030E001C0220F8A95EAF72093EA0010929C
:1043E000EA008091EB008860EACF8111B4C010919F
:1043F00070021F778091E3008078812B8093E30027
:104400008091E800877F8093E8000E94921F80914E
:10441000E80080FFFCCF8091E30080688093E30098
:1044200082E0111183E080936D0295C08058823044
:1044300008F091C080917002909171028C3D23E050
:104440009207A1F583E08A838AE289834FB7F894C3
:10445000DE01139620E03EE051E2E32FF0E05093BE
:104460005700E49120FF03C0E295EF703F5FEF70CB
:104470008E2F90E0EA30C0F0C7968D939D932F5F0A
:10448000243159F74FBF8091E800877F8093E8007F
:104490006AE270E0CE0101960E94A11E8091E800C0
:1044A0008B778093E80057C0C096E7CF6091720287
:1044B00070917302AE014F5F5F4F0E948E1DBC0171
:1044C000892B09F448C09091E800977F9093E80009
:1044D00089819A810E94FF1EE1CF8038E1F58091A9
:1044E000E800877F8093E800809169028093F10063
:1044F00045CF811130C090917002923060F580916B
:10450000E800877F8093E800909369020E94921FE1
:1045100080916902882311F084E005C08091E30056
:1045200087FDFACF81E080936D020E943E1C13C08C
:1045300080917002813079F481E0933009F080E05D
:1045400080936B021092E9008091E800877F80934E
:10455000E8000E94921F8091E80083FF0AC08091CA
:10456000E800877F8093E8008091EB008062809371
:10457000EB00AA96E3E00C9425230895CF93809155
:104580006D028823A1F0C091E900CF709091EC00FA
:10459000892F817090FD80E8C82B1092E9008091EE
:1045A000E80083FD0E947621CF70C093E900CF918F
:1045B000089597FB072E16F4009407D077FD09D0D5
:1045C0000E94312307FC05D03EF4909581959F4FC2
:1045D0000895709561957F4F0895EE0FFF1F059028
:1045E000F491E02D09946927962769277827872772
:1045F000782708952F923F924F925F926F927F9209
:104600008F929F92AF92BF92CF92DF92EF92FF92E2
:104610000F931F93CF93DF93CDB7DEB7CA1BDB0B8E
:104620000FB6F894DEBF0FBECDBF09942A88398833
:1046300048885F846E847D848C849B84AA84B9843A
:10464000C884DF80EE80FD800C811B81AA81B98146
:10465000CE0FD11D0FB6F894DEBF0FBECDBFED015A
:104660000895AA1BBB1B51E107C0AA1FBB1FA617B9
:10467000B70710F0A61BB70B881F991F5A95A9F70B
:1046800080959095BC01CD010895FB01DC0104C02B
:104690008D910190801921F441505040C8F7881B3A
:1046A000990B0895FB01DC0102C001900D9241506D
:1046B0005040D8F70895F999FECF92BD81BDF89A80
:1046C000992780B50895A8E1B0E042E050E00C944D
:1046D0008F23262FF999FECF92BD81BDF89A0197BD
:1046E00000B4021639F01FBA20BD0FB6F894FA9A3A
:1046F000F99A0FBE08950396272F0E946A230E94FD
:104700006923252F0E946A23242F0C946A23019683
:10471000272F0E946A230C946923DC01CB01FC0142
:10472000F999FECF06C0F2BDE1BDF89A319600B40A
:104730000D9241505040B8F70895F894FFCF5B05B3
:104740005B058C058C051E063A06BB05BB053F06BE
:10475000A606B506B506FF140B1538154A155515EE
:1047600060156315631563151115111568156C1522
:10477000741581158E1591159415A11506167A16C6
:104780000E16D815DC151216E01516162216EC15A5
:104790007316F0152616F4152A165216F8152E164D
:1047A0005916FE1534163C16E4151A16E8151E1691
:1047B00002163816481662167116D2150A16811698
:1047C000A419AA1993199E19B019B619BC199A21DE
:1047D000C221AB22C221AB22F5211622AB226D22CF
:0247E00079223C
:1047E2000A02280850011E0A1401C41BF91BF21BFD
:1047F200EB1B01E200E900EA00B500B600B700CD0C
:10480200008301CC008A0192019401210223022437
:10481200022502260227022A02B300B4006F0070AA
:10482200009F01CB01818283E200E900EA00B5002A
:10483200B600B700CD008301CC008A019201940139
:104842002102230224022502260227022A02B300A1
:10485200B4006F0070009F01CB01818283F766F67E
:1048620036F5F435F1C6909795919392323130F046
:104872003440227BF40457047904FC031504350404
:00000001FF
