:100000000C9485020C94BD020C94BD020C94BD02AC
:100010000C94BD020C94BD020C94BD020C94BD0264
:100020000C94BD020C94BD020C949A180C945618B2
:100030000C9497190C94BD020C94BD020C94BD0253
:100040000C94BD020C94BD020C94BD020C94BD0234
:100050000C94BD020C9473190C94BD020C94BD0257
:100060000C94BD020C94BD020C94BD020C94BD0214
:100070000C94BD020C94BD020C94BD020C94BD0204
:100080000C94BD020C94BD020C94BD020C94BD02F4
:100090000C94BD020C94BD020C94BD020C94BD02E4
:1000A0000C94BD020C94BD020C94BD020501090222
:1000B000A10185020901A1000509190129081500FE
:1000C0002501950875018102050109300931158165
:1000D000257F95027508810609381581257F9501D0
:1000E00075088106050C0A38021581257F95017572
:1000F000088106C0C005010980A101850319012AF4
:10010000B700150126B700950175108100C0050CD8
:100110000901A101850419012AA002150126A002E6
:10012000950175108100C00660FF0961A101096297
:10013000150026FF00952075088102096315002629
:10014000FF00952075089102C005010906A101056F
:100150000719E029E7150025019508750181029529
:1001600001750881010507190029FF150026FF0008
:100170009506750881000508190129051500250156
:10018000950575019102950175039101C00000006C
:10019000000000000000000000000000000000005F
:1001A000000000000000000000000000000000004F
:1001B000007E0F00D4FFFFFFC700000078000000A2
:1001C00000000000002A2B280000000000000000B2
:1001D000000000000000000029000000002C1E3478
:1001E00020212224342627252E362D3738271E1F7E
:1001F000202122232425263333362E37381F0405A9
:10020000060708090A0B0C0D0E0F10111213141516
:10021000161718191A1B1C1D2F3130232D350405F4
:10022000060708090A0B0C0D0E0F101112131415F6
:10023000161718191A1B1C1D2F3130354C29001E9A
:10024000001F00200021002200230024002500269A
:100250000027002D002E002A002B0014001A000891
:1002600000150017001C0018000C00120013002FCE
:100270000030003100390004001600070009000AB0
:10028000000B000D000E000F003300340028004C5E
:1002900000E10031001D001B0006001900050011DF
:1002A000001000360037003800E5002152E000E37E
:1002B00000E2000000000000002C00000000000030
:1002C00000E600E7006500E400007C010001000199
:1002D0000001000100010001000100010001000116
:1002E0000001000100010001000100010001000106
:1002F00000010001000100010001000100010001F6
:1003000000010001000100010001000100010001E5
:1003100000010001000100010001000100010001D5
:1003200000010001000100010001000100010001C5
:1003300000010001000100010001000100010000B6
:1003400000000000000100000000000000010001AA
:100350000001000100010001000100010001000195
:100360000001000100010001000100010001000185
:100370000001000100010001000100010001000175
:100380000001000100010001000100010001000165
:100390000001000100010001000100010001000155
:1003A0000001000100010001000100010001000145
:1003B0000001000100010001000100010001000135
:1003C0000001000100010001000100000000000028
:1003D0000001000000000000000100010001000118
:1003E0000001000100010001000100010001000105
:1003F00000010001000100010001000100010001F5
:1004000000010001000100010001000100010001E4
:1004100000010001000100010001000100010001D4
:1004200000010001000100010001000100010001C4
:1004300000010001000100010001000100010001B4
:1004400000010001000100010001000100010001A4
:100450000001000100010000000000000001000098
:100460000000000000010001000100010009025B22
:1004700000030100A0FA09040000010301010009C2
:100480002111010001224400070581030800010930
:1004900004010002030000000921110100012222D1
:1004A000000705820320000107050303200001095E
:1004B0000402000103000000092111010001227B58
:1004C000000705840320000112010002000000085B
:1004D0004B49313001000102000114034900720050
:1004E00069007300200052006500760030000000B3
:1004F000140353006F006E004F006600410072004D
:100500006500730000000403090411241FBECFEF2F
:10051000DAE0DEBFCDBF04B603FE18C0809135021D
:1005200090913602A0913702B09138028730904BFB
:10053000A740B04B59F41092350210923602109237
:10054000370210923802E0E0F8E3099511E0A0E0EC
:10055000B1E0EAE5FEE302C005900D92A636B107D0
:10056000D9F722E0A6E6B1E001C01D92A533B2079B
:10057000E1F70E94BE190C94D91E0C940000482F7C
:10058000209131029091F80157E0291302C080E0D8
:10059000089530E0529FF001539FF00D1124E75071
:1005A000FE4F8181681306C08081481303C0858196
:1005B0008111EECF2F5F3F4F2770E7CFE8EDF0E0DE
:1005C00080818E7F80831092E2001092DA00109278
:1005D000E100A0EEB0E08C9181608C9380818F77F8
:1005E000808319BCA7EDB0E08C918E7F8C938081C5
:1005F0008F7E80831092E10108952091E400309174
:10060000E50095E6A9012091EC00822F817020FF82
:1006100006C08091E80080FF06C080E00895209128
:10062000E80022FD1AC08091EE01882389F0853010
:1006300089F08091EB0085FD0FC02091E40030919E
:10064000E50042175307F9F29150E1F684E008956E
:1006500082E0089583E0089581E008958091F0019B
:1006600087FF13C08091E80082FF06C08091E800F8
:100670008B778093E80004C08091EE018111F2CF66
:1006800008958091EE018823D9F38091E80080FFDE
:10069000F8CF8091E8008E77ECCF982F9093E90007
:1006A000242F762F50E0891731F07091EC002091C3
:1006B000ED005091F00021FD07C09F5F973071F76A
:1006C0008093E90081E008953091EB003E7F309304
:1006D000EB003091ED003D7F3093ED003091EB0069
:1006E00031603093EB007093EC002093ED00509359
:1006F000F0002091EE0027FDE0CF80E00895B0E00B
:10070000A0E0E5E8F3E00C94391EC8EDD0E0888164
:100710008F7E8883E7EDF0E080818160808384E0D4
:1007200082BF81E08093E10188818E7F888302EE21
:1007300010E0F80110821092DA0081EEC82ED12C60
:10074000F601108288818F7788838881806888830A
:1007500088818F7D888319BC1092EE011092EF0181
:100760001092ED011092EC0190EEE92EF12CF701C0
:1007700080818B7F808388818160888342E060E014
:1007800080E00E944D03F60180818E7F8083F80116
:10079000808181608083808188608083F70180818F
:1007A0008E7F8083888180618883CDB7DEB7E8E063
:1007B0000C94551EFC018091F6019091F70186176B
:1007C0009707A0F06115710529F49091E8009E77D4
:1007D0009093E80090E06115710551F4911108C003
:1007E0008091E80082FF34C080E00895BC01F2CF20
:1007F0008091EE018823C1F18530C1F18091E8003C
:1008000083FD30C08091E80082FDEACF8091E8004E
:1008100080FFE1CF8091F3002091F200382F611525
:10082000710519F02830310558F091E02830310574
:1008300009F090E02091E8002E772093E800CBCFDC
:1008400081918093F100615071092F5F3F4FE7CF95
:100850008091EE01882341F0853041F08091E800DD
:1008600083FFBECF81E0089582E0089583E008957C
:1008700008958091E30108959C014FB7F894809109
:10088000DD019091DE01A091DF01B091E0014FBF49
:10089000821B930B08952FB7F8948091DD019091FE
:1008A000DE01A091DF01B091E0012FBF0895EAE6DB
:1008B000F1E09191891303C0DF0111971C9291E03F
:1008C000E037F907B1F70895AAE6B1E0EFEF90E05D
:1008D0002D91821751F0EF3F19F4211101C0E92F3A
:1008E0009F5F9630A9F7EF3F09F408950E2E000C94
:1008F000FF0BE859FE4F82830895A3E0B0E0E3E8E0
:10090000F4E00C943F1E2091DA013091DB012817AE
:100910003907A1F09093DB018093DA01E091D801CF
:10092000F091D901309751F024E029839B838A8389
:100930000084F185E02DCE01019609952396E2E031
:100940000C945B1EA3E0B0E0E8EAF4E00C943F1ED8
:100950002091D6013091D70128173907A1F0909343
:10096000D7018093D601E091D801F091D901309759
:1009700051F023E029839B838A830084F185E02D55
:10098000CE01019609952396E2E00C945B1EE0915E
:10099000D801F091D901309729F00190F081E02D34
:1009A0000995089580E008950E944B049C01909160
:1009B000D2018091D301982B21F03093CF01209365
:1009C000CE019091D4018091D501982B21F03093E4
:1009D000CD012093CC01E091D801F091D90130975D
:1009E00049F082E08093D0010680F781E02D80ED10
:1009F00091E0099508958091CB0180FD16C081FD9D
:100A000016C082FD16C08091CA018823A1F08832E9
:100A100080F428E0829FC001112468E270E00E9407
:100A20000E1E862F672B39F0089582E0089584E02A
:100A3000089588E0089581E008958091CB0180FDBC
:100A400014C081FD14C082FD16C08091C9018823A5
:100A500081F08E3180F420E5829FC00111246EE187
:100A600070E00E940E1E862F089584E1089588E2AA
:100A7000089588E0089580E50895282F35EB230335
:100A8000C001112497FF04C080589109892F08954F
:100A900080589F4FFBCF80E00895F894E82FE295AF
:100AA000EF70F0E031A1282F2F7081E090E001C0BD
:100AB000880F2A95EAF7982F9095932391A392A1F6
:100AC000892B82A3789408959091B10192FF10C070
:100AD00041E0282F2471243009F040E031E0282F34
:100AE0002871283009F030E0431711F02CE08227FC
:100AF00093FF10C041E0282F2471243109F040E019
:100B000031E0282F2871283109F030E0431711F027
:100B10002CE082273091B20130FF10C051E0282F25
:100B20002171213009F050E041E0282F2871283050
:100B300009F040E0541711F029E0822731FF10C07E
:100B400041E0282F2171213109F040E031E0282FC8
:100B50002871283109F030E0431711F029E082278D
:100B600094FD877E089582389105B9F1B0F4813300
:100B7000910509F47DC048F48932910509F46DC0EE
:100B80008A32910509F47BC008958533910509F4F3
:100B90005FC08933910509F10895833E9105D9F12C
:100BA00038F4803E910529F1823E910579F108954E
:100BB000863E9105D9F1873E910509F43EC0843EF9
:100BC000910541F52091B20121FF24C08091B1012E
:100BD00084FD19C087EE90E008952091B101237043
:100BE00009F05AC02091B20123FF14C089E290E0BD
:100BF00008952091B10120FD38C03091B20130FF3D
:100C000009C024FF43C090E080E008952091B10125
:100C100022FDF7CF08952091B10122FD3AC0309115
:100C2000B20130FD39C024FFF5CFEDCF2091B101E5
:100C300023FFF0CF24FDE7CFCDCF2091B10123FDDD
:100C40002EC03091B20131FFEECF84EE90E00895D6
:100C50002091B10125FFDECFC9CF2091B10125FD43
:100C600021C02091B20123FFD5CF89E390E0D2CFFC
:100C70002091B10126FFCECF8AE290E00895209125
:100C8000B10126FFC7CF81E390E0089583EE90E0A5
:100C9000089582EE90E0089580EE90E0089586EE4B
:100CA00090E0089585E390E008951F93CF93DF933C
:100CB0000E94B305EC01C11580E5D807F0F5C11518
:100CC00080E4D80708F09CC0C03ED10520F5CD3C9B
:100CD000D10508F082C0C83AD10578F4C53AD105EB
:100CE00008F073C0C130D10519F1209709F1C43063
:100CF000D105F0F4D0E0C0E01BC0C33CD105D0F773
:100D0000C85AD0E0CC0FDD1FC25FDE4F0990D881FA
:100D1000C02DD4640DC0C11580E2D80708F0D1C041
:100D2000C11581E0D80708F05AC0C83ED10510F7B8
:100D3000CE01DF91CF911F910895C03682E5D8078B
:100D400018F5C03482E5D80708F06BC0C03282E5E0
:100D5000D80708F05FC0C11582E5D80708F497C02E
:100D60002C2F2695269580E2289F900111248C2F08
:100D70008370C1E0D0E002C0CC0FDD1F8A95E2F79E
:100D8000C22BD32BDD68D4CFC03A82E5D80760F4FC
:100D9000C03882E5D80708F459C0CF71D0E0DC2F05
:100DA000CC27C46FD06AC4CFC03C82E5D80708F412
:100DB00062C0C03E82E5D80708F09CCFDC2FCC276C
:100DC000CC27DF71C06FD06AB3CFC55AD0E0C55F02
:100DD000DE4FC881D0E0D064ABCFD065A9CF8D2FD6
:100DE0000E946405182FCE0199270E94B305C12FD8
:100DF000D0E0DC2FCC27CC27DF71C82BD92B98CFA4
:100E0000CE0199270E94B305CC27DF70C82BD92BC0
:100E1000D06A8ECFCF71D0E0DC2FCC27C16FD06AE3
:100E200087CF2C2F26952695277080E2289F90014A
:100E300011248C2F8370C1E0D0E002C0CC0FDD1FE5
:100E40008A95E2F7C22BD32BDC6872CF2C2F269524
:100E50002695277080E2289F900111248C2F8370A3
:100E6000C1E0D0E002C0CC0FDD1F8A95E2F7C22BB3
:100E7000D32BDA685DCF8C2F8F710E946405C82F49
:100E8000D0E0DC2FCC27CC27DF71D06251CF8C2F64
:100E90008F710E94640555E0D695C7955A95E1F784
:100EA000CF70D0E0DC2FCC27282F30E084FF05C0A6
:100EB00044E0220F331F4A95E1F7C22BD32BD069B0
:100EC00037CF8D2F8F710E946405182FCE0199277F
:100ED0000E94B305C12FD0E0DC2FCC27CC27DF71D7
:100EE000C82BD92BD2CF809590919F0198239093B6
:100EF0009F010895809131029091F801981301C0EB
:100F000008958F5F8770FACF292F953078F58E304E
:100F100068F590E03EE0239F800D911D1124682F1D
:100F2000677023E0969587952A95E1F7FC01EE0F0F
:100F3000FF1FE80FF91FEE58FE4F50E040E080E041
:100F4000219130E0062E02C0369527950A94E2F7EB
:100F500021703327042E01C0220F0A94EAF7822B56
:100F60004F5F5F4F4330510559F7089580E0089572
:100F7000292F953098F58E3088F590E03EE0239F3C
:100F8000800D911D1124282F277041E001C0440FCE
:100F90002A95EAF723E0969587952A95E1F7FC01D3
:100FA000EE0FFF1FE80FF91FEE58FE4F30E020E074
:100FB00070E05191DF011197CB01022E02C096958E
:100FC00087950A94E2F78170819585278423852788
:100FD0008C932F5F3F4F2330310559F7089580934D
:100FE000B00108959091B00121E030E0F90101C015
:100FF000EE0F8A95EAF7D90102C0AA0FBB1F6A95C6
:10100000E2F7EA2B01C0220F4A95EAF7892F8E23D7
:10101000E81305C0292B822F0E94EF070895209521
:101020002923F9CF21E030E001C0220F8A95EAF7A9
:1010300020958091B00182230E94EF07089590913E
:1010400094018095892380939401282F277069F457
:10105000891759F09091B20192FF07C08695869545
:1010600086950E94120810929401089521E030E0C4
:1010700001C0220F8A95EAF78091B001822B0E946D
:10108000EF0708958093AF010895662309F45DC0CA
:101090008D3C41F40E941D0581958093D3010E94EF
:1010A000D40408958E3C19F40E941D05F6CF8F3CA0
:1010B00031F40E941D0581958093D201F0CF803DCF
:1010C00019F40E941D05F8CF893D29F40E94FB0404
:1010D0008093D401E4CF8A3D21F40E94FB048195E2
:1010E000F7CF8B3D31F40E94FB0481958093D501AD
:1010F000D6CF8C3D19F40E94FB04F8CF9FE2980FE5
:10110000983070F4815D990B21E030E001C0220F2E
:101110008A95EAF78091D101822B8093D101BFCFCC
:101120008D3D31F48091CB0181608093CB01B7CFAD
:101130008E3D21F48091CB018260F7CF8F3D09F085
:10114000AECF8091CB018460F0CF4091D2018D3C35
:1011500059F48091D30187FF0DC01092D301411142
:101160000BC01092C90108C08E3C81F48091D3015C
:1011700018169CF3442381F08091D4019091D501FD
:10118000892B09F08CCF1092CA0189CF8F3C49F48A
:1011900047FFF0CF1092D2018091D3018111ECCFA3
:1011A000E0CF803D19F41416ACF3E4CF9091D40154
:1011B000893D29F41916F4F61092D401DBCF8A3D4B
:1011C00019F497FFD7CFF8CF9091D5018B3D29F433
:1011D00097FFD0CF1092D501CDCF8C3D19F41916C1
:1011E000CCF3C8CF9FE2980F983090F4815D990BB3
:1011F00021E030E0B90102C0660F771F8A95E2F75F
:10120000CB0180959091D10189238093D101B2CFF8
:101210008D3D31F48091CB018E7F8093CB01AACF9D
:101220008E3D21F48091CB018D7FF7CF8F3D09F06A
:10123000A1CF8091CB018B7FF0CF0F931F93CF93E2
:10124000DF938B01EA019091EE01943061F5809378
:10125000E9008FEF9091E800815095FD06C095ED73
:101260009A95F1F700008111F5CF8091E80085FF94
:101270001AC00E94FD02811111C08091E80085FD15
:1012800006C08091E8008E778093E800F2CFF801E5
:1012900081918F018093F100219779F78091E80087
:1012A0008E778093E800DF91CF911F910F91089581
:1012B00043E050E0BC0184E00E941D09089546E02F
:1012C00050E0BC0184E00E941D090895CF93DF9394
:1012D000EC0148E050E0BC0181E00E941D0988E07B
:1012E000FE01A4EEB1E001900D928A95E1F7DF9145
:1012F000CF91089581E08093E00080E28093D80050
:101300001092C9008FE19EE40197F1F700C0000040
:1013100087E090EBDC018093350290933602A09336
:101320003702B093380288E19CE00FB6F894A89594
:10133000809360000FBE90936000FFCFCF93C82FC3
:101340006FEF811164E284E290E00E94981E6FEFDB
:10135000C11168E085E290E00E94981E6FEFC11114
:1013600065E286E290E00E94981ECF910895CF93A7
:10137000DF93C8E5D2E060E0CE010E94981E21967E
:10138000C11584E0D807B9F7DF91CF9108951F9375
:10139000CF93DF93122F8430E0F46530D0F44E30D9
:1013A000C0F4C42FD0E0CC0FDD1F9CE1699FC00DBD
:1013B000D11D11249CE8899FC00DD11D1124632FDC
:1013C000CE0188960E94981E612FCE0189960E94B8
:1013D000981EDF91CF911F910895AF92BF92CF9247
:1013E000DF92EF92FF921F93CF93DF938DE3C82E8E
:1013F00082E0D82ED0E07601C0E014C0F50125913E
:101400003491412F6C2F8D2F0E94C70982E0A80EC6
:10141000B11C1F5F1E3091F78CE1E80EF11CCF5F0D
:10142000C53019F0570110E0E9CFDF5F8CE8C80E36
:10143000D11CD43001F7DF91CF911F91FF90EF9035
:10144000DF90CF90BF90AF90089580E00E949E09FA
:1014500060E087E290E00E94981E0E94ED090E94E1
:10146000B70981E00E949E09089584E290E00E94FD
:101470007A1E843289F485E290E00E947A1E8830D8
:1014800059F486E290E00E947A1E91E0853209F0DC
:1014900090E0892F8170089580E0FCCF0F931F9317
:1014A000CF93DF93843030F5653020F54E3010F562
:1014B000C42FD0E0CC0FDD1F2CE1629FC00DD11DE9
:1014C00011243CE8839FC00DD11D1124CE018896C4
:1014D0000E947A1E082F10E0102F0027CE01899657
:1014E0000E947A1E9801282BC901DF91CF911F918C
:1014F0000F91089590E080E0F8CF462F753040F4CA
:101500006E3030F4843020F4672F0E944E0A089524
:1015100090E080E00895CF92DF92FF920F931F93A7
:10152000CF93DF936C010091B0018091AF01082B44
:10153000C3E0D0E010E0FC2EC8010C2E02C095954F
:1015400087950A94E2F780FD0CC02197A0F7F12C53
:101550008F2DDF91CF911F910F91FF90DF90CF9052
:101560000895B6018C2F0E947D0A0E9455060197AE
:1015700061F3EECFCF93DF93EC010E948B0ABE01A3
:101580000E947D0A0E945506DF91CF910895FC01CB
:1015900024812223C1F0808191810E94BA0A929510
:1015A0009F70963091F058F4925F9F70923058F48B
:1015B000803F19F030F4883E30F481E008959A5F5E
:1015C000F4CF843FD1F380E00895883EB0F3813FAB
:1015D000D1F7F3CFA6E0B0E0E0EFFAE00C943E1EC6
:1015E00049835A8349815A819923A1F0222391F09A
:1015F000CA010E948B0A182F682F89819A810E9444
:10160000B80769817A81812F0E947D0A2696E3E0DE
:101610000C945A1ECA010E948407182FF2CF909191
:10162000B20192FB222720F9281779F080FB92F96A
:101630009093B2016091B1017091B20184E090E0A9
:101640000E94B61E82E00E941F08089520919F010B
:1016500080919601282B80919501882381F0282B79
:1016600030E08AE691E0FC014191CF0141113F5FFA
:10167000F1E080379F07B9F731111092950120935F
:10168000680148E050E067E971E088E691E00E9477
:10169000CC1E892BA9F088E0E8E6F1E0A7E9B1E0EB
:1016A00001900D928A95E1F7E091D801F091D9016E
:1016B000309731F00280F381E02D88E691E00995C2
:1016C0000895CF9310929F01C6E0EAE6F1E0DF01B2
:1016D0008C2F1D928A95E9F790E080E00E94A20489
:1016E00090E080E00E947D04109296010E94260BFB
:1016F000E0EDF1E0DF011D92CA95E9F71092C90112
:101700001092CA011092CB010E94D404CF91089587
:10171000AAE2B0E0EEE8FBE00C943E1E80EF91E020
:101720002091F100DC012D93CD01B1E0883F9B07B2
:10173000B9F78091F101833009F472C0B8F48130B7
:1017400009F449C0823009F4B3C08091E80083FFF6
:101750008BC28091F0019091F1019A3008F084C21F
:10176000E92FF0E0E552F14E0C94221E8A3009F484
:101770008EC08B3009F471C0893039F78091F00147
:10178000813219F78091F4019091F501009711F0E1
:101790000297D9F68091E800877F8093E8008091D6
:1017A000E80082FF38C09091F3008091F200029728
:1017B00031F48091F100813011F0863021F4809174
:1017C000F1008093E3018091E8008B778093E8003B
:1017D0000E942E03BACF8091F001813A09F0B5CF73
:1017E0008091E800877F8093E8008091F4019091D8
:1017F000F501892B61F468E084EE91E070E00E94CD
:10180000DA038091E8008B778093E8009ECF60E058
:1018100090E080E0F3CF8091EE018111C0CF95CFB1
:101820008091F001813A09F090CF8091F40190917C
:10183000F501892B09F089CF8091E800877F80939B
:10184000E8008091E80080FFFCCF80910A0180933E
:10185000F1008091E8008E77B9CF8091F00181325C
:1018600009F073CF8091F4019091F501892B09F073
:101870006CCF8091E800877F8093E8000E942E0360
:101880008091F20180930A010E94610B5ECF8091EA
:10189000F001813209F059CF8091E800877F809371
:1018A000E8000E942E038091F3018093E2014DCF66
:1018B0008091F001813A09F048CF8091E800877F5C
:1018C0008093E8008091E80080FFFCCF8091E201E6
:1018D000BECF803899F0823809F0C6C18091F401FA
:1018E0008F70873008F0C0C18093E9008091EB00D1
:1018F00085FB882780F91092E90006C08091EC01F1
:101900009091ED01911182609091E800977F909302
:10191000E8008093F1001092F1008091E8008E774A
:101920009FC1882309F48DC1823009F09DC1809147
:10193000F201811190C18091F4018F702FEF280F77
:10194000263008F091C18093E9002091EB0020FF40
:1019500082C1933031F48091EB0080628093EB0080
:101960007AC19091EB0090619093EB0021E030E020
:1019700001C0220F8A95EAF72093EA001092EA004C
:101980008091EB008860EACF81116EC11091F20165
:101990001F778091E3008078812B8093E300809112
:1019A000E800877F8093E8000E942E038091E80082
:1019B00080FFFCCF8091E30080688093E30082E0A9
:1019C000111183E08093EE014FC18058823008F0FE
:1019D0004BC12091F2013091F3012C3DE3E03E0731
:1019E000A1F583E08A838AE289834FB7F894DE0108
:1019F000139620E03EE051E2E32FF0E050935700D1
:101A0000E49120FF03C0E295EF703F5FEF708E2FEF
:101A100090E0EA30C0F0C7968D939D932F5F2431FC
:101A200059F74FBF8091E800877F8093E8006AE212
:101A300070E0CE0101960E94DA038091E8008B7776
:101A40008093E80011C1C096E7CF8091F401909196
:101A5000F501432F55274330510509F44AC078F565
:101A60004130510509F47AC08BE590E0EDE6F4E0F1
:101A70004230510509F0F8C02091E800277F2093FB
:101A8000E8002091F6013091F7018217930708F4DE
:101A90009C0140E02115310509F065C0411163C08A
:101AA0008091E80082FDC9CF8091EE01882329F260
:101AB000853019F28091E80083FFF2CFBECF41322A
:101AC000510509F43CC04232510509F0CDC08330C4
:101AD000910508F0C9C0FC01EE0FFF1FE65AFE4F4A
:101AE0000190F081E02D895A9E4FDC018C9190E0AD
:101AF0001AC0332721303105D1F02115310561F0AD
:101B00002230310509F0B0C0EAEDF4E0E4918E2F07
:101B100090E0EAEDF4E007C0E6E0F5E0E4918E2F16
:101B200090E0E6E0F5E0009709F49EC0A5CFE0EF75
:101B3000F4E0E4918E2F90E0E0EFF4E0F4CF833016
:101B4000910508F091C0880F991FFC01E05AFE4FE3
:101B50000190F081E02D89E090E08ECF82E190E06D
:101B6000E8ECF4E089CF8091EE01882309F465CF99
:101B7000853009F462CF8091E80083FD5ECF8091CB
:101B8000E80082FD8DCF8091E80080FF83CF9091A7
:101B9000F3008091F2002115310519F0883091058C
:101BA00050F041E0089709F040E08091E8008E771E
:101BB0008093E8006FCF44914093F100319621501B
:101BC00031090196E8CF803809F04EC08091E800D5
:101BD000877F8093E8008091EF018093F1009DCE94
:101BE000811142C01091F2011230F0F58091E800AD
:101BF000877F8093E8001093EF010E942E0311234A
:101C000011F084E005C08091E30087FDFACF81E008
:101C10008093EE0142E061EC81E00E944D0342E2DC
:101C200061EC84E00E944D0342E261EC82E00E949C
:101C30004D0342E260EC83E00E944D038091EE018F
:101C400013C08091F201813079F481E0933009F082
:101C500080E08093ED011092E9008091E800877F99
:101C60008093E8000E942E038091E80083FF0AC061
:101C70008091E800877F8093E8008091EB0080628C
:101C80008093EB00AA96E3E00C945A1E0E94610B2D
:101C90002FEF84E39CE0215080409040E1F700C0AA
:101CA000000088E19CE00FB6F894A895809360004E
:101CB0000FBE90936000FFCF882321F00E9473072E
:101CC0000E94260B0895882339F090919F01982B4C
:101CD00090939F010E94260B0895882309F456C013
:101CE000823879F40E94C70481FF50C089E30E94C2
:101CF00064040E94260B89E30E9457040E94260B6D
:101D00000895833859F40E94C70480FF3FC083E5DB
:101D10000E9464040E94260B83E5EECF843859F4B8
:101D20000E94C70482FF32C087E40E9464040E94BC
:101D3000260B87E4E1CF9CEF980F913AE8F290E20E
:101D4000980F983050F4877091E001C0990F8A95F0
:101D5000EAF7892F0E947307D1CF9BE5980F933044
:101D600028F490E080E00E94A204089598E5980F7E
:101D70009B3128F490E080E00E947D04089593E375
:101D8000980F933118F460E00E9445080895CF93AE
:101D9000C82F8823C9F08238C9F40E94C70481FD86
:101DA00013C089E30E9464040E94260B2FEF87EE84
:101DB00093E0215080409040E1F700C0000089E3AB
:101DC0000E9457040E94260BCF9108958338A1F4F6
:101DD0000E94C70480FDF8CF83E50E9464040E943E
:101DE000260B2FEF81EE94E0215080409040E1F7E8
:101DF00000C0000083E5E4CF8438A1F40E94C7044A
:101E000082FDE2CF87E40E9464040E94260B2FEF3C
:101E100081EE94E0215080409040E1F700C0000046
:101E200087E4CECF8CEF8C0F813A70F4EAE6F1E0D4
:101E300080E791E02191C217E1F18E179F07D1F75A
:101E40008C2F0E946404BECF80E28C0F883068F42F
:101E5000C77021E030E001C0220FCA95EAF78091F7
:101E60009F01822B80939F01ADCFEBE5EC0FE33018
:101E700040F4F0E0E55FFE4F808190E00E94A20414
:101E8000A3CFE8E5EC0FEB3150F4F0E0EE0FFF1FCD
:101E9000E25FFE4F808191810E947D0495CF83E3B4
:101EA0008C0F833108F090CF61E08C2F0E944508A1
:101EB0008BCF8C2F0E9457040E94260BC1CFAAE023
:101EC000B0E0E5E6FFE00C94311E8E010F5F1F4F7E
:101ED0008AE0F80111928A95E9F794E4E92E91E0FD
:101EE000F92E680129E4422E21E0522E66246394E3
:101EF000712C47E5842E41E0942EF70181917F01FA
:101F00008F3F09F445C0F894E82FE295EF70F0E0B8
:101F100021A18F70A30102C0440F551F8A95E2F7DB
:101F2000CA01922F982B91A392A18095892382A315
:101F3000789400C0E9E4F1E021E030E0B12CA12C7C
:101F400041914F3F09F44BC0A42FA295AF70B0E070
:101F500090968C9190E04F7002C0959587954A9528
:101F6000E2F780FD3CC0C901A82AB92A220F331F1D
:101F70008E169F0629F7F701319780818F3F11F068
:101F80000E944D0550EA5A95F1F7F601B182A08200
:101F9000F2E0CF0ED11C4E145F0409F0AECF4AE040
:101FA00050E0B80185EA91E00E94CC1E892BE1F057
:101FB0008AE0F801A5EAB1E001900D928A95E1F777
:101FC00081E08093A4010E944B049093A30180932D
:101FD000A20110E0812F2A96E0E10C944D1E90E0C2
:101FE00080E0C2CF10E01FC01091A401112389F33B
:101FF0008091A2019091A3010E943C04059748F3AF
:102000004AE050E065EA71E08FEB91E00E94CC1E5F
:10201000892B41F38AE0E5EAF1E0AFEBB1E0019012
:102020000D928A95E1F71092A401D4CF1F93CF931C
:10203000DF93182FEB010E94C70E209739F4812FF0
:102040000E946D0EDF91CF911F9108958FE99FE05F
:102050000197F1F700C000002197EFCF0F931F9376
:10206000CF93DF93C62FD42F022FFC0185818823C5
:10207000A9F0609334020E944B0490933302809342
:102080003202C77081E001C0880FCA95EAF70E944A
:10209000630EDF91CF911F910F91089580913402CB
:1020A000681334C080913202909133020E943C0444
:1020B000883C910558F510E21D0FCD17B9F080E26C
:1020C0008C0F883040F4C77081E001C0880FCA953A
:1020D000EAF70E945C0E183048F481E09D2F97705B
:1020E00001C0880F9A95EAF70E94630E70E060E0E5
:1020F000802F0E941610183060F6D77081E001C062
:10210000880FDA95EAF70E945C0EC3CFC77081E0B2
:1021100001C0880FCA95EAF7F6CFA8E0B0E0E3E97E
:10212000F0E10C94311E8C01DC0114968C91149713
:10213000882309F4BEC021E04C9111965C9111975F
:1021400012966C91129713967C91139715969C9109
:102150000E94EA0A7C01F8018581882309F448C1BC
:10216000C70197578038910508F001C5FFE0FE15BB
:1021700008F48FC08FEF93E00E947A1E811189C00E
:1021800068E5A62E62E0B62EE1104DC0FE01339642
:1021900086E0DF011D928A95E9F75AE0452E750128
:1021A000BFEFEB1AFB0AC5010E947A1E89831A82CF
:1021B000882309F46EC0813009F07FC06501E2E038
:1021C000CE0ED11CC7010E947A1E8A83882309F48F
:1021D00060C09FEF980F9330A0F5F3E0AF0EB11CF5
:1021E000C6010E947A1E8B83882309F452C01C8288
:1021F000DE0111967D01F7012081222381F2213039
:1022000009F09DC091818281913009F058C0F2E0BF
:10221000EF0EF11C70E060E0893311F460E570E0CE
:102220000E94161053C0A11424E0B20691F1C5011A
:102230000E947A1E811101C0EA943FEFA31AB30AEB
:10224000A3CF56018430A1F642E0E42EF12C5601D2
:102250002FEFA21AB20AC6010E947A1EE1E0F0E056
:10226000EC0FFD1FEE0DFF1D8083882391F08C374E
:1022700041F4E2E0F0E0EC0FFD1FEE0DFF1D1082D7
:10228000B7CF3FEFE31AF30A650187E0E816F104E0
:10229000F1F680919401877061F0D80115968C91C8
:1022A000882339F08091B20182FF03C082E00E944E
:1022B0001F082896E0E10C944D1E570199CF9230EB
:1022C00049F422E0E20EF11C0E94C70E9FEFE91ACA
:1022D000F90A91CF933031F432E0E30EF11C0E9401
:1022E0006D0EF4CF943021F08FEFE81AF80AEECF9C
:1022F00092E0E90EF11C30E020E0B7016F5F7F4F04
:10230000D70111964C918053990B8A30910560F05A
:1023100021153105D9F2EFE9FFE03197F1F700C05F
:10232000000021503109F4CF429EF001439EF00D90
:1023300011249C012E0F3F1F842F7B01DECFE22F43
:10234000F0E0E354FE4F5490822F86958695869553
:1023500090E0FC01E355FE4F64902770712C022E33
:1023600002C0759467940A94E2F7F1E06F22772433
:10237000FC01E356FE4F8490912C022E02C09594EE
:1023800087940A94E2F731E083229924FC01E35711
:10239000FE4FC490D12C02C0D594C7942A95E2F781
:1023A00081E0C822DD246114710419F081EE0E94DD
:1023B000C70E8114910419F086EE0E94C70E70E0DA
:1023C00060E0852D0E9416108114910419F086EEAC
:1023D0000E946D0E6114710419F081EE0E946D0E61
:1023E000C114D10409F472CF70E060E08CE218CF20
:1023F000F701E851FC47E730F10508F0ABC3EB51BA
:10240000F14E0C94221E26E241EE61EEC8010E94BC
:102410002E103FCF27E245EE65EEF8CF26E241EEE3
:1024200060EEF4CF27E245EE64EEF0CF26E241EE17
:1024300062EEECCF27E245EE66EEE8CF28E241E01F
:10244000EBCF8091B10181608093B10195C0809103
:10245000B20188608093B2018FC08091B101826027
:10246000F3CF8091B1018460EFCF8091B10188609A
:10247000EBCF8091B2018160EDCF8091B20182609B
:10248000E9CF8091B1018061DFCF8091B10180629D
:10249000DBCF8091B1018064D7CF0E94610B809126
:1024A000B1018068D1CF8091B1018C60CDCF809196
:1024B000B2018360CFCF8091B1018E7FC5CF809173
:1024C000B201877FC7CF8091B1018D7FBDCF809151
:1024D000B1018B7FB9CF8091B101877FB5CF80915A
:1024E000B2018E7FB7CF8091B2018D7FB3CF809143
:1024F000B1018F7EA9CF8091B1018F7DA5CF809151
:10250000B1018F7BA1CF0E94610B8091B1018F77C8
:102510009BCF8091B101837F97CF8091B2018C7F57
:1025200099CF8091B10182FB992790F921E0922700
:1025300090FB82F990FB83F987CF8091B201982FAD
:10254000909591708E7F892B90FB81F983CF90912C
:10255000B101892F8F7B96FF806476CF0E94610B3B
:102560009091B101892F97FB87F980586DCF61E079
:102570008EE090E00E94981E6091B1017091B201CE
:1025800084E090E00E94B61E0E94610B82CE60E063
:10259000EFCF9091B101892F8F7E94FF806154CF4E
:1025A0009091B101892F8E7F90FF81604DCF9091E6
:1025B000B201892F877F93FF88604CCF85E3C5C226
:1025C00085E3D2C2A7E7EA16ACE7FA0609F46EC0C3
:1025D00082E0B8E7EB16BCE7FB0609F468C0E3E06D
:1025E000EE16ECE7FE0609F48DC008F06CC0E114AD
:1025F0002CE7F20609F479C031E0E3163CE7F30674
:1026000009F486C0F8018581E080F180882309F40F
:102610008DC0C7010E948B0AD82E682FC7010E9467
:10262000B807B7018D2D0E947D0A0E9455067C01D6
:10263000882ED8011596AC90159716969C9092947A
:102640003FE0932280919401877009F1DA2CAA204F
:10265000F9F08F2D807F803469F080E28E0D883014
:10266000B0F08F2D807E803229F4B1E0BE1578F471
:10267000992069F08091B20182FF09C082E00E9436
:102680001F08809194018770DD24D3948111D12C8F
:10269000CF2CC2942FE0C222EBE0EC1508F4AEC0C0
:1026A000EC2DF0E0E451F14E0C94221E81E00E94EA
:1026B000360843E062E081E00E94F207EACD81E063
:1026C0000E941208F6CF8BE5E8168CE7F80661F158
:1026D0009CE5E9169CE7F906E9F0AAE5EA16ACE7FD
:1026E000FA0609F08FCF81E01CC00E94610BBFEF9A
:1026F000E4E3FCE0B150E040F040E1F700C000004E
:102700000E947A096FEF7FEF90E080E00E94B61E92
:102710000E94460E8091B20182FB882780F991E0E9
:1027200089270E940F0B6ECF80E0FBCFC7010E946C
:102730008407D82E76CFFF2DFF70BF2E8F2D807F80
:1027400019F0B29490EFB922AA20B9F0BB2069F039
:1027500080E28E0D883010F0811009C080919F01B9
:10276000B82AB0929F010E94260B8E2D45C0809101
:102770009601B82AB0929601F6CF8E2D0E946D0E6A
:10278000BB20E1F180E28E0D883010F0811004C092
:102790008B2D0E94730706C0B09480919601B822D9
:1027A000B09296010E94260B29C02F2D2F70B22EB9
:1027B0008F2D807F803219F0B29480EFB82288206C
:1027C00059F031E0831609F47BC0AA2009F487C0D0
:1027D000992009F448C0C9CF8091B20182FD3FC061
:1027E000AA20B9F1BB2039F080919F018B298093F9
:1027F0009F010E94260B80E00E94C70E2C2D2850BE
:10280000330B2430310510F40E94C704DD20B1F0F1
:102810008091940180FD12C0D80115961C92869576
:10282000869586950E943608C8010E948D10809179
:1028300094018695869586950E94120820E0F801FD
:102840004081518162817381848195810E94EA0A6D
:1028500030CD80E00E946D0EBB2081F299CFAA207E
:10286000A1F0911004C08B2D0E94630EC7CF81E0B0
:102870009812C4CF809195019B2D9823B91609F425
:10288000BDCF8B2980939501B9CF9110B7CF8B2DF8
:102890000E945C0E909195018B2D892329F08B2D40
:1028A0008095892380939501909171018B2D8923C7
:1028B00009F4A4CF8B2D80958923809371019ECF3D
:1028C000AA2029F095E0991508F498CFCCCFA4E080
:1028D000A91508F493CF8B2D0E945C0E8FCF992001
:1028E000D1F3B9E38B1209C0EFEFF7EE23E0E1502B
:1028F000F0402040E1F700C000008E2D0E946D0ED8
:102900007DCF8F2D86958695837061F0813009F09B
:1029100075CFC7019370A11002C080E090E00E94C3
:102920007D046CCFC7019370A11002C080E090E0DD
:102930000E94A20463CF6A2D8E2D0E9445085ECFAF
:102940008F2D837091F5A11059CF4E2D429546954C
:102950004770440F440F8E2D8F70042E01C0880FD6
:102960000A94EAF72E2D2071E4FE07C02FE030E034
:1029700001C0220F4A95EAF720953F2D36953695EE
:102980003370323069F050F44091AF01313029F0AA
:10299000822B84230E94420831CF842B822BFACFD2
:1029A000282B8091AF018227F5CF8695AA2011F0C0
:1029B0008F2D8170882309F421CF4E2D42954695A5
:1029C0004770440F440F8E2D8F70042E01C0880F66
:1029D0000A94EAF72E2D2071E4FE07C02FE030E0C4
:1029E00001C0220F4A95EAF720953F2D369536957E
:1029F0003370323069F050F44091B001313029F039
:102A0000822B84230E94EF07F9CE842B822BFACFEE
:102A1000282B8091B0018227F5CF3F2D3F70F32EF8
:102A2000AA2029F0832F0E9436088E2D1DCF8E2DCF
:102A30000E945C0E8F2D0E941208E0CE8E2D92EF28
:102A40008916B1F1981570F0A0EF8A16D1F0B1EFA8
:102A50008B1691F0AA2009F457C0911086CE8F2DC5
:102A60008F712AC0E3EF8E1651F1F4EF8F12F2CF7F
:102A70009091B20192FD2FC08F2D8F71AA20D9F2B3
:102A80001BC0AA2081F024E0291508F4B7CE2F2D11
:102A90002F7181E090E001C0880F2A95EAF79091AC
:102AA000B0018927AFCF35E0391508F4A7CEEFCFB5
:102AB0008F2D8F71A110BFCF0E9436089FCE80E06E
:102AC000AA2009F49FCF9F2D9F7181E001C0880F3C
:102AD0009A95EAF797CFAA2061F08F2D8F7192FF18
:102AE000EBCF98E0899F90011124236020939401FB
:102AF000E3CF81E00E941F08A1E0A91508F07ECE77
:102B000082E00E941F087ACE992059F0893309F09B
:102B1000F4CEBFEFE7EEF3E0B150E040F040E1F774
:102B2000EACE8F2D8F7187CFF6E1EF16FCE7FF0617
:102B300009F048CD80919F018A7A91E009F490E0F4
:102B40009093700181113ACD89E20E9464040E9441
:102B5000260B9FCB26E1E2162CE7F20641F5809189
:102B6000700181112DCD89E20E945704F0CFF70149
:102B7000E851FC47E730F10508F441CC10923402EB
:102B8000C7019057839780F684E090E00E94821EF0
:102B90009093B2018093B101F701E150F047E23226
:102BA000F10508F04ECCE850F14E0C94221E37E7A8
:102BB000E3163CE7F30609F482CD88E7E8168CE7D4
:102BC000F80609F01FCD82E07BCDCF93DF93809193
:102BD0009301807F09F04DC080919201882309F410
:102BE00048C0E09131025091F801C0918E01D0911E
:102BF0008D0160918F017091900147E05E17C9F1DE
:102C00008E2F90E0E49FF0011124E750FE4F2481C5
:102C1000222391F1489FF001499FF00D1124DF011B
:102C2000A750BE4F11962C9111972C1325C02C91B3
:102C30002D1322C015962C91159721111DC01296A7
:102C40002D913C91261B370B283C3105A8F480912F
:102C500093018F70806180939301E150FE4F8081DA
:102C60008F70806180838DE891E00E948D100E94BA
:102C70007A07DF91CF910895FC013196E770BECFBE
:102C8000A4E1B0E0E6E4F6E10C94351E8C0186E0A8
:102C9000F801DE011F9601900D928A95E1F7F80187
:102CA0008481E5809DE8A92E91E0B92E9091910153
:102CB000911128C0882319F1EE20F1F0C8010E947B
:102CC000C70AF82E8823C1F087E0F801D5010190EA
:102CD0000D928A95E1F780919101813031F48091D4
:102CE0008D0190918E010E94BA0A0E94E5158F2DE8
:102CF0006496ECE00C94511EC8010E948D10FF24D4
:102D0000F394F5CFD080C18082809380F0909201BF
:102D100020918F0130919001A401421B530BFF20A1
:102D200009F4D9C0483C510508F092C08823F9F253
:102D300090918E0180919301282F207F09F056C039
:102D4000C91214C090918D01D91210C0E11048C071
:102D50008F708061809393018DE891E00E948D10C7
:102D600080919301F8018683F12CC1CFE11038C026
:102D70006C2D8D2D0E94BF026C2D8D2D0E94BF02E7
:102D8000E82E8111F1CFDF86C88A8F8598890E944D
:102D9000BA0A292F22952F70243058F49F702230C0
:102DA00088F0992399F0F8019681907F79F4FE2CB0
:102DB0009ECF2A5F2F70223068F0C8010E948D10CC
:102DC000EF2CF5CF992311F0882389F3805E8830AA
:102DD00070F3F3CF803F58F3815F833070F7E7CF14
:102DE00080919301816080939301BECFC91207C087
:102DF00090918D01D91203C0EE2009F48DC0C80155
:102E00000E94C70A882309F477CFEE2009F474CF13
:102E100080919301803288F020918D0130918E0154
:102E2000398728879B868A86909191019C871D8689
:102E30008E87CE0108960E948D1087E0F801ADE8DC
:102E4000B1E001900D928A95E1F70E94E51557CF08
:102E500090919301292F207F51F48DE891E00E94F9
:102E60008D1087E0F50111928A95E9F77DCF8823CF
:102E700009F43DCF80918E018C1110C080918D019D
:102E8000D8120CC0E1100AC09683C8010E948D10B0
:102E900087E0F50111928A95E9F729CFC8010E94D0
:102EA000C70A882309F428CFEE2009F425CF8091A2
:102EB0009301803210F220918D0130918E013A837E
:102EC00029839C828B82909191019D831E828F83A6
:102ED000CE010196B0CF483C5105D0F6882309F4C5
:102EE0000ECFFE2CEE2009F407CF80918E018C11BD
:102EF00020C080918D01D8121CC08091930180FD6B
:102F00000FC0982F907F61F08683903F31F0982F0B
:102F1000907F905F8F70892B8683C8010E948D10EF
:102F200087E0F801ADE8B1E001900D928A95E1F7F4
:102F3000DECEC8010E94C70A81117FCF8091930124
:102F4000816080939301C8010E948D10D0CEABE1C7
:102F5000B0E0EDEAF7E10C943D1E4E8B5F8B688F7D
:102F6000798F8A8F9B8F192F9111109296011D8A4C
:102F700086E0FE017696DE011F9601900D928A95FD
:102F8000E1F70A8D002341F021E04F8558896989D6
:102F90007A89C8010E94EA0A0B8B1C8B87E0FE012C
:102FA0003F96DE01189601900D928A95E1F7CE01C9
:102FB00008960E94401681112AC087E0FE013896CB
:102FC000DE01119601900D928A95E1F78C85882398
:102FD000F1F02091F80130E0C9010196877099273E
:102FE0004091310248171906E9F097E0929FD0010D
:102FF000939FB00D1124A750BE4FFE013196019052
:103000000D929A95E1F78093F8010E947A0717E0F4
:10301000809131029091F801891312C06B96E4E01F
:103020000C94591E0E94610B1092F801109231020B
:1030300087E0EDE8F1E0DF011D928A95E9F7E7CF3F
:10304000819FC001112487509E4F0E944016882303
:1030500029F38091310290E001968770992780933F
:103060003102D6CFA6E0B0E0E8E3F8E10C943D1ED3
:103070000E944B048C018091A0019091A1018017C6
:10308000910781F019821A820E944B04682F4981AE
:103090005A81792F80E090E00E94A7171093A10138
:1030A0000093A0012696E4E00C94591E1F920F9203
:1030B0000FB60F9211242F933F934F935F936F930B
:1030C0007F938F939F93AF93BF93CF93DF93EF93B0
:1030D000FF93D091E900DF708091EC00C82FC170A0
:1030E00080FDC0E81092E9008091F000877F809316
:1030F000F00078940E94880B1092E9008091F00013
:1031000088608093F000CD2BCF70C093E900FF91D1
:10311000EF91DF91CF91BF91AF919F918F917F916F
:103120006F915F914F913F912F910F900FBE0F9034
:103130001F9018951F920F920FB60F9211242F9384
:103140003F934F935F936F937F938F939F93AF932F
:10315000BF93EF93FF938091E10082FF09C08091BC
:10316000E20082FF05C08091E1008B7F8093E10047
:103170008091DA0080FF24C08091D80080FF20C0B9
:103180008091DA008E7F8093DA008091D90080FFF1
:103190009DC080E189BD82E189BD09B400FEFDCFFB
:1031A00081E08093EE018091E101811109C00E94CC
:1031B000DE020E947F038091E20084608093E2003F
:1031C0008091E10080FF17C08091E20080FF13C072
:1031D0008091E2008E7F8093E2008091E200806126
:1031E0008093E2008091D80080628093D80019BC5F
:1031F00085E08093EE018091E10084FF2BC08091F7
:10320000E20084FF27C080E189BD82E189BD89B5E4
:10321000982F917080FFFBCF8091D8008F7D809395
:10322000D8008091E1008F7E8093E1008091E200E0
:103230008F7E8093E2008091E20081608093E200C3
:103240008091EF01882309F447C084E08093EE0168
:103250008091EE018091E10083FF27C08091E20020
:1032600083FF23C08091E100877F8093E10082E0AB
:103270008093EE011092EF018091E1008E7F8093A8
:10328000E1008091E2008E7F8093E2008091E20075
:1032900080618093E20042E060E080E00E944D03A4
:1032A0008091F00088608093F000FF91EF91BF91D2
:1032B000AF919F918F917F916F915F914F913F91CE
:1032C0002F910F900FBE0F901F90189519BC109260
:1032D000EE011092E10174CF8091E30087FD93E04D
:1032E0009093EE01B5CF78941F921FB61F921124D0
:1032F0008F939F93AF93BF938091DD019091DE01F7
:10330000A091DF01B091E0010196A11DB11D809354
:10331000DD019093DE01A093DF01B093E001BF9146
:10332000AF919F918F911F901FBE1F9018951F9274
:103330001FB61F9211248F939F93AF93BF938091D9
:10334000DC01811113C08091DD019091DE01A0911B
:10335000DF01B091E0014196A11DB11D8093DD0117
:103360009093DE01A093DF01B093E001BF91AF9194
:103370009F918F911F901FBE1F901895CDB7DEB7FC
:10338000A6970FB6F894DEBF0FBECDBF85B7806895
:1033900085BF85B7806885BF84B7877F84BF0FB638
:1033A000F894A895809160008861809360001092E5
:1033B00060000FBE80E890E00FB6F8948093610043
:1033C000909361000FBE8BE495E09093670180932A
:1033D00066010E94DE020E947F038091E200846009
:1033E0008093E20078948091EE018823A1F01091FF
:1033F000E9001F709091EC00892F817090FD80E8AA
:10340000182B1092E9008091E80083FD0E94880B40
:103410001F701093E90082E084BD93E095BD9AEFA0
:1034200097BD80936E000E94350A811102C00E94F0
:10343000250A04E411E0A9E4EA2EA1E0FA2ED8015D
:103440008D918D018F3F11F00E944D05E016F10620
:10345000B1F709E411E0F7E5EF2EF1E0FF2EF801F6
:1034600081918F018F3F11F00E944D05E016F1060A
:10347000B1F78AE0EFEBF1E0DF01282F1D922A95EA
:10348000E9F7E5EAF1E0DF011D928A95E9F790E0BE
:1034900080E00E94821E853E9E4F21F40E94350AE4
:1034A000811163C065EE7EEF90E080E00E94B61E61
:1034B00060E082E090E00E94981E81E08093AF017E
:1034C00061E083E090E00E94981E60E074E184E097
:1034D00090E00E94B61E60E086E090E00E94981E98
:1034E00060E087E090E00E94981E40E050E0BA0162
:1034F00088E090E00E94AA1E60E083E290E00E94D3
:10350000981E60E08CE090E00E94981E60E08DE0E4
:1035100090E00E94981E19821A821B821C821D82D2
:103520001E821F82188648E050E067E170E0CE01FD
:1035300001960E94881E40E050E0BA018FE190E0C1
:103540000E94AA1E80E00E949E090E94250A40E077
:1035500050E0BA018FE090E00E94AA1E40E050E0E7
:10356000BA0183E190E00E94AA1E82E090E00E94EE
:103570007A1E8093B30184E090E00E94821E9093B3
:10358000B2018093B1010E945F0FEFEFF6E721E0F7
:10359000E150F0402040E1F700C000000E945F0FC2
:1035A0008091BF0180FF08C06FEF7FEF90E080E067
:1035B0000E94B61E0E947A0983E090E00E947A1E63
:1035C0000E94420880E091E09093D9018093D80155
:1035D000E9EC6E2EE1E07E2E5524539422242394B0
:1035E0008091EE01853049F48091EE01853009F437
:1035F00063C00E94610B0E94C7040E945F0F64EBCE
:10360000A62E61E0B62E7FEB872E71E0972ED401B7
:10361000F501219131918D919D9141E0EE3BF407AF
:1036200009F47FC028173907A1F3412CD4010D916B
:103630001D914D01F501C190D1905F01C016D106D9
:1036400059F1312CEE24E394F12CC026D126C60189
:103650008E219F21892BB1F039A24AA20E944B04EE
:103660009CA38BA32DA291E098012E213F21232B17
:1036700009F490E09EA349A15AA16BA17CA18DA160
:103680000E94A7173394EE0CFF1CFEE03F12DFCF21
:10369000F501329711830083439425E04212C6CF8F
:1036A0008FB7F8944091DD015091DE016091DF0108
:1036B0007091E0018FBF3BC08091EE01843021F119
:1036C0001092DC0188E190E0A0E40FB6F894A89590
:1036D000809360000FBEA093600083B7817F8460F9
:1036E00083BF83B7816083BF7894889583B78E7FCB
:1036F00083BF0FB6F894A89580916000886180938D
:103700006000109260000FBE0E945F0FEFEBF1E0CF
:1037100081919191892B09F04CC26E167F06C1F7F9
:1037200063CF2817390709F080CF0E94321886E04E
:10373000E0EDF1E0DE01119601900D928A95E1F73E
:10374000D090D101F090D2011091D301E090D4013A
:103750000091D5011092D2011092D3011092D401A0
:103760001092D501812F8F2909F445C08091CE0197
:103770009091CF010E943C049C019091C901992332
:1037800009F447C225313105B0F19F3F19F09F5F21
:103790009093C901FF2059F00E941D059FEF1F144F
:1037A0000CF491E0899F802D11248093D201112384
:1037B00059F00E941D0591E011160CF09FEF899FB2
:1037C000802D11248093D3018091D201882399F018
:1037D000C090D301CC2079F00E943D05882309F4E4
:1037E000B3C08093D2018C2D0E943D05882309F43B
:1037F000AEC08093D3018E2D802B09F445C08091FB
:10380000CC019091CD010E943C049C019091CA0191
:10381000992309F4F9C121353105B0F19F3F19F021
:103820009F5F9093CA01EE2059F00E94FB049FEF26
:103830001E140CF491E0899F802D11248093D401F3
:10384000002359F00E94FB0491E010160CF09FEF4A
:10385000899F802D11248093D5018091D4018823E4
:1038600099F0E090D501EE2079F00E943D05882383
:1038700009F470C08093D4018E2D0E943D058823E9
:1038800009F46BC08093D5018091D101D81217C083
:103890008091D201882311F08F1111C02091D301A2
:1038A000222311F012130BC09091D501992311F02E
:1038B000901305C03091D401332309F497C10E94BD
:1038C000D40486E0FE013196A0EDB1E001900D92A6
:1038D0008A95E1F70E94C7049091BE01891769F0AB
:1038E0008093BE018FB7F8944091DD015091DE01C5
:1038F0006091DF017091E0018FBF8091EE01843013
:1039000009F06ECE83E08093E9008091E80082FFA9
:1039100067CE8091E80090E085FF05C00E94FD021F
:103920008823F1F091E08091E8008B778093E800A4
:10393000992309F455CEE981E150E331C0F5F0E077
:10394000E65EF04E0C94221E5092D2014CCF509263
:10395000D30151CF5092D4018FCF5092D50194CF43
:1039600000E210E0CE0101967C018091E80085FD27
:103970000AC08091E8008B778093E8000E94FD02E6
:10398000882399F3CFCF8091F100D7018D937D01EA
:103990000150110951F7C6CF1A828CE08B8324C0E5
:1039A0008A81823009F427C128F4813061F08FEFD9
:1039B00089831AC0833009F18430C9F71B821C82C5
:1039C0001D821E8211C02FB7F8946091DD017091A5
:1039D000DE018091DF019091E0012FBF0E94281E3F
:1039E0006B837C838D839E8340E250E0BE016F5FDA
:1039F0007F4F82E00E941D09F3CD2B81822F90E042
:103A0000FE013196225F8530910570F7DC01AA0F27
:103A1000BB1FA154BE4F3C9111964C9143833483FC
:103A2000019632962813EFCFDFCF8A81823019F0CA
:103A30008530D1F2BCCF6B817C818D819E810E94CB
:103A4000281E87E290E00E94981ECECF4C816B81A9
:103A50008A810E944E0A9827892798279E838D8302
:103A6000C3CF2D813E813227232732274C816B81A2
:103A70008A810E94C709B8CF0E94ED09B5CFB0E195
:103A8000BA83B2CF5A8288EA89CF0A811B81102774
:103A900001271027FE0131966F01EC80CF018E0DBA
:103AA000911D7C01C801885A9D4FCE14DF0409F492
:103AB0009BCF083AA1E01A0750F40E947A1EF60143
:103AC00084830F5F1F4FBFEFCB1ADB0AEBCFD6010A
:103AD00014961C92F6CF0A811B811027012710270C
:103AE000FE0131966F01EC80E00EF12EF11CC80151
:103AF000885A9D4FE016F10609F476CF083AF1E0B6
:103B00001F0728F4D60114966C910E94981EBFEFEF
:103B1000CB1ADB0A0F5F1F4FEACF0E94B70964CFB1
:103B200084E08A8361CF0A811B8110270127102737
:103B3000FE0131966F01EC80CF018E0D911D7C014D
:103B4000C8018896EC14FD0409F44ECF0033A2E0BE
:103B50001A0750F40E947A1EF60184830F5F1F4FEC
:103B6000BFEFCB1ADB0AECCFD60114961C92F6CF2E
:103B70000A811B81102701271027FE0131966F0152
:103B8000EC80E00EF12EF11CC80188960E151F0581
:103B900009F42ACF0033F2E01F0728F4D601149667
:103BA0006C910E94981EBFEFCB1ADB0A0F5F1F4F6C
:103BB000EBCF8091ED01882309F416CDB0E1B9BDBA
:103BC000E2E1E9BD09B400FEFDCF8091D8008F7D10
:103BD0008093D8008091E00082608093E000809123
:103BE000E00081FDFCCF0E94610BFECC822B892B73
:103BF00009F467CE64CE87E290E00E947A1E1B82B1
:103C00001C821D828E83F0CE2B30310508F008CE49
:103C10003BCE2B30310508F0BACDEDCD97FB072E0A
:103C200016F4009407D077FD09D00E94661E07FCA9
:103C300005D03EF4909581959F4F089570956195BC
:103C40007F4F0895EE0FFF1F0590F491E02D09942A
:103C500069279627692778278727782708952F923D
:103C60003F924F925F926F927F928F929F92AF920C
:103C7000BF92CF92DF92EF92FF920F931F93CF9359
:103C8000DF93CDB7DEB7CA1BDB0B0FB6F894DEBFF0
:103C90000FBECDBF09942A88398848885F846E8416
:103CA0007D848C849B84AA84B984C884DF80EE8060
:103CB000FD800C811B81AA81B981CE0FD11D0FB669
:103CC000F894DEBF0FBECDBFED010895AA1BBB1B4C
:103CD00051E107C0AA1FBB1FA617B70710F0A61B0C
:103CE000B70B881F991F5A95A9F780959095BC012D
:103CF000CD010895F999FECF92BD81BDF89A99271B
:103D000080B50895A8E1B0E042E050E00C94BE1EFA
:103D1000DC01A40FB51F4150504048F0CB01840F87
:103D2000951F2E910E94991E41505040D0F7089542
:103D3000262FF999FECF92BD81BDF89A019700B464
:103D4000021639F01FBA20BD0FB6F894FA9AF99A04
:103D50000FBE08950396272F0E94991E0E94981E59
:103D6000252F0E94991E242F0C94991E0196272F0F
:103D70000E94991E0C94981EDC01CB01FC01F9995C
:103D8000FECF06C0F2BDE1BDF89A319600B40D92A7
:103D900041505040B8F70895FB01DC0104C08D91FB
:103DA0000190801921F441505040C8F7881B990BAD
:103DB0000895F894FFCF690C910C340E910C340ED9
:103DC000C40CE50C340EE30DF00D0E1212120312AA
:103DD0000A1216121A121E129B139B13D513D51317
:103DE00081149B14FE13FE13A0140D151E151E1531
:103DF0005B12D01263122D123112671235126B1240
:103E000077124112C91245127B1249127F12A71272
:103E10004D128312AE1253128912911239126F127F
:103E20003D12731257128D129D12B712C71227122C
:103E30005F12D712CC1CD01C151D261D311D3C1D38
:103E4000D71CD71CD71CD71CD71C3F1D421D451D96
:0A3E50006B1D8D1D901D931DB81D04
:103E5A003904660938045F09580901818283E2003E
:103E6A00E900EA00B500B600B700CD008301CC0036
:103E7A008A019201940121022302240225022602C8
:103E8A0027022A02B300B4006F0070009F01CB0121
:103E9A009F02A0029091929395F0F1F4F5F6949610
:103EAA00973435366667F744227B49012701AC000F
:063EBA007F049804B80427
:00000001FF
