:100000000C94E0020C94FD020C94FD020C94FD0291
:100010000C94FD020C94FD020C94FD020C94FD0264
:100020000C94FD020C94FD020C94121B0C94CE1A3D
:100030000C940F1C0C94FD020C94FD020C94FD0218
:100040000C94FD020C94FD020C94FD020C94FD0234
:100050000C94361C0C94EB1B0C94FD020C94FD02CA
:100060000C94FD020C94FD020C94FD020C94FD0214
:100070000C94FD020C94FD020C94FD020C94FD0204
:100080000C94FD020C94FD020C94FD020C94FD02F4
:100090000C94FD020C94FD020C94FD020C94FD02E4
:1000A0000C94FD020C94FD020C94FD020501090262
:1000B000A10185020901A1000509190129081500FE
:1000C0002501950875018102050109300931158165
:1000D000257F95027508810609381581257F9501D0
:1000E00075088106050C0A38021581257F95017572
:1000F000088106C0C005010980A101850319012AF4
:10010000B700150126B700950175108100C0050CD8
:100110000901A101850419012AA002150126A002E6
:10012000950175108100C005010906A1018506052C
:100130000719E029E71500250195087501810205D9
:1001400007190029EF1500250195F07501810205B9
:10015000081901290595057501910295017503910D
:1001600001C00660FF0961A1010962150026FF00B8
:100170009520750881020963150026FF00952075FA
:10018000089102C005010906A101050719E029E748
:1001900015002501950875018102950175088101F9
:1001A0000507190029FF150026FF0095067508812F
:1001B000000508190129059505750191029501753C
:1001C000039101C0000000000000000000000000DA
:1001D000000000000000000000000000000000001F
:1001E00000000000000000007E0F00D4FFFFFFC7EA
:1001F0000000007800000000000000002A2B28000A
:1002000000000000000000000000000000000029C5
:10021000000000002C1E3420212224342627252E05
:10022000362D3738271E1F2021222324252633333D
:10023000362E37381F0405060708090A0B0C0D0E69
:100240000F101112131415161718191A1B1C1D2F35
:100250003130232D350405060708090A0B0C0D0E55
:100260000F101112131415161718191A1B1C1D2F15
:100270003130354C0000000000000000000000019B
:10028000010203040506080A0C0F1114181C20248F
:10029000292E33393F464C535B626A7179818A92C9
:1002A0009AA2AAB2B9C1C8CFD5DCE1E7EBF0F4F766
:1002B000FAFCFDFEFFFEFDFCFAF7F4F0EBE7E1DCF3
:1002C000D5CFC8C1B9B2AAA29A928A8179716A625D
:1002D0005B534C463F39332E2924201C1814110F30
:1002E0000C0A0806050403020101000000000000DA
:1002F0000000000029001E001F0020002100220035
:10030000230024002500260027002D002E002A00AF
:1003100049004B002B0014001A00080015001700BC
:100320001C0018000C00120013002F0030003100D8
:100330004C004E00390004001600070009000A00B6
:100340000B000D000E000F00330034002800E10008
:100350001D001B00060019000500110010003600EA
:1003600037003800E5005200E000E300E2002C0016
:100370000151E600E400500051004F000000000071
:100380000000000035003A003B003C003D003E000C
:100390003F004000410042004300440045002A0065
:1003A000A9004A0001000100010052000100010003
:1003B000010001000100010001000100C05C01001A
:1003C000AA004D0001000100500051004F00010043
:1003D0000100010001000100010001000100010015
:1003E000010001000100010001000100A80001005E
:1003F000010001000100A80001000100010001004E
:10040000010001000100AC00AE00AB0000000000E4
:1004100000000000010001000100010001000100D6
:1004200001000100010001000100010001000100C4
:1004300001000100010001000100010001000100B4
:1004400001000100010001000100010001000100A4
:100450000100010001000100010001000100010094
:100460000100010001000100010001000100010084
:100470000100010001000100010001000100010074
:100480000100010001000100010001000100010064
:100490000100010001000100010001000000000056
:1004A0000000000001000100010001000100010046
:1004B0000100010001000100010001000100010034
:1004C0000100010001000100010001000100010024
:1004D0000100010001000100010001000100010014
:1004E0000100010001000100010001000100010004
:1004F00001000100010001000100010001000100F4
:1005000001000100010001000100010001000100E3
:1005100001000100010001000100010001000100D3
:1005200001000100010001000100010000000000C5
:100530000000000009025B00030100A0FA090400AA
:1005400000010301010009211101000122400007FF
:1005500005810308000109040100020300000009ED
:10056000211101000122220007058203200001075A
:100570000503032000010904020001030000000933
:10058000211101000122B600070584032000011299
:10059000010002000000082540684D010101020031
:1005A000010A034D0046003600380000000C0364C9
:1005B00000690030006900620000000403090400C3
:1005C00011241FBECFEFDAE0DEBFCDBF11E0A0E007
:1005D000B1E0EAE6F4E402C005900D92A036B1075E
:1005E000D9F722E0A0E6B1E001C01D92A438B2071D
:1005F000E1F70E94A81C0C9403220C940000E8ED83
:10060000F0E080818E7F80831092E2001092DA0009
:100610001092E100A0EEB0E08C9181608C9380811B
:100620008F77808319BCA7EDB0E08C918E7F8C937F
:1006300080818F7E80831092510208952091E40082
:100640003091E50095E6A9012091EC00822F8170A0
:1006500020FF06C08091E80080FF06C080E008957A
:100660002091E80022FD1AC080917602882389F04B
:10067000853089F08091EB0085FD0FC02091E4006A
:100680003091E50042175307F9F29150E1F684E00A
:10069000089582E0089583E0089581E00895EF923F
:1006A000FF920F931F93CF937C018B010E941E0337
:1006B000C82F811117C08091E80085FD0BC0809183
:1006C000E8008E778093E8000E941E03882399F348
:1006D000C82F08C0F70181917F018093F10001507C
:1006E000110949F78C2FCF911F910F91FF90EF9037
:1006F00008958091780287FF13C08091E80082FFFF
:1007000006C08091E8008B778093E80004C0809158
:1007100076028111F2CF0895809176028823D9F371
:100720008091E80080FFF8CF8091E8008E77ECCFD1
:10073000982F9093E900242F762F50E0891731F0FD
:100740007091EC002091ED005091F00021FD07C068
:100750009F5F973071F78093E90081E008953091B1
:10076000EB003E7F3093EB003091ED003D7F309306
:10077000ED003091EB0031603093EB007093EC00B2
:100780002093ED005093F0002091EE0027FDE0CF84
:1007900080E00895B0E0A0E0E0EDF3E00C94872164
:1007A000C8EDD0E088818F7E8883E7EDF0E080811E
:1007B0008160808384E082BF81E0809351028881E0
:1007C0008E7F888302EE10E0F80110821092DA002A
:1007D00081EEC82ED12CF601108288818F77888314
:1007E00088818068888388818F7D888319BC109276
:1007F000760210927702109275021092740290EEB7
:10080000E92EF12CF70180818B7F808388818160C4
:10081000888342E060E080E00E949803F6018081D6
:100820008E7F8083F80180818160808380818860F1
:100830008083F70180818E7F8083888180618883B7
:10084000CDB7DEB7E8E00C94A321FC0180917E02D5
:1008500090917F0286179707A0F06115710529F422
:100860009091E8009E779093E80090E06115710503
:1008700051F4911108C08091E80082FF34C080E0FB
:100880000895BC01F2CF809176028823C1F18530B2
:10089000C1F18091E80083FD30C08091E80082FDC5
:1008A000EACF8091E80080FFE1CF8091F3002091B2
:1008B000F200382F6115710519F02830310558F014
:1008C00091E02830310509F090E02091E8002E7782
:1008D0002093E800CBCF81918093F10061507109A2
:1008E0002F5F3F4FE7CF80917602882341F085301C
:1008F00041F08091E80083FFBECF81E0089582E05F
:10090000089583E00895089580915302089587E73C
:1009100097E7909301088093000888E19AE00FB66A
:10092000F894A895809360000FBE90936000FFCF6D
:100930009C014FB7F8948091480290914902A09190
:100940004A02B0914B024FBF821B930B08952FB701
:10095000F8948091480290914902A0914A02B09186
:100960004B022FBF0895209145023091460228176F
:10097000390771F09093460280934502E09143025B
:10098000F0914402309721F00084F185E02D099523
:10099000089520914102309142022817390771F0E1
:1009A0009093420280934102E0914302F09144020D
:1009B000309721F00680F781E02D09950895E091A8
:1009C0004302F0914402309729F00190F081E02D2C
:1009D0000995089580E00895B0E0A0E0E2EFF4E02A
:1009E0000C9483218C0180918600909187006CE0AB
:1009F00070E00E940C216017710758F0C80169E08F
:100A000070E00E940C21CB01CDB7DEB7ECE00C9476
:100A10009F218091860090918700E0908600F09061
:100A20008700C0908600D0908700C6E0D0E0BE016D
:100A30000E940C2130E020E0060F171F211D311D00
:100A40004801590185E0880C991CAA1CBB1C8A9599
:100A5000D1F7C701BE010E940C21F12CE12CA701A6
:100A60009601260F371F411D511DC501B4010E947B
:100A7000342169017A01E0918600F0918700CA0172
:100A8000B9010E94FC209B01AC01DF010E94722190
:100A90009B01AC01C701B6010E94FC202FE0969596
:100AA0008795779567952A95D1F7009186001091E3
:100AB000870030E020E0061717072807390708F0FD
:100AC000A2CF60918600709187009DCF8430F0F4B2
:100AD00081111DC0909180009F77909380002D9888
:100AE000A0918600B0918700282F30E00E946321FA
:100AF00023E030E040E050E00E943421C9010E9430
:100B0000EC049093890080938800089583E090918D
:100B10008000906890938000E3CF282F220F220F4F
:100B2000220F90913D029770922B90933D02987FF7
:100B300021E009F420E090913D0220FB90F9909390
:100B40003D020E94660508950E94A7049C019091B1
:100B5000390280913A02982B21F03093360220938B
:100B6000350290913B0280913C02982B21F030930A
:100B7000340220933302E0914302F0914402309713
:100B800049F082E0809337020480F581E02D87E30D
:100B900092E00995089540913902803F59F480917F
:100BA0003A0287FF0DC010923A0241110BC0109219
:100BB000310208C0813F81F480913A0218169CF3FB
:100BC000442381F080913B0290913C02892B09F0F3
:100BD0005AC0109230020895823F49F447FFF0CF87
:100BE0001092390280913A028111ECCFE0CF833F1D
:100BF00019F41416ACF3E4CF90913B02893F29F429
:100C00001916F4F610923B02DBCF8A3F19F497FFD6
:100C1000D7CFF8CF90913C028B3F29F497FFD0CFEC
:100C200010923C02CDCF8C3F19F41916CCF3C8CFEB
:100C30009CE0980F953090F4845F990B21E030E0B0
:100C4000B90102C0660F771F8A95E2F7CB01809544
:100C500090913802892380933802B2CF8D3F31F4CE
:100C6000809132028E7F80933202AACF8E3F21F490
:100C7000809132028D7FF7CF8F3F09F0A1CF809115
:100C800032028B7FF0CF08958091320280FD16C032
:100C900081FD16C082FD16C0809130028823A1F02C
:100CA000883280F428E0829FC001112468E270E05D
:100CB0000E942021862F672B39F0089582E0089545
:100CC00084E0089588E0089581E0089580913202DB
:100CD00080FD14C081FD14C082FD16C080913102D8
:100CE000882381F08E3180F420E5829FC001112499
:100CF0006EE170E00E942021862F089584E108951E
:100D000088E2089588E0089580E50895803F31F4F1
:100D10000E946606819580933A020895813F19F4F6
:100D20000E946606F8CF823F31F40E9466068195E4
:100D3000809339020895833F19F40E946606F8CF24
:100D4000893F29F40E94440680933B0208958A3F1C
:100D500021F40E9444068195F7CF8B3F31F40E9425
:100D60004406819580933C0208958C3F19F40E94BB
:100D70004406F8CF9CE0980F953070F4845F990B8F
:100D800021E030E001C0220F8A95EAF78091380215
:100D9000822B8093380208958D3F31F48091320286
:100DA00081608093320208958E3F21F48091320257
:100DB0008260F7CF8F3FB9F7809132028460F1CF24
:100DC00080E00895F894E82FE295EF70F0E031A10B
:100DD000282F2F7081E090E001C0880F2A95EAF754
:100DE000982F9095932391A392A1892B82A3789415
:100DF000089590914C0292FF06C0282F2871283048
:100E0000F9F4877F846093FF06C0282F287128316A
:100E1000F1F4877E846120914D0220FF06C0382FB7
:100E200038713830D9F4877F816021FF06C0282FC0
:100E300028712831D1F4877E816194FD877E0895E1
:100E4000282F24712430F9F68B7F8860DCCF282F7F
:100E50002471243101F78B7E8861DDCF382F317109
:100E6000313019F78E7F8860E0CF282F2171213132
:100E700021F78E7E8861E1CFCF93DF93EC0182383A
:100E80009105A9F1D8F58133910509F496C048F58B
:100E90008932910509F48AC08A9709F495C0C11571
:100EA00021E5D20708F0BCC0C11530E5D30708F032
:100EB00014C1C83ED10508F09CC0C03ED10560F504
:100EC000C83AD10508F087C0C53AD10508F0FDC081
:100ED000C130D10509F12097F9F0C430D105E0F413
:100EE00040C08533910509F45AC0C997C1F6809175
:100EF0004C02837089F0C0EED0E00EC0833E9105B5
:100F000099F170F4803E910501F1823E910539F628
:100F100080914C0282FD21C0CE01DF91CF910895D6
:100F2000863E910561F1873E910571F1843E910500
:100F300009F0B5CF80914D0281FFEECF80914C0238
:100F4000C7EED0E084FD0DC0E7CF80914C0280FD5C
:100F500012C190914D0290FFDFCFC3EED0E084FF2D
:100F6000DBCFD0E0C0E0D8CF80914C0282FD06C13B
:100F700090914D0290FDBFCF84FFCECFF2CF8091F4
:100F80004C0283FDDDCFC8CF80914C0283FDF9C0B8
:100F900090914D0291FFF0CFC4EED0E0BDCF809193
:100FA0004C0285FFB9CFC9E2D0E0B6CF80914C02A8
:100FB00085FFB2CFC5E3D0E0AFCF80914C0286FF72
:100FC000ABCFCAE2D0E0A8CF80914C0286FFA4CF7D
:100FD000C1E3D0E0A1CFCF3BD10518F6C85AD0E08D
:100FE000CC0FDD1FCF5EDE4F0990D881C02DD464B9
:100FF00093CFC11540E2D40758F4C11581E0D8075A
:1010000008F08ACFC03FD10508F4ABCFD06584CFBC
:10101000C11590E4D90708F4A4CFDF70D06A7CCF63
:10102000C11525E5D20700F5C11534E5D30708F051
:101030008AC0C11543E5D40708F071C0C11582E527
:10104000D80708F467C0CE018370992721E030E00B
:1010500002C0220F331F8A95E2F7C695C69580E23B
:10106000C89FE001112452C0C11599E5D907A8F421
:10107000C11528E5D20708F06BC0C11536E5D307C6
:1010800008F06FCF8C2F0E94F906C82FD0E0DC2F1C
:10109000CC27CC27DF71D0623FCFC1154AE5D407FA
:1010A00008F45BC0CE0190568115904208F059CFEC
:1010B0008D2F8F710E94F90690E0982F882788273E
:1010C0009F719C012C2BE901E6CFC55AD0E0C25F8D
:1010D000DE4FC881D0E0D0641FCFCE01E4E096950A
:1010E0008795EA95E1F783702C2F26952695237036
:1010F00040E2249F90011124382B8C2F8370C1E093
:10110000D0E002C0CC0FDD1F8A95E2F7C22BD32BB3
:10111000DC6802CFDC2FCC27C16FD06AFDCECE01B8
:101120008370992721E030E002C0220F331F8A9597
:10113000E2F7C695C69590E2C99FE0011124C22B43
:10114000D32BDA68E9CEDC2FCC27C46FD06AE4CE8B
:10115000DC2FCC27C06FD06ADFCE8C2F8F700E941F
:10116000F90634E0D695C7953A95E1F7CF709C2FF4
:10117000EC01D069D1CEC9E3D0E0CECEC2EED0E052
:10118000CBCEC6EED0E0C8CE8091F901811110928D
:10119000F901089580959091F80198239093F801B2
:1011A000089590910D019923D1F090914C0297FFF1
:1011B00016C0E82FE695E695E695EE31E0F4F0E00E
:1011C000EE59FE4F282F277081E090E001C0880F74
:1011D0002A95EAF780959281892382830895E4E62F
:1011E000F1E09191891303C0DF0111971C9291E006
:1011F000EA36F907B1F7089590910D019923C1F0EE
:1012000090914C0297FF14C0E82FE695E695E6957D
:10121000EE31F8F4F0E0EE59FE4F877021E030E057
:1012200001C0220F8A95EAF78281822B828308957A
:10123000A4E6B1E0EFEF90E02D91821751F0EF3F7F
:1012400019F4211101C0E92F9F5F9630A9F7EF3FF4
:1012500009F408950E2E000CFF0BEE59FE4FE6CF59
:101260008091D5019091A401981301C008958F5FDA
:101270008770FACF29E0929F800D1124982F9770E4
:1012800086958695869523E0829FF0011124ED577F
:10129000FE4F50E040E080E0219130E0092E02C096
:1012A000369527950A94E2F721703327042E01C062
:1012B000220F0A94EAF7822B4F5F5F4F43305105AC
:1012C00059F7089529E0929F800D1124982F977067
:1012D00041E001C0440F9A95EAF786958695869578
:1012E00093E0899FF0011124ED57FE4F90E080E0DC
:1012F00070E05191DF0111979B01082E02C03695D5
:1013000027950A94E2F72170219525272423252784
:101310002C9301968330910561F7089580934E02D6
:101320007093500260934F02809176028430F9F4FA
:101330008093E9008FEF9091E800815095FD06C001
:1013400095ED9A95F1F700008111F5CF8091E800B5
:1013500085FF0DC050E040E063E070E08EE492E075
:101360000E944F038091E8008E778093E8000895F3
:10137000BC0184E00E948E090895BC0183E00E94B4
:101380008E0908959C0184E08093E9009FEF80918D
:10139000E800915085FD06C085ED8A95F1F70000C3
:1013A0009111F5CF8091E80085FF0CC050E040E03E
:1013B00066E070E0C9010E944F038091E8008E77DB
:1013C0008093E8000895CF93DF93EC0180910D01A5
:1013D0008823B1F180914C0287FF32C060E284E043
:1013E0008093E9008FEF9091E800815095FD06C051
:1013F00095ED9A95F1F700008111F5CF8091E80005
:1014000085FF1BC080910D0170E050E040E081112C
:1014100004C050E040E068E070E0CE010E944F035D
:101420008091E8008E778093E80080E2FE01A4E5D9
:10143000B2E001900D928A95E1F7DF91CF91089586
:1014400068E081E0CDCFCF93DF93C7E6D2E060E0E4
:10145000CE010E94C2212196C11584E0D807B9F7B8
:10146000DF91CF910895B0E0A0E0E9E3FAE00C94B9
:10147000812184EFC82E82E0D82E99ECE92EF12C40
:10148000E701C059D10936011BC0F5018590949040
:10149000692DC8010E94C221682DC80101960E94D1
:1014A000C22182E0A80EB11C0E5F1F4FC017D107EA
:1014B00061F782E1680E711C6296CE15DF0529F096
:1014C0008E01025111095301E0CF7E0180E9E80E3F
:1014D000F11C80E9C80ED11C89E0E81683E0F8060B
:1014E00079F6CDB7DEB7EEE00C949D21CF93C82FEF
:1014F0006FEF811162E283E290E00E94C2216FEF00
:10150000C11163E084E290E00E94C2216FEFC1113B
:1015100061E085E290E00E94C221CF91089580E0D1
:101520000E94760A60E086E290E00E94C2210E945A
:10153000330A0E94230A81E00E94760A0895682FE8
:1015400086E090E00E94C221089580913D0281FFD3
:1015500011C08D7F80933D020E949F0A80916F0091
:101560008E7F80936F0080913D028695869586954B
:101570000E946605089580913D0281FD10C0826041
:1015800080933D020E949F0A1092400210923F02F7
:1015900010923E0280916F00816080936F000895E9
:1015A0000F931F93CF93DF93C42FD0E0CC0FDD1F99
:1015B00022E1629FC00DD11D112430E9839FC00D2F
:1015C000D11D1124CE0187960E94B421082F10E06E
:1015D000102F0027CE0188960E94B4219801282B55
:1015E000C901DF91CF911F910F910895462F84304B
:1015F00040F4783030F4693020F4672F0E94D00A2C
:10160000089590E080E00895CF92DF92FF920F93CB
:101610001F93CF93DF936C01009183028091FA01B5
:10162000082BC7E0D0E010E0FC2EC8010C2E02C051
:10163000959587950A94E2F780FD0CC02197A0F755
:10164000F12C8F2DDF91CF911F910F91FF90DF90A3
:10165000CF900895B6018C2F0E94F60A0E943C0795
:10166000019761F3EECFCF93DF93EC010E94040B5F
:10167000BE010E94F60A0E943C07DF91CF910895B7
:10168000FC01808191810E94330B92959F7096306E
:1016900091F058F4925F9F70923058F4803F19F0A7
:1016A00030F4883E30F481E008959A5FF4CF843FAF
:1016B000D1F380E00895883EB0F3813FD1F7F3CFB6
:1016C00083E290E00E94B421823289F484E290E0C7
:1016D0000E94B421833059F485E290E00E94B42145
:1016E00091E0813009F090E0892F8170089580E0C9
:1016F000FCCFCF9384E090E00E94B421C82F82E217
:1017000090E00E94B421982F8C2FCF910895A0E1F2
:10171000B0E0EDE8FBE00C9481218E010F5F1F4FDC
:1017200080E1F80111928A95E9F79FE3E92E91E0B3
:10173000F92E680127E4622E21E0722E882483941A
:10174000912CF70181917F018F3F09F446C0F894F5
:10175000E82FE295EF70F0E021A18F70A40102C0A4
:10176000440F551F8A95E2F7CA01922F982B91A337
:1017700092A18095892382A3789400C0E7E4F1E0E8
:1017800021E030E0B12CA12C41914F3F09F498C0E9
:10179000A42FA295AF70B0E090968C9190E04F701E
:1017A00002C0959587954A95E2F780FD89C0C901E9
:1017B000A82AB92A220F331F51E0E035F50721F797
:1017C000F701319780818F3F11F00E94E20680EA95
:1017D0008A95F1F7F601B182A082F2E0CF0ED11C1A
:1017E0006E147F0409F0ADCF40E150E0B8018EEFF8
:1017F00091E00E94F621FF24F394009709F4F12C64
:10180000892B09F460C080E1F801AEEFB1E00190EE
:101810000D928A95E1F781E08093FD010E94A70473
:101820009093FC018093FB018091FB019091FC015E
:101830000E949804059708F44AC08091FE01909197
:10184000FF019093210280932002809100029091E9
:1018500001029093230280932202809102029091D0
:1018600003029093250280932402809104029091B8
:1018700005029093270280932602809106029091A0
:101880000702909329028093280280910802909188
:10189000090290932B0280932A0280910A02909170
:1018A0000B0290932D0280932C0280910C02909158
:1018B0000D0290932F0280932E021092FD0107C01B
:1018C00090E080E075CF8091FD018111ADCF8F2D2B
:1018D0006096EEE00C949D218091F8019091F701C3
:1018E000892B809362019091F9019923A1F0892BB2
:1018F0008093620180910D018823E1F180914C0277
:1019000087FF38C08EE1E4E6F1E090E08150A0F579
:1019100091110E94C40840E250E067ED71E082E658
:1019200091E00E94F621892B21F180E2E2E6F1E0CC
:10193000A7EDB1E001900D928A95E1F7E0914302A5
:10194000F09144023097A9F080910D01882359F05D
:1019500080914C0287FF07C08091620180936301F0
:1019600086E0809362010280F381E02D82E691E0BF
:101970000995089586E0C7CF2191222339F29F5F10
:10198000C5CF90E080E00E94C90490E080E00E9412
:10199000B3041092F7010E946C0C86E0E7E3F2E0DA
:1019A000DF011D928A95E9F7109231021092300200
:1019B000109232020E94A4050895809383020E942F
:1019C000C10C089580918302982F9670963021F46F
:1019D00088600E94DD0C0895877FFBCF21E030E016
:1019E00001C0220F8A95EAF7209580918302822315
:1019F0000E94DD0C08959091D601809589238093F3
:101A0000D601282F277091F4282F082E000C330BB5
:101A10009217130659F090914D0292FD07C08595DB
:101A2000859585950E94EE0C1092D6010895CF936E
:101A3000C0914D02C2FB992790F9981791F080FB55
:101A4000C2F9C0934D0260914C0284E090E00E9484
:101A5000C2216C2F82E290E00E94C22182E00E94AB
:101A6000FB0CCF91089521E030E001C0220F8A9550
:101A7000EAF780918302822B0E94DD0C0895809307
:101A8000FA010E94C10C08951092F80180910D0195
:101A9000E4E6F1E0882361F080914C0287FF08C002
:101AA0008EE1DF011D928A95E9F70E94C10C08952D
:101AB00086E0F7CFAAE2B0E0E0E6FDE00C948C21EE
:101AC00088E792E02091F100DC012D93CD01B2E096
:101AD00080389B07B9F780917902833009F472C08E
:101AE000B8F4813009F449C0823009F4B3C0809160
:101AF000E80083FF8BC280917802909179029A303E
:101B000008F084C2E92FF0E0EB5FFD4D0C94562104
:101B10008A3009F48EC08B3009F471C0893039F7EE
:101B200080917802813219F780917C0290917D0238
:101B3000009711F00297D9F68091E800877F809393
:101B4000E8008091E80082FF38C09091F300809116
:101B5000F200029731F48091F100813011F086306B
:101B600021F48091F100809353028091E8008B77FB
:101B70008093E8000E947903BACF80917802813A7D
:101B800009F0B5CF8091E800877F8093E8008091CD
:101B90007C0290917D02892B61F460E284E592E001
:101BA00070E00E9425048091E8008B778093E80024
:101BB0009ECF60E090E080E0F3CF809176028111CB
:101BC000C0CF95CF80917802813A09F090CF809173
:101BD0007C0290917D02892B09F089CF8091E800E9
:101BE000877F8093E8008091E80080FFFCCF8091A0
:101BF0000D018093F1008091E8008E77B9CF80913C
:101C00007802813209F073CF80917C0290917D023D
:101C1000892B09F06CCF8091E800877F8093E800E2
:101C20000E94790380917A0280930D010E94440DF5
:101C30005ECF80917802813209F059CF8091E8001F
:101C4000877F8093E8000E94790380917B028093D4
:101C500052024DCF80917802813A09F048CF8091AD
:101C6000E800877F8093E8008091E80080FFFCCF48
:101C700080915202BECF803899F0823809F0C6C1F7
:101C800080917C028F70873008F0C0C18093E9009A
:101C90008091EB0085FB882780F91092E90006C04F
:101CA0008091740290917502911182609091E80088
:101CB000977F9093E8008093F1001092F10080915B
:101CC000E8008E779FC1882309F48DC1823009F026
:101CD0009DC180917A02811190C180917C028F70A8
:101CE0002FEF280F263008F091C18093E900209152
:101CF000EB0020FF82C1933031F48091EB008062D1
:101D00008093EB007AC19091EB0090619093EB008F
:101D100021E030E001C0220F8A95EAF72093EA0023
:101D20001092EA008091EB008860EACF81116EC1C9
:101D300010917A021F778091E3008078812B809345
:101D4000E3008091E800877F8093E8000E94790398
:101D50008091E80080FFFCCF8091E3008068809351
:101D6000E30082E0111183E0809376024FC1805836
:101D7000823008F04BC120917A0230917B022C3DD9
:101D8000E3E03E07A1F583E08A838AE289834FB7C7
:101D9000F894DE01139620E03EE051E2E32FF0E0FC
:101DA00050935700E49120FF03C0E295EF703F5F2E
:101DB000EF708E2F90E0EA30C0F0C7968D939D9320
:101DC0002F5F243159F74FBF8091E800877F8093C0
:101DD000E8006AE270E0CE0101960E94250480913D
:101DE000E8008B778093E80011C1C096E7CF80911F
:101DF0007C0290917D02432F55274330510509F411
:101E00004AC078F54130510509F47AC08BE590E07D
:101E1000E4E3F5E04230510509F0F8C02091E80014
:101E2000277F2093E80020917E0230917F02821765
:101E3000930708F49C0140E02115310509F065C0C5
:101E4000411163C08091E80082FDC9CF8091760284
:101E5000882329F2853019F28091E80083FFF2CFC0
:101E6000BECF4132510509F43CC04232510509F060
:101E7000CDC08330910508F0C9C0FC01EE0FFF1FF3
:101E8000ED5AFE4F0190F081E02D805B9E4FDC010A
:101E90008C9190E01AC0332721303105D1F0211503
:101EA000310561F02230310509F0B0C0E1EAF5E01A
:101EB000E4918E2F90E0E1EAF5E007C0EBEBF5E06E
:101EC000E4918E2F90E0EBEBF5E0009709F49EC0D3
:101ED000A5CFEDEAF5E0E4918E2F90E0EDEAF5E094
:101EE000F4CF8330910508F091C0880F991FFC0151
:101EF000E75AFE4F0190F081E02D89E090E08ECF0F
:101F000082E190E0EFE8F5E089CF809176028823C6
:101F100009F465CF853009F462CF8091E80083FD34
:101F20005ECF8091E80082FD8DCF8091E80080FF38
:101F300083CF9091F3008091F2002115310519F0C3
:101F40008830910550F041E0089709F040E0809119
:101F5000E8008E778093E8006FCF44914093F100C2
:101F60003196215031090196E8CF803809F04EC0F2
:101F70008091E800877F8093E800809177028093CA
:101F8000F1009DCE811142C010917A021230F0F51D
:101F90008091E800877F8093E800109377020E9489
:101FA0007903112311F084E005C08091E30087FDDF
:101FB000FACF81E08093760242E061EC81E00E94FA
:101FC000980342E261EC84E00E94980342E261ECF3
:101FD00082E00E94980342E260EC83E00E94980352
:101FE0008091760213C080917A02813079F481E089
:101FF000933009F080E0809375021092E90080919F
:10200000E800877F8093E8000E9479038091E800D0
:1020100083FF0AC08091E800877F8093E800809169
:10202000EB0080628093EB00AA96E3E00C94A82179
:10203000882321F00E94CA080E946C0C089588230E
:1020400039F09091F801982B9093F8010E946C0C54
:102050000895882309F455C0823879F40E94DF047A
:1020600081FF4FC089E30E94FC080E946C0C89E349
:102070000E94D1080E946C0C0895833859F40E9484
:10208000DF0480FF3EC083E50E94FC080E946C0CC8
:1020900083E5EECF843859F40E94DF0482FF31C01B
:1020A00087E40E94FC080E946C0C87E4E1CF9CEF5F
:1020B000980F913AE8F290E2980F983050F48770B8
:1020C00091E001C0990F8A95EAF7892F0E94CA080A
:1020D000D1CF9BE5980F933028F490E080E00E94E8
:1020E000C904089598E5980F973128F490E080E0AE
:1020F0000E94B3040895803F20F00E94CB050E9407
:10210000A4050895CF93C82F8823C9F08238C9F455
:102110000E94DF0481FD13C089E30E94FC080E9435
:102120006C0C2FEF81EE94E0215080409040E1F75D
:1021300000C0000089E30E94D1080E946C0CCF917E
:1021400008958338A1F40E94DF0480FDF8CF83E571
:102150000E94FC080E946C0C2FEF81EE94E021504D
:1021600080409040E1F700C0000083E5E4CF843870
:10217000A1F40E94DF0482FDE2CF87E40E94FC0804
:102180000E946C0C2FEF81EE94E021508040904033
:10219000E1F700C0000087E4CECF8CEF8C0F813ACE
:1021A00090F580910D01882301F180914C0287FF09
:1021B0001CC0EC2FE695E695E695F0E0EE59FE4F53
:1021C000828190E04C2F477021E030E002C0220F66
:1021D000331F4A95E2F782239323892B81F08C2FBA
:1021E0000E94D1080E946C0C0AC0E4E6F1E08AE685
:1021F00091E02191C21799F38E179F07D1F78C2F89
:102200000E94FC089ACF80E28C0F883068F4C77077
:1022100021E030E001C0220FCA95EAF78091F80171
:10222000822B8093F80189CFEBE5EC0FE33040F48B
:10223000F0E0E25FFE4F808190E00E94C9047FCF12
:10224000E8E5EC0FE73150F4F0E0EE0FFF1FEF5E32
:10225000FE4F808191810E94B30471CFC03F08F48A
:102260006ECF8C2F0E9486060E94A40568CF1F9314
:10227000CF93DF93182FD0E0C0E0893311F4C0E58D
:10228000D0E0812F0E948210209739F4812F0E9484
:102290002910DF91CF911F9108958FE99FE0019759
:1022A000F1F700C000002197EFCF0F931F93CF935A
:1022B000DF93C62FD42F022FFC0182818823A9F03F
:1022C000609382020E94A70490938102809380020F
:1022D000C77081E001C0880FCA95EAF70E941F10FD
:1022E000DF91CF911F910F91089580918202681321
:1022F00032C080918002909181020E949804883CB3
:10230000910548F510E21D0FCD17B9F080E28C0F52
:10231000883040F4C77081E001C0880FCA95EAF7A1
:102320000E941810183048F481E09D2F977001C06A
:10233000880F9A95EAF70E941F10802F0E9437118C
:10234000183070F6D77081E001C0880FDA95EAF78F
:102350000E941810C5CFC77081E001C0880FCA95D0
:10236000EAF7F6CF90E080E00E94BC21893E9E4FC4
:1023700019F40E94600B089580E0089569EE7EEFE5
:1023800090E080E00E94E02160E082E090E00E9426
:10239000C22160E083E090E00E94C2211092FA0125
:1023A00060E084E090E00E94C22160E082E290E080
:1023B0000E94C22160E085E090E00E94C22160E0BE
:1023C00086E090E00E94C2216FEF87E090E00E94DB
:1023D000C22140E050E0BA0188E090E00E94D421A0
:1023E00060E08DE090E00E94C22140E050E0BA0140
:1023F00088E190E00E94D42160E087E190E00E94B3
:10240000C22140E050E0BA018CE190E00E94D4216A
:1024100070E060E080E290E00E94E02140E050E067
:10242000BA0188E190E00E94D42180E00E94760AFF
:102430000E948F0A40E050E0BA018FE090E00E94D5
:10244000D42140E050E0BA0183E190E00E94D42121
:1024500008950E94B21181110AC00E94BE1180919C
:102460003D028470896180933D020E949F0A86E04C
:1024700090E00E94B42180933D02803220F087706A
:10248000886180933D0290913D02892F817090FF79
:1024900004C0892F8695869586950E9466050895C5
:1024A000A5E0B0E0E6E5F2E10C947E218C01FC01B0
:1024B00083819481892B31F08081918189238F3FA1
:1024C00009F01AC52596E1E10C949A210E94040BAB
:1024D000F82E682F89819A810E94620969817A8128
:1024E0008F2D0E94F60A7C01F8018281882309F46D
:1024F000BFC4C70182519F45409708F0E6C48FEFE3
:1025000093E00E94B421811128C0FEEEEF0E57E641
:10251000852E52E0952EE11032C01C821B8244248D
:1025200043944AE0342E74018FEFE81AF80AC4018C
:102530000E94B42189831A82882379F09FEF980F33
:10254000933058F58A83498292E0890E911CC70125
:102550000E94B4218B83811121C08091D6018770A4
:1025600009F4B0CFF8018281882309F4ABCF8091C0
:102570004D0282FDA7CF82E00E94FB0CA3CF811405
:1025800024E0920651F3C4010E94B421811101C0DC
:10259000EA943FEF831A930ABECF4701FE013196BA
:1025A0007F01F7012081222309F4BDCF213009F0FA
:1025B00047C091818281913031F4F2E0EF0EF11C3D
:1025C0000E94371107C0923049F422E0E20EF11C5C
:1025D0000E9482103FEFE31AF30AE3CF933031F405
:1025E00032E0E30EF11C0E942910F4CF943021F068
:1025F0008FEFE81AF80AEECF92E0E90EF11C30E016
:1026000020E0B7016F5F7F4FF70141818053990B45
:102610008A30910550F021503109E0F28FE99FE0B6
:102620000197F1F700C00000F6CF329EF001339E13
:10263000F00D11249C012E0F3F1F842F7B01E1CF51
:10264000E22FF0E0EC50FE4F5490822F8695869555
:10265000869590E0FC01EC51FE4F64902770712C40
:10266000022E02C0759467940A94E2F7E1E06E22AC
:102670007724FC01EC52FE4FA490B12C022E02C034
:10268000B594A7940A94E2F7F1E0AF22BB24FC01D1
:10269000EC53FE4FC490D12C02C0D594C7942A9518
:1026A000E2F721E0C222DD246114710419F081EE09
:1026B0000E948210A114B10419F086EE0E948210CB
:1026C000852D0E943711A114B10419F086EE0E94E5
:1026D00029106114710419F081EE0E942910C114AF
:1026E000D10409F477CF8CE26BCF81E00E94330DE7
:1026F0000E94E20C32CF81E00E94EE0CF9CF82E022
:10270000F5CF82E0F9CF83E00E948D0580913D02F4
:102710000E949F0A22CF80E0F7CF80913D02982F40
:10272000987F79F0885080933D02887F91E009F48A
:1027300090E080913D0290FB80F980933D020E94E1
:102740009F0A80913D028695869586950E94660532
:1027500004CF80913D02982F96959695969593304B
:1027600040F49F5F990F990F990F8770892B809381
:102770003D0280913D028160E0CF80913D0280FF6B
:1027800007C08E7F80933D020E949F0A80E0DECFCB
:1027900080FDE3CE816080933D02813019F489E0B1
:1027A00080933D0280913D02CACF90913D02892FD6
:1027B0008695869586958F5F8F719770843048F4E3
:1027C000880F880F880F892B80933D0280913D02EE
:1027D000ACCF90933D02FACF80913D0281FF03C0C0
:1027E0000E94A50ABACE0E94BB0AB7CE27E245EEE8
:1027F00065EE67C326E241EE60EE63C327E245EE75
:1028000064EE5FC326E241EE62EE5BC328E241E084
:10281000EFCFE1E6EE16EDE5FE0609F437C4F5EA82
:10282000EF16FDE5FF0609F431C496E1E9169CE5D3
:10283000F90609F072C38091F8018A7A91E009F4EF
:1028400090E090938201811107C189E20E94FC0807
:102850000E946C0C82CE80914C02806297E0E91657
:102860009CE5F90609F4A9C080914C028061E8E07A
:10287000EE16ECE5FE0608F4A0C080914C028064E0
:102880009CC080914C028B7FFDE0EF16FCE5FF06BB
:1028900009F493C078F480914C028E7F3BE0E316FC
:1028A0003CE5F30609F489C008F4A0C080914C020D
:1028B0008D7F83C080914C028F7E9FE0E9169CE55E
:1028C000F90609F47AC080914C02877FE0E1EE16A8
:1028D000ECE5FE0608F471C080914C028F7D6DC05E
:1028E000FDEFEF16FCE5FF0609F488C078F535E149
:1028F000E3163CE5F30609F48FC0A0F480914C0286
:10290000837F93E1E9169CE5F90609F456C008F4C3
:102910007DC00E94440D90914C02892F97FB87F94E
:1029200080584BC0FBEFEF16FCE5FF0609F454C0DE
:1029300008F060C080914D0281603AEFE3163CE5FB
:10294000F30609F0CFC380934D02CCC381E0E816B3
:102950008DE5F80609F46CC0C8F480914D028C7FB7
:10296000EFEFEE16ECE5FE0671F380914D02836009
:10297000E114FDE5FF0638F380914D02982F909504
:1029800091708E7F892B90FB81F9DDCF21E6E216D5
:102990002DE5F20609F452C035EAE3163DE5F306EB
:1029A00009F453C082E0E8168DE5F80609F09AC3F1
:1029B00060E03FC080914C02816080934C0292C3E2
:1029C00080914C028260F9CF80914C028460F5CFF7
:1029D00080914C028860F1CF80914D028260B3CF2C
:1029E0000E94440D80914C028068E7CF80914C0298
:1029F0008C60E3CF80914D028E7FA5CF80914D02F8
:102A00008D7FA1CF80914C028F7BD7CF0E94440D48
:102A100080914C028F77D1CF80914C0282FB992715
:102A200090F921E0922790FB82F990FB83F9C5CFC2
:102A300061E08EE090E00E94C22154C390914C026C
:102A4000892F8F7E94FF8061B8CF90914C02892F9F
:102A50008E7F90FF8160B1CF85E3F8CE85E3E6C23B
:102A60000E94440DEFEFF4E32CE0E150F0402040F1
:102A7000E1F700C000000E94870481E074C280E09A
:102A800072C2C7010E943A09D82E7EC22F2D2F7024
:102A9000C22E8F2D807F19F0C29490EFC922DD20C5
:102AA000B9F0CC2069F080E28E0D883010F08110F2
:102AB00009C08091F801C82AC092F8010E946C0CEC
:102AC0008E2D4CC08091F701C82AC092F701F6CF35
:102AD0008E2D0E942910CC2009F442C080E28E0D78
:102AE000883010F0811004C08C2D0E94CA0806C0E6
:102AF000C0948091F701C822C092F7010E946C0C2B
:102B00002FC03F2D3F70C32E8F2D807F803219F054
:102B1000C29480EFC822882089F081E0881609F4E9
:102B200068C0DD2009F472C0BB2009F468C0F80158
:102B3000858180FFC5CF8F70858361C020914D0254
:102B400022FF35C0DD2069F1CC2039F08091F801F9
:102B5000C82AC092F8010E946C0C80E00E9482108A
:102B6000292D2850330B2430310510F40E94DF0446
:102B7000AA2009F4A7CC8091D60180FDA3CCF8014E
:102B800012828595859585950E94330DC8010E9416
:102B900050128091D6018595859585950E94EE0C01
:102BA00091CC80E00E942910CC20D1F29DCFDD2075
:102BB00099F09091F9018C2D892BB11003C00E94DE
:102BC0001F10CECFE1E0BE12FACF22FDC9CF981779
:102BD00039F28093F901C4CFB11006C00E94C40835
:102BE0008C2D0E941810BCCFF1E0BF1609F4B8CFAD
:102BF000F5CFDD2031F025E02B1508F4B1CF8C2D79
:102C0000DECF34E03B1508F4ABCFEACFBB2041F375
:102C1000F9E38F1209C02FEF37EE83E021503040E7
:102C20008040E1F700C000008E2D0E94291098CF4F
:102C30008F2D86958695837061F0813009F090CF55
:102C4000C7019370D11002C090E080E00E94B304ED
:102C500087CFC7019370D11002C090E080E00E943E
:102C6000C9047ECF8E2DDD2029F00E9486060E94A9
:102C7000A40576CF0E94CB05FACF8F2D837091F5F6
:102C8000D1106ECF4E2D429546954770440F440F9C
:102C90008E2D8F70042E01C0880F0A94EAF72E2D16
:102CA0002071E4FE07C02FE030E001C0220F4A95FA
:102CB000EAF720953F2D369536953370323069F01E
:102CC00050F44091FA01313029F0822B84230E9484
:102CD0003F0D46CF842B822BFACF282B8091FA010F
:102CE0008227F5CF8695DD2011F08F2D8170882306
:102CF00009F436CF4E2D429546954770440F440F48
:102D00008E2D8F70042E01C0880F0A94EAF72E2DA5
:102D10002071E4FE07C02FE030E001C0220F4A9589
:102D2000EAF720953F2D369536953370323069F0AD
:102D300050F440918302313029F0822B84230E9489
:102D4000DD0C0ECF842B822BFACF282B80918302AF
:102D50008227F5CF9F2D9F70F92EDD2029F0892F36
:102D60000E94330D8E2D2BCF8E2D0E9418108F2D8B
:102D70000E94EE0CF5CE8E2DE2EF8E16B1F1E81525
:102D800070F0F0EF8F16D1F021EF821691F0DD2078
:102D900009F45EC0B11094CE8F2D8F712AC033EF2D
:102DA000831651F194EF8912F2CF80914D0282FF88
:102DB0002FC08F2D8F71DD20D9F21BC0DD2081F057
:102DC000E4E0EB1508F4CCCE2F2D2F7181E090E0DC
:102DD00001C0880F2A95EAF7909183028927AFCF27
:102DE000F5E0FB1508F4BCCEEFCF8F2D8F71D1101D
:102DF000BFCF0E94330DB4CE80E0DD2009F49FCF19
:102E00009F2D9F7181E001C0880F9A95EAF797CFB7
:102E1000DD2099F02F2D2F71F22E822F0E94330D7D
:102E200080914D0282FD07C038E0F39EC00111245D
:102E300083608093D6018F2DDCCF81E00E94FB0C54
:102E400081E08B1508F08CCE82E00E94FB0C88CECE
:102E5000BB2059F0893309F0E7CE9FEFE7EEF3E0AE
:102E60009150E040F040E1F7DDCE8F2D8F7180CFA3
:102E7000F0E1EF16FFE5FF0609F43DCC21E1E21693
:102E80002FE5F20609F43DCC23EFE2162CE5F2061D
:102E900009F4B0CC08F0B1C088EDE8168CE5F8066E
:102EA00009F4A4CC99EDE9169CE5F90609F4AECC39
:102EB000E7EDEE16ECE5FE0609F0ADC026E241EEC8
:102EC00061EEC8010E94551148CB30E1E3163FE5A1
:102ED000F30609F40ACC81E1E8168FE5F80609F457
:102EE0000ECCF701EB5BFC45E730F10508F0A1C023
:102EF000E15FFD4D0C94562185E0DE0111960190B5
:102F00000D928A95E1F7F801228189819A81211138
:102F1000DDCA0E943A09F82EE1CA2AE5E2162DE53B
:102F2000F20609F4AACD68F4E1148CE5F80609F478
:102F300097CD9EEDE9169CE5F906B9F40E94BE1105
:102F40000CCBEBE5EE16EDE5FE0609F498CDFCE5BD
:102F5000EF16FDE5FF0649F480914D0282FB8827BC
:102F600080F991E089270E94170DF8018281E080A5
:102F7000F180882309F485CDC7010E94040BD82E67
:102F8000682FC7010E946209B7018D2D0E94F60AC1
:102F90000E943C077C01882EF801D280B580B29453
:102FA0003FE0B3228091D6018770C1F0AD2CDD20C7
:102FB000B1F08F2D807F803421F080E28E0D88303B
:102FC00068F080914D0282FD09C082E00E94FB0CF6
:102FD0008091D6018770AA24A3948111A12C9F2CE3
:102FE00092942FE09222FBE0F91508F4B9CDE92D77
:102FF000F0E0EA5EFD4D0C945621F5EFEF16FCE58E
:10300000FF0609F4FFCB08F4F9CB36EFE3163CE5F5
:10301000F30609F485C0F6E1EF16FCE5FF0609F0BA
:10302000A4CF80918201811119CD89E20E94D1083B
:103030000FCC83EFE8168CE5F80609F4DBCB08F03B
:1030400061C0E8EDEE16ECE5FE0609F4CFCBF9ED34
:10305000EF16FCE5FF0609F4D9CB27EDE2162CE5C7
:10306000F20609F42BCF1092820283E0E8168DE578
:10307000F80608F0CECB9AEFE9169CE5F90630F495
:10308000C70182509C45449708F0CFCB0E94790B32
:1030900090934D0280934C0221E1E2162CE5F2065A
:1030A00009F4B0CC08F01CCC89E0E8168CE5F806F1
:1030B00009F496CC08F0E5CBE5E0EE16ECE5FE066B
:1030C00009F486CC08F0C7CB23E0E2162CE5F20623
:1030D00009F476CC08F078CC82E0E8168CE5F806A6
:1030E00009F468CC60914C02F0904D0284E090E0CD
:1030F0000E94C2216F2D82E290E00E94C2210E94B4
:10310000440D2BCA35EFE3163CE5F30609F47ACB00
:1031100008F474CB96EFE9169CE5F90609F0A3CF05
:1031200027E245EE66EECDCE1F93CF93DF938091DD
:10313000A301807F09F049C08091A001882309F490
:1031400044C08091D501D091A40160919E017091FD
:103150009F01A091A101B091A201C62FC72316E043
:10316000D81799F190E0109711F0CF3F19F401961C
:103170008770F6CF189F9001199F300D1124F90127
:10318000EB55FE4F41814713F2CF40814613EFCFFD
:1031900042814111ECCF438154814A1B5B0B483C77
:1031A000510528F78091A3018F7080618093A3015E
:1031B000F901E655FE4F80818F70806180838EE932
:1031C00091E00E9450120E943009DF91CF911F912F
:1031D0000895A1E1B0E0EFEEF8E10C9485218C01B7
:1031E00085E0F801DE011D9601900D928A95E1F7C8
:1031F000F801E2808EE9A82E81E0B82E6091A1014D
:103200007091A2016115710509F426C190919E018A
:1032100040919F01892F84238F3F09F41DC1208194
:103220003181C380D480F090A001F601E61BF70B3A
:10323000FF2009F4DCC08091A301582F507FE83CA7
:10324000F10508F09FC051116BC0FE2C431314C050
:10325000921312C0E11010C08F7080618093A3019F
:10326000C5010E9450128091A301F80185838F2D22
:103270006196EAE00C94A121C114D10429F0822FB7
:1032800083238F3F09F003C180E0F82FF170DF2E18
:1032900080FF3CC08091D5014091A40156E0841389
:1032A00015C02D873E878D859E850E94330B292F63
:1032B00022952F702230F0F0243018F59F70F1F035
:1032C000F8019581907FD1F4D12C1EC090E0589FD9
:1032D000F001599FF00D1124EB55FE4F618136131B
:1032E00006C06081261303C06281E6120FC00196FA
:1032F0008770D5CF9F7011F0882331F3805E8830BE
:1033000018F3C8010E945012FD2CB1CFEE2009F431
:10331000AECF8091A30181608093A301F12CA7CF50
:10332000431306C0921304C0F801EE2009F479C0DB
:10333000C8010E94400B882309F1EE20F9F080912A
:10334000A301803270F020919E0130919F01388757
:103350002F831986DB86CA868C87CE0107960E944A
:10336000501286E0F801AEE9B1E001900D928A9525
:10337000E1F70E949418FF24F39479CFC8010E94CA
:103380005012F9CF51110AC08EE991E00E945012FB
:1033900086E0F50111928A95E9F7C0CF43130FC07B
:1033A00092130DC0E1100BC0F8018583C8010E9483
:1033B000501286E0F50111928A95E9F758CFC801BD
:1033C0000E94400B8823D1F2EE20C1F28091A3012C
:1033D000803238F220919E0130919F013A832983F7
:1033E0001B82DD82CC828E83CE010196B8CFE83C71
:1033F000F105F8F6FE2CEE2009F243131FC09213DC
:103400001DC08091A30180FD10C0982F907F69F0AE
:10341000F8018583903F31F0982F907F905F8F70F7
:10342000892B8583C8010E94501286E0F801AEE91D
:10343000B1E001900D928A95E1F719CFC8010E9481
:10344000400B81118ECF8091A30181608093A301F5
:10345000C8010E9450120BCFEE2009F48FCFC80193
:103460000E94400BF82E882309F488CF86E0F801EB
:10347000AEE9B1E001900D928A95E1F780919E014D
:1034800090919F010E94330B0E949418F0CE81E02E
:103490008E25FBCEA7E1B0E0E0E5FAE10C948C21AB
:1034A0004B8B5C8B6D8B7E8B8F8B61111092F70138
:1034B0001A8A198A85E0FE017396DE011D96019035
:1034C0000D928A95E1F786E0FE013D96DE011796A2
:1034D00001900D928A95E1F7CE0107960E94E918B6
:1034E000811112C086E0FE013796DE01119601902F
:1034F0000D928A95E1F78A859B85892B29F088852D
:103500009F8189238F3F81F516E08091D5019091AD
:10351000A401891317C06796E3E00C94A82196E0F4
:10352000929FD001939FB00D1124AB55BE4FFE0169
:10353000319601900D929A95E1F78093A4010E9433
:103540003009E2CF819FC00111248B559E4F0E940C
:10355000E918882301F38091D50190E001968770E6
:1035600099278093D501D1CF2091A40130E0C901E2
:103570000196877099274091D5014817190679F669
:103580000E94440D1092A4011092D50186E0EEE94C
:10359000F1E0DF011D928A95E9F7B6CF1F920F92F5
:1035A0000FB60F9211242F933F934F935F936F9316
:1035B0007F938F939F93AF93BF93CF93DF93EF93BB
:1035C000FF93D091E900DF708091EC00C82FC170AB
:1035D00080FDC0E81092E9008091F000877F809321
:1035E000F00078940E945A0D1092E9008091F0004A
:1035F00088608093F000CD2BCF70C093E900FF91DD
:10360000EF91DF91CF91BF91AF919F918F917F917A
:103610006F915F914F913F912F910F900FBE0F903F
:103620001F9018951F920F920FB60F9211242F938F
:103630003F934F935F936F937F938F939F93AF933A
:10364000BF93EF93FF938091E10082FF09C08091C7
:10365000E20082FF05C08091E1008B7F8093E10052
:103660008091DA0080FF24C08091D80080FF20C0C4
:103670008091DA008E7F8093DA008091D90080FFFC
:103680009DC080E189BD82E189BD09B400FEFDCF06
:1036900081E08093760280915102811109C00E94DD
:1036A000FF020E94CA038091E20084608093E200DE
:1036B0008091E10080FF17C08091E20080FF13C07D
:1036C0008091E2008E7F8093E2008091E200806131
:1036D0008093E2008091D80080628093D80019BC6A
:1036E00085E0809376028091E10084FF2BC0809179
:1036F000E20084FF27C080E189BD82E189BD89B5F0
:10370000982F917080FFFBCF8091D8008F7D8093A0
:10371000D8008091E1008F7E8093E1008091E200EB
:103720008F7E8093E2008091E20081608093E200CE
:1037300080917702882309F447C084E08093760261
:10374000809176028091E10083FF27C08091E200A2
:1037500083FF23C08091E100877F8093E10082E0B6
:1037600080937602109277028091E1008E7F8093A1
:10377000E1008091E2008E7F8093E2008091E20080
:1037800080618093E20042E060E080E00E94980364
:103790008091F00088608093F000FF91EF91BF91DD
:1037A000AF919F918F917F916F915F914F913F91D9
:1037B0002F910F900FBE0F901F90189519BC10926B
:1037C00076021092510274CF8091E30087FD93E05E
:1037D00090937602B5CF78941F921FB61F92112452
:1037E0008F939F93AF93BF9380914802909149022A
:1037F000A0914A02B0914B020196A11DB11D809388
:10380000480290934902A0934A02B0934B02BF91A1
:10381000AF919F918F911F901FBE1F9018951F927F
:103820001FB61F9211248F939F93AF93BF938091E4
:103830004702811113C08091480290914902A091E2
:103840004A02B0914B024196A11DB11D80934802DE
:1038500090934902A0934A02B0934B02BF91AF915B
:103860009F918F911F901FBE1F9018951F920F92CE
:103870000FB60F9211242F933F934F935F936F9343
:103880007F938F939F93AF93BF93EF93FF93809119
:103890000C018230A1F08F5F80930C01FF91EF91BA
:1038A000BF91AF919F918F917F916F915F914F9158
:1038B0003F912F910F900FBE0F901F90189581E0B0
:1038C00080930C0180913F0290914002019660ED3F
:1038D00072E00E940C219093400280933F0265E0C9
:1038E00070E00E940C216F7780913E02823041F49B
:1038F000603451F480916F008E7F80936F0004C01C
:10390000813011F46F37B1F3E62FF0E0EC58FD4F42
:10391000E4912091860030918700E29FC001E39FEF
:10392000900D11246DEF72E00E940C2180913D02F8
:10393000869586958695282F269FC001279F900DF6
:1039400011240E94EC049093890080938800A6CFF4
:10395000CDB7DEB7AA970FB6F894DEBF0FBECDBFC6
:1039600084B7877F84BF0FB6F894A89580916000D4
:10397000886180936000109260000FBE80E890E044
:103980000FB6F89480936100909361000FBE85B7E5
:10399000806885BF85B7806885BF80EE96E090938C
:1039A0006101809360010E94FF020E94CA0380911E
:1039B000E20084608093E20078948091760288230C
:1039C000A1F01091E9001F709091EC00892F817097
:1039D00090FD80E8182B1092E9008091E80083FDAB
:1039E0000E945A0D1F701093E90082E084BD93E09D
:1039F00095BD9AEF97BD80936E000E94600B811178
:103A000002C00E948F0A0FE311E0B7E4EB2EB1E091
:103A1000FB2ED8018D918D018F3F11F00E94E2069F
:103A2000E016F106B1F707E411E0A0E5EA2EA1E007
:103A3000FA2EF80181918F018F3F11F00E94E2066A
:103A4000E016F106B1F780E1E0E2F2E0DF01282FB5
:103A50001D922A95E9F7EEEFF1E0DF011D928A95BC
:103A6000E9F70E94B211811102C00E94BE1182E0EA
:103A700090E00E94B42180930E020E94790B9093F3
:103A80004D0280934C020E94870BEFE3FCE93197D3
:103A9000F1F700C000000E94870B8091200280FF98
:103AA00008C06FEF7FEF90E080E00E94E0210E946D
:103AB000870483E090E00E94B4210E943F0D259A84
:103AC0002D9882E88093800089E1809381008FEFB8
:103AD0009FEF90938700809386000E942912809127
:103AE0003D0281FF0BC01092400210923F021092E3
:103AF0003E0280916F00816080936F000E942912C6
:103B000080E091E0909344028093430268E1662E46
:103B1000712C70E4572EE0E3AE2EE2E0BE2EF3E00F
:103B20008F2E912C8091760200E112E1853009F40C
:103B30007EC10E94870B882359F08FB7F89440917B
:103B400048025091490260914A0270914B028FBF26
:103B500050E2E52E52E0F52EEFE0F2E0D70110E062
:103B600000E0702F8D919D91219131912817390797
:103B700009F46FC160E0CC24C394D12C28273927E5
:103B8000A9014C215D21452B09F45DC169A37AA3EC
:103B90009C012C213D2191E0232B09F490E09BA373
:103BA0000E94A7048160782F9DA38CA349A15AA1EC
:103BB0006BA18DA10E944A1A000F111FF801E15F4D
:103BC000FD4F80819181C826D926D182C08286E0AE
:103BD000E7E3F2E0DE01119601900D928A95E1F79C
:103BE000D0903902C0903A0210913B0200913C0201
:103BF0001092390210923A0210923B0210923C024B
:103C00008D2D8C2909F448C080913502909136029F
:103C10000E9498049C0190913102992309F4E7C213
:103C200025313105C8F19F3F19F09F5F9093310214
:103C3000DD2059F00E9466069FEF1D140CF491E000
:103C4000899F802D112480933902CC2059F00E9445
:103C500066069FEF1C140CF491E0899F802D1124BF
:103C600080933A02309139023323B1F020913A0225
:103C7000222391F045EB3403C0011124992309F468
:103C8000FFC09093390245EB2403900111243323A4
:103C900009F4FAC030933A02812F802B09F448C00E
:103CA00080913302909134020E9498049C0190917B
:103CB0003002992309F496C221353105C8F19F3F9E
:103CC00019F09F5F90933002112359F00E9444062F
:103CD0009FEF11160CF491E0899F802D11248093A1
:103CE0003B02002359F00E9444069FEF10160CF48B
:103CF00091E0899F802D112480933C0230913B02FA
:103D00003323B1F020913C02222391F045EB3403A0
:103D1000C0011124992309F4BBC090933B0245EBE9
:103D2000240390011124332309F4B6C030933C02DC
:103D30008091390290913A02892B90913B02892B14
:103D400090913C02892B11F00E94A40586E0FE01AF
:103D50003196A7E3B2E001900D928A95E1F70E94B7
:103D6000DF0490911F02891380931F0280917602D5
:103D7000843009F0D7CE83E08093E9008091E80099
:103D800082FFD0CE8091E80090E085FF06C00E94BF
:103D90001E03882309F484C091E08091E8008B77AA
:103DA0008093E800992309F4BDCEE981E150E33125
:103DB00008F0F5C0F0E0EE5DFD4D0C9456218091C9
:103DC0007602843021F180E00E946605109247025D
:103DD0000FB6F894A895609260000FBE50926000F4
:103DE00083B7817F846083BF83B7816083BF78940A
:103DF000889583B78E7F83BF0FB6F894A89580917E
:103E00006000886180936000109260000FBE809116
:103E10007502882361F00E94870BE0E2F2E0819155
:103E20009191892B09F0BFC1AE16BF06C1F78091F1
:103E30007602853009F4C3CF0E94440D0E942912F6
:103E40000E94DF0476CE6F5FCC0CDD1C693009F078
:103E500097CE0F5F1F4F0830110509F082CE8FEF0C
:103E60008EA38FA318A60E94A7048160782F9AA71B
:103E700089A74EA15FA168A58AA50E944A1AA7CE6C
:103E800081E080933902FFCE81E080933A0204CF33
:103E900081E080933B0243CF81E080933C0248CF96
:103EA00000E210E0CE0101966C018091E80085FDF2
:103EB0000AC08091E8008B778093E8000E941E037F
:103EC000882399F369CF8091F100D6018D936D011C
:103ED0000150110951F760CF1A8289E08B831AC013
:103EE0008A81823009F475C18330D9F1813009F0BB
:103EF00056C02FB7F89460914802709149028091A2
:103F00004A0290914B022FBF0E945C216B837C83FD
:103F10008D839E8380917602843009F003CE1091C8
:103F2000E9001F709091EC00892F817090FD80E86E
:103F3000182B82E08093E9008091E80080FF0DC09B
:103F400050E040E060E270E0CE0101960E944F0335
:103F50008091E8008E778093E8001F701093E9004D
:103F6000E1CDFE013196D7018C9111969C91B2E082
:103F7000EB0EF11C928383833296AE14BF0499F743
:103F8000C9CF8A81823059F46B817C818D819E8179
:103F90000E945C2186E290E00E94C221BBCF8FEF9D
:103FA0008983B8CF4C816B818A810E94D00A98277F
:103FB000892798279E838D83ADCF0D811E81102781
:103FC000012710278A81EB80E2E1EE9E7001112427
:103FD000F0E98F9FE00CF11C11248C8190E0880F98
:103FE000991FE80EF91E612FC70187960E94C22112
:103FF000602FC7018896D0CF0E94330A8BCF8A8169
:10400000893049F08A3009F085CF8B81811110C049
:104010000E94A50A7FCF8B8123E0829FC0011124DB
:104020006FEF70E00E940C21862F0E948D0572CFE9
:104030000E94BB0A6FCF8A81893041F08A3009F033
:1040400069CF80913D028695817048CF80913D0275
:104050008695869586954FEF849FC0011124B40103
:104060000E940C216B8356CF80913D020E949F0AD3
:1040700051CF80E18A834ECF81E08A8389E92ECFB8
:104080000A811B81102701271027CE0101967C0190
:10409000CC80DC01AC0DB11D6D01C80189599D4F6B
:1040A000CE14DF0409F436CF0939B1E01B0750F410
:1040B0000E94B421F70184830F5F1F4FBFEFEB1AFB
:1040C000FB0AEBCFD70114961C92F6CF0A811B8115
:1040D000102701271027FE0131966F01EC80E00EBA
:1040E000F12EF11CC80189599D4FE016F10609F423
:1040F00011CF0939F1E01F0728F4D60114966C910D
:104100000E94C221BFEFCB1ADB0A0F5F1F4FEACF1D
:104110000E94230AFFCE84E0ADCF0A811B811027C5
:1041200001271027FE0131967F01CC80CF018C0D35
:10413000911D6C01C8018796CE14DF0409F4EACE04
:104140000034A2E01A0750F40E94B421F7018483DE
:104150000F5F1F4FBFEFEB1AFB0AECCFD70114968E
:104160001C92F6CF0A811B81102701271027FE0120
:1041700031966F01EC80E00EF12EF11CC80187969C
:10418000E016F10609F4C6CE0034F2E01F0728F469
:10419000D60114966C910E94C221BFEFCB1ADB0AA4
:1041A0000F5F1F4FEBCF09BD19BD09B400FEFDCF56
:1041B0008091D8008F7D8093D8008091E00082604C
:1041C0008093E0008091E00081FDFCCF0E94440DCF
:1041D0002ECE86E290E00E94B4211B821C821D82BA
:1041E0008E8398CE2B30310508F06BCDA1CD2B30CE
:1041F000310508F01ACD50CDDB018F939F930E94BB
:104200007221BF91AF91A29F800D911DA39F900D30
:10421000B29F900D11240895AA1BBB1B51E107C04A
:10422000AA1FBB1FA617B70710F0A61BB70B881F46
:10423000991F5A95A9F780959095BC01CD010895D5
:1042400097FB072E16F4009407D077FD09D00E9443
:104250000C2107FC05D03EF4909581959F4F089561
:10426000709561957F4F0895A1E21A2EAA1BBB1B82
:10427000FD010DC0AA1FBB1FEE1FFF1FA217B30732
:10428000E407F50720F0A21BB30BE40BF50B661F48
:10429000771F881F991F1A9469F76095709580950C
:1042A00090959B01AC01BD01CF010895EE0FFF1F5A
:1042B0000590F491E02D09946927962769277827BE
:1042C000872778270895A29FB001B39FC001A39FBD
:1042D000700D811D1124911DB29F700D811D11243F
:1042E000911D08950E946321A59F900DB49F900D8C
:1042F000A49F800D911D112408952F923F924F92FB
:104300005F926F927F928F929F92AF92BF92CF9265
:10431000DF92EF92FF920F931F93CF93DF93CDB76E
:10432000DEB7CA1BDB0B0FB6F894DEBF0FBECDBFE6
:1043300009942A88398848885F846E847D848C84B7
:104340009B84AA84B984C884DF80EE80FD800C81C0
:104350001B81AA81B981CE0FD11D0FB6F894DEBFA3
:104360000FBECDBFED010895F999FECF92BD81BD7D
:10437000F89A992780B50895A8E1B0E042E050E0AE
:104380000C94E821262FF999FECF92BD81BDF89AB1
:10439000019700B4021639F01FBA20BD0FB6F89489
:1043A000FA9AF99A0FBE08950396272F0E94C32107
:1043B0000E94C221252F0E94C321242F0C94C321C7
:1043C0000196272F0E94C3210C94C221DC01CB014E
:1043D000FC01F999FECF06C0F2BDE1BDF89A319615
:1043E00000B40D9241505040B8F70895FB01DC0134
:1043F00004C08D910190801921F441505040C8F7BC
:10440000881B990B0895F894FFCF3B0E630E06109E
:10441000630E0610960EB70E0610B50FC20F83136B
:104420008B138D13A913BD13D513EC134615461525
:104430008115811518163216B015B0153D16AA163D
:10444000BB16BB166C1F701FC11FD21FDD1FFC1FC8
:10445000FF1F1B203420CF1FCF1F39203C204020BE
:0A446000662088208B208D20B220FA
:10446A008404E309C209BD09B809830401018182F0
:10447A0083E200E900EA00B500B600B700CD008388
:10448A0001CC008A0192019401210223022402250F
:10449A0002260227022A02B300B4006F0070003617
:1044AA00323331F7F6F5F493929190946697C634C5
:1044BA004022B684016201AC0046055F057F050013
:00000001FF
