:100000000C94F6030C943D040C943D040C943D04B4
:100010000C943D040C943D040C943D040C943D045C
:100020000C943D040C943D040C94A6270C947A285F
:100030000C944A220C943D040C943D040C943D0411
:100040000C943D040C943D040C943D040C943D042C
:100050000C943D040C94A1220C943D040C943D049A
:100060000C943D040C943D040C943D040C943D040C
:100070000C943D040C943D040C943D040C943D04FC
:100080000C943D040C943D040C943D040C943D04EC
:100090000C943D040C943D040C943D040C943D04DC
:1000A0000C943D040C943D040C943D042900000084
:1000B0003A003B003C003D003E003F004000410054
:1000C0004200430044004500460047004800350018
:1000D0001E001F0020002100220023002400250014
:1000E000260027002D002E002A0049004A004B0060
:1000F0002B0014001A000800150017001C0018003F
:100100000C00120013002F00300028004C004D009E
:100110004E00390004001600070009000A000B0019
:100120000D000E000F00330034003200000000000C
:1001300000000000E10064001D001B000600190023
:10014000050011001000360037003800E5000000FF
:10015000000052000000E0000000E200000000008B
:10016000000000002C0000000000E700000001512A
:100170005000000051004F0001000000010001008C
:100180000100010001000100010001000100010067
:100190000100010001000100010001000100010057
:1001A0000100010001000100010001000100010047
:1001B0000100010001000100010001000100010037
:1001C00001000100005C01000100010001000100CC
:1001D0000100010001000100CD5CCE5C01000100C6
:1001E0000100010001000100010001000100010007
:1001F00001000100010001000000000000000000FB
:1002000001000100010001000100010001000100E6
:100210000100010001000100010000000000C55CB8
:1002200000000100000001000000000000000000CC
:10023000010000000000010000000100C85C000097
:10024000C65CC95C01000000010001000100010062
:100250000100010001000100010001000100010096
:100260000100010001000100010001000100010086
:100270000100010001000100010001000100010076
:100280000100010001000100010001000100010066
:100290000100010001000100010001000100010056
:1002A0000100010001000100010001000100010046
:1002B0000100010001000100010001000100010036
:1002C000010001000000000000000000010001002A
:1002D0000100010001000100010001000100010016
:1002E0000100010001000000000001000000010009
:1002F00000000100000000000000000001000000FC
:1003000000000100000001000100000001000100E8
:1003100001000000010001000100010001000100D6
:1003200001000100010001000100010001000100C5
:1003300001000100010001000100010001000100B5
:1003400001000100010001000100010001000100A5
:100350000100010001000100010001000100010095
:100360000100010001000100010001000100010085
:100370000100010001000100010001000100010075
:100380000100010001000100010001000100010065
:100390000000000000000000010001000100010059
:1003A0000100010001000100010001000100010045
:1003B0000100000000000100000001000000010039
:1003C000000000000000000001000000000001002B
:1003D0000000010001000000010001000000000019
:1003E000000000002A2B2800000000000000000090
:1003F0000000000000000029000000002C1E342036
:10040000212224342627252E362D3738271E1F205B
:100410002122232425263333362E37381F040506A0
:100420000708090A0B0C0D0E0F10111213141516E4
:100430001718191A1B1C1D2F3130232D35040506E2
:100440000708090A0B0C0D0E0F10111213141516C4
:100450001718191A1B1C1D2F3130354C00000000D5
:10046000000000000000000000000000000000008C
:10047000000000000000000000000000000000007C
:100480007E0F00D4FFFFFFC70000007800047F3F0D
:100490001F643214643214783C1E1E140A05222391
:1004A000252628292A2C2D2F3032333536383A3B51
:1004B0003D3E4042434547494A4C4E5051535557A3
:1004C000595A5C5E6062646668696B6D6F717375C2
:1004D00077797B7D7F81838587898A8C8E909294C2
:1004E00096989A9C9E9FA1A3A5A7A8AAACAEAFB1CF
:1004F000B3B4B6B8B9BBBCBEBFC1C2C3C5C6C7C919
:10050000CACBCCCDCED0D1D2D2D3D4D5D6D7D7D8D2
:10051000D9D9DADADBDBDBDCDCDCDCDCDDDDDDDD24
:10052000DCDCDCDCDCDBDBDBDADAD9D9D8D7D7D62C
:10053000D5D4D3D2D2D1D0CECDCCCBCAC9C7C6C5E3
:10054000C3C2C1BFBEBCBBB9B8B6B4B3B1AFAEAC29
:10055000AAA8A7A5A3A19F9E9C9A98969492908ED4
:100560008C8A89878583817F7D7B79777573716FAD
:100570006D6B6968666462605E5C5A595755535189
:10058000504E4C4A4947454342403E3D3B3A38363F
:10059000353332302F2D2C2A292826252322FFAA55
:1005A0007F55400001010101010101010102020228
:1005B000020202020202030303030303030304040F
:1005C00004040404040505050505060606060607D9
:1005D0000707070708080808090909090A0A0A0B92
:1005E0000B0B0C0C0C0D0D0D0E0E0E0F0F0F101033
:1005F00011111112121313141415151616171718BA
:100600001819191A1A1B1B1C1D1D1E1E1F20202124
:100610002222232424252626272829292A2B2C2D6B
:100620002D2E2F30313232333435363738393A3B8C
:100630003C3D3E3F404142434445464748494A4C81
:100640004D4E4F50515354555658595A5B5D5E5F4D
:10065000616264656668696B6C6D6F7072737577E3
:10066000787A7B7D7E8082838587888A8C8E8F9145
:10067000939596989A9C9EA0A2A3A5A7A9ABADAF6F
:10068000B1B3B5B7BABCBEC0C2C4C6C9CBCDCFD159
:10069000D4D6D8DBDDDFE2E4E7E9EBEEF0F3F5F802
:1006A000FAFDFF240341006300650020006F00662F
:1006B000002000530070006100640065007300209A
:1006C0000054004B004C0000001C03410063006517
:1006D0000020006F0066002000530070006100647D
:1006E000006500730000000403090409025B0003B5
:1006F0000100A0FA09040000010301010009211111
:100700000100012240000705810308000A090401D5
:10071000000203000000092111010001222200074C
:1007200005820320000107050303200001090402DC
:10073000000103000000092111010001223200071D
:1007400005840320000A12010002000000084B503B
:1007500000100100010200010660FF0961A101090A
:1007600062150026FF0095207508810209631500B7
:1007700026FF00952075089102C005010980A1019E
:10078000850319012AB700150126B70095017510D8
:100790008100C0050C0901A101850419012AA002EC
:1007A000150126A002950175108100C005010906FA
:1007B000A101050719E029E7150025019508750134
:1007C00081029501750881010507190029FF1500AF
:1007D00026FF009506750881000508190129059571
:1007E0000575019102950175039101C011241FBE89
:1007F000CFEFDAE0DEBFCDBF04B603FE27C08091A5
:10080000DA039091DB03A091DC03B091DD03873024
:10081000904BA740B04BD1F41092DA031092DB0357
:100820001092DC031092DD0314BE84B7877F84BF6F
:100830000FB6F894A895809160008861809360005D
:10084000109260000FBEE0E0F8E3099511E0A0E02F
:10085000B1E0EAEDF6E502C005900D92A03DB107CA
:10086000D9F723E0A0EDB1E001C01D92AA3DB20787
:10087000E1F70E94A7140C94302B0C94000081E047
:10088000089581E008950C94410408950C94450462
:100890001F93CF93DF9300D000D00F92CDB7DEB778
:1008A00049835A836B833091D20189819A813111B6
:1008B0001DC06623B9F02223A9F00E949A0A182FBE
:1008C000682F89819A810E94460A69817A81812FE5
:1008D0000F900F900F900F900F90DF91CF911F917D
:1008E0000C94921E0E94720A182FEFCF0E949A0A4F
:1008F00069817A81EDCFFC01262F4081518162818F
:10090000738184810C94480481E00895CF93DF9330
:10091000EC0160E00E947B04BE01DF91CF910C945A
:100920004604E1E0F0E0DF0102C0AA0FBB1F6A95B8
:10093000E2F7BD01DF0102C0AA0FBB1F4A95E2F733
:100940006A2B01C0EE0F2A95EAF7962F982396138B
:1009500002C08E2B0895E0958E230895242F462FF4
:10096000682F8091FA010E9491040C94030A0E945E
:100970000C130E9412060C9427130C942A1380E087
:100980000C941306089508950E949B090E94C304C5
:100990002FEF84E39CE0215080409040E1F700C0BD
:1009A00000000C94C5220F931F93CF93DF938C010B
:1009B00061E00E947B04EC01B8010E94781C88234E
:1009C00009F441C0B801CE010E9443048823D9F143
:1009D000B801CE010E94C71F8823A9F1B801CE013A
:1009E0000E941920882379F1B801CE010E943C2190
:1009F000882349F1B801CE010E942A1B882319F1EE
:100A0000F8018281882361F0CA35FDE5DF0721F115
:100A100070F4C115ECE5DE07A1F0CE3DDC45C9F070
:100A2000C801DF91CF911F910F910C943F04CB35FA
:100A30008DE5D807A1F0CC35DD4591F70E94620E17
:100A4000EFCF0E94C40480E0DF91CF911F910F91FE
:100A500008950E94D80FF7CF0E946B0EE1CF0E943D
:100A60006E0EDECF0C94C2040E946B210E9413060E
:100A70000C943205DF92EF92FF920F931F93CF9366
:100A8000DF93E82FF0E0E452FC4FD490282F269516
:100A90002695269530E0F901E458FB4F04918770C4
:100AA00010E0082E02C0159507950A94E2F7017030
:100AB0001127F901E459FB4FE490F12C082E02C0F4
:100AC000F594E7940A94E2F791E0E922FF24F90112
:100AD000E45AFB4FC491D0E002C0D595C7958A95E2
:100AE000E2F7C170DD270115110519F081EE0E94B2
:100AF0005E06E114F10419F086EE0E945E068D2D6B
:100B00000E944E07EF2819F086EE0E94E806012B9E
:100B100019F081EE0E94E806CD2B51F08CE2DF91B6
:100B2000CF911F910F91FF90EF90DF900C944E07A3
:100B3000DF91CF911F910F91FF90EF90DF9008957B
:100B4000EF92FF920F931F93CF93DF93EC01162F39
:100B50000AE08881882309F454C0813009F04EC02E
:100B60008981813099F47E0122E0E20EF11C8A81B4
:100B70000E944E07E7012196812F815050F3EFE943
:100B8000FFE03197F1F700C00000F7CF823041F469
:100B90007E0182E0E80EF11C8A810E945E06EACFA7
:100BA000833041F47E01E2E0EE0EF11C8A810E9466
:100BB000E806E0CF843011F02196DDCF2A8122961D
:100BC00090E080E0AE014F5F5F4F2053330B2A303F
:100BD000310548F0019778F2EFE9FFE03197F1F73E
:100BE00000C00000F7CF089FB001099F700D1124CD
:100BF000C901860F971F2981EA01E4CF0E943A05B7
:100C0000BACFDF91CF911F910F91FF90EF90089590
:100C100060E00C94A00508950C940B0681E0089503
:100C20000C940E060895CF93C82F0E940C068C2FAB
:100C3000CF910C941006CF93DF93CDB7DEB72B97EF
:100C40000FB6F894DEBF0FBECDBF4F8358876987BC
:100C50007A878B8761110E94910E1E821D8285E02A
:100C6000FE013796DE01119601900D928A95E1F70B
:100C70008C819D81892B89F449815A816B817C818A
:100C80008D819E810E94910D2B960FB6F894DEBF48
:100C90000FBECDBFDF91CF91089589819A818923BD
:100CA0008F3F51F3CE0101960E9484048111E4CF5D
:100CB000EBCFFC01808191810C94C70ACF93C82FA0
:100CC000882309F483C08238C1F40E946B2181FD1E
:100CD0007DC089E30E942B0E0E94C10E2FEF81EE92
:100CE00094E0215080409040E1F700C0000089E38B
:100CF0000E94320ECF910C94C10E8338A1F40E9451
:100D00006B2180FD63C083E50E942B0E0E94C10E03
:100D10002FEF81EE94E0215080409040E1F700C039
:100D2000000083E5E5CF8438A1F40E946B2182FDA9
:100D30004DC087E40E942B0E0E94C10E2FEF81EE62
:100D400094E0215080409040E1F700C0000087E42B
:100D5000CFCF8CEF8C0F813A90F46C2F80910001F3
:100D6000909101010E94C021882329F08C2F0E94BC
:100D7000320E0E94C10E8C2F0E942B0EBBCF80E240
:100D80008C0F883048F4C77081E001C0880FCA9585
:100D9000EAF70E94740EAECFEBE5EC0FE33040F4BF
:100DA000F0E0E05BFE4F808190E0CF910C948221D7
:100DB000C85AC73158F4EC2FF0E0EE0FFF1FEE5D7C
:100DC000FE4F80819181CF910C949821CF9108950D
:100DD000882309F44BC0823871F40E946B2181FF93
:100DE00045C089E30E942B0E0E94C10E89E30E9438
:100DF000320E0C94C10E833859F40E946B2180FF8F
:100E000035C083E50E942B0E0E94C10E83E5EFCF13
:100E1000843859F40E946B2182FF28C087E40E9425
:100E20002B0E0E94C10E87E4E2CF9CEF980F913AFF
:100E3000F0F290E2980F983050F4877091E001C082
:100E4000990F8A95EAF7892F0E947A0ED2CF9BE5F7
:100E5000980F933020F490E080E00C948221885A1F
:100E6000873120F490E080E00C94982108951F933E
:100E7000CF93DF93182FEB010E945E06209731F489
:100E8000812FDF91CF911F910C94E8068FE99FE0AD
:100E90000197F1F700C000002197F0CF70E060E00B
:100EA000893311F460E570E00C943707882321F052
:100EB0000E94740E0C94C10E0895882321F00E94A4
:100EC0007A0E0C94C10E0895BF92CF92DF92EF92EA
:100ED000FF920F931F93CF93DF936C01D62FC72FF1
:100EE000FC011281058102950F700E94490EE82EC7
:100EF0008823A1F0E12E112389F08C2F807F80348C
:100F000029F080E28D0FE12C883040F082E00E94D1
:100F1000120F0E94490E91E0E82EE926BC2EB294F1
:100F20009FE0B922EB2DF0E0EE5CF44D0C94842AA6
:100F30000C2F0F70C07F11F00295007F1123A9F0D4
:100F4000002359F080E28D0F883010F0D11109C0D4
:100F5000802F0E94740E0E94C10E8D2F0E945E068B
:100F600014C0802F0E94840EF6CF8D2F0E94E806B9
:100F7000002359F080E28D0F883010F0D1112CC081
:100F8000802F0E947A0E0E94C10E2B2D2850330B09
:100F90002430310520F40E946B210E941306EE20BC
:100FA00009F46EC10E94450E80FD6AC1F6011282ED
:100FB0000E943F0E0E94140AC6010E9461090E940D
:100FC0003F0EDF91CF911F910F91FF90EF90DF9037
:100FD000CF90BF900C941F0A802F0E948A0ED3CF0F
:100FE000FC2FFF70FF2EC07FC03219F0F29480EF0B
:100FF000F822DD2369F0D13049F1112391F100236A
:1010000051F1F601858180FFA8CF8F70858323C0C1
:10101000112381F0011106C00E94A40E8F290E94A5
:101020005607B3CF0130C1F70E94A40E8F290E944A
:10103000AA0EABCF011106C00E94B70E8F2D0E94E1
:101040005D07A3CF013009F4A0CFF6CF112329F01B
:10105000063008F09ACF8F2DE2CF053008F095CFFB
:10106000EDCF002359F3D93349F4FFEF27EE33E0F6
:10107000F15020403040E1F700C000008D2F0E9469
:10108000E80683CF8C2F86958695837069F0813032
:1010900009F07BCF8D2F9C2F9370111102C090E02F
:1010A00080E00E94982171CF8D2F9C2F9370111199
:1010B00002C090E080E00E94822167CF8C2F837075
:1010C00079F5111162CF4D2F429546954770440F27
:1010D000440F8D2F8F70042E01C0880F0A94EAF7F9
:1010E0002D2F2071D4FF07C02FE030E001C0220F68
:1010F0004A95EAF72095C695C695C370822BC230F3
:1011000049F058F4C13019F00E94F5093ECF0E9411
:10111000F0093BCF0E94FA0938CF0E94EE0935CF83
:101120008695112311F08C2F8170882309F42DCF1F
:101130004D2F429546954770440F440F8D2F8F7069
:10114000042E01C0880F0A94EAF72D2F2071D4FFD6
:1011500007C02FE030E001C0220F4A95EAF7209542
:10116000C695C695C370822BC23049F058F4C13081
:1011700019F00E943B0A09CF0E94360A06CF0E944E
:10118000400A03CF0E94030A00CFCF70112329F039
:101190008C2F0E94140A8D2F42CF8D2F0E945D0745
:1011A0008C2F0E941F0AF1CED23F89F160F4D03F0C
:1011B000C9F0D13F29F1112309F442C00111CDCE6C
:1011C0008C2F8F7121C0D33F39F1D43FA1F7112368
:1011D00069F1CF718C2F0E94140A63E08C2F0E945A
:1011E000F70ED3CE112341F0053008F0CECE8C2F70
:1011F0008F710E942B0AC9CE063008F0C6CEF7CFF9
:101200008C2F8F71112369F20E94140ABECE8C2F8D
:101210008F711123C9F3C5CF112329F08C2F8F7142
:101220000E940C0AB2CE0E94090AAFCE81E00E9451
:10123000120F023008F4A9CE82E00E94120FA5CE50
:10124000002359F0D93309F019CF8FEF97EEE3E07F
:1012500081509040E040E1F70FCF8C2F8F71A1CFEC
:101260004C2F4F706D2FC6010E94FE100E94F50A90
:101270008CCE4C2F4F706D2FC6010E94011185CE70
:10128000DF91CF911F910F91FF90EF90DF90CF9062
:10129000BF9008950F931F93CF93DF93EC01688164
:1012A00079818A810E94D10A8C010E94450A0E949C
:1012B000ED09B801CE01DF91CF911F910F910C94F0
:1012C0006407CF93DF93EC018B819C81892B29F0FC
:1012D0008881998189238F3F59F4DF91CF910895B7
:1012E000CE010E944A09CE01DF91CF910C94860471
:1012F000CE010E94D3048111F3CF0E94490E8823AE
:1013000061F38A81882349F382E0DF91CF910C94C5
:10131000120F90E080E00E94822190E080E00E9425
:1013200098210E94910E0E94A10E0C94C10E0E9461
:10133000390E0C9489090E94810E0C949709E92FAB
:10134000E295EF70E250EE3070F4F0E0EE5BF44DB9
:101350000C94842A803F19F020F4883E20F481E028
:101360000895843FE1F380E00895883EC0F3813F13
:10137000D1F7F5CF93FB882780F90895FC01808190
:1013800091810E94C70A0C949F09CF93DF9300D0EC
:1013900000D00F92CDB7DEB70F900F900F900F9047
:1013A0000F90DF91CF910895CF93DF9300D000D0BD
:1013B00000D0CDB7DEB726960FB6F894DEBF0FBECD
:1013C000CDBFDF91CF91089508950C94E4090E9458
:1013D000E5098093FB010C94890908950C94E709B1
:1013E0009091FB01892B0C94E7099091FB018923D3
:1013F0000C94E7099091FB0189270C94E7090C9460
:10140000E4090C94FF090E94010A8093FA010C94EC
:10141000890980E00C94030A91E001C0990F8A9534
:10142000EAF7892F0C94030A21E030E001C0220F73
:101430008A95EAF78091FA01822B0C94030A21E045
:1014400030E001C0220F8A95EAF720958091FA01D9
:1014500082230C94030A21E030E001C0220F8A9518
:10146000EAF78091FA0182270C94030A9091FA011D
:10147000892B0C94030A9091FA0189230C94030A96
:101480009091FA0189270C94030A089521E1929F13
:10149000800D1124982F977041E001C0440F9A9558
:1014A000EAF786958695869593E0899FF001112449
:1014B000ED52FE4F90E080E070E05191DF01119716
:1014C0009B01082E02C0369527950A94E2F72170F9
:1014D00021952527242325272C93019683309105D8
:1014E00061F7089521E1929F800D1124982F977044
:1014F00086958695869523E0829FF0011124ED5212
:10150000FE4F50E040E080E0219130E0092E02C023
:10151000369527950A94E2F721703327042E01C0EF
:10152000220F0A94EAF7822B4F5F5F4F4330510539
:1015300059F70895CF92DF92FF920F931F93CF93A5
:10154000DF936C010091FA018091FB01082BC7E049
:10155000D0E010E0FC2EC8010C2E02C095958795B6
:101560000A94E2F780FD0CC02197A0F7F12C8F2D93
:10157000DF91CF911F910F91FF90DF90CF90089551
:10158000B6018C2F0E941412019771F3F0CFCF9304
:10159000DF93EC010E949A0ABE01DF91CF910C9477
:1015A00014121F93CF93DF93EB019091D2019923F3
:1015B00031F0CB01DF91CF911F910C94C70A8823A2
:1015C00079F0CB010E949A0A182F682FCE010E9451
:1015D000460ABE01812FDF91CF911F910C94141206
:1015E000CB010E94720A182FF4CFEF92FF920F9353
:1015F0001F93CF93DF938C01892B81F0F12CEE2484
:10160000E394E8012196F8018491843770F48430E2
:1016100008F05FC08130B1F08230A1F1DF91CF914D
:101620001F910F91FF90EF900895853709F44CC0FA
:1016300008F43DC09CE7980F903780F78F770E94A1
:10164000E80649C00E5F1F4FFE01849190E2980F9B
:10165000983060F48770FE2D01C0FF0F8A95EAF77D
:101660008F2F0E94940E0E94C10E02C00E945E063F
:101670008F2D815030F2EFE9FFE03197F1F700C094
:101680000000F7CF0E5F1F4FFE01849190E2980F8C
:10169000983050F48770FE2D01C0FF0F8A95EAF74D
:1016A0008F2F0E949A0EDFCF0E94E806E1CF0E5FD7
:1016B0001F4FFE01C491C150D8F28FE99FE00197FE
:1016C000F1F700C00000F7CF0E5F1F4FFE01F4904E
:1016D000CFCF0E945E068E01CBCF1F93CF93DF93B7
:1016E000C091FC0116E08091FD018C1304C0DF91D4
:1016F000CF911F910895D0E01C9FF0011D9FF00D28
:101700001124E250FE4F40815181628173818481B6
:1017100095810E94D4092196C770E5CF40912E0291
:1017200050912F026091300270913102809132020B
:10173000909133020C94D4091F93CF93DF9380913F
:101740003302807FA9F480913002882389F0809150
:10175000FC01C091FD0160912E0270912F02A091B9
:101760003102B0913202D62FD72316E0C81304C03D
:10177000DF91CF911F91089590E0109711F0DF3F16
:1017800019F401968770F2CF189F9001199F300DC0
:101790001124F901E250FE4F41814713F2CF4081FD
:1017A0004613EFCF42814111ECCF438154814A1B54
:1017B0005B0B483C510528F7809133028F708061A4
:1017C00080933302F901ED5FFD4F80818F7080615E
:1017D00080838EE292E00E946109DF91CF911F9198
:1017E0000C946D0BAF92BF92CF92DF92EF92FF926B
:1017F0000F931F93CF93DF93CDB7DEB761970FB6EB
:10180000F894DEBF0FBECDBF8C0185E0F801DE018C
:101810001D9601900D928A95E1F7F801E2808EE223
:10182000C82E82E0D82E609131027091320261158B
:10183000710509F45AC190912E0220912F02892F2F
:1018400082238F3F09F451C140815181A380B4802C
:10185000F0903002F501E61BF70BFF2009F4F6C00B
:1018600080913302382F307FE83CF10508F0AFC09B
:10187000311179C0FE2C251323C0941321C0E1102F
:101880001FC08F708061809333020E948E0BC6014F
:101890000E94610980913302F80185838F2D619642
:1018A0000FB6F894DEBF0FBECDBFDF91CF911F9171
:1018B0000F91FF90EF90DF90CF90BF90AF90089581
:1018C000AB2829F0842F85238F3F09F027C180E0C2
:1018D000F82FF170DF2E80FF3CC08091FC01209139
:1018E000FD0136E0821315C04D875E878D859E858C
:1018F0000E94C70A292F22952F702230F0F0243041
:1019000018F59F70F1F0F8019581907FD1F4D12CFA
:101910001EC090E0389FF001399FF00D1124E25075
:10192000FE4F6181651306C06081641303C062814C
:10193000E6120FC001968770D5CF9F7011F08823F3
:1019400031F3805E883018F3C8010E946109FD2CD4
:10195000A5CFEE2009F4A2CF80913302816080935D
:101960003302F12C9BCF251306C0941304C0F80159
:10197000EE2009F487C0C8010E94BE09882319F12E
:10198000EE2009F180913302803270F020912E0216
:1019900030912F0238872F831986BB86AA868C87C1
:1019A000CE0107960E94610986E0F801AEE2B2E03E
:1019B00001900D928A95E1F70E949C0B0E948E0B7C
:1019C000FF24F3946BCFC8010E946109F9CF311154
:1019D00013C07A2DB98AA88A6E2D89890E94C509FB
:1019E0008EE292E00E94610986E0F60111928A95EA
:1019F000E9F70E948E0BB5CF25130FC094130DC0CD
:101A0000E1100BC0F8018583C8010E94610986E0DE
:101A1000F60111928A95E9F741CFC8010E94BE09EB
:101A2000882389F2EE2079F280913302803208F423
:101A3000BBCF20912E0230912F023A8329831B8243
:101A4000BD82AC828E83CE010196ACCFE83CF1051D
:101A500008F03EC0FE2CEE2009F4B5CF25132AC0B5
:101A6000941328C08091330280FD1BC0982F907F73
:101A7000C1F0F8018583903F31F0982F907F905FFF
:101A80008F70892B8583C8010E94610986E0F80167
:101A9000AEE2B2E001900D928A95E1F70E948E0BC2
:101AA000FDCE86E0F801AEE2B2E001900D928A959B
:101AB000E1F7F4CEC8010E94BE09811175CF809173
:101AC0003302816080933302C8010E946109E6CE2F
:101AD0007A2DB98AA88A6E2D89890E94C50986E067
:101AE000F60111928A95E9F7D9CFEE2009F46BCF70
:101AF000C8010E94BE09F82E882309F464CF86E04D
:101B0000F801AEE2B2E001900D928A95E1F78EE223
:101B100092E00E9459060E949C0BC0CF81E08E2566
:101B2000D7CE1F93CF93DF93CDB7DEB72C970FB6E9
:101B3000F894DEBF0FBECDBF4F83588769877A8781
:101B40008B879C87CE0107960E94F20B882369F051
:101B50008A859B85892B39F04F815885842F852371
:101B60008F3F09F071C016E05FC086E0FE01379636
:101B7000DE01119601900D928A95E1F78A859B8589
:101B8000892B89F388859F8189238F3F61F3209179
:101B9000FD0130E0C9010196877099274091FC0151
:101BA0004817190671F40E949B091092FD011092CA
:101BB000FC0186E0EEE2F2E0DF011D928A95E9F792
:101BC000D2CF96E0929FD001939FB00D1124A250E6
:101BD000BE4FFE01319601900D929A95E1F78093E8
:101BE000FD010E946D0BBFCF819FC0011124825067
:101BF0009E4F0E94F20B8823E9F0E091FC011E9FAA
:101C0000F0011124E250FE4F4081518162817381C5
:101C1000848195810E94D4098091FC0190E0019615
:101C2000877099278093FC018091FC019091FD01C0
:101C30008913DACF2C960FB6F894DEBF0FBECDBF56
:101C4000DF91CF911F91089569857A858B859C8559
:101C50000E94D40988CF682F8091000190910101E2
:101C60000C94F621682F80910001909101010C9451
:101C7000F82180910001909101010C94FA2180914A
:101C800034028595859585950895809134028770F5
:101C9000089590913402977081E009F480E00895EE
:101CA00090918B0292FB222720F9281751F080FB9C
:101CB00092F990938B0280918A0290918B020C94FE
:101CC000550F089580918B0282FB882780F991E05F
:101CD00089270C94500E81E00C94500E80E00C94F7
:101CE000500E80914002089590914002892B80937C
:101CF000400208958095909140029823909340026D
:101D0000089510924002089590913F02892B80938C
:101D10003F020895809590913F02982390933F024F
:101D2000089510923F02089590913E02892B80936E
:101D30003E020895809590913E02982390933E0232
:101D4000089510923E0208958091350208950895F5
:101D50000C94A70E90918B0292FD08C090913502D1
:101D6000981721F0809335020C94A80E0895809165
:101D70003502882329F01092350280E00C94A80ED9
:101D80000895E0910001F09101018091400280836B
:101D9000E0910001F0910101808190913F02892B37
:101DA0008083E0910001F0910101808190913E02D9
:101DB000892B808390913502992381F0E091000175
:101DC000F09101018081892B8083809100019091A5
:101DD00001010E94AE2181110E94B70E8091000185
:101DE000909101010C94772108950C94F40E909138
:101DF0008B0292FD10C098E0899F90011124622B04
:101E0000609334020E94140A80913402859585956E
:101E100085950C94F50E0C94140A1092340280E00F
:101E20000C94F50E909134028095892380933402AE
:101E3000282F277039F4282F082E000C330B921707
:101E4000130621F490918B0292FF07C0859585952A
:101E500085950E941F0A0C940D0F08956FEF7FEF78
:101E600090E080E00C941A2B90E080E00E94F62A2B
:101E7000893E9E4F11F40C94211C80E0089582E06D
:101E800090E00C94E82A83E090E00C94E82ACF9349
:101E900084E090E00E94E82AC82F82E290E00E944D
:101EA000E82A982F8C2FCF910895CF93C92F682FB0
:101EB00084E090E00E94FC2A6C2F82E290E0CF91B7
:101EC0000C94FC2AAB01BC018FE090E00C940E2B2B
:101ED000AB01BC0183E190E00C940E2B60E070E05C
:101EE000CB010C94680F60E070E0CB010E94620FA0
:101EF0000C946E0F69EE7EEF90E080E00E941A2B4A
:101F000060E082E090E00E94FC2A60E083E090E0E4
:101F10000E94FC2A1092FB0160E084E090E00E94A5
:101F2000FC2A60E082E290E00E94FC2A60E085E00A
:101F300090E00E94FC2A60E086E090E00E94FC2A8B
:101F40006FEF87E090E00E94FC2A40E050E0BA0189
:101F500088E090E00E940E2B60E08DE090E00E940F
:101F6000FC2A40E050E0BA0188E190E00E940E2B8C
:101F700060E087E190E00E94FC2A40E050E0BA0176
:101F80008CE190E00E940E2B70E060E080E290E037
:101F90000E941A2B40E050E0BA0188E190E00E94D4
:101FA0000E2B80E00E943A1C0E94601C0C94730F60
:101FB0000C947A0F682F8EE090E00C94FC2A0E941B
:101FC000862260935E0270935F028093600290931A
:101FD000610260935A0270935B0280935C0290935B
:101FE0005D02089585B7806885BF85B7806885BF25
:101FF0000895089508950C94F90F08950C94FD0F19
:102000000E94F20F82EF92E10E94E9220E94FA0FF1
:102010000C94FB0F81E008950C940A100895089524
:102020000E940E100C940F100E9471220E946F1CCF
:102030000E9409140E94411A0C94FE0F2F923F92A5
:102040004F925F926F927F928F929F92AF92BF92C8
:10205000CF92DF92EF92FF920F931F93CF93DF9374
:10206000CDB7DEB72C970FB6F894DEBF0FBECDBF4D
:102070000E94201481110E94DF0F82E492E09C876D
:102080008B8710E000E0602E802F0E942C134B0104
:102090005C01EB85FC852190319041905190FC874B
:1020A000EB87281439044A045B0409F477C0809153
:1020B000620281FD0E943713712CC12CD12C760154
:1020C000C394282439244A245B24D201C1018C21E1
:1020D0009D21AE21BF21892B8A2B8B2B09F456C061
:1020E0000E940C108823C9F07E826F828C209D2074
:1020F000AE20BF2081E089288A288B2809F480E05F
:1021000088870E947A228160782F9A8789874E81FA
:102110005F8168858A850E941B06000F111F000FD2
:10212000111FF801EE5BFD4F80819181A281B38187
:102130008C259D25AE25BF2580839183A283B38303
:102140000E947C1A0E946B21909141028917E9F14B
:102150000E946B21809341022C960FB6F894DEBF4B
:102160000FBECDBFDF91CF911F910F91FF90EF90E8
:10217000DF90CF90BF90AF909F908F907F906F90A7
:102180005F904F903F902F900C9413067394CC0C5B
:10219000DD1CEE1CFF1CF1E17F1297CF0F5F1F4F7C
:1021A0000630110509F06FCF8FEF89838A831B8278
:1021B0000E947A228160782F9D838C8349815A8185
:1021C0006B818D810E941B06BBCF2C960FB6F894B5
:1021D000DEBF0FBECDBFDF91CF911F910F91FF905A
:1021E000EF90DF90CF90BF90AF909F908F907F90B7
:1021F0006F905F904F903F902F90089590E080E017
:1022000008950895FC01EE0FFF1FE457FB4F8591E1
:1022100094910895CF93DF930E941812EC018115D9
:1022200020E5920708F041C0811530E4930708F0DB
:10223000B4C0803E910518F5803C910508F09DC022
:10224000883A910570F4853A910508F08EC0813086
:102250009105F9F00097E9F00497D8F4D0E0C0E0D8
:1022600018C08F3B9105D0F7C85AD0E0CC0FDD1FC6
:10227000CD5ADE4F0990D881C02DD4640AC0811593
:10228000904258F4C11581E0D80718F4C83ED10532
:1022900028F7CE01DF91CF910895C11590E3D907BA
:1022A00008F071C0CE019F706AC0811525E59207C4
:1022B00058F5811534E5930708F09EC0811542E575
:1022C000940750F4C11581E5D80708F469C0DC2FE4
:1022D000CC27C16FD06ADDCF982F969596959E0139
:1022E00023703327C115D34508F077C0C1E0D0E093
:1022F00002C0CC0FDD1F2A95E2F720E2929FC001B9
:102300001124C82BD92B67C0C11589E5D807A8F4BB
:10231000C11598E5D90708F074C0C11526E5D207A4
:1023200008F09CCF8C2F0E94AF12C82FD0E0DC2F7A
:10233000CC27CC27DF71D062ACCFC1153AE5D307EB
:1023400008F464C0CE0190568115904208F086CF03
:102350008D2F8F710E94AF1290E0982F88278827C9
:102360009F719C012C2BE901E6CFC55AD0E0CF57D5
:10237000DE4FC881D0E0D0648CCF805C91090E9490
:102380000211EC0186CFCE019927D3FF03C0EC01E7
:10239000D86C7FCFEC01D06C7CCFDF70D06A79CF66
:1023A000CE01E4E096958795EA95E1F783702C2FAE
:1023B00026952695237090E2299F90011124382BB1
:1023C0008C2F8370C1E0D0E002C0CC0FDD1F8A9556
:1023D000E2F7C22BD32BDC685CCFC1E0D0E002C0B7
:1023E000CC0FDD1F2A95E2F730E2939FC001112444
:1023F000C82BD92BDA684DCFD82FCC27C46FD06A21
:1024000048CFDC2FCC27C06FD06A43CF8C2F8F7082
:102410000E94AF1234E0D695C7953A95E1F7CF7098
:102420009C2FEC01D06935CF0E94921E0C940A11AA
:1024300082389105B1F1B0F48133910509F475C08A
:1024400048F48932910509F469C08A32910509F48A
:1024500073C008958533910509F459C089339105F6
:1024600001F10895833E9105A9F138F4803E91056C
:10247000F9F0823E910549F10895863E9105A9F152
:10248000873E9105C9F1843E910519F520918B0293
:1024900021FF1FC080918A0284FD14C087EE90E066
:1024A000089520918A022370A1F080EE90E00895B3
:1024B00020918A0220FD47C030918B0230FF09C075
:1024C00024FF44C090E080E004C020918A0222FDF5
:1024D000F7CF089520918A0222FD3BC030918B02F4
:1024E00030FDE3CF24FFF5CFEDCF20918A0223FF0B
:1024F000F0CF24FDE7CFD2CF20918A0223FD2CC05C
:1025000030918B0231FFEECF84EE90E00895209160
:102510008A0225FFDECF89E290E0089520918A02A9
:1025200025FFD7CF85E390E0089520918A0226FF0A
:10253000D0CF8AE290E0089520918A0226FFC9CF89
:1025400081E390E0089589E390E0089583EE90E0C0
:10255000089582EE90E0089586EE90E008959091BF
:102560008A0292FF06C0282F28712830F9F4877F4D
:10257000846093FF06C0282F28712831F1F4877EEC
:10258000846120918B0220FF06C0382F38713830CB
:10259000D9F4877F816021FF06C0282F2871283158
:1025A000D1F4877E816194FD877E0895282F247160
:1025B0002430F9F68B7F8860DCCF282F24712431FA
:1025C00001F78B7E8861DDCF382F3171313019F7FB
:1025D0008E7F8860E0CF282F2171213121F78E7EF8
:1025E0008861E1CF80E008950C942E0F0E942014A2
:1025F0008FE39CE90197F1F700C000000E942014CE
:1026000080E00E942C1360FF04C00E94F4120C941E
:10261000C52208950C94F6120E94340F811102C055
:102620000E94D80F0E943F0F809362020E94470FC2
:1026300090938B0280938A020E940A130E94430F98
:102640000E94EE098091FA010C94010A08950C94FD
:10265000261308950C94291394E0899FF001112406
:10266000EC55FD4F608171818281938108950895B9
:1026700080EA8A95F1F7089500C008950C94381304
:10268000F894E82FE295EF70F0E031A1282F2F7039
:1026900081E090E001C0880F2A95EAF7982F909585
:1026A000932391A392A1892B82A3789408950F93E9
:1026B0001F93CF93DF93C5E9D1E089918F3F11F04C
:1026C0000E94401381E0CB39D807B9F7C4E8D1E0C4
:1026D00005E911E089918F3F11F00E9440130C171A
:1026E0001D07C1F7DF91CF911F910F9108954F9270
:1026F0005F926F927F928F929F92AF92BF92DF9282
:10270000EF92FF920F931F93CF93DF938C01D62EFE
:10271000C62FD0E0CE018B569E4F7C01FC0120815C
:102720002F3F09F462C0F894E22FE295EF70F0E0D9
:1027300031A12F7081E090E001C0880F2A95EAF75F
:10274000932F982B91A392A18095892382A37894AB
:102750000E943C13E4E8F1E030E020E0812C912C71
:102760005401412C512C3201439481918F3F09F443
:102770004CC0A82FA295AF70B0E090964C9150E05D
:102780008F7002C0559547958A95E2F740FD3DC090
:10279000D301C201022E04C0880F991FAA1FBB1FBC
:1027A0000A94D2F7882A992AAA2ABB2A2F5F3F4F78
:1027B00021313105D1F6F70180818F3F11F00E9460
:1027C000401361E081149104A104B10409F460E0B4
:1027D0008D2D0E943E13CC0FDD1FCC0FDD1FC00FCF
:1027E000D11F88829982AA82BB82DF91CF911F91EB
:1027F0000F91FF90EF90DF90BF90AF909F908F90E0
:102800007F906F905F904F90089580E090E0DC01A2
:10281000C9CF0E945713ECE8F2E0A4EAB2E01192AB
:102820001192119211921D921D921D921D9282E0A1
:10283000E43AF807A1F786E00E946B140C94B70401
:10284000FF920F931F93CF93DF93CDB7DEB76897B7
:102850000FB6F894DEBF0FBECDBF8E010F5F1F4FC6
:1028600088E1F80111928A95E9F7F12C6F2DC801E2
:102870000E947713F394F6E0FF12F8CF48E150E09E
:10288000B8018CE892E00E94DB2AFF24F3940097C1
:1028900009F4F12C892B41F088E1F801ACE8B2E0B1
:1028A00001900D928A95E1F72F2D46E064EA72E0DF
:1028B0008CE892E00E946C140E94BD048F2D6896F3
:1028C0000FB6F894DEBF0FBECDBFDF91CF911F9141
:1028D0000F91FF9008950895FF920F931F93CF9348
:1028E000DF93F82ED92F8B01C42F222349F081E0EA
:1028F000809365020E947A2290936402809363021F
:1029000080916502882399F080916302909164021E
:102910000E949222059758F0EF2DFD2FD80190E0EC
:1029200080E0D0E08C179D0744F010926502DF91A3
:10293000CF911F910F91FF900895019111912191D5
:1029400031910D931D932D933D930196EBCF0E94F2
:1029500001220E945E240E9477240E9489240E9402
:102960001010FBCFEF92FF920F931F93CF93DF9343
:10297000EB01E82FD11110C0442321F0F0E0ED5518
:10298000FA4FE4916E2F7E2F8E2FDF91CF911F9102
:102990000F91FF90EF9008950D2F10E0282F30E059
:1029A000442329F02D553A4FF901249130E0F6E007
:1029B000CF9FC0011124EFEFF0E0BF010E943A2A3F
:1029C000AB018C2F90E0880F991FA5E5A49FB00163
:1029D000A59F700D1124861B970B982F990F980FA8
:1029E000BF01601B710B629FD001639FB00D729F8E
:1029F000B00D11248B2F9D9FB0011124672F7727D5
:102A0000EF01C61BD70BBE01629FE001639FD00D93
:102A1000729FD00D11247F01E91AF108E09EB001E8
:102A2000E19E700DF09E700D1124672F7727E61B35
:102A3000F70BE29F8001E39F100DF29F100D112410
:102A4000E12F722F4230510599F048F4411551059C
:102A500069F04130510581F0EB2F8D2F07C04430D4
:102A6000510569F080F046305105B1F76E2F8DCFDA
:102A7000E22F7B2F812FFACFE22F7D2FF7CFEB2F85
:102A8000822F712FF3CF7B2F822FED2FEFCF41E0DD
:102A90000C94B21408950C944715CF93DF93762FBE
:102AA000E901682F842F0E944B15798368838A83FC
:102AB000DF91CF910895433308F042E30C944D1514
:102AC0008091BC02982F9E7F61F481708260809318
:102AD000BC028091BF02833318F082E38093BF026F
:102AE00008958A34B0F381708864F1CF88E090E073
:102AF0000C94F02ACF92DF92EF92FF926B017C014F
:102B00000E946015B701A60188E090E0FF90EF9069
:102B1000DF90CF900C940E2B6091BC027091BD029F
:102B20008091BE029091BF020C947A15ECEBF2E01A
:102B300083E0808311828FEF828382E38383148218
:102B400060817181828193810C947A158091BC029D
:102B500080FF02C08695089580E008959091C0029C
:102B6000933018F49F5F9093C002882351F06091D6
:102B7000BC027091BD028091BE029091BF020C9484
:102B80007A15089581E00C94AE159091C0029923B6
:102B900019F091509093C002882351F06091BC02CB
:102BA0007091BD028091BE029091BF020C947A1583
:102BB000089581E00C94C5158091C002089580931A
:102BC000C002662351F06091BC027091BD028091F9
:102BD000BE029091BF020C947A15089560E00C94A7
:102BE000DF158091BD0208958091BE020895809105
:102BF000BF02089570E00C94F51B6091060180916E
:102C0000BC0280FF0AC08091050123E0829FC001C1
:102C100011248F539D4F0C94FA15809107019091C8
:102C2000080123E0829FF0011124EF53FD4F891723
:102C300050F71182108212828F5F3396F8CF9091F5
:102C4000BC0290FF14C0909107012091080133E06D
:102C5000939FF0011124EF53FD4F921710F00C9445
:102C6000FD158183608342839F5F3396F6CF08957D
:102C7000CF93DF9300D00F92CDB7DEB79091BC0217
:102C800090FF0AC09E012F5F3F4F0E945B154B8152
:102C900069818A810E941F160F900F900F90DF911B
:102CA000CF910895CF93DF93EC01EC81F0E0E256F1
:102CB000FB4F4491ECEBF2E0628181810E94381677
:102CC0008C818F5F8C83DF91CF910895CF93DF93B9
:102CD000EC01ECEBF2E0438162818C810E943816BA
:102CE0008C818F5F8C83DF91CF9108950F931F9319
:102CF000CF93DF9300D00F92CDB7DEB78C018091D8
:102D0000660281110AC09E012F5F3F4F42E36FEFC1
:102D10000E945B158A8180936602F80164816130AC
:102D200069F08091660240E0662361F040E0623025
:102D300011F44091660280E060E004C06091660298
:102D400040E080E00E941F16F801848190E0019627
:102D500063E070E00E944E2A84830F900F900F90E2
:102D6000DF91CF911F910F910895AF92BF92CF92B3
:102D7000DF92EF92FF920F931F93CF93DF9300D0D8
:102D80000F92CDB7DEB7182FF62E042FE22E9091BA
:102D9000BC0290FF29C0E92FE695AE2FB0E0A55602
:102DA000BE4F8C91809370029E7F923059F59E01A8
:102DB0002F5F3F4F812F0E945B154B8169818A8174
:102DC0000E941F161093BD02F092BE020093BF0234
:102DD000EE2051F06091BC027091BD028091BE0264
:102DE0009091BF020E947A150F900F900F90DF9183
:102DF000CF911F910F91FF90EF90DF90CF90BF90F8
:102E0000AF900895823019F40091BF02DBCF863075
:102E100019F41091BD02D6CF8930D9F3893191F6DA
:102E2000E9518E2F8170D82EE695F0E0E256FA4FE8
:102E3000A590B490C12CBB2460910901C61618F06E
:102E40000E94FD15BFCF2C2D30E0A29EC001A39E95
:102E5000900DB29E900D112470E00E943A2A812FAD
:102E6000D11013C0860F40910701420F532F511DFF
:102E70009A01220F331F240F351F2F533D4F402F30
:102E80006F2D0E945B15C394D7CF861BECCFECEB64
:102E9000F2E09181282F4381628188E0890F0C94B0
:102EA000B51681E00C944717ECEBF2E09181282FE6
:102EB0004381628188EF890F0C94B51681E00C94F0
:102EC0005417ECEBF2E0628128E0620F08F46FEF38
:102ED000282F438181810C94B51681E00C946117F1
:102EE000ECEBF2E0628128E0621B08F460E0282F3E
:102EF000438181810C94B51681E00C947017ECEB42
:102F0000F2E0438128E0420F08F44FEF282F62815E
:102F100081810C94B51681E00C947F17ECEBF2E004
:102F2000438128E0421B08F440E0282F6281818120
:102F30000C94B51681E00C948E1720E00C94B51615
:102F4000EF92FF921F93CF93DF93EC0110E0EE24FA
:102F5000EA94F12C60910901161770F00E94FD159A
:102F60009A818C8190FF27C08F5F8C83DF91CF91F6
:102F70001F91FF90EF90089520910701422F410F7C
:102F80005527551FCA019A01220F331F280F391FD9
:102F90002F533D4F70E0C7010E944E2A962F8C811F
:102FA0004091BF026091BE02199F800D11240E94C2
:102FB0005B151F5FCFCF8150D8CFAF92BF92CF921A
:102FC000DF92EF92FF920F931F93CF93DF93FC0159
:102FD00082810FEF80FF01E010E048E5A42E809190
:102FE00009011817C8F00E94FD1580916802013090
:102FF00009F055C0811102C0809109018150809370
:103000006802DF91CF911F910F91FF90EF90DF90B9
:10301000CF90BF90AF900895C0910701C12ED12CE1
:10302000CC0DDD2DD11DCE01880F991FC80FD91FE2
:10303000CF53DD4F198218821A8234E0E32EF12C2F
:10304000B12C809168028B0D89351CF16A2D0E948C
:103050002C2A892F082E000C990BC816D90691F43A
:103060008091BF028E9DA0018F9D500D112455951A
:103070004795559547959E016091BE028091BD028E
:103080000E945B15B00EF1E0EF1AF108D1F61F5F58
:10309000A6CF87FFDFCF90910901890FDBCF90E0AA
:1030A00001966091090170E00E944E2AA8CF0F930B
:1030B0001F93CF93DF93809107019091080123E044
:1030C000829FF0011124EF53FD4F891740F1C0E0BA
:1030D000D3E060910901C61740F10E94FD152091CF
:1030E000030180916702820F80936702909104012F
:1030F000920F90930401191654F4082E000C990BAA
:10310000409109014150550B841795071CF02195FA
:1031100020930301DF91CF911F910F9108951182A8
:10312000108212828F5F3396D0CF0C2F10E070E0A8
:10313000C8010E944E2A20910701820F482F50E0BB
:1031400020916702022E000C330B02171307BCF00C
:1031500020910401022E000C330B201731077CF064
:103160008D9F900111242F533D4F4091BF026091DC
:10317000BE028091BD020E945B15CF5FAACFFA010B
:10318000EE0FFF1FE40FF51FEF53FD4F118210826A
:103190001282F3CF8F929F92AF92BF92CF92DF9223
:1031A000EF92FF920F931F93CF93DF93EC014C812B
:1031B000042F10E09801D8010E94992A9B01AC01CC
:1031C0000E94AF2A4B015C01E0E2F0E0E01BF10B52
:1031D000A5E5B0E0AC019B010E94AF2A6B017C0128
:1031E0009F01DF010E94912A9B01AC010E94BA2A33
:1031F0009B01AC01280D391D4A1D5B1DC701B6019D
:103200000E94622AF22E822F90E039E23F1560F18F
:1032100043E0249F9001112435952795122F109596
:1032200000E085E5E82EEF1880910901081758F1B4
:103230000E94FD159C8181E0992319F0903219F4C8
:103240008FEF8093020180910201890F8C83DF91BF
:10325000CF911F910F91FF90EF90DF90CF90BF9093
:10326000AF909F908F90089525E530E0B901681BDD
:10327000790B9B01220F331F260F371F37FFCCCF4F
:103280002F5F3F4FC9CF8E2D01FD8F2D209107015C
:10329000622F600F7727771F9B01220F331F260FA6
:1032A000371F2F533D4F412F6091BE020E945B1587
:1032B0000F5FBACF0F931F93CF93DF93EC0110E012
:1032C00000E0909109019017110609F06CF40E943A
:1032D000FD158C8190E00196817099278C83DF9198
:1032E000CF911F910F91089520910701A801420FDE
:1032F000511D9A01220F331F240F351F2F533D4FAD
:103300004C816091BE028091BD0296959017110686
:1033100051F04CF0442349F04091BF020E945B15EC
:103320000F5F1F4FCECF4423B9F340E0F7CFECEB54
:10333000F2E080818E7F80836081718182819381C0
:103340000E947A15109271022FEF80E792E02150CF
:1033500080409040E1F700C000000C94FD15ECEBBC
:10336000F2E080818E7F8083109271022FEF80E7E0
:1033700092E0215080409040E1F700C000000C94A2
:10338000FD156091BC02669570E04BE050E08AE06C
:1033900091E00E94CE2A892B19F481E0809371027A
:1033A0000E947A2290936A02809369020895909114
:1033B000BC0290FF35C09170811128C0926090933B
:1033C000BC02662351F06091BC027091BD028091F5
:1033D000BE029091BF020E947A156091BC02669570
:1033E00070E04BE050E08AE091E00E94CE2A892B09
:1033F000A1F01092710281E080936C024091BF02B3
:103400006091BE028091BD020C949D17853210F030
:103410009864D5CF880F982BD2CF0E94C119EBCFDB
:103420000895682F9091BC02969581E0890F8532AE
:1034300008F081E00C94D71981E00C94111A682FE0
:103440009091BC0296958FEF890F09F484E20C9459
:10345000D71981E00C941F1A61E00C94D719ECEB9A
:10346000F2E080818160808386950C942C1A809193
:10347000BC0280FD0C9497190C942F1A60E00C94F8
:10348000D71980916F0281112EC00E94340F8111D3
:1034900004C00E94D80F0E9496150E947615609372
:1034A000BC027093BD028093BE029093BF026E7FF8
:1034B00061F40E9496150E9476156093BC02709389
:1034C000BD028093BE029093BF020E9460151092CD
:1034D00071028091BC0280FF03C086950E943E1A53
:1034E00081E080936F020895ECEBF2E080818160CF
:1034F000808386950C943E1A0F931F93CF93DF938E
:1035000080917102882309F486C080917002E09155
:10351000BC02E695E81BE0936B02823091F5F0E087
:10352000E656FB4FE491CE2FD0E002E516E1809104
:103530006C02882361F010926C020E947A229093B0
:103540006A028093690210926E0210926D020E94CC
:103550007A22E0916902F0916A028E1B9F0B8F3FE5
:103560009F4708F058C0EC0FFD1FF0936A02E093EC
:10357000690289E692E0F801DF91CF911F910F91E6
:103580000994863049F4F0E0E956FB4FE491CE2FE0
:10359000D0E006E616E1CBCF893051F4E695F0E0B5
:1035A000EC56FB4FE491CE2FD0E000EA17E1BFCFFD
:1035B0008F3051F4E695F0E0EF56FB4FE491CE2FBB
:1035C000D0E00DED17E1B3CF853149F4F0E0E257DB
:1035D000FB4FE491CE2FD0E007E518E1A8CFC8E279
:1035E000D0E00AEC18E1883109F4A1CF833239F434
:1035F000ECE8F4E0C591D49106E716E198CFC4EF6A
:10360000D1E00AE519E1843209F491CFC0EDD7E0A9
:103610000AE415E18CCFDF91CF911F910F910895AE
:10362000FA01811101C0FB010994CF93DF93C82FE8
:10363000D62F0E94A6158C1740F00E94A6158D1754
:1036400020F4DF91CF910C941C1A8C2FDF91CF9135
:103650000C942C1A1F93CF93DF93EC01FB01128182
:10366000112309F4C0C00E94710E8272CC3CFCE5AB
:10367000DF0709F49CC008F044C0C63CECE5DE0757
:1036800009F481C0F0F4C33C9CE5D90709F471C08A
:1036900048F4C23CDC4509F469C0812FDF91CF9129
:1036A0001F910895C43C9CE5D90709F467C04EE515
:1036B00057E161E577E1C53CDC4579F70E94101BD5
:1036C00053C0C93CFCE5DF0709F467C068F4C73C98
:1036D000ECE5DE0709F45CC04DE657E16CE777E105
:1036E000C83CDC4559F3D9CFCA3C9CE5D90709F45D
:1036F00059C049ED55E162EC75E1CB3CDC45F1F296
:10370000CCCFC13DFCE5DF0709F462C098F4CE3CA4
:103710009CE5D90709F454C008F44EC0CF3CFCE541
:10372000DF0709F452C0C03DDC4509F0B6CF6EE0BA
:1037300089E048C0C43D9CE5D90709F44FC058F45E
:10374000C23DFCE5DF0709F446C0C33DDC4509F096
:10375000A4CF88E132C0C53D9CE5D90709F441C03A
:10376000CD35DD4509F099CF10E097CF0E94371A8B
:10377000FBCF49E25AE16CE17AE1A0CF4CE15AE19A
:1037800069E27AE19BCF41E557E16EE577E196CFBB
:103790004CE757E16DE677E191CF4AE957E16BE8F5
:1037A00077E18CCF4BE857E16AE977E187CF42ECCC
:1037B00055E169ED75E182CF81E00E942C1AD4CFEA
:1037C00065E082E00E94151BCFCF68E086E0FACF6B
:1037D00064E18FE0F7CF67E185E1F4CF62E289E150
:1037E000F1CF83E2EACF11E058CF6E9A4EB14F7B12
:1037F0005EB15064EFB7F8949B01220F331F260F80
:10380000371F280F391F2817390741F4EFBF8FE5FD
:1038100094E00197F1F700C000000895DC016D917C
:10382000CD0178E05EB9000000C067FF4EB9660FB9
:10383000000000C000C000C04EB900C07A9591F7EA
:10384000E2CF83E290E00E94E82A813289F484E2A8
:1038500090E00E94E82A893059F485E290E00E94C5
:10386000E82A91E0873109F090E0892F817008956E
:1038700080E0FCCFCF93C82F6FEF811161E283E22C
:1038800090E00E94FC2A6FEFC11169E084E290E0B1
:103890000E94FC2A6FEFC11167E185E290E0CF91B1
:1038A0000C94FC2A089586E290E00E94E82A682F92
:1038B00070E090E080E0089586E290E00C94FC2AAD
:1038C00080E00E943A1C60E070E0CB010E945C1C2A
:1038D0000E940A1E0E94F41E81E00C943A1C0E9471
:1038E000521C0E94211C811102C00C94601C08957E
:1038F000CF93FB01C281CC2309F19C0122513F45AA
:103900002031310520F582510E94041FC0E08C2F28
:10391000CF91089581E00E94140A43E062E081E0C3
:103920000E94AE04F3CF81E00E941F0A43E062E0F0
:1039300081E00E94AE04EBCF82E0F6CF8031FFE55C
:103940009F0789F381319F45B9F3C1E0E0CF803112
:10395000EFE59E07F9F281319F45C9F682E0DBCFA2
:103960002FEFFC0120830895CF93DF93EC01888132
:103970008138A9F028F4803871F0DF91CF91089553
:10398000823881F08338C9F70E94F11589830E943B
:10399000F4158A83F2CF0E94F7158983EECF0E9437
:1039A000A615FBCF0E94DC15F8CFCF93DF93EC0177
:1039B00088818138E1F028F4803869F0DF91CF9177
:1039C0000895823811F18338C9F70E94F715482FFE
:1039D0006A81898108C0D9810E94F415C82F0E948C
:1039E000F1154D2F6C2FDF91CF910C949D1789818C
:1039F0000E943E1A8981811104C0DF91CF910C94FD
:103A0000AF19DF91CF910C94741A8981DF91CF9116
:103A10000C94EE15EF92FF920F931F93CF93DF93C9
:103A2000EC01E62EDC01ED91CD01E150E33108F02F
:103A3000AEC0F0E0E05BF44D0C94842A198289E07A
:103A40008A836E2DCE01DF91CF911F910F91FF9050
:103A5000EF900C9452238981823069F0833071F0A9
:103A60008130E1F40E9486220E948A2A6A837B8345
:103A70008C839D83E6CF0E94531CF6CF8E01F12CE0
:103A80008F2D0E942C13F801828373836483F39437
:103A90000D5F1F4FF6E0FF12F3CFD3CF6E2DCE0197
:103AA0000E94B01CCECF89818230C1F76A817B81B0
:103AB0008C819D810E948A2A0E945C1CC2CF4B810E
:103AC0006A8189810E94DC1D9827892798279D8318
:103AD0008C83B7CF2C813D813227232732274B811E
:103AE0006A8189810E94F51DACCF0E940A1EA9CF70
:103AF0000E94D51CA6CF0E94B41CA3CF0E948C1597
:103B0000A0CF0E949F1E89839CCF0E94A11E982750
:103B1000892798279A83898394CF6B8170E0898164
:103B20009A81AE014C5F5F4F9827892798270E94A2
:103B3000A41E87CF6B8170E089819A81AE014C5FB2
:103B40005F4F9827892798270E94CA1E7ACF0E9424
:103B5000F41E77CF0E94CA1DD6CF6B8170E0898199
:103B60009A81AE014C5F5F4F9827892798270E9462
:103B7000421E67CF6B8170E089819A81AE014C5FF4
:103B80005F4F9827892798270E94681E5ACF8FEF8A
:103B9000888357CF84E0089550E0440F551F92E288
:103BA000699F400D511D11249CEC899F400D511DB2
:103BB0001124CA01879608950F931F93CF93DF9323
:103BC0000E94CC1D8C010E94E82AC82FD0E0DC2F77
:103BD000CC27C80101960E94E82A9E01282BC90122
:103BE000DF91CF911F910F9108950F931F93CF9362
:103BF000DF93122F032F0E94CC1DEC01602F0E9437
:103C0000FC2A612FCE010196DF91CF911F910F9178
:103C10000C94FC2AAF92BF92CF92DF92EF92FF9268
:103C20001F93CF93DF938CEAC82E80E0D82ED0E08C
:103C30007601C0E014C0F50125913491412F6C2F1D
:103C40008D2F0E94F51D82E0A80EB11C1F5F11315F
:103C500091F782E2E80EF11CCF5FC63019F05701F0
:103C600010E0E9CFDF5F8CECC80ED11CD43001F737
:103C7000DF91CF911F91FF90EF90DF90CF90BF9099
:103C8000AF900895EF92FF920F931F93CF93DF931E
:103C9000EC018A017C01E60EF71ECE018796CE1557
:103CA000DF0539F4DF91CF911F910F91FF90EF90D5
:103CB0000895C03323E0D20740F40E94E82AF801B7
:103CC00080830F5F1F4F2196E8CFF8011082F9CF54
:103CD000CF92DF92EF92FF920F931F93CF93DF93D8
:103CE0007C016A018C01060F171FEC01CE0187963B
:103CF000C017D10749F4DF91CF911F910F91FF9029
:103D0000EF90DF90CF900895C03323E0D20740F4C6
:103D1000FE01EE19FF09EC0DFD1D60810E94FC2AD9
:103D20002196E4CF462F843038F4763028F4613180
:103D300018F4672F0C94DC1D90E080E0089580E17A
:103D4000089589EA90E00895EF92FF920F931F93F0
:103D5000CF93DF93EC018A017C01E60EF71ECE01C2
:103D6000895A9C4FCE15DF0539F4DF91CF911F9111
:103D70000F91FF90EF900895C93AD10540F40E9449
:103D8000E82AF80180830F5F1F4F2196E8CFF801E2
:103D90001082F9CFCF92DF92EF92FF920F931F9391
:103DA000CF93DF937C016A018C01060F171FEC0192
:103DB000CE01895A9C4FC017D10749F4DF91CF91AA
:103DC0001F910F91FF90EF90DF90CF900895C93A27
:103DD000D10540F4FE01EE19FF09EC0DFD1D6081D7
:103DE0000E94FC2A2196E4CFCF93DF93C7E5D3E06E
:103DF00060E0CE010E94FC2A2196C11584E0D8071C
:103E0000B9F7DF91CF910895DF92EF92FF920F9370
:103E10001F93CF93DF9300D000D0CDB7DEB7F82E3D
:103E20008FE08F1540F08FEF93E00E94E82A07E5BE
:103E300013E08823C1F00F900F900F900F90DF9147
:103E4000CF911F910F91FF90EF90DF900895011592
:103E500084E0180781F3C8010E94E82A811101C09B
:103E6000FA940F5F1F4FF110F2CF19821A821B8252
:103E70001C82DD24D39478018FEFE81AF80AC80178
:103E80000E94E82A89831A828823A9F29FEF980F5B
:103E9000933078F48A83D9820E5F1F4FC7010E9446
:103EA000E82A8B83882339F2CE0101960E94080606
:103EB000E2CF8701F9CF0F931F93CF93DF93C42FE6
:103EC000D22FFC0182818823C9F0409374020E94A2
:103ED0007A22909373028093720280E28C0F883072
:103EE00008F050C0C77081E001C0880FCA95EAF79A
:103EF000DF91CF911F910F910C945607109174028E
:103F0000141335C080917202909173020E94922224
:103F1000883C910560F5C0E2CD0F1D17B9F080E235
:103F2000810F883040F4177081E001C0880F1A9526
:103F3000EAF70E945D07C83048F481E09D2F977032
:103F400001C0880F9A95EAF70E945607802F0E94B9
:103F50004E07C830B8F4D77081E001C0880FDA95F9
:103F6000EAF7DF91CF911F910F910C945D0780E2EA
:103F70008C0F883038F4C77081E001C0880FCA9573
:103F8000EAF7EFCFDF91CF911F910F9108950F9333
:103F90009C01CB01233F4CE5340759F1A8F4283D9F
:103FA000FCE53F0701F1293D4CE53407D1F1273D00
:103FB0003C4591F406E221EE41EE67ED7CE50E947E
:103FC0005B1F80E00F910895253FFCE53F07E9F076
:103FD000B0F0263F3C45F9F0FC018281882339F19D
:103FE00010927402EFCF07E225EE45EE68ED7CE516
:103FF000E6CF06E221EE40EE63EF7CE5E0CF07E29C
:1040000025EE44EE64EF7CE5DACF06E221EE42EEE7
:1040100065EF7CE5D4CF07E225EE46EE66EF7CE562
:10402000CECF08E221E045EE69ED7CE5C8CF81E026
:10403000C9CFCF93DF93EC01FB018281882309F480
:1040400019C1C230FCE5DF07C0F1C6319CE5D907D4
:1040500030F09E012A5F3C452930310570F50E9401
:10406000470F90938B0280938A02C031ECE5DE0704
:1040700009F4CFC008F05BC0C8308CE5D80709F45C
:10408000B6C088F5C430ECE5DE0709F4A8C0C0F47A
:10409000C2308CE5D80709F49CC080918A02826006
:1040A000C330DC4509F498C080918A0290918B025C
:1040B0000E94550F0E949B0980E0DF91CF910895E7
:1040C00080918A028061C630ECE5DE0709F484C085
:1040D00080918A028860C730DC4508F47DC08091F9
:1040E0008A02806279C0CC308CE5D80709F489C097
:1040F00070F480918A028C60CA30ECE5DE0709F426
:104100006BC008F478C080918A028E7F65C0CE3083
:104110008CE5D80709F479C080918A028B7FCF3073
:10412000DC4508F459C080918A028F7E55C0CB3F90
:10413000ECE5DE0709F457C030F5C3318CE5D8074C
:1041400009F46FC078F4C131ECE5DE0709F465C00D
:10415000C231DC4509F0A8CF0E949B0980918A02F8
:104160008F773AC0C5318CE5D80709F462C008F4EE
:1041700076C080918B028160CA3FDC4509F094CF04
:1041800080938B0291CFCF3FFCE5DF0709F44DC050
:1041900088F480918B028D7FCD3F9CE5D90781F318
:1041A00080918B028E7FCE3FDC4550F380918B0255
:1041B0008360E6CFC130FDE5DF0709F459C008F49C
:1041C00044C080E0C230DD4509F06ECF0E94DA0FB6
:1041D0006BCF80918A02816080938A0265CF809143
:1041E0008A028460F9CF80918B028260C9CF80916E
:1041F0008A028064F1CF0E949B0980918A028068C4
:10420000EBCF80918A028D7FE7CF80918A02877FF2
:10421000E3CF80918A028F7DDFCF80918A028F7BEE
:10422000DBCF80918A02837FD7CF80918B028C7FF6
:10423000A7CF80918A0282FB992790F921E09227EB
:1042400090FB82F990FB83F9C7CF80918B02982F66
:10425000909591708E7F892B90FB81F991CF0E9470
:104260009B0990918A02892F97FB87F98058B4CFD8
:1042700081E0ACCF81E021CFCF93DF93EB0186319A
:104280009C4511F50E94710E9A81992399F08A7AC2
:1042900091E009F490E090937502811109C089E2E0
:1042A0000E942B0E0E94C10E80E0DF91CF910895F5
:1042B00085E3F6CF80917502811104C089E20E94E6
:1042C000320EF0CF85E3FBCF81E0EFCF90937B02FE
:1042D00080937A020895E0917A02F0917B02309700
:1042E00021F00190F081E02D099480E00895E091A3
:1042F0007A02F0917B02309721F00280F381E02D69
:10430000099408952091780230917902281739078D
:1043100071F09093790280937802E0917A02F091A3
:104320007B02309721F00680F781E02D09940895F3
:1043300020917602309177022817390771F0909317
:10434000770280937602E0917A02F0917B023097B7
:1043500021F00084F185E02D099408959C012E5FE1
:104360003F4FAC01485F5F4F80E02417350709F4E9
:104370000895F90191919F019923B9F38F5FF5CFCA
:10438000662349F0FC01329608962191261729F000
:10439000E817F907D1F780E0089581E008959C01BE
:1043A000FC0132969FEF80E04191461751F09F3F0C
:1043B00019F4411101C0982F8F5F8630A9F79F3FF4
:1043C00009F40895290F311D97FD3A95F90162838B
:1043D0000895FC01329608962191261303C0DF014F
:1043E00011971C92E817F907B9F708950C94CF219B
:1043F0000C94E921029626E0FC0111922A95E9F736
:10440000089508958091D103843031F10E94BF0452
:1044100010927C0288E190E020E40FB6F894A89511
:10442000809360000FBE2093600083B7817F84601B
:1044300083BF83B7816083BF7894889583B78E7F6D
:1044400083BF0FB6F894A89580916000886180932F
:104450006000109260000FBE089508950895CF93F4
:104460000E942D220E9420140E942E22C0E08C2F38
:104470000E942C13672B682B692B31F4CF5FC63059
:10448000B1F780E0CF91089581E0FCCF0E949B09B5
:104490000C9434051F921FB61F9211248F939F9383
:1044A000AF93BF9380917C02811113C08091C903A7
:1044B0009091CA03A091CB03B091CC034196A11D6A
:1044C000B11D8093C9039093CA03A093CB03B0930B
:1044D000CC03BF91AF919F918F911F901FBE1F90F2
:1044E000189582E084BD93E095BD9AEF97BD8093C7
:1044F0006E0008952FB7F8948091C9039091CA0374
:10450000A091CB03B091CC032FBF08952FB7F8949F
:104510006091C9037091CA038091CB039091CC0341
:104520002FBF08959C014FB7F8948091C9039091D3
:10453000CA03A091CB03B091CC034FBF821B930B56
:10454000089578941F921FB61F9211248F939F9302
:10455000AF93BF938091C9039091CA03A091CB03FD
:10456000B091CC030196A11DB11D8093C903909316
:10457000CA03A093CB03B093CC03BF91AF919F919B
:104580008F911F901FBE1F90189581E08093E000CF
:1045900080E28093D8001092C9008FE19EE40197D9
:1045A000F1F700C0000087E090EBDC018093DA03B4
:1045B0009093DB03A093DC03B093DD0388E19CE0E0
:1045C0000FB6F894A895809360000FBE909360009A
:1045D000FFCF9093D1018093D001089580918802FC
:1045E00008950895CF93DF93EC0181E08093E90073
:1045F0008FEF9091E800815095FD06C095ED9A955A
:10460000F1F700008111F5CF8091E80085FF14C01B
:1046100050E040E068E070E0CE010E944C258091BF
:10462000E8008E778093E80088E0FE01A0E8B2E021
:1046300001900D928A95E1F7DF91CF9108958093D3
:104640007D0270937F0260937E028091D10384305B
:10465000F9F48093E9008FEF9091E800815095FD87
:1046600006C095ED9A95F1F700008111F5CF809184
:10467000E80085FF0DC050E040E063E070E08DE7AA
:1046800092E00E944C258091E8008E778093E800AC
:104690000895BC0184E00C941F23BC0183E00C94BA
:1046A0001F230895CF93FC01603221F58091D1033F
:1046B000843001F5C091E900CF702091EC00922F79
:1046C000917020FD90E8C92B82E08093E9008091F1
:1046D000E80080FF0CC050E040E060E270E0CF01F5
:1046E0000E944C258091E8008E778093E800CF707F
:1046F000C093E900CF9108958091D003811109C042
:104700000E942B270E9488278091E200846080937A
:10471000E20008951092D003089508950895089531
:1047200042E061EC81E00E94A72642E261EC84E075
:104730000E94A72642E261EC82E00E94A72642E2A4
:1047400060EC83E00C94A7268091D303833009F4B6
:1047500062C030F48130D9F1823009F49EC00895EE
:104760008A3009F48AC08B3009F470C0893009F0AE
:1047700051C08091D203813209F04CC08091D603A0
:104780009091D703009719F0029709F043C08091E8
:10479000E800877F8093E8008091E80082FF36C0C0
:1047A0009091F3008091F200029731F48091F10032
:1047B000813011F0863021F48091F10080938802DD
:1047C0008091E8008B778093E8000C94DB26809141
:1047D000D203813AF9F48091E800877F8093E80062
:1047E0008091D6039091D703892B61F468E080E82B
:1047F00092E070E00E94EA258091E8008B77809338
:10480000E800089560E090E080E0F3CF8091D1036C
:104810008111C2CF08958091D203813AD9F7809156
:10482000D6039091D703892BA9F78091E800877F61
:104830008093E8008091E80080FFFCCF8091210107
:104840008093F1008091E8008E77BDCF8091D203F4
:10485000813201F78091D6039091D703892BD1F64D
:104860008091E800877F8093E8000E94DB2680919A
:10487000D403809321010C949B098091D20381324F
:1048800049F68091E800877F8093E8000E94DB264C
:104890008091D5038093890208958091D203813A53
:1048A00009F0B8CF8091E800877F8093E80080917D
:1048B000E80080FFFCCF80918902C2CF84B7877F58
:1048C00084BF0FB6F894A8958091600088618093AA
:1048D0006000109260000FBE80E890E00FB6F89480
:1048E00080936100909361000FBE0C9400100E94B1
:1048F0002B270E948827E2EEF0E08081846080838D
:1049000078940E94112A0E94141085E191E00C9481
:104910006621CF93DF93CDB7DEB7A0970FB6F8949B
:10492000DEBF0FBECDBF8091D103853031F48091C1
:10493000D103853091F10E9446220E941E10809181
:10494000D103843009F583E08093E9008091E80089
:1049500082FF1AC08091E80090E085FF09C050E016
:1049600040E060E270E0CE0101960E949B2591E05C
:104970008091E8008B778093E800992329F060E22A
:10498000CE0101960E940A1DA0960FB6F894DEBFD4
:104990000FBECDBFDF91CF9108950E94022280917A
:1049A000CF03882321F20E942F22882309F4BFCF4E
:1049B0000E9436250E949B09BACF0C94DF24292F30
:1049C00033272330310521F168F42130310509F412
:1049D00043C02230310509F444C090E080E030E06B
:1049E00020E026C02132310551F122323105A9F7EC
:1049F0006330710590F7FB01EE0FFF1FED53FE4F83
:104A00002081318160547E4FFB01808190E010C095
:104A100099278130910581F0009729F00297E9F6F6
:104A2000E3EAF6E002C0E7EEF6E0849190E09F0151
:104A3000FA01318320830895E9ECF6E0F6CF633084
:104A4000710558F6660F771FFB01E753FE4F208173
:104A5000318189E090E0ECCF82E190E026E437E01C
:104A6000E7CF8BE590E02BEE36E0E2CF80E189BD29
:104A700082E189BD09B400FEFDCF8091D8008F7D11
:104A80008093D8008091E00082608093E000809164
:104A9000E00081FDFCCF0895AF92BF92CF92DF92EC
:104AA000FF920F931F93CF93DF936C01EB018A0169
:104AB0000E94FA26F82E811123C00115110539F044
:104AC000F80180819181C81BD90BC80ED91EB12C69
:104AD000A12C2097A9F08091E80085FD22C080914B
:104AE000E8008E778093E80001151105A1F0F80128
:104AF00080819181A80EB91EB182A08285E0F82E36
:104B00008F2DDF91CF911F910F91FF90DF90CF906C
:104B1000BF90AF9008950E94FA268823D1F2F82E14
:104B2000EFCFF60181916F018093F1002197FFEFA4
:104B3000AF1ABF0ACECFAF92BF92CF92DF92FF9251
:104B40000F931F93CF93DF936C01EB018A010E94B7
:104B5000FA26F82E811123C00115110539F0F8014C
:104B600080819181C81BD90BC80ED91EB12CA12CF4
:104B70002097A9F08091E80085FD22C08091E8008F
:104B80008B778093E80001151105A1F0F801808171
:104B90009181A80EB91EB182A08285E0F82E8F2DDA
:104BA000DF91CF911F910F91FF90DF90CF90BF9039
:104BB000AF9008950E94FA268823D1F2F82EEFCF05
:104BC0008091F100F60181936F012197FFEFAF1AF9
:104BD000BF0ACECFFC018091D8039091D9038617EC
:104BE0009707A0F06115710529F49091E8009E7770
:104BF0009093E80090E06115710551F4911108C09F
:104C00008091E80082FF34C080E00895BC01F2CFBB
:104C10008091D1038823C1F18530C1F18091E800F2
:104C200083FD30C08091E80082FDEACF8091E800EA
:104C300080FFE1CF8091F3002091F200382F6115C1
:104C4000710519F02830310558F091E02830310510
:104C500009F090E02091E8002E772093E800CBCF78
:104C600081918093F100615071092F5F3F4FE7CF31
:104C70008091D103882341F0853041F08091E80094
:104C800083FFBECF81E0089582E0089583E0089518
:104C9000FC018091D8039091D90386179707A0F063
:104CA0006115710529F48091E8008E778093E80002
:104CB00090E06115710551F4911108C08091E800F0
:104CC00082FF35C080E00895BC01F2CF8091D1030E
:104CD0008823C9F18530C9F18091E80083FD31C096
:104CE0008091E80082FDEACF8091E80080FFE1CF6B
:104CF0008091F3002091F200382F6115710519F0B1
:104D00002830310558F091E02830310509F090E065
:104D10008091E8008E778093E800CBCF84918093D8
:104D2000F1003196615071092F5F3F4FE6CF8091BE
:104D3000D103882341F0853041F08091E80083FF62
:104D4000BDCF81E0089582E0089583E00895982F13
:104D5000973028F08F708093E90081E00895909358
:104D6000E900242F762F50E0981731F07091EC0075
:104D70002091ED005091F00021FD02C09F5FE8CF2F
:104D80003091EB003E7F3093EB003091ED003D7FA2
:104D90003093ED003091EB0031603093EB00709375
:104DA000EC002093ED005093F0002091EE0027FDE1
:104DB000E5CF80E008958091D20387FF13C08091F2
:104DC000E80082FF06C08091E8008B778093E800BE
:104DD00004C08091D1038111F2CF08958091D10355
:104DE0008823D9F38091E80080FFF8CF8091E80014
:104DF0008E77ECCF2091E4003091E50095E6A90193
:104E00002091EC00822F817020FF06C08091E80085
:104E100080FF06C080E008952091E80022FD1AC0BE
:104E20008091D103882389F0853089F08091EB004F
:104E300085FD0FC02091E4003091E5004217530733
:104E4000F9F29150E1F684E0089582E0089583E05C
:104E5000089581E008950E9499270E94A127E0EE1D
:104E6000F0E0808181608083E8EDF0E080818F77E1
:104E7000808319BCA7EDB0E08C918E7F8C938081EC
:104E80008F7E80831092D00308950F931F93CF934A
:104E9000DF930E9499270E94A127C8EDD0E0888166
:104EA0008F77888388818068888388818F7D8883D5
:104EB00019BC1092D1031092CD031092CF0310921F
:104EC000CE0300EE10E0F80180818B7F8083888123
:104ED0008160888342E060E080E00E94A726E1EEE6
:104EE000F0E080818E7F8083E2EEF0E0808181605F
:104EF0008083808188608083F80180818E7F8083B9
:104F0000888180618883DF91CF911F910F910895EF
:104F1000E8EDF0E080818F7E8083E7EDF0E0808136
:104F20008160808384E082BF81E08093D0030C9411
:104F30004527E8EDF0E080818E7F80831092E200CB
:104F400008951092DA001092E10008951F920F92D6
:104F50000FB60F9211242F933F934F935F936F934C
:104F60007F938F939F93AF93BF93EF93FF93809122
:104F7000E10082FF0BC08091E20082FF07C08091B8
:104F8000E1008B7F8093E1000E94102A8091DA007B
:104F900080FF19C08091D80080FF15C08091DA0091
:104FA0008E7F8093DA008091D90080FF96C080E1E7
:104FB00089BD82E189BD09B400FEFDCF81E0809307
:104FC000D1030E947C238091E10080FF19C0809171
:104FD000E20080FF15C08091E2008E7F8093E200A6
:104FE0008091E20080618093E2008091D80080622D
:104FF0008093D80019BC85E08093D1030E948E2352
:105000008091E10084FF2BC08091E20084FF27C0E3
:1050100080E189BD82E189BD89B5982F917080FFBB
:10502000FBCF8091D8008F7D8093D8008091E100E4
:105030008F7E8093E1008091E2008F7E8093E2007A
:105040008091E20081608093E2008091CD0388230B
:1050500009F449C084E08093D1030E948F2380919A
:10506000E10083FF29C08091E20083FF25C0809189
:10507000E100877F8093E10082E08093D10310926A
:10508000CD038091E1008E7F8093E1008091E2006A
:105090008E7F8093E2008091E20080618093E20045
:1050A00042E060E080E00E94A7268091F0008860E6
:1050B0008093F0000E948D23FF91EF91BF91AF91FB
:1050C0009F918F917F916F915F914F913F912F9120
:1050D0000F900FBE0F901F90189519BC1092D1031E
:1050E0000E948A2370CF8091E30087FD93E0909324
:1050F000D103B3CF1F920F920FB60F9211242F93AB
:105100003F934F935F936F937F938F939F93AF934F
:10511000BF93CF93DF93EF93FF93D091E900DF70BC
:105120008091EC00C82FC17080FDC0E81092E900AA
:105130008091F000877F8093F00078940E94BE28D1
:105140001092E9008091F00088608093F000CD2BF0
:10515000CF70C093E900FF91EF91DF91CF91BF91A4
:10516000AF919F918F917F916F915F914F913F91FF
:105170002F910F900FBE0F901F9018951F93CF93F4
:10518000DF93CDB7DEB7AA970FB6F894DEBF0FBE98
:10519000CDBF82ED93E02091F100FC012193CF017E
:1051A000F3E08A3D9F07B9F70E94A4238091E800AD
:1051B00083FF1EC18091D2039091D3039A3008F0EF
:1051C00017C1E92FF0E0ED59F44D0C94842A803892
:1051D00099F0823809F00CC18091D6038F70873026
:1051E00008F006C18093E9008091EB0085FB8827D9
:1051F00080F91092E90006C08091CE039091CF0310
:10520000911182609091E800977F9093E8008093DD
:10521000F1001092F1008091E8008E77E5C08823BC
:1052200009F4D3C0823009F0E3C08091D403811126
:10523000D6C08091D6038F702FEF280F263008F04C
:10524000D7C08093E9002091EB0020FFC8C09330C5
:1052500031F48091EB0080628093EB00C0C09091AC
:10526000EB0090619093EB0021E030E001C0220F51
:105270008A95EAF72093EA001092EA008091EB0009
:105280008860EACF8111B4C01091D4031F77809158
:10529000E3008078812B8093E3008091E800877F92
:1052A0008093E8000E94DB268091E80080FFFCCF1D
:1052B0008091E30080688093E30082E0111183E035
:1052C0008093D10395C08058823008F091C08091BE
:1052D000D4039091D5038C3D23E09207A1F583E0A0
:1052E0008A838AE289834FB7F894DE01139620E01F
:1052F0003EE051E2E32FF0E050935700E49120FFAD
:1053000003C0E295EF703F5FEF708E2F90E0EA30C0
:10531000C0F0C7968D939D932F5F243159F74FBFEF
:105320008091E800877F8093E8006AE270E0CE0118
:1053300001960E94EA258091E8008B778093E8002F
:1053400057C0C096E7CF6091D6037091D703AE01E6
:105350004F5F5F4F0E94DD24BC01892B09F448C0D8
:105360009091E800977F9093E80089819A810E944C
:105370004826E1CF8038E1F58091E800877F80936F
:10538000E8008091CD038093F10045CF811130C0BA
:105390009091D403923060F58091E800877F8093EC
:1053A000E8009093CD030E94DB268091CD038823F3
:1053B00011F084E005C08091E30087FDFACF81E021
:1053C0008093D1030E94902313C08091D403813035
:1053D00079F481E0933009F080E08093CF0310925C
:1053E000E9008091E800877F8093E8000E94DB2637
:1053F0008091E80083FF0AC08091E800877F809356
:10540000E8008091EB0080628093EB00AA960FB6D3
:10541000F894DEBF0FBECDBFDF91CF911F910895ED
:105420000895CF938091D1038823A1F0C091E90022
:10543000CF709091EC00892F817090FD80E8C82B8F
:105440001092E9008091E80083FD0E94BE28CF7091
:10545000C093E900CF91089587FB082E062687FDAB
:10546000819567FD61950E94C22A0EF4919507FC13
:1054700081950895AA1BBB1B51E107C0AA1FBB1F42
:10548000A617B70710F0A61BB70B881F991F5A95D0
:10549000A9F780959095BC01CD01089597FB072E43
:1054A00016F4009407D077FD09D00E943A2A07FC31
:1054B00005D03EF4909581959F4F08957095619524
:1054C0007F4F0895A1E21A2EAA1BBB1BFD010DC040
:1054D000AA1FBB1FEE1FFF1FA217B307E407F507A4
:1054E00020F0A21BB30BE40BF50B661F771F881F80
:1054F000991F1A9469F760957095809590959B0116
:10550000AC01BD01CF010895EE0FFF1F0590F4918E
:10551000E02D099469279627692778278727782718
:1055200008950E94992A332312F48A1B9B0B0C9432
:10553000AA2AA29FB001B39FC001A39F700D811D35
:105540001124911DB29F700D811D1124911D08958C
:105550000E94992AB7FF0895821B930B08950E9419
:10556000992AA59F900DB49F900DA49F800D911D29
:1055700011240895B7FF0C94AF2A0E94AF2A821B12
:10558000930B0895991B79E004C0991F961708F0B2
:10559000961B881F7A95C9F780950895FC014150A4
:1055A000504030F001900616D1F73197CF010895A1
:1055B000882799270895FB01DC0104C08D91019093
:1055C000801921F441505040C8F7881B990B089569
:1055D000F999FECF92BD81BDF89A992780B50895BB
:1055E000A6E1B0E044E050E00C94222BA8E1B0E04A
:1055F00042E050E00C94222B262FF999FECF92BD69
:1056000081BDF89A019700B4021639F01FBA20BD87
:105610000FB6F894FA9AF99A0FBE08950396272FB9
:105620000E94FD2A0E94FC2A252F0E94FD2A242F79
:105630000C94FD2A0196272F0E94FD2A0C94FC2A27
:10564000DC01CB01FC01F999FECF06C0F2BDE1BD42
:10565000F89A319600B40D9241505040B8F7089531
:10566000F894FFCF98079807F007F0074208C5079E
:10567000C507C5075E08C508D408D4083009C507A2
:10568000C5073909AA09AA09B309B309B509B309B4
:10569000B309B309AA09AA09BA09B309B309BA092E
:1056A0001E1D2B1D531D5F1D6A1D751D781D7B1D45
:1056B0007E1DC71DC71D811D851D8D1D9A1DA71D22
:1056C000AA1DAD1DBA1DE7280F29F8290F29F829B1
:0A56D00042296329F829BA29C629E6
:1056DA003602010102005800585801191A1B1C1DF4
:1056EA001E1F202122EE22F22251234D234923F1AB
:1056FA002201E200E900EA00B500B600B700CD00D9
:10570A008301CC008A01920194012102230224021E
:10571A002502260227022A02B300B4006F00700095
:10572A00818283E200E900EA00B500B600B700CD45
:10573A00008301CC008A01920194012102230224F0
:10574A00022502260227022A02B300B4006F007063
:10575A000081828330313233F4F5F6F736359734E7
:10576A0096F0916694939237F167950001020202CE
:10577A00020606060909090909090F0F0F0F0F0F7B
:10578A001515151819191919191919191919232477
:10579A00402232AC0758077A07FD0616073607007B
:00000001FF
