:100000000C9496020C94CE020C94CE020C94CE0268
:100010000C94CE020C94CE020C94CE020C94CE0220
:100020000C94CE020C94CE020C94D1270C94A528EB
:100030000C9470220C94CE020C94CE020C94CE023E
:100040000C94CE020C94CE020C94CE020C94CE02F0
:100050000C94CE020C94C7220C94CE020C94CE02C7
:100060000C94CE020C94CE020C94CE020C94CE02D0
:100070000C94CE020C94CE020C94CE020C94CE02C0
:100080000C94CE020C94CE020C94CE020C94CE02B0
:100090000C94CE020C94CE020C94CE020C94CE02A0
:1000A0000C94CE020C94CE020C94CE02A800AA00AE
:1000B000A900AE00AC00AB00015106011901C25C01
:1000C000C45CC35C0100CE5CCF5C01000100005C3D
:1000D0000100010001000100010001000100010018
:1000E0000100010001000100010001000100010008
:1000F0000100010000000000000000002A2B280081
:1001000000000000000000000000000000000029C6
:10011000000000002C1E3420212224342627252E06
:10012000362D3738271E1F2021222324252633333E
:10013000362E37381F0405060708090A0B0C0D0E6A
:100140000F101112131415161718191A1B1C1D2F36
:100150003130232D350405060708090A0B0C0D0E56
:100160000F101112131415161718191A1B1C1D2F16
:100170003130354C0000000000000000000000009D
:10018000000000000000000000000000000000006F
:1001900000000000000000007E0F00D4FFFFFFC73A
:1001A0000000007800047F3F1F643214643214782A
:1001B0003C1E1E140A052223252628292A2C2D2F11
:1001C0003032333536383A3B3D3E4042434547496D
:1001D0004A4C4E5051535557595A5C5E60626466A2
:1001E00068696B6D6F71737577797B7D7F818385AE
:1001F00087898A8C8E90929496989A9C9E9FA1A3B0
:10020000A5A7A8AAACAEAFB1B3B4B6B8B9BBBCBED3
:10021000BFC1C2C3C5C6C7C9CACBCCCDCED0D1D24F
:10022000D2D3D4D5D6D7D7D8D9D9DADADBDBDBDC51
:10023000DCDCDCDCDDDDDDDDDCDCDCDCDCDBDBDBFD
:10024000DADAD9D9D8D7D7D6D5D4D3D2D2D1D0CE5D
:10025000CDCCCBCAC9C7C6C5C3C2C1BFBEBCBBB962
:10026000B8B6B4B3B1AFAEACAAA8A7A5A3A19F9EE0
:100270009C9A98969492908E8C8A89878583817FA8
:100280007D7B79777573716F6D6B69686664626089
:100290005E5C5A5957555351504E4C4A4947454355
:1002A00042403E3D3B3A3836353332302F2D2C2AF2
:1002B000292826252322FFAA7F554000010101019C
:1002C0000101010101020202020202020202030311
:1002D00003030303030304040404040404050505E1
:1002E00005050606060606070707070708080808A3
:1002F000090909090A0A0A0B0B0B0C0C0C0D0D0D50
:100300000E0E0E0F0F0F10101111111212131314E5
:1003100014151516161717181819191A1A1B1B1C5D
:100320001D1D1E1E1F2020212222232424252626B7
:10033000272829292A2B2C2D2D2E2F3031323233EC
:100340003435363738393A3B3C3D3E3F40414243F5
:100350004445464748494A4C4D4E4F5051535455D9
:100360005658595A5B5D5E5F616264656668696B89
:100370006C6D6F7072737577787A7B7D7E80828307
:100380008587888A8C8E8F91939596989A9C9EA04B
:10039000A2A3A5A7A9ABADAFB1B3B5B7BABCBEC058
:1003A000C2C4C6C9CBCDCFD1D4D6D8DBDDDFE2E421
:1003B000E7E9EBEEF0F3F5F8FAFDFF0E034B006111
:1003C000007700690069003900000010034B0069E4
:1003D00000770069004B0065007900000004030904
:1003E0000409025B00030100A0FA090400000103F4
:1003F00001010009211101000122400007058103CC
:100400000800010904010002030000000921110194
:1004100000012222000705820320000107050303D3
:10042000200001090402000103000000092111015C
:100430000001227B00070584032000011201000255
:1004400000000008574B0303020001020001066090
:10045000FF0961A1010962150026FF0095207508BA
:1004600081020963150026FF00952075089102C0DE
:1004700005010902A10185020901A100050919016F
:10048000290815002501950875018102050109302B
:1004900009311581257F9502750881060938158176
:1004A000257F950175088106050C0A3802158125FE
:1004B0007F950175088106C0C005010980A10185ED
:1004C0000319012AB700150126B70095017510819F
:1004D00000C0050C0901A101850419012AA002151B
:1004E0000126A002950175108100C005010906A131
:1004F00001050719E029E715002501950875018117
:10050000029501750881010507190029FF150026CC
:10051000FF00950675088100050819012905950554
:1005200075019102950175039101C00011241FBE50
:10053000CFEFDAE0DEBFCDBF04B603FE18C0809176
:100540008C0290918D02A0918E02B0918F02873023
:10055000904BA740B04B59F410928C0210928D0230
:1005600010928E0210928F02E0E0F8E3099511E0FC
:10057000A0E0B1E0E4EFF6E502C005900D92A83CE2
:10058000B107D9F722E0A8ECB1E001C01D92AC3868
:10059000B207E1F70E9469120C94412B0C94000001
:1005A00081E0089581E008950C94D20208950C949E
:1005B000D6021F93CF93DF9300D000D00F92CDB718
:1005C000DEB749835A836B833091CB0189819A814D
:1005D00031111DC06623B9F02223A9F00E946809D9
:1005E000182F682F89819A810E94130969817A8165
:1005F000812F0F900F900F900F900F90DF91CF9160
:100600001F910C94F01F0E944009182FEFCF0E94F9
:10061000680969817A81EDCFFC01262F40815181E3
:100620006281738184810C94D90281E00895CF9313
:10063000DF93EC0160E00E940C03BE01DF91CF91DB
:100640000C94D702E1E0F0E0DF0102C0AA0FBB1F6B
:100650006A95E2F7BD01DF0102C0AA0FBB1F4A95F0
:10066000E2F76A2B01C0EE0F2A95EAF7962F98233E
:10067000961302C08E2B0895E0958E230895242FA3
:10068000462F682F8091D2010E9422030C94D0083B
:100690000E9412110E949E040C942D110C94301192
:1006A000089508950E9468080E9451032FEF84E383
:1006B0009CE0215080409040E1F700C000000C9485
:1006C000EB220F931F93CF93DF938C0161E00E9485
:1006D0000C03EC01B8010E94A41C882309F441C05A
:1006E000B801CE010E94D4028823D9F1B801CE010D
:1006F0000E9451218823A9F1B801CE010E94ED1D6D
:10070000882379F1B801CE010E94BB20882349F1EA
:10071000B801CE010E94591B882319F1F80182818A
:10072000882361F0CA35FDE5DF0721F170F4C115BA
:10073000ECE5DE07A1F0CE3DDC45C9F0C801DF9154
:10074000CF911F910F910C94D002CB358DE5D80736
:10075000A1F0CC35DD4591F70E94940DEFCF0E94BA
:10076000520380E0DF91CF911F910F9108950E9475
:100770004D0EF7CF0E949D0DE1CF0E94A00DDECF60
:100780000C9450030E94A7040C94C003DF92EF92D4
:10079000FF920F931F93CF93DF93E82FF0E0EC507D
:1007A000FF4FD490282F26952695269530E0F90105
:1007B000EC56FE4F0491877010E0082E02C015958C
:1007C00007950A94E2F701701127F901EC57FE4FE3
:1007D000E490F12C082E02C0F594E7940A94E2F715
:1007E00091E0E922FF24F901EC58FE4FC491D0E0DA
:1007F00002C0D595C7958A95E2F7C170DD2701152E
:10080000110519F081EE0E94F904E114F10419F0C8
:1008100086EE0E94F9048D2D0E94F805EF2819F04C
:1008200086EE0E948B05012B19F081EE0E948B054C
:10083000CD2B51F08CE2DF91CF911F910F91FF9062
:10084000EF90DF900C94F805DF91CF911F910F91FD
:10085000FF90EF90DF900895EF92FF920F931F9318
:10086000CF93DF93EC01162F0AE08881882309F4E7
:1008700054C0813009F04EC08981813099F47E01E5
:1008800022E0E20EF11C8A810E94F805E701219620
:10089000812F815050F3EFE9FFE03197F1F700C06D
:1008A0000000F7CF823041F47E0182E0E80EF11CB7
:1008B0008A810E94F904EACF833041F47E01E2E0AC
:1008C000EE0EF11C8A810E948B05E0CF843011F07E
:1008D0002196DDCF2A81229690E080E0AE014F5F25
:1008E0005F4F2053330B2A30310548F0019778F2DF
:1008F000EFE9FFE03197F1F700C00000F7CF089F64
:10090000B001099F700D1124C901860F971F29811D
:10091000EA01E4CF0E94C603BACFDF91CF911F91C5
:100920000F91FF90EF90089560E00C942C040895CF
:100930000C94970481E008950C949A040895CF9341
:10094000C82F0E9498048C2FCF910C949C040E9475
:10095000AD210C949F040E94AD219091CA0198177B
:1009600021F08093CA010C949F040895CF93DF93E4
:10097000CDB7DEB72B970FB6F894DEBF0FBECDBF55
:100980004F83588769877A878B8761110E94D60CBD
:100990001E821D8285E0FE013796DE0111960190D0
:1009A0000D928A95E1F78C819D81892B89F449818B
:1009B0005A816B817C818D819E810E94F70B2B96E1
:1009C0000FB6F894DEBF0FBECDBFDF91CF91089573
:1009D00089819A8189238F3F51F3CE0101960E942C
:1009E00015038111E4CFEBCFFC01808191810C9440
:1009F0009509CF93C82F882309F48BC08238C1F49E
:100A00000E94AD2181FD85C089E30E94910C0E9466
:100A1000F90C2FEF81EE94E0215080409040E1F7F7
:100A200000C0000089E30E94980CCF910C94F90C4F
:100A30008338A1F40E94AD2180FD6BC083E50E9444
:100A4000910C0E94F90C2FEF81EE94E02150804030
:100A50009040E1F700C0000083E5E5CF8438A1F4C1
:100A60000E94AD2182FD55C087E40E94910C0E9436
:100A7000F90C2FEF81EE94E0215080409040E1F797
:100A800000C0000087E4CFCF8CEF8C0F813A90F448
:100A90006C2F80910201909103010E941022882303
:100AA00029F08C2F0E94980C0E94F90C8C2F0E9428
:100AB000910CBBCF80E28C0F883048F4C77081E086
:100AC00001C0880FCA95EAF70E94B90CAECFEBE5DA
:100AD000EC0FE33040F4F0E0E65AFE4F808190E006
:100AE000CF910C94D221E8E5EC0FE73150F4F0E01F
:100AF000EE0FFF1FE45DFE4F80819181CF910C943A
:100B0000E821C03F30F08C2F0E94ED12CF910C9461
:100B1000C013CF910895882309F452C0823871F42C
:100B20000E94AD2181FF4CC089E30E94910C0E947C
:100B3000F90C89E30E94980C0C94F90C833859F451
:100B40000E94AD2180FF3CC083E50E94910C0E9471
:100B5000F90C83E5EFCF843859F40E94AD2182FF70
:100B60002FC087E40E94910C0E94F90C87E4E2CF29
:100B70009CEF980F913AF0F290E2980F983050F471
:100B8000877091E001C0990F8A95EAF7892F0E943A
:100B9000BF0CD2CF9BE5980F933020F490E080E01B
:100BA0000C94D22198E5980F973120F490E080E0E2
:100BB0000C94E821803F20F00E9447130C94C0134E
:100BC00008951F93CF93DF93182FEB010E94F90430
:100BD000209731F4812FDF91CF911F910C948B05D9
:100BE0008FE99FE00197F1F700C000002197F0CF57
:100BF00070E060E0893311F460E570E00C94E10589
:100C0000882321F00E94B90C0C94F90C08958823D4
:100C100021F00E94BF0C0C94F90C0895BF92CF9262
:100C2000DF92EF92FF920F931F93CF93DF936C01AC
:100C3000D62FC72FFC011281F580F2949FE0F92294
:100C40000E94AF0CE82E8823B9F0E12E1123A1F009
:100C50008C2F807F803421F080E28D0F8830D0F09F
:100C60008091630282FD16C082E00E94630D0E94A3
:100C7000AF0C91E0E82EE926BC2EB2948FE0B822AA
:100C8000FBE0FB1508F468C0EB2DF0E0ED5BF44DE4
:100C90000C94A12AE12CF0CF0C2F0F70C07F11F023
:100CA0000295007F112399F0002359F080E28D0F07
:100CB000883010F0D11107C0802F0E94B90C0E941B
:100CC000F90C8D2F41C0802F0E94C90CF8CF8D2FB9
:100CD0000E948B05002309F43FC080E28D0F88300D
:100CE00010F0D11104C0802F0E94BF0C03C0802FD0
:100CF0000E94CF0C0E94F90C2FC00C2F0F70C07FE8
:100D0000C03211F00295007FDD2381F0D13009F46B
:100D100069C0112309F473C0FF2009F469C0F6010A
:100D2000858180FFCECF8F70858362C08091630202
:100D300082FF38C0112359F0002329F0802F0E9430
:100D4000B90C0E94F90C80E00E94F90405C080E013
:100D50000E948B050111C7CFEB2DE850FF0B349794
:100D600020F40E94AD210E949F04EE2009F44DC1A1
:100D70000E94AB0C80FD49C1F60112820E94A50CB5
:100D80000E94E108C6010E9426080E94A50CDF917E
:100D9000CF911F910F91FF90EF90DF90CF90BF9078
:100DA0000C94EC08112389F0F11006C00E94DC0CB1
:100DB000802B0E940006D0CF21E0F212F7CF0E94D4
:100DC000DC0C802B0E94E20CC7CFF11006C00E9401
:100DD000EF0C802F0E940706BFCF31E0F31609F415
:100DE000BBCFF5CF112331F085E08F1508F4B4CFD8
:100DF000802FDFCF94E09F1508F4AECFEACFFF201D
:100E000041F3D93349F4FFEF27EE33E0F1502040AE
:100E10003040E1F700C000008D2F0E948B059CCF71
:100E20008C2F86958695837069F0813009F094CF78
:100E30008D2F9C2F9370111102C090E080E00E94D2
:100E4000E8218ACF8D2F9C2F9370111102C090E062
:100E500080E00E94D22180CF8D2F112329F00E94A3
:100E6000ED120E94C01378CF0E944713FACF8C2F47
:100E7000837079F5111170CF4D2F429546954770CB
:100E8000440F440F8D2F8F70042E01C0880F0A94D9
:100E9000EAF72D2F2071D4FF07C02FE030E001C00A
:100EA000220F4A95EAF72095C695C695C370822B06
:100EB000C23049F058F4C13019F00E94C2084CCF3A
:100EC0000E94BD0849CF0E94C70846CF0E94BB08B8
:100ED00043CF8695112311F08C2F8170882309F45C
:100EE0003BCF4D2F429546954770440F440F8D2FB1
:100EF0008F70042E01C0880F0A94EAF72D2F2071FD
:100F0000D4FF07C02FE030E001C0220F4A95EAF776
:100F10002095C695C695C370822BC23049F058F40F
:100F2000C13019F00E94080917CF0E94030914CF9D
:100F30000E940D0911CF0E94D0080ECFCF7011234F
:100F400029F08C2F0E94E1088D2F33CF8D2F0E9426
:100F500007068C2F0E94EC08FFCED23F51F160F4BF
:100F6000D03FB9F0D13F81F0112309F449C0F1100D
:100F7000A8CE8C2F8F7121C0D33F11F1D43FA1F7A0
:100F80008091630282FF26C08C2F8F71112311F391
:100F900014C0112349F084E08F1508F4DDCE8C2FA6
:100FA0008F710E94F808D8CE95E09F1508F4D4CE32
:100FB000F6CF8C2F8F711111CDCF0E94E108CCCECE
:100FC000112329F08C2F8F710E94D908C5CE0E9461
:100FD000D608C2CE112349F0CF718C2F0E94E108B0
:100FE00063E08C2F0E94480DB7CE81E00E94630D14
:100FF000E1E0EF1508F0B0CE82E00E94630DACCEC8
:10100000F110FFCE8C2F8F71A5CFDF91CF911F9163
:101010000F91FF90EF90DF90CF90BF9008950F93C6
:101020001F93CF93DF93EC01688179818A810E94BD
:101030009F098C010E9412090E94BA08B801CE01D2
:10104000DF91CF911F910F910C940E06CF93DF93F8
:10105000EC018B819C81892B29F0888199818923DE
:101060008F3F59F4DF91CF910895CE010E940F0870
:10107000CE01DF91CF910C941703CE010E94610342
:101080008111F3CF0E94AF0C882361F38A818823FA
:1010900049F38091630282FDE5CF82E0DF91CF9139
:1010A0000C94630D90E080E00E94D22190E080E0FB
:1010B0000E94E8210E94D60C0E94D90C0E94F90CD3
:1010C0000E94E7140C94C0130E949F0C0C945208C9
:1010D0000E94C60C0C946408E92FE295EF70E25070
:1010E000EE3070F4F0E0E15BF44D0C94A12A803F07
:1010F00019F020F4883E20F481E00895843FE1F364
:1011000080E00895883EC0F3813FD1F7F5CF93FB8F
:10111000882780F90895FC01808191810E949509BA
:101120000C946C08CF93DF9300D000D00F92CDB712
:10113000DEB70F900F900F900F900F90DF91CF912F
:101140000895CF93DF9300D000D000D0CDB7DEB7A5
:1011500026960FB6F894DEBF0FBECDBFDF91CF91BC
:10116000089508950C94B1080E94B2088093D301A9
:101170000C94520808950C94B4089091D301892BD3
:101180000C94B4089091D30189230C94B4089091E5
:10119000D30189270C94B4080C94B1080C94CC08A2
:1011A0000E94CE088093D2010C94520880E00C94E7
:1011B000D00891E001C0990F8A95EAF7892F0C9425
:1011C000D00821E030E001C0220F8A95EAF7809133
:1011D000D201822B0C94D00821E030E001C0220F14
:1011E0008A95EAF720958091D20182230C94D00849
:1011F00021E030E001C0220F8A95EAF78091D20108
:1012000082270C94D0089091D201892B0C94D0089D
:101210009091D20189230C94D0089091D201892712
:101220000C94D0080895E92FEE0F9E0F890F982F88
:10123000977041E001C0440F9A95EAF7869586952C
:10124000869593E0899FF0011124E453FE4F30E02E
:1012500020E070E05191DF011197CB01022E02C016
:10126000969587950A94E2F7817081958527842366
:1012700085278C932F5F3F4F2330310559F7089511
:10128000E92FEE0F9E0F890F982F97708695869500
:10129000869523E0829FF0011124E453FE4F50E035
:1012A00040E080E0219130E0092E02C0369527957C
:1012B0000A94E2F721703327042E01C0220F0A940A
:1012C000EAF7822B4F5F5F4F4330510559F708957E
:1012D000CF92DF92FF920F931F93CF93DF936C0116
:1012E0000091D2018091D301082BC7E0D0E010E03B
:1012F000FC2EC8010C2E02C0959587950A94E2F742
:1013000080FD0CC02197A0F7F12C8F2DDF91CF919C
:101310001F910F91FF90DF90CF900895B6018C2F11
:101320000E941A10019771F3F0CFCF93DF93EC0175
:101330000E946809BE01DF91CF910C941A101F938F
:10134000CF93DF93EB019091CB01992331F0CB0147
:10135000DF91CF911F910C949509882379F0CB01EF
:101360000E946809182F682FCE010E941309BE0140
:10137000812FDF91CF911F910C941A10CB010E9405
:101380004009182FF4CF1F93CF93DF93C091D4015E
:1013900016E08091D5018C1304C0DF91CF911F918D
:1013A0000895D0E01C9FF0011D9FF00D1124EA521A
:1013B000FE4F4081518162817381848195810E94B9
:1013C000A1082196C770E5CF40910602509107020F
:1013D000609108027091090280910A0290910B02BB
:1013E0000C94A108FF920F931F93CF93DF938091EA
:1013F0000B02807FD1F4809108028823B1F08091A4
:10140000D4011091D5016091060270910702A0915C
:101410000902B0910A02062F0723C0910001D09162
:10142000010196E0F92E181306C0DF91CF911F91AC
:101430000F91FF90089590E0109711F00F3F19F46D
:1014400001968770F0CFF89E9001F99E300D11241F
:10145000F901EA52FE4F41814713F2CF4081461312
:10146000EFCF42814111ECCF438154814A1B5B0B8A
:101470004C175D0728F780910B028F708061809375
:101480000B02F901E552FE4F80818F7080618083ED
:1014900086E092E00E942608DF91CF911F910F9184
:1014A000FF900C94C309AF92BF92CF92DF92EF925C
:1014B000FF920F931F93CF93DF93CDB7DEB7619762
:1014C0000FB6F894DEBF0FBECDBF8C0185E0F801EA
:1014D000DE011D9601900D928A95E1F7F801E280F8
:1014E00086E0C82E82E0D82E6091090270910A022F
:1014F0006115710509F45FC1909106022091070200
:10150000892F82238F3F09F456C140815181A380E6
:10151000B480F0900802F501E61BF70BBF01E091E3
:101520000001F0910101FF2009F4F6C080910B0247
:10153000382F307F6E177F0708F0AFC0311179C0A8
:10154000FE2C251323C0941321C0E1101FC08F70FF
:10155000806180930B020E94E409C6010E94260864
:1015600080910B02F80185838F2D61960FB6F89458
:10157000DEBF0FBECDBFDF91CF911F910F91FF90C6
:10158000EF90DF90CF90BF90AF900895AB2829F0F7
:10159000842F85238F3F09F027C180E0F82FF17059
:1015A000DF2E80FF3CC08091D4012091D50136E030
:1015B000821315C04D875E878D859E850E94950993
:1015C000292F22952F702230F0F0243018F59F70CB
:1015D000F1F0F8019581907FD1F4D12C1EC090E0FC
:1015E000389FF001399FF00D1124EA52FE4F6181BE
:1015F000651306C06081641303C062816E110FC061
:1016000001968770D5CF9F7011F0882331F3805EEB
:10161000883018F3C8010E942608FD2CA5CFEE20C3
:1016200009F4A2CF80910B02816080930B02F12C10
:101630009BCF251306C0941304C0F801EE2009F4D3
:1016400087C0C8010E948B08882319F1EE2009F198
:1016500080910B02803270F02091060230910702D7
:1016600038872F831986BB86AA868C87CE0107967A
:101670000E94260886E0F801A6E0B2E001900D92F3
:101680008A95E1F70E94F2090E94E409FF24F3948D
:101690006BCFC8010E942608F9CF311113C07A2DF3
:1016A000B98AA88A6E2D89890E94920886E092E004
:1016B0000E94260886E0F60111928A95E9F70E94B9
:1016C000E409B5CF25130FC094130DC0E1100BC072
:1016D000F8018583C8010E94260886E0F601119270
:1016E0008A95E9F741CFC8010E948B08882389F2C7
:1016F000EE2079F280910B02803208F4BBCF20916A
:101700000602309107023A8329831B82BD82AC8294
:101710008E83CE010196ACCF6E177F0708F03EC0D6
:10172000FE2CEE2009F4B5CF25132AC0941328C04F
:1017300080910B0280FD1BC0982F907FC1F0F801B3
:101740008583903F31F0982F907F905F8F70892B29
:101750008583C8010E94260886E0F801A6E0B2E071
:1017600001900D928A95E1F70E94E409FDCE86E092
:10177000F801A6E0B2E001900D928A95E1F7F4CE6F
:10178000C8010E948B08811175CF80910B02816086
:1017900080930B02C8010E942608E6CE7A2DB98AF2
:1017A000A88A6E2D89890E94920886E0F60111921E
:1017B0008A95E9F7D9CFEE2009F46BCFC8010E94D2
:1017C0008B08F82E882309F464CF86E0F801A6E0A0
:1017D000B2E001900D928A95E1F786E092E00E94D6
:1017E000F4040E94F209C0CF81E08E25D7CE1F936A
:1017F000CF93DF93CDB7DEB72C970FB6F894DEBF4B
:101800000FBECDBF4F83588769877A878B879C87A8
:10181000CE0107960E94530A882369F08A859B852A
:10182000892B39F04F815885842F85238F3F09F00C
:1018300071C016E05FC086E0FE013796DE011196AA
:1018400001900D928A95E1F78A859B85892B89F312
:1018500088859F8189238F3F61F32091D50130E0F6
:10186000C9010196877099274091D401481719063C
:1018700071F40E9468081092D5011092D40186E09C
:10188000E6E0F2E0DF011D928A95E9F7D2CF96E01B
:10189000929FD001939FB00D1124AA52BE4FFE011A
:1018A000319601900D929A95E1F78093D5010E94AF
:1018B000C309BFCF819FC00111248A529E4F0E944D
:1018C000530A8823E9F0E091D4011E9FF00111240E
:1018D000EA52FE4F408151816281738184819581FA
:1018E0000E94A1088091D40190E001968770992709
:1018F0008093D4018091D4019091D5018913DACFDE
:101900002C960FB6F894DEBF0FBECDBFDF91CF91FE
:101910001F91089569857A858B859C850E94A10811
:1019200088CF682F80910201909103010C94462288
:10193000682F80910201909103010C9448228091BC
:101940000201909103010C944A2280911402859522
:1019500085958595089580911402877008959091DA
:101960001402977081E009F480E0089580912002CC
:10197000089590912002892B8093200208958095EC
:1019800090912002982390932002089510922002B3
:10199000089590911F02892B80931F0208958095CE
:1019A00090911F02982390931F02089510921F0296
:1019B000089510921E0208958091150208950895C9
:1019C0000C94DF0C9091630292FD08C09091150277
:1019D000981721F0809315020C94E00C08958091E3
:1019E0001502882329F01092150280E00C94E00C77
:1019F0000895CF93DF93E0910201F091030180916C
:101A000020028083E0910201F09103018081909196
:101A10001F02892B8083E0910201F09103018081F4
:101A200090911E02892B808390911502992381F059
:101A3000E0910201F09103018081892B80838091E4
:101A40000201909103010E94FE2181110E94EF0C7E
:101A5000C0910201D091030148E050E06CE072E0D7
:101A6000CE010E94EC2A892B69F088E0FE01ACE0EF
:101A7000B2E001900D928A95E1F7CE01DF91CF910E
:101A80000C94B921DF91CF91089508950C94450DE0
:101A90009091630292FD10C098E0899F90011124FB
:101AA000622B609314020E94E108809114028595D4
:101AB000859585950C94460D0C94E10810921402BE
:101AC00080E00C94460D90911402809589238093B8
:101AD0001402282F277091F4282F082E000C330BA6
:101AE0009217130659F09091630292FD07C08595F5
:101AF000859585950E94EC080C945E0D0895909153
:101B0000630292FB222720F9281769F080FB92F9E3
:101B10009093630280916202909163020E94CA0DC9
:101B200082E00C94630D08958091630282FB882704
:101B300080F991E089270C947F0D81E00C947F0D52
:101B400080E00C947F0D6FEF7FEF90E080E00C94CD
:101B50002B2B90E080E00E94072B893E9E4F11F4D2
:101B60000C944D1C80E0089582E090E00C94F92ADA
:101B700083E090E00C94F92ACF9384E090E00E94F7
:101B8000F92AC82F82E290E00E94F92A982F8C2F20
:101B9000CF910895CF93C92F682F84E090E00E94E1
:101BA0000D2B6C2F82E290E0CF910C940D2BAB01AA
:101BB000BC018FE090E00C941F2BAB01BC0183E1D2
:101BC00090E00C941F2B60E070E0CB010C94DD0DD5
:101BD00060E070E0CB010E94D70D0C94E30D69EE3C
:101BE0007EEF90E080E00E942B2B60E082E090E0AE
:101BF0000E940D2B60E083E090E00E940D2B10927C
:101C0000D30160E084E090E00E940D2B60E082E26E
:101C100090E00E940D2B60E085E090E00E940D2B8B
:101C200060E086E090E00E940D2B6FEF87E090E08F
:101C30000E940D2B40E050E0BA0188E090E00E9445
:101C40001F2B60E08DE090E00E940D2B40E050E003
:101C5000BA0188E190E00E941F2B60E087E190E0EC
:101C60000E940D2B40E050E0BA018CE190E00E9410
:101C70001F2B70E060E080E290E00E942B2B40E0A0
:101C800050E0BA0188E190E00E941F2B80E00E94A2
:101C9000661C0E948C1C0C94E80D0C94EF0D682FB0
:101CA0008EE090E00C940D2B0E94AC2260932802F1
:101CB0007093290280932A0290932B02609324024E
:101CC000709325028093260290932702089585B78A
:101CD000806885BF85B7806885BF08950895089599
:101CE0000C946F0E08950C94720E0E94670E88EF8C
:101CF00090E10E94A3210E946E0E0C94700E81E070
:101D000008950C947F0E089508950E94830E0C94FC
:101D1000840E0E9497220E949B1C0E94CE110E945A
:101D2000701A0C94730E8F929F92AF92BF92CF92C3
:101D3000DF92EF92FF920F931F93CF93DF93CDB774
:101D4000DEB72A970FB6F894DEBF0FBECDBF0E9454
:101D5000E311982E81110E94540E81E2A82E82E098
:101D6000B82E10E000E0802E802F0E943211E82E65
:101D7000F501C1905F01C81609F445C080912C029D
:101D800081FD0E943811D12CFF24F394CE248C2D98
:101D90008F21A1F10E94810E882399F0DE828F822B
:101DA000EF2081E009F480E088870E94A022816012
:101DB000782F9A8789874E815F8168858A850E94FE
:101DC000B604F801EF5DFD4F8081F826F08281E0D6
:101DD000911001C080E02A960FB6F894DEBF0FBEC6
:101DE000CDBFDF91CF911F910F91FF90EF90DF90CA
:101DF000CF90BF90AF909F908F900895D394FF0C99
:101E0000F3E0DF12C4CF0F5F1F4F0330110509F05D
:101E1000AACF8FEF89838A831B820E94A0228160D0
:101E2000782F9D838C8349815A816B818D810E949B
:101E3000B604CDCF0E94930E0E94AB1A0E94DB1312
:101E40000C94AB04CF93DF930E941E10EC0181151C
:101E500021E5920708F042C0811530E5930708F0AC
:101E60009DC0883E910530F5803E910508F092C0F6
:101E7000883A910588F4853A910508F084C081304C
:101E8000910509F487C0009709F484C0049708F00D
:101E900081C0D0E0C0E07EC08F3B9105D0F7C85A2A
:101EA000D0E0CC0FDD1FC35ADE4F0990D881C02D82
:101EB000D46470C08115904250F4C11581E0D807F8
:101EC00008F068C0C03FD10520F3D06563C0C115DC
:101ED00090E4D907F0F2DF70D06A5CC0811525E587
:101EE000920700F5811534E5930708F08BC0811542
:101EF00043E5940708F073C0C11582E5D80708F4DC
:101F000069C0CE018370992721E030E002C0220F22
:101F1000331F8A95E2F7C695C69580E2C89FE00117
:101F2000112454C0C11599E5D907A8F4C11528E5B5
:101F3000D20708F06CC0C11536E5D30708F0A9CF69
:101F40008C2F0E94B510C82FD0E0DC2FCC27CC27D7
:101F5000DF71D0621FC0C1154AE5D40708F45CC028
:101F6000CE0190568115904208F093CF8D2F8F713E
:101F70000E94B51090E0982F882788279F719C01B8
:101F80002C2BE901E6CFC55AD0E0C557DE4FC881FA
:101F9000D0E0D064CE01DF91CF910895E4E0969532
:101FA0008795EA95E1F783702C2F26952695237067
:101FB00040E2249F90011124382B8C2F8370C1E0C4
:101FC000D0E002C0CC0FDD1F8A95E2F7C22BD32BE5
:101FD000DC68E0CFDC2FCC27C16FD06ADBCF837009
:101FE000992721E030E002C0220F331F8A95E2F7E3
:101FF000C695C69590E2C99FE0011124C22BD32B50
:10200000DA68C8CFD82FCC27C46FD06AC3CFDC2FF3
:10201000CC27C06FD06ABECF8C2F8F700E94B510B6
:1020200034E0D695C7953A95E1F7CF709C2FEC0137
:10203000D069B0CF0E94F01F0C94220F8238910516
:10204000B1F1B0F48133910509F475C048F48932D7
:10205000910509F469C08A32910509F473C00895A5
:102060008533910509F459C08933910501F108952B
:10207000833E9105A9F138F4803E9105F9F0823E46
:10208000910549F10895863E9105A9F1873E910594
:10209000C9F1843E910519F52091630221FF1FC00B
:1020A0008091620284FD14C087EE90E00895209133
:1020B00062022370A1F080EE90E008952091620208
:1020C00020FD47C03091630230FF09C024FF44C0A7
:1020D00090E080E004C02091620222FDF7CF0895D5
:1020E0002091620222FD3BC03091630230FDE3CFBC
:1020F00024FFF5CFEDCF2091620223FFF0CF24FD26
:10210000E7CFD2CF2091620223FD2CC03091630231
:1021100031FFEECF84EE90E008952091620225FF1A
:10212000DECF89E290E008952091620225FFD7CFAB
:1021300085E390E008952091620226FFD0CF8AE2E5
:1021400090E008952091620226FFC9CF81E390E0DC
:10215000089589E390E0089583EE90E0089582EE7B
:1021600090E0089586EE90E008959091620292FFCB
:1021700006C0282F28712830F9F4877F846093FFE8
:1021800006C0282F28712831F1F4877E84612091C0
:10219000630220FF06C0382F38713830D9F4877FAA
:1021A000816021FF06C0282F28712831D1F4877E55
:1021B000816194FD877E0895282F24712430F9F6DB
:1021C0008B7F8860DCCF282F2471243101F78B7E30
:1021D0008861DDCF382F3171313019F78E7F8860FB
:1021E000E0CF282F2171213121F78E7E8861E1CF48
:1021F00080E008950C94A30D0E94E3118FE39CE905
:102200000197F1F700C000000E94E31180E00E94F6
:10221000321180FF04C00E94FA100C94EB22089542
:102220000C94FC100E94A90D811102C00E944D0E59
:102230000E94B40D80932C020E94BC0D9093630207
:10224000809362020E9410110E94B80D0E94BB0888
:102250008091D2010C94CE0808950C942C1108950D
:102260000C942F11E82FF0E0E959FD4F808108957B
:10227000089580EA8A95F1F7089500C008950C94B6
:102280003911F894E82FE295EF70F0E031A1282F92
:102290002F7081E090E001C0880F2A95EAF7982F0F
:1022A0009095932391A392A1892B82A3789408956A
:1022B00086E30E94411185E30E94411184E30E945C
:1022C000411184EF0E94411185EF0E94411186EF78
:1022D0000C944111CF92DF92EF92FF920F931F93D4
:1022E000CF93DF93EC01D62E062F10E0C8018F5656
:1022F0009E4F7C01FC0180818F3F09F444C0F8941B
:10230000E82FE295EF70F0E091A18F7021E030E0CE
:1023100001C0220F8A95EAF7892F822B81A382A11F
:102320002095282322A378940E943D11EEE8F1E045
:1023300031E0C12C21912F3F79F1A22FA295AF70EE
:10234000B0E090968C9190E02F7002C095958795A3
:102350002A95E2F780FD20C0832FC82A330F81E041
:10236000E139F80739F7F70180818F3F11F00E94BA
:10237000411161E0C11001C060E08D2D0E943F114C
:10238000C00FD11FC882DF91CF911F910F91FF9095
:10239000EF90DF90CF90089580E0DFCF0E9458113A
:1023A00083E0E7E6F2E0DF01982F1D929A95E9F7C6
:1023B000E4E6F2E0DF011D928A95E9F783E00E94EE
:1023C00026120C9448031F93CF93DF9300D00F92F3
:1023D000CDB7DEB719821A821B8260E0CE0101966A
:1023E0000E946A1161E0CE0101960E946A1162E0CA
:1023F000CE0101960E946A1143E050E0BE016F5F7A
:102400007F4F84E692E00E94EC2A11E0009709F4E5
:1024100010E0892B49F089819A81AB818093640215
:1024200090936502A0936602212F43E067E672E075
:1024300084E692E00E9427120E944E03812F0F90A3
:102440000F900F90DF91CF911F9108950895FF9203
:102450000F931F93CF93DF93F82E092F162FD72FAB
:10246000C42F222349F081E080932F020E94A022F2
:1024700090932E0280932D0280912F028823A1F049
:1024800080912D0290912E020E94B822059760F053
:10249000EF2DF02FA12FBD2FCE0FDF2FD11DEC1769
:1024A000FD0741F410922F02DF91CF911F910F9100
:1024B000FF90089581918D93F2CF0E94D5240E94C0
:1024C000890E0C94E1240E94E5240E941A0F0C94BA
:1024D000E6240E946B220E94BC240E94750E0E947A
:1024E0005D120E9463120E94850EFBCF809136021E
:1024F00080FF0DC06091090170E0660F771F6038A2
:10250000710570F56115710569F1862F089581FFD8
:1025100007C06091090184E0689FB0011124EFCFEA
:102520006091090182FD0AC0809135028823A9F0DB
:102530002091080160910901821710F088E0ECCF2A
:10254000869FC001112433E0880F991F3A95E1F767
:10255000622F70E00E946B2AD2CF68E070E0D5CF86
:102560008FE7089581E008958091360280FF0CC0C6
:102570006091050170E07595679575956795611592
:10258000710549F1862F089581FF06C0609105010C
:1025900070E075956795F3CF6091050182FD0BC0E2
:1025A000909134029923A1F060910401809105017A
:1025B000961738F0682F70E06038710500F38FE7E8
:1025C0000895899FC001112470E00E946B2AF4CF06
:1025D00061E070E0D7CF81E00895803F31F40E9440
:1025E0007612819580933A020895813F19F40E94F2
:1025F0007612F8CF823F31F40E9476128195809353
:1026000039020895833F19F40E947612F8CF893F6A
:1026100029F40E94B41280933B0208958A3F21F46A
:102620000E94B4128195F7CF8B3F31F40E94B4120F
:10263000819580933C0208958C3F19F40E94B41256
:10264000F8CF9CE0980F953070F4845F990B21E0EF
:1026500030E001C0220F8A95EAF780913802822B80
:102660008093380208958D3F31F480913602816065
:102670008093360208958E3F21F480913602826065
:10268000F7CF8F3FB9F7809136028460F1CF409148
:102690003902803F59F480913A0287FF0DC01092B1
:1026A0003A0241110BC01092350208C0813F81F4FB
:1026B00080913A0218169CF3442381F080913B02EA
:1026C00090913C02892B09F05AC01092340208956F
:1026D000823F49F447FFF0CF1092390280913A02CD
:1026E0008111ECCFE0CF833F19F41416ACF3E4CFA3
:1026F00090913B02893F29F41916F4F610923B029F
:10270000DBCF8A3F19F497FFD7CFF8CF90913C02E7
:102710008B3F29F497FFD0CF10923C02CDCF8C3F56
:1027200019F41916CCF3C8CF9CE0980F953090F4AB
:10273000845F990B21E030E0B90102C0660F771F7A
:102740008A95E2F7CB018095909138028923809396
:102750003802B2CF8D3F31F4809136028E7F809364
:102760003602AACF8E3F21F4809136028D7FF7CFBB
:102770008F3F09F0A1CF809136028B7FF0CF089573
:102780000E94A0229C019091390280913A02982BDC
:1027900021F0309333022093320290913B028091DA
:1027A0003C02982B21F0309331022093300287E3D2
:1027B00092E00C94C421EF92FF920F931F93CF935A
:1027C000DF9300D000D000D0CDB7DEB786E0E7E3DE
:1027D000F2E0DE01119601900D928A95E1F7E0900A
:1027E0003902F0903A0200913B0210913C021092A3
:1027F000390210923A0210923B0210923C028E2D46
:102800008F2991F080913202909133020E94B82278
:10281000AC0190913502992309F43FC080910A01DF
:102820008417150608F447C0802F812B91F0809102
:102830003002909131020E94B822AC019091340292
:10284000992309F477C0809106018417150608F4CE
:102850007FC08091390290913A02892B90913B027E
:10286000892B90913C02892B11F00E94C01386E0C5
:10287000FE013196A7E3B2E001900D928A95E1F74F
:1028800026960FB6F894DEBF0FBECDBFDF91CF9175
:102890001F910F91FF90EF90089520910B018AE016
:1028A000289F900111242417350708F0BDCF9F5FA2
:1028B0009093350202C09F3FD1F7EE2059F00E945D
:1028C00076129FEF1E140CF491E0899F802D112445
:1028D00080933902FF2059F00E9476129FEF1F1457
:1028E0000CF491E0899F802D112480933A0230915D
:1028F0003902332309F498CF20913A02222309F4B4
:1029000093CF45EB3403C0011124992359F09093E0
:10291000390245EB240390011124332339F030931D
:102920003A0282CF81E080933902F3CF81E0809335
:102930003A027ACF209107018AE0289F9001112462
:102940002417350708F085CF9F5F9093340202C0AB
:102950009F3FD1F7002359F00E94B4129FEF101649
:102960000CF491E0899F802D112480933B02112368
:1029700059F00E94B4129FEF11160CF491E0899F58
:10298000802D112480933C0230913B02332309F4C3
:1029900060CF20913C02222309F45BCF45EB340346
:1029A000C0011124992359F090933B0245EB240375
:1029B00090011124332339F030933C024ACF81E057
:1029C00080933B02F3CF81E080933C0242CF86E0CC
:1029D000E7E3F2E0DF011D928A95E9F710923502F4
:1029E00010923402109236020895EF92FF920F93E4
:1029F0001F93CF93DF93EB01E82FD11110C0442335
:102A000021F0F0E0E554FD4FE4916E2F7E2F8E2FE4
:102A1000DF91CF911F910F91FF90EF9008950D2FAF
:102A200010E0282F30E0442329F025543D4FF901D0
:102A3000249130E0F6E0CF9FC0011124EFEFF0E0E9
:102A4000BF010E94572AAB018C2F90E0880F991F7D
:102A5000A5E5A49FB001A59F700D1124861B970BBF
:102A6000982F990F980FBF01601B710B629FD001C7
:102A7000639FB00D729FB00D11248B2F9D9FB001ED
:102A80001124672F7727EF01C61BD70BBE01629F6A
:102A9000E001639FD00D729FD00D11247F01E91AD0
:102AA000F108E09EB001E19E700DF09E700D1124C2
:102AB000672F7727E61BF70BE29F8001E39F100D3E
:102AC000F29F100D1124E12F722F4230510599F021
:102AD00048F44115510569F04130510581F0EB2F63
:102AE0008D2F07C04430510569F080F04630510504
:102AF000B1F76E2F8DCFE22F7B2F812FFACFE22FF0
:102B00007D2FF7CFEB2F822F712FF3CF7B2F822FCB
:102B1000ED2FEFCF41E00C94F51408950C948A1535
:102B2000CF93DF93762FE901682F842F0E948E15B3
:102B3000798368838A83DF91CF91089580916A02B7
:102B4000982F9E7F29F48170826080936A02089595
:102B50008A34E8F381708864F8CF88E090E00C94C0
:102B6000012BCF92DF92EF92FF926B017C010E94CA
:102B70009E15B701A60188E090E0FF90EF90DF90EE
:102B8000CF900C941F2B60916A0270916B02809120
:102B90006C0290916D020C94B115EAE6F2E083E0CC
:102BA000808311828FEF828383831482608171819D
:102BB000828193810C94B11580916A0280FF02C0DA
:102BC0008695089580E0089590916E02933018F4F0
:102BD0009F5F90936E02882351F060916A0270911A
:102BE0006B0280916C0290916D020C94B115089566
:102BF00081E00C94E41590916E02992319F09150A4
:102C000090936E02882351F060916A0270916B027A
:102C100080916C0290916D020C94B115089581E041
:102C20000C94FB1580916E02089580936E026623CA
:102C300051F060916A0270916B0280916C029091E8
:102C40006D020C94B115089560E00C9415168091F6
:102C50006B02089580916C02089580916D02089531
:102C600070E00C94211C6091100180916A0280FF39
:102C70000AC080910F0123E0829FC0011124815975
:102C80009D4F0C943016809111019091120123E018
:102C9000829FF0011124E159FD4F891750F71182ED
:102CA000108212828F5F3396F8CF90916A0290FF64
:102CB00014C0909111012091120133E0939FF00113
:102CC0001124E159FD4F921710F00C9433168183B3
:102CD000608342839F5F3396F6CF0895CF93DF934F
:102CE00000D00F92CDB7DEB790916A0290FF0AC074
:102CF0009E012F5F3F4F0E9490154B8169818A8111
:102D00000E9455160F900F900F90DF91CF9108956C
:102D1000CF93DF93EC01EC81F0E0EA54FE4F449155
:102D2000EAE6F2E0628181810E946E168C818F5FFB
:102D30008C83DF91CF910895CF93DF93EC01EAE686
:102D4000F2E0438162818C810E946E168C818F5FDC
:102D50008C83DF91CF9108950F931F93CF93DF93CF
:102D600000D00F92CDB7DEB78C0180913D0281116A
:102D70000AC09E012F5F3F4F4FEF6FEF0E949015EB
:102D80008A8180933D02F8016481613069F080910D
:102D90003D0240E0662361F040E0623011F4409172
:102DA0003D0280E060E004C060913D0240E080E0D0
:102DB0000E945516F801848190E0019663E070E06E
:102DC0000E946B2A84830F900F900F90DF91CF9118
:102DD0001F910F910895AF92BF92CF92DF92EF9221
:102DE000FF920F931F93CF93DF9300D00F92CDB735
:102DF000DEB7182FF62E042FE22E90916A0290FF74
:102E000029C0E92FE695AE2FB0E0AC56BE4F8C91AD
:102E1000809347029E7F923059F59E012F5F3F4F6E
:102E2000812F0E9490154B8169818A810E945516DD
:102E300010936B02F0926C0200936D02EE2051F041
:102E400060916A0270916B0280916C0290916D02A8
:102E50000E94B1150F900F900F90DF91CF911F91AD
:102E60000F91FF90EF90DF90CF90BF90AF900895BB
:102E7000823019F400916D02DBCF863019F4109185
:102E80006B02D6CF8930D9F3893191F6E9518E2F73
:102E90008170D82EE695F0E0EA54FD4FA590B490ED
:102EA000C12CBB2460911301C61618F00E94331682
:102EB000BFCF2C2D30E0A29EC001A39E900DB29EEC
:102EC000900D112470E00E94572A812FD11013C059
:102ED000860F40911101420F532F511D9A01220F6D
:102EE000331F240F351F21593D4F402F6F2D0E9456
:102EF0009015C394D7CF861BECCFEAE6F2E0918120
:102F0000282F4381628188E0890F0C94EB1681E0C1
:102F10000C947D17EAE6F2E09181282F43816281CB
:102F200088EF890F0C94EB1681E00C948A17EAE67F
:102F3000F2E0628128E0620F08F46FEF282F4381EE
:102F400081810C94EB1681E00C949717EAE6F2E08D
:102F5000628128E0621B08F460E0282F43818181B0
:102F60000C94EB1681E00C94A617EAE6F2E043819C
:102F700028E0420F08F44FEF282F628181810C94E2
:102F8000EB1681E00C94B517EAE6F2E0438128E005
:102F9000421B08F440E0282F628181810C94EB16DB
:102FA00081E00C94C41720E00C94EB16EF92FF9292
:102FB0001F93CF93DF93EC0110E0EE24EA94F12C01
:102FC00060911301161770F00E9433169A818C815C
:102FD00090FF27C08F5F8C83DF91CF911F91FF906F
:102FE000EF90089520911101422F410F5527551F51
:102FF000CA019A01220F331F280F391F21593D4F53
:1030000070E0C7010E946B2A962F8C8140916D025F
:1030100060916C02199F800D11240E9490151F5F12
:10302000CFCF8150D8CFBF92CF92DF92EF92FF9255
:103030000F931F93CF93DF93FC0182810FEF80FFEB
:1030400001E010E0809113011817C0F00E943316C0
:1030500080913F02013009F051C0811102C080917E
:103060001301815080933F02DF91CF911F910F9107
:10307000FF90EF90DF90CF90BF900895C091110125
:10308000C12ED12CCC0DDD2DD11DCE01880F991F65
:10309000C80FD91FC159DD4F198218821A8234E036
:1030A000E32EF12CB12C80913F028B0D853004F181
:1030B0008370082E000C990BC816D90691F48091E4
:1030C0006D028E9DA0018F9D500D11245595479541
:1030D000559547959E0160916C0280916B020E940C
:1030E0009015B00EF1E0EF1AF108E9F61F5FAACFD4
:1030F00087FFDFCF90911301890FDBCF90E001961E
:103100006091130170E00E946B2AACCF0F931F9364
:10311000CF93DF93809111019091120123E0829F60
:10312000F0011124E159FD4F891740F1C0E0D3E0CF
:1031300060911301C61740F10E94331620910D01D2
:1031400080913E02820F80933E0290910E01920F79
:1031500090930E01191654F4082E000C990B40910F
:1031600013014150550B841795071CF021952093AE
:103170000D01DF91CF911F910F910895118210825F
:1031800012828F5F3396D0CF0C2F10E070E0C80111
:103190000E946B2A20911101820F482F50E020914C
:1031A0003E02022E000C330B02171307BCF02091D5
:1031B0000E01022E000C330B201731077CF08D9F7F
:1031C0009001112421593D4F40916D0260916C0294
:1031D00080916B020E949015CF5FAACFFA01EE0F8B
:1031E000FF1FE40FF51FE159FD4F1182108212827B
:1031F000F3CF8F929F92AF92BF92CF92DF92EF92D6
:10320000FF920F931F93CF93DF93EC014C81042F18
:1032100010E09801D8010E94B62A9B01AC010E94DF
:10322000CC2A4B015C01E0E2F0E0E01BF10BA5E5EC
:10323000B0E0AC019B010E94CC2A6B017C019F0194
:10324000DF010E94AE2A9B01AC010E94D72A9B019C
:10325000AC01280D391D4A1D5B1DC701B6010E9436
:103260007F2AF22E822F90E039E23F1560F143E091
:10327000249F9001112435952795122F109500E079
:1032800085E5E82EEF1880911301081758F10E9488
:1032900033169C8181E0992319F0903219F48FEF55
:1032A00080930C0180910C01890F8C83DF91CF9169
:1032B0001F910F91FF90EF90DF90CF90BF90AF9054
:1032C0009F908F90089525E530E0B901681B790B38
:1032D0009B01220F331F260F371F37FFCCCF2F5FE5
:1032E0003F4FC9CF8E2D01FD8F2D20911101622FEF
:1032F000600F7727771F9B01220F331F260F371F81
:1033000021593D4F412F60916C020E9490150F5F33
:10331000BACF0F931F93CF93DF93EC0110E000E03F
:10332000909113019017110609F06CF40E94331666
:103330008C8190E00196817099278C83DF91CF91E9
:103340001F910F91089520911101A801420F511D65
:103350009A01220F331F240F351F21593D4F4C81F5
:1033600060916C0280916B0296959017110651F056
:103370004CF0442349F040916D020E9490150F5F7C
:103380001F4FCECF4423B9F340E0F7CFEAE6F2E097
:1033900080818E7F808360817181828193810E9490
:1033A000B115109248022FEF80E792E02150804043
:1033B0009040E1F700C000000C943316EAE6F2E01A
:1033C00080818E7F8083109248022FEF80E792E009
:1033D000215080409040E1F700C000000C9433166B
:1033E00060916A02669570E04BE050E084E191E004
:1033F0000E94DF2A892B19F481E0809348020E9401
:10340000A0229093410280934002089590916A0215
:1034100090FF35C09170811128C0926090936A022C
:10342000662351F060916A0270916B0280916C0288
:1034300090916D020E94B11560916A02669570E0EC
:103440004BE050E084E191E00E94DF2A892BA1F05B
:103450001092480281E08093430240916D02609196
:103460006C0280916B020C94D317853210F0986433
:10347000D5CF880F982BD2CF0E94F019EBCF0895AB
:10348000682F90916A02969581E0890F853208F045
:1034900081E00C94061A81E00C94401A682F9091F8
:1034A0006A0296958FEF890F09F484E20C94061A4C
:1034B00081E00C944E1A61E00C94061AEAE6F2E000
:1034C00080818160808386950C945B1A80916A026A
:1034D00080FD0C94C6190C945E1A60E00C94061AD8
:1034E0008091460281112EC00E94A90D811104C055
:1034F0000E944D0E0E94CD150E94AD1560936A0288
:1035000070936B0280936C0290936D026E7F61F4F6
:103510000E94CD150E94AD1560936A0270936B02F4
:1035200080936C0290936D020E949E151092480247
:1035300080916A0280FF03C086950E946D1A81E027
:10354000809346020895EAE6F2E0808181608083FC
:1035500086950C946D1A0F931F93CF93DF938091F0
:103560004802882309F486C080914702E0916A02EC
:10357000E695E81BE0934202823091F5F0E0EE54CC
:10358000FE4FE491CE2FD0E008E816E1809143028F
:10359000882361F0109243020E94A022909341027E
:1035A0008093400210924502109244020E94A02291
:1035B000E0914002F09141028E1B9F0B8F3F9F478D
:1035C00008F058C0EC0FFD1FF0934102E093400259
:1035D00080E492E0F801DF91CF911F910F9109945F
:1035E000863049F4F0E0E155FE4FE491CE2FD0E073
:1035F0000CE916E1CBCF893051F4E695F0E0E455C3
:10360000FE4FE491CE2FD0E006ED17E1BFCF8F3013
:1036100051F4E695F0E0E755FE4FE491CE2FD0E06F
:1036200003E118E1B3CF853149F4F0E0EA55FE4FEC
:10363000E491CE2FD0E006E818E1A8CFC8E2D0E0B0
:1036400009EF18E1883109F4A1CF833239F4E4EAB3
:10365000F1E0C591D4910CEA16E198CFC4EFD1E026
:1036600009E819E1843209F491CFC0EDD7E00DE803
:1036700015E18CCFDF91CF911F910F910895FA0141
:10368000811101C0FB010994CF93DF93C82FD62F7E
:103690000E94DC158C1740F00E94DC158D1720F479
:1036A000DF91CF910C944B1A8C2FDF91CF910C941A
:1036B0005B1A1F93CF93DF93EC01FB011281111171
:1036C0007EC00E94B60C8272CC3CFCE5DF0709F498
:1036D0009CC008F041C0C63CECE5DE0709F481C09F
:1036E000D8F4C33C9CE5D90709F471C030F4C23C5E
:1036F000DC4509F469C011E062C0C43C9CE5D9070F
:1037000009F46AC044E957E167E877E1C53CDC4564
:1037100091F70E943F1B53C0C93CFCE5DF0709F449
:103720006AC068F4C73CECE5DE0709F45FC043EA11
:1037300057E162EB77E1C83CDC4559F3DCCFCA3C8A
:103740009CE5D90709F45CC04FE056E168EF75E1EC
:10375000CB3CDC45F1F2CFCFC13DFCE5DF0709F4FE
:1037600065C098F4CE3C9CE5D90709F457C008F42D
:1037700051C0CF3CFCE5DF0709F455C0C03DDC4536
:1037800009F0B9CF6EE089E04BC0C43D9CE5D90794
:1037900009F452C058F4C23DFCE5DF0709F449C002
:1037A000C33DDC4509F0A7CF88E135C0C53D9CE5A8
:1037B000D90709F444C0CD35DD4509F09CCF812FF0
:1037C000DF91CF911F9108950E94661AF8CF48E5C6
:1037D0005AE16BE47AE19DCF4BE45AE168E57AE186
:1037E00098CF47E857E164E977E193CF42EB57E19F
:1037F00063EA77E18ECF40ED57E161EC77E189CF65
:1038000041EC57E160ED77E184CF48EF55E16FE09F
:1038100076E17FCF81E00E945B1AD1CF65E082E044
:103820000E94441BCCCF68E086E0FACF64E18FE0D1
:10383000F7CF67E185E1F4CF62E289E1F1CF83E27E
:10384000EACF539A4BB1477F5BB15860EFB7F8941A
:103850009B01220F331F260F371F280F391F2817F0
:10386000390741F4EFBF8FE594E00197F1F700C00D
:1038700000000895DC016D91CD0178E05BB9000096
:1038800000C067FF4BB9660F000000C000C000C059
:103890004BB900C07A9591F7E2CF83E290E00E94A5
:1038A000F92A823289F484E290E00E94F92A813078
:1038B00059F485E290E00E94F92A91E0833209F000
:1038C00090E0892F8170089580E0FCCFCF93C82FBE
:1038D0006FEF811162E283E290E00E940D2B6FEFA7
:1038E000C11161E084E290E00E940D2B6FEFC111E5
:1038F00063E285E290E0CF910C940D2B089586E26F
:1039000090E00E94F92A682F70E090E080E008952E
:1039100086E290E00C940D2B80E00E94661C60E033
:1039200070E0CB010E94881C0E946A1F0E945420F4
:1039300081E00C94661C0E947E1C0E944D1C81112B
:1039400002C00C948C1C0895CF93FB01C281CC2340
:1039500009F19C0122513F452031310520F582516A
:103960000E946420C0E08C2FCF91089581E00E94D6
:10397000E10843E062E081E00E943F03F3CF81E091
:103980000E94EC0843E062E081E00E943F03EBCF3D
:1039900082E0F6CF8031FFE59F0789F381319F45B3
:1039A000B9F3C1E0E0CF8031EFE59E07F9F2813154
:1039B0009F45C9F682E0DBCF2FEFFC0120830895FD
:1039C000CF93DF93EC0188818138A9F028F4803807
:1039D00071F0DF91CF910895823881F08338C9F773
:1039E0000E94271689830E942A168A83F2CF0E949A
:1039F0002D168983EECF0E94DC15FBCF0E94121694
:103A0000F8CFCF93DF93EC0188818138E1F028F47F
:103A1000803869F0DF91CF910895823811F18338B1
:103A2000C9F70E942D16482F6A81898108C0D98163
:103A30000E942A16C82F0E9427164D2F6C2FDF9147
:103A4000CF910C94D31789810E946D1A89818111BD
:103A500004C0DF91CF910C94DE19DF91CF910C94CB
:103A6000A31A8981DF91CF910C9424161F93CF93D1
:103A7000DF93EC01162FDC01ED91CD01E150E33134
:103A800008F0A8C0F0E0E35AF44D0C94A12A198282
:103A900089E08A83612FCE01DF91CF911F910C9431
:103AA00093238981823069F0833071F08130C9F4C9
:103AB0000E94AC220E94A72A6A837B838C839D8309
:103AC000E9CF0E947F1CF6CF80E00E9432118A83EA
:103AD00081E00E9432118B8382E00E9432118C833C
:103AE000D9CF612FCE010E94DC1CD4CF89818230D6
:103AF000C1F76A817B818C819D810E94A72A0E94E7
:103B0000881CC8CF4B816A8189810E943C1F9827FD
:103B1000892798279D838C83BDCF2C813D813227B7
:103B2000232732274B816A8189810E94551FB2CF9A
:103B30000E946A1FAFCF0E94011DACCF0E94E01C03
:103B4000A9CF0E94C315A6CF0E94FD1F8983A2CFD3
:103B50000E94FF1F9827892798279A8389839ACFE5
:103B60006B8170E089819A81AE014C5F5F4F98272D
:103B7000892798270E9402208DCF6B8170E0898170
:103B80009A81AE014C5F5F4F9827892798270E9442
:103B9000292080CF0E9454207DCF0E942A1FD6CF9B
:103BA0006B8170E089819A81AE014C5F5F4F9827ED
:103BB000892798270E94A21F6DCF6B8170E08981B1
:103BC0009A81AE014C5F5F4F9827892798270E9402
:103BD000C71F60CF8FEF88835DCFCF93DF93EC015A
:103BE000FB018281882309F433C1C330FDE5DF077F
:103BF000C0F5CA3F9CE5D90730F49E0122503C45F0
:103C000024313105B0F50E94BC0D9093630280937E
:103C10006202C1318CE5D80709F4EEC008F069C032
:103C2000C930ECE5DE0709F4D5C0C8F5C5308CE530
:103C3000D80709F4C7C000F5C330ECE5DE0709F486
:103C4000B9C008F0BBC0C230DC4509F4ADC08091FA
:103C50006202909163020E94CA0D0E94680880E08F
:103C600008C0C136EDE5DE0771F2C53AFDE5DF07B4
:103C700051F2DF91CF910895809162028062C73046
:103C80009CE5D90709F493C0809162028061C83035
:103C9000DC4508F48CC080916202806488C0809109
:103CA00062028B7FCD30FCE5DF0709F480C098F419
:103CB000809162028E7FCB309CE5D90709F477C0F2
:103CC000809162028C60CC30DC4508F470C0809139
:103CD00062028D7F6CC0809162028F7ECF30FCE5E6
:103CE000DF0709F464C008F47BC0809162028F7D15
:103CF0005EC0CD3F9CE5D90709F47AC050F5C531C7
:103D0000FCE5DF0709F486C098F480916202837FA6
:103D1000C3319CE5D90709F44AC008F471C00E9478
:103D2000680890916202892F97FB87F980583FC0FD
:103D3000CB3FFCE5DF0709F449C008F055C080918E
:103D400063028160CA3FDC4509F081CF8093630242
:103D50007ECFC130EDE5DE0709F468C0A8F4CF3F9F
:103D60008CE5D80709F452C0809163028360C115C5
:103D7000DD4560F380916302982F909591708E7F5E
:103D8000892B90FB81F9E2CFC136EDE5DE0709F41E
:103D900051C0C53AFDE5DF0709F453C0C230DD4527
:103DA00009F055CF80E043C080916202816080932A
:103DB00062024DCF809162028260F9CF80916202EF
:103DC0008460F5CF809162028860F1CF80916302B8
:103DD0008260BCCF0E946808809162028068E7CF51
:103DE00080916202877FE3CF809163028E7FAECFA6
:103DF000809163028D7FAACF809162028F7BD7CFA3
:103E00000E946808809162028F77D1CF809163020F
:103E10008C7F9CCF8091620282FB992790F921E0F0
:103E2000922790FB82F990FB83F9C1CF81E00E9439
:103E30004F0E0DCF90916202892F8F7E94FF80618B
:103E4000B6CF90916202892F8E7F90FF8160AFCFB5
:103E500081E00FCF84E0089550E0440F551F96E0B5
:103E6000699F400D511D112492E1899F400D511D04
:103E70001124CA01879608950F931F93CF93DF9360
:103E80000E942C1F8C010E94F92AC82FD0E0DC2F41
:103E9000CC27C80101960E94F92A9E01282BC9014E
:103EA000DF91CF911F910F9108950F931F93CF939F
:103EB000DF93122F032F0E942C1FEC01602F0E9412
:103EC0000D2B612FCE010196DF91CF911F910F91A4
:103ED0000C940D2BAF92BF92CF92DF92EF92FF9294
:103EE0001F93CF93DF938CEAC82E80E0D82ED0E0CA
:103EF0007601C0E014C0F50125913491412F6C2F5B
:103F00008D2F0E94551F82E0A80EB11C1F5F133039
:103F100091F786E0E80EF11CCF5FC33019F057012E
:103F200010E0E9CFDF5F82E1C80ED11CD43001F789
:103F3000DF91CF911F91FF90EF90DF90CF90BF90D6
:103F4000AF900895EF92FF920F931F93CF93DF935B
:103F5000EC018A017C01E60EF71ECE018796CE1594
:103F6000DF0539F4DF91CF911F910F91FF90EF9012
:103F70000895C834D10540F40E94F92AF8018083DD
:103F80000F5F1F4F2196E9CFF8011082F9CFCF9232
:103F9000DF92EF92FF920F931F93CF93DF937C01F9
:103FA0006A018C01060F171FEC01CE018796C0171E
:103FB000D10749F4DF91CF911F910F91FF90EF90BE
:103FC000DF90CF900895C834D10540F4FE01EE197A
:103FD000FF09EC0DFD1D60810E940D2B2196E5CFA0
:103FE000462F843038F4733028F4633018F4672F88
:103FF0000C943C1F90E080E0089580E1089581E9F1
:1040000093E00895EF92FF920F931F93CF93DF9366
:10401000EC018A017C01E60EF71ECE0181599F4F0B
:10402000CE15DF0539F4DF91CF911F910F91FF90ED
:10403000EF900895C13923E0D20740F40E94F92A95
:10404000F80180830F5F1F4F2196E7CFF8011082A0
:10405000F9CFCF92DF92EF92FF920F931F93CF93FE
:10406000DF937C016A018C01060F171FEC01CE0162
:1040700081599F4FC017D10749F4DF91CF911F910C
:104080000F91FF90EF90DF90CF900895C13923E01A
:10409000D20740F4FE01EE19FF09EC0DFD1D608111
:1040A0000E940D2B2196E3CFCF93DF93CFE6D0E094
:1040B00060E0CE010E940D2B2196C11584E0D80747
:1040C000B9F7DF91CF910895DF92EF92FF920F93AE
:1040D0001F93CF93DF9300D000D0CDB7DEB7F82E7B
:1040E0008FE08F1540F08FEF93E00E94F92A0FE6E2
:1040F00010E08823C1F00F900F900F900F90DF9188
:10410000CF911F910F91FF90EF90DF9008950115CF
:1041100084E0180781F3C8010E94F92A811101C0C7
:10412000FA940F5F1F4FF110F2CF19821A821B828F
:104130001C82DD24D39478018FEFE81AF80AC801B5
:104140000E94F92A89831A828823A9F29FEF980F87
:10415000933078F48A83D9820E5F1F4FC7010E9483
:10416000F92A8B83882339F2CE0101960E949404A8
:10417000E2CF8701F9CFCF93DF93EB0186319C45E6
:1041800011F50E94B60C9A81992399F08A7A91E0F0
:1041900009F490E090934902811109C089E20E94DC
:1041A000910C0E94F90C80E0DF91CF91089585E396
:1041B000F6CF80914902811104C089E20E94980CD7
:1041C000F0CF85E3FBCF81E0EFCF0F931F93CF9329
:1041D000DF93C42FD22FFC0182818823C9F0409342
:1041E0004C020E94A02290934B0280934A0280E2EC
:1041F0008C0F883008F050C0C77081E001C0880F74
:10420000CA95EAF7DF91CF911F910F910C940006A8
:1042100010914C02141335C080914A0290914B02C8
:104220000E94B822883C910560F5C0E2CD0F1D17B1
:10423000B9F080E2810F883040F4177081E001C04E
:10424000880F1A95EAF70E940706C83048F481E003
:104250009D2F977001C0880F9A95EAF70E9400067B
:10426000802F0E94F805C830B8F4D77081E001C0F3
:10427000880FDA95EAF7DF91CF911F910F910C9497
:10428000070680E28C0F883038F4C77081E001C0E7
:10429000880FCA95EAF7EFCFDF91CF911F910F9169
:1042A00008950F939C01CB01233F4CE5340759F14E
:1042B000A8F4283DFCE53F0701F1293D4CE5340712
:1042C000D1F1273D3C4591F406E221EE41EE67ED48
:1042D0007CE50E94E52080E00F910895253FFCE5F4
:1042E0003F07E9F0B0F0263F3C45F9F0FC01828140
:1042F000882339F110924C02EFCF07E225EE45EE0C
:1043000068ED7CE5E6CF06E221EE40EE63EF7CE56A
:10431000E0CF07E225EE44EE64EF7CE5DACF06E27B
:1043200021EE42EE65EF7CE5D4CF07E225EE46EEC6
:1043300066EF7CE5CECF08E221E045EE69ED7CE555
:10434000C8CF81E0C9CF9093C9018093C801089577
:1043500090935202809351020895E0915102F0919E
:104360005202309721F00190F081E02D099480E015
:104370000895E0915102F0915202309721F00280AD
:10438000F381E02D09940895E0915102F0915202D9
:10439000309739F022E0DC012C930480F581E02D88
:1043A0000994089520914F0230915002281739073F
:1043B00071F09093500280934F02E0915102F0917E
:1043C0005202309721F00680F781E02D099408957C
:1043D00020914D0230914E022817390771F09093C9
:1043E0004E0280934D02E0915102F09152023097BB
:1043F00021F00084F185E02D099408959C012E5F41
:104400003F4FAC01485F5F4F80E02417350709F448
:104410000895F90191919F019923B9F38F5FF5CF29
:10442000662349F0FC01329608962191261729F05F
:10443000E817F907D1F780E0089581E008959C011D
:10444000FC0132969FEF80E04191461751F09F3F6B
:1044500019F4411101C0982F8F5F8630A9F79F3F53
:1044600009F40895290F311D97FD3A95F9016283EA
:104470000895FC01329608962191261303C0DF01AE
:1044800011971C92E817F907B9F708950C941F22A9
:104490000C943922029626E0FC0111922A95E9F744
:1044A000089508950C945122811105C081E08093F4
:1044B00053020C94522282E0FACF83E0809353029D
:1044C0000C9452220C94542281E0809353020C9459
:1044D00052220C94642208950E9468080C94C2032E
:1044E0001F921FB61F9211248F939F93AF93BF9378
:1044F00080915402811113C080917B0290917C02C3
:10450000A0917D02B0917E024196A11DB11D8093C4
:104510007B0290937C02A0937D02B0937E02BF91B8
:10452000AF919F918F911F901FBE1F90189582E0B1
:1045300084BD93E095BD9AEF97BD80936E0008957A
:104540002FB7F89480917B0290917C02A0917D021C
:10455000B0917E022FBF08952FB7F89460917B022F
:1045600070917C0280917D0290917E022FBF089510
:104570009C014FB7F89480917B0290917C02A091AE
:104580007D02B0917E024FBF821B930B08957894F9
:104590001F921FB61F9211248F939F93AF93BF93C7
:1045A00080917B0290917C02A0917D02B0917E026D
:1045B0000196A11DB11D80937B0290937C02A09374
:1045C0007D02B0937E02BF91AF919F918F911F901A
:1045D0001FBE1F90189581E08093E00080E28093D9
:1045E000D8001092C9008FE19EE40197F1F700C056
:1045F000000087E090EBDC0180938C0290938D02A9
:10460000A0938E02B0938F0288E19CE00FB6F894DD
:10461000A895809360000FBE90936000FFCF8091BB
:104620006002089508959C0184E08093E9009FEF63
:104630008091E800915085FD06C085ED8A95F1F7DF
:1046400000009111F5CF8091E80085FF0CC050E08B
:1046500040E066E070E0C9010E9477258091E800A3
:104660008E778093E8000895CF93DF93EC0181E08B
:104670008093E9008FEF9091E800815095FD06C08E
:1046800095ED9A95F1F700008111F5CF8091E80042
:1046900085FF14C050E040E068E070E0CE010E9469
:1046A00077258091E8008E778093E80088E0FE010E
:1046B000A8E5B2E001900D928A95E1F7DF91CF91E4
:1046C000089580935502709357026093560280912B
:1046D00083028430F9F48093E9008FEF9091E80031
:1046E000815095FD06C095ED9A95F1F70000811176
:1046F000F5CF8091E80085FF0DC050E040E063E019
:1047000070E085E592E00E9477258091E8008E7741
:104710008093E8000895BC0184E00C946123BC01FF
:1047200083E00C946123CF93FC01603221F58091EA
:104730008302843001F5C091E900CF702091EC0034
:10474000922F917020FD90E8C92B82E08093E900C0
:104750008091E80080FF0CC050E040E060E270E033
:10476000CF010E9477258091E8008E778093E80042
:10477000CF70C093E900CF9108958091820281119A
:1047800009C00E9456270E94B3278091E2008460EE
:104790008093E20008951092820208950C9464229E
:1047A00060917F0281E0611101C080E00C945D2284
:1047B0000E946C229091830281E0943009F080E0A5
:1047C00060917F020C94622242E061EC81E00E94E1
:1047D000D22642E261EC84E00E94D22642E261EC01
:1047E00082E00E94D22642E260EC83E00E94D22660
:1047F0009091830281E0943009F080E060917F0223
:104800000C94542280918502833009F462C030F404
:104810008130D9F1823009F49EC008958A3009F4BC
:104820008AC08B3009F470C0893009F051C0809182
:104830008402813209F04CC08091880290918902F3
:10484000009719F0029709F043C08091E800877F34
:104850008093E8008091E80082FF36C09091F300D9
:104860008091F200029731F48091F100813011F0D3
:10487000863021F48091F100809360028091E800FD
:104880008B778093E8000C94062780918402813A0C
:10489000F9F48091E800877F8093E8008091880296
:1048A00090918902892B61F468E088E592E070E0DC
:1048B0000E9415268091E8008B778093E800089588
:1048C00060E090E080E0F3CF809183028111C2CF5D
:1048D000089580918402813AD9F78091880290915D
:1048E0008902892BA9F78091E800877F8093E800EF
:1048F0008091E80080FFFCCF80912B018093F10034
:104900008091E8008E77BDCF80918402813201F7DB
:104910008091880290918902892BD1F68091E800DC
:10492000877F8093E8000E9406278091860280930B
:104930002B010C94680880918402813249F68091A1
:10494000E800877F8093E8000E9406278091870215
:1049500080936102089580918402813A09F0B8CF72
:104960008091E800877F8093E8008091E80080FFD5
:10497000FCCF80916102C2CF84B7877F84BF0FB61E
:10498000F894A895809160008861809360001092EF
:1049900060000FBE80E890E00FB6F894809361004D
:1049A000909361000FBE0C9469220E9456270E94CA
:1049B000B327E2EEF0E080818460808378940C94E9
:1049C0003C2A8FE191E00C94A8210895CF93DF93C6
:1049D000CDB7DEB7A0970FB6F894DEBF0FBECDBF40
:1049E00080918302843009F583E08093E90080910F
:1049F000E80082FF1AC08091E80090E085FF09C0BE
:104A000050E040E060E270E0CE0101960E94C625D1
:104A100091E08091E8008B778093E800992329F05A
:104A200060E2CE0101960E94361DA0960FB6F89462
:104A3000DEBF0FBECDBFDF91CF9108950C9420252E
:104A4000292F33272330310521F168F42130310536
:104A500009F443C02230310509F444C090E080E0FD
:104A600030E020E026C02132310551F122323105FB
:104A7000A9F76330710590F7FB01EE0FFF1FE454B7
:104A8000FE4F2081318167547E4FFB01808190E091
:104A900010C099278130910581F0009729F0029785
:104AA000E9F6EBEBF3E002C0EDEDF3E0849190E08A
:104AB0009F01FA01318320830895EBECF3E0F6CFF8
:104AC0006330710558F6660F771FFB01EE53FE4FFA
:104AD0002081318189E090E0ECCF82E190E02CE30D
:104AE00034E0E7CF8BE590E021EE33E0E2CFAF9208
:104AF000BF92CF92DF92FF920F931F93CF93DF93DA
:104B00006C01EB018A010E942527F82E811123C038
:104B10000115110539F0F80180819181C81BD90B6D
:104B2000C80ED91EB12CA12C2097A9F08091E800C5
:104B300085FD22C08091E8008E778093E800011502
:104B40001105A1F0F80180819181A80EB91EB182F2
:104B5000A08285E0F82E8F2DDF91CF911F910F91CC
:104B6000FF90DF90CF90BF90AF9008950E942527CF
:104B70008823D1F2F82EEFCFF60181916F01809357
:104B8000F1002197FFEFAF1ABF0ACECFAF92BF92CD
:104B9000CF92DF92FF920F931F93CF93DF936C011D
:104BA000EB018A010E942527F82E811123C00115EF
:104BB000110539F0F80180819181C81BD90BC80E0D
:104BC000D91EB12CA12C2097A9F08091E80085FD79
:104BD00022C08091E8008B778093E80001151105D1
:104BE000A1F0F80180819181A80EB91EB182A08246
:104BF00085E0F82E8F2DDF91CF911F910F91FF90BF
:104C0000DF90CF90BF90AF9008950E942527882312
:104C1000D1F2F82EEFCF8091F100F60181936F0170
:104C20002197FFEFAF1ABF0ACECFFC0180918A0215
:104C300090918B0286179707A0F06115710529F4F2
:104C40009091E8009E779093E80090E061157105DF
:104C500051F4911108C08091E80082FF34C080E0D7
:104C60000895BC01F2CF809183028823C1F1853081
:104C7000C1F18091E80083FD30C08091E80082FDA1
:104C8000EACF8091E80080FFE1CF8091F30020918E
:104C9000F200382F6115710519F02830310558F0F0
:104CA00091E02830310509F090E02091E8002E775E
:104CB0002093E800CBCF81918093F100615071097E
:104CC0002F5F3F4FE7CF80918302882341F08530EB
:104CD00041F08091E80083FFBECF81E0089582E03B
:104CE000089583E00895FC0180918A0290918B02DF
:104CF00086179707A0F06115710529F48091E800E7
:104D00008E778093E80090E06115710551F4911160
:104D100008C08091E80082FF35C080E00895BC01A2
:104D2000F2CF809183028823C9F18530C9F1809147
:104D3000E80083FD31C08091E80082FDEACF8091D8
:104D4000E80080FFE1CF8091F3002091F200382F3E
:104D50006115710519F02830310558F091E02830BF
:104D6000310509F090E08091E8008E778093E800AB
:104D7000CBCF84918093F1003196615071092F5F00
:104D80003F4FE6CF80918302882341F0853041F088
:104D90008091E80083FFBDCF81E0089582E008950F
:104DA00083E00895982F973028F08F708093E90062
:104DB00081E008959093E900242F762F50E0981712
:104DC00031F07091EC002091ED005091F00021FD48
:104DD00002C09F5FE8CF3091EB003E7F3093EB0045
:104DE0003091ED003D7F3093ED003091EB0031606C
:104DF0003093EB007093EC002093ED005093F000A3
:104E00002091EE0027FDE5CF80E008958091840297
:104E100087FF13C08091E80082FF06C08091E80000
:104E20008B778093E80004C0809183028111F2CFD8
:104E30000895809183028823D9F38091E80080FF50
:104E4000F8CF8091E8008E77ECCF2091E40030918C
:104E5000E50095E6A9012091EC00822F817020FFEA
:104E600006C08091E80080FF06C080E00895209190
:104E7000E80022FD1AC080918302882389F08530E2
:104E800089F08091EB0085FD0FC02091E400309106
:104E9000E50042175307F9F29150E1F684E00895D6
:104EA00082E0089583E0089581E008950E94C42778
:104EB0000E94CC27E0EEF0E0808181608083E8ED05
:104EC000F0E080818F77808319BCA7EDB0E08C91F2
:104ED0008E7F8C9380818F7E8083109282020895D2
:104EE0000F931F93CF93DF930E94C4270E94CC2778
:104EF000C8EDD0E088818F77888388818068888337
:104F000088818F7D888319BC1092830210927F0262
:104F1000109281021092800200EE10E0F801808170
:104F20008B7F808388818160888342E060E080E0BD
:104F30000E94D226E1EEF0E080818E7F8083E2EE57
:104F4000F0E0808181608083808188608083F801C7
:104F500080818E7F8083888180618883DF91CF917B
:104F60001F910F910895E8EDF0E080818F7E80839E
:104F7000E7EDF0E080818160808384E082BF81E0A2
:104F8000809382020C947027E8EDF0E080818E7FA0
:104F900080831092E20008951092DA001092E100EE
:104FA00008951F920F920FB60F9211242F933F93E3
:104FB0004F935F936F937F938F939F93AF93BF9321
:104FC000EF93FF938091E10082FF0BC08091E2009C
:104FD00082FF07C08091E1008B7F8093E1000E94F7
:104FE0003B2A8091DA0080FF19C08091D80080FFB1
:104FF00015C08091DA008E7F8093DA008091D9000D
:1050000080FF96C080E189BD82E189BD09B400FEC0
:10501000FDCF81E0809383020E94BD238091E10057
:1050200080FF19C08091E20080FF15C08091E200EE
:105030008E7F8093E2008091E20080618093E200A5
:105040008091D80080628093D80019BC85E080935D
:1050500083020E94D0238091E10084FF2BC08091C5
:10506000E20084FF27C080E189BD82E189BD89B566
:10507000982F917080FFFBCF8091D8008F7D809317
:10508000D8008091E1008F7E8093E1008091E20062
:105090008F7E8093E2008091E20081608093E20045
:1050A00080917F02882309F449C084E080938302C1
:1050B0000E94D8238091E10083FF29C08091E20003
:1050C00083FF25C08091E100877F8093E10082E02B
:1050D0008093830210927F028091E1008E7F809303
:1050E000E1008091E2008E7F8093E2008091E200F7
:1050F00080618093E20042E060E080E00E94D2267E
:105100008091F00088608093F0000E94CE23FF9190
:10511000EF91BF91AF919F918F917F916F915F912F
:105120004F913F912F910F900FBE0F901F901895A8
:1051300019BC109283020E94CB2370CF8091E300B0
:1051400087FD93E090938302B3CF1F920F920FB627
:105150000F9211242F933F934F935F936F937F93FD
:105160008F939F93AF93BF93CF93DF93EF93FF936F
:10517000D091E900DF708091EC00C82FC17080FDF4
:10518000C0E81092E9008091F000877F8093F000E2
:1051900078940E94E9281092E9008091F0008860DC
:1051A0008093F000CD2BCF70C093E900FF91EF9179
:1051B000DF91CF91BF91AF919F918F917F916F912F
:1051C0005F914F913F912F910F900FBE0F901F90C5
:1051D00018951F93CF93DF93CDB7DEB7AA970FB67D
:1051E000F894DEBF0FBECDBF84E892E02091F100BD
:1051F000FC012193CF01F2E08C389F07B9F70E94A0
:1052000002248091E80083FF1EC180918402909166
:1052100085029A3008F017C1E92FF0E0E059F44D0B
:105220000C94A12A803899F0823809F00CC1809141
:1052300088028F70873008F006C18093E900809162
:10524000EB0085FB882780F91092E90006C0809169
:10525000800290918102911182609091E800977F85
:105260009093E8008093F1001092F1008091E800A3
:105270008E77E5C0882309F4D3C0823009F0E3C0FB
:10528000809186028111D6C0809188028F702FEFA5
:10529000280F263008F0D7C08093E9002091EB005A
:1052A00020FFC8C0933031F48091EB00806280937E
:1052B000EB00C0C09091EB0090619093EB0021E077
:1052C00030E001C0220F8A95EAF72093EA0010929D
:1052D000EA008091EB008860EACF8111B4C01091A0
:1052E00086021F778091E3008078812B8093E30012
:1052F0008091E800877F8093E8000E9406278091D4
:10530000E80080FFFCCF8091E30080688093E30099
:1053100082E0111183E08093830295C0805882302F
:1053200008F091C080918602909187028C3D23E025
:105330009207A1F583E08A838AE289834FB7F894C4
:10534000DE01139620E03EE051E2E32FF0E05093BF
:105350005700E49120FF03C0E295EF703F5FEF70CC
:105360008E2F90E0EA30C0F0C7968D939D932F5F0B
:10537000243159F74FBF8091E800877F8093E80080
:105380006AE270E0CE0101960E9415268091E80045
:105390008B778093E80057C0C096E7CF6091880272
:1053A00070918902AE014F5F5F4F0E941E25BC01C4
:1053B000892B09F448C09091E800977F9093E8000A
:1053C00089819A810E947326E1CF8038E1F580912E
:1053D000E800877F8093E80080917F028093F1004E
:1053E00045CF811130C090918602923060F5809156
:1053F000E800877F8093E80090937F020E94062751
:1054000080917F02882311F084E005C08091E30041
:1054100087FDFACF81E0809383020E94E42313C0CA
:1054200080918602813079F481E0933009F080E048
:10543000809381021092E9008091E800877F809339
:10544000E8000E9406278091E80083FF0AC080914F
:10545000E800877F8093E8008091EB008062809372
:10546000EB00AA960FB6F894DEBF0FBECDBFDF915A
:10547000CF911F9108950895CF938091830288233F
:10548000A1F0C091E900CF709091EC00892F81705C
:1054900090FD80E8C82B1092E9008091E80083FD20
:1054A0000E94E928CF70C093E900CF910895AA1B0C
:1054B000BB1B51E107C0AA1FBB1FA617B70710F0FF
:1054C000A61BB70B881F991F5A95A9F78095909531
:1054D000BC01CD01089597FB072E16F4009407D068
:1054E00077FD09D00E94572A07FC05D03EF490951D
:1054F00081959F4F0895709561957F4F0895A1E222
:105500001A2EAA1BBB1BFD010DC0AA1FBB1FEE1F3D
:10551000FF1FA217B307E407F50720F0A21BB30B88
:10552000E40BF50B661F771F881F991F1A9469F704
:1055300060957095809590959B01AC01BD01CF0160
:105540000895EE0FFF1F0590F491E02D099469274F
:105550009627692778278727782708950E94B62AF3
:10556000332312F48A1B9B0B0C94C72AA29FB00111
:10557000B39FC001A39F700D811D1124911DB29F87
:10558000700D811D1124911D08950E94B62AB7FF48
:105590000895821B930B08950E94B62AA59F900D33
:1055A000B49F900DA49F800D911D11240895B7FF05
:1055B0000C94CC2A0E94CC2A821B930B0895FC01E8
:1055C0004150504030F001900616D1F73197CF018D
:1055D0000895882799270895FB01DC0104C08D9167
:1055E0000190801921F441505040C8F7881B990B55
:1055F0000895F999FECF92BD81BDF89A992780B59B
:105600000895A6E1B0E044E050E00C94332BA8E10B
:10561000B0E042E050E00C94332B262FF999FECFF6
:1056200092BD81BDF89A019700B4021639F01FBAF5
:1056300020BD0FB6F894FA9AF99A0FBE0895039612
:10564000272F0E940E2B0E940D2B252F0E940E2B20
:10565000242F0C940E2B0196272F0E940E2B0C94B6
:105660000D2BDC01CB01FC01F999FECF06C0F2BD88
:10567000E1BDF89A319600B40D9241505040B8F710
:105680000895F894FFCF4C064C067D067D06100762
:105690002C07AC06AC0637079E07AD07AD077708A9
:1056A00077088008800882088008800880087708CA
:1056B00077088708800880088708471D511D761DD8
:1056C000821D8D1D981D9B1D9E1DA11DEA1DEA1D9D
:1056D000A41DA81DB01DBD1DCA1DCD1DD01DDD1DE5
:1056E00012293A29232A3A29232A6D298E29232A85
:0456F000E529F1298E
:1056F400C8001602280850011E0A14010101020004
:105704000400040401191A1B1C1D1E1F2021220F52
:1057140023342313238F238B23122301E200E90074
:10572400EA00B500B600B700CD008301CC008A01C1
:105734009201940121022302240225022602270257
:105744002A02B300B4006F007000818283E200E992
:1057540000EA00B500B600B700CD008301CC008A92
:105764000192019401210223022402250226022728
:10577400022A02B300B4006F007000818283F4F542
:10578400F63635340001020202020606060909094A
:105794000909090F0F0F0F0F0F15151518191919EE
:1057A40019191919191919232440227BEB044E04E1
:0857B4007004F3030C042C0443
:00000001FF
