:100000000C9489020C94D0020C94D0020C94D0026F
:100010000C94D0020C94D0020C94D0020C94552075
:100020000C94D0020C94D0020C948E280C9462296B
:100030000C94E4220C94D0020C94D0020C94D002C4
:100040000C94D0020C94D0020C94D0020C94D002E8
:100050000C94D0020C9457230C94D0020C94D00230
:100060000C94D0020C94D0020C94D0020C94D002C8
:100070000C94D0020C94D0020C94D0020C94D002B8
:100080000C94D0020C94D0020C94D0020C94D002A8
:100090000C94D0020C94D0020C94D0020C94D00298
:1000A0000C94D0020C94D0020C94D0022E001E00AE
:1000B0001F002000210022002B0014001A0008005D
:1000C000150017004C0004001600070009000A0084
:1000D000E1001D001B000600190005000000E20001
:1000E000E30002512A00E0000000000000000000D0
:1000F0000000165C230024002500260027002D00A8
:100100001C0018000C001200130031000B000D0041
:100110000E000F00330034001100100036003700CD
:100120003800E500E6002C0001510354AE00000049
:1001300028000000000000000000000045003A0018
:100140003B003C003D003E000000000000000000BD
:10015000000000000000000000000000000000009F
:10016000010000000000000000000000000001008D
:10017000000000000000010000000000000000007E
:10018000000000003F0040004100420043004400E6
:100190000000500152004F01000000004A005000D2
:1001A00051004F004D00000000002A0149004C01A1
:1001B000000000000000000001000000000000003E
:1001C00000000000000000000000000045003A00B0
:1001D0003B003C003D003E00000000000000260205
:1001E000270200003900000035022F023002000013
:1001F0000000000035002F0030000000000000006B
:1002000000000100000000000000000000000000ED
:10021000000000003F004000410042004300440055
:1002200000005F00600061000000000057005C00FB
:100230005D005E0056000000550059005A005B004A
:1002400054000000000062000000000053000000A5
:1002500058000000000000000000000045003A00C7
:100260003B003C003D003E0045013A013B013C01A2
:100270003D013E0145043A043B043C043D043E0478
:10028000000000000000000000000000000000006E
:10029000000000000000000000000000000000005E
:1002A000000000003F0040004100420043004400C5
:1002B0003F01400141014201430144013F04400428
:1002C0004104420443044404000000000000000014
:1002D000000000000000000000000100000000001D
:1002E000000000000000000000000000000000000E
:1002F000000000002A2B2800000000000000000081
:100300000000000000000029000000002C1E342026
:10031000212224342627252E362D3738271E1F204C
:100320002122232425263333362E37381F04050691
:100330000708090A0B0C0D0E0F10111213141516D5
:100340001718191A1B1C1D2F3130232D35040506D3
:100350000708090A0B0C0D0E0F10111213141516B5
:100360001718191A1B1C1D2F3130354C00000000C6
:10037000000000000000000000000000000000007D
:10038000000000000000000000000000000000006D
:100390007E0F00D4FFFFFFC70000007818034D0058
:1003A0007500720063006900E9006C00610067007D
:1003B0006F0000000E0365006C00610067006900BB
:1003C0006C0000000403090409025B00030100A0A3
:1003D000FA090400000103010100092111010001D3
:1003E0002240000705810308000A090401000203F6
:1003F00000000009211101000122220007058203EB
:100400002000010705030320000109040200010385
:10041000000000092111010001227B00070584036F
:1004200020000A12010002000000086661010002BB
:1004300000010200010660FF0961A10109621500C7
:1004400026FF009520750881020963150026FF002C
:10045000952075089102C005010902A101850209D4
:1004600001A1000509190129081500250195087544
:100470000181020501093009311581257F95027539
:1004800008810609381581257F95017508810605C3
:100490000C0A38021581257F950175088106C0C0B8
:1004A00005010980A101850319012AB7001501265C
:1004B000B700950175108100C0050C0901A10185E7
:1004C0000419012AA002150126A0029501751081C8
:1004D00000C005010906A101050719E029E715007B
:1004E00025019508750181029501750881010507AF
:1004F000190029FF150026FF0095067508810005E3
:100500000819012905950575019102950175039159
:1005100001C011241FBECFEFDAE0DEBFCDBF04B6AD
:1005200003FE27C08091FD029091FE02A091FF0280
:10053000B09100038730904BA740B04BD1F410929C
:10054000FD021092FE021092FF021092000314BEF0
:1005500084B7877F84BF0FB6F894A8958091600018
:10056000886180936000109260000FBEE0E0F8E3C5
:10057000099511E0A0E0B1E0EAECF7E502C00590D2
:100580000D92AC3EB107D9F722E0ACEEB1E001C06C
:100590001D92AD3FB207E1F70E9468160C94AC2B98
:1005A0000C940000CF93DF93D82FC62F80910A02BE
:1005B0000E94B6048150990B029760F4D23030F457
:1005C0008BEAC11101C08CEA0E94190681E0DF911B
:1005D000CF910895D230D0F789EAC111F5CF8AEAD8
:1005E000F3CF81E0089581E008950C94F30208951B
:1005F0000C94F7021F93CF93DF9300D000D00F929B
:10060000CDB7DEB749835A836B833091EE01898180
:100610009A8131111DC06623B9F02223A9F00E94EE
:100620008B09182F682F89819A810E94340969816A
:100630007A81812F0F900F900F900F900F90DF9184
:10064000CF911F910C94511C0E946209182FEFCF7B
:100650000E948B0969817A81EDCFFC01262F4081B0
:1006600051816281738184810C94FA0281E0089542
:10067000CF93DF93EC0160E00E942D03BE01DF9178
:10068000CF910C94F802E1E0F0E0DF0102C0AA0F84
:10069000BB1F6A95E2F7BD01DF0102C0AA0FBB1FB5
:1006A0004A95E2F76A2B01C0EE0F2A95EAF7962FDA
:1006B0009823961302C08E2B0895E0958E230895FB
:1006C000242F462F682F80910A020E9443030C9426
:1006D000F1080E9492110E94CE040C94AD110C946A
:1006E000B01180E00C94CF04089508950E94890809
:1006F0000E9475032FEF84E39CE0215080409040DE
:10070000E1F700C000000C947B230F931F93CF935D
:10071000DF938C0161E00E942D03EC01B8010E947F
:1007200057198823D9F1B801CE010E94F502882318
:10073000A9F1B801CE010E945B1F882379F1B801AD
:10074000CE010E945F1A882349F1B801CE010E94B0
:10075000C51E882319F1F8018281882361F0CA350A
:10076000FDE5DF0721F170F4C115ECE5DE07A1F02E
:10077000CE3DDC45C9F0C801DF91CF911F910F91AB
:100780000C94F102CB358DE5D807A1F0CC35DD45D1
:1007900091F70E949E0DEFCF0E94760380E0DF91DB
:1007A000CF911F910F9108950E94570EF7CF0E948D
:1007B000A70DE1CF0E94AA0DDECF0C9474030E9416
:1007C000D9210E94CF040C94DD03DF92EF92FF92B7
:1007D0000F931F93CF93DF93E82FF0E0E451FD4F89
:1007E000D490282F26952695269530E0F901E457D8
:1007F000FC4F0491877010E0082E02C015950795F4
:100800000A94E2F701701127F901E458FC4FE490D3
:10081000F12C082E02C0F594E7940A94E2F791E0D7
:10082000E922FF24F901E459FC4FC491D0E002C051
:10083000D595C7958A95E2F7C170DD270115110599
:1008400019F081EE0E941A05E114F10419F086EE08
:100850000E941A058D2D0E941906EF2819F086EEC8
:100860000E94AC05012B19F081EE0E94AC05CD2B46
:1008700051F08CE2DF91CF911F910F91FF90EF909B
:10088000DF900C941906DF91CF911F910F91FF908B
:10089000EF90DF900895EF92FF920F931F93CF9305
:1008A000DF93EC01162F0AE08881882309F454C0F5
:1008B000813009F04EC08981813099F47E0122E0B7
:1008C000E20EF11C8A810E941906E7012196812F10
:1008D000815050F3EFE9FFE03197F1F700C00000DD
:1008E000F7CF823041F47E0182E0E80EF11C8A816C
:1008F0000E941A05EACF833041F47E01E2E0EE0E59
:10090000F11C8A810E94AC05E0CF843011F0219661
:10091000DDCF2A81229690E080E0AE014F5F5F4FED
:100920002053330B2A30310548F0019778F2EFE974
:10093000FFE03197F1F700C00000F7CF089FB0014A
:10094000099F700D1124C901860F971F2981EA01A3
:10095000E4CF0E94E503BACFDF91CF911F910F91B1
:10096000FF90EF90089560E00C944B04982F9295BF
:100970009F7011F0892F94E0282F2695269511F06D
:100980009E5F822F869509F09F5F892F08950895B5
:100990000C94C70481E008950C94CA040895CF9381
:1009A000C82F0E94C8048C2FCF910C94CC04CF93F5
:1009B000DF93CDB7DEB72B970FB6F894DEBF0FBE2F
:1009C000CDBF4F83588769877A878B8761110E94D3
:1009D000F90C1E821D8285E0FE013796DE0111961C
:1009E00001900D928A95E1F78C819D81892B89F484
:1009F00049815A816B817C818D819E810E941A0C74
:100A00002B960FB6F894DEBF0FBECDBFDF91CF910E
:100A1000089589819A8189238F3F51F3CE010196F0
:100A20000E9436038111E4CFEBCFFC0180819181DC
:100A30000C94B809CF93C82F882309F48BC082384F
:100A4000C1F40E94D92181FD85C089E30E94B40CC4
:100A50000E941C0D2FEF81EE94E0215080409040C9
:100A6000E1F700C0000089E30E94BB0CCF910C9419
:100A70001C0D8338A1F40E94D92180FD6BC083E551
:100A80000E94B40C0E941C0D2FEF81EE94E02150C7
:100A900080409040E1F700C0000083E5E5CF843856
:100AA000A1F40E94D92182FD55C087E40E94B40CB4
:100AB0000E941C0D2FEF81EE94E021508040904069
:100AC000E1F700C0000087E4CFCF8CEF8C0F813AB4
:100AD00090F46C2F80910201909103010E944322B7
:100AE000882329F08C2F0E94BB0C0E941C0D8C2F98
:100AF0000E94B40CBBCF80E28C0F883048F4C770E2
:100B000081E001C0880FCA95EAF70E94DC0CAECFE5
:100B1000EBE5EC0FE33040F4F0E0EA56FE4F808165
:100B200090E0CF910C940522E8E5EC0FE73150F40A
:100B3000F0E0EE0FFF1FE859FE4F80819181CF91C9
:100B40000C941B22C03F30F08C2F0E94F816CF91DE
:100B50000C94CB17CF910895882309F452C08238A2
:100B600071F40E94D92181FF4CC089E30E94B40C2A
:100B70000E941C0D89E30E94BB0C0C941C0D833851
:100B800059F40E94D92180FF3CC083E50E94B40C37
:100B90000E941C0D83E5EFCF843859F40E94D921BF
:100BA00082FF2FC087E40E94B40C0E941C0D87E4D2
:100BB000E2CF9CEF980F913AF0F290E2980F9830C4
:100BC00050F4877091E001C0990F8A95EAF7892F58
:100BD0000E94E20CD2CF9BE5980F933020F490E076
:100BE00080E00C94052298E5980F973120F490E06E
:100BF00080E00C941B22803F20F00E9452170C943E
:100C0000CB1708951F93CF93DF93182FEB010E940A
:100C10001A05209731F4812FDF91CF911F910C9409
:100C2000AC058FE99FE00197F1F700C00000219724
:100C3000F0CF70E060E0893311F460E570E00C946F
:100C40000206882321F00E94DC0C0C941C0D0895F0
:100C5000882321F00E94E20C0C941C0D0895BF9291
:100C6000CF92DF92EF92FF920F931F93CF93DF9378
:100C70006C01D62FC72FFC011281F580F2949FE002
:100C8000F9220E94D20CE82E8823B9F0E12E11231C
:100C9000A1F08C2F807F803421F080E28D0F88308E
:100CA000D0F08091D00282FD16C082E00E946D0DCE
:100CB0000E94D20C91E0E82EE926BC2EB2948FE07F
:100CC000B822FBE0FB1508F468C0EB2DF0E0E2551C
:100CD000F44D0C94332BE12CF0CF0C2F0F70C07F10
:100CE00011F00295007F112399F0002359F080E262
:100CF0008D0F883010F0D11107C0802F0E94DC0CBE
:100D00000E941C0D8D2F41C0802F0E94EC0CF8CF4B
:100D10008D2F0E94AC05002309F43FC080E28D0FA7
:100D2000883010F0D11104C0802F0E94E20C03C063
:100D3000802F0E94F20C0E941C0D2FC00C2F0F70F0
:100D4000C07FC03211F00295007FDD2381F0D130E9
:100D500009F469C0112309F473C0FF2009F469C0C4
:100D6000F601858180FFCECF8F70858362C0809130
:100D7000D00282FF38C0112359F0002329F0802FC0
:100D80000E94DC0C0E941C0D80E00E941A0505C028
:100D900080E00E94AC050111C7CFEB2DE850FF0B9E
:100DA000349720F40E94D9210E94CF04EE2009F448
:100DB0004DC10E94CE0C80FD49C1F60112820E94F5
:100DC000C80C0E940209C6010E9447080E94C80C74
:100DD000DF91CF911F910F91FF90EF90DF90CF9017
:100DE000BF900C940D09112389F0F11006C00E94E8
:100DF000FF0C802B0E942106D0CF21E0F212F7CF0A
:100E00000E94FF0C802B0E94050DC7CFF11006C079
:100E10000E94120D802F0E942806BFCF31E0F316EA
:100E200009F4BBCFF5CF112331F085E08F1508F41D
:100E3000B4CF802FDFCF94E09F1508F4AECFEACF78
:100E4000FF2041F3D93349F4FFEF27EE33E0F150AF
:100E500020403040E1F700C000008D2F0E94AC051B
:100E60009CCF8C2F86958695837069F0813009F030
:100E700094CF8D2F9C2F9370111102C090E080E0D1
:100E80000E941B228ACF8D2F9C2F9370111102C0BC
:100E900090E080E00E94052280CF8D2F112329F061
:100EA0000E94F8160E94CB1778CF0E945217FACFF3
:100EB0008C2F837079F5111170CF4D2F4295469587
:100EC0004770440F440F8D2F8F70042E01C0880F80
:100ED0000A94EAF72D2F2071D4FF07C02FE030E0ED
:100EE00001C0220F4A95EAF72095C695C695C370B2
:100EF000822BC23049F058F4C13019F00E94E30847
:100F00004CCF0E94DE0849CF0E94E80846CF0E94DD
:100F1000DC0843CF8695112311F08C2F8170882334
:100F200009F43BCF4D2F429546954770440F440F2F
:100F30008D2F8F70042E01C0880F0A94EAF72D2F91
:100F40002071D4FF07C02FE030E001C0220F4A9586
:100F5000EAF72095C695C695C370822BC23049F03A
:100F600058F4C13019F00E94290917CF0E942409B2
:100F700014CF0E942E0911CF0E94F1080ECFCF701E
:100F8000112329F08C2F0E9402098D2F33CF8D2F32
:100F90000E9428068C2F0E940D09FFCED23F51F1EE
:100FA00060F4D03FB9F0D13F81F0112309F449C07A
:100FB000F110A8CE8C2F8F7121C0D33F11F1D43FF7
:100FC000A1F78091D00282FF26C08C2F8F71112350
:100FD00011F314C0112349F084E08F1508F4DDCE1D
:100FE0008C2F8F710E941909D8CE95E09F1508F4B7
:100FF000D4CEF6CF8C2F8F711111CDCF0E94020964
:10100000CCCE112329F08C2F8F710E94FA08C5CE07
:101010000E94F708C2CE112349F0CF718C2F0E9495
:10102000020963E08C2F0E94520DB7CE81E00E942E
:101030006D0DE1E0EF1508F0B0CE82E00E946D0D7D
:10104000ACCEF110FFCE8C2F8F71A5CFDF91CF9159
:101050001F910F91FF90EF90DF90CF90BF90089578
:101060000F931F93CF93DF93EC01688179818A817D
:101070000E94C2098C010E9433090E94DB08B8015A
:10108000CE01DF91CF911F910F910C942F06CF933A
:10109000DF93EC018B819C81892B29F088819981D8
:1010A00089238F3F59F4DF91CF910895CE010E949B
:1010B0003008CE01DF91CF910C943803CE010E940D
:1010C00085038111F3CF0E94D20C882361F38A81BA
:1010D000882349F38091D00282FDE5CF82E0DF9141
:1010E000CF910C946D0D90E080E00E94052290E07D
:1010F00080E00E941B220E94F90C0E94FC0C0E94BE
:101100001C0D0E94F2180C94CB170E94C20C0C9478
:1011100073080E94E90C0C948508E92FE295EF70A2
:10112000E250EE3070F4F0E0E654F44D0C94332BC2
:10113000803F19F020F4883E20F481E00895843F38
:10114000E1F380E00895883EC0F3813FD1F7F5CF09
:1011500093FB882780F90895FC01808191810E948A
:10116000B8090C948D08CF93DF9300D000D00F9274
:10117000CDB7DEB70F900F900F900F900F90DF91CB
:10118000CF910895CF93DF9300D000D000D0CDB79A
:10119000DEB726960FB6F894DEBF0FBECDBFDF9147
:1011A000CF91089508950C94D2080E94D30880939B
:1011B0000B020C94730808950C94D50890910B02BF
:1011C000892B0C94D50890910B0289230C94D50897
:1011D00090910B0289270C94D5080C94D2080C949A
:1011E000ED080E94EF0880930A020C94730880E0D7
:1011F0000C94F10891E001C0990F8A95EAF7892FC4
:101200000C94F10821E030E001C0220F8A95EAF742
:1012100080910A02822B0C94F10821E030E001C099
:10122000220F8A95EAF7209580910A0282230C9476
:10123000F10821E030E001C0220F8A95EAF78091A1
:101240000A0282270C94F10890910A02892B0C94CF
:10125000F10890910A0289230C94F10890910A02F6
:1012600089270C94F1080895E92FEE0FE90FEE0F8E
:101270008E0F982F977041E001C0440F9A95EAF7BE
:1012800086958695869593E0899FF0011124E1511A
:10129000FE4F30E020E070E05191DF011197CB016B
:1012A000022E02C0969587950A94E2F78170819587
:1012B0008527842385278C932F5F3F4F233031056B
:1012C00059F70895E92FEE0FE90FEE0F8E0F982FC3
:1012D000977086958695869523E0829FF00111246C
:1012E000E151FE4F50E040E080E0219130E0092ED6
:1012F00002C0369527950A94E2F721703327042E11
:1013000001C0220F0A94EAF7822B4F5F5F4F4330F0
:10131000510559F70895CF92DF92FF920F931F93D3
:10132000CF93DF936C0100910A0280910B02082B8E
:10133000C7E0D0E010E0FC2EC8010C2E02C095954D
:1013400087950A94E2F780FD0CC02197A0F7F12C55
:101350008F2DDF91CF911F910F91FF90DF90CF9054
:101360000895B6018C2F0E945910019771F3F0CFA8
:10137000CF93DF93EC010E948B09BE01DF91CF91E7
:101380000C9459101F93CF93DF93EB019091EE01D2
:10139000992331F0CB01DF91CF911F910C94B809C3
:1013A000882379F0CB010E948B09182F682FCE017A
:1013B0000E943409BE01812FDF91CF911F910C94BF
:1013C0005910CB010E946209182FF4CF1F93CF93BD
:1013D000DF93C0910C0216E080910D028C1304C0C3
:1013E000DF91CF911F910895D0E01C9FF0011D9FC8
:1013F000F00D1124E25FFD4F4081518162817381C4
:10140000848195810E94C2082196C770E5CF4091E2
:101410003E0250913F0260914002709141028091E2
:101420004202909143020C94C208FF920F931F93C3
:10143000CF93DF9380914302807FD1F4809140026B
:101440008823B1F080910C0210910D0260913E0250
:1014500070913F02A0914102B0914202062F0723F2
:10146000C0910001D091010196E0F92E181306C039
:10147000DF91CF911F910F91FF90089590E0109709
:1014800011F00F3F19F401968770F0CFF89E90018C
:10149000F99E300D1124F901E25FFD4F41814713A0
:1014A000F2CF40814613EFCF42814111ECCF43810F
:1014B00054814A1B5B0B4C175D0728F78091430250
:1014C0008F70806180934302F901ED5EFD4F808152
:1014D0008F70806180838EE392E00E944708DF91E5
:1014E000CF911F910F91FF900C94E609AF92BF929C
:1014F000CF92DF92EF92FF920F931F93CF93DF93E0
:10150000CDB7DEB761970FB6F894DEBF0FBECDBF83
:101510008C0185E0F801DE011D9601900D928A95FF
:10152000E1F7F801E2808EE3C82E82E0D82E6091C8
:101530004102709142026115710509F45FC19091F9
:101540003E0220913F02892F82238F3F09F456C12A
:1015500040815181A380B480F0904002F501E61BE8
:10156000F70BBF01E0910001F0910101FF2009F4A8
:10157000F6C080914302382F307F6E177F0708F046
:10158000AFC0311179C0FE2C251323C0941321C0A4
:10159000E1101FC08F708061809343020E94070A90
:1015A000C6010E94470880914302F80185838F2D70
:1015B00061960FB6F894DEBF0FBECDBFDF91CF911D
:1015C0001F910F91FF90EF90DF90CF90BF90AF9061
:1015D0000895AB2829F0842F85238F3F09F027C178
:1015E00080E0F82FF170DF2E80FF3CC080910C026C
:1015F00020910D0236E0821315C04D875E878D85E0
:101600009E850E94B809292F22952F702230F0F074
:10161000243018F59F70F1F0F8019581907FD1F496
:10162000D12C1EC090E0389FF001399FF00D11249D
:10163000E25FFD4F6181651306C06081641303C0E2
:1016400062816E110FC001968770D5CF9F7011F027
:10165000882331F3805E883018F3C8010E94470860
:10166000FD2CA5CFEE2009F4A2CF8091430281602A
:1016700080934302F12C9BCF251306C0941304C022
:10168000F801EE2009F487C0C8010E94AC08882345
:1016900019F1EE2009F180914302803270F020911F
:1016A0003E0230913F0238872F831986BB86AA8677
:1016B0008C87CE0107960E94470886E0F801AEE3CA
:1016C000B2E001900D928A95E1F70E94150A0E94FE
:1016D000070AFF24F3946BCFC8010E944708F9CF93
:1016E000311113C07A2DB98AA88A6E2D89890E947A
:1016F000B3088EE392E00E94470886E0F60111925B
:101700008A95E9F70E94070AB5CF25130FC09413F5
:101710000DC0E1100BC0F8018583C8010E94470885
:1017200086E0F60111928A95E9F741CFC8010E943F
:10173000AC08882389F2EE2079F28091430280324E
:1017400008F4BBCF20913E0230913F023A832983B7
:101750001B82BD82AC828E83CE010196ACCF6E1708
:101760007F0708F03EC0FE2CEE2009F4B5CF25130C
:101770002AC0941328C08091430280FD1BC0982F7B
:10178000907FC1F0F8018583903F31F0982F907FD2
:10179000905F8F70892B8583C8010E94470886E07F
:1017A000F801AEE3B2E001900D928A95E1F70E9454
:1017B000070AFDCE86E0F801AEE3B2E001900D929B
:1017C0008A95E1F7F4CEC8010E94AC08811175CF6B
:1017D00080914302816080934302C8010E944708C0
:1017E000E6CE7A2DB98AA88A6E2D89890E94B3081F
:1017F00086E0F60111928A95E9F7D9CFEE2009F437
:101800006BCFC8010E94AC08F82E882309F464CF7E
:1018100086E0F801AEE3B2E001900D928A95E1F71F
:101820008EE392E00E9415050E94150AC0CF81E068
:101830008E25D7CE1F93CF93DF93CDB7DEB72C97EE
:101840000FB6F894DEBF0FBECDBF4F8358876987B0
:101850007A878B879C87CE0107960E94760A882319
:1018600069F08A859B85892B39F04F815885842FB3
:1018700085238F3F09F071C016E05FC086E0FE014E
:101880003796DE01119601900D928A95E1F78A85CF
:101890009B85892B89F388859F8189238F3F61F3FD
:1018A00020910D0230E0C90101968770992740917F
:1018B0000C024817190671F40E94890810920D0253
:1018C00010920C0286E0EEE3F2E0DF011D928A95B1
:1018D000E9F7D2CF96E0929FD001939FB00D1124EB
:1018E000A25FBD4FFE01319601900D929A95E1F7EE
:1018F00080930D020E94E609BFCF819FC001112491
:10190000825F9D4F0E94760A8823E9F0E0910C02E5
:101910001E9FF0011124E25FFD4F408151816281E1
:101920007381848195810E94C20880910C0290E0AD
:1019300001968770992780930C0280910C029091F8
:101940000D028913DACF2C960FB6F894DEBF0FBEC6
:10195000CDBFDF91CF911F91089569857A858B85E1
:101960009C850E94C20888CF682F809102019091C7
:1019700003010C947922682F809102019091030158
:101980000C947B2280910201909103010C947D22A2
:1019900080914402859585958595089580914402AE
:1019A0008770089590914402977081E009F480E077
:1019B000089580915002089590915002892B809350
:1019C0005002089580959091500298239093500270
:1019D000089510925002089590914F02892B8093A0
:1019E0004F020895809590914F02982390934F0253
:1019F000089510924F02089510924E02089580911A
:101A00004502089508950C94020D9091D00292FD24
:101A100008C090914502981721F0809345020C94DC
:101A2000030D089580914502882329F01092450204
:101A300080E00C94030D0895E0910201F091030100
:101A4000809150028083E0910201F0910301808136
:101A500090914F02892B8083E0910201F091030164
:101A6000808190914E02892B808390914502992329
:101A700081F0E0910201F09103018081892B808344
:101A800080910201909103010E94312281110E94F4
:101A9000120D80910201909103010C94EC210895A4
:101AA0000C944F0D9091D00292FD10C098E0899F48
:101AB00090011124622B609344020E9402098091DC
:101AC00044028595859585950C94500D0C940209DA
:101AD0001092440280E00C94500D90914402809545
:101AE000892380934402282F277091F4282F082EF1
:101AF000000C330B9217130659F09091D00292FD0F
:101B000007C08595859585950E940D090C94680DF3
:101B100008959091D00292FB222720F9281769F0AE
:101B200080FB92F99093D0028091CF029091D002E5
:101B30000E94D40D82E00C946D0D08958091D00226
:101B400082FB882780F991E089270C94890D81E038
:101B50000C94890D80E00C94890D6FEF7FEF90E07D
:101B600080E00C94962B90E080E00E94722B893EDE
:101B70009E4F11F40C94001980E0089582E090E0EB
:101B80000C946A2B83E090E00C946A2BCF9384E052
:101B900090E00E946A2BC82F82E290E00E946A2B9C
:101BA000982F8C2FCF910895CF93C92F682F84E061
:101BB00090E00E94782B6C2F82E290E0CF910C9401
:101BC000782BAB01BC018FE090E00C948A2BAB0129
:101BD000BC0183E190E00C948A2B60E070E0CB01C3
:101BE0000C94E70D60E070E0CB010E94E10D0C94D5
:101BF000ED0D69EE7EEF90E080E00E94962B60E0B4
:101C000082E090E00E94782B60E083E090E00E9408
:101C1000782B10920B0260E084E090E00E94782B19
:101C200060E082E290E00E94782B60E085E090E046
:101C30000E94782B60E086E090E00E94782B6FEFA6
:101C400087E090E00E94782B40E050E0BA0188E005
:101C500090E00E948A2B60E08DE090E00E94782B5B
:101C600040E050E0BA0188E190E00E948A2B60E0F9
:101C700087E190E00E94782B40E050E0BA018CE1CF
:101C800090E00E948A2B70E060E080E290E00E9489
:101C9000962B40E050E0BA0188E190E00E948A2B48
:101CA00080E00E9419190E943F190C94F20D0C94C7
:101CB000F90D8EE090E00E946A2B91E0811101C045
:101CC00090E0892F0895682F8EE090E00C94782B97
:101CD0000E942023609366027093670280936802DB
:101CE000909369026093620270936302809364022E
:101CF0009093650208950E9420236093660270937A
:101D00006702809368029093690260935E02709309
:101D10005F028093600290936102089585B78068A6
:101D200085BF85B7806885BF0895089508950C9490
:101D3000950E08950C94990E0E948E0E88E791E1FD
:101D40000E94CF210E94960E0C94970E0C94C21301
:101D5000089508950E94A80E0C94A90E0E940B23CA
:101D60000E9437110E944E190E945F120E94471A6A
:101D70000E941E1D0C949A0E9F92AF92BF92CF921A
:101D8000DF92EF92FF920F931F93CF93DF93CDB724
:101D9000DEB72A970FB6F894DEBF0FBECDBF0E9404
:101DA000361381110E94680E82E5A82E82E0B82EBB
:101DB00010E000E0902E802F0E94B211E82EF50175
:101DC000C1905F01C81609F453C080916A0281FD79
:101DD0000E94B811D12CFF24F394CE248C2D8F2196
:101DE00009F441C00E94A60E882399F0DE829F82EA
:101DF000EF2081E009F480E088870E94142381604D
:101E0000782F9A8789874E815F8168858A850E94AD
:101E1000D704F801EE5AFD4F8081F826F0820E9427
:101E2000C21D81110E947B0E0E94E6170E94D921DB
:101E300090915102891799F10E94D9218093510202
:101E40002A960FB6F894DEBF0FBECDBFDF91CF91BB
:101E50001F910F91FF90EF90DF90CF90BF90AF90C8
:101E60009F900C94CF04D394FF0CF6E0DF12B6CF12
:101E70000F5F1F4F0C30110509F09CCF8FEF898346
:101E80008A831B820E9414238160782F9D838C8318
:101E900049815A816B818D810E94D704C0CF2A96D7
:101EA0000FB6F894DEBF0FBECDBFDF91CF911F916B
:101EB0000F91FF90EF90DF90CF90BF90AF909F90E9
:101EC0000895CF93DF930E945D10EC01811521E509
:101ED000920708F042C0811530E5930708F09DC0D5
:101EE000883E910530F5803E910508F092C0883A11
:101EF000910588F4853A910508F084C081309105F8
:101F000009F487C0009709F484C0049708F081C0E1
:101F1000D0E0C0E07EC08F3B9105D0F7C85AD0E03A
:101F2000CC0FDD1FC756DE4F0990D881C02DD46479
:101F300070C08115904250F4C11581E0D80708F0B7
:101F400068C0C03FD10520F3D06563C0C11590E4DF
:101F5000D907F0F2DF70D06A5CC0811525E59207E1
:101F600000F5811534E5930708F08BC0811543E532
:101F7000940708F073C0C11582E5D80708F469C05A
:101F8000CE018370992721E030E002C0220F331F79
:101F90008A95E2F7C695C69580E2C89FE0011124B4
:101FA00054C0C11599E5D907A8F4C11528E5D20791
:101FB00008F06CC0C11536E5D30708F0A9CF8C2F07
:101FC0000E94F410C82FD0E0DC2FCC27CC27DF7183
:101FD000D0621FC0C1154AE5D40708F45CC0CE0129
:101FE00090568115904208F093CF8D2F8F710E94EB
:101FF000F41090E0982F882788279F719C012C2B44
:10200000E901E6CFC55AD0E0C953DE4FC881D0E020
:10201000D064CE01DF91CF910895E4E09695879545
:10202000EA95E1F783702C2F26952695237040E2E0
:10203000249F90011124382B8C2F8370C1E0D0E0B5
:1020400002C0CC0FDD1F8A95E2F7C22BD32BDC68D0
:10205000E0CFDC2FCC27C16FD06ADBCF837099270C
:1020600021E030E002C0220F331F8A95E2F7C695C7
:10207000C69590E2C99FE0011124C22BD32BDA68E8
:10208000C8CFD82FCC27C46FD06AC3CFDC2FCC27C2
:10209000C06FD06ABECF8C2F8F700E94F41034E0D6
:1020A000D695C7953A95E1F7CF709C2FEC01D06992
:1020B000B0CF0E94511C0C94610F82389105B1F190
:1020C000B0F48133910509F475C048F48932910563
:1020D00009F469C08A32910509F473C00895853303
:1020E000910509F459C08933910501F10895833EA2
:1020F0009105A9F138F4803E9105F9F0823E9105F1
:1021000049F10895863E9105A9F1873E9105C9F1EF
:10211000843E910519F52091D00221FF1FC08091C6
:10212000CF0284FD14C087EE90E008952091CF0285
:102130002370A1F080EE90E008952091CF0220FD61
:1021400047C03091D00230FF09C024FF44C090E066
:1021500080E004C02091CF0222FDF7CF08952091A6
:10216000CF0222FD3BC03091D00230FDE3CF24FFEF
:10217000F5CFEDCF2091CF0223FFF0CF24FDE7CFA5
:10218000D2CF2091CF0223FD2CC03091D00231FF5D
:10219000EECF84EE90E008952091CF0225FFDECFB0
:1021A00089E290E008952091CF0225FFD7CF85E303
:1021B00090E008952091CF0226FFD0CF8AE290E0F0
:1021C00008952091CF0226FFC9CF81E390E00895C2
:1021D00089E390E0089583EE90E0089582EE90E028
:1021E000089586EE90E008959091CF0292FF06C088
:1021F000282F28712830F9F4877F846093FF06C068
:10220000282F28712831F1F4877E84612091D00233
:1022100020FF06C0382F38713830D9F4877F8160AD
:1022200021FF06C0282F28712831D1F4877E8161D3
:1022300094FD877E0895282F24712430F9F68B7F32
:102240008860DCCF282F2471243101F78B7E8861D0
:10225000DDCF382F3171313019F78E7F8860E0CFB4
:10226000282F2171213121F78E7E8861E1CF1092D4
:10227000CB021092CC021092CD021092CE020895A1
:10228000CF92DF92EF92FF926B017C010E94C2130A
:1022900081110EC00E942023C61AD70AE80AF90A43
:1022A000C092CB02D092CC02E092CD02F092CE024C
:1022B000FF90EF90DF90CF9008950F931F930E94AF
:1022C000C213882321F01F910F910C9420230E94A8
:1022D00020230091CB021091CC022091CD023091AD
:1022E000CE02600F711F821F931F1F910F910895DF
:1022F00080E008950C94AD0D0E9436138FE39CE9A5
:102300000197F1F700C000000E94361380E00E94A0
:10231000B21180FF04C00E947A110C947B230895AF
:102320000C947C110E94B30D811102C00E94570EC3
:102330000E94BE0D80936A020E94C60D9093D00247
:102340008093CF020E9490110E94C20D0E94DC086F
:1023500080910A020C94EF0808950C94AC11089532
:102360000C94AF11E82FF0E0E352FD4F8081089507
:10237000089580EA8A95F1F7089500C008950C94B5
:10238000B911F894E82FE295EF70F0E031A1282F11
:102390002F7081E090E001C0880F2A95EAF7982F0E
:1023A0009095932391A392A1892B82A37894089569
:1023B00008950C94D8110F931F93CF93DF93CAE025
:1023C000D1E089918F3F11F00E94C11181E0C031AD
:1023D000D807B9F7C4E0D1E00AE011E089918F3F56
:1023E00011F00E94C1110C171D07C1F7DF91CF91A9
:1023F0001F910F910895CF92DF92EF92FF920F936A
:102400001F93CF93DF93EC01D62E062F10E0C80167
:10241000865F9E4F7C01FC0180818F3F09F444C0A0
:10242000F894E82FE295EF70F0E091A18F7021E031
:1024300030E001C0220F8A95EAF7892F822B81A311
:1024400082A12095282322A378940E94BD11E4E064
:10245000F1E031E0C12C21912F3F79F1A22FA2951B
:10246000AF70B0E090968C9190E02F7002C095957F
:1024700087952A95E2F780FD20C0832FC82A330F65
:1024800081E0EA30F80739F7F70180818F3F11F0DA
:102490000E94C11161E0C11001C060E08D2D0E9459
:1024A000BF11C00FD11FC882DF91CF911F910F9133
:1024B000FF90EF90DF90CF90089580E0DFCFCF9333
:1024C000DF93CDB7DEB762970FB6F894DEBF0FBECD
:1024D000CDBF0E94E51380911601811134C0FE0129
:1024E000379686E0DF011D928A95E9F783E38983B9
:1024F00087E38A8384E98B8386E38C8386E68D83F6
:1025000087E68E83CE010196EAE0F1E09E01235F2B
:102510003F4FDC014D91CD014193A217B307C9F79D
:1025200026E0E2E6F1E0DE011D9601900D922A958B
:10253000E1F7FC01A4E0B1E0CE01439621912D9397
:10254000E817F907D9F78091160196E0811190E01C
:102550009093EA0286E0891B8093E9020E94DB11D6
:102560008CE0EDEDF2E0DF01982F1D929A95E9F7EE
:10257000E1EDF2E0DF011D928A95E9F786E00E9425
:1025800089130E94690362960FB6F894DEBF0FBEEE
:10259000CDBFDF91CF910C94EF13EF92FF920F9389
:1025A0001F93CF93DF9300D000D000D0CDB7DEB71C
:1025B0000E94C213F82E6091EA02882309F449C0F0
:1025C00086E0E82E8E010F5F1F4FF8018E2D1192CD
:1025D0008A95E9F7862F90E0B80183529D4F0E94BB
:1025E000FD13882301F18091E90290E046E050E07C
:1025F000B80183529D4F0E94542B21E020936B021F
:10260000892BD9F4F12C0E946F038F2D26960FB6DB
:10261000F894DEBF0FBECDBFDF91CF911F910F9118
:10262000FF90EF90089580916B02882359F3F80191
:102630001192EA94E9F710926B02A091E902B0E0DE
:10264000A352BD4F86E0F80101900D928A95E1F703
:10265000DACF70E063527D4F8091E90290E08352BF
:102660009D4F0E948A140E94D911CFCFEF92FF9202
:102670000F931F93CF93DF93CDB7DEB72C970FB691
:10268000F894DEBF0FBECDBF8E010F5F1F4F8CE0F1
:10269000F80111928A95E9F7F12C6F2DC8010E947B
:1026A000FB11F394F6E0FF12F8CF4CE050E0B801D4
:1026B00081ED92E00E94542B7C0121E0892B09F4EA
:1026C00020E0E114F10441F08CE0F801A1EDB2E06A
:1026D00001900D928A95E1F76091EA0270E06352F1
:1026E0007D4F46E081ED92E00E948A1381E090E008
:1026F000EF2811F40E94CD122C960FB6F894DEBF8D
:102700000FBECDBFDF91CF911F910F91FF90EF9042
:1027100008950895FF920F931F93CF93DF93F82EA0
:10272000092F162FD72FC42F222349F081E0809341
:102730006E020E94142390936D0280936C0280912C
:102740006E028823A1F080916C0290916D020E942C
:102750002C23059760F0EF2DF02FA12FBD2FCE0F6A
:10276000DF2FD11DEC17FD0741F410926E02DF91AF
:10277000CF911F910F91FF90089581918D93F2CF8A
:102780000C94590ECF9380917102811116C0C8EC40
:102790000E94192B81110EC08FE39CE90197F1F77C
:1027A00000C00000C150A1F782E0809371020E9436
:1027B000142B03C081E08093710281E0909171023B
:1027C000913009F080E0CF9108950E94C01380936A
:1027D00016010E94C21381110C94331408950E94B3
:1027E000C213811102C00C943514089581E09091B8
:1027F00072029A3008F080E008950F931F93CF93F0
:10280000DF93EC018B01809172028A30B8F4B80139
:10281000CE010E948814C82F811122C080917202BB
:102820008F3FB9F40E9414239093700280936F023B
:102830008C2FDF91CF911F910F91089580916F029E
:10284000909170020E942C23843F914000F7C0E0D9
:10285000EFCF8F5F809372028A3020F7C1E0E8CF1C
:1028600010927202E5CF0C940E200C941120EF927E
:10287000FF920F931F93CF93DF937901C82F880F97
:10288000DD0B41155105A9F08AE08C9FF0018D9F69
:10289000F00D1124E95EFE4F838194818D589D4F88
:1028A000228130E04217530708F49A01A9010E94DF
:1028B000612BCE010E941B21892B11F501151105F9
:1028C000E9F08AE08C9FF0018D9FF00D1124E95E04
:1028D000FE4F458150E00417150708F4A8018AE06F
:1028E0008C9FF0018D9FF00D1124E95EFE4F6681F3
:1028F00077816D587D4FC7010E94612B81E001C037
:1029000080E0DF91CF911F910F91FF90EF9008959C
:102910000C94E5150C9409160F931F93CF93DF9336
:1029200000D000D0CDB7DEB76091930270919402D1
:1029300080919502909196020E943B2311E06436AB
:1029400071058105910518F10E945D116E5F7F4F41
:102950008F4F9F4F69837A838B839C8310E000E0C5
:1029600030E020E044E050E0BE016F5F7F4F84E044
:102970000E943714182F882351F00E94202360935F
:102980009302709394028093950290939602812F04
:102990000F900F900F900F90DF91CF911F910F919B
:1029A00008957F928F929F92AF92BF92CF92DF92C3
:1029B000EF92FF920F931F93CF93DF930F92CDB7B8
:1029C000DEB7762E4A015901680101E010E09E0150
:1029D0002F5F3F4F50E040E070E060E00E9437140E
:1029E000182F882309F43EC0F4016081718182812F
:1029F00093810E943B23643671058105910558F14E
:102A00008701950150E040E070E060E0872D0E9472
:102A10003714B82EB701C6010E94481A11E09981F7
:102A2000981310E01B2139F00E942023F4016083E9
:102A3000718382839383812F0F90DF91CF911F91B8
:102A40000F91FF90EF90DF90CF90BF90AF909F904D
:102A50008F907F900895B701C6010E94481A99810E
:102A60008913CECFA701B601C5010E94612BE3CF28
:102A7000EF92FF920F931F93CF93DF9300D0CDB7C8
:102A8000DEB70091CA011091CB01085F1F4F82E0B1
:102A9000E82EF12C9E012F5F3F4F4FE852E063E09C
:102AA00082E00E94D114182F882321F0CE010196D4
:102AB0000E94631E812F0F900F90DF91CF911F9185
:102AC0000F91FF90EF900895CF92DF92EF92FF92D7
:102AD0000F931F93CF93DF9300D000D000D0CDB7DA
:102AE000DEB76B010091CA011091CB010F5F1F4F40
:102AF00086E0E82EF12C9E012F5F3F4F4BE852E01D
:102B000061E080E00E94D114882349F096E0FE0144
:102B10003196A5E8B2E001900D929A95E1F796E022
:102B2000E5E8F2E0D60101900D929A95E1F726963C
:102B30000FB6F894DEBF0FBECDBFDF91CF911F91CE
:102B40000F91FF90EF90DF90CF900895AF92BF92DA
:102B5000CF92DF92EF92FF920F931F93CF93DF9369
:102B60007C015B016A010E94F61301E010E08823FA
:102B700011F00AE010E0C1E0D0E0F894B501C7011F
:102B8000F60109957894811104C021960C171D0750
:102B90005CF4DF91CF911F910F91FF90EF90DF9048
:102BA000CF90BF90AF900895CC9F9001CD9F300DF6
:102BB000300D112490E080E045E34A95F1F70000E4
:102BC000019682179307C1F7D8CF0F931F93CF9326
:102BD000DF93EC018B0144E655E10E94A6158823A2
:102BE00091F048E355E1B801CE010E94A615882373
:102BF00051F04CE854E1B801CE01DF91CF911F9123
:102C00000F910C94A61580E0DF91CF911F910F9149
:102C100008950F931F93CF93DF9300D0CDB7DEB706
:102C2000F8940091CA011091CB01C801019626E0E9
:102C3000FB01DC0101900D922A95E1F766E070E05E
:102C40000E94481AF80180837894F894CE01019686
:102C50000E94591E89819A81F8019187808762E0DC
:102C600070E0CE0101960E94481AF801878378949B
:102C7000F894628573858485958500918102109111
:102C800082022091830230918402601771078207CB
:102C9000930751F0609381027093820280938302C4
:102CA000909384020E94401178940F900F90DF91CE
:102CB000CF911F910F9108950E9463250E94AE0E3F
:102CC0000C946F250E9473250E94BC0E0C948D25D8
:102CD0000E949E220E944A250E949C0E0E945C1621
:102CE0000E9462160E94AA0EFBCF80919D0280FF77
:102CF00012C060914E0185E0689FB0011124759566
:102D000067957595679560387105A8F5611571052A
:102D1000A1F1862F089581FF09C060914E0185E0E1
:102D2000689FB001112475956795EDCF60914E01B4
:102D300082FD0AC080919C028823D1F090914D01C0
:102D400060914E01891728F085E0689FB001112439
:102D5000DACF869FB001112485E0869F9001879F7E
:102D6000300D1124692F70E0C9010E941F2BCBCFB9
:102D700065E070E0CECF8FE7089581E008958091FF
:102D80009D0280FF0CC060914A0170E075956795C7
:102D9000759567956115710549F1862F089581FF35
:102DA00006C060914A0170E075956795F3CF609118
:102DB0004A0182FD0BC090919B029923A1F0609182
:102DC000490180914A01961738F0682F70E0603809
:102DD000710500F38FE70895899FC001112470E009
:102DE0000E941F2BF4CF61E070E0D7CF81E00895FF
:102DF000803F31F40E94751681958093A102089559
:102E0000813F19F40E947516F8CF823F31F40E9479
:102E1000751681958093A0020895833F19F40E944E
:102E20007516F8CF893F29F40E94BF168093A2023D
:102E300008958A3F21F40E94BF168195F7CF8B3FFA
:102E400031F40E94BF1681958093A30208958C3FB0
:102E500019F40E94BF16F8CF9CE0980F953070F4DB
:102E6000845F990B21E030E001C0220F8A95EAF7D8
:102E700080919F02822B80939F0208958D3F31F4B1
:102E800080919D02816080939D0208958E3F21F480
:102E900080919D028260F7CF8F3FB9F780919D02AC
:102EA0008460F1CF4091A002803F59F48091A1024B
:102EB00087FF0DC01092A10241110BC010929C021D
:102EC00008C0813F81F48091A10218169CF344232D
:102ED00081F08091A2029091A302892B09F05AC03F
:102EE00010929B020895823F49F447FFF0CF109261
:102EF000A0028091A1028111ECCFE0CF833F19F4B1
:102F00001416ACF3E4CF9091A202893F29F419166C
:102F1000F4F61092A202DBCF8A3F19F497FFD7CFC5
:102F2000F8CF9091A3028B3F29F497FFD0CF109256
:102F3000A302CDCF8C3F19F41916CCF3C8CF9CE077
:102F4000980F953090F4845F990B21E030E0B9013F
:102F500002C0660F771F8A95E2F7CB0180959091AA
:102F60009F02892380939F02B2CF8D3F31F48091DD
:102F70009D028E7F80939D02AACF8E3F21F4809187
:102F80009D028D7FF7CF8F3F09F0A1CF80919D02E9
:102F90008B7FF0CF08950E9414239C019091A00292
:102FA0008091A102982B21F030939A0220939902EC
:102FB0009091A2028091A302982B21F03093980265
:102FC000209397028EE992E00C94F721EF92FF9202
:102FD0000F931F93CF93DF9300D000D000D0CDB7D5
:102FE000DEB786E0EEE9F2E0DE01119601900D9287
:102FF0008A95E1F7E090A002F090A1020091A20270
:103000001091A3021092A0021092A1021092A202AB
:103010001092A3028E2D8F2991F0809199029091A8
:103020009A020E942C23AC0190919C02992309F4EE
:103030003FC080914F018417150608F447C0802FC8
:10304000812B91F080919702909198020E942C23FD
:10305000AC0190919B02992309F477C080914B01B8
:103060008417150608F47FC08091A0029091A102F8
:10307000892B9091A202892B9091A302892B11F0A8
:103080000E94CB1786E0FE013196AEE9B2E00190D6
:103090000D928A95E1F726960FB6F894DEBF0FBE23
:1030A000CDBFDF91CF911F910F91FF90EF900895C9
:1030B000209150018AE0289F9001112424173507A0
:1030C00008F0BDCF9F5F90939C0202C09F3FD1F755
:1030D000EE2059F00E9475169FEF1E140CF491E03B
:1030E000899F802D11248093A002FF2059F00E9417
:1030F00075169FEF1F140CF491E0899F802D112409
:103100008093A1023091A002332309F498CF20913B
:10311000A102222309F493CF45EB3403C00111240B
:10312000992359F09093A00245EB240390011124B8
:10313000332339F03093A10282CF81E08093A00243
:10314000F3CF81E08093A1027ACF20914C018AE0F5
:10315000289F900111242417350708F085CF9F5F21
:1031600090939B0202C09F3FD1F7002359F00E9429
:10317000BF169FEF10160CF491E0899F802D11244B
:103180008093A202112359F00E94BF169FEF1116DF
:103190000CF491E0899F802D11248093A30230913B
:1031A000A202332309F460CF2091A302222309F461
:1031B0005BCF45EB3403C0011124992359F0909360
:1031C000A20245EB240390011124332339F03093FC
:1031D000A3024ACF81E08093A202F3CF81E08093E3
:1031E000A30242CF86E0EEE9F2E0DF011D928A956C
:1031F000E9F710929C0210929B0210929D02089592
:1032000083E290E00E946A2B813289F484E290E0AC
:103210000E946A2B813159F485E290E00E946A2B6A
:1032200091E0863209F090E0892F8170089580E066
:10323000FCCFCF93C82F6FEF811161E283E290E062
:103240000E94782B6FEFC11161E184E290E00E944F
:10325000782B6FEFC11166E285E290E0CF910C947C
:10326000782B089586E290E00E946A2B682F70E028
:1032700090E080E0089586E290E00C94782B80E066
:103280000E94191960E070E0CB010E943B190E9476
:10329000C91B0E94B51C81E00C9419190E943119B8
:1032A0000E940019811102C00C943F190895CF9318
:1032B000FB01C281CC2309F19C0122513F45203101
:1032C000310520F582510E94C51CC0E08C2FCF91A2
:1032D000089581E00E94020943E062E081E00E94DB
:1032E0006003F3CF81E00E940D0943E062E081E0DA
:1032F0000E946003EBCF82E0F6CF8031FFE59F07AD
:1033000089F381319F45B9F3C1E0E0CF8031EFE52A
:103310009E07F9F281319F45C9F682E0DBCF2FEF9E
:10332000FC0120830895EF92FF920F931F93CF9398
:10333000DF93EC01062FE881E150E33108F05EC035
:10334000F0E0E853F44D0C94332B198289E08A8322
:10335000602FCE01DF91CF911F910F91FF90EF90E1
:103360000C9423248981823069F0833071F081309C
:10337000D9F40E9420230E94392B6A837B838C839B
:103380009D83E6CF0E943219F6CF7E0182E0E80EDF
:10339000F11C10E0812F0E94B211F70181937F018F
:1033A0001F5F1C30B9F7D4CF602FCE010E948F1958
:1033B000CFCF89818230C1F76A817B818C819D81E9
:1033C0000E94392B0E943B19C3CF4B816A818981AE
:1033D0000E949B1B9827892798279D838C83B8CFB1
:1033E0002C813D813227232732274B816A818981B5
:1033F0000E94B41BADCF0E94C91BAACF8FEF888358
:10340000A7CF0E945E1C8983A3CF0E94601C9827CF
:10341000892798279A8389839BCF6B8170E0898164
:103420009A81AE014C5F5F4F9827892798270E94A9
:10343000631C8ECF6B8170E089819A81AE014C5FF5
:103440005F4F9827892798270E948A1C81CF0E9466
:10345000B51C7ECF0E94891BD6CF6B8170E089811D
:103460009A81AE014C5F5F4F9827892798270E9469
:10347000011C6ECF6B8170E089819A81AE014C5F37
:103480005F4F9827892798270E94271C61CF0895AE
:10349000FC01680F791F8FEF91E3E617F70709F436
:1034A00008952191822728E030E087FF06C0880F29
:1034B000892721503109C9F7F0CF880FFACFCF9370
:1034C000DF93EC01FB018281882309F420C1C33022
:1034D000FDE5DF07C8F5CA3F9CE5D90730F49E013A
:1034E00022503C452431310598F50E94C60D909339
:1034F000D0028093CF02C031FCE5DF0709F4E0C0C1
:1035000008F061C0C8309CE5D90709F4CBC088F544
:10351000C430FCE5DF0709F4B3C0E8F4C2309CE531
:10352000D90709F4A7C08091CF028260C330DC457F
:1035300009F4A3C08091CF029091D0020E94D40DD3
:103540000E94890880E004C0C136EDE5DE0769F21B
:10355000DF91CF9108958091CF028061C630FCE564
:10356000DF0709F48AC008F48FC08091CF0280621F
:1035700084C08091CF028D7FCC309CE5D90709F4BF
:103580007CC070F48091CF028C60CA30FCE5DF070C
:1035900009F473C008F48AC08091CF028E7F6DC099
:1035A0008091CF02877FCE309CE5D90709F465C0B2
:1035B0008091CF028B7FCF30DC4508F45EC08091D4
:1035C000CF028F7E5AC0CC3FFCE5DF0709F474C000
:1035D00040F5C4319CE5D90709F48AC058F4C231DA
:1035E000FCE5DF0709F474C008F46EC08091CF02D7
:1035F000837F43C0CA3F9CE5D90709F449C008F05E
:103600004DC0C531DC4509F095CF8091CF0282FBDA
:10361000992790F921E0922790FB82F990FB83F99A
:103620002CC0C1158DE5D80709F458C088F48091E5
:10363000D0028360CE3FECE5DE0769F18091D002D5
:103640008D7FCF3FDC4538F18091D0028C7F23C045
:10365000C2308DE5D80709F458C008F452C0C1360D
:10366000DD4509F067CF9091CF02892F8F7E94FFBF
:10367000806103C08091CF0281608093CF025ACFD6
:103680008091CF028460F9CF8091CF028860F5CF1E
:103690008091D00281608093D0024CCF8091D00283
:1036A0008260F9CF8091CF028064E7CF0E948908C1
:1036B0008091CF028068E1CF8091D0028E7FEBCFE6
:1036C0008091CF028F7DD9CF8091CF028F7BD5CFD4
:1036D0000E9489088091CF028F77CFCF8091D0024E
:1036E000982F909591708E7F892B90FB81F9D3CF85
:1036F0000E9489089091CF02892F97FB87F9805803
:10370000BCCF81E00E94630E15CF80E0FBCF81E04B
:103710001FCF84E0089550E0440F551F9CE0699F3F
:10372000400D511D112490E9899F400D511D112418
:10373000CA01879608950F931F93CF93DF930E943A
:103740008B1B8C010E946A2BC82FD0E0DC2FCC276A
:10375000C80101960E946A2B9E01282BC901DF91A6
:10376000CF911F910F9108950F931F93CF93DF93E4
:10377000122F032F0E948B1BEC01602F0E94782BCD
:10378000612FCE010196DF91CF911F910F910C9483
:10379000782BAF92BF92CF92DF92EF92FF921F935E
:1037A000CF93DF938CEAC82E80E0D82ED0E076014C
:1037B000C0E014C0F50125913491412F6C2F8D2F5D
:1037C0000E94B41B82E0A80EB11C1F5F163091F757
:1037D0008CE0E80EF11CCF5FCC3019F0570110E0FF
:1037E000E9CFDF5F80E9C80ED11CD43001F7DF914B
:1037F000CF911F91FF90EF90DF90CF90BF90AF904F
:103800000895EF92FF920F931F93CF93DF93EC01F4
:103810008A017C01E60EF71ECE018796CE15DF05E4
:1038200039F4DF91CF911F910F91FF90EF900895A0
:10383000C03422E0D20740F40E946A2BF801808352
:103840000F5F1F4F2196E8CFF8011082F9CFCF927A
:10385000DF92EF92FF920F931F93CF93DF937C0140
:103860006A018C01060F171FEC01CE018796C01765
:10387000D10749F4DF91CF911F910F91FF90EF9005
:10388000DF90CF900895C03422E0D20740F4FE01CB
:10389000EE19FF09EC0DFD1D60810E94782B219629
:1038A000E4CF462F843038F47C3028F4663018F4A6
:1038B000672F0C949B1B90E080E0089580E10895B1
:1038C00089E991E00895EF92FF920F931F93CF93B0
:1038D000DF93EC018A017C01E60EF71ECE018959C7
:1038E0009D4FCE15DF0539F4DF91CF911F910F91D8
:1038F000FF90EF900895C93921E0D20740F40E946B
:103900006A2BF80180830F5F1F4F2196E7CFF801E4
:103910001082F9CFCF92DF92EF92FF920F931F9315
:10392000CF93DF937C016A018C01060F171FEC0116
:10393000CE0189599D4FC017D10749F4DF91CF912E
:103940001F910F91FF90EF90DF90CF900895C939AC
:1039500021E0D20740F4FE01EE19FF09EC0DFD1D38
:1039600060810E94782B2196E3CFCF93DF93C7E647
:10397000D2E060E0CE010E94782B2196C11584E050
:10398000D807B9F7DF91CF910895DF92EF92FF92B8
:103990000F931F93CF93DF9300D000D0CDB7DEB746
:1039A000F82E8FE08F1540F08FEF93E00E946A2B86
:1039B00007E612E08823C1F00F900F900F900F9050
:1039C000DF91CF911F910F91FF90EF90DF900895BD
:1039D000011584E0180781F3C8010E946A2B811148
:1039E00001C0FA940F5F1F4FF110F2CF19821A82B3
:1039F0001B821C82DD24D39478018FEFE81AF80A29
:103A0000C8010E946A2B89831A828823A9F29FEF3A
:103A1000980F933078F48A83D9820E5F1F4FC701C5
:103A20000E946A2B8B83882339F2CE0101960E9473
:103A3000B304E2CF8701F9CF0C94D2020F931F9306
:103A4000CF93DF9380911601882309F487C081E02A
:103A50008093AA0224E531E03093A7022093A602C6
:103A600023E531E03093A5022093A4021092A9022D
:103A70008093A802A091A602B091A702E091A402AF
:103A8000F091A5022091A90230E05C91C52FC2956A
:103A9000CF70D0E069A15F7081E090E08C0102C03E
:103AA000000F111F5A95E2F7A8014095462349A33C
:103AB0004C91C42FC295CF70D0E05AA14F70BC0179
:103AC00001C0660F4A95EAF7452F462B4AA350815D
:103AD000C52FC295CF70D0E069A15F708C0102C084
:103AE000000F111F5A95E2F7A8014095462349A3FC
:103AF0004081C42FC295CF70D0E05AA14F7001C051
:103B0000880F4A95EAF7852B8AA34C91A42FA2959A
:103B1000AF70B0E090968C9190E04F7002C0959598
:103B200087954A95E2F781709081E92FE295EF70D1
:103B3000F0E040A150E09F7002C0559547959A95DE
:103B4000E2F790E040FD92E021553D4F892BF901CD
:103B50008083DF91CF911F910F91089581E0809331
:103B6000AA0222E531E03093A7022093A60221E5C4
:103B700031E03093A5022093A4028093A902109211
:103B8000A80278CFBF92CF92DF92EF92FF920F936D
:103B90001F93CF93DF93F12CE12C84E0C82ED12C1E
:103BA0008091AA02F81658F08E2DDF91CF911F91C7
:103BB0000F91FF90EF90DF90CF90BF900895B0905D
:103BC000A9024F2D50E0DA01AB0DB11DA155BD4F3B
:103BD000EC91EE0FEE0FEC938091A6029091A7026C
:103BE000840F951FEC018881282F22952F70C22FFA
:103BF000D0E028A130E08F7002C0359527958A95D6
:103C0000E2F7217033278091A4029091A502480F1A
:103C1000591FEA018881482F42954F70C42FD0E088
:103C200048A150E08F7002C0559547958A95E2F7FC
:103C3000CA018170992740FF02C082E090E0282BE2
:103C4000E22BEC93BF0C0B2D0B2C000C110BEF7027
:103C5000F0E0E453FE4FE801C355DD4F80819881C9
:103C6000890F888320E084305CF0F801E555FD4F32
:103C700080818F5F808360E08B2D0E941C1D21E07E
:103C800088818D3F5CF4F801E555FD4F80818150BE
:103C9000808361E08B2D0E941C1D21E08881082E0D
:103CA000000C990BB6010E941F2B8883E22AF39423
:103CB00077CF4091AA0250E06091A90270E065556B
:103CC0007D4F0C94612BAF92BF92CF92DF92EF9217
:103CD000FF920F931F93CF93DF936C01B12C20E0E1
:103CE00082E0E82EF12C8B2D90E03091AA02A70102
:103CF000431B51098417950770F02223D9F1DF91F6
:103D0000CF911F910F91FF90EF90DF90CF90BF90D8
:103D1000AF900C947B0ED091A802DB0D0D2F10E01C
:103D20008C0D9D1D05551D4FFC01C081F801808142
:103D3000C81BAC2E1A1444F08C2FC7FD80E0C81BA2
:103D4000C1110DC0B394CFCFAA94F80180818F5FC9
:103D5000808360E08D2F0E941C1D21E0EBCFCF5FA0
:103D6000F80180818150808361E08D2F0E941C1DAD
:103D700021E0E6CFDF91CF911F910F91FF90EF905F
:103D8000DF90CF90BF90AF900895CF93DF93EB017A
:103D900086319C4511F50E94D90C9A81992399F09E
:103DA0008A7A91E009F490E09093B102811109C000
:103DB00089E20E94B40C0E941C0D80E0DF91CF913B
:103DC000089585E3F6CF8091B102811104C089E2A4
:103DD0000E94BB0CF0CF85E3FBCF81E0EFCF0F93C8
:103DE0001F93CF93DF93C42FD22FFC0182818823AE
:103DF000C9F04093B4020E9414239093B3028093BD
:103E0000B20280E28C0F883008F050C0C77081E0A9
:103E100001C0880FCA95EAF7DF91CF911F910F91EA
:103E20000C9421061091B402141335C08091B20293
:103E30009091B3020E942C23883C910560F5C0E26A
:103E4000CD0F1D17B9F080E2810F883040F4177054
:103E500081E001C0880F1A95EAF70E942806C83051
:103E600048F481E09D2F977001C0880F9A95EAF77A
:103E70000E942106802F0E941906C830B8F4D7701E
:103E800081E001C0880FDA95EAF7DF91CF911F91A9
:103E90000F910C94280680E28C0F883038F4C7709C
:103EA00081E001C0880FCA95EAF7EFCFDF91CF918B
:103EB0001F910F9108950F939C01CB01233F4CE577
:103EC000340759F1A8F4283DFCE53F0701F1293DED
:103ED0004CE53407D1F1273D3C4591F406E221EE53
:103EE00041EE67ED7CE50E94EF1E80E00F910895A2
:103EF000253FFCE53F07E9F0B0F0263F3C45F9F0EF
:103F0000FC018281882339F11092B402EFCF07E2DD
:103F100025EE45EE68ED7CE5E6CF06E221EE40EECB
:103F200063EF7CE5E0CF07E225EE44EE64EF7CE54D
:103F3000DACF06E221EE42EE65EF7CE5D4CF07E270
:103F400025EE46EE66EF7CE5CECF08E221E045EEB9
:103F500069ED7CE5C8CF81E0C9CF8EE1669B02C0E8
:103F60008150E1F7669BFECF0895769880E28A95AE
:103F7000F1F7769A0895FC013BE03A95F1F798E065
:103F800020E080E031E040E14A95F1F7880F669B40
:103F900002C08160232742E04A95F1F7000040E12A
:103FA0004A95F1F7915079F790E19A95F1F79CB124
:103FB00032E03A95F1F7000040E14A95F1F796FBBF
:103FC000992790F992272081920F90830895EF927C
:103FD000FF920F931F93CF93DF930F92CDB7DEB76E
:103FE00019828C017C01E60EF11C0E151F0561F48F
:103FF00081E09981911180E00F90DF91CF911F9125
:104000000F91FF90EF9008950E94AD1FCE01019691
:104010000E94BB1FF80181938F01E7CF6E9A769AB9
:1040200008956E98769AEE9AEAE6F0E080818F7CA9
:10403000808308956150770B91E001C0990F6A95D4
:10404000EAF720E031E0911108C0222391F0769A3E
:1040500080E28A95F1F776980895492F482339F040
:10406000769A232740E24A95F1F79695ECCF769819
:10407000F9CF7698EDCFFF920F931F93CF93DF93F5
:10408000EC018C01060F111DC017D10731F4DF912F
:10409000CF911F910F91FF900895F9900E94B51F45
:1040A00068E08F2D0E941A20EFCF1F920F920FB65B
:1040B0000F921124EF92FF920F931F932F933F9330
:1040C0004F935F936F937F938F939F93AF93BF9320
:1040D000EF93FF93CF93DF930F92CDB7DEB71982A3
:1040E0000E94AD1FCE0101960E94BB1FA82FA6956E
:1040F000A695A695282F229525709A2F9570290FA1
:10410000922F937026952695920F98279770898104
:10411000982B09F075C0A63008F072C080E18A952E
:10412000F1F7769A6E9AB2E0BA95F1F700C07698F8
:10413000EA2EF12CEAE0AE9FD0011124A95EBE4F19
:104140001896ED91FC9119973097B1F06091CA01E2
:104150007091CB0116962D913C911797260F371F22
:1041600013968D919C911497680F791F15964C9119
:10417000159712968C9109958AE08E9DF0018F9D7E
:10418000F00D1124E95EFE4F6581662351F0209108
:10419000CA013091CB0186819781820F931F0E94C3
:1041A0003B200E94B51FF0E1FA95F1F776986E98E2
:1041B000769A80E18A95F1F78AE08E9D80018F9D45
:1041C000100D1124095E1E4FD80112966C911297A2
:1041D000662371F12091CA013091CB0113968D9124
:1041E0009C91820F931F0E94E71FD801ED91FC91D3
:1041F000882311F088E001C082E080830E94AD1F17
:104200000F90DF91CF91FF91EF91BF91AF919F916F
:104210008F917F916F915F914F913F912F911F915E
:104220000F91FF90EF900F900FBE0F901F90189579
:10423000ED91FC91DFCF0F931F93CF93DF93EC01B0
:1042400006970CF0A9C08AE08C9FF0018D9FF00DBD
:104250001124E95EFE4F80819181892B09F49CC075
:10426000F8946E9A769885E08A95F1F700008C2F85
:10427000869585709C2F9570890F982F93708695E1
:104280008695890F8E0193E0000F111F9A95E1F733
:10429000082B0E94B51F00C068E0802F0E941A20E2
:1042A000A0E1AA95F1F76E98769A669B27C087E001
:1042B00090E0669925C08AE08C9F80018D9F100D4B
:1042C0001124095E1E4FF80165816623A1F120913A
:1042D000CA013091CB0186819781820F931F0E9482
:1042E000E71F811128C06E9A769AD801ED91FC9152
:1042F00082E08083789482E090E016C000C0D5CF41
:104300000197B9F46E9A769A8AE08C9FF0018D9F9E
:10431000F00D1124E95EFE4F0190F081E02D81E067
:104320008083789481E090E0DF91CF911F910F918D
:10433000089500C0BECF0E94AD1FB0E2BA95F1F75C
:1043400076986E9AE0E1EA95F1F78AE08C9FF001A9
:104350008D9FF00D1124E95EFE4F6281662351F0BE
:104360002091CA013091CB0183819481820F931FE8
:104370000E943B200E94B51F8AE08C9FF0018D9F18
:10438000F00D1124E95EFE4F0190F081E02D1082C6
:10439000789490E080E0C8CF84E090E0C5CF90931F
:1043A000ED018093EC0108959093BB028093BA02D3
:1043B00008950E94C213811103C08091B50208952F
:1043C000E091BA02F091BB02309721F00190F081A8
:1043D000E02D099480E00895E091BA02F091BB02CB
:1043E000309721F00280F381E02D09940895E09147
:1043F000BA02F091BB02309739F022E0DC012C9335
:104400000480F581E02D099408952091B80230913F
:10441000B9022817390771F09093B9028093B80256
:10442000E091BA02F091BB02309721F00680F7814B
:10443000E02D099408952091B6023091B702281713
:10444000390771F09093B7028093B602E091BA02F7
:10445000F091BB02309721F00084F185E02D0994A2
:1044600008959C012E5F3F4FAC01485F5F4F80E095
:104470002417350709F40895F90191919F019923B3
:10448000B9F38F5FF5CF662349F0FC0132960896A9
:104490002191261729F0E817F907D1F780E0089550
:1044A00081E008959C01FC0132969FEF80E04191EC
:1044B000461751F09F3F19F4411101C0982F8F5FAB
:1044C0008630A9F79F3F09F40895290F311D97FD04
:1044D0003A95F90162830895FC013296089621917C
:1044E000261303C0DF0111971C92E817F907B9F7EB
:1044F00008950C9452220C946C22029626E0FC0142
:1045000011922A95E9F7089508950C948422811157
:1045100005C081E08093BC020C94852282E0FACF32
:1045200083E08093BC020C9485220C94872281E066
:104530008093BC020C9485220C949722089580915C
:10454000F402843031F10E9471031092BD0288E1BF
:1045500090E020E40FB6F894A895809360000FBE19
:104560002093600083B7817F846083BF83B78160BD
:1045700083BF7894889583B78E7F83BF0FB6F894F6
:10458000A89580916000886180936000109260001F
:104590000FBE089508950895CF930E94CA220E94E5
:1045A00036130E94CB22C0E08C2F0E94B2118111E1
:1045B00005C0CF5FCC30C1F7CF91089581E0FCCF2B
:1045C0000E9489080C94DF031F921FB61F921124CA
:1045D0008F939F93AF93BF938091BD02811113C0BE
:1045E0008091EC029091ED02A091EE02B091EF0269
:1045F0004196A11DB11D8093EC029093ED02A09312
:10460000EE02B093EF02BF91AF919F918F911F90F7
:104610001FBE1F90189582E084BD93E095BD9AEF70
:1046200097BD80936E0008952FB7F8948091EC02A7
:104630009091ED02A091EE02B091EF022FBF08958C
:104640002FB7F8946091EC027091ED028091EE0228
:104650009091EF022FBF08959C014FB7F89480917D
:10466000EC029091ED02A091EE02B091EF024FBFEB
:10467000821B930B0895CF92DF92EF92FF922FB798
:10468000F894C090EC02D090ED02E090EE02F09031
:10469000EF022FBFA7019601261B370B480B590BC2
:1046A000CA01B901FF90EF90DF90CF900895789400
:1046B0001F921FB61F9211248F939F93AF93BF93A6
:1046C0008091EC029091ED02A091EE02B091EF0288
:1046D0000196A11DB11D8093EC029093ED02A09371
:1046E000EE02B093EF02BF91AF919F918F911F9017
:1046F0001FBE1F90189581E08093E00080E28093B8
:10470000D8001092C9008FE19EE40197F1F700C034
:10471000000087E090EBDC018093FD029093FE02A5
:10472000A093FF02B093000388E19CE00FB6F894D9
:10473000A895809360000FBE90936000FFCF80919A
:10474000C902089508959C0184E08093E9009FEFD9
:104750008091E800915085FD06C085ED8A95F1F7BE
:1047600000009111F5CF8091E80085FF0CC050E06A
:1047700040E066E070E0C9010E9434268091E800C4
:104780008E778093E8000895CF93DF93EC0181E06A
:104790008093E9008FEF9091E800815095FD06C06D
:1047A00095ED9A95F1F700008111F5CF8091E80021
:1047B00085FF14C050E040E068E070E0CE010E9448
:1047C00034268091E8008E778093E80088E0FE012F
:1047D000A1ECB2E001900D928A95E1F7DF91CF91C3
:1047E00008958093BE027093C0026093BF028091CF
:1047F000F4028430F9F48093E9008FEF9091E8009F
:10480000815095FD06C095ED9A95F1F70000811154
:10481000F5CF8091E80085FF0DC050E040E063E0F7
:1048200070E08EEB92E00E9434268091E8008E7753
:104830008093E8000895BC0184E00C94F123BC014E
:1048400083E00C94F123CF93FC01603221F5809139
:10485000F402843001F5C091E900CF702091EC00A2
:10486000922F917020FD90E8C92B82E08093E9009F
:104870008091E80080FF0CC050E040E060E270E012
:10488000CF010E9434268091E8008E778093E80063
:10489000CF70C093E900CF9108958091F302811108
:1048A00009C00E9413280E9470288091E200846051
:1048B0008093E20008951092F30208950C949722D9
:1048C0006091F00281E0611101C080E00C949022BF
:1048D0009091F40281E0943009F080E06091F00260
:1048E0000C94952242E061EC81E00E948F2742E225
:1048F00061EC84E00E948F2742E261EC82E00E943A
:104900008F2742E260EC83E00E948F279091F402AF
:1049100081E0943009F080E06091F0020C948722ED
:104920008091F602833009F462C030F48130D9F10D
:10493000823009F49EC008958A3009F48AC08B3011
:1049400009F470C0893009F051C08091F5028132BC
:1049500009F04CC08091F9029091FA02009719F089
:10496000029709F043C08091E800877F8093E800B8
:104970008091E80082FF36C09091F3008091F200B0
:10498000029731F48091F100813011F0863021F4EA
:104990008091F1008093C9028091E8008B77809329
:1049A000E8000C94C3278091F502813AF9F48091D4
:1049B000E800877F8093E8008091F9029091FA02E5
:1049C000892B61F468E081EC92E070E00E94D226CD
:1049D0008091E8008B778093E800089560E090E094
:1049E00080E0F3CF8091F4028111C2CF08958091CD
:1049F000F502813AD9F78091F9029091FA02892B58
:104A0000A9F78091E800877F8093E8008091E80013
:104A100080FFFCCF809161018093F1008091E800DC
:104A20008E77BDCF8091F502813201F78091F90236
:104A30009091FA02892BD1F68091E800877F8093CC
:104A4000E8000E94C3278091F702809361010C94D3
:104A500089088091F502813249F68091E800877FCC
:104A60008093E8000E94C3278091F8028093CA02D5
:104A700008958091F502813A09F0B8CF8091E8005D
:104A8000877F8093E8008091E80080FFFCCF8091D1
:104A9000CA02C2CF84B7877F84BF0FB6F894A895A7
:104AA00080916000886180936000109260000FBE6A
:104AB00080E890E00FB6F8948093610090936100D5
:104AC0000FBE0C949C220E9413280E947028E2EED4
:104AD000F0E080818460808378940C94F92A85E5E5
:104AE00091E00C94D4218091F4028530A9F4809156
:104AF000F402853011F00C94E0220E949F228091F4
:104B0000F2028823A1F30E94CC22882381F30E9421
:104B10001E260E948908EBCF0895CF93DF93CDB76F
:104B2000DEB7A0970FB6F894DEBF0FBECDBF809161
:104B3000F402843009F583E08093E9008091E80075
:104B400082FF1AC08091E80090E085FF09C050E024
:104B500040E060E270E0CE0101960E94832691E081
:104B60008091E8008B778093E800992329F060E238
:104B7000CE0101960E949319A0960FB6F894DEBF5D
:104B80000FBECDBFDF91CF9108950C94C725292F7B
:104B900033272330310521F168F42130310509F440
:104BA00043C02230310509F444C090E080E030E099
:104BB00020E026C02132310551F122323105A9F71A
:104BC0006330710590F7FB01EE0FFF1FE152FE4FBE
:104BD0002081318164527E4FFB01808190E010C0C2
:104BE00099278130910581F0009729F00297E9F625
:104BF000ECE9F3E002C0E4ECF3E0849190E09F0183
:104C0000FA01318320830895E4EBF3E0F6CF6330BB
:104C1000710558F6660F771FFB01EB51FE4F20819F
:104C2000318189E090E0ECCF82E190E023E234E052
:104C3000E7CF8BE590E028EC33E0E2CF80E189BD5F
:104C400082E189BD09B400FEFDCF8091D8008F7D3F
:104C50008093D8008091E00082608093E000809192
:104C6000E00081FDFCCF0895AF92BF92CF92DF921A
:104C7000FF920F931F93CF93DF936C01EB018A0197
:104C80000E94E227F82E811123C00115110539F089
:104C9000F80180819181C81BD90BC80ED91EB12C97
:104CA000A12C2097A9F08091E80085FD22C0809179
:104CB000E8008E778093E80001151105A1F0F80156
:104CC00080819181A80EB91EB182A08285E0F82E64
:104CD0008F2DDF91CF911F910F91FF90DF90CF909B
:104CE000BF90AF9008950E94E2278823D1F2F82E5A
:104CF000EFCFF60181916F018093F1002197FFEFD3
:104D0000AF1ABF0ACECFAF92BF92CF92DF92FF927F
:104D10000F931F93CF93DF936C01EB018A010E94E5
:104D2000E227F82E811123C00115110539F0F80191
:104D300080819181C81BD90BC80ED91EB12CA12C22
:104D40002097A9F08091E80085FD22C08091E800BD
:104D50008B778093E80001151105A1F0F80180819F
:104D60009181A80EB91EB182A08285E0F82E8F2D08
:104D7000DF91CF911F910F91FF90DF90CF90BF9067
:104D8000AF9008950E94E2278823D1F2F82EEFCF4A
:104D90008091F100F60181936F012197FFEFAF1A27
:104DA000BF0ACECFFC018091FB029091FC028617D6
:104DB0009707A0F06115710529F49091E8009E779E
:104DC0009093E80090E06115710551F4911108C0CD
:104DD0008091E80082FF34C080E00895BC01F2CFEA
:104DE0008091F4028823C1F18530C1F18091E800FF
:104DF00083FD30C08091E80082FDEACF8091E80019
:104E000080FFE1CF8091F3002091F200382F6115EF
:104E1000710519F02830310558F091E0283031053E
:104E200009F090E02091E8002E772093E800CBCFA6
:104E300081918093F100615071092F5F3F4FE7CF5F
:104E40008091F402882341F0853041F08091E800A0
:104E500083FFBECF81E0089582E0089583E0089546
:104E6000FC018091FB029091FC0286179707A0F04D
:104E70006115710529F48091E8008E778093E80030
:104E800090E06115710551F4911108C08091E8001E
:104E900082FF35C080E00895BC01F2CF8091F4021A
:104EA0008823C9F18530C9F18091E80083FD31C0C4
:104EB0008091E80082FDEACF8091E80080FFE1CF99
:104EC0008091F3002091F200382F6115710519F0DF
:104ED0002830310558F091E02830310509F090E094
:104EE0008091E8008E778093E800CBCF8491809307
:104EF000F1003196615071092F5F3F4FE6CF8091ED
:104F0000F402882341F0853041F08091E80083FF6E
:104F1000BDCF81E0089582E0089583E00895982F41
:104F2000973028F08F708093E90081E00895909386
:104F3000E900242F762F50E0981731F07091EC00A3
:104F40002091ED005091F00021FD02C09F5FE8CF5D
:104F50003091EB003E7F3093EB003091ED003D7FD0
:104F60003093ED003091EB0031603093EB007093A3
:104F7000EC002093ED005093F0002091EE0027FD0F
:104F8000E5CF80E008958091F50287FF13C08091FE
:104F9000E80082FF06C08091E8008B778093E800EC
:104FA00004C08091F4028111F2CF08958091F4023F
:104FB0008823D9F38091E80080FFF8CF8091E80042
:104FC0008E77ECCF2091E4003091E50095E6A901C1
:104FD0002091EC00822F817020FF06C08091E800B4
:104FE00080FF06C080E008952091E80022FD1AC0ED
:104FF0008091F402882389F0853089F08091EB005C
:1050000085FD0FC02091E4003091E5004217530761
:10501000F9F29150E1F684E0089582E0089583E08A
:10502000089581E008950E9481280E948928E0EE79
:10503000F0E0808181608083E8EDF0E080818F770F
:10504000808319BCA7EDB0E08C918E7F8C9380811A
:105050008F7E80831092F30208950F931F93CF9356
:10506000DF930E9481280E948928C8EDD0E08881C2
:105070008F77888388818068888388818F7D888303
:1050800019BC1092F4021092F0021092F2021092E7
:10509000F10200EE10E0F80180818B7F808388812F
:1050A0008160888342E060E080E00E948F27E1EE2B
:1050B000F0E080818E7F8083E2EEF0E0808181608D
:1050C0008083808188608083F80180818E7F8083E7
:1050D000888180618883DF91CF911F910F9108951E
:1050E000E8EDF0E080818F7E8083E7EDF0E0808165
:1050F0008160808384E082BF81E08093F3020C941E
:105100002D28E8EDF0E080818E7F80831092E20010
:1051100008951092DA001092E10008951F920F9204
:105120000FB60F9211242F933F934F935F936F937A
:105130007F938F939F93AF93BF93EF93FF93809150
:10514000E10082FF0BC08091E20082FF07C08091E6
:10515000E1008B7F8093E1000E94F82A8091DA00C1
:1051600080FF19C08091D80080FF15C08091DA00BF
:105170008E7F8093DA008091D90080FF96C080E115
:1051800089BD82E189BD09B400FEFDCF81E0809335
:10519000F4020E944D248091E10080FF19C08091AB
:1051A000E20080FF15C08091E2008E7F8093E200D4
:1051B0008091E20080618093E2008091D80080625B
:1051C0008093D80019BC85E08093F4020E9460248B
:1051D0008091E10084FF2BC08091E20084FF27C012
:1051E00080E189BD82E189BD89B5982F917080FFEA
:1051F000FBCF8091D8008F7D8093D8008091E10013
:105200008F7E8093E1008091E2008F7E8093E200A8
:105210008091E20081608093E2008091F002882317
:1052200009F449C084E08093F4020E9468248091CC
:10523000E10083FF29C08091E20083FF25C08091B7
:10524000E100877F8093E10082E08093F402109276
:10525000F0028091E1008E7F8093E1008091E20076
:105260008E7F8093E2008091E20080618093E20073
:1052700042E060E080E00E948F278091F00088602B
:105280008093F0000E945E24FF91EF91BF91AF9157
:105290009F918F917F916F915F914F913F912F914E
:1052A0000F900FBE0F901F90189519BC1092F4022A
:1052B0000E945B2470CF8091E30087FD93E0909380
:1052C000F402B3CF1F920F920FB60F9211242F93B7
:1052D0003F934F935F936F937F938F939F93AF937E
:1052E000BF93CF93DF93EF93FF93D091E900DF70EB
:1052F0008091EC00C82FC17080FDC0E81092E900D9
:105300008091F000877F8093F00078940E94A62916
:105310001092E9008091F00088608093F000CD2B1E
:10532000CF70C093E900FF91EF91DF91CF91BF91D2
:10533000AF919F918F917F916F915F914F913F912D
:105340002F910F900FBE0F901F9018951F93CF9322
:10535000DF93CDB7DEB7AA970FB6F894DEBF0FBEC6
:10536000CDBF85EF92E02091F100FC012193CF01A8
:10537000F2E08D3F9F07B9F70E9490248091E800EA
:1053800083FF1EC18091F5029091F6029A3008F0D9
:1053900017C1E92FF0E0E552F44D0C94332B80381F
:1053A00099F0823809F00CC18091F9028F70873032
:1053B00008F006C18093E9008091EB0085FB882707
:1053C00080F91092E90006C08091F1029091F202FA
:1053D000911182609091E800977F9093E80080930C
:1053E000F1001092F1008091E8008E77E5C08823EB
:1053F00009F4D3C0823009F0E3C08091F702811133
:10540000D6C08091F9028F702FEF280F263008F058
:10541000D7C08093E9002091EB0020FFC8C09330F3
:1054200031F48091EB0080628093EB00C0C09091DA
:10543000EB0090619093EB0021E030E001C0220F7F
:105440008A95EAF72093EA001092EA008091EB0037
:105450008860EACF8111B4C01091F7021F77809164
:10546000E3008078812B8093E3008091E800877FC0
:105470008093E8000E94C3278091E80080FFFCCF62
:105480008091E30080688093E30082E0111183E063
:105490008093F40295C08058823008F091C08091CA
:1054A000F7029091F8028C3D23E09207A1F583E08A
:1054B0008A838AE289834FB7F894DE01139620E04D
:1054C0003EE051E2E32FF0E050935700E49120FFDB
:1054D00003C0E295EF703F5FEF708E2F90E0EA30EF
:1054E000C0F0C7968D939D932F5F243159F74FBF1E
:1054F0008091E800877F8093E8006AE270E0CE0147
:1055000001960E94D2268091E8008B778093E80074
:1055100057C0C096E7CF6091F9027091FA02AE01D0
:105520004F5F5F4F0E94C525BC01892B09F448C01D
:105530009091E800977F9093E80089819A810E947A
:105540003027E1CF8038E1F58091E800877F8093B4
:10555000E8008091F0028093F10045CF811130C0C6
:105560009091F702923060F58091E800877F8093F8
:10557000E8009093F0020E94C3278091F0028823F4
:1055800011F084E005C08091E30087FDFACF81E04F
:105590008093F4020E94722413C08091F70281303C
:1055A00079F481E0933009F080E08093F202109268
:1055B000E9008091E800877F8093E8000E94C3277C
:1055C0008091E80083FF0AC08091E800877F809384
:1055D000E8008091EB0080628093EB00AA960FB602
:1055E000F894DEBF0FBECDBFDF91CF911F9108951C
:1055F0000895CF938091F4028823A1F0C091E9002F
:10560000CF709091EC00892F817090FD80E8C82BBD
:105610001092E9008091E80083FD0E94A629CF70D6
:10562000C093E900CF9108950E9413281092F402CC
:1056300008958091E300881F8827881F089597FBAD
:10564000072E16F4009407D077FD09D00E94402B56
:1056500007FC05D03EF4909581959F4F0895709575
:1056600061957F4F0895EE0FFF1F0590F491E02D97
:105670000994692796276927782787277827089527
:10568000AA1BBB1B51E107C0AA1FBB1FA617B70768
:1056900010F0A61BB70B881F991F5A95A9F7809584
:1056A0009095BC01CD010895FB01DC0104C08D91F2
:1056B0000190801921F441505040C8F7881B990B84
:1056C0000895FB01DC0102C001900D924150504051
:1056D000D8F70895F999FECF92BD81BDF89A992720
:1056E00080B50895A8E1B0E042E050E00C949E2B14
:1056F000262FF999FECF92BD81BDF89A019700B48B
:10570000021639F01FBA20BD0FB6F894FA9AF99A2A
:105710000FBE08950396272F0E94792B0E94782BA5
:10572000252F0E94792B242F0C94792B0196272F5B
:105730000E94792B0C94782BDC01CB01FC01F999A8
:10574000FECF06C0F2BDE1BDF89A319600B40D92CD
:1057500041505040B8F70895F894FFCF6D066D069C
:105760009E069E0631074D07CD06CD065807BF079A
:10577000CE07CE0798089808A108A108A308A10899
:10578000A108A10898089808A808A108A108A808D5
:10579000A519B219D919E519F019FB19FE19FE1945
:1057A000FE19FE19FE19011A051A0D1A1A1A271ADE
:1057B0002A1A2D1A3A1ACF29F729E02AF729E02ABE
:0A57C0002A2A4B2AE02AA22AAE2A68
:1057CA00C80046026636359796943495333231309E
:1057DA0000000000000001EB0200000001000000D0
:1057EA0000EB020000000601000000EB02000000CE
:1057FA000107000000EB020000000208000000EBB5
:10580A0002040A0000000000002808641E140A327C
:10581A001EF7F6F1F09F23C423A3231F241B24A2FF
:10582A002301969793323130E200E900EA00B5008D
:10583A00B600B700CD008301CC008A019201940121
:10584A002102230224022502260227022A02B30089
:10585A00B4006F007000818283E200E900EA00B5BB
:10586A0000B600B700CD008301CC008A01920194F2
:10587A00012102230224022502260227022A02B358
:10588A0000B4006F007000818283730200FF010080
:10589A00010000FFFF0000010001FF0040227BD24F
:0C58AA000435045704DA03F30313040070
:00000001FF
