:100000000C9400030C9447030C9447030C9447038F
:100010000C9447030C9447030C9447030C94470338
:100020000C9447030C9447030C944C210C9420220D
:100030000C94DD1B0C9447030C9447030C9447036A
:100040000C9447030C9447030C9447030C94470308
:100050000C9447030C94341C0C9447030C944703F2
:100060000C9447030C9447030C9447030C944703E8
:100070000C9447030C9447030C9447030C944703D8
:100080000C9447030C9447030C9447030C944703C8
:100090000C9447030C9447030C9447030C944703B8
:1000A0000C9447030C9447030C9447032900140055
:1000B0001A000800150017001C0018000C001200A0
:1000C00013004C002A002B00040016000700090052
:1000D0000A000B000D000E000F0034000000280085
:1000E000E1001D001B00060019000500035111006E
:1000F0001000360037003800E100E000E2000000A8
:100100000251015100002C000000E6000000000038
:10011000E700E400350001000100010001000100DA
:100120000100010052000100A800AA00A900390046
:100130000100010001000100010001005000510018
:100140004F003300000031000100010001000100F8
:100150000100010001000100010001000100010097
:100160000100BF5CC05C0000010001000000010054
:1001700000000100000000000100010001001E005D
:100180001F0020002100220023002400250026005B
:1001900027002D002E0001000100010001000100D8
:1001A000010001005C005D005E002F0000003000D7
:1001B00001000100010001000100010001005900DF
:1001C0005A005B0001000100010001000100000075
:1001D0000100010000005800000063000000000062
:1001E0000100010001003A003B003C003D003E00E0
:1001F0003F00400041004200430044004500010030
:1002000001000100010001000100010001000100E6
:1002100001000100000001000100010001000100D7
:1002200001000100010001000100010001000100C6
:1002300001000100010000000100010000000100B8
:1002400000000100000000000100010001000100A9
:100250000100010001000100010001000100010096
:100260000100010001000100010001000100010086
:100270000100010001000100010001000000010077
:100280000100010001000100010001000100010066
:100290000100010001000100010001000100000057
:1002A000010001000000010000000100000000004A
:1002B0000100010001000100010001000100010036
:1002C0000100010001000100010001000100010026
:1002D0000100010001000100010001000100010016
:1002E0000100010000000100010001000100010007
:1002F00001000100010001000100010001000100F6
:1003000001000100010000000100010000000100E7
:1003100000000100000000000100010001000100D8
:1003200001000100010001000100010001000100C5
:1003300001000100010001000100010001000100B5
:1003400001000100010001000100010000000100A6
:100350000100010001000100010001000100010095
:100360000100010001000100010001000100000086
:100370000100010000000100000001000000000079
:100380000100010001000100010001000100010065
:100390000100010001000100010001000100010055
:1003A0000100010001000100010001000100010045
:1003B0000100010000000100010001000100010036
:1003C0000100010001000100010001000100010025
:1003D0000100010001000000010001000000010017
:1003E000000001000000000001000100000000000A
:1003F000000000002A2B2800000000000000000080
:100400000000000000000029000000002C1E342025
:10041000212224342627252E362D3738271E1F204B
:100420002122232425263333362E37381F04050690
:100430000708090A0B0C0D0E0F10111213141516D4
:100440001718191A1B1C1D2F3130232D35040506D2
:100450000708090A0B0C0D0E0F10111213141516B4
:100460001718191A1B1C1D2F3130354C00000000C5
:10047000000000000000000000000000000000007C
:10048000000000000000000000000000000000006C
:100490007E0F00D4FFFFFFC700000078100350005C
:1004A000720069006D0065005F00450000001003E8
:1004B0005000720069006D0065004B0042000000B2
:1004C0000403090409025B00030100A0FA09040007
:1004D0000001030101000921110100012240000770
:1004E00005810308000A0904010002030000000955
:1004F00021110100012222000705820320000107CB
:1005000005030320000109040200010300000009A3
:100510002111010001226D000705840320000A1249
:1005200001000200000008525051000100010200C9
:10053000010660FF0961A1010962150026FF00950F
:1005400020750881020963150026FF0095207508B3
:100550009102C005010980A101850319012AB70094
:10056000150126B700950175108100C0050C090121
:10057000A101850419012AA002150126A0029501F6
:1005800075108100C005010906A10185060507193E
:10059000E029E71500250195087501810205071975
:1005A0000029EF1500250195F07501810205081954
:1005B000012905950575019102950175039101C009
:1005C00005010906A101050719E029E71500250124
:1005D00095087501810295017508810105071900CB
:1005E00029FF150026FF00950675088100050819EA
:1005F000012905950575019102950175039101C0C9
:1006000011241FBECFEFDAE0DEBFCDBF04B603FE7C
:1006100027C08091720290917302A0917402B091F0
:1006200075028730904BA740B04BD1F41092720204
:1006300010927302109274021092750214BE84B765
:10064000877F84BF0FB6F894A89580916000886179
:1006500080936000109260000FBEE0E0F8E309951F
:1006600011E0A0E0B1E0E6E9F9E402C005900D92E6
:10067000A239B107D9F722E0A2E9B1E001C01D9289
:10068000A237B207E1F70E94D6130C948E240C9483
:100690000000219A2998229A2A98239A2B98089543
:1006A00080FF05C02A9A81FF04C0299A08952A98DC
:1006B000FACF29980895CF93C82F682F70E090E063
:1006C00080E00E943E05813021F42B9A8C2FCF913F
:1006D00008952B98FBCF81E0089581E008950C9454
:1006E0006D0308950C9471031F93CF93DF9300D093
:1006F00000D00F92CDB7DEB749835A836B83309118
:10070000940189819A8131111DC06623B9F0222399
:10071000A9F00E94170A182F682F89819A810E94D8
:10072000C30969817A81812F0F900F900F900F90EC
:100730000F90DF91CF911F910C94AF170E94EF099A
:10074000182FEFCF0E94170A69817A81EDCFFC0143
:10075000262F408151816281738184810C947403BE
:1007600081E00895CF93DF93EC0160E00E94A7033E
:10077000BE01DF91CF910C947203E1E0F0E0DF0164
:1007800002C0AA0FBB1F6A95E2F7BD01DF0102C0DC
:10079000AA0FBB1F4A95E2F76A2B01C0EE0F2A95FC
:1007A000EAF7962F9823961302C08E2B0895E095B2
:1007B0008E230895242F462F682F8091AA010E942E
:1007C000BD030C9480090E9460120E9491050E9452
:1007D0005B150C947A120C947D1280E00E94FC143C
:1007E00080E00C949205089508950E941A090E94D1
:1007F000F4032FEF84E39CE0215080409040E1F728
:1008000000C000000C94581C0F931F93CF93DF93EC
:100810008C0161E00E94A703EC01B8010E94C2159F
:10082000882309F441C0B801CE010E946F038823D8
:10083000D9F1B801CE010E94C7148823A9F1B801EB
:10084000CE010E94E418882379F1B801CE010E94FC
:100850003619882349F1B801CE010E94591A88231C
:1008600019F1F8018281882361F0CA35FDE5DF07BF
:1008700021F170F4C115ECE5DE07A1F0CE3DDC45B9
:10088000C9F0C801DF91CF911F910F910C946B03B8
:10089000CB358DE5D807A1F0CC35DD4591F70E9429
:1008A000DF0DEFCF0E94F50380E0DF91CF911F9124
:1008B0000F9108950E94550FF7CF0E94E80DE1CFE8
:1008C0000E94EB0DDECF0C94F3030E94FC130E94F8
:1008D000881A0E9492050C946304DF92EF92FF92B3
:1008E0000F931F93CF93DF93E82FF0E0E451FC4F79
:1008F000D490282F26952695269530E0F901E457C7
:10090000FB4F0491877010E0082E02C015950795E3
:100910000A94E2F701701127F901E458FB4FE490C3
:10092000F12C082E02C0F594E7940A94E2F791E0C6
:10093000E922FF24F901E459FB4FC491D0E002C041
:10094000D595C7958A95E2F7C170DD270115110588
:1009500019F081EE0E94DD05E114F10419F086EE34
:100960000E94DD058D2D0E94CD06EF2819F086EE40
:100970000E946706012B19F081EE0E946706CD2BBD
:1009800051F08CE2DF91CF911F910F91FF90EF908A
:10099000DF900C94CD06DF91CF911F910F91FF90C6
:1009A000EF90DF900895EF92FF920F931F93CF93F4
:1009B000DF93EC01162F0AE08881882309F454C0E4
:1009C000813009F04EC08981813099F47E0122E0A6
:1009D000E20EF11C8A810E94CD06E7012196812F4B
:1009E000815050F3EFE9FFE03197F1F700C00000CC
:1009F000F7CF823041F47E0182E0E80EF11C8A815B
:100A00000E94DD05EACF833041F47E01E2E0EE0E84
:100A1000F11C8A810E946706E0CF843011F0219694
:100A2000DDCF2A81229690E080E0AE014F5F5F4FDC
:100A30002053330B2A30310548F0019778F2EFE963
:100A4000FFE03197F1F700C00000F7CF089FB00139
:100A5000099F700D1124C901860F971F2981EA0192
:100A6000E4CF0E946D04BACFDF91CF911F910F9117
:100A7000FF90EF90089560E00C94D304CF92DF9242
:100A8000EF92FF926C01EE24FF2420E0C114D10408
:100A9000E104F10419F0C701B60120E1C72ED82EF8
:100AA000E92EFF24C114D104E104F10419F0285FF8
:100AB000C701B6016B017C0154E0F694E794D7942A
:100AC000C7945A95D1F7C114D104E104F10419F087
:100AD0002C5FC701B6016B017C0142E0F694E794FC
:100AE000D794C7944A95D1F7C114D104E104F10415
:100AF00019F02E5FC701B601969587957795679592
:100B0000672B682B692B09F02F5F822FFF90EF90E6
:100B1000DF90CF9008950C94500381E008950C94D9
:100B20008D050895CF93C82F0E948B058C2FCF91F0
:100B30000C948F05CF93DF93CDB7DEB72B970FB60D
:100B4000F894DEBF0FBECDBF4F83588769877A8781
:100B50008B8761110E940E0E1E821D8285E0FE01B0
:100B60003796DE01119601900D928A95E1F78C81FE
:100B70009D81892B89F449815A816B817C818D818A
:100B80009E810E940E0D2B960FB6F894DEBF0FBE0D
:100B9000CDBFDF91CF91089589819A8189238F3FBD
:100BA00051F3CE0101960E94B0038111E4CFEBCF47
:100BB000FC01808191810C94440ACF93C82F882333
:100BC00009F483C08238C1F40E94881A81FD7DC077
:100BD00089E30E94A80D0E943E0E2FEF81EE94E063
:100BE000215080409040E1F700C0000089E30E945E
:100BF000AF0DCF910C943E0E8338A1F40E94881A59
:100C000080FD63C083E50E94A80D0E943E0E2FEF79
:100C100081EE94E0215080409040E1F700C0000058
:100C200083E5E5CF8438A1F40E94881A82FD4DC087
:100C300087E40E94A80D0E943E0E2FEF81EE94E003
:100C4000215080409040E1F700C0000087E4CFCF02
:100C50008CEF8C0F813A90F46C2F80910001909171
:100C600001010E94EE1A882329F08C2F0E94AF0DFB
:100C70000E943E0E8C2F0E94A80DBBCF80E28C0FED
:100C8000883048F4C77081E001C0880FCA95EAF740
:100C90000E94F10DAECFEBE5EC0FE33040F4F0E055
:100CA000E35CFE4F808190E0CF910C94AE1AC85A5D
:100CB000C73158F4EC2FF0E0EE0FFF1FE15FFE4F5D
:100CC00080819181CF910C94C41ACF91089588238B
:100CD00009F44BC0823871F40E94881A81FF45C024
:100CE00089E30E94A80D0E943E0E89E30E94AF0D89
:100CF0000C943E0E833859F40E94881A80FF35C048
:100D000083E50E94A80D0E943E0E83E5EFCF843854
:100D100059F40E94881A82FF28C087E40E94A80D17
:100D20000E943E0E87E4E2CF9CEF980F913AF0F2DA
:100D300090E2980F983050F4877091E001C0990FBD
:100D40008A95EAF7892F0E94F70DD2CF9BE5980F7D
:100D5000933020F490E080E00C94AE1A885A8731EA
:100D600020F490E080E00C94C41A08951F93CF9370
:100D7000DF93182FEB010E94DD05209731F4812FBE
:100D8000DF91CF911F910C9467068FE99FE0019747
:100D9000F1F700C000002197F0CF70E060E08933E8
:100DA00011F460E570E00C94B606882321F00E94EF
:100DB000F10D0C943E0E0895882321F00E94F70D4A
:100DC0000C943E0E0895BF92CF92DF92EF92FF9265
:100DD0000F931F93CF93DF936C01D62FC72FFC0186
:100DE0001281058102950F700E94C60DE82E88239E
:100DF000A1F0E12E112389F08C2F807F803429F01F
:100E000080E28D0FE12C883040F082E00E948F0E4E
:100E10000E94C60D91E0E82EE926BC2EB2949FE018
:100E2000B922EB2DF0E0E057FB4D0C9418240C2F69
:100E30000F70C07F11F00295007F1123A9F00023ED
:100E400059F080E28D0F883010F0D11109C0802F49
:100E50000E94F10D0E943E0E8D2F0E94DD0514C0F0
:100E6000802F0E94010EF6CF8D2F0E94670600236F
:100E700059F080E28D0F883010F0D1112CC0802FF6
:100E80000E94F70D0E943E0E2B2D2850330B24306C
:100E9000310520F40E94881A0E949205EE2009F480
:100EA0006EC10E94C20D80FD6AC1F60112820E94CD
:100EB000BC0D0E949109C6010E94E0080E94BC0D71
:100EC000DF91CF911F910F91FF90EF90DF90CF9026
:100ED000BF900C949C09802F0E94070ED3CFFC2F4B
:100EE000FF70FF2EC07FC03219F0F29480EFF8221D
:100EF000DD2369F0D13049F1112391F1002351F143
:100F0000F601858180FFA8CF8F70858323C01123D0
:100F100081F0011106C00E94210E8F290E94D50682
:100F2000B3CF0130C1F70E94210E8F290E94270EF6
:100F3000ABCF011106C00E94340E8F2D0E94DC063B
:100F4000A3CF013009F4A0CFF6CF112329F006304A
:100F500008F09ACF8F2DE2CF053008F095CFEDCF76
:100F6000002359F3D93349F4FFEF27EE33E0F15072
:100F700020403040E1F700C000008D2F0E9467063E
:100F800083CF8C2F86958695837069F0813009F028
:100F90007BCF8D2F9C2F9370111102C090E080E0C9
:100FA0000E94C41A71CF8D2F9C2F9370111102C013
:100FB00090E080E00E94AE1A67CF8C2F837079F5A5
:100FC000111162CF4D2F429546954770440F440F43
:100FD0008D2F8F70042E01C0880F0A94EAF72D2FF1
:100FE0002071D4FF07C02FE030E001C0220F4A95E6
:100FF000EAF72095C695C695C370822BC23049F09A
:1010000058F4C13019F00E9474093ECF0E946F0954
:101010003BCF0E94790938CF0E946D0935CF869564
:10102000112311F08C2F8170882309F42DCF4D2FBF
:10103000429546954770440F440F8D2F8F70042EB4
:1010400001C0880F0A94EAF72D2F2071D4FF07C042
:101050002FE030E001C0220F4A95EAF72095C695AF
:10106000C695C370822BC23049F058F4C13019F0D4
:101070000E94B80909CF0E94B30906CF0E94BD099A
:1010800003CF0E94800900CFCF70112329F08C2F4D
:101090000E9491098D2F42CF8D2F0E94DC068C2F4C
:1010A0000E949C09F1CED23F89F160F4D03FC9F093
:1010B000D13F29F1112309F442C00111CDCE8C2F6B
:1010C0008F7121C0D33F39F1D43FA1F7112369F1CA
:1010D000CF718C2F0E94910963E08C2F0E94740EB7
:1010E000D3CE112341F0053008F0CECE8C2F8F7176
:1010F0000E94A809C9CE063008F0C6CEF7CF8C2FC3
:101100008F71112369F20E949109BECE8C2F8F71CD
:101110001123C9F3C5CF112329F08C2F8F710E94A1
:101120008909B2CE0E948609AFCE81E00E948F0E5F
:10113000023008F4A9CE82E00E948F0EA5CE0023D3
:1011400059F0D93309F019CF8FEF97EEE3E08150D2
:101150009040E040E1F70FCF8C2F8F71A1CF4C2F43
:101160004F706D2FC6010E9452100E94720A8CCEE1
:101170004C2F4F706D2FC6010E94551085CEDF9108
:10118000CF911F910F91FF90EF90DF90CF90BF9084
:1011900008950F931F93CF93DF93EC0168817981BA
:1011A0008A810E944E0A8C010E94C2090E946C0929
:1011B000B801CE01DF91CF911F910F910C94E306FE
:1011C000CF93DF93EC018B819C81892B29F088815F
:1011D000998189238F3F59F4DF91CF910895CE01F2
:1011E0000E94C908CE01DF91CF910C94B203CE01C9
:1011F0000E9404048111F3CF0E94C60D882361F37D
:101200008A81882349F382E0DF91CF910C948F0E7D
:1012100090E080E00E94AE1A90E080E00E94C41A44
:101220000E940E0E0E941E0E0C943E0E0E94B60DE1
:101230000C9408090E94FE0D0C941609E92FE29502
:10124000EF70E250EE3070F4F0E0E056FB4D0C949D
:101250001824803F19F020F4883E20F481E008959E
:10126000843FE1F380E00895883EC0F3813FD1F7E9
:10127000F5CF93FB882780F90895FC018081918147
:101280000E94440A0C941E09CF93DF9300D000D033
:101290000F92CDB7DEB70F900F900F900F900F9079
:1012A000DF91CF910895CF93DF9300D000D000D08D
:1012B000CDB7DEB726960FB6F894DEBF0FBECDBF12
:1012C000DF91CF91089508950C9463090E946409F9
:1012D0008093AB010C94080908950C9466099091D1
:1012E000AB01892B0C9466099091AB0189230C9476
:1012F00066099091AB0189270C9466090C945B03F5
:101300000E947E098093AA010C94080980E00C9445
:10131000800991E001C0990F8A95EAF7892F0C9412
:10132000800921E030E001C0220F8A95EAF7809120
:10133000AA01822B0C94800921E030E001C0220F29
:101340008A95EAF720958091AA0182230C9480095E
:1013500021E030E001C0220F8A95EAF78091AA01CE
:1013600082270C9480099091AA01892B0C94800902
:101370009091AA0189230C9480099091AA01892750
:101380000C94800908952DE0929F800D1124982FD0
:10139000977041E001C0440F9A95EAF786958695CB
:1013A000869593E0899FF0011124EB56FE4F90E063
:1013B00080E070E05191DF0111979B01082E02C07F
:1013C000369527950A94E2F7217021952527242345
:1013D00025272C9301968330910561F708952DE020
:1013E000929F800D1124982F9770869586958695EB
:1013F00023E0829FF0011124EB56FE4F50E040E0C5
:1014000080E0219130E0092E02C0369527950A949C
:10141000E2F721703327042E01C0220F0A94EAF765
:10142000822B4F5F5F4F4330510559F70895CF929C
:10143000DF92FF920F931F93CF93DF936C01009184
:10144000AA018091AB01082BC7E0D0E010E0FC2E90
:10145000C8010C2E02C0959587950A94E2F780FD8D
:101460000CC02197A0F7F12C8F2DDF91CF911F9108
:101470000F91FF90DF90CF900895B6018C2F0E94BE
:101480006811019771F3F0CFCF93DF93EC010E94C5
:10149000170ABE01DF91CF910C9468111F93CF936F
:1014A000DF93EB0190919401992331F0CB01DF910F
:1014B000CF911F910C94440A882379F0CB010E94AC
:1014C000170A182F682FCE010E94C309BE01812F71
:1014D000DF91CF911F910C946811CB010E94EF090D
:1014E000182FF4CFEF92FF920F931F93CF93DF93B8
:1014F0008C01892B81F0F12CEE24E394E8012196F4
:10150000F8018491843770F4843008F05FC0813032
:10151000B1F08230A1F1DF91CF911F910F91FF9037
:10152000EF900895853709F44CC008F43DC09CE75E
:10153000980F903780F78F770E94670649C00E5F3B
:101540001F4FFE01849190E2980F983060F48770ED
:10155000FE2D01C0FF0F8A95EAF78F2F0E94110E12
:101560000E943E0E02C00E94DD058F2D815030F298
:10157000EFE9FFE03197F1F700C00000F7CF0E5F11
:101580001F4FFE01849190E2980F983050F48770BD
:10159000FE2D01C0FF0F8A95EAF78F2F0E94170ECC
:1015A000DFCF0E946706E1CF0E5F1F4FFE01C4919F
:1015B000C150D8F28FE99FE00197F1F700C0000019
:1015C000F7CF0E5F1F4FFE01F490CFCF0E94DD05D5
:1015D0008E01CBCF1F93CF93DF93C091AC0116E068
:1015E0008091AD018C1304C0DF91CF911F910895BC
:1015F000D0E01C9FF0011D9FF00D1124E255FE4F1D
:101600004081518162817381848195810E94530957
:101610002196C770E5CF4091DE015091DF016091C6
:10162000E0017091E1018091E2019091E3010C945D
:1016300053091F93CF93DF938091E301807FA9F437
:101640008091E001882389F08091AC01C091AD01C7
:101650006091DE017091DF01A091E101B091E201A2
:10166000D62FD72316E0C81304C0DF91CF911F9166
:10167000089590E0109711F0DF3F19F401968770FC
:10168000F2CF189F9001199F300D1124F901E255F6
:10169000FE4F41814713F2CF40814613EFCF428185
:1016A0004111ECCF438154814A1B5B0B483C5105EF
:1016B00028F78091E3018F7080618093E301F90145
:1016C000ED54FE4F80818F70806180838EED91E0BC
:1016D0000E94E008DF91CF911F910C94EA0AAF922B
:1016E000BF92CF92DF92EF92FF920F931F93CF930F
:1016F000DF93CDB7DEB761970FB6F894DEBF0FBEAC
:10170000CDBF8C0185E0F801DE011D9601900D92A0
:101710008A95E1F7F801E2808EEDC82E81E0D82E9F
:101720006091E1017091E2016115710509F45AC1FE
:101730009091DE012091DF01892F82238F3F09F4F0
:1017400051C140815181A380B480F090E001F50146
:10175000E61BF70BFF2009F4F6C08091E301382F58
:10176000307FE83CF10508F0AFC0311179C0FE2CA4
:10177000251323C0941321C0E1101FC08F70806116
:101780008093E3010E940B0BC6010E94E008809148
:10179000E301F80185838F2D61960FB6F894DEBFC3
:1017A0000FBECDBFDF91CF911F910F91FF90EF90B2
:1017B000DF90CF90BF90AF900895AB2829F0842F91
:1017C00085238F3F09F027C180E0F82FF170DF2ECD
:1017D00080FF3CC08091AC012091AD0136E08213C6
:1017E00015C04D875E878D859E850E94440A292FEE
:1017F00022952F702230F0F0243018F59F70F1F010
:10180000F8019581907FD1F4D12C1EC090E0389FD3
:10181000F001399FF00D1124E255FE4F61816513EF
:1018200006C06081641303C06281E6120FC0019696
:101830008770D5CF9F7011F0882331F3805E883098
:1018400018F3C8010E94E008FD2CA5CFEE2009F492
:10185000A2CF8091E30181608093E301F12C9BCFC3
:10186000251306C0941304C0F801EE2009F487C0C4
:10187000C8010E943D09882319F1EE2009F18091E9
:10188000E301803270F02091DE013091DF01388772
:101890002F831986BB86AA868C87CE0107960E9465
:1018A000E00886E0F801AEEDB1E001900D928A9576
:1018B000E1F70E94190B0E940B0BFF24F3946BCFEE
:1018C000C8010E94E008F9CF311113C07A2DB98AFE
:1018D000A88A6E2D89890E9444098EED91E00E94AC
:1018E000E00886E0F60111928A95E9F70E940B0B59
:1018F000B5CF25130FC094130DC0E1100BC0F80134
:101900008583C8010E94E00886E0F60111928A955D
:10191000E9F741CFC8010E943D09882389F2EE20F2
:1019200079F28091E301803208F4BBCF2091DE018F
:101930003091DF013A8329831B82BD82AC828E8382
:10194000CE010196ACCFE83CF10508F03EC0FE2C7C
:10195000EE2009F4B5CF25132AC0941328C0809136
:10196000E30180FD1BC0982F907FC1F0F8018583B3
:10197000903F31F0982F907F905F8F70892B8583F7
:10198000C8010E94E00886E0F801AEEDB1E00190E8
:101990000D928A95E1F70E940B0BFDCE86E0F801CF
:1019A000AEEDB1E001900D928A95E1F7F4CEC80159
:1019B0000E943D09811175CF8091E3018160809380
:1019C000E301C8010E94E008E6CE7A2DB98AA88A10
:1019D0006E2D89890E94440986E0F60111928A954C
:1019E000E9F7D9CFEE2009F46BCFC8010E943D0979
:1019F000F82E882309F464CF86E0F801AEEDB1E05B
:101A000001900D928A95E1F78EED91E00E94D80544
:101A10000E94190BC0CF81E08E25D7CE1F93CF93A4
:101A2000DF93CDB7DEB72C970FB6F894DEBF0FBEAD
:101A3000CDBF4F83588769877A878B879C87CE0174
:101A400007960E946F0B882369F08A859B85892BF6
:101A500039F04F815885842F85238F3F09F071C05D
:101A600016E05FC086E0FE013796DE011196019018
:101A70000D928A95E1F78A859B85892B89F3888564
:101A80009F8189238F3F61F32091AD0130E0C9012F
:101A90000196877099274091AC014817190671F497
:101AA0000E941A091092AD011092AC0186E0EEED91
:101AB000F1E0DF011D928A95E9F7D2CF96E0929F7F
:101AC000D001939FB00D1124A255BE4FFE01319657
:101AD00001900D929A95E1F78093AD010E94EA0A78
:101AE000BFCF819FC001112482559E4F0E946F0B72
:101AF0008823E9F0E091AC011E9FF0011124E2552A
:101B0000FE4F4081518162817381848195810E9461
:101B100053098091AC0190E00196877099278093DA
:101B2000AC018091AC019091AD018913DACF2C9674
:101B30000FB6F894DEBF0FBECDBFDF91CF911F91DE
:101B4000089569857A858B859C850E94530988CF85
:101B5000682F80910001909101010C946E1B682FF9
:101B600080910001909101010C94791B80910001FA
:101B7000909101010C94841B8091E40185958595D9
:101B8000859508958091E401877008959091E4010E
:101B9000977081E009F480E0089590914F0292FBE4
:101BA000222720F9281751F080FB92F990934F02D9
:101BB00080914E0290914F020C94D20E0895809124
:101BC0004F0282FB882780F991E089270C94CD0D84
:101BD00081E00C94CD0D80E00C94CD0D8091080235
:101BE000089590910802892B8093080208958095AA
:101BF0009091080298239093080208951092080289
:101C0000089590910702892B80930702089580958B
:101C1000909107029823909307020895109207026B
:101C2000089590910602892B80930602089580956D
:101C3000909106029823909306020895109206024E
:101C400008958091E501089508950C94240E9091D3
:101C50004F0292FD08C09091E501981721F0809302
:101C6000E5010C94250E08958091E501882329F063
:101C70001092E50180E00C94250E0895E09100019A
:101C8000F0910101809108028083E0910001F091C0
:101C90000101808190910702892B8083E0910001EE
:101CA000F0910101808190910602892B80839091AF
:101CB000E501992381F0E0910001F091010180811B
:101CC000892B808380910001909101010E94DA1A92
:101CD00081110E94340E80910001909101010C94B9
:101CE000941A08950C94710E90914F0292FD10C0B9
:101CF00098E0899F90011124622B6093E4010E9477
:101D000091098091E4018595859585950C94720ED5
:101D10000C9491091092E40180E00C94720E909161
:101D2000E401809589238093E401282F277039F4FA
:101D3000282F082E000C330B9217130621F49091D4
:101D40004F0292FF07C08595859585950E949C0955
:101D50000C948A0E08956FEF7FEF90E080E00C9472
:101D6000782490E080E00E945424893E9E4F11F434
:101D70000C946B1580E0089582E090E00C944C2464
:101D800083E090E00C944C24CF9384E090E00E9498
:101D90004C24C82F82E290E00E944C24982F8C2F74
:101DA000CF910895CF93C92F682F84E090E00E94CF
:101DB0005A246C2F82E290E0CF910C945A24AB010C
:101DC000BC018FE090E00C946C24AB01BC0183E17A
:101DD00090E00C946C2460E070E0CB010C94E50E74
:101DE00060E070E0CB010E94DF0E0C94EB0E69EE18
:101DF0007EEF90E080E00E94782460E082E090E056
:101E00000E945A2460E083E090E00E945A241092DD
:101E1000AB0160E084E090E00E945A2460E082E23E
:101E200090E00E945A2460E085E090E00E945A24ED
:101E300060E086E090E00E945A246FEF87E090E037
:101E40000E945A2440E050E0BA0188E090E00E94ED
:101E50006C2460E08DE090E00E945A2440E050E065
:101E6000BA0188E190E00E946C2460E087E190E094
:101E70000E945A2440E050E0BA018CE190E00E94B8
:101E80006C2470E060E080E290E00E94782440E002
:101E900050E0BA0188E190E00E946C2480E00E944A
:101EA00084150E94AA150C94F00E0C94F70E682F5E
:101EB0008EE090E00C945A240E94191C6093160244
:101EC0007093170280931802909319026093120284
:101ED000709313028093140290931502089585B7AE
:101EE000806885BF85B7806885BF08950895089587
:101EF0000C94760F08950C947A0F0E946F0F86E46D
:101F000092E10E947C1C0E94770F0C94780F81E074
:101F100008950C94870F089508950E948B0F0C94D8
:101F20008C0F0E94041C0E94B9150E943C130E9451
:101F3000FC130C947B0F6F927F928F929F92AF92C3
:101F4000BF92CF92DF92EF92FF920F931F93CF93A6
:101F5000DF93CDB7DEB72A970FB6F894DEBF0FBE7A
:101F6000CDBF0E94511381110E945C0F3AE0832E75
:101F700032E0932E10E000E0A02E802F0E947F120E
:101F80006C01F401619071904F016816790609F4B3
:101F90005DC080911A0281FD0E948812B12CEE244E
:101FA000E394F12C6C247D24C3018E219F21892B85
:101FB00009F446C00E94890F8823A9F0BE82AF822F
:101FC000CE20DF2081E0CD2809F480E088870E94C0
:101FD0000D1C8160782F9A8789874E815F81688583
:101FE0008A850E949A05000F111FF801E65FFD4FD8
:101FF00080819181E826F926F182E0820E945A15BB
:102000000E94881A909109028917B9F10E94881AD2
:10201000809309022A960FB6F894DEBF0FBECDBF9B
:10202000DF91CF911F910F91FF90EF90DF90CF90B4
:10203000BF90AF909F908F907F906F900C9492057F
:10204000B394EE0CFF1CFDE0BF12AECF0F5F1F4F2D
:102050000430110509F090CF8FEF89838A831B82AA
:102060000E940D1C8160782F9D838C8349815A8149
:102070006B818D810E949A05C1CF2A960FB6F89484
:10208000DEBF0FBECDBFDF91CF911F910F91FF90AB
:10209000EF90DF90CF90BF90AF909F908F907F9008
:1020A0006F90089590E080E008950895FC01EE0F90
:1020B000FF1FE456FB4F859194910895CF93DF93D2
:1020C0000E946C11EC01811520E5920708F041C0D7
:1020D000811530E4930708F0B4C0803E910518F5EF
:1020E000803C910508F09DC0883A910570F4853ACE
:1020F000910508F08EC081309105F9F00097E9F064
:102100000497D8F4D0E0C0E018C08F3B9105D0F719
:10211000C85AD0E0CC0FDD1FC05CDE4F0990D881DB
:10212000C02DD4640AC08115904258F4C11581E0D5
:10213000D80718F4C83ED10528F7CE01DF91CF911A
:102140000895C11590E3D90708F071C0CE019F70C2
:102150006AC0811525E5920758F5811534E5930786
:1021600008F09EC0811542E5940750F4C11581E541
:10217000D80708F469C0DC2FCC27C16FD06ADDCF47
:10218000982F969596959E0123703327C115D345B8
:1021900008F077C0C1E0D0E002C0CC0FDD1F2A9567
:1021A000E2F720E2929FC0011124C82BD92B67C00F
:1021B000C11589E5D807A8F4C11598E5D90708F035
:1021C00074C0C11526E5D20708F09CCF8C2F0E9461
:1021D0000312C82FD0E0DC2FCC27CC27DF71D062D0
:1021E000ACCFC1153AE5D30708F464C0CE019056D0
:1021F0008115904208F086CF8D2F8F710E940312B7
:1022000090E0982F882788279F719C012C2BE9014B
:10221000E6CFC55AD0E0C259DE4FC881D0E0D064C5
:102220008CCF805C91090E945610EC0186CFCE01C4
:102230009927D3FF03C0EC01D86C7FCFEC01D06CA1
:102240007CCFDF70D06A79CFCE01E4E09695879598
:10225000EA95E1F783702C2F26952695237090E25E
:10226000299F90011124382B8C2F8370C1E0D0E07E
:1022700002C0CC0FDD1F8A95E2F7C22BD32BDC689E
:102280005CCFC1E0D0E002C0CC0FDD1F2A95E2F7A1
:1022900030E2939FC0011124C82BD92BDA684DCFAF
:1022A000D82FCC27C46FD06A48CFDC2FCC27C06F83
:1022B000D06A43CF8C2F8F700E94031234E0D695E2
:1022C000C7953A95E1F7CF709C2FEC01D06935CFD7
:1022D0000E94AF170C945E1082389105B1F1B0F4F2
:1022E0008133910509F475C048F48932910509F4E8
:1022F00069C08A32910509F473C008958533910548
:1023000009F459C08933910501F10895833E91057F
:10231000A9F138F4803E9105F9F0823E910549F12A
:102320000895863E9105A9F1873E9105C9F1843E45
:10233000910519F520914F0221FF1FC080914E0297
:1023400084FD14C087EE90E0089520914E02237022
:10235000A1F080EE90E0089520914E0220FD47C04C
:1023600030914F0230FF09C024FF44C090E080E06C
:1023700004C020914E0222FDF7CF089520914E0215
:1023800022FD3BC030914F0230FDE3CF24FFF5CF5B
:10239000EDCF20914E0223FFF0CF24FDE7CFD2CF27
:1023A00020914E0223FD2CC030914F0231FFEECF21
:1023B00084EE90E0089520914E0225FFDECF89E261
:1023C00090E0089520914E0225FFD7CF85E390E05D
:1023D000089520914E0226FFD0CF8AE290E0089522
:1023E00020914E0226FFC9CF81E390E0089589E352
:1023F00090E0089583EE90E0089582EE90E00895D5
:1024000086EE90E0089590914E0292FF06C0282F2C
:1024100028712830F9F4877F846093FF06C0282F45
:1024200028712831F1F4877E846120914F0220FFCA
:1024300006C0382F38713830D9F4877F816021FF8A
:1024400006C0282F28712831D1F4877E816194FD40
:10245000877E0895282F24712430F9F68B7F8860B9
:10246000DCCF282F2471243101F78B7E8861DDCFEA
:10247000382F3171313019F78E7F8860E0CF282FE7
:102480002171213121F78E7E8861E1CF80E00895AE
:102490000C94AB0E0E9451138FE39CE90197F1F766
:1024A00000C000000E94511380E00E947F1280FF54
:1024B00004C00E9448120C94581C08950C944A12AF
:1024C0000E94B10E811102C00E94550F0E94BC0EE5
:1024D00080931A020E94C40E90934F0280934E0282
:1024E0000E945E120E94C00E0E946D098091AA0196
:1024F0000C947E090C94490308950C947C12E82FE7
:10250000F0E0EE0FFF1FE85AFD4F808191810895A2
:10251000089580EA8A95F1F7089500C008950C9413
:102520008912F894E82FE295EF70F0E031A1282F9E
:102530002F7081E090E001C0880F2A95EAF7982F6C
:102540009095932391A392A1892B82A378940895C7
:10255000CF93DF9386EC0E94911287E60E9491123E
:1025600085E30E94911284E30E949112C1E7D1E0B9
:1025700089918F3F11F00E94911281E0CE37D807E8
:10258000B9F7DF91CF910895AF92BF92CF92DF92CA
:10259000EF92FF920F931F93CF93DF938C01B62E90
:1025A000C62FD0E0CE0182589E4F7C01FC012081D5
:1025B0002F3F09F453C0F894E22FE295EF70F0E05A
:1025C00031A12F7081E090E001C0880F2A95EAF7D1
:1025D000932F982B91A392A18095892382A378941D
:1025E0000E948D12E1E7F1E030E020E0D12CC12C17
:1025F00041E050E081918F3FE1F1A82FA295AF70AB
:10260000B0E090966C9170E08F7002C07595679500
:102610008A95E2F760FD2DC0CA01022E02C0880F24
:10262000991F0A94E2F7C82AD92A2F5F3F4F2D300D
:10263000310501F7F70180818F3F11F00E9491125F
:1026400061E0C114D10409F460E08B2D0E948F1267
:10265000CC0FDD1FC00FD11FD982C882DF91CF916F
:102660001F910F91FF90EF90DF90CF90BF90AF90B0
:10267000089590E080E0D7CF0E94A81288E0E8E5B6
:10268000F2E0DF01982F1D929A95E9F7E0E5F2E07C
:10269000DF011D928A95E9F784E00E949C130C9457
:1026A000E303FF920F931F93CF93DF93CDB7DEB772
:1026B00028970FB6F894DEBF0FBECDBF8E010F5F17
:1026C0001F4F88E0F80111928A95E9F7F12C6F2DE0
:1026D000C8010E94C412F394F4E0FF12F8CF48E05E
:1026E00050E0B80180E592E00E943F24FF24F3947B
:1026F000009709F4F12C892B41F088E0F801A0E55E
:10270000B2E001900D928A95E1F72F2D44E068E543
:1027100072E080E592E00E949D130E94EB038F2DF2
:1027200028960FB6F894DEBF0FBECDBFDF91CF91D4
:102730001F910F91FF9008950895FF920F931F939B
:10274000CF93DF93F82E092F162FD72FC42F2223D4
:1027500049F081E080931D020E940D1C90931C02A1
:1027600080931B0280911D028823A1F080911B029F
:1027700090911C020E94251C059760F0EF2DF02F10
:10278000A12FBD2F90E080E0D0E08C179D0744F092
:1027900010921D02DF91CF911F910F91FF9008952C
:1027A000219131912D933D930196EFCF0E94961B7D
:1027B0000E94041E0E941D1E0E942F1E0E948D0F4B
:1027C000FBCF86E090E00C944C24682F86E090E0EC
:1027D0000C945A24809160020C94E513E0E6F2E038
:1027E00080818470896280830C94E51380916002FB
:1027F00086958695869508950E94B10E811104C034
:102800000E94550F0E94EE130E94E1138093600214
:10281000803320F08770886280936002909160021C
:10282000892F817090FF04C0892F869586958695A3
:102830000C94FC1480916002982F9695969596952D
:10284000953040F49F5F990F990F990F8770892BEE
:1028500080936002809160028160809360020E9498
:10286000E513809160028695869586950C94FC14FC
:1028700080916002982F987F79F088508093600251
:10288000887F91E009F490E08091600290FB80F9EC
:10289000809360020E94E513809160028695869580
:1028A00086950C94FC148091600280FD13C08160B9
:1028B00080936002813019F489E0809360028091F6
:1028C00060020E94E5138091600286958695869548
:1028D0000C94FC1408958091600280FF08C08E7FE4
:1028E000809360020E94E51380E00C94FC1408952C
:1028F0008091600280FD0C946B140C9453149091A1
:102900006002892F8695869586958F5F8F71977067
:102910008630D8F4880F880F880F892B8093600247
:1029200080916002887F91E009F490E080916002DC
:1029300090FB80F9809360020E94E5138091600211
:102940008695869586950C94FC1490936002E8CF4A
:10295000863008F085E0909160029770282F220F52
:10296000220F220F922B90936002987F21E009F4AE
:1029700020E09091600220FB90F9909360020C940B
:10298000FC140E94A814809160020C94E5139C0131
:10299000FB018281882349F12D3BFCE53F07C9F00B
:1029A00040F42B3BECE53E0769F02C3B3C4579F0CD
:1029B00008952F3B9CE5390791F070F0203C3C4591
:1029C00089F0089585E00E94C11480E0089580E0B8
:1029D000FACF0E943814F9CF0E941A14F6CF0E9441
:1029E0007814F3CF0E947F14F0CF81E00895279AE6
:1029F0002F9808952F980895CF92DF92EF92FF922B
:102A0000CF93C82F863040F5811127C08091800078
:102A1000877F809380000E94FA142C2F30E0AFEF64
:102A2000BFEF0E94252425E030E040E050E00E9406
:102A3000F623C9012C3764E13607A8F469E070E099
:102A40000E94E22370938D0060938C00CF91FF90E1
:102A5000EF90DF90CF900895C5E08091800088606E
:102A600080938000DACF2A50374D4F4F5F4F942F1D
:102A7000832F722F662725EF38E241E050E00E9455
:102A8000F62369017A01CA01B9010E94D2239B0190
:102A9000AC01C701B6010E94D223672F782F892F7E
:102AA00099276115710521E08207910559F66FEFAD
:102AB0007FEFC8CF08950E94F7148AE080938000CA
:102AC00089E1809381008FEF9FEF9093870080933F
:102AD00086000C94FC1383E290E00E944C24813227
:102AE00089F484E290E00E944C24893059F485E214
:102AF00090E00E944C2491E0863209F090E0892F0A
:102B00008170089580E0FCCFCF93C82F6FEF8111C3
:102B100061E283E290E00E945A246FEFC11169E004
:102B200084E290E00E945A246FEFC11166E285E2D0
:102B300090E0CF910C945A24089586E290E00E9490
:102B40004C24682F70E090E080E0089586E290E0E9
:102B50000C945A2480E00E94841560E070E0CB0160
:102B60000E94A6150E9427170E94111881E00C945C
:102B700084150E949C150E946B15811102C00C9453
:102B8000AA150895CF93FB01C281CC2309F19C01C2
:102B900022513F452031310520F582510E942118F4
:102BA000C0E08C2FCF91089581E00E94910943E00D
:102BB00062E081E00E94DA03F3CF81E00E949C0989
:102BC00043E062E081E00E94DA03EBCF82E0F6CFDF
:102BD0008031FFE59F0789F381319F45B9F3C1E05B
:102BE000E0CF8031EFE59E07F9F281319F45C9F6CC
:102BF00082E0DBCF2FEFFC0120830895CF93DF939A
:102C0000EC018881893029F08A3079F0DF91CF9109
:102C100008950E94F6132FEF829FC001112465E0F2
:102C200070E00E94E2236983F1CF1982EFCFFC01AB
:102C30002081293061F48181F5E08F9FC00111244A
:102C40006FEF70E00E94E223862F0C94A814089581
:102C5000EF92FF920F931F93CF93DF93EC01062F18
:102C6000DC01ED91CD01E150E33108F0ADC0F0E0C1
:102C7000E255FB4D0C941824198289E08A83602F59
:102C8000CE01DF91CF911F910F91FF90EF900C94A7
:102C9000F81C8981823069F0833071F08130D9F479
:102CA0000E94191C0E941E246A837B838C839D834F
:102CB000E6CF0E949D15F6CF7E0110E0812F0E9485
:102CC0007F12F701928383831F5FF2E0EF0EF11C06
:102CD0001430A1F7D4CF602FCE010E94FA15CFCFC8
:102CE00089818230C1F76A817B818C819D810E94BC
:102CF0001E240E94A615C3CF4B816A8189810E9440
:102D0000F9169827892798279D838C83B8CF2C8123
:102D10003D813227232732274B816A8189810E9496
:102D20001217ADCF0E942717AACF0E941716A7CF60
:102D30000E94FE15A4CF0E94EA13A1CF0E94BC17E7
:102D400089839DCF0E94BE179827892798279A8349
:102D5000898395CF6B8170E089819A81AE014C5F48
:102D60005F4F9827892798270E94C11788CF6B81CA
:102D700070E089819A81AE014C5F5F4F9827892767
:102D800098270E94E7177BCF0E94111878CF0E94E6
:102D9000E716D6CF6B8170E089819A81AE014C5FD6
:102DA0005F4F9827892798270E945F1768CF6B810C
:102DB00070E089819A81AE014C5F5F4F9827892727
:102DC00098270E9485175BCF8FEF888358CF88E0C4
:102DD000089550E0440F551F9AE1699F400D511D21
:102DE000112498E6899F400D511D1124CA01879630
:102DF00008950F931F93CF93DF930E94E9168C01E0
:102E00000E944C24C82FD0E0DC2FCC27C8010196AB
:102E10000E944C249E01282BC901DF91CF911F9164
:102E20000F9108950F931F93CF93DF93122F032FCA
:102E30000E94E916EC01602F0E945A24612FCE01F6
:102E40000196DF91CF911F910F910C945A24AF926C
:102E5000BF92CF92DF92EF92FF921F93CF93DF93B7
:102E60008CEAC82E80E0D82ED0E07601C0E014C0F5
:102E7000F50125913491412F6C2F8D2F0E9412174F
:102E800082E0A80EB11C1F5F1D3091F78AE1E80EA9
:102E9000F11CCF5FC43019F0570110E0E9CFDF5FBC
:102EA00088E6C80ED11CD83001F7DF91CF911F9171
:102EB000FF90EF90DF90CF90BF90AF900895EF928A
:102EC000FF920F931F93CF93DF93EC018A017C0154
:102ED000E60EF71ECE018796CE15DF0539F4DF9199
:102EE000CF911F910F91FF90EF900895C03423E090
:102EF000D20740F40E944C24F80180830F5F1F4FDB
:102F00002196E8CFF8011082F9CFCF92DF92EF92AD
:102F1000FF920F931F93CF93DF937C016A018C0183
:102F2000060F171FEC01CE018796C017D10749F491
:102F3000DF91CF911F910F91FF90EF90DF90CF9095
:102F40000895C03423E0D20740F4FE01EE19FF09D2
:102F5000EC0DFD1D60810E945A242196E4CF462F7E
:102F6000883038F4743028F46D3018F4672F0C94DE
:102F7000F91690E080E0089580E1089589E990E0F5
:102F80000895EF92FF920F931F93CF93DF93EC017D
:102F90008A017C01E60EF71ECE0189599C4FCE15A1
:102FA000DF0539F4DF91CF911F910F91FF90EF90E2
:102FB0000895C939D10540F40E944C24F80180835A
:102FC0000F5F1F4F2196E8CFF8011082F9CFCF9203
:102FD000DF92EF92FF920F931F93CF93DF937C01C9
:102FE0006A018C01060F171FEC01CE0189599C4F15
:102FF000C017D10749F4DF91CF911F910F91FF9036
:10300000EF90DF90CF900895C939D10540F4FE01CB
:10301000EE19FF09EC0DFD1D60810E945A242196D6
:10302000E4CFCF93DF93C7E6D3E060E0CE010E9408
:103030005A242196C11584E0D807B9F7DF91CF91C2
:103040000895DF92EF92FF920F931F93CF93DF9338
:1030500000D000D0CDB7DEB7F82E8FE08F1540F04E
:103060008FEF93E00E944C2407E613E08823C1F021
:103070000F900F900F900F90DF91CF911F910F91B4
:10308000FF90EF90DF900895011584E0180781F319
:10309000C8010E944C24811101C0FA940F5F1F4F98
:1030A000F110F2CF19821A821B821C82DD24D39484
:1030B00078018FEFE81AF80AC8010E944C2489832E
:1030C0001A828823A9F29FEF980F933078F48A83AD
:1030D000D9820E5F1F4FC7010E944C248B83882327
:1030E00039F2CE0101960E943B05E2CF8701F9CF6C
:1030F0000F931F93CF93DF93C42FD22FFC018281B4
:103100008823C9F0409320020E940D1C90931F0257
:1031100080931E0280E28C0F883008F050C0C77088
:1031200081E001C0880FCA95EAF7DF91CF911F9126
:103130000F910C94D50610912002141335C0809184
:103140001E0290911F020E94251C883C910560F58B
:10315000C0E2CD0F1D17B9F080E2810F883040F436
:10316000177081E001C0880F1A95EAF70E94DC060B
:10317000C83048F481E09D2F977001C0880F9A9560
:10318000EAF70E94D506802F0E94CD06C830B8F419
:10319000D77081E001C0880FDA95EAF7DF91CF910F
:1031A0001F910F910C94DC0680E28C0F883038F46C
:1031B000C77081E001C0880FCA95EAF7EFCFDF91B1
:1031C000CF911F910F9108950F939C01CB01233F45
:1031D0004CE5340759F1A8F4283DFCE53F0701F11F
:1031E000293D4CE53407D1F1273D3C4591F406E2F9
:1031F00021EE41EE67ED7CE50E94781880E00F91AA
:103200000895253FFCE53F07E9F0B0F0263F3C4537
:10321000F9F0FC018281882339F110922002EFCF6E
:1032200007E225EE45EE68ED7CE5E6CF06E221EE0D
:1032300040EE63EF7CE5E0CF07E225EE44EE64EF7D
:103240007CE5DACF06E221EE42EE65EF7CE5D4CFF5
:1032500007E225EE46EE66EF7CE5CECF08E221E000
:1032600045EE69ED7CE5C8CF81E0C9CFCF93DF9310
:10327000EC01FB018281882309F419C1C230FCE50D
:10328000DF07C0F1C6319CE5D90730F09E012A5F07
:103290003C452930310570F50E94C40E90934F02D1
:1032A00080934E02C031ECE5DE0709F4CFC008F090
:1032B0005BC0C8308CE5D80709F4B6C088F5C430C7
:1032C000ECE5DE0709F4A8C0C0F4C2308CE5D807ED
:1032D00009F49CC080914E028260C330DC4509F441
:1032E00098C080914E0290914F020E94D20E0E948F
:1032F0001A0980E0DF91CF91089580914E0280619C
:10330000C630ECE5DE0709F484C080914E02886087
:10331000C730DC4508F47DC080914E02806279C0E0
:10332000CC308CE5D80709F489C070F480914E0246
:103330008C60CA30ECE5DE0709F46BC008F478C095
:1033400080914E028E7F65C0CE308CE5D80709F49F
:1033500079C080914E028B7FCF30DC4508F459C094
:1033600080914E028F7E55C0CB3FECE5DE0709F41D
:1033700057C030F5C3318CE5D80709F46FC078F435
:10338000C131ECE5DE0709F465C0C231DC4509F066
:10339000A8CF0E941A0980914E028F773AC0C5319A
:1033A0008CE5D80709F462C008F476C080914F021A
:1033B0008160CA3FDC4509F094CF80934F0291CFE2
:1033C000CF3FFCE5DF0709F44DC088F480914F0240
:1033D0008D7FCD3F9CE5D90781F380914F028E7F91
:1033E000CE3FDC4550F380914F028360E6CFC13081
:1033F000FDE5DF0709F459C008F444C080E0C2309D
:10340000DD4509F06ECF0E94570F6BCF80914E02C1
:10341000816080934E0265CF80914E028460F9CF27
:1034200080914F028260C9CF80914E028064F1CFBB
:103430000E941A0980914E028068EBCF80914E0263
:103440008D7FE7CF80914E02877FE3CF80914E0240
:103450008F7DDFCF80914E028F7BDBCF80914E023C
:10346000837FD7CF80914F028C7FA7CF80914E0270
:1034700082FB992790F921E0922790FB82F990FB3B
:1034800083F9C7CF80914F02982F909591708E7FCE
:10349000892B90FB81F991CF0E941A0990914E02DD
:1034A000892F97FB87F98058B4CF81E0ACCF81E0BA
:1034B00021CFCF93DF93EB0186319C4511F50E941C
:1034C000EE0D9A81992399F08A7A91E009F490E0BF
:1034D00090932102811109C089E20E94A80D0E94E7
:1034E0003E0E80E0DF91CF91089585E3F6CF809185
:1034F0002102811104C089E20E94AF0DF0CF85E363
:10350000FBCF81E0EFCF90932702809326020895AE
:10351000E0912602F0912702309721F00190F0818E
:10352000E02D099480E00895E0912602F0912702B1
:10353000309799F020910E01222359F020914E02EC
:1035400027FF07C0DC012C9111962C93119726E0E0
:103550002C930280F381E02D099408952091240298
:10356000309125022817390771F090932502809336
:103570002402E0912602F0912702309721F0068084
:10358000F781E02D099408952091220230912302C1
:103590002817390771F09093230280932202E0915B
:1035A0002602F0912702309721F00084F185E02D6A
:1035B00009940895FC01329680910E01882321F030
:1035C00080914E029EE187FF96E080E0915008F4E2
:1035D000089521912223D1F38F5FF8CF662301F163
:1035E00020910E012223F1F020914E0227FF1AC0F4
:1035F000462F4695469546954E3190F4677021E0EA
:1036000030E002C0220F331F6A95E2F7840F911D4C
:10361000FC01828190E02823392381E0232B69F487
:1036200080E00895FC01329608962191261721F03A
:10363000E817F907D1F7F4CF81E008959C01FC0168
:1036400032969FEF80E04191461751F09F3F19F469
:10365000411101C0982F8F5F8630A9F79F3F09F471
:103660000895290F311D97FD3A95F9016283089558
:10367000FC01329608962191261303C0DF011197B1
:103680001C92E817F907B9F70895E62FE695E69535
:10369000E695EE3168F4E80FF92FF11D677021E02F
:1036A00030E001C0220F6A95EAF78281822B828383
:1036B0000895E62FE695E695E695EE3170F4E80F6D
:1036C000F92FF11D677021E030E001C0220F6A95EB
:1036D000EAF72095828128232283089520910E0104
:1036E000222329F020914E0227FD0C94451B0C94B7
:1036F0001E1B20910E01222329F020914E0227FD4E
:103700000C94591B0C94381BFC01329680910E01CD
:10371000882351F080914E0287FF06C08EE1DF01C1
:103720001D928A95E9F7089586E0F9CF0895809172
:103730006902843031F10E94ED031092280288E181
:1037400090E020E40FB6F894A895809360000FBE37
:103750002093600083B7817F846083BF83B78160DB
:1037600083BF7894889583B78E7F83BF0FB6F89414
:10377000A89580916000886180936000109260003D
:103780000FBE089508950895CF930E94C21B0E9412
:1037900051130E94C31BC0E08C2F0E947F12892B03
:1037A00031F4CF5FC430C1F780E0CF91089581E05C
:1037B000FCCF0E941A090C9465041F921FB61F9239
:1037C00011248F939F93AF93BF938091280281110F
:1037D00013C08091610290916202A0916302B09146
:1037E00064024196A11DB11D809361029093620213
:1037F000A0936302B0936402BF91AF919F918F91A8
:103800001F901FBE1F90189582E084BD93E095BD68
:103810009AEF97BD80936E0008952FB7F89480912A
:10382000610290916202A0916302B09164022FBF85
:1038300008952FB7F89460916102709162028091AF
:103840006302909164022FBF08959C014FB7F894D2
:103850008091610290916202A0916302B091640232
:103860004FBF821B930B089578941F921FB61F922F
:1038700011248F939F93AF93BF9380916102909196
:103880006202A0916302B09164020196A11DB11D74
:103890008093610290936202A0936302B0936402EA
:1038A000BF91AF919F918F911F901FBE1F90189550
:1038B00081E08093E00080E28093D8001092C900FC
:1038C0008FE19EE40197F1F700C0000087E090EBE4
:1038D000DC018093720290937302A0937402B09300
:1038E000750288E19CE00FB6F894A895809360007B
:1038F0000FBE90936000FFCF90939301809392014D
:10390000089580914C0208950895CF93DF93EC01C0
:1039100080910E018823B1F180914E0287FF32C061
:1039200060E284E08093E9008FEF9091E80081509D
:1039300095FD06C095ED9A95F1F700008111F5CF40
:103940008091E80085FF1BC080910E0170E050E07F
:1039500040E0811104C050E040E068E070E0CE013A
:103960000E94F21E8091E8008E778093E80080E24A
:10397000FE01ACE2B2E001900D928A95E1F7DF9191
:10398000CF91089568E081E0CDCF809329027093B4
:103990002B0260932A02809169028430F9F48093AB
:1039A000E9008FEF9091E800815095FD06C095EDFC
:1039B0009A95F1F700008111F5CF8091E80085FF1D
:1039C0000DC050E040E063E070E089E292E00E94C8
:1039D000F21E8091E8008E778093E8000895BC0184
:1039E00084E00C94C51CBC0183E00C94C51C0895B4
:1039F000CF93FC01603221F580916902843001F59A
:103A0000C091E900CF702091EC00922F917020FDC1
:103A100090E8C92B82E08093E9008091E80080FF64
:103A20000CC050E040E060E270E0CF010E94F21E66
:103A30008091E8008E778093E800CF70C093E90012
:103A4000CF91089580916802811109C00E94D12010
:103A50000E942E218091E20084608093E20008950C
:103A600010926802089508950895089542E061EC67
:103A700081E00E944D2042E261EC84E00E944D20F2
:103A800042E261EC82E00E944D2042E260EC83E081
:103A90000C944D2080916B02833009F462C030F4A5
:103AA0008130D9F1823009F49EC008958A3009F43A
:103AB0008AC08B3009F470C0893009F051C0809100
:103AC0006A02813209F04CC080916E0290916F02BF
:103AD000009719F0029709F043C08091E800877FB2
:103AE0008093E8008091E80082FF36C09091F30057
:103AF0008091F200029731F48091F100813011F051
:103B0000863021F48091F10080934C028091E8008E
:103B10008B778093E8000C94812080916A02813A2F
:103B2000F9F48091E800877F8093E80080916E022D
:103B300090916F02892B61F460E28CE292E070E078
:103B40000E94901F8091E8008B778093E800089591
:103B500060E090E080E0F3CF809169028111C2CFF4
:103B6000089580916A02813AD9F780916E0290910E
:103B70006F02892BA9F78091E800877F8093E80086
:103B80008091E80080FFFCCF80910E018093F100CE
:103B90008091E8008E77BDCF80916A02813201F773
:103BA00080916E0290916F02892BD1F68091E8008E
:103BB000877F8093E8000E94812080916C0280932F
:103BC0000E010C941A0980916A02813249F68091A3
:103BD000E800877F8093E8000E94812080916D0239
:103BE00080934D02089580916A02813A09F0B8CF1E
:103BF0008091E800877F8093E8008091E80080FF53
:103C0000FCCF80914D02C2CF84B7877F84BF0FB6AF
:103C1000F894A8958091600088618093600010926C
:103C200060000FBE80E890E00FB6F89480936100CA
:103C3000909361000FBE0C947D0F0E94D1200E94D2
:103C40002E21E2EEF0E080818460808378940E94EF
:103C5000B7230E94910F82E091E00C94831ACF93D6
:103C6000DF93CDB7DEB7A0970FB6F894DEBF0FBED7
:103C7000CDBF80916902853031F480916902853031
:103C800091F10E94D91B0E949B0F809169028430A0
:103C900009F583E08093E9008091E80082FF1AC073
:103CA0008091E80090E085FF09C050E040E060E2CC
:103CB00070E0CE0101960E94411F91E08091E800E2
:103CC0008B778093E800992329F060E2CE0101967A
:103CD0000E942816A0960FB6F894DEBF0FBECDBF87
:103CE000DF91CF9108950E94971B809167028823EE
:103CF00021F20E94C41B882309F4BFCF0E94DC1E5E
:103D00000E941A09BACF0C94851E292F332723301D
:103D1000310521F168F42130310509F443C0223026
:103D2000310509F444C090E080E030E020E026C096
:103D30002132310551F122323105A9F76330710585
:103D400090F7FB01EE0FFF1FEB57FE4F20813181F3
:103D50006E577E4FFB01808190E010C09927813023
:103D6000910581F0009729F00297E9F6ECE9F4E07B
:103D700002C0E0ECF4E0849190E09F01FA0131830D
:103D800020830895EEEAF4E0F6CF6330710558F62B
:103D9000660F771FFB01E557FE4F2081318189E0D7
:103DA00090E0ECCF82E190E02FE135E0E7CF8BE5CA
:103DB00090E024EC34E0E2CF80E189BD82E189BD6E
:103DC00009B400FEFDCF8091D8008F7D8093D8008C
:103DD0008091E00082608093E0008091E00081FDAE
:103DE000FCCF0895AF92BF92CF92DF92FF920F93D4
:103DF0001F93CF93DF936C01EB018A010E94A020F7
:103E0000F82E811123C00115110539F0F8018081C8
:103E10009181C81BD90BC80ED91EB12CA12C20979B
:103E2000A9F08091E80085FD22C08091E8008E779E
:103E30008093E80001151105A1F0F80180819181BE
:103E4000A80EB91EB182A08285E0F82E8F2DDF91D9
:103E5000CF911F910F91FF90DF90CF90BF90AF90C7
:103E600008950E94A0208823D1F2F82EEFCFF6010A
:103E700081916F018093F1002197FFEFAF1ABF0A84
:103E8000CECFAF92BF92CF92DF92FF920F931F934C
:103E9000CF93DF936C01EB018A010E94A020F82EE2
:103EA000811123C00115110539F0F801808191813C
:103EB000C81BD90BC80ED91EB12CA12C2097A9F074
:103EC0008091E80085FD22C08091E8008B77809387
:103ED000E80001151105A1F0F80180819181A80E7B
:103EE000B91EB182A08285E0F82E8F2DDF91CF918F
:103EF0001F910F91FF90DF90CF90BF90AF900895EA
:103F00000E94A0208823D1F2F82EEFCF8091F100FB
:103F1000F60181936F012197FFEFAF1ABF0ACECF51
:103F2000FC01809170029091710286179707A0F0B2
:103F30006115710529F49091E8009E779093E8004F
:103F400090E06115710551F4911108C08091E8006D
:103F500082FF34C080E00895BC01F2CF80916902F5
:103F60008823C1F18530C1F18091E80083FD30C024
:103F70008091E80082FDEACF8091E80080FFE1CFE8
:103F80008091F3002091F200382F6115710519F02E
:103F90002830310558F091E02830310509F090E0E3
:103FA0002091E8002E772093E800CBCF8191809379
:103FB000F100615071092F5F3F4FE7CF8091690297
:103FC000882341F0853041F08091E80083FFBECF27
:103FD00081E0089582E0089583E00895FC018091D6
:103FE00070029091710286179707A0F06115710514
:103FF00029F48091E8008E778093E80090E06115C5
:10400000710551F4911108C08091E80082FF35C01C
:1040100080E00895BC01F2CF809169028823C9F144
:104020008530C9F18091E80083FD31C08091E800BE
:1040300082FDEACF8091E80080FFE1CF8091F3001C
:104040002091F200382F6115710519F028303105E3
:1040500058F091E02830310509F090E08091E800B7
:104060008E778093E800CBCF84918093F1003196D6
:10407000615071092F5F3F4FE6CF8091690288231D
:1040800041F0853041F08091E80083FFBDCF81E0B1
:10409000089582E0089583E00895982F973028F0DE
:1040A0008F708093E90081E008959093E900242FB8
:1040B000762F50E0981731F07091EC002091ED00D0
:1040C0005091F00021FD02C09F5FE8CF3091EB00DE
:1040D0003E7F3093EB003091ED003D7F3093ED005B
:1040E0003091EB0031603093EB007093EC00209343
:1040F000ED005093F0002091EE0027FDE5CF80E029
:10410000089580916A0287FF13C08091E80082FFC2
:1041100006C08091E8008B778093E80004C080910E
:1041200069028111F2CF0895809169028823D9F341
:104130008091E80080FFF8CF8091E8008E77ECCF87
:104140002091E4003091E50095E6A9012091EC0072
:10415000822F817020FF06C08091E80080FF06C09A
:1041600080E008952091E80022FD1AC08091690244
:10417000882389F0853089F08091EB0085FD0FC0A0
:104180002091E4003091E50042175307F9F2915075
:10419000E1F684E0089582E0089583E0089581E0E7
:1041A00008950E943F210E944721E0EEF0E08081C7
:1041B00081608083E8EDF0E080818F77808319BC97
:1041C000A7EDB0E08C918E7F8C9380818F7E808371
:1041D0001092680208950F931F93CF93DF930E946C
:1041E0003F210E944721C8EDD0E088818F778883E6
:1041F00088818068888388818F7D888319BC10922C
:10420000690210926502109267021092660200EE37
:1042100010E0F80180818B7F8083888181608883B2
:1042200042E060E080E00E944D20E1EEF0E080811D
:104230008E7F8083E2EEF0E08081816080838081E8
:1042400088608083F80180818E7F8083888180618F
:104250008883DF91CF911F910F910895E8EDF0E0F1
:1042600080818F7E8083E7EDF0E0808181608083B4
:1042700084E082BF81E0809368020C94EB20E8ED3B
:10428000F0E080818E7F80831092E200089510928A
:10429000DA001092E10008951F920F920FB60F926C
:1042A00011242F933F934F935F936F937F938F933B
:1042B0009F93AF93BF93EF93FF938091E10082FFB1
:1042C0000BC08091E20082FF07C08091E1008B7FEC
:1042D0008093E1000E94B6238091DA0080FF19C02C
:1042E0008091D80080FF15C08091DA008E7F809386
:1042F000DA008091D90080FF96C080E189BD82E11B
:1043000089BD09B400FEFDCF81E0809369020E945F
:10431000221D8091E10080FF19C08091E20080FFA2
:1043200015C08091E2008E7F8093E2008091E200D0
:1043300080618093E2008091D80080628093D800F1
:1043400019BC85E0809369020E94341D8091E100D0
:1043500084FF2BC08091E20084FF27C080E189BDEB
:1043600082E189BD89B5982F917080FFFBCF809144
:10437000D8008F7D8093D8008091E1008F7E80935C
:10438000E1008091E2008F7E8093E2008091E20064
:1043900081608093E20080916502882309F449C01E
:1043A00084E0809369020E94351D8091E10083FFC3
:1043B00029C08091E20083FF25C08091E100877FC2
:1043C0008093E10082E080936902109265028091FF
:1043D000E1008E7F8093E1008091E2008E7F8093E8
:1043E000E2008091E20080618093E20042E060E0C0
:1043F00080E00E944D208091F00088608093F00062
:104400000E94331DFF91EF91BF91AF919F918F91CA
:104410007F916F915F914F913F912F910F900FBEC0
:104420000F901F90189519BC109269020E94301DC0
:1044300070CF8091E30087FD93E090936902B3CF42
:104440001F920F920FB60F9211242F933F934F9309
:104450005F936F937F938F939F93AF93BF93CF930C
:10446000DF93EF93FF93D091E900DF708091EC0030
:10447000C82FC17080FDC0E81092E9008091F00063
:10448000877F8093F00078940E9464221092E90064
:104490008091F00088608093F000CD2BCF70C093A6
:1044A000E900FF91EF91DF91CF91BF91AF919F9183
:1044B0008F917F916F915F914F913F912F910F90CD
:1044C0000FBE0F901F9018951F93CF93DF93CDB71A
:1044D000DEB7AA970FB6F894DEBF0FBECDBF8AE64F
:1044E00092E02091F100FC012193CF01F2E08237AC
:1044F0009F07B9F70E944A1D8091E80083FF1EC103
:1045000080916A0290916B029A3008F017C1E92FEE
:10451000F0E0EF53FB4D0C941824803899F082386A
:1045200009F00CC180916E028F70873008F006C1CF
:104530008093E9008091EB0085FB882780F9109239
:10454000E90006C080916602909167029111826035
:104550009091E800977F9093E8008093F10010928B
:10456000F1008091E8008E77E5C0882309F4D3C07C
:10457000823009F0E3C080916C028111D6C0809135
:104580006E028F702FEF280F263008F0D7C080936F
:10459000E9002091EB0020FFC8C0933031F48091F6
:1045A000EB0080628093EB00C0C09091EB009061C3
:1045B0009093EB0021E030E001C0220F8A95EAF7EA
:1045C0002093EA001092EA008091EB008860EACF25
:1045D0008111B4C010916C021F778091E300807844
:1045E000812B8093E3008091E800877F8093E8002F
:1045F0000E9481208091E80080FFFCCF8091E30041
:1046000080688093E30082E0111183E08093690267
:1046100095C08058823008F091C080916C029091D2
:104620006D028C3D23E09207A1F583E08A838AE244
:1046300089834FB7F894DE01139620E03EE051E203
:10464000E32FF0E050935700E49120FF03C0E29580
:10465000EF703F5FEF708E2F90E0EA30C0F0C796AA
:104660008D939D932F5F243159F74FBF8091E800C0
:10467000877F8093E8006AE270E0CE0101960E9495
:10468000901F8091E8008B778093E80057C0C09618
:10469000E7CF60916E0270916F02AE014F5F5F4F86
:1046A0000E94831EBC01892B09F448C09091E80048
:1046B000977F9093E80089819A810E94EE1FE1CF55
:1046C0008038E1F58091E800877F8093E800809151
:1046D00065028093F10045CF811130C090916C024A
:1046E000923060F58091E800877F8093E800909396
:1046F00065020E94812080916502882311F084E088
:1047000005C08091E30087FDFACF81E080936902C4
:104710000E94361D13C080916C02813079F481E0D3
:10472000933009F080E0809367021092E900809155
:10473000E800877F8093E8000E9481208091E80054
:1047400083FF0AC08091E800877F8093E800809112
:10475000EB0080628093EB00AA960FB6F894DEBF60
:104760000FBECDBFDF91CF911F9108950895CF93D4
:10477000809169028823A1F0C091E900CF709091E7
:10478000EC00892F817090FD80E8C82B1092E90021
:104790008091E80083FD0E946422CF70C093E900FD
:1047A000CF910895DB018F939F930E943424BF9192
:1047B000AF91A29F800D911DA39F900DB29F900D70
:1047C00011240895AA1BBB1B51E107C0AA1FBB1FE0
:1047D000A617B70710F0A61BB70B881F991F5A958D
:1047E000A9F780959095BC01CD010895A1E21A2EFC
:1047F000AA1BBB1BFD010DC0AA1FBB1FEE1FFF1F85
:10480000A217B307E407F50720F0A21BB30BE40BD4
:10481000F50B661F771F881F991F1A9469F760951B
:104820007095809590959B01AC01BD01CF010895D5
:10483000EE0FFF1F0590F491E02D0994692796274C
:1048400069277827872778270895A29FB001B39F0B
:10485000C001A39F700D811D1124911DB29F700D89
:10486000811D1124911D08950E942524A59F900D5E
:10487000B49F900DA49F800D911D11240895FB01FC
:10488000DC0104C08D910190801921F44150504009
:10489000C8F7881B990B0895F999FECF92BD81BD89
:1048A000F89A992780B50895A8E1B0E042E050E079
:1048B0000C948024262FF999FECF92BD81BDF89AE1
:1048C000019700B4021639F01FBA20BD0FB6F89454
:1048D000FA9AF99A0FBE08950396272F0E945B2437
:1048E0000E945A24252F0E945B24242F0C945B24C1
:1048F0000196272F0E945B240C945A24DC01CB01E3
:10490000FC01F999FECF06C0F2BDE1BDF89A3196DF
:1049100000B40D9241505040B8F70895F894FFCF7D
:10492000170717076F076F07C107440744074407B6
:10493000DD07440853085308AF0844074407B80884
:10494000290929093209320934093209320932099F
:104950002909290939093209320939093C16491648
:1049600070167C1687169216951698169B16E416E6
:10497000E4169E16A216AA16B716C416C716CA16AD
:10498000D7168D22B5229E23B5229E23E822092325
:064990009E2360236C234E
:10499600E601811C851CF71CF31CEF1C841C01E23C
:1049A60000E900EA00B500B600B700CD008301CCEF
:1049B600008A019201940121022302240225022683
:1049C6000227022A02B300B4006F007000818283BE
:1049D600E200E900EA00B500B600B700CD008301A9
:1049E600CC008A01920194012102230224022502AD
:1049F600260227022A02B300B4006F0070008182EB
:104A060083F0F1F4F5F6F796949593929190C66734
:104A1600353440226DC00531055305D604EF040F29
:024A2600050089
:00000001FF
