:100000000C94D1020C9418030C9418030C9418034C
:100010000C9418030C9418030C9418030C941803F4
:100020000C9418030C9418030C94062B0C94DA2BE4
:100030000C9473250C9418030C9418030C94180357
:100040000C9418030C9418030C9418030C941803C4
:100050000C9418030C94CA250C9418030C941803E0
:100060000C9418030C9418030C9418030C941803A4
:100070000C9418030C9418030C9418030C94180394
:100080000C9418030C9418030C9418030C94180384
:100090000C9418030C9418030C9418030C94180374
:1000A0000C9418030C9418030C9418035300540078
:1000B000550001515F006000610067005C005D0059
:1000C0005E00570059005A005B0056000100C55CF5
:1000D000C65C005CC75CC85CAB00AC00C95CCA5CB9
:1000E000AD00AE007C007D00B300C25C01000100E9
:1000F00001000100010001000100010001000100F8
:1001000001000100010001000100010001000100E7
:1001100001000100010001000100010001000100D7
:1001200001000100010001000100010000000000C9
:10013000000000002A2B2800000000000000000042
:100140000000000000000029000000002C1E3420E8
:10015000212224342627252E362D3738271E1F200E
:100160002122232425263333362E37381F04050653
:100170000708090A0B0C0D0E0F1011121314151697
:100180001718191A1B1C1D2F3130232D3504050695
:100190000708090A0B0C0D0E0F1011121314151677
:1001A0001718191A1B1C1D2F3130354C0000000088
:1001B000000000000000000000000000000000003F
:1001C000000000000000000000000000000000002F
:1001D0007E0F00D4FFFFFFC70000007800047F3FC0
:1001E0001F643214643214783C1E1E140A05222344
:1001F000252628292A2C2D2F3032333536383A3B04
:100200003D3E4042434547494A4C4E505153555755
:10021000595A5C5E6062646668696B6D6F71737574
:1002200077797B7D7F81838587898A8C8E90929474
:1002300096989A9C9E9FA1A3A5A7A8AAACAEAFB181
:10024000B3B4B6B8B9BBBCBEBFC1C2C3C5C6C7C9CB
:10025000CACBCCCDCED0D1D2D2D3D4D5D6D7D7D885
:10026000D9D9DADADBDBDBDCDCDCDCDCDDDDDDDDD7
:10027000DCDCDCDCDCDBDBDBDADAD9D9D8D7D7D6DF
:10028000D5D4D3D2D2D1D0CECDCCCBCAC9C7C6C596
:10029000C3C2C1BFBEBCBBB9B8B6B4B3B1AFAEACDC
:1002A000AAA8A7A5A3A19F9E9C9A98969492908E87
:1002B0008C8A89878583817F7D7B79777573716F60
:1002C0006D6B6968666462605E5C5A59575553513C
:1002D000504E4C4A4947454342403E3D3B3A3836F2
:1002E000353332302F2D2C2A292826252322FFAA08
:1002F0007F554000010101010101010101020202DB
:1003000002020202020203030303030303030404C1
:10031000040404040405050505050606060606078B
:100320000707070708080808090909090A0A0A0B44
:100330000B0B0C0C0C0D0D0D0E0E0E0F0F0F1010E5
:10034000111111121213131414151516161717186C
:100350001819191A1A1B1B1C1D1D1E1E1F202021D7
:100360002222232424252626272829292A2B2C2D1E
:100370002D2E2F30313232333435363738393A3B3F
:100380003C3D3E3F404142434445464748494A4C34
:100390004D4E4F50515354555658595A5B5D5E5F00
:1003A000616264656668696B6C6D6F707273757796
:1003B000787A7B7D7E8082838587888A8C8E8F91F8
:1003C000939596989A9C9EA0A2A3A5A7A9ABADAF22
:1003D000B1B3B5B7BABCBEC0C2C4C6C9CBCDCFD10C
:1003E000D4D6D8DBDDDFE2E4E7E9EBEEF0F3F5F8B5
:1003F000FAFDFF100352004100520054003400582F
:100400000034000000120341006C006100620061D2
:100410000068007500790000000403090409025B0C
:1004200000030100A0FA0904000001030101000912
:1004300021110100012240000705810308000A097B
:100440000401000203000000092111010001222221
:1004500000070582032000010705030320000109AE
:10046000040200010300000009211101000122B66D
:10047000000705840320000A1201000200000008A2
:100480004C4104000100010200010660FF0961A166
:10049000010962150026FF00952075088102096395
:1004A000150026FF00952075089102C0050109027C
:1004B000A10185020901A1000509190129081500FA
:1004C0002501950875018102050109300931158161
:1004D000257F95027508810609381581257F9501CC
:1004E00075088106050C0A38021581257F9501756E
:1004F000088106C0C005010980A101850319012AF0
:10050000B700150126B700950175108100C0050CD4
:100510000901A101850419012AA002150126A002E2
:10052000950175108100C005010906A10185060528
:100530000719E029E71500250195087501810205D5
:1005400007190029EF1500250195F07501810205B5
:100550000819012905950575019102950175039109
:1005600001C005010906A101050719E029E71500E9
:10057000250195087501810295017508810105071E
:10058000190029FF150026FF009506750881000552
:1005900008190129059505750191029501750391C9
:1005A00001C011241FBECFEFDAE0DEBFCDBF04B61D
:1005B00003FE27C08091E0029091E102A091E20247
:1005C000B091E3028730904BA740B04BD1F410922A
:1005D000E0021092E1021092E2021092E30214BED5
:1005E00084B7877F84BF0FB6F894A8958091600088
:1005F000886180936000109260000FBEE0E0F8E335
:10060000099511E0A0E0B1E0EAE9FDE502C005903E
:100610000D92AC3DB107D9F722E0ACEDB1E001C0DD
:100620001D92A03EB207E1F70E9477130C94902E22
:100630000C940000811108C089EF611101C08AEF9C
:100640000E944D0681E008958130E1F789EA611149
:10065000F7CF8AEAF5CF81E0089581E008950C9400
:100660002D0308950C9431031F93CF93DF9300D093
:1006700000D00F92CDB7DEB749835A836B83309198
:10068000DE0189819A8131111DC06623B9F02223D0
:10069000A9F00E94C709182F682F89819A810E94AA
:1006A000740969817A81812F0F900F900F900F90BC
:1006B0000F90DF91CF911F910C9433210E94A009DC
:1006C000182FEFCF0E94C70969817A81EDCFFC0115
:1006D000262F408151816281738184810C9434037F
:1006E00081E00895CF93DF93EC0160E00E946703FF
:1006F000BE01DF91CF910C943203E1E0F0E0DF0125
:1007000002C0AA0FBB1F6A95E2F7BD01DF0102C05C
:10071000AA0FBB1F4A95E2F76A2B01C0EE0F2A957C
:10072000EAF7962F9823961302C08E2B0895E09532
:100730008E230895242F462F682F8091E5010E9473
:100740007D030C9431090E9421120E9402050C9431
:100750003C120C943F1280E00E9403050C94201B75
:10076000089508950E94C9080E94B1032FEF84E301
:100770009CE0215080409040E1F700C000000C94C4
:10078000EE250F931F93CF93DF938C0161E00E94BE
:100790006703EC01B8010E94F11D882309F441C0F0
:1007A000B801CE010E942F038823D9F1B801CE01F0
:1007B0000E94A0238823A9F1B801CE010E94421F04
:1007C000882379F1B801CE010E940A23882349F1D8
:1007D000B801CE010E94A31C882319F1F80182817F
:1007E000882361F0CA35FDE5DF0721F170F4C115FA
:1007F000ECE5DE07A1F0CE3DDC45C9F0C801DF9194
:10080000CF911F910F910C942B03CB358DE5D80719
:10081000A1F0CC35DD4591F70E944F0EEFCF0E943D
:10082000B20380E0DF91CF911F910F9108950E9454
:10083000080FF7CF0E94580EE1CF0E945B0EDECF6B
:100840000C94B0030E94F7230E9403050E94EC1B46
:100850000C942004DF92EF92FF920F931F93CF939B
:10086000DF93E82FF0E0E45DFE4FD490282F26952B
:100870002695269530E0F901E453FE4F04918770E8
:1008800010E0082E02C0159507950A94E2F7017052
:100890001127F901E454FE4FE490F12C082E02C018
:1008A000F594E7940A94E2F791E0E922FF24F90134
:1008B000E455FE4FC491D0E002C0D595C7958A9506
:1008C000E2F7C170DD270115110519F081EE0E94D4
:1008D0004E05E114F10419F086EE0E944E058D2DAF
:1008E0000E944D06EF2819F086EE0E94E005012BCC
:1008F00019F081EE0E94E005CD2B51F08CE2DF91E2
:10090000CF911F910F91FF90EF90DF900C944D06C7
:10091000DF91CF911F910F91FF90EF90DF9008959D
:10092000EF92FF920F931F93CF93DF93EC01162F5B
:100930000AE08881882309F454C0813009F04EC050
:100940008981813099F47E0122E0E20EF11C8A81D6
:100950000E944D06E7012196812F815050F3EFE967
:10096000FFE03197F1F700C00000F7CF823041F48B
:100970007E0182E0E80EF11C8A810E944E05EACFDA
:10098000833041F47E01E2E0EE0EF11C8A810E9488
:10099000E005E0CF843011F02196DDCF2A81229648
:1009A00090E080E0AE014F5F5F4F2053330B2A3061
:1009B000310548F0019778F2EFE9FFE03197F1F760
:1009C00000C00000F7CF089FB001099F700D1124EF
:1009D000C901860F971F2981EA01E4CF0E942A04EA
:1009E000BACFDF91CF911F910F91FF90EF900895B3
:1009F00060E00C94900408950C94FB0481E0089549
:100A00000C94FE040895CF93C82F0E94FC048C2FF1
:100A1000CF910C940005CF93DF93CDB7DEB72B9722
:100A20000FB6F894DEBF0FBECDBF4F8358876987DE
:100A30007A878B8761110E949D0D1E821D8285E041
:100A4000FE013796DE01119601900D928A95E1F72D
:100A50008C819D81892B89F449815A816B817C81AC
:100A60008D819E810E94BE0C2B960FB6F894DEBF3E
:100A70000FBECDBFDF91CF91089589819A818923DF
:100A80008F3F51F3CE0101960E9470038111E4CF94
:100A9000EBCFFC01808191810C94F409CF93C82F96
:100AA000882309F48BC08238C1F40E94F72381FDAA
:100AB00085C089E30E94580D0E94CD0D2FEF81EE75
:100AC00094E0215080409040E1F700C0000089E3AD
:100AD0000E945F0DCF910C94CD0D8338A1F40E943C
:100AE000F72380FD6BC083E50E94580D0E94CD0D59
:100AF0002FEF81EE94E0215080409040E1F700C05C
:100B0000000083E5E5CF8438A1F40E94F72382FD3D
:100B100055C087E40E94580D0E94CD0D2FEF81EE45
:100B200094E0215080409040E1F700C0000087E44D
:100B3000CFCF8CEF8C0F813A90F46C2F8091000115
:100B4000909101010E946B24882329F08C2F0E9430
:100B50005F0D0E94CD0D8C2F0E94580DBBCF80E2FF
:100B60008C0F883048F4C77081E001C0880FCA95A7
:100B7000EAF70E94800DAECFEBE5EC0FE33040F4D6
:100B8000F0E0E85AFE4F808190E0CF910C942B2446
:100B9000E8E5EC0FE73150F4F0E0EE0FFF1FE65D03
:100BA000FE4F80819181CF910C944124C03F30F061
:100BB0008C2F0E940914CF910C94DC14CF910895CE
:100BC000882309F452C0823871F40E94F72381FF10
:100BD0004CC089E30E94580D0E94CD0D89E30E940C
:100BE0005F0D0C94CD0D833859F40E94F72380FFDC
:100BF0003CC083E50E94580D0E94CD0D83E5EFCFE8
:100C0000843859F40E94F72382FF2FC087E40E94A2
:100C1000580D0E94CD0D87E4E2CF9CEF980F913ADA
:100C2000F0F290E2980F983050F4877091E001C094
:100C3000990F8A95EAF7892F0E94860DD2CF9BE5FE
:100C4000980F933020F490E080E00C942B2498E5EA
:100C5000980F973120F490E080E00C944124803F7D
:100C600020F00E9463140C94DC1408951F93CF931A
:100C7000DF93182FEB010E944E05209731F4812F4E
:100C8000DF91CF911F910C94E0058FE99FE00197D0
:100C9000F1F700C000002197F0CF70E060E08933E9
:100CA00011F460E570E00C943606882321F00E9470
:100CB000800D0C94CD0D0895882321F00E94860D9F
:100CC0000C94CD0D0895BF92CF92DF92EF92FF92D8
:100CD0000F931F93CF93DF936C01D62FC72FFC0187
:100CE0001281F580F2949FE0F9220E94760DE82EA1
:100CF0008823B9F0E12E1123A1F08C2F807F80345E
:100D000021F080E28D0F8830B0F08091AC0282FD3E
:100D100012C082E00E941E0E0E94760D91E0E82E25
:100D2000E926BC2EB2948FE0B822EB2DF0E0EE560F
:100D3000F14D0C94E42DE12CF4CF0C2F0F70C07FFB
:100D400011F00295007F112399F0002359F080E201
:100D50008D0F883010F0D11107C0802F0E94800DB8
:100D60000E94CD0D8D2F41C0802F0E94900DF8CF95
:100D70008D2F0E94E005002309F43FC080E28D0F13
:100D8000883010F0D11104C0802F0E94860D03C05E
:100D9000802F0E94960D0E94CD0D2FC00C2F0F703A
:100DA000C07FC03211F00295007FDD2381F0D13089
:100DB00009F469C0112309F473C0FF2009F469C064
:100DC000F601858180FFCECF8F70858362C08091D0
:100DD000AC0282FF38C0112359F0002329F0802F84
:100DE0000E94800D0E94CD0D80E00E944E0505C03E
:100DF00080E00E94E0050111C7CFEB2DE850FF0B0A
:100E0000349720F40E94F7230E940305EE2009F492
:100E10005DC10E94720D80FD59C1F60112820E94CF
:100E20006C0D0E944209C6010E9487080E946C0D49
:100E3000DF91CF911F910F91FF90EF90DF90CF90B6
:100E4000BF900C944D09112389F0F11006C00E9447
:100E5000B00D802B0E945506D0CFF1E0FF12F7CFE6
:100E60000E94B00D802B0E94B60DC7CFF11006C0B6
:100E70000E94C30D802F0E945C06BFCF21E0F216B6
:100E800009F4BBCFF5CF112331F035E03F1508F45D
:100E9000B4CF802FDFCF84E08F1508F4AECFEACF38
:100EA000FF2041F3D93349F4FFEF27EE33E0F1504F
:100EB00020403040E1F700C000008D2F0E94E00587
:100EC0009CCF8C2F86958695837069F0813009F0D0
:100ED00094CF8D2F9C2F9370111102C090E080E071
:100EE0000E9441248ACF8D2F9C2F9370111102C034
:100EF00090E080E00E942B2480CF8D2F112329F0D9
:100F00000E9409140E94DC1478CF0E946314FACF67
:100F10008C2F837079F5111170CF4D2F4295469526
:100F20004770440F440F8D2F8F70042E01C0880F1F
:100F30000A94EAF72D2F2071D4FF07C02FE030E08C
:100F400001C0220F4A95EAF72095C695C695C37051
:100F5000822BC23049F058F4C13019F00E942309A5
:100F60004CCF0E941E0949CF0E94280946CF0E94FB
:100F70001C0943CF8695112311F08C2F8170882393
:100F800009F43BCF4D2F429546954770440F440FCF
:100F90008D2F8F70042E01C0880F0A94EAF72D2F31
:100FA0002071D4FF07C02FE030E001C0220F4A9526
:100FB000EAF72095C695C695C370822BC23049F0DA
:100FC00058F4C13019F00E94690917CF0E946409D2
:100FD00014CF0E946E0911CF0E9431090ECFCF703D
:100FE000112329F08C2F0E9442098D2F33CF8D2F92
:100FF0000E945C068C2F0E944D09FFCED23F51F11A
:1010000060F4D03FB9F0D13F81F0112309F449C019
:10101000F110A8CE8C2F8F7121C0D33F11F1D43F96
:10102000A1F78091AC0282FF26C08C2F8F71112313
:1010300011F314C0112349F084E08F1508F4DDCEBC
:101040008C2F8F710E945909D8CE95E09F1508F416
:10105000D4CEF6CF8C2F8F711111CDCF0E944209C3
:10106000CCCE112329F08C2F8F710E943A09C5CE66
:101070000E943709C2CE112349F0CF718C2F0E94F4
:10108000420963E08C2F0E94030EB7CE81E00E94DC
:101090001E0EE1E0EF1508F0B0CE82E00E941E0EB9
:1010A000ACCEF110FFCE8C2F8F71A5CF4C2F4F708F
:1010B0006D2FC6010E940A100E94220A9ECE4C2F5C
:1010C0004F706D2FC6010E940D1097CEDF91CF910A
:1010D0001F910F91FF90EF90DF90CF90BF900895F8
:1010E0000F931F93CF93DF93EC01688179818A81FD
:1010F0000E94FE098C010E9473090E941B09B8011D
:10110000CE01DF91CF911F910F910C946306CF9385
:10111000DF93EC018B819C81892B29F08881998157
:1011200089238F3F59F4DF91CF910895CE010E941A
:101130007008CE01DF91CF910C947203CE010E9412
:10114000C1038111F3CF0E94760D882361F38A8158
:10115000882349F38091AC0282FDE5CF82E0DF91E4
:10116000CF910C941E0E90E080E00E942B2490E022
:1011700080E00E9441240E949D0D0E94AD0D0E94BE
:10118000CD0D0E9403160C94DC140E94660D0C9485
:10119000B3080E948D0D0C94C508E92FE295EF70FD
:1011A000E250EE3070F4F0E0EE55F14D0C94E42D89
:1011B000803F19F020F4883E20F481E00895843FB8
:1011C000E1F380E00895883EC0F3813FD1F7F5CF89
:1011D00093FB882780F90895FC01808191810E940A
:1011E000F4090C94CD08CF93DF9300D000D00F9278
:1011F000CDB7DEB70F900F900F900F900F90DF914B
:10120000CF910895CF93DF9300D000D000D0CDB719
:10121000DEB726960FB6F894DEBF0FBECDBFDF91C6
:10122000CF91089508950C9412090E941309809398
:10123000E6010C94B30808950C9415099091E60109
:10124000892B0C9415099091E60189230C941509BA
:101250009091E60189270C9415090C9412090C94BD
:101260002D090E942F098093E5010C94B30880E0BA
:101270000C94310991E001C0990F8A95EAF7892F02
:101280000C94310921E030E001C0220F8A95EAF781
:101290008091E501822B0C94310921E030E001C0FE
:1012A000220F8A95EAF720958091E50182230C941C
:1012B000310921E030E001C0220F8A95EAF78091E0
:1012C000E50182270C9431099091E501892B0C945A
:1012D00031099091E50189230C9431099091E50140
:1012E00089270C9431090895990F990F890F982F28
:1012F000977041E001C0440F9A95EAF7869586956C
:10130000869593E0899FF0011124E152FE4F30E071
:1013100020E070E05191DF011197CB01022E02C055
:10132000969587950A94E2F78170819585278423A5
:1013300085278C932F5F3F4F2330310559F7089550
:10134000990F990F890F982F977086958695869596
:1013500023E0829FF0011124E152FE4F50E040E073
:1013600080E0219130E0092E02C0369527950A943D
:10137000E2F721703327042E01C0220F0A94EAF706
:10138000822B4F5F5F4F4330510559F70895CF923D
:10139000DF92FF920F931F93CF93DF936C01009125
:1013A000E5018091E601082BC7E0D0E010E0FC2EBB
:1013B000C8010C2E02C0959587950A94E2F780FD2E
:1013C0000CC02197A0F7F12C8F2DDF91CF911F91A9
:1013D0000F91FF90DF90CF900895B6018C2F0E945F
:1013E0002911019771F3F0CFCF93DF93EC010E94A5
:1013F000C709BE01DF91CF910C9429111F93CF93A0
:10140000DF93EB019091DE01992331F0CB01DF9165
:10141000CF911F910C94F409882379F0CB010E949D
:10142000C709182F682FCE010E947409BE01812FB1
:10143000DF91CF911F910C942911CB010E94A0093B
:10144000182FF4CFEF92FF920F931F93CF93DF9358
:101450008C01892B81F0F12CEE24E394E801219694
:10146000F8018491843770F4843008F05FC08130D3
:10147000B1F08230A1F1DF91CF911F910F91FF90D8
:10148000EF900895853709F44CC008F43DC09CE7FF
:10149000980F903780F78F770E94E00549C00E5F64
:1014A0001F4FFE01849190E2980F983060F487708E
:1014B000FE2D01C0FF0F8A95EAF78F2F0E94A00D25
:1014C0000E94CD0D02C00E944E058F2D815030F23A
:1014D000EFE9FFE03197F1F700C00000F7CF0E5FB2
:1014E0001F4FFE01849190E2980F983050F487705E
:1014F000FE2D01C0FF0F8A95EAF78F2F0E94A60DDF
:10150000DFCF0E94E005E1CF0E5F1F4FFE01C491C7
:10151000C150D8F28FE99FE00197F1F700C00000B9
:10152000F7CF0E5F1F4FFE01F490CFCF0E944E0504
:101530008E01CBCF1F93CF93DF93C091E70116E0CD
:101540008091E8018C1304C0DF91CF911F91089521
:10155000D0E01C9FF0011D9FF00D1124E751FE4FBC
:101560004081518162817381848195810E94020949
:101570002196C770E5CF4091190250911A026091EF
:101580001B0270911C0280911D0290911E020C940E
:1015900002091F93CF93DF9380911E02807FA9F4ED
:1015A00080911B02882389F08091E701C091E801B6
:1015B0006091190270911A02A0911C02B0911D0253
:1015C000D62FD72316E0C81304C0DF91CF911F9107
:1015D000089590E0109711F0DF3F19F4019687709D
:1015E000F2CF189F9001199F300D1124F901E75196
:1015F000FE4F41814713F2CF40814613EFCF428126
:101600004111ECCF438154814A1B5B0B483C51058F
:1016100028F780911E028F70806180931E02F9016D
:10162000E251FE4F80818F708061808389E192E07A
:101630000E948708DF91CF911F910C949A0AAF9274
:10164000BF92CF92DF92EF92FF920F931F93CF93AF
:10165000DF93CDB7DEB761970FB6F894DEBF0FBE4C
:10166000CDBF8C0185E0F801DE011D9601900D9241
:101670008A95E1F7F801E28089E1C82E82E0D82E50
:1016800060911C0270911D026115710509F45AC127
:101690009091190220911A02892F82238F3F09F419
:1016A00051C140815181A380B480F0901B02F501AB
:1016B000E61BF70BFF2009F4F6C080911E02382FBD
:1016C000307FE83CF10508F0AFC0311179C0FE2C45
:1016D000251323C0941321C0E1101FC08F708061B7
:1016E00080931E020E94BB0AC6010E948708809157
:1016F0001E02F80185838F2D61960FB6F894DEBF28
:101700000FBECDBFDF91CF911F910F91FF90EF9052
:10171000DF90CF90BF90AF900895AB2829F0842F31
:1017200085238F3F09F027C180E0F82FF170DF2E6D
:1017300080FF3CC08091E7012091E80136E08213F0
:1017400015C04D875E878D859E850E94F409292FDF
:1017500022952F702230F0F0243018F59F70F1F0B0
:10176000F8019581907FD1F4D12C1EC090E0389F74
:10177000F001399FF00D1124E751FE4F618165138F
:1017800006C06081641303C06281E6120FC0019637
:101790008770D5CF9F7011F0882331F3805E883039
:1017A00018F3C8010E948708FD2CA5CFEE2009F48C
:1017B000A2CF80911E02816080931E02F12C9BCFEC
:1017C000251306C0941304C0F801EE2009F487C065
:1017D000C8010E94EC08882319F1EE2009F18091DC
:1017E0001E02803270F02091190230911A0238875F
:1017F0002F831986BB86AA868C87CE0107960E9406
:10180000870886E0F801A9E1B2E001900D928A957F
:10181000E1F70E94C90A0E94BB0AFF24F3946BCF30
:10182000C8010E948708F9CF311113C07A2DB98AF7
:10183000A88A6E2D89890E94F30889E192E00E94AE
:10184000870886E0F60111928A95E9F70E94BB0AA3
:10185000B5CF25130FC094130DC0E1100BC0F801D4
:101860008583C8010E94870886E0F60111928A9557
:10187000E9F741CFC8010E94EC08882389F2EE20E5
:1018800079F280911E02803208F4BBCF20911902B8
:1018900030911A023A8329831B82BD82AC828E83E7
:1018A000CE010196ACCFE83CF10508F03EC0FE2C1D
:1018B000EE2009F4B5CF25132AC0941328C08091D7
:1018C0001E0280FD1BC0982F907FC1F0F801858318
:1018D000903F31F0982F907F905F8F70892B858398
:1018E000C8010E94870886E0F801A9E1B2E00190F2
:1018F0000D928A95E1F70E94BB0AFDCE86E0F801C1
:10190000A9E1B2E001900D928A95E1F7F4CEC80109
:101910000E94EC08811175CF80911E028160809336
:101920001E02C8010E948708E6CE7A2DB98AA88ACD
:101930006E2D89890E94F30886E0F60111928A953E
:10194000E9F7D9CFEE2009F46BCFC8010E94EC086B
:10195000F82E882309F464CF86E0F801A9E1B2E00B
:1019600001900D928A95E1F789E192E00E94490584
:101970000E94C90AC0CF81E08E25D7CE1F93CF9396
:10198000DF93CDB7DEB72C970FB6F894DEBF0FBE4E
:10199000CDBF4F83588769877A878B879C87CE0115
:1019A00007960E941F0B882369F08A859B85892BE7
:1019B00039F04F815885842F85238F3F09F071C0FE
:1019C00016E05FC086E0FE013796DE0111960190B9
:1019D0000D928A95E1F78A859B85892B89F3888505
:1019E0009F8189238F3F61F32091E80130E0C90195
:1019F0000196877099274091E7014817190671F4FD
:101A00000E94C9081092E8011092E70186E0E9E11E
:101A1000F2E0DF011D928A95E9F7D2CF96E0929F1E
:101A2000D001939FB00D1124A751BE4FFE013196F6
:101A300001900D929A95E1F78093E8010E949A0A2D
:101A4000BFCF819FC001112487519E4F0E941F0B61
:101A50008823E9F0E091E7011E9FF0011124E7518E
:101A6000FE4F4081518162817381848195810E9402
:101A700002098091E70190E0019687709927809391
:101A8000E7018091E7019091E8018913DACF2C9664
:101A90000FB6F894DEBF0FBECDBFDF91CF911F917F
:101AA000089569857A858B859C850E94020988CF77
:101AB000682F80910001909101010C94EB24682F14
:101AC00080910001909101010C94F6248091000115
:101AD000909101010C94012580911F0285958595B7
:101AE0008595089580911F028770089590911F0237
:101AF000977081E009F480E0089580914302089591
:101B000090914302892B8093430208958095909190
:101B1000430298239093430208951092430208953C
:101B200090914202892B8093420208958095909172
:101B3000420298239093420208951092420208951F
:101B400090914102892B8093410208958095909154
:101B50004102982390934102089510924102089502
:101B600080912002089508950C94B30D9091AC02D9
:101B700092FD08C090912002981721F080932002D6
:101B80000C94B40D089580912002882329F01092BE
:101B9000200280E00C94B40D0895E0910001F091D2
:101BA0000101809143028083E0910001F0910101E5
:101BB000808190914202892B8083E0910001F09115
:101BC0000101808190914102892B808390912002B4
:101BD000992381F0E0910001F09101018081892B2E
:101BE000808380910001909101010E94572481110E
:101BF0000E94C30D80910001909101010C94032477
:101C000008950C94000E9091AC0292FD10C098E0E3
:101C1000899F90011124622B60931F020E94420948
:101C200080911F028595859585950C94010E0C94E5
:101C3000420910921F0280E00C94010E90911F0245
:101C40008095892380931F02282F277091F4282FD5
:101C5000082E000C330B9217130659F09091AC022A
:101C600092FD07C08595859585950E944D090C9438
:101C7000190E08959091AC0292FB222720F92817A3
:101C800069F080FB92F99093AC028091AB02909145
:101C9000AC020E94850E82E00C941E0E0895809185
:101CA000AC0282FB882780F991E089270C943A0ED8
:101CB00081E00C943A0E80E00C943A0E6FEF7FEFC7
:101CC00090E080E00C947A2E90E080E00E94562E06
:101CD000893E9E4F11F40C949A1D80E0089582E095
:101CE00090E00C94482E83E090E00C94482ECF9323
:101CF00084E090E00E94482EC82F82E290E00E948B
:101D0000482E982F8C2FCF910895CF93C92F682FED
:101D100084E090E00E945C2E6C2F82E290E0CF91F4
:101D20000C945C2EAB01BC018FE090E00C946E2E05
:101D3000AB01BC0183E190E00C946E2E60E070E09A
:101D4000CB010C94980E60E070E0CB010E94920EE3
:101D50000C949E0E69EE7EEF90E080E00E947A2E59
:101D600060E082E090E00E945C2E60E083E090E022
:101D70000E945C2E1092E60160E084E090E00E94F8
:101D80005C2E60E082E290E00E945C2E60E085E0E4
:101D900090E00E945C2E60E086E090E00E945C2E65
:101DA0006FEF87E090E00E945C2E40E050E0BA01C7
:101DB00088E090E00E946E2E60E08DE090E00E944E
:101DC0005C2E40E050E0BA0188E190E00E946E2E67
:101DD00060E087E190E00E945C2E40E050E0BA01B4
:101DE0008CE190E00E946E2E70E060E080E290E076
:101DF0000E947A2E40E050E0BA0188E190E00E9413
:101E00006E2E80E00E94B31D0E94D91D0C94A30E7B
:101E10000C94AA0E682F8EE090E00C945C2E0E9429
:101E2000AF256093510270935202809353029093B6
:101E3000540260934D0270934E0280934F02909330
:101E4000500208950E94AF25609351027093520290
:101E500080935302909354026093490270934A0214
:101E600080934B0290934C02089585B7806885BF9C
:101E700085B7806885BF0895089508950C943C0F38
:101E800008950C94400F0E94350F87E092E10E9464
:101E9000FF250E943D0F0C943E0F81E008950C94A5
:101EA0004D0F089508950E94510F0C94520F0E94F7
:101EB0009A250E94E81D0E94E3120E94B11B0E9415
:101EC00000220C94410F9F92AF92BF92CF92DF926B
:101ED000EF92FF920F931F93CF93DF93CDB7DEB7AF
:101EE0002A970FB6F894DEBF0FBECDBF0E94F8123E
:101EF00081110E940F0F85E4A82E82E0B82E10E019
:101F000000E0902E802F0E944112E82EF501C19032
:101F10005F01C81609F455C08091550281FD0E94E9
:101F20004712D12CFF24F394CE248C2D8F2109F459
:101F300043C00E944F0F882399F0DE829F82EF20DA
:101F400081E009F480E088870E94A3258160782FD2
:101F50009A8789874E815F8168858A850E940B05F3
:101F6000F801EB5BFD4F8081F826F0820E94F51BA3
:101F70000E94682281110E94220F0E94F7140E9481
:101F8000F72390914402891799F10E94F7238093D7
:101F900044022A960FB6F894DEBF0FBECDBFDF9184
:101FA000CF911F910F91FF90EF90DF90CF90BF9056
:101FB000AF909F900C940305D394FF0CF4E0DF12D4
:101FC000B4CF0F5F1F4F0430110509F09ACF8FEF88
:101FD00089838A831B820E94A3258160782F9D8339
:101FE0008C8349815A816B818D810E940B05BECF04
:101FF0002A960FB6F894DEBF0FBECDBFDF91CF910A
:102000001F910F91FF90EF90DF90CF90BF90AF9016
:102010009F90089590E080E008950895FC01EE0FF0
:10202000FF1FE452FE4F859194910895CF93DF9363
:102030000E942D11EC01811520E5920708F042C0A5
:10204000811530E4930708F0BDC0883E910528F55E
:10205000803E910508F09DC0883A910588F4853A44
:10206000910508F08FC08130910509F492C0009766
:1020700009F48FC0049708F08CC0D0E0C0E089C09C
:102080008F3B910508F489C0805C9109C03CD10563
:10209000A0F30E940E10EC017CC08115904250F418
:1020A000C11581E0D80708F074C0C03FD10528F3FE
:1020B000D0656FC0C11590E3D90708F079C0CE0193
:1020C0009F70E7CF811525E5920758F5811534E516
:1020D000930708F0A6C0811542E5940750F4C11596
:1020E00081E5D80708F471C0DC2FCC27C16FD06A16
:1020F00050C0982F969596959E0123703327C11551
:10210000D34508F07FC0C1E0D0E002C0CC0FDD1F96
:102110002A95E2F720E2929FC0011124C82BD92B07
:102120006FC0C11589E5D807A8F4C11598E5D9078E
:1021300008F07CC0C11526E5D20708F09ECF8C2F91
:102140000E94C411C82FD0E0DC2FCC27CC27DF7130
:10215000D0621FC0C1153AE5D30708F46CC0CE01A8
:1021600090568115904208F088CF8D2F8F710E9474
:10217000C41190E0982F882788279F719C012C2BF1
:10218000E901E6CFC55AD0E0C757DE4FC881D0E09D
:10219000D064CE01DF91CF910895C85AD0E0CC0F22
:1021A000DD1FC55ADE4F0990D881C02DD464F1CF10
:1021B000CE019927D3FF03C0EC01D86CEACFEC0124
:1021C000D06CE7CFDF70D06AE4CFCE01E4E0969523
:1021D0008795EA95E1F783702C2F26952695237035
:1021E00090E2299F90011124382B8C2F8370C1E03D
:1021F000D0E002C0CC0FDD1F8A95E2F7C22BD32BB3
:10220000DC68C7CFC1E0D0E002C0CC0FDD1F2A954B
:10221000E2F730E2939FC0011124C82BD92BDA6872
:10222000B8CFD82FCC27C46FD06AB3CFDC2FCC2740
:10223000C06FD06AAECF8C2F8F700E94C41134E073
:10224000D695C7953A95E1F7CF709C2FEC01D069F0
:10225000A0CF0E9433210C94161082389105B1F161
:10226000B0F48133910509F475C048F489329105C1
:1022700009F469C08A32910509F473C00895853361
:10228000910509F459C08933910501F10895833E00
:102290009105A9F138F4803E9105F9F0823E91054F
:1022A00049F10895863E9105A9F1873E9105C9F14E
:1022B000843E910519F52091AC0221FF1FC0809149
:1022C000AB0284FD14C087EE90E008952091AB022C
:1022D0002370A1F080EE90E008952091AB0220FDE4
:1022E00047C03091AC0230FF09C024FF44C090E0E9
:1022F00080E004C02091AB0222FDF7CF0895209129
:10230000AB0222FD3BC03091AC0230FDE3CF24FF95
:10231000F5CFEDCF2091AB0223FFF0CF24FDE7CF27
:10232000D2CF2091AB0223FD2CC03091AC0231FF03
:10233000EECF84EE90E008952091AB0225FFDECF32
:1023400089E290E008952091AB0225FFD7CF85E385
:1023500090E008952091AB0226FFD0CF8AE290E072
:1023600008952091AB0226FFC9CF81E390E0089544
:1023700089E390E0089583EE90E0089582EE90E086
:10238000089586EE90E008959091AB0292FF06C00A
:10239000282F28712830F9F4877F846093FF06C0C6
:1023A000282F28712831F1F4877E84612091AC02B6
:1023B00020FF06C0382F38713830D9F4877F81600C
:1023C00021FF06C0282F28712831D1F4877E816132
:1023D00094FD877E0895282F24712430F9F68B7F91
:1023E0008860DCCF282F2471243101F78B7E88612F
:1023F000DDCF382F3171313019F78E7F8860E0CF13
:10240000282F2171213121F78E7E8861E1CF80E074
:1024100008950C945E0E0E94F8128FE39CE90197D8
:10242000F1F700C000000E94F81280E00E94411203
:1024300080FF04C00E9409120C94EE2508950C94AC
:102440000B120E94640E811102C00E94080F0E94AC
:102450006F0E809355020E94770E9093AC0280938A
:10246000AB020E941F120E94730E0E941C098091F1
:10247000E5010C942F0908950C943B1208950C94D7
:102480003E12E82FF0E0EF54FD4F8081089508954B
:1024900080EA8A95F1F7089500C008950C944812D7
:1024A000F894E82FE295EF70F0E031A1282F2F701B
:1024B00081E090E001C0880F2A95EAF7982F909567
:1024C000932391A392A1892B82A37894089584EFFA
:1024D0000E94501286E30E94501283E30E94501221
:1024E00081E30E94501287EF0E94501282E30E9403
:1024F000501285E30E94501284E30C945012CF9244
:10250000DF92EF92FF920F931F93CF93DF93EC0133
:10251000D62E062F10E0C80180579E4F7C01FC018B
:1025200080818F3F09F444C0F894E82FE295EF7062
:10253000F0E091A18F7021E030E001C0220F8A9578
:10254000EAF7892F822B81A382A12095282322A339
:1025500078940E944C12ECE8F1E031E0C12C21911A
:102560002F3F79F1A22FA295AF70B0E090968C9199
:1025700090E02F7002C0959587952A95E2F780FD2F
:1025800020C0832FC82A330F81E0E039F80739F7DC
:10259000F70180818F3F11F00E94501261E0C1105D
:1025A00001C060E08D2D0E944E12C00FD11FC88265
:1025B000DF91CF911F910F91FF90EF90DF90CF901F
:1025C000089580E0DFCF0E94671284E0E1EBF2E043
:1025D000DF01982F1D929A95E9F7EDEAF2E0DF010D
:1025E0001D928A95E9F784E00E943A130C94A303A4
:1025F0001F93CF93DF9300D000D0CDB7DEB7198201
:102600001A821B821C8210E0612FCE0101960E946B
:102610007F121F5F1430C1F744E050E0BE016F5FCE
:102620007F4F8DEA92E00E943B2E11E0009709F463
:1026300010E0892B61F089819A81AB81BC81809304
:10264000AD029093AE02A093AF02B093B002212FDF
:1026500044E061EB72E08DEA92E00E943B130E943D
:10266000A903812F0F900F900F900F90DF91CF91C2
:102670001F9108950895FF920F931F93CF93DF93B7
:10268000F82E092F162FD72FC42F222349F081E0CF
:10269000809358020E94A32590935702809356027C
:1026A000809158028823A1F08091560290915702A0
:1026B0000E94BB25059760F0EF2DF02FA12FBD2FB5
:1026C000CE0FDF2FD11DEC17FD0741F410925802F9
:1026D000DF91CF911F910F91FF90089581918D937C
:1026E000F2CF0E94EB270E94630F0C9405280E94F2
:1026F0002D250E94C2270E94430F0E94DB270E94C3
:10270000570F0E9471130E94530FFBCF80915F02FD
:1027100080FF12C06091070185E0689FB00111241D
:10272000759567957595679560387105A8F561157C
:102730007105A1F1862F089581FF09C060910701FD
:1027400085E0689FB001112475956795EDCF609184
:10275000070182FD0AC080915E028823D1F090912A
:10276000060160910701891728F085E0689FB00194
:102770001124DACF869FB001112485E0869F900155
:10278000879F300D1124692F70E0C9010E94AE2D82
:10279000CBCF65E070E0CECF8FE7089581E008955C
:1027A00080915F0280FF0CC06091030170E075951D
:1027B0006795759567956115710549F1862F08959F
:1027C00081FF06C06091030170E075956795F3CFB6
:1027D0006091030182FD0BC090915D029923A1F0ED
:1027E0006091020180910301961738F0682F70E024
:1027F0006038710500F38FE70895899FC0011124A7
:1028000070E00E94AE2DF4CF61E070E0D7CF81E0A0
:102810000895803F31F40E9486138195809363026E
:102820000895813F19F40E948613F8CF823F31F456
:102830000E9486138195809362020895833F19F464
:102840000E948613F8CF893F29F40E94D013809309
:10285000640208958A3F21F40E94D0138195F7CF36
:102860008B3F31F40E94D0138195809365020895C7
:102870008C3F19F40E94D013F8CF9CE0980F95304C
:1028800070F4845F990B21E030E001C0220F8A953B
:10289000EAF780916102822B8093610208958D3F57
:1028A00031F480915F02816080935F0208958E3FD2
:1028B00021F480915F028260F7CF8F3FB9F780915A
:1028C0005F028460F1CF40916202803F59F48091B1
:1028D000630287FF0DC01092630241110BC010927A
:1028E0005E0208C0813F81F48091630218169CF358
:1028F000442381F08091640290916502892B09F054
:102900005AC010925D020895823F49F447FFF0CF0C
:1029100010926202809163028111ECCFE0CF833F7D
:1029200019F41416ACF3E4CF90916402893F29F4B2
:102930001916F4F610926402DBCF8A3F19F497FF60
:10294000D7CFF8CF909165028B3F29F497FFD0CF76
:1029500010926502CDCF8C3F19F41916CCF3C8CF75
:102960009CE0980F953090F4845F990B21E030E063
:10297000B90102C0660F771F8A95E2F7CB018095F7
:1029800090916102892380936102B2CF8D3F31F42F
:1029900080915F028E7F80935F02AACF8E3F21F4E9
:1029A00080915F028D7FF7CF8F3F09F0A1CF80919B
:1029B0005F028B7FF0CF08950E94A3259C01909128
:1029C000620280916302982B21F030935C02209385
:1029D0005B029091640280916502982B21F0309304
:1029E0005A022093590280E692E00C941D24EF9243
:1029F000FF920F931F93CF93DF9300D000D000D0AE
:102A0000CDB7DEB786E0E0E6F2E0DE011196019098
:102A10000D928A95E1F7E0906202F09063020091D6
:102A20006402109165021092620210926302109289
:102A30006402109265028E2D8F2991F080915B02C5
:102A400090915C020E94BB25AC0190915E0299239B
:102A500009F43FC0809108018417150608F447C0A7
:102A6000802F812B91F08091590290915A020E94FF
:102A7000BB25AC0190915D02992309F477C0809148
:102A800004018417150608F47FC0809162029091BA
:102A90006302892B90916402892B90916502892BA6
:102AA00011F00E94DC1486E0FE013196A0E6B2E04F
:102AB00001900D928A95E1F726960FB6F894DEBF45
:102AC0000FBECDBFDF91CF911F910F91FF90EF907F
:102AD0000895209109018AE0289F9001112424176C
:102AE000350708F0BDCF9F5F90935E0202C09F3F05
:102AF000D1F7EE2059F00E9486139FEF1E140CF4BC
:102B000091E0899F802D112480936202FF2059F06B
:102B10000E9486139FEF1F140CF491E0899F802D73
:102B200011248093630230916202332309F498CF19
:102B300020916302222309F493CF45EB3403C001B3
:102B40001124992359F09093620245EB24039001DC
:102B50001124332339F03093630282CF81E08093D4
:102B60006202F3CF81E0809363027ACF2091050166
:102B70008AE0289F900111242417350708F085CF9B
:102B80009F5F90935D0202C09F3FD1F7002359F0F1
:102B90000E94D0139FEF10160CF491E0899F802DB6
:102BA000112480936402112359F00E94D0139FEFE7
:102BB00011160CF491E0899F802D112480936502F9
:102BC00030916402332309F460CF209165022223FF
:102BD00009F45BCF45EB3403C0011124992359F06C
:102BE0009093640245EB240390011124332339F0C0
:102BF000309365024ACF81E080936402F3CF81E095
:102C00008093650242CF86E0E0E6F2E0DF011D92AC
:102C10008A95E9F710925E0210925D0210925F02AF
:102C20000895EF92FF920F931F93CF93DF93EB01E1
:102C3000E82FD11110C0442321F0F0E0ED50FD4FFA
:102C4000E4916E2F7E2F8E2FDF91CF911F910F91E8
:102C5000FF90EF9008950D2F10E0282F30E04423CF
:102C600029F02D503D4FF901249130E0F6E0CF9F3F
:102C7000C0011124EFEFF0E0BF010E949A2DAB01DB
:102C80008C2F90E0880F991FA5E5A49FB001A59F08
:102C9000700D1124861B970B982F990F980FBF0169
:102CA000601B710B629FD001639FB00D729FB00DCE
:102CB00011248B2F9D9FB0011124672F7727EF01DF
:102CC000C61BD70BBE01629FE001639FD00D729FB0
:102CD000D00D11247F01E91AF108E09EB001E19EB8
:102CE000700DF09E700D1124672F7727E61BF70BF0
:102CF000E29F8001E39F100DF29F100D1124E12F40
:102D0000722F4230510599F048F44115510569F090
:102D10004130510581F0EB2F8D2F07C04430510514
:102D200069F080F046305105B1F76E2F8DCFE22F5C
:102D30007B2F812FFACFE22F7D2FF7CFEB2F822F22
:102D4000712FF3CF7B2F822FED2FEFCF41E00C942B
:102D5000111608950C94A616CF93DF93762FE901F0
:102D6000682F842F0E94AA16798368838A83DF9153
:102D7000CF910895413F08F040EF0C94AC1680913C
:102D8000B502982F9E7F61F4817082608093B502B6
:102D90008091B802813F18F080EF8093B8020895C7
:102DA0008A34B0F381708864F1CF88E090E00C94AD
:102DB000502ECF92DF92EF92FF926B017C010E9426
:102DC000BF16B701A60188E090E0FF90EF90DF907A
:102DD000CF900C946E2E6091B5027091B6028091E6
:102DE000B7029091B8020C94D916E5EBF2E083E0BB
:102DF000808311828FEF828380EF838314826081CE
:102E00007181828193810C94D9168091B50280FFE3
:102E100002C08695089580E008959091B90293309C
:102E200018F49F5F9093B902882351F06091B50226
:102E30007091B6028091B7029091B8020C94D916A5
:102E4000089581E00C940D179091B902992319F01F
:102E500091509093B902882351F06091B50270911E
:102E6000B6028091B7029091B8020C94D9160895D9
:102E700081E00C9424178091B90208958093B902DF
:102E8000662351F06091B5027091B6028091B7024D
:102E90009091B8020C94D916089560E00C943E17F6
:102EA0008091B60208958091B70208958091B8028A
:102EB000089570E00C946E1D60910E018091B50232
:102EC00080FF0AC080910D0123E0829FC001112480
:102ED00086549D4F0C94591780910F0190911001C9
:102EE00023E0829FF0011124E654FD4F891750F72B
:102EF0001182108212828F5F3396F8CF9091B502C3
:102F000090FF14C090910F012091100133E0939F26
:102F1000F0011124E654FD4F921710F00C945C1749
:102F20008183608342839F5F3396F6CF0895CF936A
:102F3000DF9300D00F92CDB7DEB79091B50290FF2E
:102F40000AC09E012F5F3F4F0E94BA164B816981D4
:102F50008A810E947E170F900F900F90DF91CF9182
:102F60000895CF93DF93EC01EC81F0E0E251FE4F46
:102F70004491E5EBF2E0628181810E9497178C8198
:102F80008F5F8C83DF91CF910895CF93DF93EC0116
:102F9000E5EBF2E0438162818C810E9497178C817E
:102FA0008F5F8C83DF91CF9108950F931F93CF9301
:102FB000DF9300D00F92CDB7DEB78C01809166020F
:102FC00081110AC09E012F5F3F4F40EF6FEF0E94BB
:102FD000BA168A8180936602F8016481613069F0D3
:102FE0008091660240E0662361F040E0623011F4B7
:102FF0004091660280E060E004C06091660240E0BB
:1030000080E00E947E17F801848190E0019663E0E1
:1030100070E00E94AE2D84830F900F900F90DF918F
:10302000CF911F910F910895AF92BF92CF92DF92EF
:10303000EF92FF920F931F93CF93DF9300D00F92E5
:10304000CDB7DEB7182FF62E042FE22E9091B502E1
:1030500090FF29C0E92FE695AE2FB0E0AC56BE4FE9
:103060008C91809372029E7F923059F59E012F5F62
:103070003F4F812F0E94BA164B8169818A810E943D
:103080007E171093B602F092B7020093B802EE20BA
:1030900051F06091B5027091B6028091B7029091A3
:1030A000B8020E94D9160F900F900F90DF91CF9128
:1030B0001F910F91FF90EF90DF90CF90BF90AF9056
:1030C0000895823019F40091B802DBCF863019F4EC
:1030D0001091B602D6CF8930D9F3893191F6E951F2
:1030E0008E2F8170D82EE695F0E0E251FD4FA5902D
:1030F000B490C12CBB2460911101C61618F00E9437
:103100005C17BFCF2C2D30E0A29EC001A39E900D76
:10311000B29E900D112470E00E949A2D812FD11043
:1031200013C0860F40910F01420F532F511D9A017A
:10313000220F331F240F351F26543D4F402F6F2D74
:103140000E94BA16C394D7CF861BECCFE5EBF2E012
:103150009181282F4381628188E0890F0C94141893
:1031600081E00C94A618E5EBF2E09181282F4381D1
:10317000628188EF890F0C94141881E00C94B318C5
:10318000E5EBF2E0628128E0620F08F46FEF282F90
:10319000438181810C94141881E00C94C018E5EBF4
:1031A000F2E0628128E0621B08F460E0282F43818E
:1031B00081810C94141881E00C94CF18E5EBF2E0B7
:1031C000438128E0420F08F44FEF282F628181816C
:1031D0000C94141881E00C94DE18E5EBF2E04381C6
:1031E00028E0421B08F440E0282F628181810C9482
:1031F000141881E00C94ED1820E00C941418EF9250
:10320000FF921F93CF93DF93EC0110E0EE24EA943A
:10321000F12C60911101161770F00E945C179A81D1
:103220008C8190FF27C08F5F8C83DF91CF911F919E
:10323000FF90EF90089520910F01422F410F5527E5
:10324000551FCA019A01220F331F280F391F265418
:103250003D4F70E0C7010E94AE2D962F8C814091AA
:10326000B8026091B702199F800D11240E94BA160E
:103270001F5FCFCF8150D8CFAF92BF92CF92DF9256
:10328000EF92FF920F931F93CF93DF93FC01828104
:103290000FEF80FF01E010E047E0A42E80911101C4
:1032A0001817C8F00E945C1780916802013009F07D
:1032B00055C0811102C08091110181508093680234
:1032C000DF91CF911F910F91FF90EF90DF90CF9002
:1032D000BF90AF900895C0910F01C12ED12CCC0D9D
:1032E000DD2DD11DCE01880F991FC80FD91FC654DF
:1032F000DD4F198218821A8234E0E32EF12CB12CB2
:10330000809168028B0D88301CF16A2D0E948C2DF3
:10331000892F082E000C990BC816D90691F48091BC
:10332000B8028E9DA0018F9D500D11245595479593
:10333000559547959E016091B7028091B6020E9413
:10334000BA16B00EF1E0EF1AF108D1F61F5FA6CF62
:1033500087FFDFCF90911101890FDBCF90E00196BD
:103360006091110170E00E94AE2DA8CF0F931F93C2
:10337000CF93DF9380910F019091100123E0829F02
:10338000F0011124E654FD4F891740F1C0E0D3E06D
:1033900060911101C61740F10E945C1720910B014A
:1033A00080916702820F8093670290910C01920FC7
:1033B00090930C01191654F4082E000C990B4091AF
:1033C00011014150550B841795071CF0219520934E
:1033D0000B01DF91CF911F910F91089511821082FF
:1033E00012828F5F3396D0CF0C2F10E070E0C801AF
:1033F0000E94AE2D20910F01820F482F50E02091A6
:103400006702022E000C330B02171307BCF0209149
:103410000C01022E000C330B201731077CF08D9F1E
:103420009001112426543D4F4091B8026091B7029B
:103430008091B6020E94BA16CF5FAACFFA01EE0FB2
:10344000FF1FE40FF51FE654FD4F11821082128218
:10345000F3CF8F929F92AF92BF92CF92DF92EF9273
:10346000FF920F931F93CF93DF93EC014C81042FB6
:1034700010E09801D8010E94F92D9B01AC010E9437
:103480000F2E4B015C01E0E2F0E0E01BF10BA5E543
:10349000B0E0AC019B010E940F2E6B017C019F01EB
:1034A000DF010E94F12D9B01AC010E941A2E9B01AD
:1034B000AC01280D391D4A1D5B1DC701B6010E94D4
:1034C000C22DF22E822F90E039E23F1560F143E0E9
:1034D000249F9001112435952795122F109500E017
:1034E00085E5E82EEF1880911101081758F10E9428
:1034F0005C179C8181E0992319F0903219F48FEFC9
:1035000080930A0180910A01890F8C83DF91CF910A
:103510001F910F91FF90EF90DF90CF90BF90AF90F1
:103520009F908F90089525E530E0B901681B790BD5
:103530009B01220F331F260F371F37FFCCCF2F5F82
:103540003F4FC9CF8E2D01FD8F2D20910F01622F8E
:10355000600F7727771F9B01220F331F260F371F1E
:1035600026543D4F412F6091B7020E94BA160F5F5B
:10357000BACF0F931F93CF93DF93EC0110E000E0DD
:10358000909111019017110609F06CF40E945C17DC
:103590008C8190E00196817099278C83DF91CF9187
:1035A0001F910F91089520910F01A801420F511D05
:1035B0009A01220F331F240F351F26543D4F4C8193
:1035C0006091B7028091B60296959017110651F05E
:1035D0004CF0442349F04091B8020E94BA160F5FA4
:1035E0001F4FCECF4423B9F340E0F7CFE5EBF2E035
:1035F00080818E7F808360817181828193810E942E
:10360000D916109273022FEF80E792E0215080408C
:103610009040E1F700C000000C945C17E5EBF2E08D
:1036200080818E7F8083109273022FEF80E792E07B
:10363000215080409040E1F700C000000C945C17DE
:10364000109273028091700281110AC081E0809310
:1036500070028091B502817080936F020C940E1BF2
:1036600008956091B502669570E04BE050E082E10C
:1036700091E00E942E2E892B19F481E08093730231
:103680000E94A32590936A02809369020895909105
:10369000B50290FF35C09170811128C0926090935F
:1036A000B502662351F06091B5027091B602809127
:1036B000B7029091B8020E94D9166091B502669542
:1036C00070E04BE050E082E191E00E942E2E892BC9
:1036D000A1F01092730281E080936C024091B802D5
:1036E0006091B7028091B6020C94FC18853210F0FC
:1036F0009864D5CF880F982BD2CF0E94311BEBCF87
:103700000895682F9091B502969581E0890F8532D2
:1037100008F081E00C94471B81E00C94811B682F1A
:103720009091B50296958FEF890F09F484E20C947D
:10373000471B81E00C948F1B61E00C94471BE5EB69
:10374000F2E080818160808386950C949C1B80913F
:10375000B50280FD0C94F61A0C949F1B60E00C944B
:10376000471B8091710281112EC00E94640E81114D
:1037700004C00E94080F0E94F5160E94D51660939F
:10378000B5027093B6028093B7029093B8026E7F31
:1037900061F40E94F5160E94D5166093B5027093ED
:1037A000B6028093B7029093B8020E94BF1610929F
:1037B00073028091B50280FF03C086950E94AE1B04
:1037C00081E0809371020895E5EBF2E080818160F1
:1037D000808386950C94AE1B1092700280916F02CC
:1037E00081110E94E41B0C94311B0F931F93CF9304
:1037F000DF9380917302882309F486C0809172025E
:10380000E091B502E695E81BE0936B02823091F5FA
:10381000F0E0E651FE4FE491CE2FD0E001EB17E14E
:1038200080916C02882361F010926C020E94A325A3
:1038300090936A028093690210926E0210926D0258
:103840000E94A325E0916902F0916A028E1B9F0BF2
:103850008F3F9F4708F058C0EC0FFD1FF0936A029E
:10386000E093690289E692E0F801DF91CF911F9120
:103870000F910994863049F4F0E0E951FE4FE4914C
:10388000CE2FD0E005EC17E1CBCF893051F4E6958F
:10389000F0E0EC51FE4FE491CE2FD0E00FEF18E1B5
:1038A000BFCF8F3051F4E695F0E0EF51FE4FE49139
:1038B000CE2FD0E00CE319E1B3CF853149F4F0E02D
:1038C000E252FE4FE491CE2FD0E006EB19E1A8CFF3
:1038D000C8E2D0E009E21AE1883109F4A1CF8332CD
:1038E00039F4ECEDF1E0C591D49105ED17E198CFF5
:1038F000C4EFD1E009EB1AE1843209F491CFC0EDB5
:10390000D7E009EA16E18CCFDF91CF911F910F919B
:103910000895FA01811101C0FB010994CF93DF934F
:10392000C82FD62F0E9405178C1740F00E9405174C
:103930008D1720F4DF91CF910C948C1B8C2FDF918D
:10394000CF910C949C1B1F93CF93DF93EC01FB0151
:103950001281112309F4C0C00E947D0D8272CC3CFB
:10396000FCE5DF0709F49CC008F044C0C63CECE568
:10397000DE0709F481C0F0F4C33C9CE5D90709F4E3
:1039800071C048F4C23CDC4509F469C0812FDF9165
:10399000CF911F910895C43C9CE5D90709F467C0F5
:1039A0004DEB58E160EB78E1C53CDC4579F70E94CE
:1039B000891C53C0C93CFCE5DF0709F467C068F403
:1039C000C73CECE5DE0709F45CC04CEC58E16BED5C
:1039D00078E1C83CDC4559F3D9CFCA3C9CE5D9070E
:1039E00009F459C048E357E161E277E1CB3CDC459B
:1039F000F1F2CCCFC13DFCE5DF0709F462C098F4D9
:103A0000CE3C9CE5D90709F454C008F44EC0CF3C25
:103A1000FCE5DF0709F452C0C03DDC4509F0B6CF34
:103A20006EE089E048C0C43D9CE5D90709F44FC069
:103A300058F4C23DFCE5DF0709F446C0C33DDC4550
:103A400009F0A4CF88E132C0C53D9CE5D90709F44F
:103A500041C0CD35DD4509F099CF10E097CF0E94E8
:103A6000A71BFBCF49E95BE16CE87BE1A0CF4CE809
:103A70005BE169E97BE19BCF40EB58E16DEB78E1DD
:103A800096CF4BED58E16CEC78E191CF49EF58E1DE
:103A90006AEE78E18CCF4AEE58E169EF78E187CFA2
:103AA00041E257E168E377E182CF81E00E949C1B0D
:103AB000D4CF65E082E00E948E1CCFCF68E086E024
:103AC000FACF64E18FE0F7CF67E185E1F4CF62E2FE
:103AD00089E1F1CF83E2EACF11E058CF539A4BB19D
:103AE000477F5BB15860EFB7F8949B01220F331FFB
:103AF000260F371F280F391F2817390741F4EFBF4A
:103B00008FE594E00197F1F700C000000895DC0113
:103B10006D91CD0178E05BB9000000C067FF4BB943
:103B2000660F000000C000C000C04BB900C07A950D
:103B300091F7E2CF83E290E00E94482E813289F42F
:103B400084E290E00E94482E813159F485E290E0B1
:103B50000E94482E91E0823009F090E0892F817018
:103B6000089580E0FCCFCF93C82F6FEF811161E201
:103B700083E290E00E945C2E6FEFC11161E184E26C
:103B800090E00E945C2E6FEFC11162E085E290E050
:103B9000CF910C945C2E089586E290E00E94482E0E
:103BA000682F70E090E080E0089586E290E00C9449
:103BB0005C2E80E00E94B31D60E070E0CB010E94AB
:103BC000D51D0E94AD200E94972181E00C94B31D69
:103BD0000E94CB1D0E949A1D811102C00C94D91D18
:103BE0000895CF93FB01C281CC2309F19C0122519E
:103BF0003F452031310520F582510E94A721C0E0C8
:103C00008C2FCF91089581E00E94420943E062E049
:103C100081E00E949A03F3CF81E00E944D0943E0C6
:103C200062E081E00E949A03EBCF82E0F6CF803120
:103C3000FFE59F0789F381319F45B9F3C1E0E0CFEC
:103C40008031EFE59E07F9F281319F45C9F682E0A8
:103C5000DBCF2FEFFC0120830895CF93DF93EC019E
:103C600088818138A9F028F4803871F0DF91CF91F4
:103C70000895823881F08338C9F70E9450178983EC
:103C80000E9453178A83F2CF0E9456178983EECF82
:103C90000E940517FBCF0E943B17F8CFCF93DF930D
:103CA000EC0188818138E1F028F4803869F0DF91F7
:103CB000CF910895823811F18338C9F70E945617C1
:103CC000482F6A81898108C0D9810E945317C82F63
:103CD0000E9450174D2F6C2FDF91CF910C94FC1840
:103CE00089810E94AE1B8981811104C0DF91CF912F
:103CF0000C940E1BDF91CF910C94E41B8981DF9112
:103D0000CF910C944D17EF92FF920F931F93CF9387
:103D1000DF93EC01062FDC01ED91CD01E150E331A1
:103D200008F0ADC0F0E0E055F14D0C94E42D19829F
:103D300089E08A83602FCE01DF91CF911F910F918F
:103D4000FF90EF900C949B268981823069F083303C
:103D500071F08130D9F40E94AF250E94EA2D6A8368
:103D60007B838C839D83E6CF0E94CC1DF6CF7E01A2
:103D7000B2E0EB0EF11C10E0812F0E944112F7011E
:103D800081937F011F5F1430B9F7D4CF602FCE012C
:103D90000E94291ECFCF89818230C1F76A817B8141
:103DA0008C819D810E94EA2D0E94D51DC3CF4B813D
:103DB0006A8189810E947F209827892798279D837F
:103DC0008C83B8CF2C813D813227232732274B812A
:103DD0006A8189810E949820ADCF0E94AD20AACF30
:103DE0000E944E1EA7CF0E942D1EA4CF0E94EB164C
:103DF000A1CF0E94402189839DCF0E944221982714
:103E0000892798279A83898395CF6B8170E0898170
:103E10009A81AE014C5F5F4F9827892798270E94AF
:103E2000452188CF6B8170E089819A81AE014C5F1A
:103E30005F4F9827892798270E946C217BCF0E948B
:103E4000972178CF0E946C20D6CF6B8170E089815A
:103E50009A81AE014C5F5F4F9827892798270E946F
:103E6000E52068CF6B8170E089819A81AE014C5F5B
:103E70005F4F9827892798270E940A215BCF8FEFF1
:103E8000888358CFCF93DF93EC01FB018281882395
:103E900009F420C1C330FDE5DF07C8F5CA3F9CE542
:103EA000D90730F49E0122503C452431310598F564
:103EB0000E94770E9093AC028093AB02C031FCE578
:103EC000DF0709F4E0C008F061C0C8309CE5D907FD
:103ED00009F4CBC088F5C430FCE5DF0709F4B3C0B2
:103EE000E8F4C2309CE5D90709F4A7C08091AB0281
:103EF0008260C330DC4509F4A3C08091AB0290918D
:103F0000AC020E94850E0E94C90880E004C0C13640
:103F1000EDE5DE0769F2DF91CF9108958091AB0264
:103F20008061C630FCE5DF0709F48AC008F48FC061
:103F30008091AB02806284C08091AB028D7FCC30D7
:103F40009CE5D90709F47CC070F48091AB028C60C9
:103F5000CA30FCE5DF0709F473C008F48AC0809119
:103F6000AB028E7F6DC08091AB02877FCE309CE527
:103F7000D90709F465C08091AB028B7FCF30DC4557
:103F800008F45EC08091AB028F7E5AC0CC3FFCE546
:103F9000DF0709F474C040F5C4319CE5D90709F482
:103FA0008AC058F4C231FCE5DF0709F474C008F494
:103FB0006EC08091AB02837F43C0CA3F9CE5D907A6
:103FC00009F449C008F04DC0C531DC4509F095CF72
:103FD0008091AB0282FB992790F921E0922790FB18
:103FE00082F990FB83F92CC0C1158DE5D80709F43F
:103FF00058C088F48091AC028360CE3FECE5DE07C8
:1040000069F18091AC028D7FCF3FDC4538F1809122
:10401000AC028C7F23C0C2308DE5D80709F458C0AC
:1040200008F452C0C136DD4509F067CF9091AB026C
:10403000892F8F7E94FF806103C08091AB028160E5
:104040008093AB025ACF8091AB028460F9CF80910C
:10405000AB028860F5CF8091AC0281608093AC02A6
:104060004CCF8091AC028260F9CF8091AB0280642A
:10407000E7CF0E94C9088091AB028068E1CF8091B0
:10408000AC028E7FEBCF8091AB028F7DD9CF809138
:10409000AB028F7BD5CF0E94C9088091AB028F778E
:1040A000CFCF8091AC02982F909591708E7F892B05
:1040B00090FB81F9D3CF0E94C9089091AB02892F60
:1040C00097FB87F98058BCCF81E00E940A0F15CF7B
:1040D00080E0FBCF81E01FCF84E0089528E0629F5D
:1040E000B001112450E0440F551F640F751F20E2EA
:1040F000829FC0011124860F971F879608950F9302
:104100001F93CF93DF930E946E208C010E94482E54
:10411000C82FD0E0DC2FCC27C80101960E94482E82
:104120009E01282BC901DF91CF911F910F91089516
:104130000F931F93CF93DF93122F032F0E946E20B4
:10414000EC01602F0E945C2E612FCE010196DF9161
:10415000CF911F910F910C945C2EAF92BF92CF9292
:10416000DF92EF92FF921F93CF93DF938CEAC82EDA
:1041700080E0D82ED0E07601C0E014C0F501259192
:104180003491412F6C2F8D2F0E94982082E0A80E31
:10419000B11C1F5F143091F788E0E80EF11CCF5F6F
:1041A000C43019F0570110E0E9CFDF5F80E2C80E9C
:1041B000D11CD43001F7DF91CF911F91FF90EF9088
:1041C000DF90CF90BF90AF900895EF92FF920F9342
:1041D0001F93CF93DF93EC018A017C01E60EF71E5B
:1041E000CE018796CE15DF0539F4DF91CF911F916F
:1041F0000F91FF90EF900895C038D10540F40E94D0
:10420000482EF80180830F5F1F4F2196E9CFF801F8
:104210001082F9CFCF92DF92EF92FF920F931F930C
:10422000CF93DF937C016A018C01060F171FEC010D
:10423000CE018796C017D10749F4DF91CF911F9126
:104240000F91FF90EF90DF90CF900895C038D10587
:1042500040F4FE01EE19FF09EC0DFD1D60810E9486
:104260005C2E2196E5CF462F843038F4743028F444
:10427000643018F4672F0C947F2090E080E008955C
:1042800080E1089589E593E00895EF92FF920F93FE
:104290001F93CF93DF93EC018A017C01E60EF71E9A
:1042A000CE0189559F4FCE15DF0539F4DF91CF91AF
:1042B0001F910F91FF90EF900895C93523E0D20729
:1042C00040F40E94482EF80180830F5F1F4F219613
:1042D000E7CFF8011082F9CFCF92DF92EF92FF92F1
:1042E0000F931F93CF93DF937C016A018C01060F1C
:1042F000171FEC01CE0189559F4FC017D10749F414
:10430000DF91CF911F910F91FF90EF90DF90CF90B1
:104310000895C93523E0D20740F4FE01EE19FF09E4
:10432000EC0DFD1D60810E945C2E2196E3CFCF93A2
:10433000DF93C7EAD0E060E0CE010E945C2E2196B8
:10434000C11584E0D807B9F7DF91CF910895DF92C6
:10435000EF92FF920F931F93CF93DF9300D000D083
:10436000CDB7DEB7F82E8FE08F1540F08FEF93E0DA
:104370000E94482E07EA10E08823C1F00F900F90AA
:104380000F900F90DF91CF911F910F91FF90EF90C1
:10439000DF900895011584E0180781F3C8010E9499
:1043A000482E811101C0FA940F5F1F4FF110F2CF18
:1043B00019821A821B821C82DD24D39478018FEF2C
:1043C000E81AF80AC8010E94482E89831A828823B5
:1043D000A9F29FEF980F933078F48A83D9820E5F09
:1043E0001F4FC7010E94482E8B83882339F2CE01CC
:1043F00001960E94F804E2CF8701F9CF0C941A03CA
:10440000AF92BF92CF92DF92EF92FF920F931F93E2
:10441000CF93DF93ABECB1E029EC31E088E7A82E35
:1044200082E0B82E6DEC71E041E050E00D91802FFC
:1044300082958F7090E0FC01C1A10F707A01002E6F
:1044400001C0EE0C0A94EAF7FE2DF095CF23FC0193
:10445000C1A3C2A1CE29C2A3E90119919E01E12FF6
:10446000E295EF70F0E0F1A01F706A01012E01C02B
:10447000CC0C0A94EAF7EC2CE094EF20E1A2F2A035
:10448000FC28F2A2EC0188A190E002C095958795E6
:104490000A95E2F78170E0A1F0E002C0F595E7959A
:1044A0001A95E2F790E0E0FD92E0892BF501819307
:1044B0005F016A177B0709F0B9CFDF91CF911F9198
:1044C0000F91FF90EF90DF90CF90BF90AF90089545
:1044D0004F925F926F927F928F929F92AF92BF9214
:1044E000CF92DF92EF92FF920F931F93CF93DF93C0
:1044F00008E712E08BECC82E81E0D82E99ECE92E6B
:1045000091E0F92EC6E7D2E024E7822E22E0922E37
:10451000512C412C34E0632E712CD801ED918D018A
:104520006E2F660F660F6E93F60121916F01822F39
:1045300082958F7090E0FC0180A190E02F7002C006
:10454000959587952A95E2F781709927F701219132
:104550007F01422F42954F7050E0FA0140A150E098
:104560002F7002C0559547952A95E2F79A01217060
:10457000332740FF02C022E030E0822BE62FE82BF9
:10458000EC935E01EF70F0E0E754FE4F808198817C
:10459000890F888320E084304CF0D4018C918F5FA8
:1045A0008C9360E0852D0E94FE2121E088818D3F63
:1045B0004CF4F40180818150808361E0852D0E945C
:1045C000FE2121E02196FE013197D5018C91082E24
:1045D000000C990BB3010E94AE2D8083422ABFEFDD
:1045E0008B1A9B0AE1E05E1212C0842DDF91CF91FD
:1045F0001F910F91FF90EF90DF90CF90BF90AF9001
:104600009F908F907F906F905F904F90089555246A
:10461000539483CFCF93DF93EB0186319C4511F503
:104620000E947D0D9A81992399F08A7A91E009F48C
:1046300090E090937A02811109C089E20E94580D9E
:104640000E94CD0D80E0DF91CF91089585E3F6CFF4
:1046500080917A02811104C089E20E945F0DF0CF3F
:1046600085E3FBCF81E0EFCF0F931F93CF93DF93D1
:10467000C42FD22FFC0182818823C9F040937D0290
:104680000E94A32590937C0280937B0280E28C0F92
:10469000883008F050C0C77081E001C0880FCA950B
:1046A000EAF7DF91CF911F910F910C94550610916D
:1046B0007D02141335C080917B0290917C020E9490
:1046C000BB25883C910560F5C0E2CD0F1D17B9F000
:1046D00080E2810F883040F4177081E001C0880FBC
:1046E0001A95EAF70E945C06C83048F481E09D2FD5
:1046F000977001C0880F9A95EAF70E945506802F9F
:104700000E944D06C830B8F4D77081E001C0880F10
:10471000DA95EAF7DF91CF911F910F910C945C0627
:1047200080E28C0F883038F4C77081E001C0880FB8
:10473000CA95EAF7EFCFDF91CF911F910F910895BE
:104740000F939C01CB01233F4CE5340759F1A8F4AA
:10475000283DFCE53F0701F1293D4CE53407D1F147
:10476000273D3C4591F406E221EE41EE67ED7CE504
:104770000E94342380E00F910895253FFCE53F0718
:10478000E9F0B0F0263F3C45F9F0FC018281882336
:1047900039F110927D02EFCF07E225EE45EE68ED8C
:1047A0007CE5E6CF06E221EE40EE63EF7CE5E0CF6C
:1047B00007E225EE44EE64EF7CE5DACF06E221EE77
:1047C00042EE65EF7CE5D4CF07E225EE46EE66EFDC
:1047D0007CE5CECF08E221E045EE69ED7CE5C8CF6F
:1047E00081E0C9CF90938302809382020895E09183
:1047F0008202F0918302309721F00190F081E02D48
:10480000099480E00895E0918202F091830230974C
:1048100099F020912901222359F02091AB0227FF22
:1048200007C0DC012C9111962C93119726E02C9354
:104830000280F381E02D09940895E0918202F091C5
:104840008302309739F022E0DC012C930480F5815B
:10485000E02D09940895209180023091810228175B
:10486000390771F09093810280938002E091820277
:10487000F0918302309721F00680F781E02D0994B2
:10488000089520917E0230917F022817390771F038
:1048900090937F0280937E02E0918202F0918302E6
:1048A000309721F00084F185E02D09940895FC01F2
:1048B000329680912901882321F08091AB029EE1FC
:1048C00087FF96E080E0915008F40895219122231B
:1048D000D1F38F5FF8CF662301F1209129012223C4
:1048E000F1F02091AB0227FF1AC0462F469546955E
:1048F00046954E3190F4677021E030E002C0220FFF
:10490000331F6A95E2F7840F911DFC01828190E0CC
:104910002823392381E0232B69F480E00895FC01EA
:10492000329608962191261721F0E817F907D1F75A
:10493000F4CF81E008959C01FC0132969FEF80E066
:104940004191461751F09F3F19F4411101C0982F32
:104950008F5F8630A9F79F3F09F40895290F311D15
:1049600097FD3A95F90162830895FC013296089605
:104970002191261303C0DF0111971C92E817F90754
:10498000B9F70895E62FE695E695E695EE3168F4D9
:10499000E80FF92FF11D677021E030E001C0220F10
:1049A0006A95EAF78281822B82830895E62FE69545
:1049B000E695E695EE3170F4E80FF92FF11D67707A
:1049C00021E030E001C0220F6A95EAF7209582814C
:1049D00028232283089520912901222329F0209160
:1049E000AB0227FD0C94C2240C949B242091290136
:1049F000222329F02091AB0227FD0C94D6240C949D
:104A0000B524FC01329680912901882351F08091D0
:104A1000AB0287FF06C08EE1DF011D928A95E9F7A0
:104A2000089586E0F9CF08950C941325811105C0EF
:104A300081E0809384020C94142582E0FACF83E015
:104A4000809384020C9414250C94162581E08093A5
:104A500084020C9414250C94262508958091D70285
:104A6000843031F10E94AB031092850288E190E01E
:104A700020E40FB6F894A895809360000FBE2093B1
:104A8000600083B7817F846083BF83B7816083BF09
:104A90007894889583B78E7F83BF0FB6F894A895D6
:104AA00080916000886180936000109260000FBE6A
:104AB000089508950895CF930E9459250E94F812F1
:104AC0000E945A25C0E08C2F0E944112811105C01E
:104AD000CF5FC430C1F7CF91089581E0FCCF0E9431
:104AE000C9080C9422041F921FB61F9211248F93A1
:104AF0009F93AF93BF9380918502811113C08091E2
:104B0000CF029091D002A091D102B091D2024196F1
:104B1000A11DB11D8093CF029093D002A093D1022A
:104B2000B093D202BF91AF919F918F911F901FBE02
:104B30001F90189582E084BD93E095BD9AEF97BDD4
:104B400080936E0008952FB7F8948091CF029091D2
:104B5000D002A091D102B091D2022FBF08952FB7F9
:104B6000F8946091CF027091D0028091D10290911F
:104B7000D2022FBF08959C014FB7F8948091CF02C5
:104B80009091D002A091D102B091D2024FBF821B6E
:104B9000930B089578941F921FB61F9211248F9340
:104BA0009F93AF93BF938091CF029091D002A09139
:104BB000D102B091D2020196A11DB11D8093CF0206
:104BC0009093D002A093D102B093D202BF91AF9143
:104BD0009F918F911F901FBE1F90189587E797E7B1
:104BE000909301088093000888E19AE00FB6F8944A
:104BF000A895809360000FBE90936000FFCF9093C4
:104C0000DD018093DC0108958091A9020895089543
:104C10009C0184E08093E9009FEF8091E80091502F
:104C200085FD06C085ED8A95F1F700009111F5CF5D
:104C30008091E80085FF0CC050E040E066E070E045
:104C4000C9010E94AC288091E8008E778093E8002B
:104C50000895CF93DF93EC01809129018823B1F16E
:104C60008091AB0287FF32C060E284E08093E9006C
:104C70008FEF9091E800815095FD06C095ED9A95D3
:104C8000F1F700008111F5CF8091E80085FF1BC08E
:104C90008091290170E050E040E0811104C050E0B3
:104CA00040E068E070E0CE010E94AC288091E8000E
:104CB0008E778093E80080E2FE01A9E8B2E00190DF
:104CC0000D928A95E1F7DF91CF91089568E081E038
:104CD000CDCF809386027093880260938702809183
:104CE000D7028430F9F48093E9008FEF9091E800C7
:104CF000815095FD06C095ED9A95F1F70000811160
:104D0000F5CF8091E80085FF0DC050E040E063E002
:104D100070E086E892E00E94AC288091E8008E77EF
:104D20008093E8000895BC0184E00C946926BC01DE
:104D300083E00C946926CF93FC01603221F58091C9
:104D4000D702843001F5C091E900CF702091EC00CA
:104D5000922F917020FD90E8C92B82E08093E900AA
:104D60008091E80080FF0CC050E040E060E270E01D
:104D7000CF010E94AC288091E8008E778093E800F4
:104D8000CF70C093E900CF9108958091D602811130
:104D900009C00E948B2A0E94E82A8091E200846068
:104DA0008093E20008951092D60208950C9426256F
:104DB0006091D30281E0611101C080E00C941F2555
:104DC0009091D70281E0943009F080E06091D302A5
:104DD0000C94242542E061EC81E00E94072A42E223
:104DE00061EC84E00E94072A42E261EC82E00E94CA
:104DF000072A42E260EC83E00E94072A9091D702E2
:104E000081E0943009F080E06091D3020C94162583
:104E10008091D902833009F462C030F48130D9F135
:104E2000823009F49EC008958A3009F48AC08B301C
:104E300009F470C0893009F051C08091D8028132E4
:104E400009F04CC08091DC029091DD02009719F0CE
:104E5000029709F043C08091E800877F8093E800C3
:104E60008091E80082FF36C09091F3008091F200BB
:104E7000029731F48091F100813011F0863021F4F5
:104E80008091F1008093A9028091E8008B77809354
:104E9000E8000C943B2A8091D802813AF9F4809181
:104EA000E800877F8093E8008091DC029091DD022A
:104EB000892B61F460E289E892E070E00E944A295F
:104EC0008091E8008B778093E800089560E090E09F
:104ED00080E0F3CF8091D7028111C2CF08958091F5
:104EE000D802813AD9F78091DC029091DD02892BBA
:104EF000A9F78091E800877F8093E8008091E8001F
:104F000080FFFCCF809129018093F1008091E8001F
:104F10008E77BDCF8091D802813201F78091DC027B
:104F20009091DD02892BD1F68091E800877F8093F4
:104F3000E8000E943B2A8091DA02809329010C94B8
:104F4000C9088091D802813249F68091E800877FB4
:104F50008093E8000E943B2A8091DB028093AA02A2
:104F600008958091D802813A09F0B8CF8091E80085
:104F7000877F8093E8008091E80080FFFCCF8091DC
:104F8000AA02C2CF84B7877F84BF0FB6F894A895D2
:104F900080916000886180936000109260000FBE75
:104FA00080E890E00FB6F8948093610090936100E0
:104FB0000FBE0C942B250E948B2A0E94E82AE2EE59
:104FC000F0E080818460808378940E94712D8DE16F
:104FD00091E00C94F2238091D7028530A9F480915E
:104FE000D702853011F00C946F250E942E258091F8
:104FF000D5028823A1F30E945B25882381F30E94B8
:1050000096280E94C908EBCF0895CF93DF93CDB7C0
:10501000DEB7A0970FB6F894DEBF0FBECDBF80916C
:10502000D702843009F583E08093E9008091E8009D
:1050300082FF1AC08091E80090E085FF09C050E02F
:1050400040E060E270E0CE0101960E94FB2891E012
:105050008091E8008B778093E800992329F060E243
:10506000CE0101960E94831EA0960FB6F894DEBF73
:105070000FBECDBFDF91CF9108950C943F28292F0B
:1050800033272330310521F168F42130310509F44B
:1050900043C02230310509F444C090E080E030E0A4
:1050A00020E026C02132310551F122323105A9F725
:1050B0006330710590F7FB01EE0FFF1FE053FE4FC9
:1050C0002081318163537E4FFB01808190E010C0CD
:1050D00099278130910581F0009729F00297E9F630
:1050E000E3EFF3E002C0E9E1F4E0849190E09F0196
:1050F000FA01318320830895E5E0F4E0F6CF6330D0
:10510000710558F6660F771FFB01EA52FE4F2081AA
:10511000318189E090E0ECCF82E190E028E734E053
:10512000E7CF8BE590E02DE134E0E2CF80E189BD6F
:1051300082E189BD09B400FEFDCF8091D8008F7D4A
:105140008093D8008091E00082608093E00080919D
:10515000E00081FDFCCF0895AF92BF92CF92DF9225
:10516000FF920F931F93CF93DF936C01EB018A01A2
:105170000E945A2AF82E811123C00115110539F019
:10518000F80180819181C81BD90BC80ED91EB12CA2
:10519000A12C2097A9F08091E80085FD22C0809184
:1051A000E8008E778093E80001151105A1F0F80161
:1051B00080819181A80EB91EB182A08285E0F82E6F
:1051C0008F2DDF91CF911F910F91FF90DF90CF90A6
:1051D000BF90AF9008950E945A2A8823D1F2F82EEA
:1051E000EFCFF60181916F018093F1002197FFEFDE
:1051F000AF1ABF0ACECFAF92BF92CF92DF92FF928B
:105200000F931F93CF93DF936C01EB018A010E94F0
:105210005A2AF82E811123C00115110539F0F80121
:1052200080819181C81BD90BC80ED91EB12CA12C2D
:105230002097A9F08091E80085FD22C08091E800C8
:105240008B778093E80001151105A1F0F8018081AA
:105250009181A80EB91EB182A08285E0F82E8F2D13
:10526000DF91CF911F910F91FF90DF90CF90BF9072
:10527000AF9008950E945A2A8823D1F2F82EEFCFDA
:105280008091F100F60181936F012197FFEFAF1A32
:10529000BF0ACECFFC018091DE029091DF0286171B
:1052A0009707A0F06115710529F49091E8009E77A9
:1052B0009093E80090E06115710551F4911108C0D8
:1052C0008091E80082FF34C080E00895BC01F2CFF5
:1052D0008091D7028823C1F18530C1F18091E80027
:1052E00083FD30C08091E80082FDEACF8091E80024
:1052F00080FFE1CF8091F3002091F200382F6115FB
:10530000710519F02830310558F091E02830310549
:1053100009F090E02091E8002E772093E800CBCFB1
:1053200081918093F100615071092F5F3F4FE7CF6A
:105330008091D702882341F0853041F08091E800C8
:1053400083FFBECF81E0089582E0089583E0089551
:10535000FC018091DE029091DF0286179707A0F092
:105360006115710529F48091E8008E778093E8003B
:1053700090E06115710551F4911108C08091E80029
:1053800082FF35C080E00895BC01F2CF8091D70242
:105390008823C9F18530C9F18091E80083FD31C0CF
:1053A0008091E80082FDEACF8091E80080FFE1CFA4
:1053B0008091F3002091F200382F6115710519F0EA
:1053C0002830310558F091E02830310509F090E09F
:1053D0008091E8008E778093E800CBCF8491809312
:1053E000F1003196615071092F5F3F4FE6CF8091F8
:1053F000D702882341F0853041F08091E80083FF97
:10540000BDCF81E0089582E0089583E00895982F4C
:10541000973028F08F708093E90081E00895909391
:10542000E900242F762F50E0981731F07091EC00AE
:105430002091ED005091F00021FD02C09F5FE8CF68
:105440003091EB003E7F3093EB003091ED003D7FDB
:105450003093ED003091EB0031603093EB007093AE
:10546000EC002093ED005093F0002091EE0027FD1A
:10547000E5CF80E008958091D80287FF13C0809126
:10548000E80082FF06C08091E8008B778093E800F7
:1054900004C08091D7028111F2CF08958091D70284
:1054A0008823D9F38091E80080FFF8CF8091E8004D
:1054B0008E77ECCF2091E4003091E50095E6A901CC
:1054C0002091EC00822F817020FF06C08091E800BF
:1054D00080FF06C080E008952091E80022FD1AC0F8
:1054E0008091D702882389F0853089F08091EB0084
:1054F00085FD0FC02091E4003091E500421753076D
:10550000F9F29150E1F684E0089582E0089583E095
:10551000089581E008950E94F92A0E94012BE0EE8F
:10552000F0E0808181608083E8EDF0E080818F771A
:10553000808319BCA7EDB0E08C918E7F8C93808125
:105540008F7E80831092D60208950F931F93CF937E
:10555000DF930E94F92A0E94012BC8EDD0E08881D8
:105560008F77888388818068888388818F7D88830E
:1055700019BC1092D7021092D3021092D502109249
:10558000D40200EE10E0F80180818B7F8083888157
:105590008160888342E060E080E00E94072AE1EEBB
:1055A000F0E080818E7F8083E2EEF0E08081816098
:1055B0008083808188608083F80180818E7F8083F2
:1055C000888180618883DF91CF911F910F91089529
:1055D000E8EDF0E080818F7E8083E7EDF0E0808170
:1055E0008160808384E082BF81E08093D6020C9446
:1055F000A52AE8EDF0E080818E7F80831092E200A2
:1056000008951092DA001092E10008951F920F920F
:105610000FB60F9211242F933F934F935F936F9385
:105620007F938F939F93AF93BF93EF93FF9380915B
:10563000E10082FF0BC08091E20082FF07C08091F1
:10564000E1008B7F8093E1000E94702D8091DA0051
:1056500080FF19C08091D80080FF15C08091DA00CA
:105660008E7F8093DA008091D90080FF96C080E120
:1056700089BD82E189BD09B400FEFDCF81E0809340
:10568000D7020E94C5268091E10080FF19C0809159
:10569000E20080FF15C08091E2008E7F8093E200DF
:1056A0008091E20080618093E2008091D800806266
:1056B0008093D80019BC85E08093D7020E94D82639
:1056C0008091E10084FF2BC08091E20084FF27C01D
:1056D00080E189BD82E189BD89B5982F917080FFF5
:1056E000FBCF8091D8008F7D8093D8008091E1001E
:1056F0008F7E8093E1008091E2008F7E8093E200B4
:105700008091E20081608093E2008091D30288233F
:1057100009F449C084E08093D7020E94E02680917A
:10572000E10083FF29C08091E20083FF25C08091C2
:10573000E100877F8093E10082E08093D70210929E
:10574000D3028091E1008E7F8093E1008091E2009E
:105750008E7F8093E2008091E20080618093E2007E
:1057600042E060E080E00E94072A8091F0008860BB
:105770008093F0000E94D626FF91EF91BF91AF91E8
:105780009F918F917F916F915F914F913F912F9159
:105790000F900FBE0F901F90189519BC1092D70252
:1057A0000E94D32670CF8091E30087FD93E0909311
:1057B000D702B3CF1F920F920FB60F9211242F93DF
:1057C0003F934F935F936F937F938F939F93AF9389
:1057D000BF93CF93DF93EF93FF93D091E900DF70F6
:1057E0008091EC00C82FC17080FDC0E81092E900E4
:1057F0008091F000877F8093F00078940E941E2CA7
:105800001092E9008091F00088608093F000CD2B29
:10581000CF70C093E900FF91EF91DF91CF91BF91DD
:10582000AF919F918F917F916F915F914F913F9138
:105830002F910F900FBE0F901F9018951F93CF932D
:10584000DF93CDB7DEB7AA970FB6F894DEBF0FBED1
:10585000CDBF88ED92E02091F100FC012193CF01B2
:10586000F2E0803E9F07B9F70E9408278091E80088
:1058700083FF1EC18091D8029091D9029A3008F01E
:1058800017C1E92FF0E0ED53F14D0C94E42D803871
:1058900099F0823809F00CC18091DC028F7087305A
:1058A00008F006C18093E9008091EB0085FB882712
:1058B00080F91092E90006C08091D4029091D5023F
:1058C000911182609091E800977F9093E800809317
:1058D000F1001092F1008091E8008E77E5C08823F6
:1058E00009F4D3C0823009F0E3C08091DA0281115B
:1058F000D6C08091DC028F702FEF280F263008F081
:10590000D7C08093E9002091EB0020FFC8C09330FE
:1059100031F48091EB0080628093EB00C0C09091E5
:10592000EB0090619093EB0021E030E001C0220F8A
:105930008A95EAF72093EA001092EA008091EB0042
:105940008860EACF8111B4C01091DA021F7780918C
:10595000E3008078812B8093E3008091E800877FCB
:105960008093E8000E943B2A8091E80080FFFCCFF2
:105970008091E30080688093E30082E0111183E06E
:105980008093D70295C08058823008F091C08091F2
:10599000DA029091DB028C3D23E09207A1F583E0CF
:1059A0008A838AE289834FB7F894DE01139620E058
:1059B0003EE051E2E32FF0E050935700E49120FFE6
:1059C00003C0E295EF703F5FEF708E2F90E0EA30FA
:1059D000C0F0C7968D939D932F5F243159F74FBF29
:1059E0008091E800877F8093E8006AE270E0CE0152
:1059F00001960E944A298091E8008B778093E80005
:105A000057C0C096E7CF6091DC027091DD02AE0115
:105A10004F5F5F4F0E943D28BC01892B09F448C0AD
:105A20009091E800977F9093E80089819A810E9485
:105A3000A829E1CF8038E1F58091E800877F809345
:105A4000E8008091D3028093F10045CF811130C0EE
:105A50009091DA02923060F58091E800877F809320
:105A6000E8009093D3020E943B2A8091D3028823BE
:105A700011F084E005C08091E30087FDFACF81E05A
:105A80008093D7020E94EA2613C08091DA02813007
:105A900079F481E0933009F080E08093D502109290
:105AA000E9008091E800877F8093E8000E943B2A0C
:105AB0008091E80083FF0AC08091E800877F80938F
:105AC000E8008091EB0080628093EB00AA960FB60D
:105AD000F894DEBF0FBECDBFDF91CF911F91089527
