:100000000C94A4030C94C1030C94C1030C94AF266C
:100010000C94C1030C94C1030C94C1030C94C10350
:100020000C94C1030C94C1030C94A72E0C947B2F49
:100030000C9430290C94C1030C94C1030C94C1039B
:100040000C94C1030C94C1030C94C1030C94C10320
:100050000C94C1030C94A3290C94C1030C94C10308
:100060000C94C1030C94C1030C94C1030C94C10300
:100070000C94C1030C94C1030C94C1030C94C103F0
:100080000C94C1030C94C1030C94C1030C94C103E0
:100090000C94C1030C94C1030C94C1030C94C103D0
:1000A0000C94C1030C94C1030C94C10329003A00C1
:1000B0003B003C003D003E000000000035411E00BA
:1000C0001F00200021002200000000002B0014006F
:1000D0001A00080015001700000000003900040095
:1000E0001600070009000A0000000000E1001D00E2
:1000F0001B0006001900050000000000E000E300FE
:10010000E20000002C002C000000000000000000B5
:100110000000000000000000000000003F00400060
:1001200041004200430044004500460023002400F3
:100130002500260027002D002E002A001C00180094
:100140000C00120013002F00300031000B000D00D6
:100150000E000F003300340028004E001100100084
:10016000360037003800E500000052002C002C005B
:100170000000E6006500500051004D004C000000FA
:100180004A004B004F00000000000000000000008B
:10019000000000000000000000000000015100000D
:1001A000000000000000000000000000000000004F
:1001B000000000000000000000000000000000003F
:1001C000000000000000000000000000000000002F
:1001D000000000000000000000000000000000001F
:1001E000000000000000000000000000000000000F
:1001F00000000000000000000000000000000000FF
:1002000000000000000000000000000000000000EE
:1002100000000000000000000000000000000000DE
:10022000000000000000000000000000C25CC35C91
:10023000000000000000000000000000CA5CC95C73
:10024000C65CC55CC85CC75C000000000000000024
:10025000000000000000000000000000000000009E
:10026000000000000000000000000000000000008E
:10027000000000000000000000000000000000007E
:10028000000000000000000000000000000000006E
:10029000000000000000000000000000000000005E
:1002A000000000000000000000000000000000004E
:1002B000000000000000000000000000000000003E
:1002C000000000000000000000000000000000002E
:1002D000000000000000000000000000000000001E
:1002E000000000000000000000000000000000000E
:1002F00000000000000000000000000000000000FE
:1003000000000000000000000000000000000000ED
:1003100000000000000000000000000000000000DD
:1003200000000000000000000000000000000000CD
:1003300000000000000000000000000000000000BD
:1003400000000000000000000000000000000000AD
:10035000000000002A2B2800000000000000000020
:100360000000000000000029000000002C1E3420C6
:10037000212224342627252E362D3738271E1F20EC
:100380002122232425263333362E37381F04050631
:100390000708090A0B0C0D0E0F1011121314151675
:1003A0001718191A1B1C1D2F3130232D3504050673
:1003B0000708090A0B0C0D0E0F1011121314151655
:1003C0001718191A1B1C1D2F3130354C0000000066
:1003D000000000000000000000000000000000001D
:1003E000000000000000000000000000000000000D
:1003F0007E0F00D4FFFFFFC70000007800047F3F9E
:100400001F643214643214783C1E1E140A05222321
:10041000252628292A2C2D2F3032333536383A3BE1
:100420003D3E4042434547494A4C4E505153555733
:10043000595A5C5E6062646668696B6D6F71737552
:1004400077797B7D7F81838587898A8C8E90929452
:1004500096989A9C9E9FA1A3A5A7A8AAACAEAFB15F
:10046000B3B4B6B8B9BBBCBEBFC1C2C3C5C6C7C9A9
:10047000CACBCCCDCED0D1D2D2D3D4D5D6D7D7D863
:10048000D9D9DADADBDBDBDCDCDCDCDCDDDDDDDDB5
:10049000DCDCDCDCDCDBDBDBDADAD9D9D8D7D7D6BD
:1004A000D5D4D3D2D2D1D0CECDCCCBCAC9C7C6C574
:1004B000C3C2C1BFBEBCBBB9B8B6B4B3B1AFAEACBA
:1004C000AAA8A7A5A3A19F9E9C9A98969492908E65
:1004D0008C8A89878583817F7D7B79777573716F3E
:1004E0006D6B6968666462605E5C5A59575553511A
:1004F000504E4C4A4947454342403E3D3B3A3836D0
:10050000353332302F2D2C2A292826252322FFAAE5
:100510007F554000010101010101010101020202B8
:10052000020202020202030303030303030304049F
:100530000404040404050505050506060606060769
:100540000707070708080808090909090A0A0A0B22
:100550000B0B0C0C0C0D0D0D0E0E0E0F0F0F1010C3
:10056000111111121213131414151516161717184A
:100570001819191A1A1B1B1C1D1D1E1E1F202021B5
:100580002222232424252626272829292A2B2C2DFC
:100590002D2E2F30313232333435363738393A3B1D
:1005A0003C3D3E3F404142434445464748494A4C12
:1005B0004D4E4F50515354555658595A5B5D5E5FDE
:1005C000616264656668696B6C6D6F707273757774
:1005D000787A7B7D7E8082838587888A8C8E8F91D6
:1005E000939596989A9C9EA0A2A3A5A7A9ABADAF00
:1005F000B1B3B5B7BABCBEC0C2C4C6C9CBCDCFD1EA
:10060000D4D6D8DBDDDFE2E4E7E9EBEEF0F3F5F892
:10061000FAFDFF0E033700730070006C0075007365
:100620000000001E03530061006C00690063007944
:10063000006C00690063005F0041006300690064B2
:100640000000000403090409025B00030100A0C8C4
:100650000904000001030101000921110100012228
:10066000400007058103080001090401000203009E
:100670000000092111010001222200070582032048
:100680000001070503032000010904020001030023
:100690000000092111010001223200070584032016
:1006A00000011201000200000008D804E7EA01007E
:1006B000010200010660FF0961A10109621500261F
:1006C000FF009520750881020963150026FF00953B
:1006D0002075089102C005010980A1018503190157
:1006E0002AB700150126B700950175108100C005D5
:1006F0000C0901A101850419012AA002150126A0F7
:1007000002950175108100C005010906A1010507C8
:1007100019E029E715002501950875018102950169
:10072000750881010507190029FF150026FF0095AE
:1007300006750881000508190129059505750191BF
:1007400002950175039101C011241FBECFEFDAE0BD
:10075000DEBFCDBF11E0A0E0B1E0E2E1F5E602C00E
:1007600005900D92AC3FB107D9F723E0ACEFB1E0B3
:1007700001C01D92A638B207E1F70E946A170C94D7
:100780004C320C94000081E0089581E008950C94AF
:10079000C50308950C94C9031F93CF93DF9300D032
:1007A00000D00F92CDB7DEB749835A836B83309167
:1007B000FF0189819A8131111DC06623B9F022237E
:1007C000A9F00E944F0A182F682F89819A810E94F0
:1007D000FA0969817A81812F0F900F900F900F9005
:1007E0000F90DF91CF911F910C9454240E94270AFF
:1007F000182FEFCF0E944F0A69817A81EDCFFC015B
:10080000262F408151816281738184810C94CC03B5
:1008100081E00895CF93DF93EC0160E00E94FF0335
:10082000BE01DF91CF910C94CA03E1E0F0E0DF015B
:1008300002C0AA0FBB1F6A95E2F7BD01DF0102C02B
:10084000AA0FBB1F4A95E2F76A2B01C0EE0F2A954B
:10085000EAF7962F9823961302C08E2B0895E09501
:100860008E230895242F462F682F80912A020E94FC
:1008700015040C94B7090C94FB120C94FE120C9402
:100880009805089508950E944F090E9442042FEF91
:1008900084E39CE0215080409040E1F700C00000DC
:1008A0000C94C7290F931F93CF93DF938C0161E0C2
:1008B0000E94FF03EC01B8010E942220882309F462
:1008C00041C0B801CE010E94C7038823D9F1B80105
:1008D000CE010E94B5258823A9F1B801CE010E945E
:1008E0008B21882379F1B801CE010E941F2588232E
:1008F00049F1B801CE010E94D71E882319F1F801F1
:100900008281882361F0CA35FDE5DF0721F170F4AB
:10091000C115ECE5DE07A1F0CE3DDC45C9F0C8010C
:10092000DF91CF911F910F910C94C303CB358DE5CF
:10093000D807A1F0CC35DD4591F70E94EE0EEFCF40
:100940000E94430480E0DF91CF911F910F910895A1
:100950000E94A70FF7CF0E94F70EE1CF0E94FA0E78
:10096000DECF0C9441040E949B050C94B104DF92ED
:10097000EF92FF920F931F93CF93DF93E82FF0E056
:10098000E45BFC4FD490282F26952695269530E0E1
:10099000F901E451FC4F0491877010E0082E02C069
:1009A000159507950A94E2F701701127F901E452B1
:1009B000FC4FE490F12C082E02C0F594E7940A94C1
:1009C000E2F791E0E922FF24F901E453FC4FC491DE
:1009D000D0E002C0D595C7958A95E2F7C170DD27B2
:1009E0000115110519F081EE0E94ED05E114F104E5
:1009F00019F086EE0E94ED058D2D0E94E206EF288B
:100A000019F086EE0E947C06012B19F081EE0E94FF
:100A10007C06CD2B51F08CE2DF91CF911F910F918D
:100A2000FF90EF90DF900C94E206DF91CF911F9141
:100A30000F91FF90EF90DF900895EF92FF920F9348
:100A40001F93CF93DF93EC01162F0AE08881882350
:100A500009F454C0813009F04EC08981813099F485
:100A60007E0122E0E20EF11C8A810E94E206E7018B
:100A70002196812F815050F3EFE9FFE03197F1F794
:100A800000C00000F7CF823041F47E0182E0E80E22
:100A9000F11C8A810E94ED05EACF833041F47E018A
:100AA000E2E0EE0EF11C8A810E947C06E0CF8430E9
:100AB00011F02196DDCF2A81229690E080E0AE01F0
:100AC0004F5F5F4F2053330B2A30310548F00197B9
:100AD00078F2EFE9FFE03197F1F700C00000F7CFBF
:100AE000089FB001099F700D1124C901860F971F3F
:100AF0002981EA01E4CF0E94B704BACFDF91CF91F8
:100B00001F910F91FF90EF90089560E00C941D05E8
:100B100008950C94880581E008950C948B05089540
:100B2000CF93C82F0E9489058C2FCF910C948D05EF
:100B300080E00C9490050E9433280C9490050E944C
:100B400033289091FE01981721F08093FE010C94B8
:100B500090050895CF93DF93CDB7DEB72B970FB6EF
:100B6000F894DEBF0FBECDBF4F83588769877A8761
:100B70008B8761110E94230E1E821D8285E0FE017B
:100B80003796DE01119601900D928A95E1F78C81DE
:100B90009D81892B89F449815A816B817C818D816A
:100BA0009E810E94440D2B960FB6F894DEBF0FBEB7
:100BB000CDBFDF91CF91089589819A8189238F3F9D
:100BC00051F3CE0101960E9408048111E4CFEBCFCE
:100BD000FC01808191810C947C0ACF93C82F8823DB
:100BE00009F488C08238C1F40E94332881FD82C094
:100BF00089E30E94DE0D0E94530E2FEF81EE94E0F8
:100C0000215080409040E1F700C0000089E30E943D
:100C1000E50DCF910C94530E8338A1F40E94332834
:100C200080FD68C083E50E94DE0D0E94530E2FEF09
:100C300081EE94E0215080409040E1F700C0000038
:100C400083E5E5CF8438A1F40E94332882FD52C0A9
:100C500087E40E94DE0D0E94530E2FEF81EE94E098
:100C6000215080409040E1F700C0000087E4CFCFE2
:100C70008CEF8C0F813AB8F48C2F0E945423811191
:100C800039C06C2F80910201909103010E948F283E
:100C9000882329F08C2F0E94E50D0E94530E8C2F83
:100CA0000E94DE0DB6CF80E28C0F883048F4C7700A
:100CB00081E001C0880FCA95EAF70E94060EA9CF0D
:100CC000EBE5EC0FE33040F4F0E0E558FE4F8081B7
:100CD00090E0CF910C945128C85AC73158F4EC2FAA
:100CE000F0E0EE0FFF1FE35BFE4F80819181CF911B
:100CF0000C946728CF910895882309F44BC082385B
:100D000071F40E94332881FF45C089E30E94DE0D03
:100D10000E94530E89E30E94E50D0C94530E833814
:100D200059F40E94332880FF35C083E50E94DE0D10
:100D30000E94530E83E5EFCF843859F40E94332884
:100D400082FF28C087E40E94DE0D0E94530E87E4D4
:100D5000E2CF9CEF980F913AF0F290E2980F983022
:100D600050F4877091E001C0990F8A95EAF7892FB6
:100D70000E940C0ED2CF9BE5980F933020F490E0A8
:100D800080E00C945128885A873120F490E080E06C
:100D90000C94672808951F93CF93DF93182FEB01CE
:100DA0000E94ED05209731F4812FDF91CF911F91A3
:100DB0000C947C068FE99FE00197F1F700C00000DA
:100DC0002197F0CF70E060E0893311F460E570E0C6
:100DD0000C94CB06882321F00E94060E0C94530E2F
:100DE0000895882321F00E940C0E0C94530E089550
:100DF000BF92CF92DF92EF92FF920F931F93CF9308
:100E0000DF936C01D62FC72FFC011281F580F2947D
:100E10009FE0F9220E94FC0DE82E8823B9F0E12E14
:100E20001123A1F08C2F807F803421F080E28D0F80
:100E30008830B0F08091F30282FD12C082E00E94FF
:100E4000BD0E0E94FC0D91E0E82EE926BC2EB29466
:100E50008FE0B822EB2DF0E0E25BFD4C0C94973173
:100E6000E12CF4CF0C2F0F70C07F11F00295007FA2
:100E7000112399F0002359F080E28D0F883010F093
:100E8000D11107C0802F0E94060E0E94530E8D2F95
:100E900041C0802F0E94160EF8CF8D2F0E947C0635
:100EA000002309F43FC080E28D0F883010F0D1118B
:100EB00004C0802F0E940C0E03C0802F0E941C0EC5
:100EC0000E94530E2FC00C2F0F70C07FC03211F044
:100ED0000295007FDD2381F0D13009F469C0112330
:100EE00009F473C0FF2009F469C0F601858180FF11
:100EF000CECF8F70858362C08091F30282FF38C0AD
:100F0000112359F0002329F0802F0E94060E0E9421
:100F1000530E80E00E94ED0505C080E00E947C0633
:100F20000111C7CFEB2DE850FF0B349720F40E943E
:100F300033280E949005EE2009F452C10E94F80D5A
:100F400080FD4EC1F60112820E94F20D0E94C80976
:100F5000C6010E9411090E94F20DDF91CF911F91ED
:100F60000F91FF90EF90DF90CF90BF900C94D3093A
:100F7000112389F0F11006C00E94360E802B0E94CA
:100F8000EA06D0CFF1E0FF12F7CF0E94360E802B99
:100F90000E943C0EC7CFF11006C00E94490E802F60
:100FA0000E94F106BFCF21E0F21609F4BBCFF5CFC6
:100FB000112331F035E03F1508F4B4CF802FDFCF97
:100FC00084E08F1508F4AECFEACFFF2041F3D93388
:100FD00049F4FFEF27EE33E0F15020403040E1F7D5
:100FE00000C000008D2F0E947C069CCF8C2F869520
:100FF0008695837069F0813009F094CF8D2F9C2FF6
:101000009370111102C090E080E00E9467288ACF9F
:101010008D2F9C2F9370111102C090E080E00E94F0
:10102000512880CF8C2F837079F511117BCF4D2FF4
:10103000429546954770440F440F8D2F8F70042EB4
:1010400001C0880F0A94EAF72D2F2071D4FF07C042
:101050002FE030E001C0220F4A95EAF72095C695AF
:10106000C695C370822BC23049F058F4C13019F0D4
:101070000E94A90957CF0E94A40954CF0E94AE092B
:1010800051CF0E94A2094ECF8695112311F08C2FCB
:101090008170882309F446CF4D2F429546954770BD
:1010A000440F440F8D2F8F70042E01C0880F0A94B7
:1010B000EAF72D2F2071D4FF07C02FE030E001C0E8
:1010C000220F4A95EAF72095C695C695C370822BE4
:1010D000C23049F058F4C13019F00E94EF0922CF14
:1010E0000E94EA091FCF0E94F4091CCF0E94B70991
:1010F00019CFCF70112329F08C2F0E94C8098D2F92
:101100003ECF8D2F0E94F1068C2F0E94D3090ACF6B
:10111000D23F51F160F4D03FB9F0D13F81F01123BB
:1011200009F449C0F110B3CE8C2F8F7121C0D33F89
:1011300011F1D43FA1F78091F30282FF26C08C2FDA
:101140008F71112311F314C0112349F084E08F151E
:1011500008F4E8CE8C2F8F710E94DF09E3CE95E072
:101160009F1508F4DFCEF6CF8C2F8F711111CDCFE4
:101170000E94C809D7CE112329F08C2F8F710E94AD
:10118000C009D0CE0E94BD09CDCE112349F0CF7148
:101190008C2F0E94C80963E08C2F0E94A20EC2CE41
:1011A00081E00E94BD0EE1E0EF1508F0BBCE82E0C9
:1011B0000E94BD0EB7CEF1100ACF8C2F8F71A5CF34
:1011C0004C2F4F706D2FC6010E9488100E94AA0AF2
:1011D000A9CE4C2F4F706D2FC6010E948B10A2CE4E
:1011E000DF91CF911F910F91FF90EF90DF90CF9003
:1011F000BF9008950F931F93CF93DF93EC01688105
:1012000079818A810E94860A8C010E94F9090E94D4
:10121000A109B801CE01DF91CF911F910F910C94DC
:10122000F806CF93DF93EC018B819C81892B29F009
:101230008881998189238F3F59F4DF91CF91089557
:10124000CE010E94FA08CE01DF91CF910C940A04DE
:10125000CE010E9452048111F3CF0E94FC0D88231D
:1012600061F38A81882349F38091F30282FDE5CFFF
:1012700082E0DF91CF910C94BD0E90E080E00E945F
:10128000512890E080E00E9467280E94230E0E946F
:10129000330E0C94530E0E94EC0D0C943D090E94E9
:1012A000130E0C944B09E92FE295EF70E250EE30EB
:1012B00070F4F0E0E25AFD4C0C949731803F19F045
:1012C00020F4883E20F481E00895843FE1F380E03B
:1012D0000895883EC0F3813FD1F7F5CF93FB88276F
:1012E00080F90895FC01808191810E947C0A0C9410
:1012F0005309CF93DF9300D000D00F92CDB7DEB764
:101300000F900F900F900F900F90DF91CF91089555
:10131000CF93DF9300D000D000D0CDB7DEB72696B4
:101320000FB6F894DEBF0FBECDBFDF91CF91089509
:1013300008950C9498090E94990980932B020C94AB
:101340003D0908950C949B0990912B02892B0C94D4
:101350009B0990912B0289230C949B0990912B025D
:1013600089270C949B090C9498090C94B3090E944A
:10137000B50980932A020C943D0980E00C94B709CA
:1013800091E001C0990F8A95EAF7892F0C94B7096B
:1013900021E030E001C0220F8A95EAF780912A020D
:1013A000822B0C94B70921E030E001C0220F8A950E
:1013B000EAF7209580912A0282230C94B70921E054
:1013C00030E001C0220F8A95EAF780912A02822735
:1013D0000C94B70990912A02892B0C94B70990912B
:1013E0002A0289230C94B70990912A0289270C9428
:1013F000B7090895990F990F990F890F982F977032
:1014000041E001C0440F9A95EAF786958695869546
:1014100093E0899FF0011124E050FE4F30E020E07E
:1014200070E05191DF011197CB01022E02C0969519
:1014300087950A94E2F78170819585278423852713
:101440008C932F5F3F4F2330310559F70895990F43
:10145000990F990F890F982F977086958695869585
:1014600023E0829FF0011124E050FE4F50E040E065
:1014700080E0219130E0092E02C0369527950A942C
:10148000E2F721703327042E01C0220F0A94EAF7F5
:10149000822B4F5F5F4F4330510559F70895CF922C
:1014A000DF92FF920F931F93CF93DF936C01009114
:1014B0002A0280912B02082BC7E0D0E010E0FC2E1E
:1014C000C8010C2E02C0959587950A94E2F780FD1D
:1014D0000CC02197A0F7F12C8F2DDF91CF911F9198
:1014E0000F91FF90DF90CF900895B6018C2F0E944E
:1014F0009E11019771F3F0CFCF93DF93EC010E941F
:101500004F0ABE01DF91CF910C949E111F93CF9390
:10151000DF93EB019091FF01992331F0CB01DF9133
:10152000CF911F910C947C0A882379F0CB010E9403
:101530004F0A182F682FCE010E94FA09BE01812F91
:10154000DF91CF911F910C949E11CB010E94270A2D
:10155000182FF4CFEF92FF920F931F93CF93DF9347
:101560008C01892B81F0F12CEE24E394E801219683
:10157000F8018491843770F4843008F05FC08130C2
:10158000B1F08230A1F1DF91CF911F910F91FF90C7
:10159000EF900895853709F44CC008F43DC09CE7EE
:1015A000980F903780F78F770E947C0649C00E5FB6
:1015B0001F4FFE01849190E2980F983060F487707D
:1015C000FE2D01C0FF0F8A95EAF78F2F0E94260E8D
:1015D0000E94530E02C00E94ED058F2D815030F203
:1015E000EFE9FFE03197F1F700C00000F7CF0E5FA1
:1015F0001F4FFE01849190E2980F983050F487704D
:10160000FE2D01C0FF0F8A95EAF78F2F0E942C0E46
:10161000DFCF0E947C06E1CF0E5F1F4FFE01C49119
:10162000C150D8F28FE99FE00197F1F700C00000A8
:10163000F7CF0E5F1F4FFE01F490CFCF0E94ED0554
:101640008E01CBCF1F93CF93DF93C0912C0216E076
:1016500080912D028C1304C0DF91CF911F910895CA
:10166000D0E01C9FF0011D9FF00D1124E25DFD4FA5
:101670004081518162817381848195810E948809B2
:101680002196C770E5CF40915E0250915F02609154
:1016900060027091610280916202909163020C94E9
:1016A0008809FF920F931F93CF93DF93809163027A
:1016B000807FD1F4809160028823B1F080912C0268
:1016C00010912D0260915E0270915F02A091610203
:1016D000B0916202062F0723C0910001D091010151
:1016E00096E0F92E181306C0DF91CF911F910F914C
:1016F000FF90089590E0109711F00F3F19F40196B4
:101700008770F0CFF89E9001F99E300D1124F901F9
:10171000E25DFD4F41814713F2CF40814613EFCF89
:1017200042814111ECCF438154814A1B5B0B4C1722
:101730005D0728F7809163028F7080618093630258
:10174000F901ED5CFD4F80818F70806180838EE5B3
:1017500092E00E941109DF91CF911F910F91FF90AC
:101760000C94220BAF92BF92CF92DF92EF92FF9236
:101770000F931F93CF93DF93CDB7DEB761970FB66B
:10178000F894DEBF0FBECDBF8C0185E0F801DE010D
:101790001D9601900D928A95E1F7F801E2808EE5A1
:1017A000C82E82E0D82E60916102709162026115AC
:1017B000710509F44DC190915E0220915F02892F5D
:1017C00082238F3F09F444C140815181A380B480BA
:1017D000F0906002F501E61BF70BBF01E0910001FC
:1017E000F0910101FF2009F404C180916302382FB8
:1017F000307F6E177F0708F0BDC0311179C0FE2C15
:10180000251323C0941321C0E1101FC08F70806185
:10181000809363020E94430BC6010E9411098091CC
:101820006302F80185838F2D61960FB6F894DEBFB1
:101830000FBECDBFDF91CF911F910F91FF90EF9021
:10184000DF90CF90BF90AF900895AB2829F0842F00
:1018500085238F3F09F015C180E0F82FF170DF2E4E
:1018600080FF3CC080912C0220912D0236E0821333
:1018700015C04D875E878D859E850E947C0A292F25
:1018800022952F702230F0F0243018F59F70F1F07F
:10189000F8019581907FD1F4D12C1EC090E0389F43
:1018A000F001399FF00D1124E25DFD4F6181651358
:1018B00006C06081641303C062816E110FC001967F
:1018C0008770D5CF9F7011F0882331F3805E883008
:1018D00018F3C8010E941109FD2CA5CFEE2009F4D0
:1018E000A2CF80916302816080936302F12C9BCF31
:1018F000251314C0941312C0E11010C0F8018583A1
:10190000C8010E94110986E0F801AEE5B2E001903D
:101910000D928A95E1F70E94430B85CFC8010E9482
:101920007209882319F1EE2009F180916302803257
:1019300070F020915E0230915F0238872F83198604
:10194000BB86AA868C87CE0107960E94110986E085
:10195000F801AEE5B2E001900D928A95E1F70E94A0
:10196000510B0E94430BFF24F3945DCFC8010E94EA
:101970001109F9CF311113C07A2DB98AA88A6E2DB9
:1019800089890E9479098EE592E00E94110986E01A
:10199000F60111928A95E9F70E94430BA7CF251310
:1019A0000FC094130DC0E1100BC0F8018583C8016E
:1019B0000E94110986E0F60111928A95E9F733CF6A
:1019C000C8010E947209882389F2EE2079F2809181
:1019D0006302803208F4BBCF20915E0230915F0237
:1019E0003A8329831B82BD82AC828E83CE0101960D
:1019F000ACCF6E177F07F8F4FE2CEE2009F4B6CFBB
:101A000025130BC0941309C086E0F801AEE5B2E0DF
:101A100001900D928A95E1F706CFC8010E947209E4
:101A2000811195CF80916302816080936302C80128
:101A30000E941109F8CE7A2DB98AA88A6E2D89895B
:101A40000E94790986E0F60111928A95E9F763CF41
:101A5000EE2009F48BCFC8010E947209F82E88236A
:101A600009F484CF86E0F801AEE5B2E001900D9272
:101A70008A95E1F78EE592E00E94E8050E94510BFD
:101A80004ACF81E08E25E9CE1F93CF93DF93CDB768
:101A9000DEB72C970FB6F894DEBF0FBECDBF4F83D5
:101AA000588769877A878B879C87CE0107960E9423
:101AB000B20B882369F08A859B85892B39F04F8189
:101AC0005885842F85238F3F09F071C016E05FC0D1
:101AD00086E0FE013796DE01119601900D928A95FF
:101AE000E1F78A859B85892B89F388859F818923E6
:101AF0008F3F61F320912D0230E0C901019687707C
:101B0000992740912C024817190671F40E944F0939
:101B100010922D0210922C0286E0EEE5F2E0DF0139
:101B20001D928A95E9F7D2CF96E0929FD001939FBC
:101B3000B00D1124A25DBD4FFE01319601900D92B2
:101B40009A95E1F780932D020E94220BBFCF819FCF
:101B5000C0011124825D9D4F0E94B20B8823E9F0E1
:101B6000E0912C021E9FF0011124E25DFD4F4081A7
:101B7000518162817381848195810E94880980915D
:101B80002C0290E001968770992780932C02809117
:101B90002C0290912D028913DACF2C960FB6F8946F
:101BA000DEBF0FBECDBFDF91CF911F910895698534
:101BB0007A858B859C850E94880988CF682F8091C3
:101BC0000201909103010C94C528682F80910201B5
:101BD000909103010C94C728809102019091030118
:101BE0000C94C92880916C028595859585950895FA
:101BF00080916C028770089590916C02977081E0DB
:101C000009F480E008958091780208959091780217
:101C1000892B80937802089580959091780298237B
:101C20009093780208951092780208959091770227
:101C3000892B80937702089580959091770298235D
:101C4000909377020895109277020895909176020A
:101C5000892B80937602089580959091760298233F
:101C600090937602089510927602089580916D0205
:101C7000089508950C94390E9091F30292FD08C0D6
:101C800090916D02981721F080936D020C943A0E9A
:101C9000089580916D02882329F010926D0280E0F2
:101CA0000C943A0E0895CF93DF93E0910201F091E6
:101CB0000301809178028083E0910201F091030199
:101CC000808190917702892B8083E0910201F091CD
:101CD0000301808190917602892B808390916D021F
:101CE000992381F0E0910201F09103018081892B19
:101CF000808380910201909103010E947D288111CF
:101D00000E94490EC0910201D091030148E050E0C9
:101D100064E672E0CE010E94EE31892B69F088E022
:101D2000FE01A4E6B2E001900D928A95E1F7CE01A2
:101D3000DF91CF910C944628DF91CF9108950895BB
:101D40000C949F0E9091F30292FD10C098E0899F31
:101D500090011124622B60936C020E94C80980914B
:101D60006C028595859585950C94A00E0C94C809F8
:101D700010926C0280E00C94A00E90916C02809501
:101D8000892380936C02282F277091F4282F082E26
:101D9000000C330B9217130659F09091F30292FD49
:101DA00007C08595859585950E94D3090C94B80E3A
:101DB00008959091F30292FB222720F9281769F0E9
:101DC00080FB92F99093F3028091F2029091F302DA
:101DD0000E94240F82E00C94BD0E08958091F302BE
:101DE00082FB882780F991E089270C94D90E81E045
:101DF0000C94D90E80E00C94D90E6FEF7FEF90E039
:101E000080E00C94363290E080E00E941232893EED
:101E10009E4F11F40C94CB1F80E0089582E090E077
:101E20000C94043283E090E00C940432CF9384E06D
:101E300090E00E940432C82F82E290E00E940432B7
:101E4000982F8C2FCF910895CF93C92F682F84E0BE
:101E500090E00E9418326C2F82E290E0CF910C94B7
:101E60001832AB01BC018FE090E00C942A32AB0138
:101E7000BC0183E190E00C942A3260E070E0CB0179
:101E80000C94370F60E070E0CB010E94310F0C948E
:101E90003D0F69EE7EEF90E080E00E94363260E018
:101EA00082E090E00E94183260E083E090E00E94BF
:101EB000183210922B0260E084E090E00E94183209
:101EC00060E082E290E00E94183260E085E090E0FD
:101ED0000E94183260E086E090E00E9418326FEFB6
:101EE00087E090E00E94183240E050E0BA0188E0BC
:101EF00090E00E942A3260E08DE090E00E9418326B
:101F000040E050E0BA0188E190E00E942A3260E0AF
:101F100087E190E00E94183240E050E0BA018CE185
:101F200090E00E942A3270E060E080E290E00E943F
:101F3000363240E050E0BA0188E190E00E942A3257
:101F400080E00E94E41F0E940A200C94420F0C942F
:101F5000490F682F8EE090E00C9418320E946C2993
:101F600060938B0270938C0280938D0290938E020B
:101F700060938702709388028093890290938A020B
:101F8000089585B7806885BF85B7806885BF089547
:101F9000089508950C94C90F08950C94CC0F0E94D5
:101FA000C10F86EC92E10E9429280E94C80F0C9470
:101FB000CA0F0C94CA14089508950E94DB0F0C9464
:101FC000DC0F0E94E0120C948F050E9457290E949A
:101FD0007C120E9419200E94E2140E9417140E9491
:101FE000E10F0E9473210E948A1D0E94F8140C9434
:101FF000CD0F8F929F92AF92BF92CF92DF92EF92CE
:10200000FF920F931F93CF93DF93CDB7DEB72A973D
:102010000FB6F894DEBF0FBECDBF0E943914982EC4
:1020200081110E94AE0F89E7A82E82E0B82E10E041
:1020300000E0802E802F0E940013E82EF501C19051
:102040005F01C81609F445C080918F0281FD0E948E
:102050000613D12CFF24F394CE248C2D8F21A1F1D3
:102060000E94D90F882399F0DE828F82EF2081E0D1
:1020700009F480E088870E9460298160782F9A8720
:1020800089874E815F8168858A850E94AA05F8014B
:10209000E758FD4F8081F826F08281E0911001C061
:1020A00080E02A960FB6F894DEBF0FBECDBFDF9159
:1020B000CF911F910F91FF90EF90DF90CF90BF9045
:1020C000AF909F908F900895D394FF0CF8E0DF12AB
:1020D000C4CF0F5F1F4F0E30110509F0AACF8FEF4D
:1020E00089838A831B820E9460298160782F9D8367
:1020F0008C8349815A816B818D810E94AA05CDCF45
:102100000E94F90F0E94CA140E94FF1D0C949F05A3
:1021100090E080E008950895FC01EE0FFF1FE45069
:10212000FC4F859194910895CF93DF930E94A21163
:10213000EC01811520E5920708F041C0811530E4DB
:10214000930708F0B4C0803E910518F5803C9105D6
:1021500008F09DC0883A910570F4853A910508F021
:102160008EC081309105F9F00097E9F00497D8F41A
:10217000D0E0C0E018C08F3B9105D0F7C85AD0E03E
:10218000CC0FDD1FC258DE4F0990D881C02DD4641A
:102190000AC08115904258F4C11581E0D80718F49F
:1021A000C83ED10528F7CE01DF91CF910895C11522
:1021B00090E3D90708F071C0CE019F706AC0811505
:1021C00025E5920758F5811534E5930708F09EC080
:1021D000811542E5940750F4C11581E5D80708F44C
:1021E00069C0DC2FCC27C16FD06ADDCF982F9695C0
:1021F00096959E0123703327C115D34508F077C00B
:10220000C1E0D0E002C0CC0FDD1F2A95E2F720E24A
:10221000929FC0011124C82BD92B67C0C11589E535
:10222000D807A8F4C11598E5D90708F074C0C115FE
:1022300026E5D20708F09CCF8C2F0E943912C82FB8
:10224000D0E0DC2FCC27CC27DF71D062ACCFC1151A
:102250003AE5D30708F464C0CE0190568115904248
:1022600008F086CF8D2F8F710E94391290E0982F41
:10227000882788279F719C012C2BE901E6CFC55A3E
:10228000D0E0C455DE4FC881D0E0D0648CCF805CF4
:1022900091090E948C10EC0186CFCE019927D3FFC3
:1022A00003C0EC01D86C7FCFEC01D06C7CCFDF7029
:1022B000D06A79CFCE01E4E096958795EA95E1F76B
:1022C00083702C2F26952695237090E2299F9001EC
:1022D0001124382B8C2F8370C1E0D0E002C0CC0FCA
:1022E000DD1F8A95E2F7C22BD32BDC685CCFC1E0FF
:1022F000D0E002C0CC0FDD1F2A95E2F730E2939FB9
:10230000C0011124C82BD92BDA684DCFD82FCC2788
:10231000C46FD06A48CFDC2FCC27C06FD06A43CFC0
:102320008C2F8F700E94391234E0D695C7953A955C
:10233000E1F7CF709C2FEC01D06935CF0E94542477
:102340000C94941082389105B1F1B0F48133910569
:1023500009F475C048F48932910509F469C08A32DC
:10236000910509F473C008958533910509F459C0A6
:102370008933910501F10895833E9105A9F138F45F
:10238000803E9105F9F0823E910549F10895863E1F
:102390009105A9F1873E9105C9F1843E910519F592
:1023A0002091F30221FF1FC08091F20284FD14C02E
:1023B00087EE90E008952091F2022370A1F080EE64
:1023C00090E008952091F20220FD47C03091F30281
:1023D00030FF09C024FF44C090E080E004C0209199
:1023E000F20222FDF7CF08952091F20222FD3BC0B8
:1023F0003091F30230FDE3CF24FFF5CFEDCF2091F4
:10240000F20223FFF0CF24FDE7CFD2CF2091F202DA
:1024100023FD2CC03091F30231FFEECF84EE90E02B
:1024200008952091F20225FFDECF89E290E0089521
:102430002091F20225FFD7CF85E390E00895209107
:10244000F20226FFD0CF8AE290E008952091F202B6
:1024500026FFC9CF81E390E0089589E390E00895D5
:1024600083EE90E0089582EE90E0089586EE90E08D
:1024700008959091F20292FF06C0282F287128300B
:10248000F9F4877F846093FF06C0282F28712831D4
:10249000F1F4877E84612091F30220FF06C0382F7B
:1024A00038713830D9F4877F816021FF06C0282F2A
:1024B00028712831D1F4877E816194FD877E08954B
:1024C000282F24712430F9F68B7F8860DCCF282FE9
:1024D0002471243101F78B7E8861DDCF382F317173
:1024E000313019F78E7F8860E0CF282F217121319C
:1024F00021F78E7E8861E1CF1092EE021092EF02FA
:102500001092F0021092F1020895CF92DF92EF92B2
:10251000FF926B017C010E94CA1481110EC00E94BF
:102520006C29C61AD70AE80AF90AC092EE02D092BC
:10253000EF02E092F002F092F102FF90EF90DF9054
:10254000CF9008950F931F930E94CA14882321F0FF
:102550001F910F910C946C290E946C290091EE023E
:102560001091EF022091F0023091F102600F711F83
:10257000821F931F1F910F9108950E94CA14811109
:102580000C9460290E94A212CB01089580E0089566
:102590000C94FD0E0E9439148FE39CE90197F1F72A
:1025A00000C000000E94391480E00E94001380FFE8
:1025B00004C00E94C8120C94C72908950C94CA1232
:1025C0000E94030F811102C00E94A70F0E940E0FEC
:1025D00080938F020E94160F9093F3028093F20271
:1025E0000E94DE120E94120F0E94A20980912A020C
:1025F0000C94B50908950C94FA1208950C94FD12E8
:10260000E82FF0E0ED5FFC4F80810895089580EAA7
:102610008A95F1F7089500C008950C940713089562
:102620000C940F13EF92FF920F931F93CF93DF93AE
:1026300000D000D000D00F92CDB7DEB70E94CA14F0
:10264000F82E60911103882309F449C087E0E82E31
:102650008E010F5F1F4FF8018E2D11928A95E9F7B9
:10266000862F90E0B8018D5F9C4F0E94061588234D
:1026700001F18091F40290E047E050E0B8018D5FF5
:102680009C4F0E94EE3121E020939002892BD9F4D7
:10269000F12C0E943D048F2D27960FB6F894DEBFD3
:1026A0000FBECDBFDF91CF911F910F91FF90EF90A3
:1026B000089580919002882359F3F8011192EA94C9
:1026C000E9F710929002A091F402B0E0AD5FBC4F28
:1026D00087E0F80101900D928A95E1F7DACF70E07A
:1026E0006D5F7C4F8091F40290E08D5F9C4F0E9463
:1026F00093150E941013CFCFF894E82FE295EF7056
:10270000F0E031A1282F2F7081E090E001C0880F08
:102710002A95EAF7982F9095932391A392A1892B5C
:1027200082A3789408950F931F93CF93DF93C7EB01
:10273000D1E089918F3F11F00E947C1381E0CE3B64
:10274000D807B9F7CFEAD1E007EB11E089918F3FC5
:1027500011F00E947C130C171D07C1F7DF91CF9178
:102760001F910F910895CF92DF92EF92FF920F93F6
:102770001F93CF93DF93EC01D62E062F10E0C801F4
:1027800089549E4F7C01FC0180818F3F09F444C035
:10279000F894E82FE295EF70F0E091A18F7021E0BE
:1027A00030E001C0220F8A95EAF7892F822B81A39E
:1027B00082A12095282322A378940E940B13EFEA8C
:1027C000F1E031E0C12C21912F3F79F1A22FA295A8
:1027D000AF70B0E090968C9190E02F7002C095950C
:1027E00087952A95E2F780FD20C0832FC82A330FF2
:1027F00081E0E73BF80739F7F70180818F3F11F05F
:102800000E947C1361E0C11001C060E08D2D0E9428
:102810000D13C00FD11FC882DF91CF911F910F916F
:10282000FF90EF90DF90CF90089580E0DFCF809110
:1028300004018091040197E0811190E090931103CD
:1028400087E0891B8093F4020E9493138EE0E3E0FB
:10285000F3E0DF01982F1D929A95E9F7E5EFF2E09A
:10286000DF011D928A95E9F787E00E948C140C9491
:102870003B04EF92FF920F931F93CF93DF93CDB75B
:10288000DEB72E970FB6F894DEBF0FBECDBF8E0118
:102890000F5F1F4F8EE0F80111928A95E9F7F12C36
:1028A0006F2DC8010E94B313F394F7E0FF12F8CF25
:1028B0004EE050E0B80185EF92E00E94EE317C01DD
:1028C00021E0892B09F420E0E114F10441F08EE0CD
:1028D000F801A5EFB2E001900D928A95E1F76091C1
:1028E000110370E06D5F7C4F47E085EF92E00E943E
:1028F0008D1481E090E0EF2811F40E9412132E96BF
:102900000FB6F894DEBF0FBECDBFDF91CF911F9100
:102910000F91FF90EF9008950895FF920F931F93EA
:10292000CF93DF93F82E092F162FD72FC42F2223F2
:1029300049F081E0809393020E9460299093920273
:1029400080939102809193028823A1F0809191025B
:10295000909192020E947829059760F0EF2DF02F58
:10296000A12FBD2FCE0FDF2FD11DEC17FD0741F496
:1029700010929302DF91CF911F910F91FF900895D4
:1029800081918D93F2CF26982E9883B186FB88276C
:1029900080F9089580919602811107C00E9432311A
:1029A000882351F081E08093960281E09091960215
:1029B000913009F080E0089582E0809396020E94B1
:1029C0002D31F3CF0E94C314809304018091040140
:1029D000882351F06BE080E00E9410180E94CA1416
:1029E000882329F00C943C1564E18BE0F5CF089521
:1029F0000E94CA14811102C00C943E15089581E012
:102A0000909197029A3008F080E008950F931F93F9
:102A1000CF93DF93EC018B01809197028A30B8F459
:102A2000B801CE010E949115C82F811122C080915A
:102A300097028F3FB9F40E9460299093950280938A
:102A400094028C2FDF91CF911F910F910895809167
:102A50009402909195020E947829843F914000F75A
:102A6000C0E0EFCF8F5F809397028A3020F7C1E0FC
:102A7000E8CF10929702E5CF0C9468260C946B2651
:102A8000EF92FF920F931F93CF93DF937901C82F9B
:102A9000880FDD0B41155105A9F08AE08C9FF001EC
:102AA0008D9FF00D1124EB5FFE4F8381948188563A
:102AB0009D4F228130E04217530708F49A01A90183
:102AC0000E94FB31CE010E947527892B11F501155B
:102AD0001105E9F08AE08C9FF0018D9FF00D112423
:102AE000EB5FFE4F458150E00417150708F4A8017D
:102AF0008AE08C9FF0018D9FF00D1124EB5FFE4F5B
:102B00006681778168567D4FC7010E94FB3181E065
:102B100001C080E0DF91CF911F910F91FF90EF9066
:102B200008950C94F5160C9419170F931F93CF93D7
:102B3000DF9300D000D0CDB7DEB76091BB027091BB
:102B4000BC028091BD029091BE020E94872911E0D3
:102B5000643671058105910518F10E94A2126E5F1D
:102B60007F4F8F4F9F4F69837A838B839C8310E0C5
:102B700000E030E020E044E050E0BE016F5F7F4FB6
:102B800082E00E944015182F882351F00E946C2982
:102B90006093BB027093BC028093BD029093BE020F
:102BA000812F0F900F900F900F90DF91CF911F9179
:102BB0000F9108950F931F93CF93DF93CDB7DEB797
:102BC00028970FB6F894DEBF0FBECDBFCE01019699
:102BD0000E94B21C18856091BF027091C002809162
:102BE000C1029091C2020E94872964367105810555
:102BF000910510F41123C1F010E000E030E020E076
:102C000048E050E0BE016F5F7F4F83E00E944015B7
:102C1000882369F00E946C296093BF027093C00200
:102C20008093C1029093C2020E94AF1C81E028965B
:102C30000FB6F894DEBF0FBECDBFDF91CF911F91CD
:102C40000F910895AF92BF92CF92DF92EF92FF92D1
:102C50000F931F93CF93DF93CDB7DEB728970FB6AF
:102C6000F894DEBF0FBECDBF7B01C090C501D090F0
:102C7000C60101E010E09E01285F3F4F50E040E0B8
:102C800070E060E080E00E944015182F882309F46E
:102C900048C056018FEFA81AB80A6091B702709128
:102CA000B8028091B9029091BA020E9487296436D5
:102CB00071058105910568F107E010E09E012F5F25
:102CC0003F4F50E040E070E060E081E00E9440153E
:102CD000D82E67E070E0C5010E94742111E098854C
:102CE000981310E01D2141F10E946C296093B702F6
:102CF0007093B8028093B9029093BA0287E0FE0104
:102D00003196A0EBB2E001900D928A95E1F711E0C7
:102D100013C067E070E0C5010E9474219885891393
:102D2000CBCF87E0F6013196DE01119601900D922E
:102D30008A95E1F71111E2CF87E0E0EBF2E0D701ED
:102D400001900D928A95E1F7812F28960FB6F8949D
:102D5000DEBF0FBECDBFDF91CF911F910F91FF90CE
:102D6000EF90DF90CF90BF90AF900895AF92BF9259
:102D7000CF92DF92EF92FF920F931F93CF93DF9347
:102D80007C015B016A010E94FF1401E010E08823CE
:102D900011F00AE010E0C1E0D0E0F894B501C701FD
:102DA000F60109957894811104C021960C171D072E
:102DB0005CF4DF91CF911F910F91FF90EF90DF9026
:102DC000CF90BF90AF900895CC9F9001CD9F300DD4
:102DD000300D112490E080E045E34A95F1F70000C2
:102DE000019682179307C1F7D8CF0F931F93CF9304
:102DF000DF93EC018B0142E256E10E94B616882374
:102E000091F045E955E1B801CE010E94B61688233C
:102E100051F04AED55E1B801CE01DF91CF911F91FC
:102E20000F910C94B61680E0DF91CF911F910F9116
:102E300008950F931F93CF93DF93F894C091C5012A
:102E4000D091C601CE01019627E0FB01DC01019083
:102E50000D922A95E1F767E070E00E947421888363
:102E60007894F894688579858A859B850091AC0271
:102E70001091AD022091AE023091AF026017710740
:102E80008207930751F06093AC027093AD02809378
:102E9000AE029093AF020E9485127894F8948B89C9
:102EA000882331F060E0CE010C960E94CA1D1B8A77
:102EB0007894DF91CF911F910F9108950E947C2B00
:102EC0000E94E50F0C94882B0E948C2B0E9480108E
:102ED0000C94A62B0E94EA280E94632B0E94CF0F1D
:102EE0000E945E170E9464170E94DD0FFBCFEF92D5
:102EF000FF920F931F93CF93DF93EB01E82FD11134
:102F000010C0442321F0F0E0ED5EFA4FE4916E2F03
:102F10007E2F8E2FDF91CF911F910F91FF90EF9019
:102F200008950D2F10E0282F30E0442329F02D5E66
:102F30003A4FF901249130E0F6E0CF9FC00111240F
:102F4000EFEFF0E0BF010E944D31AB018C2F90E01C
:102F5000880F991FA5E5A49FB001A59F700D1124AE
:102F6000861B970B982F990F980FBF01601B710B51
:102F7000629FD001639FB00D729FB00D11248B2F03
:102F80009D9FB0011124672F7727EF01C61BD70B38
:102F9000BE01629FE001639FD00D729FD00D11248E
:102FA0007F01E91AF108E09EB001E19E700DF09EEC
:102FB000700D1124672F7727E61BF70BE29F800126
:102FC000E39F100DF29F100D1124E12F722F42305C
:102FD000510599F048F44115510569F0413051050A
:102FE00081F0EB2F8D2F07C04430510569F080F040
:102FF00046305105B1F76E2F8DCFE22F7B2F812FF9
:10300000FACFE22F7D2FF7CFEB2F822F712FF3CF47
:103010007B2F822FED2FEFCF41E00C94771708958F
:10302000E0E3F1E08083618308950C940C18CF9362
:10303000DF93762FE901682F842F0E94151879837A
:1030400068838A83DF91CF910895453B08F044EB74
:103050000C94171880911303982F9E7F61F4817050
:1030600082608093130380911603853B18F084EBF4
:103070008093160308958A34B0F381708864F1CF89
:1030800088E090E00C940C32CF92DF92EF92FF92A6
:103090006B017C010E942A18B701A60188E090E02C
:1030A000FF90EF90DF90CF900C942A326091130341
:1030B0007091140380911503909116030C94441899
:1030C000E3E1F3E083E0808311828FEF828384EB7E
:1030D00083831482A0EDB2E012968C9112978360E4
:1030E00012968C9360817181828193810C94441833
:1030F0008091130380FF02C08695089580E00895B3
:1031000090911703933018F49F5F909317038823CF
:1031100051F0609113037091140380911503909105
:1031200016030C944418089581E00C948018909133
:103130001703992319F0915090931703882351F0A6
:1031400060911303709114038091150390911603FD
:103150000C944418089581E00C94971880911703FB
:10316000089580931703662351F0609113037091C3
:10317000140380911503909116030C94441808953C
:1031800060E00C94B11880911403089580911503A8
:10319000089580911603089570E00C949F1F60912C
:1031A00031018091130380FF0AC08091300123E038
:1031B000829FC0011124885E9C4F0C94CC18809192
:1031C00032019091330123E0829FF0011124E85EE7
:1031D000FC4F891750F71182108212828F5F33964D
:1031E000F8CF9091130390FF14C090913201209179
:1031F000330133E0939FF0011124E85EFC4F9217F6
:1032000010F00C94CF188183608342839F5F3396C4
:10321000F6CF0895CF93DF9300D00F92CDB7DEB7EE
:103220009091130390FF0AC09E012F5F3F4F0E94B1
:1032300025184B8169818A810E94F1180F900F90A7
:103240000F90DF91CF910895CF93DF93EC01EC8144
:10325000F0E0E25FFB4F4491E3E1F3E062818181C2
:103260000E940A198C818F5F8C83DF91CF91089522
:10327000CF93DF93EC01E3E1F3E0438162818C8142
:103280000E940A198C818F5F8C83DF91CF91089502
:103290000F931F93CF93DF9300D00F92CDB7DEB77C
:1032A0008C018091C30281110AC09E012F5F3F4FA4
:1032B00044EB6FEF0E9425188A818093C302F801C6
:1032C0006481613069F08091C30240E0662361F05F
:1032D00040E0623011F44091C30280E060E004C03D
:1032E0006091C30240E080E00E94F118F8018481FF
:1032F00090E0019663E070E00E94613184830F905A
:103300000F900F90DF91CF911F910F910895AF9281
:10331000BF92CF92DF92EF92FF920F931F93CF93C2
:10332000DF9300D00F92CDB7DEB7182FF62E042F03
:10333000E22E9091130390FF3AC0E92FE695AE2F4D
:10334000B0E0A953BE4F8C918093D0029E7F923003
:10335000E1F59E012F5F3F4F812F0E9425184B8181
:1033600069818A810E94F11880911403811308C039
:10337000809115038F1104C080911603801729F0E6
:103380008091D20282608093D20210931403F09253
:10339000150300931603EE2051F060911303709112
:1033A000140380911503909116030E9444180F9006
:1033B0000F900F90DF91CF911F910F91FF90EF90A1
:1033C000DF90CF90BF90AF900895823019F40091B4
:1033D0001603CACF863019F410911403C5CF893073
:1033E000D9F3893109F6E9518E2F8170D82EE695EF
:1033F000F0E0E25FFA4FA590B490C12CBB2460913D
:103400003401C61618F00E94CF18AECF2C2D30E034
:10341000A29EC001A39E900DB29E900D112470E05B
:103420000E944D31812FD11013C0860F409132017F
:10343000420F532F511D9A01220F331F240F351FA6
:10344000285E3C4F402F6F2D0E942518C394D7CF84
:10345000861BECCFE3E1F3E09181282F4381628169
:103460008AE0890F0C94871981E00C942A1AE3E111
:10347000F3E09181282F4381628186EF890F0C94BC
:10348000871981E00C94371AE3E1F3E0628121E1CE
:10349000620F08F46FEF282F438181810C94871904
:1034A00081E00C94441AE3E1F3E0628121E1621BC4
:1034B00008F460E0282F438181810C94871981E012
:1034C0000C94531AE3E1F3E0438121E1420F08F445
:1034D0004FEF282F628181810C94871981E00C9431
:1034E000621AE3E1F3E0438121E1421B08F440E08A
:1034F000282F628181810C94871981E00C94711AC4
:1035000020E00C948719EF92FF921F93CF93DF93E3
:10351000EC0110E0EE24EA94F12C609134011617CE
:1035200070F00E94CF189A818C8190FF27C08F5F26
:103530008C83DF91CF911F91FF90EF9008952091A0
:103540003201422F410F5527551FCA019A01220F00
:10355000331F280F391F285E3C4F70E0C7010E94BF
:103560006131962F8C814091160360911503199F4C
:10357000800D11240E9425181F5FCFCF8150D8CF16
:103580008F929F92AF92BF92CF92DF92EF92FF9273
:103590000F931F93CF93DF93EC018A81BB24BA94DE
:1035A00080FD02C0BB24B3948C8181110AC081E0EC
:1035B000B8122AC08091340181508093C50281E005
:1035C0008C83A12C4FE1942E80913401A816F8F041
:1035D0000E94CF188091C50291E0B91261C081119B
:1035E0005AC08091340181508093C5021C82DF91C2
:1035F000CF911F910F91FF90EF90DF90CF90BF90F0
:10360000AF909F908F9008951092C502D8CF0091EF
:103610003201CA2CD12C0C0D1D2D111DC801880F93
:10362000991F080F191F085E1C4FF80111821082A4
:10363000128234E0E32EF12C812C8091C502880D9A
:1036400080321CF1692D0E943F31892F082E000C19
:10365000990BC816D90691F4809116038E9DA0018E
:103660008F9D500D11245595479555954795980177
:1036700060911503809114030E9425188B0CF1E0D2
:10368000EF1AF108D1F6A3949FCF87FFDFCF909177
:103690003401890FDBCF81508093C502BC82A7CF54
:1036A00090E001966091340170E00E946131809356
:1036B000C5028C839CCFEF92FF920F931F93CF9301
:1036C000DF93EC018C81811109C081E08C83109221
:1036D000C40292E090932F0180932E0180913201D9
:1036E0009091330123E0829FF0011124E85EFC4FAA
:1036F000891768F110E003E060913401161768F152
:103700000E94CF1880912E012091C402280F20938F
:10371000C40290912F01980F90932F01191654F421
:10372000022E000C330B409134014150550B2417ED
:10373000350734F0819580932E01813009F41C8285
:10374000DF91CF911F910F91FF90EF90089511821B
:10375000108212828F5F3396CBCFE12EF12C70E076
:10376000C7010E94613120913201820F482F50E041
:103770002091C402022E000C330BE216F306BCF0BB
:1037800020912F01022E000C330B2E153F057CF0EB
:10379000809F90011124285E3C4F40911603609158
:1037A0001503809114030E9425181F5FA5CFFA010D
:1037B000EE0FFF1FE40FF51FE85EFC4F1182108231
:1037C0001282F3CF8F929F92AF92BF92CF92DF92ED
:1037D000EF92FF920F931F93CF93DF93EC014C81F5
:1037E000042F10E09801D8010E94AC319B01AC017C
:1037F0000E94C2314B015C01E0E2F0E0E01BF10B02
:10380000A5E5B0E0AC019B010E94C2316B017C01D7
:103810009F01DF010E94A4319B01AC010E94CD31C8
:103820009B01AC01280D391D4A1D5B1DC701B60166
:103830000E947531F22E822F90E039E23F1560F13F
:1038400043E0249F9001112435952795122F109560
:1038500000E085E5E82EEF1880913401081758F153
:103860000E94CF189C8181E0992319F0903219F4BD
:103870008FEF80932D0180912D01890F8C83DF9133
:10388000CF911F910F91FF90EF90DF90CF90BF905D
:10389000AF909F908F90089525E530E0B901681BA7
:1038A000790B9B01220F331F260F371F37FFCCCF19
:1038B0002F5F3F4FC9CF8E2D01FD8F2D20913201FB
:1038C000622F600F7727771F9B01220F331F260F70
:1038D000371F285E3C4F412F609115030E94251829
:1038E0000F5FBACF0F931F93CF93DF93EC0110E0DC
:1038F00000E0909134019017110609F06CF40E94D9
:10390000CF188C8190E00196817099278C83DF918C
:10391000CF911F910F91089520913201A801420F7C
:10392000511D9A01220F331F240F351F285E3C4F73
:103930004C816091150380911403969590171106A0
:1039400051F04CF0442349F0409116030E94251891
:103950000F5F1F4FCECF4423B9F340E0F7CF109253
:10396000D202089525E0E3E1F3E0DC0101900D923D
:103970002A95E1F72091D0023091D1024091D202F4
:10398000FC012583368347830895E0EDF2E0118240
:103990008281846082830895E3E1F3E080818E7FF9
:1039A00080830E94C51CE0EDF2E082818160828309
:1039B0002FEF80E792E0215080409040E1F700C077
:1039C00000000C94CF18E3E1F3E080818E7F8083C8
:1039D00060817181828193810E9444180E94C51C7C
:1039E000E0EDF2E08281816082832FEF80E792E058
:1039F000215080409040E1F700C000000C94CF18A7
:103A000060911303669570E04BE050E085E391E030
:103A10000E94E131892B19F481E08093D1020E9448
:103A2000BD129093CA028093C9028091D202846031
:103A30008093D20208959091130390FF3AC0917041
:103A400081112DC09260909313038091D202816006
:103A50008093D202662351F0609113037091140396
:103A600080911503909116030E94441860911303EE
:103A7000669570E04BE050E085E391E00E94E13113
:103A8000892BA1F00E94C51C81E08093CC0240915B
:103A9000160360911503809114030C94801A8532EB
:103AA00010F09864D0CF880F982BCDCF0E94001DC6
:103AB000EBCF0895682F90911303969581E0890FBD
:103AC000853208F081E00C941B1D81E00C945A1D96
:103AD000682F9091130396958FEF890F09F484E274
:103AE0000C941B1D81E00C94681D61E00C941B1D5F
:103AF000E3E1F3E080818160808386950C94751DFD
:103B00008091130380FD0C94E31C0C94781D60E0FD
:103B10000C941B1D8091CF02811133C00E94030FB2
:103B2000811104C00E94A70F0E9460180E944018D3
:103B300060931303709314038093150390931603FB
:103B40008091D20283608093D2026E7F61F40E94E2
:103B500060180E94401860931303709314038093BD
:103B60001503909316030E942A180E94C51C809189
:103B7000130380FF03C086950E94871D81E0809318
:103B8000CF020895E3E1F3E0808181608083869530
:103B90000C94871D1F93CF93DF93EC01162F8F8119
:103BA00080FF0CC0888180FF24C080911303816056
:103BB00080931303888186950E941B1D8F8181FF4E
:103BC00006C0212F4B816A8189810E9487198F81CC
:103BD00082FF05C08E81882379F00E94001D8F81AD
:103BE00083FF03C081E08093CC02DF91CF911F91CE
:103BF00008950E94CC1CE2CF0E94C51CF0CFEF922A
:103C0000FF920F931F93CF93DF938091D10288236C
:103C100009F462C08091D002E0911303E695E81B9D
:103C2000E093CB02823009F05EC0F0E0E65FFB4F2C
:103C3000E491CE2FD0E004E219E18091CC028823F8
:103C400061F01092CC020E94BD129093CA02809340
:103C5000C9021092CE021092CD020E94BD12E091D4
:103C6000C902F091CA029C012E1B3F0B2F3F3F4718
:103C700098F52091C8022223B1F01092C802209139
:103C8000C6023091C702821B930B8F3F9F4758F4A7
:103C9000205D3A483093C7022093C6028091D20239
:103CA00088608093D202E090CD02F090CE02EC0FBB
:103CB000FD1FF093CA02E093C90289EC92E0F8017B
:103CC00009958091CD029091CE02892B29F4EF289D
:103CD00019F081E08093C802DF91CF911F910F917D
:103CE000FF90EF900895863049F4F0E0E95FFB4FD4
:103CF000E491CE2FD0E008E319E19FCF893051F451
:103D0000E695F0E0EC5FFB4FE491CE2FD0E003E8C6
:103D10001AE193CF8F3051F4E695F0E0EF5FFB4F5F
:103D2000E491CE2FD0E000EC1AE187CF853149F441
:103D3000F0E0E250FC4FE491CE2FD0E00BE51BE128
:103D40007CCFC8E2D0E002EE1BE1883109F475CFE8
:103D5000833239F4ECEFF3E0C591D49108E419E132
:103D60006CCFC4EFD1E002E71CE1843209F465CFE7
:103D7000C0EDD7E00FE018E160CFFA01811101C07A
:103D8000FB010994CF93DF93C82FD62F0E94781898
:103D90008C1740F00E9478188D1720F4DF91CF9196
:103DA0000C94651D8C2FDF91CF910C94751D1F9382
:103DB000CF93DF93EC01FB01128111117EC00E94B1
:103DC000030E8272CC3CFCE5DF0709F49CC008F0CE
:103DD00041C0C63CECE5DE0709F481C0D8F4C33C21
:103DE0009CE5D90709F471C030F4C23CDC4509F404
:103DF00069C011E062C0C43C9CE5D90709F46AC0FF
:103E000041E45AE164E37AE1C53CDC4591F70E9464
:103E1000BD1E53C0C93CFCE5DF0709F46AC068F465
:103E2000C73CECE5DE0709F45FC040E55AE16FE509
:103E30007AE1C83CDC4559F3DCCFCA3C9CE5D907A4
:103E400009F45CC04BEA58E164E978E1CB3CDC451D
:103E5000F1F2CFCFC13DFCE5DF0709F465C098F46E
:103E6000CE3C9CE5D90709F457C008F451C0CF3CBB
:103E7000FCE5DF0709F455C0C03DDC4509F0B9CFCA
:103E80006EE089E04BC0C43D9CE5D90709F452C0FF
:103E900058F4C23DFCE5DF0709F449C0C33DDC45E9
:103EA00009F0A7CF88E135C0C53D9CE5D90709F4E5
:103EB00044C0CD35DD4509F09CCF812FDF91CF91F6
:103EC0001F9108950E94801DF8CF42E75DE165E6ED
:103ED0007DE19DCF45E65DE162E77DE198CF44E37A
:103EE0005AE161E47AE193CF4FE55AE160E57AE186
:103EF0008ECF4DE75AE16EE67AE189CF4EE65AE180
:103F00006DE77AE184CF44E958E16BEA78E17FCF4D
:103F100081E00E94751DD1CF65E082E00E94C21E43
:103F2000CCCF68E086E0FACF64E18FE0F7CF67E1BD
:103F300085E1F4CF62E289E1F1CF83E2EACF539ADF
:103F40004BB1477F5BB15860EFB7F8949B01220FEC
:103F5000331F260F371F280F391F2817390741F441
:103F6000EFBF8FE594E00197F1F700C000000895DE
:103F7000DC016D91CD0178E05BB9000000C067FF06
:103F80004BB9660F000000C000C000C04BB900C0B4
:103F90007A9591F7E2CF83E290E00E940432823278
:103FA00089F484E290E00E940432813059F485E281
:103FB00090E00E94043291E0843209F090E0892F71
:103FC0008170089580E0FCCFCF93C82F6FEF8111EF
:103FD00062E283E290E00E9418326FEFC11161E06B
:103FE00084E290E00E9418326FEFC11164E285E232
:103FF00090E0CF910C941832089586E290E00E94F0
:104000000432682F70E090E080E0089586E290E04E
:104010000C94183280E00E94E41F60E070E0CB0155
:104020000E9406200E94CC230E94B82481E00C94B8
:10403000E41F0E94FC1F0E94CB1F811102C00C9440
:104040000A200895CF93FB01C281CC2309F19C0182
:1040500022513F452031310520F582510E94C8246C
:10406000C0E08C2FCF91089581E00E94C80943E001
:1040700062E081E00E943204F3CF81E00E94D30924
:1040800043E062E081E00E943204EBCF82E0F6CFB1
:104090008031FFE59F0789F381319F45B9F3C1E086
:1040A000E0CF8031EFE59E07F9F281319F45C9F6F7
:1040B00082E0DBCF2FEFFC0120830895CF93DF93C5
:1040C000EC0188818138A9F028F4803871F0DF9103
:1040D000CF910895823881F08338C9F70E94C318C0
:1040E00089830E94C6188A83F2CF0E94C9188983E7
:1040F000EECF0E947818FBCF0E94AE18F8CFCF9376
:10410000DF93EC0188818138E1F028F4803869F090
:10411000DF91CF910895823811F18338C9F70E9459
:10412000C918482F6A81898108C0D9810E94C618A0
:10413000C82F0E94C3184D2F6C2FDF91CF910C9484
:10414000801A89810E94871D8981811104C0DF91B5
:10415000CF910C94CC1CDF91CF910C94C21D89811E
:10416000DF91CF910C94C018EF92FF920F931F93A1
:10417000CF93DF93EC01062FDC01ED91CD01E150EF
:10418000E33108F0ADC0F0E0E459FD4C0C949731F8
:10419000198289E08A83602FCE01DF91CF911F9130
:1041A0000F91FF90EF900C943C2A8981823069F046
:1041B000833071F08130D9F40E946C290E949D31C6
:1041C0006A837B838C839D83E6CF0E94FD1FF6CF9D
:1041D0007E01B2E0EB0EF11C10E0812F0E94001373
:1041E000F70181937F011F5F1E30B9F7D4CF602F95
:1041F000CE010E945A20CFCF89818230C1F76A81D7
:104200007B818C819D810E949D310E940620C3CFBD
:104210004B816A8189810E949E239827892798274C
:104220009D838C83B8CF2C813D8132272327322771
:104230004B816A8189810E94B723ADCF0E94CC2334
:10424000AACF0E947F20A7CF0E945E20A4CF0E9409
:104250005618A1CF0E94612489839DCF0E946324B8
:104260009827892798279A83898395CF6B8170E057
:1042700089819A81AE014C5F5F4F982789279827E3
:104280000E94662488CF6B8170E089819A81AE019B
:104290004C5F5F4F9827892798270E948D247BCFFA
:1042A0000E94B82478CF0E948B23D6CF6B8170E018
:1042B00089819A81AE014C5F5F4F982789279827A3
:1042C0000E94042468CF6B8170E089819A81AE01DD
:1042D0004C5F5F4F9827892798270E942A245BCF3D
:1042E0008FEF888358CF0895FC01680F791F8FEFF7
:1042F00091E3E617F70709F408952191822728E052
:1043000030E087FF06C0880F892721503109C9F79F
:10431000F0CF880FFACFCF93DF93EC01FB018281BE
:10432000882309F433C1C330FDE5DF07C0F5CA3F78
:104330009CE5D90730F49E0122503C4524313105DB
:10434000B0F50E94160F9093F3028093F202C131F0
:104350008CE5D80709F4EEC008F069C0C930ECE577
:10436000DE0709F4D5C0C8F5C5308CE5D80709F4D7
:10437000C7C000F5C330ECE5DE0709F4B9C008F0AA
:10438000BBC0C230DC4509F4ADC08091F20290910F
:10439000F3020E94240F0E944F0980E008C0C1363A
:1043A000EDE5DE0771F2C53AFDE5DF0751F2DF9179
:1043B000CF9108958091F2028062C7309CE5D907C1
:1043C00009F493C08091F2028061C830DC4508F4A2
:1043D0008CC08091F202806488C08091F2028B7F51
:1043E000CD30FCE5DF0709F480C098F48091F2023B
:1043F0008E7FCB309CE5D90709F477C08091F2021B
:104400008C60CC30DC4508F470C08091F2028D7F66
:104410006CC08091F2028F7ECF30FCE5DF0709F49B
:1044200064C008F47BC08091F2028F7D5EC0CD3FF6
:104430009CE5D90709F47AC050F5C531FCE5DF07E2
:1044400009F486C098F48091F202837FC3319CE521
:10445000D90709F44AC008F471C00E944F0990912D
:10446000F202892F97FB87F980583FC0CB3FFCE5CC
:10447000DF0709F449C008F055C08091F30281605C
:10448000CA3FDC4509F081CF8093F3027ECFC13073
:10449000EDE5DE0709F468C0A8F4CF3F8CE5D80746
:1044A00009F452C08091F3028360C115DD4560F3C9
:1044B0008091F302982F909591708E7F892B90FBBD
:1044C00081F9E2CFC136EDE5DE0709F451C0C53A06
:1044D000FDE5DF0709F453C0C230DD4509F055CFD3
:1044E00080E043C08091F20281608093F2024DCF60
:1044F0008091F2028260F9CF8091F2028460F5CF60
:104500008091F2028860F1CF8091F3028260BCCF8B
:104510000E944F098091F2028068E7CF8091F202F9
:10452000877FE3CF8091F3028E7FAECF8091F3023D
:104530008D7FAACF8091F2028F7BD7CF0E944F0947
:104540008091F2028F77D1CF8091F3028C7F9CCF44
:104550008091F20282FB992790F921E0922790FB4B
:1045600082F990FB83F9C1CF81E00E94A90F0DCFA2
:104570009091F202892F8F7E94FF8061B6CF909147
:10458000F202892F8E7F90FF8160AFCF81E00FCF45
:104590008B3109F464C040F58B3071F078F48630CB
:1045A00009F446C020F4853059F180E00895873041
:1045B00009F447C08830C9F781E00895803109F4D3
:1045C0005CC068F48E3089F790918F02892F8B7FC1
:1045D00092FF846080938F0282FD4BC0EDCF8631C5
:1045E00059F3893149F3E1CF8A32F9F060F4873227
:1045F000B1F020F48E31C8F28D514BC08932A9F64A
:104600000E944304D9CF833440F48A3308F040C079
:10461000853329F0883381F2C8CF833431F681E0C5
:104620000E94A2090E944F09C7CF0E94A70FC4CFC2
:1046300080918F02807F80938F0281E08093D302EC
:10464000089590918F02892F8E7F90FF81608093D3
:104650008F0280FDB1CF817F80938F02ADCF90918B
:104660008F02892F8D7F91FF826080938F0281FF5F
:10467000A3CF80918F028160EFCF90918F02892F1D
:10468000877F93FF886080938F0283FDF2CF94CF62
:10469000895391E001C0990F8A95EAF7892FC0CF1D
:1046A00080E008950C945023CF93C82F8091D302BB
:1046B000882331F0813099F01092D30280E00DC050
:1046C0000E94030E8232D1F78C2F0E945023811159
:1046D00016C08C2F0E94C8228170CF9108950E942D
:1046E000030E823289F38C2F0E945223811105C060
:1046F000C43171F038F4CB3079F781E0EDCF81E04F
:1047000090E0EACFC93221F0C833B9F380E0E4CFBA
:104710001092D302FBCF83E0089590E1699FB0012E
:10472000112450E0440F551F640F751F90EE899FB0
:10473000600D711D1124CB01879608950F931F936F
:10474000CF93DF930E948D238C010E940432C82FE7
:10475000D0E0DC2FCC27C80101960E9404329E01D4
:10476000282BC901DF91CF911F910F9108950F93CD
:104770001F93CF93DF93122F032F0E948D23EC0101
:10478000602F0E941832612FCE010196DF91CF91E8
:104790001F910F910C941832AF92BF92CF92DF927B
:1047A000EF92FF921F93CF93DF938CEAC82E80E0A5
:1047B000D82ED0E07601C0E014C0F50125913491E7
:1047C000412F6C2F8D2F0E94B72382E0A80EB11CC1
:1047D0001F5F183091F780E1E80EF11CCF5FCE30FB
:1047E00019F0570110E0E9CFDF5F80EEC80ED11C51
:1047F000D33001F7DF91CF911F91FF90EF90DF90C1
:10480000CF90BF90AF900895EF92FF920F931F93B8
:10481000CF93DF93EC018A017C01E60EF71ECE01F7
:104820008796CE15DF0539F4DF91CF911F910F9157
:10483000FF90EF900895C03A22E0D20740F40E9422
:104840000432F80180830F5F1F4F2196E8CFF801F3
:104850001082F9CFCF92DF92EF92FF920F931F93C6
:10486000CF93DF937C016A018C01060F171FEC01C7
:10487000CE018796C017D10749F4DF91CF911F91E0
:104880000F91FF90EF90DF90CF900895C03A22E013
:10489000D20740F4FE01EE19FF09EC0DFD1D608109
:1048A0000E9418322196E4CF462F833038F47E30B0
:1048B00028F4683018F4672F0C949E2390E080E071
:1048C000089580E1089589E391E00895EF92FF92C1
:1048D0000F931F93CF93DF93EC018A017C01E60EC7
:1048E000F71ECE0189539D4FCE15DF0539F4DF91B8
:1048F000CF911F910F91FF90EF900895C93321E060
:10490000D20740F40E940432F80180830F5F1F4FEA
:104910002196E7CFF8011082F9CFCF92DF92EF9284
:10492000FF920F931F93CF93DF937C016A018C0159
:10493000060F171FEC01CE0189539D4FC017D107F9
:1049400049F4DF91CF911F910F91FF90EF90DF908D
:10495000CF900895C93321E0D20740F4FE01EE194B
:10496000FF09EC0DFD1D60810E9418322196E3CFF6
:10497000CF93DF93C7ECD2E060E0CE010E94183203
:104980002196C11584E0D807B9F7DF91CF9108953A
:10499000DF92EF92FF920F931F93CF93DF9300D09C
:1049A00000D0CDB7DEB7F82E8FE08F1540F08FEF37
:1049B00093E00E94043207EC12E08823C1F00F90CC
:1049C0000F900F900F90DF91CF911F910F91FF905B
:1049D000EF90DF900895011584E0180781F3C80176
:1049E0000E940432811101C0FA940F5F1F4FF11031
:1049F000F2CF19821A821B821C82DD24D3947801A3
:104A00008FEFE81AF80AC8010E94043289831A82DB
:104A10008823A9F29FEF980F933078F48A83D98284
:104A20000E5F1F4FC7010E9404328B83882339F227
:104A3000CE0101960E948505E2CF8701F9CFCF9381
:104A4000DF93EB0186319C4511F50E94030E9A819C
:104A5000992399F08A7A91E009F490E09093D40236
:104A6000811109C089E20E94DE0D0E94530E80E090
:104A7000DF91CF91089585E3F6CF8091D402811123
:104A800004C089E20E94E50DF0CF85E3FBCF81E011
:104A9000EFCF0F931F93CF93DF93C42FD22FFC013F
:104AA00082818823C9F04093D7020E9460299093A5
:104AB000D6028093D50280E28C0F883008F050C077
:104AC000C77081E001C0880FCA95EAF7DF91CF91E6
:104AD0001F910F910C94EA061091D702141335C060
:104AE0008091D5029091D6020E947829843B91054D
:104AF00060F5C0E2CD0F1D17B9F080E2810F88305C
:104B000040F4177081E001C0880F1A95EAF70E94FF
:104B1000F106C83048F481E09D2F977001C0880FDE
:104B20009A95EAF70E94EA06802F0E94E206C830B2
:104B3000B8F4D77081E001C0880FDA95EAF7DF9109
:104B4000CF911F910F910C94F10680E28C0F883069
:104B500038F4C77081E001C0880FCA95EAF7EFCF3B
:104B6000DF91CF911F910F9108950F939C01CB017D
:104B7000233F4CE5340759F1A8F4283DFCE53F07F5
:104B800001F1293D4CE53407D1F1273D3C4591F435
:104B900006E221EE41EE67ED7CE50E94492580E0CA
:104BA0000F910895253FFCE53F07E9F0B0F0263F5F
:104BB0003C45F9F0FC018281882339F11092D7023B
:104BC000EFCF07E225EE45EE68ED7CE5E6CF06E2A5
:104BD00021EE40EE63EF7CE5E0CF07E225EE44EE08
:104BE00064EF7CE5DACF06E221EE42EE65EF7CE58C
:104BF000D4CF07E225EE46EE66EF7CE5CECF08E2A5
:104C000021E045EE69ED7CE5C8CF81E0C9CF8EE1BA
:104C10004A9B02C08150E1F74A9BFECF08955A9803
:104C200080E28A95F1F75A9A0895FC013BE03A95A3
:104C3000F1F798E020E080E031E040E14A95F1F7BB
:104C4000880F4A9B02C08160232742E04A95F1F712
:104C5000000040E14A95F1F7915079F790E19A957B
:104C6000F1F799B132E03A95F1F7000040E14A9549
:104C7000F1F792FB992790F992272081920F908368
:104C80000895EF92FF920F931F93CF93DF930F92AC
:104C9000CDB7DEB719828C017C01E60EF11C0E1532
:104CA0001F0561F481E09981911180E00F90DF91FF
:104CB000CF911F910F91FF90EF9008950E940726CA
:104CC000CE0101960E941526F80181938F01E7CF4E
:104CD000529A5A9A089552985A9AEA9AE9E6F0E056
:104CE00080818F7C808308956150770B91E001C0B3
:104CF000990F6A95EAF720E031E0911108C022236C
:104D000091F05A9A80E28A95F1F75A980895492FBE
:104D1000482339F05A9A232740E24A95F1F79695AD
:104D2000ECCF5A98F9CF5A98EDCFFF920F931F937B
:104D3000CF93DF93EC018C01060F111DC017D10733
:104D400031F4DF91CF911F910F91FF900895F99069
:104D50000E940F2668E08F2D0E947426EFCF1F92CD
:104D60000F920FB60F921124EF92FF920F931F93A1
:104D70002F933F934F935F936F937F938F939F9363
:104D8000AF93BF93EF93FF93CF93DF930F92CDB782
:104D9000DEB719820E940726CE0101960E941526D1
:104DA000A82FA695A695A695282F229525709A2F0F
:104DB0009570290F922F937026952695920F98271C
:104DC00097708981982B09F075C0A53008F072C0E2
:104DD00080E18A95F1F75A9A529AB2E0BA95F1F7C2
:104DE00000C05A98EA2EF12CEAE0AE9FD0011124BF
:104DF000AB5FBE4F1896ED91FC9119973097B1F0CB
:104E00006091C5017091C60116962D913C9117973E
:104E1000260F371F13968D919C911497680F791F59
:104E200015964C91159712968C9109958AE08E9D56
:104E3000F0018F9DF00D1124EB5FFE4F658166231D
:104E400051F02091C5013091C60186819781820F72
:104E5000931F0E9495260E940F26F0E1FA95F1F724
:104E60005A9852985A9A80E18A95F1F78AE08E9D75
:104E700080018F9D100D11240B5F1E4FD8011296DB
:104E80006C911297662371F12091C5013091C60192
:104E900013968D919C91820F931F0E944126D801F9
:104EA000ED91FC91882311F088E001C082E08083BD
:104EB0000E9407260F90DF91CF91FF91EF91BF9154
:104EC000AF919F918F917F916F915F914F913F91A2
:104ED0002F911F910F91FF90EF900F900FBE0F90A9
:104EE0001F901895ED91FC91DFCF0F931F93CF93F7
:104EF000DF93EC0105970CF0A9C08AE08C9FF001CC
:104F00008D9FF00D1124EB5FFE4F80819181892BE5
:104F100009F49CC0F894529A5A9885E08A95F1F762
:104F200000008C2F869585709C2F9570890F982F87
:104F3000937086958695890F8E0193E0000F111F5F
:104F40009A95E1F7082B0E940F2600C068E0802F99
:104F50000E947426A0E1AA95F1F752985A9A4A9BAA
:104F600027C087E090E04A9925C08AE08C9F8001A5
:104F70008D9F100D11240B5F1E4FF8016581662374
:104F8000A1F12091C5013091C60186819781820FE0
:104F9000931F0E944126811128C0529A5A9AD80123
:104FA000ED91FC9182E08083789482E090E016C0DD
:104FB00000C0D5CF0197B9F4529A5A9A8AE08C9FD3
:104FC000F0018D9FF00D1124EB5FFE4F0190F081F9
:104FD000E02D81E08083789481E090E0DF91CF91B3
:104FE0001F910F91089500C0BECF0E940726B0E226
:104FF000BA95F1F75A98529AE0E1EA95F1F78AE00A
:105000008C9FF0018D9FF00D1124EB5FFE4F6281AC
:10501000662351F02091C5013091C60183819481AE
:10502000820F931F0E9495260E940F268AE08C9F74
:10503000F0018D9FF00D1124EB5FFE4F0190F08188
:10504000E02D1082789490E080E0C8CF84E090E07A
:10505000C5CF9093FD018093FC0108959093DE02EB
:105060008093DD0208950E94CA14811103C08091CB
:10507000D8020895E091DD02F091DE02309721F030
:105080000190F081E02D099480E00895E091DD0227
:10509000F091DE02309721F00280F381E02D099437
:1050A00008952091DB023091DC022817390771F056
:1050B0009093DC028093DB02E091DD02F091DE024E
:1050C000309721F00680F781E02D09940895209112
:1050D000D9023091DA022817390771F09093DA0279
:1050E0008093D902E091DD02F091DE02309721F049
:1050F0000084F185E02D099408959C012E5F3F4FB7
:10510000AC01485F5F4F80E02417350709F408952C
:10511000F90191919F019923B9F38F5FF5CF662330
:1051200049F0FC01329608962191261729F0E817DC
:10513000F907D1F780E0089581E008959C01FC0112
:1051400032969FEF80E04191461751F09F3F19F44E
:10515000411101C0982F8F5F8630A9F79F3F09F456
:105160000895290F311D97FD3A95F901628308953D
:10517000FC01329608962191261303C0DF01119796
:105180001C92E817F907B9F708950C949E280C941F
:10519000B828029626E0FC0111922A95E9F70895B5
:1051A00008950C94D028811105C081E08093DF021E
:1051B0000C94D12882E0FACF83E08093DF020C9434
:1051C000D1280C94D32881E08093DF020C94D1285D
:1051D0000C94E328089580917D03843031F10E947E
:1051E0003F041092E00288E190E020E40FB6F894CA
:1051F000A895809360000FBE2093600083B7817FE5
:10520000846083BF83B7816083BF7894889583B7B8
:105210008E7F83BF0FB6F894A89580916000886157
:1052200080936000109260000FBE08950895089565
:10523000CF930E9416290E9439140E941729C0E0BA
:105240008C2F0E940013811105C0CF5FCE30C1F7B3
:10525000CF91089581E0FCCF0E944F090C94B304D4
:105260001F921FB61F9211248F939F93AF93BF93EA
:105270008091E002811113C08091750390917603B3
:10528000A0917703B09178034196A11DB11D809341
:10529000750390937603A0937703B0937803BF913F
:1052A000AF919F918F911F901FBE1F90189582E024
:1052B00084BD93E095BD9AEF97BD80936E000895ED
:1052C0002FB7F8948091750390917603A09177039E
:1052D000B09178032FBF08952FB7F89460917503AC
:1052E0007091760380917703909178032FBF089592
:1052F0009C014FB7F8948091750390917603A0912B
:105300007703B09178034FBF821B930B0895CF9220
:10531000DF92EF92FF922FB7F894C0907503D09070
:105320007603E0907703F09078032FBFA7019601F2
:10533000261B370B480B590BCA01B901FF90EF90A0
:10534000DF90CF90089578941F921FB61F9211247A
:105350008F939F93AF93BF93809175039091760342
:10536000A0917703B09178030196A11DB11D8093A0
:10537000750390937603A0937703B0937803BF915E
:10538000AF919F918F911F901FBE1F90189587E737
:1053900097E7909301088093000888E19AE00FB6A0
:1053A000F894A895809360000FBE90936000FFCFA3
:1053B0008091EC0208950895CF93DF93EC0181E092
:1053C0008093E9008FEF9091E800815095FD06C031
:1053D00095ED9A95F1F700008111F5CF8091E800E5
:1053E00085FF14C050E040E068E070E0CE010E940C
:1053F0004D2C8091E8008E778093E80088E0FE01D4
:10540000A4EEB2E001900D928A95E1F7DF91CF9181
:1054100008958093E1027093E3026093E202809129
:105420007D038430F9F48093E9008FEF9091E800D8
:10543000815095FD06C095ED9A95F1F70000811118
:10544000F5CF8091E80085FF0DC050E040E063E0BB
:1054500070E081EE92E00E944D2C8091E8008E7702
:105460008093E8000895BC0184E00C94092ABC01F3
:1054700083E00C94092A0895CF93FC01603221F552
:1054800080917D03843001F5C091E900CF702091B7
:10549000EC00922F917020FD90E8C92B82E0809360
:1054A000E9008091E80080FF0CC050E040E060E23D
:1054B00070E0CF010E944D2C8091E8008E778093A0
:1054C000E800CF70C093E900CF91089580917C03EC
:1054D000811109C00E942C2E0E94892E8091E20029
:1054E00084608093E200089510927C0308950C94E8
:1054F000E3286091790381E0611101C080E00C94A0
:10550000DC2890917D0381E0943009F080E0609187
:1055100079030C94E12842E061EC81E00E94A82D1F
:1055200042E261EC84E00E94A82D42E261EC82E05C
:105530000E94A82D42E260EC83E00E94A82D909189
:105540007D0381E0943009F080E0609179030C9450
:10555000D32880917F03833009F462C030F4813016
:10556000D9F1823009F49EC008958A3009F48AC0C6
:105570008B3009F470C0893009F051C080917E03EE
:10558000813209F04CC0809182039091830300978F
:1055900019F0029709F043C08091E800877F80935B
:1055A000E8008091E80082FF36C09091F30080917E
:1055B000F200029731F48091F100813011F08630D1
:1055C00021F48091F1008093EC028091E8008B77C8
:1055D0008093E8000C94DC2D80917E03813AF9F4ED
:1055E0008091E800877F8093E8008091820390910A
:1055F0008303892B61F468E084EE92E070E00E94FE
:10560000EB2C8091E8008B778093E800089560E0B0
:1056100090E080E0F3CF80917D038111C2CF0895A7
:1056200080917E03813AD9F7809182039091830320
:10563000892BA9F78091E800877F8093E80080910B
:10564000E80080FFFCCF80914C018093F1008091B5
:10565000E8008E77BDCF80917E03813201F7809183
:10566000820390918303892BD1F68091E800877F94
:105670008093E8000E94DC2D8091800380934C0190
:105680000C944F0980917E03813249F68091E800A5
:10569000877F8093E8000E94DC2D809181038093B6
:1056A000ED02089580917E03813A09F0B8CF809190
:1056B000E800877F8093E8008091E80080FFFCCFBE
:1056C0008091ED02C2CF84B7877F84BF0FB6F89474
:1056D000A8958091600088618093600010926000BE
:1056E0000FBE80E890E00FB6F8948093610090932D
:1056F00061000FBE0C94E8280E942C2E0E94892E77
:10570000E2EEF0E080818460808378940C94123122
:1057100080E491E00C942E2880917D038530A9F4DB
:1057200080917D03853011F00C942C290E94EB2888
:1057300080917B038823A1F30E941829882381F399
:105740000E94372C0E944F09EBCF0895CF93DF932F
:10575000CDB7DEB7A0970FB6F894DEBF0FBECDBFB2
:1057600080917D03843009F583E08093E900809186
:10577000E80082FF1AC08091E80090E085FF09C030
:1057800050E040E060E270E0CE0101960E949C2C67
:1057900091E08091E8008B778093E800992329F0CD
:1057A00060E2CE0101960E94B420A0960FB6F89454
:1057B000DEBF0FBECDBFDF91CF9108950C94E02BDB
:1057C000292F33272330310521F168F421303105A9
:1057D00009F443C02230310509F444C090E080E070
:1057E00030E020E026C02132310551F1223231056E
:1057F000A9F76330710590F7FB01EE0FFF1FE15130
:10580000FE4F2081318164517E4FFB01808190E009
:1058100010C099278130910581F0009729F00297F7
:10582000E9F6E3E1F6E002C0E3E4F6E0849190E01B
:105830009F01FA01318320830895E3E2F6E0F6CF79
:105840006330710558F6660F771FFB01EB50FE4F72
:105850002081318189E090E0ECCF82E190E022EA82
:1058600036E0E7CF8BE590E027E436E0E2CF80E159
:1058700089BD82E189BD09B400FEFDCF8091D800C9
:105880008F7D8093D8008091E00082608093E0005B
:105890008091E00081FDFCCF0895AF92BF92CF923E
:1058A000DF92FF920F931F93CF93DF936C01EB0175
:1058B0008A010E94FB2DF82E811123C001151105CC
:1058C00039F0F80180819181C81BD90BC80ED91E0F
:1058D000B12CA12C2097A9F08091E80085FD22C071
:1058E0008091E8008E778093E80001151105A1F002
:1058F000F80180819181A80EB91EB182A08285E055
:10590000F82E8F2DDF91CF911F910F91FF90DF9097
:10591000CF90BF90AF9008950E94FB2D8823D1F2C5
:10592000F82EEFCFF60181916F018093F10021975E
:10593000FFEFAF1ABF0ACECFAF92BF92CF92DF92E6
:10594000FF920F931F93CF93DF936C01EB018A01BA
:105950000E94FB2DF82E811123C00115110539F08D
:10596000F80180819181C81BD90BC80ED91EB12CBA
:10597000A12C2097A9F08091E80085FD22C080919C
:10598000E8008B778093E80001151105A1F0F8017C
:1059900080819181A80EB91EB182A08285E0F82E87
:1059A0008F2DDF91CF911F910F91FF90DF90CF90BE
:1059B000BF90AF9008950E94FB2D8823D1F2F82E5E
:1059C000EFCF8091F100F60181936F012197FFEFF6
:1059D000AF1ABF0ACECFFC0180918403909185035A
:1059E00086179707A0F06115710529F49091E800DA
:1059F0009E779093E80090E06115710551F4911144
:105A000008C08091E80082FF34C080E00895BC01A6
:105A1000F2CF80917D038823C1F18530C1F180915F
:105A2000E80083FD30C08091E80082FDEACF8091DC
:105A3000E80080FFE1CF8091F3002091F200382F41
:105A40006115710519F02830310558F091E02830C2
:105A5000310509F090E02091E8002E772093E800CE
:105A6000CBCF81918093F100615071092F5F3F4F3F
:105A7000E7CF80917D03882341F0853041F080910C
:105A8000E80083FFBECF81E0089582E0089583E0BF
:105A90000895FC01809184039091850386179707F0
:105AA000A0F06115710529F48091E8008E7780934C
:105AB000E80090E06115710551F4911108C08091E2
:105AC000E80082FF35C080E00895BC01F2CF8091EC
:105AD0007D038823C9F18530C9F18091E80083FDF9
