:100000000C9449050C9490050C9490050C94900563
:100010000C9490050C9490050C9490050C9490050C
:100020000C9490050C9490050C949B1D0C94571DFA
:100030000C94EC1E0C9490050C9490050C94900577
:100040000C9490050C9490050C9490050C949005DC
:100050000C9490050C94C81E0C9490050C9490057B
:100060000C9490050C9490050C9490050C949005BC
:100070000C9490050C9490050C9490050C949005AC
:100080000C9490050C9490050C9490050C9490059C
:100090000C9490050C9490050C9490050C9490058C
:1000A0000C9490050C9490050C9490050631FF0972
:1000B00074A1010975150026FF00952075088102BD
:1000C0000976150026FF00952075089102C00501EC
:1000D0000980A101850319012AB700150126B7007F
:1000E000950175108100C0050C0901A10185041955
:1000F000012AA002150126A002950175108100C0F9
:1001000005010906A1018506050719E029E7150083
:1001100025019508750181020507190029EF1500D1
:10012000250195F07501810205081901290595053C
:1001300075019102950175039101C00660FF096187
:10014000A1010962150026FF0095207508810209AA
:1001500063150026FF00952075089102C00501096E
:1001600006A101050719E029E71500250195087585
:100170000181029501750881010507190029FF1504
:100180000026FF009506750881000508190129055C
:10019000950575019102950175039101C00000005C
:1001A000000000000000000000000000000000004F
:1001B000000000000000000000000000000000003F
:1001C000007E0F00D4FFFFFFC70000007800000092
:1001D00000000000002A2B280000000000000000A2
:1001E000000000000000000029000000002C1E3468
:1001F00020212224342627252E362D3738271E1F6E
:10020000202122232425263333362E37381F040598
:10021000060708090A0B0C0D0E0F10111213141506
:10022000161718191A1B1C1D2F3130232D350405E4
:10023000060708090A0B0C0D0E0F101112131415E6
:10024000161718191A1B1C1D2F3130354C44454206
:1002500055473A2064697361626C65642E0A0044F4
:10026000454255473A20656E61626C65642E0A000E
:100270003F00433E20004F6E6573686F743A206103
:1002800063746976653A2025640A000A00253032D5
:100290005820006B6579626F6172645F7265706F80
:1002A00072743A20004B6579626F617264207374D6
:1002B0006172742E0A000A002530313662003A203D
:1002C0000025303258000A722F6320303132333427
:1002D00035363738394142434445460A000A00253D
:1002E000303258006B6579626F6172645F73657458
:1002F0005F6C65643A20005B735D006B65796D61CE
:10030000705F636F6E6669672E7261773A20253081
:1003100032580A2E737761705F636F6E74726F6C00
:100320005F636170736C6F636B3A2025750A2E638F
:100330006170736C6F636B5F746F5F636F6E747209
:100340006F6C3A2025750A2E737761705F6C637449
:100350006C5F6C6775693A2025750A2E737761703A
:100360005F7263746C5F726775693A2025750A2E37
:10037000737761705F6C616C745F6C6775693A204C
:1003800025750A2E737761705F72616C745F726796
:1003900075693A2025750A2E6E6F5F6775693A2078
:1003A00025750A2E737761705F67726176655F6588
:1003B00073633A2025750A2E737761705F626163FB
:1003C0006B736C6173685F6261636B7370616365AB
:1003D0003A2025750A2E6E6B726F3A2025750A0039
:1003E00064656275675F636F6E6669672E726177B9
:1003F0003A20253032580A2E656E61626C653A20CB
:1004000025750A2E6D61747269783A2025750A2E59
:100410006B6579626F6172643A2025750A2E6D6F83
:100420007573653A2025750A006565636F6E6669A8
:10043000673A0A64656661756C745F6C61796572B0
:100440003A2025750A000A092D204D61676963204D
:100450002D0A443A094465627567204D65737361DE
:10046000676520546F67676C650A583A094D617477
:10047000726978204465627567204D6F6465205409
:100480006F67676C65202D2053686F77206B6579E7
:100490007072657373657320696E206D6174726923
:1004A0007820677269640A4B3A094B6579626F611B
:1004B000726420446562756720546F67676C6520BD
:1004C0002D2053686F77206B657970726573732088
:1004D0007265706F72740A4D3A09446562756720DF
:1004E0004D6F75736520546F67676C650A563A09DE
:1004F00056657273696F6E0A533A09537461747565
:10050000730A433A09416374697661746520436FE5
:100510006E736F6C65204D6F64650A46312D4631F0
:10052000303A0953776974636820746F204C61799D
:10053000657220302D392028463130203D204C3046
:10054000290A302D393A0953776974636820746F2A
:10055000204C6179657220302D390A475241564549
:100560003A0953776974636820746F204C61796528
:100570007220302028616C7465726E617465290A7E
:10058000423A094A756D7020746F20426F6F746C27
:100590006F616465720A4553433A094A756D70206C
:1005A000746F20426F6F746C6F6164657220286194
:1005B0006C7465726E617465290A453A09507269F6
:1005C0006E7420454550524F4D2053657474696ECA
:1005D00067730A4253504143453A09436C6561725F
:1005E00020454550524F4D0A4E3A094E4B524F202E
:1005F000546F67676C650A000A092D20436F6E739C
:100600006F6C65202D0A4553432F713A0971756946
:10061000740A000A092D2056657273696F6E202DC9
:100620000A5649443A2030783533343228537061C1
:1006300063656D616E29205049443A203078353029
:1006400034422850616E63616B6529205645523AE9
:10065000203078303030310A4255494C443A20201D
:10066000285365702031372032303231290A4F50FB
:1006700054494F4E533A204C554641204558545208
:10068000414B455920434F4E534F4C4520434F4D0E
:100690004D414E44204E4B524F204C544F2034304D
:1006A00039360A4743433A20382E332E30204156FC
:1006B000522D4C4942433A20322E302E30204156A2
:1006C000525F415243483A20617672350A000A0966
:1006D0002D20537461747573202D0A686F73745FD5
:1006E0006B6579626F6172645F6C65647328293A27
:1006F00020253032580A6B6579626F6172645F70D1
:10070000726F746F636F6C3A20253032580A6B65D4
:1007100079626F6172645F69646C653A202530327A
:10072000580A6B65796D61705F636F6E6669672EDD
:100730006E6B726F3A20253032580A74696D65729B
:100740005F72656164333228293A202530386C584D
:100750000A003F004E4B524F3A206F66660A004E29
:100760004B524F3A206F6E0A000A6D6F7573653AEF
:10077000206F66660A000A6D6F7573653A206F6EAA
:100780000A000A6B6579626F6172643A206F66666F
:100790000A000A6B6579626F6172643A206F6E0AB3
:1007A000000A6D61747269783A206F66660A000A01
:1007B0006D61747269783A206F6E0A000A6465622E
:1007C00075673A206F66660A000A64656275673A63
:1007D000206F6E0A000A0A4A756D70696E67207490
:1007E0006F20626F6F746C6F616465722E2E2E20A5
:1007F00000433E2000436C656172696E6720454589
:1008000050524F4D0A004C25640A00290014001A6A
:10081000000800150017001C0018000C001200133F
:10082000002A002B0004001600070009000A000B34
:10083000000D000E000F0034003300E1001D001B0E
:1008400000060019000500110010003600370052A4
:10085000002800E000E200E300035101512C002CCD
:100860000002513800500051004F0035021E021F97
:10087000022002210222022302240225022602274C
:10088000022A000100010001000100010001000135
:100890000001002D022E02010031020100010001C1
:1008A00000010001000100010001002F023002A937
:1008B0000001000100010001000100010001000130
:1008C00000010038020100AA00010035001E001FCF
:1008D00000200021002200230024002500260027FC
:1008E000002A0001000100010001000100010001D7
:1008F0000001002D002E0001003100010001000167
:1009000000010001000100010001002F003000A9DA
:1009100000010001000100010001000100010001CF
:1009200000010001000100AA000100005C3A003B48
:10093000003C003D003E003F0040004100420043BB
:10094000000100010001000100010001000100019F
:100950000001000100440045000100010001000108
:10096000000100010001000100010001000100017F
:10097000000100010001000100010001000100016F
:1009800000010001000100010001006164645F6B6F
:1009900065795F6269743A2063616E2774206164CF
:1009A000643A20253032580A0064656C5F6B6579C3
:1009B0005F6269743A2063616E27742064656C3AE3
:1009C00020253032580A005B435D005B445D005BCC
:1009D000535D005B575D005B525D0009027B0004C4
:1009E0000100A0FA0904000001030101000921111E
:1009F0000100012240000705810308000A090401E3
:100A00000002030000000921110100012222000759
:100A100005820320000107050303200001090402E9
:100A2000000103000000092111010001226D0007EF
:100A300005840320000A09040300020300000009E2
:100A40002111010001222200070585032000010772
:100A500005050320000112010002000000084253B6
:100A60004B500100010200011003500061006E00B4
:100A7000630061006B00650000001203530070000A
:100A80006100630065006D0061006E0000000403FA
:100A9000090411241FBECFEFDAE0DEBFCDBF04B6DC
:100AA00003FE27C08091390290913A02A0913B0247
:100AB000B0913C028730904BA740B04BD1F41092DC
:100AC000390210923A0210923B0210923C0214BE7C
:100AD00084B7877F84BF0FB6F894A8958091600093
:100AE000886180936000109260000FBEE0E0F8E340
:100AF000099511E0A0E0B1E0EEE3F7E402C0059053
:100B00000D92A236B107D9F722E0A2E6B1E001C00A
:100B10001D92A933B207E1F70E94131F0C942723FB
:100B20000C940000FF93EF93E0916201F091630158
:100B3000309709F00995EF91FF910895FC01859197
:100B4000803011F0EFDFFBCF0895FF27E0E230E2C5
:100B500047FF0CC0419597FF09C0EDE26095709585
:100B600080959095611D711D811D911D27FF02C00B
:100B7000219530E350E2AA27660F771F881F991F3F
:100B8000AA1FA41710F0A41B63955A95A9F7AA30C1
:100B900008F0A95FA05DAF93F3956115710581051C
:100BA000910541F7ED3211F4EF93F395F21718F434
:100BB0003F93F395FBCF8F91B5DFFA95E1F7089559
:100BC000E991F9918591803021F0853219F0AADF01
:100BD000F9CF089520E0E89455915532C1F3503390
:100BE00011F4689455915A3348F4505390F3220FFE
:100BF000022E220F220F200D250FF4CF0EF4219587
:100C000089919991533619F3533729F1533559F195
:100C1000BC0188279927E8945C3621F48991999141
:100C200068945591543639F446EF7EF077FF0DC045
:100C30008FEF9FEF0AC055374AE039F0583540E151
:100C400021F0523642E009F00895FF93EF937DDFE3
:100C5000EF91FF91B7CFFF93EF93FC01819180302B
:100C6000B9F360DFFBCFFF93EF9368DFF1CFDF9342
:100C7000CF93CDB7DEB72596A3DFCF91DF9108954F
:100C8000E8EDF0E080818E7F80831092E200109288
:100C9000DA001092E100A0EEB0E08C9181608C93BC
:100CA00080818F77808319BCA7EDB0E08C918E7F17
:100CB0008C9380818F7E8083109202020895209110
:100CC000E4003091E50095E6A9012091EC00822F27
:100CD000817020FF06C08091E80080FF06C080E0A0
:100CE00008952091E80022FD1AC0809127028823F0
:100CF00089F0853089F08091EB0085FD0FC020914F
:100D0000E4003091E50042175307F9F29150E1F603
:100D100084E0089582E0089583E0089581E00895D5
:100D2000EF92FF920F931F93CF937C018B010E9450
:100D30005F06C82F811117C08091E80085FD0BC0A8
:100D40008091E8008E778093E8000E945F068823F8
:100D500099F3C82F08C0F70181917F018093F100BA
:100D60000150110949F78C2FCF911F910F91FF90DE
:100D7000EF9008958091290287FF13C08091E800C9
:100D800082FF06C08091E8008B778093E80004C062
:100D9000809127028111F2CF089580912702882344
:100DA000D9F38091E80080FFF8CF8091E8008E773A
:100DB000ECCF982F9093E900242F762F50E08917DD
:100DC00031F07091EC002091ED005091F00021FD88
:100DD00007C09F5F973071F78093E90081E0089525
:100DE0003091EB003E7F3093EB003091ED003D7F82
:100DF0003093ED003091EB0031603093EB00709355
:100E0000EC002093ED005093F0002091EE0027FDC0
:100E1000E0CF80E00895CF92DF92EF92FF920F93A0
:100E20001F93CF93DF93C8EDD0E088818F7E8883B6
:100E3000E7EDF0E080818160808384E082BF81E023
:100E40008093020288818E7F888302EE10E0F80191
:100E500010821092DA0081EEC82ED12CF601108299
:100E600088818F77888388818068888388818F7D57
:100E7000888319BC10922702109228021092260231
:100E80001092250290EEE92EF12CF70180818B7FE4
:100E9000808388818160888342E060E080E00E94F6
:100EA000D906F60180818E7F8083F8018081816080
:100EB0008083808188608083F70180818E7F80833A
:100EC000888180618883DF91CF911F910F91FF907E
:100ED000EF90DF90CF900895FC0180912F029091C8
:100EE000300286179707A0F06115710529F49091DB
:100EF000E8009E779093E80090E06115710551F449
:100F0000911108C08091E80082FF34C080E008950C
:100F1000BC01F2CF809127028823C1F18530C1F155
:100F20008091E80083FD30C08091E80082FDEACF27
:100F30008091E80080FFE1CF8091F3002091F200E2
:100F4000382F6115710519F02830310558F091E0FE
:100F50002830310509F090E02091E8002E772093A9
:100F6000E800CBCF81918093F100615071092F5F30
:100F70003F4FE7CF80912702882341F0853041F031
:100F80008091E80083FFBECF81E0089582E008955C
:100F900083E008950895089580910402089587E7F5
:100FA00097E7909301088093000888E19AE00FB6D4
:100FB000F894A895809360000FBE90936000FFCFD7
:100FC0002FB7F8948091310290913202A0913302B0
:100FD000B09134022FBF08952091F6013091F701AE
:100FE0002817390771F09093F7018093F601E0918B
:100FF000F401F091F501309721F00084F185E02DA6
:10100000099408952091F2013091F30128173907CE
:1010100071F09093F3018093F201E091F401F0916B
:10102000F501309721F00680F781E02D09940895AD
:10103000E091F401F091F501309721F00190F081F9
:10104000E02D099480E00895F894E82FE295EF7080
:10105000F0E031A1282F2F7081E090E001C0880FCF
:101060002A95EAF7982F9095932391A392A1892B23
:1010700082A3789408959091FA0192FF06C0282FD8
:1010800028712830F9F4877F846093FF06C0282FE9
:1010900028712831F1F4877E84612091FB0120FFC3
:1010A00006C0382F38713830D9F4877F816021FF2E
:1010B00006C0282F28712831D1F4877E816194FDE4
:1010C000877E0895282F24712430F9F68B7F88605D
:1010D000DCCF282F2471243101F78B7E8861DDCF8E
:1010E000382F3171313019F78E7F8860E0CF282F8B
:1010F0002171213121F78E7E8861E1CFCF93DF937B
:10110000EC0182389105A9F1D8F58133910509F4F4
:1011100096C048F58932910509F48AC08A9709F486
:1011200095C0C11522E5D20708F0B6C0C11531E55A
:10113000D30708F026C1C83ED10508F09CC0C03EC8
:10114000D10560F5C83AD10508F087C0C53AD10588
:1011500008F0EFC0C130D10509F12097F9F0C43093
:10116000D105E0F440C08533910509F45AC0C99710
:10117000C1F68091FA01837089F0C0EED0E00EC014
:10118000833E910599F170F4803E910501F1823E14
:10119000910539F68091FA0182FD21C0CE01DF91DF
:1011A000CF910895863E910561F1873E910571F1D9
:1011B000843E910509F0B5CF8091FB0181FFEECF10
:1011C0008091FA01C7EED0E084FD0DC0E7CF809199
:1011D000FA0180FD07C19091FB0190FFDFCFC3EEC4
:1011E000D0E084FFDBCFD0E0C0E0D8CF8091FA011F
:1011F00082FDFBC09091FB0190FDBFCF84FFCECF5D
:10120000F2CF8091FA0183FDDDCFC8CF8091FA0142
:1012100083FDEEC09091FB0191FFF0CFC4EED0E0D2
:10122000BDCF8091FA0185FFB9CFC9E2D0E0B6CF3A
:101230008091FA0185FFB2CFC5E3D0E0AFCF8091B6
:10124000FA0186FFABCFCAE2D0E0A8CF8091FA01C5
:1012500086FFA4CFC1E3D0E0A1CFCF3BD10518F6E4
:10126000C85AD0E0CC0FDD1FC05FDE4F0990D88197
:10127000C02DD46493CFC11540E5D40708F064C0F5
:10128000C11580E4D80708F05CC0CE019A9581159D
:101290009F4108F483CFA7CFC11536E5D30718F5D2
:1012A000C11545E5D40708F084C0C11584E5D80709
:1012B00008F07AC09C2F969596959E01237033274F
:1012C000C115D34508F462C0C1E0D0E002C0CC0F24
:1012D000DD1F2A95E2F730E2939FC0011124C82B4D
:1012E000D92BDA685BCFC1158AE5D80778F4C11528
:1012F00099E5D90708F068C0C11528E5D20708F4B8
:1013000072CFDC2FCC27C06FD06A48CFCE01905669
:101310008115904208F067CF8D2F8F710E943B0896
:1013200090E0982F882788279F719C012C2BE9013A
:1013300049C0C55AD0E0C35FDE4FC881D0E0D06459
:101340002DCFDF70D06A2ACFCE01E4E09695879545
:10135000EA95E1F783702C2F26952695237040E2BD
:10136000249F90011124382B8C2F8370C1E0D0E092
:1013700002C0CC0FDD1F8A95E2F7C22BD32BDC68AD
:101380000DCFDC2FCC27C16FD06A08CFC1E0D0E0F1
:1013900002C0CC0FDD1F2A95E2F720E2929FC00128
:1013A0001124C82BD92BEBCFDC2FCC27C46FD06AEC
:1013B000F5CE8C2F0E943B08C82FD0E0DC2FCC2725
:1013C000CC27DF71D062EACE8C2F8F700E943B0851
:1013D00034E0D695C7953A95E1F7CF709C2FEC0194
:1013E000D069DCCEC9E3D0E0D9CEC2EED0E0D6CE13
:1013F000C6EED0E0D3CE8091D30181111092D301FB
:1014000008958091CE0190919D01981301C0089597
:101410008F5F8770FACF2CE0929F800D1124982F58
:10142000977086958695869523E0829FF00111241A
:10143000EB57FE4F50E040E080E0219130E0092E74
:1014400002C0369527950A94E2F721703327042EBF
:1014500001C0220F0A94EAF7822B4F5F5F4F43309F
:10146000510559F708952CE0929F800D1124982F73
:10147000977041E001C0440F9A95EAF786958695EA
:10148000869593E0899FF0011124EB57FE4F90E081
:1014900080E070E05191DF0111979B01082E02C09E
:1014A000369527950A94E2F7217021952527242364
:1014B00025272C9301968330910561F70895829535
:1014C00090E09C01220F331F220F331F2C7C959537
:1014D0008795959587958373282B30E0C901880FF0
:1014E000991F8A7A359527952575822B08959FB780
:1014F000F894109200029FBF90912702943009F057
:1015000048C02091E9002F703091EC00932F91702A
:1015100030FD90E8922B25E02093E9002091EB002C
:1015200020FF34C02091EE0027FF30C02091FF0142
:10153000222321F02091E80025FF28C01092FF010E
:1015400026E03091E80035FF14C08093F1008091CF
:10155000E80085FD27C08091E80080FFFCCF8091E6
:10156000E8008E778093E8009F709093E90080E018
:10157000089530912702343049F43091EB0035FD65
:1015800005C0215041F481E08093FF019F7090934A
:10159000E9008FEF0895EFE9FFE03197F1F700C020
:1015A0000000CFCF8FB7F89421E0209300028FBFC7
:1015B000DBCF8093FC017093FE016093FD0180916D
:1015C00027028430F9F48093E9008FEF9091E800CE
:1015D000815095FD06C095ED9A95F1F700008111B7
:1015E000F5CF8091E80085FF0DC050E040E063E05A
:1015F00070E08CEF91E00E9490068091E8008E7779
:101600008093E8000895BC0184E00C94D90ABC01E1
:1016100083E00C94D90ACF93DF93EC0180910C0105
:101620008823B1F18091FA0187FF32C060E284E043
:101630008093E9008FEF9091E800815095FD06C0FE
:1016400095ED9A95F1F700008111F5CF8091E800B2
:1016500085FF1BC080910C0170E050E040E08111DB
:1016600004C050E040E068E070E0CE010E949006C7
:101670008091E8008E778093E80080E2FE01A5E08B
:10168000B2E001900D928A95E1F7DF91CF91089534
:1016900068E081E0CDCF20910C01222351F120910F
:1016A000FA0127FF26C0E62FE695E695E695EE318E
:1016B00078F4E80FF92FF11D677021E030E001C0E8
:1016C000220F6A95EAF720958281282322830895C4
:1016D0008091F80180FF19C01F926F9389EA99E009
:1016E0009F938F930E9437060F900F900F900F904B
:1016F0000895FC01329608962191621303C0DF0120
:1017000011971C92E817F907B9F7089520910C0179
:10171000222349F12091FA0127FF25C0E62FE69503
:10172000E695E695EE3170F4E80FF92FF11D67703C
:1017300021E030E001C0220F6A95EAF78281822B16
:10174000828308958091F80180FF1EC01F926F93DD
:101750008BE899E09F938F930E9437060F900F902C
:101760000F900F900895FC0132962FEF30E04191D9
:10177000641751F02F3F19F4411101C0232F3F5F2F
:101780003630A9F72F3F09F40895820F911D27FDE8
:101790009A95FC0162830895EF92FF920F931F9335
:1017A000CF93DF938091D2019091D101892B9091B9
:1017B000D001892B809364019091D3019923B1F0DA
:1017C000892B8093640180910C01882309F45DC00A
:1017D0008091FA0187FF59C08EE1E6E6F1E090E0E2
:1017E000815008F054C091110E94FB09E091F4016E
:1017F000F091F501309709F450C080910C018823D5
:1018000059F08091FA0187FF07C0809164018093AD
:10181000650186E0809364010280F381E02D84E617
:1018200091E009958091F80182FF37C080FF04C0E4
:1018300083E992E00E949E05C4E6D1E08CE6E82EA2
:1018400081E0F82E0DE812E08091F80180FF0BC0D6
:1018500088811F928F931F930F930E9437060F90DA
:101860000F900F900F902196EC16FD0669F780916E
:10187000F80180FF12C08BE892E0DF91CF911F91B9
:101880000F91FF90EF900C949E0586E0A6CF2191DA
:10189000222309F4A5CF9F5FA3CFDF91CF911F91A2
:1018A0000F91FF90EF90089590E080E00E94020871
:1018B00090E080E00E94EC071092D1011092D001DC
:1018C0000C94CC0B809338020C94540C8091380209
:1018D000982F9670963019F488600C94620C877F6C
:1018E000FCCF21E030E001C0220F8A95EAF7209575
:1018F0008091380282230C94620C9091CF018095E4
:1019000089238093CF01282F277039F4282F082EA0
:10191000000C330B9217130621F49091FB0192FFF8
:1019200007C08595859585950E94710C1092CF0111
:10193000089521E030E001C0220F8A95EAF78091F6
:101940003802822B0C94620C8093D4010C94540CBA
:10195000882341F080959091D20189238093D20110
:101960000C94CC0B0895882339F09091D201982BD8
:101970009093D2010C94CC0B0895882379F19CEFBD
:10198000980F913A38F4682F84E691E00E944B0B4F
:101990000C94CC0B90E2980F983088F4877021E07B
:1019A00030E0A90102C0440F551F8A95E2F7CA0131
:1019B00080959091D20189238093D201E9CF9BE554
:1019C000980F933020F490E080E00C940208885A3D
:1019D000873120F490E080E00C94EC070895CF93D9
:1019E000DF93C7EAD1E060E0CE010E94E6222196B3
:1019F000C11584E0D807B9F7DF91CF9108956F92B0
:101A00007F928F929F92AF92BF92CF92DF92EF928E
:101A1000FF920F931F93CF93DF938BE0C82E88E044
:101A2000D82E9FE9E92EF12CE701C056D1093601E5
:101A30001BC0F50185909490692DC8010E94E62293
:101A4000682DC80101960E94E62282E0A80EB11C12
:101A50000E5F1F4FC017D10761F788E1680E711C38
:101A60006896CE15DF0529F08E0108511109530142
:101A7000E0CF7E0180E6E80EF11C80E6C80ED11CA6
:101A80008FE1E81682E0F80679F6DF91CF911F9199
:101A90000F91FF90EF90DF90CF90BF90AF909F900D
:101AA0008F907F906F900895CF93C82F6FEF811123
:101AB00061E283E290E00E94E6226FEFC11169E0EB
:101AC00084E290E00E94E6226FEFC11167E185E2B7
:101AD00090E0CF910C94E62280E00E94540D60E0EB
:101AE00086E290E00E94E6220E94FF0C0E94EF0C2A
:101AF00081E00C94540DCF93DF93D82FC091FB015C
:101B0000C2FB882780F98D17F9F0D0FBC2F9C0938A
:101B1000FB016091FA0184E090E00E94E6226C2FC4
:101B200082E290E00E94E6228091F80180FF0CC0E2
:101B30001F92DF9386E792E09F938F930E94370670
:101B40000F900F900F900F90DF91CF9108950F930A
:101B50001F93CF93DF93C42FD0E0CC0FDD1F28E17C
:101B6000629FC00DD11D112430E6839FC00DD11D91
:101B70001124CE0187960E94D822082F10E0102F42
:101B80000027CE0188960E94D8229801282BC901EF
:101B9000DF91CF911F910F910895462F843038F433
:101BA000743028F46C3018F4672F0C94A70D90E073
:101BB00080E00895CF92DF92FF920F931F93CF930F
:101BC000DF936C01009138028091D401082BC7E0AB
:101BD000D0E010E0FC2EC8010C2E02C09595879530
:101BE0000A94E2F780FD0CC02197A0F7F12C8F2D0D
:101BF000DF91CF911F910F91FF90DF90CF900895CB
:101C0000B6018C2F0E94CD0D0E947E08019761F3D2
:101C1000EECFCF93DF93EC010E94DA0DBE010E945C
:101C2000CD0DDF91CF910C947E08FC0180819181D4
:101C30000E94090E292F2F7092959F7092509E300E
:101C400078F4E92FF0E0E75DFC4D0C94CB22803F67
:101C500019F020F4883E20F481E00895843FE1F3F8
:101C600080E00895883EC0F3813FD1F7F5CF822F01
:101C7000869586958695089583E290E00E94D82205
:101C8000813289F484E290E00E94D822893059F4AC
:101C900085E290E00E94D82291E0873109F090E03F
:101CA000892F8170089580E0FCCFCF9384E090E08D
:101CB0000E94D822C82F82E290E00E94D822982F5A
:101CC0008C2FCF9108958F929F92AF92BF92CF9217
:101CD000DF92EF92FF920F931F93CF93DF93CDB7D5
:101CE000DEB728970FB6F894DEBF0FBECDBF8E01CA
:101CF0000F5F1F4F88E0F80111928A95E9F78EE394
:101D0000E82E81E0F82E6801AA24A394B12CF701F3
:101D100081917F018F3F09F44BC0F894E82FE29541
:101D2000EF70F0E021A18F70A50102C0440F551F94
:101D30008A95E2F7CA01922F982B91A392A18095E0
:101D4000892382A3789400C0E2E4F1E030E020E04F
:101D5000912C812C81918F3F09F489C0A82FA295E5
:101D6000AF70B0E090964C9150E08F7002C05595E6
:101D700047958A95E2F740FD7AC0C501022E02C060
:101D8000880F991F0A94E2F7882A992A2F5F3F4FFC
:101D90002C303105F9F6F701319780818F3F11F032
:101DA0000E94240850EA5A95F1F7F6019182808248
:101DB000F2E0CF0ED11C42E4E41641E0F40609F053
:101DC000A6CF48E050E0B80188ED91E00E941A23C8
:101DD000FF24F394009709F4F12C892B09F44AC0ED
:101DE00088E0F801A8EDB1E001900D928A95E1F745
:101DF00081E08093D7010E94E0079093D601809301
:101E0000D5012091D5013091D6014FB7F89480913A
:101E1000310290913202A0913302B09134024FBF4F
:101E2000821B930B059750F18091D8019091D901B5
:101E30009093EA018093E9018091DA019091DB01AE
:101E40009093EC018093EB018091DC019091DD0196
:101E50009093EE018093ED018091DE019091DF017E
:101E60009093F0018093EF011092D70107C090E0AA
:101E700080E08ACF8091D7018111C3CF8F2D289622
:101E80000FB6F894DEBF0FBECDBFDF91CF911F918B
:101E90000F91FF90EF90DF90CF90BF90AF909F9009
:101EA0008F90089569EE7EEF90E080E00E94042319
:101EB00060E082E090E00E94E62260E083E090E053
:101EC0000E94E6221092D40160E084E090E00E943B
:101ED000E62260E082E290E00E94E62260E085E097
:101EE00090E00E94E62260E086E090E00E94E62218
:101EF0006FEF87E090E00E94E62240E050E0BA01F8
:101F000088E090E00E94F82260E08DE090E00E947E
:101F1000E62240E050E0BA0188E190E00E94F82219
:101F200060E087E190E00E94E62240E050E0BA01E4
:101F30008CE190E00E94F82270E060E080E290E0A6
:101F40000E94042340E050E0BA0188E190E00E9442
:101F5000F82280E00E94540D0E946C0D40E050E099
:101F6000BA018FE090E00E94F82240E050E0BA0110
:101F700083E190E00C94F8221092D20180910C0140
:101F8000E6E6F1E0882359F08091FA0187FF07C067
:101F90008EE1DF011D928A95E9F70C94540C86E0DE
:101FA000F8CF1F93CF93DF93CDB7DEB7AA970FB6C5
:101FB000F894DEBF0FBECDBF89E292E02091F10020
:101FC000DC012D93CD01B2E081339B07B9F78091FD
:101FD0002A02833009F472C0B8F4813009F449C090
:101FE000823009F4B3C08091E80083FF8FC28091F2
:101FF000290290912A029A3008F088C2E92FF0E075
:10200000E95CFC4D0C94CB228A3009F48EC08B30F5
:1020100009F471C0893039F780912902813219F7AA
:1020200080912D0290912E02009711F00297D9F61F
:102030008091E800877F8093E8008091E80082FF2C
:1020400038C09091F3008091F200029731F48091B2
:10205000F100813011F0863021F48091F1008093FD
:1020600004028091E8008B778093E8000E94BA0612
:10207000BACF80912902813A09F0B5CF8091E8006A
:10208000877F8093E80080912D0290912E02892B0A
:1020900061F460E285E092E070E00E946C0780915C
:1020A000E8008B778093E8009ECF60E090E080E0CE
:1020B000F3CF809127028111C0CF95CF8091290263
:1020C000813A09F090CF80912D0290912E02892BB8
:1020D00009F089CF8091E800877F8093E8008091A4
:1020E000E80080FFFCCF80910C018093F10080918B
:1020F000E8008E77B9CF80912902813209F073CF41
:1021000080912D0290912E02892B09F06CCF809145
:10211000E800877F8093E8000E94BA0680912B0236
:1021200080930C010E94BC0F5ECF80912902813206
:1021300009F059CF8091E800877F8093E8000E94E2
:10214000BA0680912C02809303024DCF8091290220
:10215000813A09F048CF8091E800877F8093E800BA
:102160008091E80080FFFCCF80910302BECF8038D1
:1021700099F0823809F0CAC180912D028F708730A2
:1021800008F0C4C18093E9008091EB0085FB8827AB
:1021900080F91092E90006C08091250290912602F4
:1021A000911182609091E800977F9093E80080936E
:1021B000F1001092F1008091E8008E77A3C188238E
:1021C00009F491C1823009F0A1C180912B028111E3
:1021D00094C180912D028F702FEF280F263008F0C8
:1021E00095C18093E9002091EB0020FF86C19330D8
:1021F00031F48091EB0080628093EB007EC190917E
:10220000EB0090619093EB0021E030E001C0220FE1
:102210008A95EAF72093EA001092EA008091EB0099
:102220008860EACF811172C110912B021F778091D3
:10223000E3008078812B8093E3008091E800877F22
:102240008093E8000E94BA068091E80080FFFCCFEE
:102250008091E30080688093E30082E0111183E0C5
:102260008093270253C18058823008F04FC12091DB
:102270002B0230912C022C3DE3E03E07A1F583E0D8
:102280008A838AE289834FB7F894DE01139620E0AF
:102290003EE051E2E32FF0E050935700E49120FF3D
:1022A00003C0E295EF703F5FEF708E2F90E0EA3051
:1022B000C0F0C7968D939D932F5F243159F74FBF80
:1022C0008091E800877F8093E8006AE270E0CE01A9
:1022D00001960E946C078091E8008B778093E8005C
:1022E00015C1C096E7CF80912D0290912E02432F09
:1022F00055274330510509F44AC078F5413051055E
:1023000009F47AC08BE790E0EBEDF9E0423051053B
:1023100009F0FCC02091E800277F2093E80020917D
:102320002F02309130028217930708F49C0140E09D
:102330002115310509F065C0411163C08091E800A5
:1023400082FDC9CF80912702882329F2853019F2B6
:102350008091E80083FFF2CFBECF4132510509F4EE
:102360003CC04232510509F0D1C08430910508F0DB
:10237000CDC0FC01EE0FFF1FEE5AFE4F0190F08121
:10238000E02D825B9E4FDC018C9190E01AC03327D8
:1023900021303105D1F02115310561F022303105B0
:1023A00009F0B4C0E8E6FAE0E4918E2F90E0E8E6A8
:1023B000FAE007C0EEE8FAE0E4918E2F90E0EEE854
:1023C000FAE0009709F4A2C0A5CFEAE7FAE0E491A9
:1023D0008E2F90E0EAE7FAE0F4CF8430910508F020
:1023E00095C0880F991FFC01E65AFE4F0190F081BD
:1023F000E02D89E090E08ECF82E190E0E6E5FAE022
:1024000089CF80912702882309F465CF853009F4AC
:1024100062CF8091E80083FD5ECF8091E80082FD6D
:102420008DCF8091E80080FF83CF9091F300809161
:10243000F2002115310519F08830910550F041E086
:10244000089709F040E08091E8008E778093E800DB
:102450006FCF44914093F10031962150310901969C
:10246000E8CF803809F052C08091E800877F8093E0
:10247000E800809128028093F1009DCE811146C032
:1024800010912B02123008F041C08091E800877F44
:102490008093E800109328020E94BA06112311F0DD
:1024A00084E005C08091E30087FDFACF81E080934E
:1024B000270242E061EC81E00E94D90642E261EC31
:1024C00084E00E94D90642E261EC82E00E94D906D3
:1024D00042E260EC83E00E94D90642E261EC85E0D2
:1024E0000E94D90613C080912B02813079F481E0DB
:1024F000933009F080E0809326021092E9008091E9
:10250000E800877F8093E8000E94BA068091E80087
:1025100083FF0AC08091E800877F8093E800809164
:10252000EB0080628093EB00AA960FB6F894DEBFB2
:102530000FBECDBFDF91CF911F910895CF93C82FCC
:102540001F928F9386E098E09F938F930E943706A7
:1025500081E001C0880FCA95EAF70E94A40C0F9091
:102560000F900F900F90CF910C94BC0FCF92DF92F1
:10257000EF92FF921F93CF93DF93EBEFE80FEF33D0
:1025800008F043C1F0E0EF5BFC4D0C94CB2283E0FC
:1025900090E00E94D8221F928F9389E294E09F934B
:1025A0008F930E94370682E090E00E94D82283FB3E
:1025B000992790F91F929F9382FB992790F91F9278
:1025C0009F9381FB992790F91F929F93982F917069
:1025D0001F929F931F928F9380EE93E09F938F9310
:1025E0000E9437060E94550E87FB222720F91F9272
:1025F0002F9386FB222720F91F922F9385FB2227FA
:1026000020F91F922F9384FB222720F91F922F93EA
:1026100083FB222720F91F922F9382FB222720F988
:102620001F922F9391FB222720F91F922F93292F7E
:1026300021701F922F9381FB222720F91F922F9345
:10264000282F21701F922F939F938F938BEF92E0EF
:102650009F938F930E9437068DB79EB788960FB6CB
:10266000F8949EBF0FBE8DBF81E01CC085EF97E040
:102670000E949E050E94520FF7CF86E494E00E94CC
:102680009E05F2CF8091F801807F8093F80188EF5A
:1026900095E00E949E0581EF97E00E949E0581E0F3
:1026A0008093F101DF91CF911F91FF90EF90DF9028
:1026B000CF90089585ED97E00E949E050E94BC0F83
:1026C0009FEF24E38CE0915020408040E1F700C070
:1026D00000000E94CF079091F801892F8E7F90FF14
:1026E00081608093F80180FF03C089EC97E0C7CF39
:1026F0008CEB97E00E949E058091F801817F80938A
:10270000F801B2CF9091F801892F8D7F91FF8260FF
:102710008093F80181FF08C08FEA97E00E949E0530
:102720008091F8018160EBCF81EA97E0A8CF90918A
:10273000F801892F8B7F92FF84608093F80182FFDC
:1027400003C082E997E0EACF82E897E098CF9091C2
:10275000F801892F877F93FF88608093F80183FFBA
:1027600003C086E797E0DACF89E697E088CF83E178
:1027700096E085CF8FB7F894C0903102D0903202A6
:10278000E0903302F09034028FBFC091FA01C7FB92
:10279000CC27C0F910910302D0910C010E941808B7
:1027A000FF92EF92DF92CF921F92CF931F921F93CF
:1027B0001F92DF931F928F938EEC96E09F938F93DF
:1027C0000E9437068DB79EB70E960FB6F8949EBF3F
:1027D0000FBE8DBF49CF0E94BC0F9091FA01892F87
:1027E00097FB87F980588093FA0187FF03C08FE534
:1027F00097E045CF84E597E042CF80E00E949E12AB
:1028000033CF8953FBCF8D51F9CF82E597E00E94FA
:102810009E0580E047CFCF93C82F8823E9F18CEF46
:102820008C0F813A08F06DC08091F101882359F135
:102830008130A1F11092F10180910C01882309F4FB
:102840004EC08091FA0187FF4AC0EC2FE695E695CD
:10285000E695F0E0EC59FE4F828190E04C2F4770F6
:1028600021E030E002C0220F331F4A95E2F78223B5
:102870009323892BF1F16C2F84E691E00E944B0B9E
:102880000E94CC0B36C08091D2018232A9F68C2FE7
:102890000E94B612882381F2CF9108958091D201CF
:1028A0008232A9F3C431B9F038F4CB3049F080E773
:1028B00092E00E949E0511C0C93269F0C833B9F791
:1028C00088EF95E00E949E0582E792E00E949E05B7
:1028D00081E08170DFCF1092F10180E0FACFE6E66F
:1028E000F1E08CE691E02191C21729F28E179F0743
:1028F000D1F76C2F84E691E00E94860BCF910C9467
:10290000CC0B80E28C0F883068F4C77021E030E097
:1029100001C0220FCA95EAF78091D201822B8093E1
:10292000D201ECCFEBE5EC0FE33040F4F0E0E35FF5
:10293000FE4F808190E0CF910C940208C85AC731B5
:1029400008F0AACFEC2FF0E0EE0FFF1FE05FFE4F84
:1029500080819181CF910C94EC071F93CF93DF93EB
:10296000182FD0E0C0E0893311F4C0E5D0E0812F0A
:102970000E940B14209731F4812FDF91CF911F918A
:102980000C94BD0C8FE99FE00197F1F700C00000A7
:102990002197F0CF0F931F93CF93DF93C62FD42FA0
:1029A000022FFC0182818823A1F0609337020E94EC
:1029B000E0079093360280933502C77081E001C032
:1029C000880FCA95EAF7DF91CF911F910F910C9470
:1029D000B30C80913702681340C0209135023091CA
:1029E00036024FB7F8948091310290913202A09153
:1029F0003302B09134024FBF821B930B883C910588
:102A000060F510E21D0F6D17B9F080E2860F883077
:102A100040F4C77081E001C0880FCA95EAF70E94B0
:102A2000A80C183048F481E09D2F977001C0880FE2
:102A30009A95EAF70E94B30C802F0E94AD141830CB
:102A400098F4D77081E001C0880FDA95EAF7DF913A
:102A5000CF911F910F910C94A80CC77081E001C019
:102A6000880FCA95EAF7F3CFDF91CF911F910F91AD
:102A700008953F924F925F926F927F928F929F92B2
:102A8000AF92BF92CF92DF92EF92FF920F931F937C
:102A9000CF93DF9300D000D00F92CDB7DEB78C017B
:102AA000FC0183819481892B31F08081918189237C
:102AB0008F3F09F048C50F900F900F900F900F9027
:102AC000DF91CF911F910F91FF90EF90DF90CF900A
:102AD000BF90AF909F908F907F906F905F904F903E
:102AE0003F9008950E94DA0DF82E682F89819A810F
:102AF0000E94330A69817A818F2D0E94CD0D7C015D
:102B0000F8018281882309F4E4C4970122513F45EA
:102B10002031310508F00AC58FEF93E00E94D822DA
:102B2000FEEEEF0E57EA852E99249394882381F1C7
:102B30008091CF01877009F4BECFF801828188238C
:102B400009F4B9CF82E00F900F900F900F900F9083
:102B5000DF91CF911F910F91FF90EF90DF90CF9079
:102B6000BF90AF909F908F907F906F905F904F90AD
:102B70003F900C947D0C811424E09206C9F2C401AC
:102B80000E94D822811101C0EA943FEF831A930A70
:102B9000E110F1CF1C821B82442443944AE0342E7E
:102BA00074018FEFE81AF80AC4010E94D8228983C1
:102BB0001A82882309F4BCCF9FEF980F933000F559
:102BC0008A83498292E0890E911CC7010E94D82213
:102BD0008B83882309F4ACCFFE0131967F01F70186
:102BE00020812223E9F2213009F049C091818281BC
:102BF000913041F4F2E0EF0EF11C0E94AD1409C0D7
:102C00004701EACF923049F422E0E20EF11C0E9423
:102C10000B143FEFE31AF30AE2CF933031F432E0C2
:102C2000E30EF11C0E94BD0CF4CF943021F08FEF25
:102C3000E81AF80AEECF92E0E90EF11C30E020E04D
:102C4000B7016F5F7F4FF70141818053990B8A3045
:102C5000910550F021503109E0F28FE99FE0019792
:102C6000F1F700C00000F6CF329EF001339EF00D68
:102C700011249C012E0F3F1F842F7B01E1CFE22FF7
:102C8000F0E0E353FE4F5490822F8695869586950B
:102C900090E0FC01E354FE4F64902770712C022EEB
:102CA00002C0759467940A94E2F7E1E06E227724FB
:102CB000FC01E355FE4FA490B12C022E02C0B59446
:102CC000A7940A94E2F7F1E0AF22BB24FC01E3569B
:102CD000FE4FC490D12C02C0D594C7942A95E2F738
:102CE00021E0C222DD246114710419F081EE0E94FA
:102CF0000B14A114B10419F086EE0E940B14852D5B
:102D00000E94AD14AB2819F086EE0E94BD0C672816
:102D100019F081EE0E94BD0CCD2809F47ACF8CE227
:102D20006CCF81E00E94990C03C081E00E94710C7D
:102D30000E94660CFDCE82E0F9CF95EFE9169CE586
:102D4000F90609F469C008F463C027E245EE66EEAF
:102D5000F6EFEF16FCE5FF0609F4E4C3882309F457
:102D600003C41092370222E0E2162CE5F20608F4C2
:102D70004CC136E1E3163CE5F30630F0C7018A5F4B
:102D80009C45099708F041C10E94550E9093FB01A4
:102D90008093FA0180E1E8168CE5F80609F404C195
:102DA00008F083C0E8E0EE16ECE5FE0609F4EEC09C
:102DB00008F04FC024E0E2162CE5F20609F4DEC06C
:102DC00090F582E0E8168CE5F80609F4D1C0809110
:102DD000FA01826093E0E9169CE5F90609F4CBC09C
:102DE0006091FA01F090FB0184E090E00E94E622FD
:102DF0006F2D82E290E00E94E6220E94BC0F98CEE6
:102E000027E245EE65EE8EC326E241EE60EE8AC310
:102E100027E245EE64EE86C326E241EE62EE82C30F
:102E200028E241E0EFCF8091FA018061E6E0EE1602
:102E3000ECE5FE0609F49FC08091FA018860F7E096
:102E4000EF16FCE5FF0608F496C08091FA01806257
:102E500092C08091FA018D7F2CE0E2162CE5F206FB
:102E600009F489C060F48AE0E8168CE5F80609F4F4
:102E700097C008F48FC08091FA018E7F7CC080914A
:102E8000FA01877FEEE0EE16ECE5FE0609F473C06A
:102E90008091FA018B7FFFE0EF16FCE5FF0608F456
:102EA0006AC08091FA018F7E66C02BEFE2162CE596
:102EB000F20609F467C068F583E1E8168CE5F806C8
:102EC00009F47AC090F4E1E1EE16ECE5FE0609F4AF
:102ED0006FC0F2E1EF16FCE5FF0609F081CF0E941A
:102EE000BC0F8091FA018F7746C025E1E2162CE5F0
:102EF000F20609F469C008F47DC08AEFE8168CE593
:102F0000F80609F06DCF8091FB0181608093FB0191
:102F100067CF9FEFE9169CE5F90609F451C0A0F4CC
:102F20008091FB018D7FFDEFEF16FCE5FF0671F34D
:102F30008091FB018E7F2EEFE2162CE5F20630F336
:102F40008091FB018360E2CF31E0E3163DE5F306BB
:102F500009F459C008F444C060E092E0E9169DE528
:102F6000F90609F03DCF8EE090E00E94E62238CFCE
:102F70008091FA0181608093FA0132CF8091FA0149
:102F80008460F9CF8091FB018260C0CF8091FA010B
:102F90008064F1CF0E94BC0F8091FA018068EBCF72
:102FA0008091FA018C60E7CF8091FA018F7DE3CFA9
:102FB0008091FA018F7BDFCF8091FA01837FDBCF95
:102FC0008091FB018C7FA2CF8091FA0182FB99272F
:102FD00090F921E0922790FB82F990FB83F9CBCF07
:102FE0008091FB01982F909591708E7F892B90FB9B
:102FF00081F98CCF0E94BC0F9091FA01892F97FB29
:1030000087F98058B8CF61E0AECFE6E1EE16ECE587
:10301000FE0609F0B9C28091D2018A7A91E009F4E2
:1030200090E09093840169E2811165E384E691E088
:103030000E94860B0E94CC0B7BCD0E94BC0FFFEF41
:1030400024E33CE0F15020403040E1F700C00000B4
:103050000E94CF078DE492E0B5C20E94520F68CD66
:103060008091FB0182FB882780F991E089270E94EB
:103070007B0DF8018281E080F180882309F43FC054
:10308000C7010E94DA0DD82E682FC7010E94330AAB
:10309000B7018D2D0E94CD0D0E947E087C01882EE7
:1030A000F801D280C580C2943FE0C3228091CF0155
:1030B0008770A1F0AD2CDD2091F08F2D807F8034C2
:1030C00021F080E28E0D883048F082E00E947D0C75
:1030D0008091CF018770AA24A3948111A12C9F2CE9
:1030E00092942FE09222FBE0F91508F444C0E92DF8
:1030F000F0E0E058FC4D0C94CB2280E0B8CFC70143
:103100000E940B0AD82EC4CF2F2D2F70C22E8F2DC8
:10311000807F19F0C29490EFC922DD20C9F0CC2045
:1031200069F080E28E0D883010F081100BC0809124
:10313000D201C82AC092D2010E94CC0B8E2D0E94CF
:103140000B1419C08091D101C82AC092D101F4CFCB
:103150008E2D0E94BD0CCC2071F0C09480E28E0DAB
:10316000883010F081103DC08091D201C822C092F9
:10317000D2010E94CC0B292D2850330B243031056D
:1031800010F40E941808AA2009F495CC8091CF0170
:1031900080FD91CCF80112828595859585950E94D8
:1031A000990CC8010E9439158091CF0185958595AC
:1031B00085950F900F900F900F900F90DF91CF910A
:1031C0001F910F91FF90EF90DF90CF90BF90AF9045
:1031D0009F908F907F906F905F904F903F900C9456
:1031E000710C8091D101C822C092D101C2CF3F2D74
:1031F0003F70B32E8F2D807F803219F0B29480EF14
:10320000B822882071F081E0881681F1DD20D9F1A3
:10321000CC2091F1F801858180FF90CF8F7085835C
:103220002BC0DD20B1F09091D3018B2D892BC110E3
:1032300003C00E94B30C9FCFE1E0CE12FACF2091E1
:10324000FB0122FD98CF981709F495CF8093D30105
:1032500092CFC11006C00E94FB098B2D0E94A80CC2
:103260008ACFF1E0CF1609F486CFF5CFDD2031F01B
:1032700025E02C1508F47FCF8B2DDBCF34E03C15F7
:1032800008F479CFEACFCC2041F3F9E38F1209C0DB
:103290002FEF37EE83E0215030408040E1F700C04F
:1032A00000008E2D0E94BD0C66CF8F2D86958695D1
:1032B000837061F0813009F05ECFC7019370D11047
:1032C00002C090E080E00E94EC0755CFC7019370E8
:1032D000D11002C090E080E00E9402084CCF8F2DF8
:1032E000837091F5D11047CF4E2D4295469547708A
:1032F000440F440F8E2D8F70042E01C0880F0A9446
:10330000EAF72E2D2071E4FE07C02FE030E001C067
:10331000220F4A95EAF720953F2D36953695337062
:10332000323069F050F44091D401313029F0822BD1
:1033300084230E94A40C1FCF842B822BFACF282B2E
:103340008091D4018227F5CF8695DD2011F08F2D55
:103350008170882309F40FCF4E2D42954695477012
:10336000440F440F8E2D8F70042E01C0880F0A94D5
:10337000EAF72E2D2071E4FE07C02FE030E001C0F7
:10338000220F4A95EAF720953F2D369536953370F2
:10339000323069F050F440913802313029F0822BFC
:1033A00084230E94620CE7CE842B822BFACF282B39
:1033B000809138028227F5CF9F2D9F70F92EDD2056
:1033C00029F0892F0E94990C8E2D33CF8E2D0E94CB
:1033D000A80C8F2D0E94710CCECE8E2DE2EF8E1692
:1033E00009F44BC0E81570F0F0EF8F1639F121EFBA
:1033F0008216D9F1DD2009F45CC0C1109FCE8F2D5B
:103400008F7138C033EF8316E9F194EF8912F2CF50
:10341000DD2009F443C02F2D2F71F22E822F0E9440
:10342000990C8091FB0182FD07C038E0F39EC0013A
:10343000112483608093CF018F2D1CC0DD2081F08B
:10344000E4E0EC1508F497CE2F2D2F7181E090E089
:1034500001C0880F2A95EAF7909138028927A1CFF9
:10346000F5E0FC1508F487CEEFCF8F2D8F71DD20AE
:1034700009F4B0CF0E94990C7ECE8F2D8F71DD2084
:10348000C9F3A8CF80E0DD2009F48BCF9F2D9F7179
:1034900081E001C0880F9A95EAF783CF81E00E940E
:1034A0007D0C81E08C1508F066CE82E00E947D0CD8
:1034B00062CECC2059F0893309F0F3CE9FEFE7EECE
:1034C000F3E09150E040F040E1F7E9CE8F2D8F71AD
:1034D00081CFF0E1EF16FFE5FF0609F426CC21E1EC
:1034E000E2162FE5F20609F426CC93EFE9169CE5E7
:1034F000F90609F489CC08F020CCF8EDEF16FCE5CC
:10350000FF0609F47DCC29EDE2162CE5F20609F45C
:1035100087CC37EDE3163CE5F30609F01FCC26E235
:1035200041EE61EEC8010E94CA1402CB30E1E316FD
:103530003FE5F30609F4F5CB91E1E9169FE5F906BD
:10354000A1F682E0EFCB85E0DE01119601900D92AD
:103550008A95E1F7F801228189819A812111C2CAF5
:103560000E940B0AF82EC6CAF6E1EF16FCE5FF062C
:1035700009F07FCD8091840169E2811165E384E6E1
:1035800091E00E944B0B56CD2EEDE2162CE5F20693
:1035900009F463CDD0F4E1148CE5F80609F44DCDBF
:1035A00091E0E9169CE5F90609F063CD9091F801E8
:1035B000892F8E7F90FF81608093F80180FF4ACD34
:1035C0008FE592E00E949E05B3CAEBE5EE16EDE5AD
:1035D000FE0609F492CDFCE5EF16FDE5FF0609F4C1
:1035E0003FCD2AE5E2162DE5F20609F042CD81E055
:1035F0003ECD1F93CF93DF9380919C01807FA9F4F0
:1036000080919901882389F08091CE01D0919D010C
:103610006091970170919801A0919A01B0919B01DE
:10362000C62FC72316E0D81304C0DF91CF911F9196
:10363000089590E0109711F0CF3F19F4019687702C
:10364000F2CF189F9001199F300D1124F901E25615
:10365000FE4F41814713F2CF40814613EFCF4281A5
:103660004111ECCF438154814A1B5B0B483C51050F
:1036700028F780919C018F70806180939C01F901F3
:10368000ED55FE4F80818F708061808387E991E0E6
:103690000E943915DF91CF911F910C94010AAF92CE
:1036A000BF92CF92DF92EF92FF920F931F93CF932F
:1036B000DF93CDB7DEB761970FB6F894DEBF0FBECC
:1036C000CDBF8C0185E0F801DE011D9601900D92C1
:1036D0008A95E1F7F801E28087E9A82E81E0B82E0B
:1036E00060919A0170919B016115710509F432C1D5
:1036F0009091970140919801892F84238F3F09F47D
:1037000029C120813181C380D480F0909901F601D4
:10371000E61BF70BFF2009F4E8C080919C01582FAD
:10372000507FE83CF10508F0ABC0511177C0FE2C8A
:10373000431321C092131FC0E1101DC08F70806120
:1037400080939C01C5010E94391580919C01F8016C
:1037500085838F2D61960FB6F894DEBF0FBECDBF67
:10376000DF91CF911F910F91FF90EF90DF90CF905D
:10377000BF90AF900895CD2829F0822F83238F3FEB
:1037800009F003C180E0F82FF170DF2E80FF3CC00C
:103790008091CE0140919D0156E0841315C02D8784
:1037A0003E878D859E850E94090E292F22952F70B8
:1037B0002230F0F0243018F59F70F1F0F801958177
:1037C000907FD1F4D12C1EC090E0589FF001599FFA
:1037D000F00D1124E256FE4F6181361306C0608160
:1037E000261303C06281E6120FC001968770D5CF01
:1037F0009F7011F0882331F3805E883018F3C80180
:103800000E943915FD2CA5CFEE2009F4A2CF80919E
:103810009C01816080939C01F12C9BCF431306C0D7
:10382000921304C0F801EE2009F479C0C8010E9487
:10383000150E882309F1EE20F9F080919C01803269
:1038400070F0209197013091980138872F83198665
:10385000DB86CA868C87CE0107960E94391586E0E2
:10386000F801A7E9B1E001900D928A95E1F70E9475
:10387000F91AFF24F3946DCFC8010E943915F9CFCE
:1038800051110AC087E991E00E94391586E0F501DF
:1038900011928A95E9F7C0CF43130FC092130DC060
:1038A000E1100BC0F8018583C8010E94391586E03C
:1038B000F50111928A95E9F74CCFC8010E94150EC7
:1038C0008823D1F2EE20C1F280919C01803238F23F
:1038D00020919701309198013A8329831B82DD82E0
:1038E000CC828E83CE010196B8CFE83CF105F8F684
:1038F000FE2CEE2009F243131FC092131DC08091CD
:103900009C0180FD10C0982F907F69F0F80185839D
:10391000903F31F0982F907F905F8F70892B858337
:10392000C8010E94391586E0F801A7E9B1E00190CD
:103930000D928A95E1F70DCFC8010E94150E8111F5
:103940008ECF80919C01816080939C01C8010E9470
:103950003915FFCEEE2009F48FCFC8010E94150E55
:10396000F82E882309F488CF86E0F801A7E9B1E0B2
:1039700001900D928A95E1F78091970190919801BD
:103980000E94090E0E94F91AE4CE81E08E25FBCE3A
:103990001F93CF93DF93CDB7DEB767970FB6F89439
:1039A000DEBF0FBECDBF4B8B5C8B6D8B7E8B8F8B49
:1039B00061111092D1011A8A198A85E0FE0173966D
:1039C000DE011D9601900D928A95E1F786E0FE01D9
:1039D0003D96DE01179601900D928A95E1F7CE0192
:1039E00007960E944F1B811112C086E0FE01379698
:1039F000DE01119601900D928A95E1F78A859B85EB
:103A0000892B29F088859F8189238F3FB1F516E0A6
:103A10008091CE0190919D0189131DC067960FB6CC
:103A2000F894DEBF0FBECDBFDF91CF911F910895F7
:103A300096E0929FD001939FB00D1124A256BE4FE5
:103A4000FE01319601900D929A95E1F780939D01C8
:103A50000E94010ADCCF819FC001112482569E4F33
:103A60000E944F1B8823D1F28091CE0190E00196F5
:103A7000877099278093CE01CBCF20919D0130E0B4
:103A8000C9010196877099274091CE014817190600
:103A900079F60E94BC0F10929D011092CE0186E033
:103AA000E7E9F1E0DF011D928A95E9F7B0CF1F92B7
:103AB0000F920FB60F9211242F933F934F935F9362
:103AC0006F937F938F939F93AF93BF93CF93DF9326
:103AD000EF93FF93D091E900DF708091EC00C82F45
:103AE000C17080FDC0E81092E9008091F000877FEE
:103AF0008093F00078940E94D10F1092E900809199
:103B0000F00088608093F000CD2BCF70C093E90067
:103B1000FF91EF91DF91CF91BF91AF919F918F91E5
:103B20007F916F915F914F913F912F910F900FBEB9
:103B30000F901F9018951F920F920FB60F9211249D
:103B40002F933F934F935F936F937F938F939F93A5
:103B5000AF93BF93EF93FF938091E10082FF15C075
:103B60008091E20082FF11C08091E1008B7F809301
:103B7000E100209101022F5F822F62E30E94BF22A9
:103B8000992309F4BEC0209301028091DA0080FFDE
:103B900028C08091D80080FF24C08091DA008E7FF9
:103BA0008093DA008091D90080FFE1C080E189BD77
:103BB00082E189BD09B400FEFDCF81E08093270238
:103BC00087EC99E00E949E0580910202811109C054
:103BD0000E9440060E940B078091E200846080935F
:103BE000E2008091E10080FF1BC08091E20080FF35
:103BF00017C08091E2008E7F8093E2008091E20006
:103C000080618093E2008091D80080628093D80028
:103C100019BC85E0809327028FEC99E00E949E05F5
:103C20008091E10084FF2DC08091E20084FF29C0D3
:103C300080E189BD82E189BD89B5982F917080FFAF
:103C4000FBCF8091D8008F7D8093D8008091E100D8
:103C50008F7E8093E1008091E2008F7E8093E2006E
:103C60008091E20081608093E200809128028823A5
:103C700009F487C084E08093270283ED99E00E94D5
:103C80009E058091E10083FF2BC08091E20083FFBD
:103C900027C08091E100877F8093E10082E08093DC
:103CA0002702109228028091E1008E7F8093E1002C
:103CB0008091E2008E7F8093E2008091E20080613B
:103CC0008093E20042E060E080E00E94D9068091AB
:103CD000F00088608093F00087ED99E00E949E05D7
:103CE000FF91EF91BF91AF919F918F917F916F91D4
:103CF0005F914F913F912F910F900FBE0F901F90AA
:103D000018951092010280910002882309F43DCF9A
:103D1000809127028430C1F49091E9009F70209136
:103D2000EC00822F817020FD80E8892B95E0909334
:103D3000E9009091EB0090FF04C09091EE0097FD98
:103D400008C08F708093E900109200021ECF10927D
:103D5000F1009091E80095FDFACF9091E80090FF76
:103D6000F0CF9091E8009E779093E800EACF19BCDD
:103D7000109227028BEC99E00E949E05109202029D
:103D800030CF8091E30087FD93E09093270275CFB9
:103D900078941F921FB61F9211248F939F93AF9315
:103DA000BF938091310290913202A0913302B09181
:103DB00034020196A11DB11D80933102909332020D
:103DC000A0933302B0933402BF91AF919F918F9132
:103DD0001F901FBE1F9018951F921FB61F9211248F
:103DE0008F939F93AF93BF938091F901811113C07B
:103DF0008091310290913202A0913302B09134024D
:103E00004196A11DB11D8093310290933202A0937F
:103E10003302B0933402BF91AF919F918F911F9065
:103E20001FBE1F901895CDB7DEB7AD970FB6F894AB
:103E3000DEBF0FBECDBF84B7877F84BF0FB6F894B7
:103E4000A895809160008861809360001092600066
:103E50000FBE80E890E00FB6F894809361009093D5
:103E600061000FBE85B7806885BF85B7806885BF54
:103E700087E79AE090936301809362010E94400675
:103E80000E940B078091E20084608093E2007894A6
:103E9000809127028823A1F01091E9001F70909172
:103EA000EC00892F817090FD80E8182B1092E900BA
:103EB0008091E80083FD0E94D10F1F701093E900EC
:103EC00082E084BD93E095BD9AEF97BD80936E002C
:103ED0000E943C0E811102C00E946C0D81E30E9481
:103EE000240883E30E94240882E30E94240886E3D6
:103EF0000E94240802E411E0AEE4EA2EA1E0FA2ECA
:103F0000F80181918F018F3F11F00E942408E01683
:103F1000F106B1F71092D9011092D8011092EA017E
:103F20001092E9011092DB011092DA011092EC017B
:103F30001092EB011092DD011092DC011092EE0163
:103F40001092ED011092DF011092DE011092F0014B
:103F50001092EF0190E080E00E94E022893E9E4FA7
:103F600021F40E943C0E811102C00E94520F82E097
:103F700090E00E94D8228093F8010E94550E909301
:103F8000FB018093FA010E94630E2FEF86E791E018
:103F9000215080409040E1F700C000000E94630E75
:103FA0008091E90180FF08C06FEF7FEF90E080E033
:103FB0000E9404230E94CF0783E090E00E94D82251
:103FC0000E94A40C80E091E09093F5018093F401AD
:103FD00085EA92E00E949E0580912702853079F45F
:103FE00087EF92E00E949E0500E112E18091270296
:103FF000853009F446C00E94BC0F0E9418080E9438
:10400000630E882359F08FB7F89440913102509194
:10401000320260913302709134028FBFE1EEF1E021
:10402000FCA7EBA7E9EE4E2EE1E05E2E10E000E0EB
:10403000F8EB6F2EF2E07F2E0DA7F201E190F190E8
:104040002F01EBA5FCA5A190B190FCA7EBA7AE14A6
:10405000BF0409F052C00F5F1F4F0430110561F714
:104060008FEF8EA38FA318A60E94E0078160782FA0
:104070009AA789A74EA15FA168A58AA50E94C81C1E
:104080006DC080912702843021F11092F901E8E19E
:10409000F0E020E40FB6F894A895E09360000FBE1E
:1040A0002093600083B7817F846083BF83B7816082
:1040B00083BF7894889583B78E7F83BF0FB6F894BB
:1040C000A8958091600088618093600010926000E4
:1040D0000FBE80912602882309F488CF0E94630EC8
:1040E000E9EEF1E081919191892B09F029C281EFEC
:1040F00091E08E179F07B1F779CF8091F80181FD8C
:1041000089C080E0CC24C394D12CAE24BF24950177
:104110002C213D21232B09F4B6C089A3EDA5EAA3E8
:10412000EC20FD2081E0EF2809F480E08BA30E94C1
:10413000E0078160782F9DA38CA349A15AA16BA1B0
:104140008DA10E94C81C000F111FF801EF51FE4FF6
:1041500080819181C826D926D182C0820E94180808
:104160009091E001891739F10E941808182F809367
:10417000E0018091F80182FF1EC080FF1CC084EE28
:1041800092E00E949E058091F80180FF14C01F926A
:104190001F938FED92E09F938F930E94370680913B
:1041A000F8010F900F900F900F9080FF04C08DEDDD
:1041B00092E00E949E0580912702843009F00CCF86
:1041C00083E08093E9008091E80082FF05CF809131
:1041D000E80090E085FF0CC00E945F0630E2E32E0D
:1041E000F12C8E010F5F1F4F882309F45DC091E011
:1041F0008091E8008B778093E800992309F4ECCE56
:10420000E981E150E33108F0D5C0F0E0E457FC4D1E
:104210000C94CB2286EC92E00E949E0569EE862EDD
:1042200061E0962ED12CC12CDF92CF9281EC92E0EE
:104230009F938F930E9437068EEB92E00E949E051B
:10424000F40180812180F2E08F0E911C0E945F0AB0
:10425000382E822D0E945F0A3F928F937F926F9239
:104260000E94370686EB92E00E949E052FEFC21A4D
:10427000D20A0FB6F894DEBF0FBECDBF94E0C916C8
:10428000D10491F63ECF8F5FCC0CDD1C8C3009F051
:104290003ECFE1CE8091F100F80181938F01F1E0F2
:1042A000EF1AF10809F4A3CF8091E80085FDF2CF61
:1042B0008091E8008B778093E8000E945F06882356
:1042C00099F395CF1A8289E08B833FC08A8182302F
:1042D00009F44CC18330A9F0813009F06BC02FB7CD
:1042E000F894609131027091320280913302909182
:1042F00034022FBF0E94D1226B837C838D839E83E7
:1043000024C08091E9019091EA0198278927982794
:104310009C838B838091EB019091EC0198278927F6
:1043200098279E838D838091ED019091EE019827CF
:104330008927982798878F838091EF019091F001CA
:104340009827892798279A87898780912702843020
:1043500009F042CE1091E9001F709091EC00892F76
:10436000817090FD80E8182B82E08093E9008091B5
:10437000E80080FF0DC050E040E060E270E0CE0158
:1043800001960E9490068091E8008E778093E80065
:104390001F701093E90020CE8A81823059F46B811E
:1043A0007C818D819E810E94D12286E290E00E94D4
:1043B000E622CBCF8FEF8983C8CF4C816B818A8176
:1043C0000E94A70D9827892798279E838D83BDCFAC
:1043D0000D811E811027012710278A81EB8028E19B
:1043E000E29E7001112490E6899FE00CF11C1124DB
:1043F0008C8190E0880F991FE80EF91E612FC7018C
:1044000087960E94E622602FC7018896D0CF0E942F
:10441000FF0C9BCF80E18A8398CF82E08A8389E575
:1044200053CFEA80FB80FE24EF24FE248E010F5F31
:104430001F4FCC80C00ED12ED11CC70189559E4F75
:10444000C016D10609F481CFE9E5EE16E2E0FE06DA
:1044500050F40E94D822F8018483FFEFEF1AFF0A7C
:104460000F5F1F4FEACFF8011482F7CF0A811B813B
:10447000102701271027CE0101966C01EC80E00E79
:10448000F12EF11CC80189559E4FE016F10609F482
:104490005CCF0935E2E01E0720F4F60164810E943A
:1044A000E622FFEFCF1ADF0A0F5F1F4FEBCF0E940C
:1044B000EF0C4BCF84E0AFCFEA80FB80FE24EF24EB
:1044C000FE248E010F5F1F4FCC80C00ED12ED11C59
:1044D000C7018796C016D10609F437CF20E8E21647
:1044E00021E0F20650F40E94D822F8018483FFEF05
:1044F000EF1AFF0A0F5F1F4FEBCFF8011482F7CFBF
:104500000A811B81102701271027CE0101966C011B
:10451000EC80E00EF12EF11CC8018796E016F10642
:1045200009F413CF0038E1E01E0720F4F60164819E
:104530000E94E622FFEFCF1ADF0A0F5F1F4FECCF7A
:1045400009BD19BD09B400FEFDCF8091D8008F7D53
:104550008093D8008091E00082608093E000809199
:10456000E00081FDFCCF0E94BC0F40CD86E290E0D0
:104570000E94D8221B821C821D828E83E6CE991B4C
:1045800079E004C0991F961708F0961B881F7A954A
:10459000C9F780950895EE0FFF1F0590F491E02D67
:1045A0000994692796276927782787277827089508
:1045B000F999FECF92BD81BDF89A992780B50895EB
:1045C000A8E1B0E042E050E00C940C23262FF999CA
:1045D000FECF92BD81BDF89A019700B4021639F062
:1045E0001FBA20BD0FB6F894FA9AF99A0FBE089533
:1045F0000396272F0E94E7220E94E622252F0E9481
:10460000E722242F0C94E7220196272F0E94E7220D
:104610000C94E622DC01CB01FC01F999FECF06C027
:10462000F2BDE1BDF89A319600B40D924150504070
:10463000B8F70895FB01DC0104C08D910190801949
:1046400021F441505040C8F7881B990B0895F89405
:10465000FFCF270E270E300E300E320E300E300EEA
:10466000300E270E270E370E300E300E370EB710D5
:10467000DF108612DF1086121211331186123112EA
:104680003E125A1342136B13C712051405143D133F
:104690000514051497130514A713EB13051405143B
:1046A00005140514BA1305140514B7130514821361
:1046B000051405140314031403140314031403143E
:1046C000031403140314FD1305145A1336130514AD
:1046D0000514051405140514051405140514051412
:1046E0000514FD13051405143D13051401140114DC
:1046F0000114011401140114011401140114FD1317
:1047000084188418F718F7185519BB18BB18BB186C
:104710006F19DC19ED19ED1962216621CC21DD211B
:10472000E8210722DA21DA21DA21DA21DA210A2244
:0E4730000D221122362257225A225C228022AC
:10473E00CC070B0BCB07070B030BCA070181828338
:10474E00E200E900EA00B500B600B700CD00830133
:10475E00CC008A0192019401210223022402250237
:10476E00260227022A02B300B4006F007000313314
:10477E003236F4F5F6F7C6343597669490914022AA
:10478E006D225D013B01CE00AC00ED09060A260A42
:02479E003F0AD0
:00000001FF
