:100000000C94D5020C940D030C940D030C940D0369
:100010000C940D030C940D030C940D030C940D0320
:100020000C940D030C940D030C947F240C94532515
:100030000C94FE1E0C940D030C940D030C940D03F4
:100040000C940D030C940D030C940D030C940D03F0
:100050000C940D030C94551F0C940D030C940D037C
:100060000C940D030C940D030C940D030C940D03D0
:100070000C940D030C940D030C940D030C940D03C0
:100080000C94F0050C940D030C940D030C940D03CB
:100090000C940D030C940D030C940D030C940D03A0
:1000A0000C940D030C940D030C940D0329003A00DD
:1000B0003B003C003D003E003F004000410042004C
:1000C00043004400450000004C0035001E001F00A6
:1000D0002000210022002300240025002600270004
:1000E0002D002E002A004A002B0014001A000800E0
:1000F000150017001C0018000C00120013002F0040
:10010000300031004B0039000400160007000900E0
:100110000A000B000D000E000F0033003400280011
:100120002A004E00E10000001D001B00060019001F
:10013000050011001000360037003800E5005200BD
:100140004D00E000E300E2000000000000002C0091
:10015000000000000000E6000151500051004F0077
:100160000100010001000100010001000100010087
:100170000100010001000100010000000100010078
:100180000100010001000100010001000100010067
:100190000100010001000100010001000100010057
:1001A0000100010001000100010001000100010047
:1001B0000100010001000100010001000100010037
:1001C0000100010001000100010001000100010027
:1001D0000100010001000100010000000100010018
:1001E0000100010001000100010001000100010007
:1001F00001000100010001000100010000000000F9
:1002000000000100000000000000010001000100EA
:1002100001000100010001000100010001000100D6
:1002200001000100010001000100010001000000C7
:1002300001000100010001000100010001000100B6
:1002400001000100010001000100010001000100A6
:100250000100010001000100010001000100010096
:100260000100010001000100010001000100010086
:100270000100010001000100010001000100010076
:100280000100010001000100010001000100000067
:100290000100010001000100010001000100010056
:1002A0000100010001000100010001000100010046
:1002B000000000000000010000000000000001003C
:1002C0000100010001000100010001000100010026
:1002D0000100010001000100010001000100010016
:1002E0000100000001000100010001000100010007
:1002F00001000100010001000100010001000100F6
:1003000001000100010001000100010001000100E5
:1003100001000100010001000100010001000100D5
:1003200001000100010001000100010001000100C5
:1003300001000100010001000100010001000100B5
:1003400001000000010001000100010001000100A6
:100350000100010001000100010001000100010095
:10036000010001000000000000000100000000008A
:100370000000010001000100010001000000000078
:10038000000000002A2B28000000000000000000F0
:100390000000000000000029000000002C1E342096
:1003A000212224342627252E362D3738271E1F20BC
:1003B0002122232425263333362E37381F04050601
:1003C0000708090A0B0C0D0E0F1011121314151645
:1003D0001718191A1B1C1D2F3130232D3504050643
:1003E0000708090A0B0C0D0E0F1011121314151625
:1003F0001718191A1B1C1D2F3130354C0000000036
:1004000000000000000000000000000000000000EC
:1004100000000000000000000000000000000000DC
:100420007E0F00D4FFFFFFC7000000782403770091
:1004300069006C00620061002E00740065006300BA
:100440006800200057005400370035002D0041009F
:1004500000001603770069006C00620061002E0046
:1004600074006500630068000000040309040902C9
:100470005B00030100A0FA09040000010301010070
:100480000921110100012240000705810308000134
:1004900009040100020300000009211101000122EA
:1004A0002200070582032000010705030320000145
:1004B00009040200010300000009211101000122CA
:1004C0006D000705840320000112010002000000F6
:1004D0000882655A070100010200010660FF0961F8
:1004E000A1010962150026FF009520750881020907
:1004F00063150026FF00952075089102C0050109CB
:1005000080A101850319012AB700150126B70095BE
:100510000175108100C0050C0901A10185041901B4
:100520002AA002150126A002950175108100C005C0
:10053000010906A1018506050719E029E71500252F
:10054000019508750181020507190029EF1500259D
:100550000195F075018102050819012905950575B8
:10056000019102950175039101C005010906A101E0
:10057000050719E029E71500250195087501810295
:100580009501750881010507190029FF150026FF4F
:10059000009506750881000508190129059505755E
:1005A000019102950175039101C011241FBECFEF87
:1005B000DAE0DEBFCDBF04B603FE18C0809191041F
:1005C00090919204A0919304B09194048730904B41
:1005D000A740B04B59F410929104109292041092DB
:1005E000930410929404E0E0F8E3099511E0A0E090
:1005F000B1E0EAE2F1E502C005900D92A43AB1073C
:10060000D9F724E0A4EAB1E001C01D92A139B207F4
:10061000E1F70E947E180C9458280C940000E2E543
:10062000F4E06083418324E630E042E050E0BF0123
:10063000880F0C94BE04EF92FF921F93CF93DF9329
:100640007B01182F110FD0E0C0E0C0935204D701F6
:10065000AC0FBD1FE3E5F4E08D91819384E0E336B8
:10066000F807D1F724E630E041E150E062E574E0BC
:10067000812F0E94BE046096C03CD10531F7DF9106
:10068000CF911F91FF90EF900895CF93DF93C82FE4
:1006900045EC6EEF0E940F0340E06DEF8C2F0E943F
:1006A0000F03D0E040E06D2F8C2F0E940F03DF5F1F
:1006B000D831C1F745EC6EEF8C2F0E940F0341E05B
:1006C0006DEF8C2F0E940F03D0E040E06D2F8C2F38
:1006D0000E940F03DF5FD03CC1F745EC6EEF8C2F1B
:1006E0000E940F0343E06DEF8C2F0E940F0340E048
:1006F0006FE08C2F0E940F0340E060E18C2F0E947E
:100700000F034FEF61E08C2F0E940F0341E060E088
:100710008C2F0E940F038FE39CE90197F1F700C033
:100720000000DF91CF9108958036910548F4880F3D
:10073000E82FF0E0EE52FD4F608381E08093D70117
:1007400008951F93CF93DF93182FD0E0C0E0612F5F
:10075000CE010E9494032196C036D105C1F7DF91E6
:10076000CF911F910895880FE82FE695E695E695BD
:10077000F0E0E955FE4F2081382F377081E090E09E
:1007800001C0880F3A95EAF7662331F0822B808307
:1007900081E08093A601089580958223F8CFCF93BE
:1007A000C82F8091D701882379F045EC6EEF8C2F0C
:1007B0000E940F0341E06DEF8C2F0E940F0362ED4A
:1007C00072E08C2F0E941B031092D701CF910895E5
:1007D0000F931F93CF93DF93D82F8091A601882387
:1007E000C9F045EC6EEF8D2F0E940F0340E06DEFD6
:1007F0008D2F0E940F0307EA11E0C0E0F80141913C
:100800008F016C2F8D2F0E940F03CF5FC831B1F77E
:100810001092A601DF91CF911F910F910895109230
:10082000B9008CE08093B80008959F92AF92BF9278
:10083000CF92DF92EF92FF920F931F93CF93DF93AC
:10084000B82EEB010E942E1F6C01EE24E394F12CD4
:10085000C431D10560F025E0E22EF12CCF3FDC075A
:1008600031F0CE0164E170E00E9405277B0184EA4B
:10087000A82E94E8992E1092BC00A092BC000E9471
:100880002E1F8C018091BC0087FF0DC08091B900A4
:10089000887F883039F18091B900887F803111F1EB
:1008A0000FEF1FEF09C00E942E1F801B910B8E15AA
:1008B0009F0540F30EEF1FEFCF3FDC07E1F2C601CB
:1008C0000E94461F8C179D07B0F2C801DF91CF919F
:1008D0001F910F91FF90EF90DF90CF90BF90AF905E
:1008E0009F900895B092BB009092BC000E942E1F72
:1008F0008C018091BC0087FF0AC08091B900887F7D
:10090000883111F0803461F610E000E0DECF0E9403
:100910002E1F801B910B8E159F0558F3CBCF0F9385
:100920001F93CF93DF93EB018093BB0084E8809308
:10093000BC000E942E1F8C018091BC0087FF11C05B
:100940002091B900287F81E090E0283211F490E0F6
:1009500080E0919581959109DF91CF911F910F9141
:100960000895CF3FDC0741F30E942E1F801B910B9F
:100970008C179D0708F38EEF9FEFEECFCF92DF929B
:10098000EF92FF920F931F93CF93DF936B018A0136
:100990007901B9010E941504E6010C0D1D1DC01757
:1009A000D10761F424E92093BC00DF91CF911F911E
:1009B0000F91FF90EF90DF90CF90089597FDF2CFC9
:1009C000B70189910E948F04EACFAF92BF92CF9274
:1009D000DF92FF920F931F93CF93DF93362F472F12
:1009E000282FF82E682F722F822F442309F462C01B
:1009F000042F10E0C22FD0E056E0359FC001112433
:100A0000EFEFF0E0BF010E940527832F90E0880FF1
:100A1000991F35E5369FD001379FB00D11248A1BF1
:100A20009B0B982F990F980F6F01C01AD10ACC9E7B
:100A3000D001CD9EB00DDC9EB00D11248B2F949F64
:100A4000A0011124452F55276F01C41AD50ACC9E49
:100A5000A001CD9E500DDC9E500D11245F01A91AFE
:100A6000B108A09E6001A19ED00CB09ED00C1124B4
:100A7000CD2CDD24EC19FD09EC9F8001ED9F100DBC
:100A8000FC9F100D1124912F62307105E9F048F49C
:100A90006115710569F061307105D1F09B2F852FCB
:100AA00007C064307105B9F0D0F066307105B1F758
:100AB000692F722FDF91CF911F910F91FF90DF90DF
:100AC000CF90BF90AF900895922F2B2F812FF0CF12
:100AD000922F252FEDCF9B2F822F212FE9CF2B2F68
:100AE0008F2D952FE5CF40E00C94E504CF930E9425
:100AF0000F0480E50E944503C0E061E08C2F0E9456
:100B0000B303CF5FC036C9F760E080E5CF910C94A6
:100B1000E8038091D90181110EC081E08093D90151
:100B20008DE0809391009FB7F89423E02093990083
:100B3000809398009FBF0895E1E7F0E08081826094
:100B4000808308958093E30108958093E2010895DE
:100B500080E00C94A103809107010C94A103FF9203
:100B60000F931F93CF93DF93F82E0E94A82760E680
:100B700070E00E941927D0E0C0E08C011127F1102D
:100B800003C00C171D0731F40E94A827682FCE015F
:100B90000E9494032196C036D10589F7DF91CF9149
:100BA0001F910F91FF900895CF93DF93E5E0F1E05F
:100BB0006581768182810E947305D62F672FC82FA9
:100BC00087E390E00E9494036D2F8FE390E00E94F2
:100BD00094036C2F87E490E0DF91CF910C94940301
:100BE0001F920F920FB60F9211240F931F932F9302
:100BF0003F934F935F936F937F938F939F93AF93A5
:100C0000BF93CF93EF93FF938091D8018431B8F4D1
:100C10008F5F8093D801FF91EF91CF91BF91AF91FA
:100C20009F918F917F916F915F914F913F912F9104
:100C30001F910F910F900FBE0F901F9018958091EC
:100C4000DE019091DF01A091E001B091E1010196F8
:100C5000A11DB11D8093DE019093DF01A093E001FF
:100C6000B093E1018091DA019091DB01A091DC0168
:100C7000B091DD018F3F2FEF9207A207B20759F025
:100C80000196A11DB11D8093DA019093DB01A09321
:100C9000DC01B093DD018091E301882321F0809194
:100CA000050180FD1FC0809106018823C9F020EB5B
:100CB00034E0829FA001839F500D1124052E000C6B
:100CC000660B770B81E00091DA011091DB01209136
:100CD000DC013091DD01401751076207730718F0FE
:100CE00080E001C081E0C82FC17080FD13C08091F9
:100CF00008019091040180930401813069F08823F8
:100D000011F0823061F00E94A805C11184CF0E94C9
:100D1000D40581CF80E0EDCF0E94AB05F6CF81E016
:100D2000923009F480E00E94AF05EFCFFC01808192
:100D30008930E1F028F4873049F0883099F008953F
:100D40008B30E1F0B8F08C30E9F0089591E08181CA
:100D5000811101C090E08091050190FB80F98093A2
:100D60000501089581818093060108958181809312
:100D700007010895818180930801089581818093FE
:100D800009010895818180930A01828180930B017A
:100D90000895FC0180818930A1F028F4873049F062
:100DA000883061F008958B3091F070F08C3091F0C4
:100DB00008958091050181708183089580910601D5
:100DC000FBCF80910701F8CF80910801F5CF80918A
:100DD0000901F2CF80910A01818380910B01828306
:100DE000089547E050E067E270E085E091E00C9400
:100DF000C52747E050E067E270E085E091E00C94A1
:100E0000E32760E080E50C94CF038091080190E037
:100E100001968430910514F083E090E080930801FE
:100E20000C94F906809108018150990B97FF02C03C
:100E300090E080E08430910514F083E090E08093AE
:100E400008010C94F9068091090190E00196843024
:100E5000910514F083E090E0809309010C94F90669
:100E6000809109018150990B97FF02C090E080E0CA
:100E70008430910514F083E090E0809309010C9494
:100E8000F9068091070190E008968F3F910519F0CF
:100E900014F08FEF90E0809307010C94F906809195
:100EA00007018850990B97FD80E0809307010C940F
:100EB000F906FB012281222341F01092DA011092FF
:100EC000DB011092DC011092DD0182302FE59207E8
:100ED00029F148F481152FE5920799F081309F455B
:100EE000B9F081E0089584302FE5920719F1E0F020
:100EF00085309F45B1F78281882349F00E943007F1
:100F000005C08281882319F00E94410780E008957E
:100F100082818823E1F30E944F07F8CF82818823E2
:100F2000B1F30E940507F2CF8281882381F30E94EA
:100F30001207ECCF8281882351F30E942307E6CF6A
:100F40000E948B18882341F00E94F1060E947605CA
:100F50000E9489050C949C050E94F906F7CF0C9419
:100F6000FC160E9401070C94FD160F931F93CF935C
:100F7000DF93EC018B010E945907C0318FE5D80740
:100F800061F0C131EFE5DE07F1F0B801CE01DF918C
:100F9000CF911F910F910C940B08F8018281882347
:100FA00071F081E00E94FB0D43E062E081E00E946D
:100FB000760880E0DF91CF911F910F91089581E035
:100FC0000E94060EF1CFF8018281882311F082E0A1
:100FD000E9CF82E0F5CFCF93C82F0E94A5058C2FD3
:100FE000CF910C94C20980E00C94A205FC01DC01B5
:100FF0002D91CD01283031F0293031F0273031F4F6
:101000000C9496060C94C9060C94F9068FEF808315
:10101000089581E0089581E0089508950C940D08E5
:101020001F93CF93DF9300D000D00F92CDB7DEB7E0
:1010300049835A836B833091E50189819A8131110B
:101040001DC06623B9F02223A9F00E94810E182F3B
:10105000682F89819A810E942D0E69817A81812F62
:101060000F900F900F900F900F90DF91CF911F91E5
:101070000C94D21B0E94590E182FEFCF0E94810EA4
:1010800069817A81EDCFFC01262F408151816281F7
:10109000738184810C94100881E00895CF93DF93CD
:1010A000EC0160E00E944308BE01DF91CF910C94F7
:1010B0000E08E1E0F0E0DF0102C0AA0FBB1F6A9555
:1010C000E2F7BD01DF0102C0AA0FBB1F4A95E2F79C
:1010D0006A2B01C0EE0F2A95EAF7962F98239613F4
:1010E00002C08E2B0895E0958E230895242F462F5D
:1010F000682F80910A020E9459080C94EA0D0C9402
:10110000AF070C94B1070C94D00908950E94820D8A
:101110000E9485082FEF84E39CE02150804090409E
:10112000E1F700C000000C94791F0F931F93CF9339
:10113000DF938C0161E00E944308EC01B8010E943A
:10114000E1188823D9F1B801CE010E94B5078823A0
:10115000A9F1B801CE010E94331D882379F1B801AD
:10116000CE010E94CD19882349F1B801CE010E9419
:101170009D1C882319F1F8018281882361F0CA350A
:10118000FDE5DF0721F170F4C115ECE5DE07A1F004
:10119000CE3DDC45C9F0C801DF91CF911F910F9181
:1011A0000C940908CB358DE5D807A1F0CC35DD4589
:1011B00091F70E943213EFCF0E94860880E0DF9102
:1011C000CF911F910F9108950E94EB13F7CF0E94CA
:1011D0003B13E1CF0E943E13DECF0E94D3090C9453
:1011E000F307DF92EF92FF920F931F93CF93DF935A
:1011F000E82FF0E0E458FC4FD490282F2695269550
:10120000269530E0F901E45EFB4F0491877010E011
:10121000082E02C0159507950A94E2F70170112770
:10122000F901E45FFB4FE490F12C082E02C0F59425
:10123000E7940A94E2F791E0E922FF24F901E450EF
:10124000FC4FC491D0E002C0D595C7958A95E2F7CE
:10125000C170DD270115110519F081EE0E94250AE4
:10126000E114F10419F086EE0E94250A8D2D0E94EA
:10127000150BEF2819F086EE0E94AF0A012B19F02A
:1012800081EE0E94AF0ACD2B51F08CE2DF91CF911D
:101290001F910F91FF90EF90DF900C94150BDF9151
:1012A000CF911F910F91FF90EF90DF900895EF92F3
:1012B000FF920F931F93CF93DF93EC01162F0AE059
:1012C0008881882309F454C0813009F04EC0898197
:1012D000813099F47E0122E0E20EF11C8A810E94A5
:1012E000150BE7012196812F815050F3EFE9FFE0C4
:1012F0003197F1F700C00000F7CF823041F47E0152
:1013000082E0E80EF11C8A810E94250AEACF833030
:1013100041F47E01E2E0EE0EF11C8A810E94AF0AE8
:10132000E0CF843011F02196DDCF2A81229690E023
:1013300080E0AE014F5F5F4F2053330B2A30310501
:1013400048F0019778F2EFE9FFE03197F1F700C03C
:101350000000F7CF089FB001099F700D1124C9014B
:10136000860F971F2981EA01E4CF0E94F108BACFC6
:10137000DF91CF911F910F91FF90EF90089560E062
:101380000C945709089581E008950C94C3090895B9
:10139000CF93C82F0E94EB078C2FCF910C94C509D7
:1013A00080E00C94C8090E948F1D0C94C8090E940B
:1013B0008F1D9091E401981721F08093E4010C9423
:1013C000C8090895CF93DF93CDB7DEB72B970FB63B
:1013D000F894DEBF0FBECDBF4F83588769877A87E9
:1013E0008B8761110E9467121E821D8285E0FE01BB
:1013F0003796DE01119601900D928A95E1F78C8166
:101400009D81892B89F449815A816B817C818D81F1
:101410009E810E9488112B960FB6F894DEBF0FBEF6
:10142000CDBFDF91CF91089589819A8189238F3F24
:1014300051F3CE0101960E944C088111E4CFEBCF0D
:10144000FC01808191810C94AE0ECF93C82F88232C
:1014500009F483C08238C1F40E948F1D81FD7DC0D4
:1014600089E30E9422120E9497122FEF81EE94E0EE
:10147000215080409040E1F700C0000089E30E94C5
:101480002912CF910C9497128338A1F40E948F1DDA
:1014900080FD63C083E50E9422120E9497122FEF05
:1014A00081EE94E0215080409040E1F700C00000C0
:1014B00083E5E5CF8438A1F40E948F1D82FD4DC0E5
:1014C00087E40E9422120E9497122FEF81EE94E08F
:1014D000215080409040E1F700C0000087E4CFCF6A
:1014E0008CEF8C0F813A90F46C2F80910E019091CB
:1014F0000F010E94F51D882329F08C2F0E942912CC
:101500000E9497128C2F0E942212BBCF80E28C0F78
:10151000883048F4C77081E001C0880FCA95EAF7A7
:101520000E944A12AECFEBE5EC0FE33040F4F0E05E
:10153000E55BFE4F808190E0CF910C94B51DC85AB9
:10154000C73158F4EC2FF0E0EE0FFF1FE35EFE4FC3
:1015500080819181CF910C94CB1DCF9108958823E8
:1015600009F44BC0823871F40E948F1D81FF45C081
:1015700089E30E9422120E94971289E30E94291295
:101580000C949712833859F40E948F1D80FF35C048
:1015900083E50E9422120E94971283E5EFCF8438E0
:1015A00059F40E948F1D82FF28C087E40E942212F6
:1015B0000E94971287E4E2CF9CEF980F913AF0F2E5
:1015C00090E2980F983050F4877091E001C0990F25
:1015D0008A95EAF7892F0E945012D2CF9BE5980F87
:1015E000933020F490E080E00C94B51D885A873148
:1015F00020F490E080E00C94CB1D08951F93CF93CE
:10160000DF93182FEB010E94250A209731F4812FD8
:10161000DF91CF911F910C94AF0A8FE99FE0019762
:10162000F1F700C000002197F0CF70E060E089334F
:1016300011F460E570E00C94FE0A882321F00E940A
:101640004A120C9497120895882321F00E94501298
:101650000C9497120895BF92CF92DF92EF92FF926F
:101660000F931F93CF93DF936C01D62FC72FFC01ED
:101670001281F580F2949FE0F9220E944012E82E38
:101680008823B9F0E12E1123A1F08C2F807F8034C4
:1016900021F080E28D0F8830B0F08091670482FDE8
:1016A00012C082E00E9401130E94401291E0E82ED5
:1016B000E926BC2EB2948FE0B822EB2DF0E0E65A7A
:1016C000F74D0C944F27E12CF4CF0C2F0F70C07FF7
:1016D00011F00295007F112399F0002359F080E268
:1016E0008D0F883010F0D11107C0802F0E944A1250
:1016F0000E9497128D2F41C0802F0E945A12F8CF5E
:101700008D2F0E94AF0A002309F43FC080E28D0FA5
:10171000883010F0D11104C0802F0E94501203C0F5
:10172000802F0E9460120E9497122FC00C2F0F7002
:10173000C07FC03211F00295007FDD2381F0D130EF
:1017400009F469C0112309F473C0FF2009F469C0CA
:10175000F601858180FFCECF8F70858362C0809136
:10176000670482FF38C0112359F0002329F0802F2D
:101770000E944A120E94971280E00E94250A05C02A
:1017800080E00E94AF0A0111C7CFEB2DE850FF0B9C
:10179000349720F40E948F1D0E94C809EE2009F49E
:1017A00052C10E943C1280FD4EC1F60112820E947D
:1017B00036120E94FB0DC6010E94440D0E94361293
:1017C000DF91CF911F910F91FF90EF90DF90CF901D
:1017D000BF900C94060E112389F0F11006C00E94F0
:1017E0007A12802B0E941D0BD0CFF1E0FF12F7CFB1
:1017F0000E947A12802B0E948012C7CFF11006C07F
:101800000E948D12802F0E94240BBFCF21E0F21680
:1018100009F4BBCFF5CF112331F035E03F1508F4C3
:10182000B4CF802FDFCF84E08F1508F4AECFEACF9E
:10183000FF2041F3D93349F4FFEF27EE33E0F150B5
:1018400020403040E1F700C000008D2F0E94AF0A19
:101850009CCF8C2F86958695837069F0813009F036
:1018600094CF8D2F9C2F9370111102C090E080E0D7
:101870000E94CB1D8ACF8D2F9C2F9370111102C017
:1018800090E080E00E94B51D80CF8C2F837079F5A9
:1018900011117BCF4D2F429546954770440F440F51
:1018A0008D2F8F70042E01C0880F0A94EAF72D2F18
:1018B0002071D4FF07C02FE030E001C0220F4A950D
:1018C000EAF72095C695C695C370822BC23049F0C1
:1018D00058F4C13019F00E94DC0D57CF0E94D70D8B
:1018E00054CF0E94E10D51CF0E94D50D4ECF869569
:1018F000112311F08C2F8170882309F446CF4D2FCE
:10190000429546954770440F440F8D2F8F70042EDB
:1019100001C0880F0A94EAF72D2F2071D4FF07C069
:101920002FE030E001C0220F4A95EAF72095C695D6
:10193000C695C370822BC23049F058F4C13019F0FB
:101940000E94220E22CF0E941D0E1FCF0E94270E42
:101950001CCF0E94EA0D19CFCF70112329F08C2FD4
:101960000E94FB0D8D2F3ECF8D2F0E94240B8C2FBC
:101970000E94060E0ACFD23F51F160F4D03FB9F079
:10198000D13F81F0112309F449C0F110B3CE8C2F5F
:101990008F7121C0D33F11F1D43FA1F7809167042B
:1019A00082FF26C08C2F8F71112311F314C01123D5
:1019B00049F084E08F1508F4E8CE8C2F8F710E94D7
:1019C000120EE3CE95E09F1508F4DFCEF6CF8C2FF4
:1019D0008F711111CDCF0E94FB0DD7CE112329F0AD
:1019E0008C2F8F710E94F30DD0CE0E94F00DCDCEC2
:1019F000112349F0CF718C2F0E94FB0D63E08C2FD7
:101A00000E94E612C2CE81E00E940113E1E0EF15D0
:101A100008F0BBCE82E00E940113B7CEF1100ACFCE
:101A20008C2F8F71A5CF4C2F4F706D2FC6010E9448
:101A3000D4140E94DC0EA9CE4C2F4F706D2FC6011E
:101A40000E94D714A2CEDF91CF911F910F91FF90EA
:101A5000EF90DF90CF90BF9008950F931F93CF9397
:101A6000DF93EC01688179818A810E94B80E8C0134
:101A70000E942C0E0E94D40DB801CE01DF91CF91AF
:101A80001F910F910C942B0BCF93DF93EC018B8163
:101A90009C81892B29F08881998189238F3F59F472
:101AA000DF91CF910895CE010E942D0DCE01DF91DF
:101AB000CF910C944E08CE010E9495088111F3CF6E
:101AC0000E944012882361F38A81882349F3809120
:101AD000670482FDE5CF82E0DF91CF910C94011382
:101AE00090E080E00E94B51D90E080E00E94CB1D58
:101AF0000E9467120E9477120C9497120E94301273
:101B00000C94700D0E9457120C947E0DE92FE295F3
:101B1000EF70E250EE3070F4F0E0E659F74D0C94BF
:101B20004F27803F19F020F4883E20F481E008958B
:101B3000843FE1F380E00895883EC0F3813FD1F710
:101B4000F5CF93FB882780F90895FC01808191816E
:101B50000E94AE0E0C94860DCF93DF9300D000D080
:101B60000F92CDB7DEB70F900F900F900F900F90A0
:101B7000DF91CF910895CF93DF9300D000D000D0B4
:101B8000CDB7DEB726960FB6F894DEBF0FBECDBF39
:101B9000DF91CF91089508950C94CB0D0E94CC0D48
:101BA00080930B020C94700D08950C94CE0D9091BF
:101BB0000B02892B0C94CE0D90910B0289230C946F
:101BC000CE0D90910B0289270C94CE0D0C94CB0D69
:101BD0000C94E60D0E94E80D80930A020C94700D9F
:101BE00080E00C94EA0D91E001C0990F8A95EAF724
:101BF000892F0C94EA0D21E030E001C0220F8A9574
:101C0000EAF780910A02822B0C94EA0D21E030E081
:101C100001C0220F8A95EAF7209580910A0282235B
:101C20000C94EA0D21E030E001C0220F8A95EAF71A
:101C300080910A0282270C94EA0D90910A02892B66
:101C40000C94EA0D90910A0289230C94EA0D90916C
:101C50000A0289270C94EA0D08952FE0929F800DC7
:101C60001124982F977041E001C0440F9A95EAF72C
:101C700086958695869593E0899FF0011124EA5117
:101C8000FE4F90E080E070E05191DF0111979B01E1
:101C9000082E02C0369527950A94E2F72170219507
:101CA0002527242325272C9301968330910561F75E
:101CB00008952FE0929F800D1124982F977086959C
:101CC0008695869523E0829FF0011124EA51FE4F0C
:101CD00050E040E080E0219130E0092E02C03695CE
:101CE00027950A94E2F721703327042E01C0220FB2
:101CF0000A94EAF7822B4F5F5F4F4330510559F743
:101D00000895CF92DF92FF920F931F93CF93DF93AB
:101D10006C0100910A0280910B02082BC7E0D0E011
:101D200010E0FC2EC8010C2E02C0959587950A94F0
:101D3000E2F780FD0CC02197A0F7F12C8F2DDF91E9
:101D4000CF911F910F91FF90DF90CF900895B60132
:101D50008C2F0E94EA15019771F3F0CFCF93DF9398
:101D6000EC010E94810EBE01DF91CF910C94EA1527
:101D70001F93CF93DF93EB019091E501992331F00D
:101D8000CB01DF91CF911F910C94AE0E882379F097
:101D9000CB010E94810E182F682FCE010E942D0EBC
:101DA000BE01812FDF91CF911F910C94EA15CB01D9
:101DB0000E94590E182FF4CFEF92FF920F931F93AA
:101DC000CF93DF938C01892B81F0F12CEE24E394E7
:101DD000E8012196F8018491843770F4843008F08A
:101DE0005FC08130B1F08230A1F1DF91CF911F91BE
:101DF0000F91FF90EF900895853709F44CC008F4D7
:101E00003DC09CE7980F903780F78F770E94AF0A0C
:101E100049C00E5F1F4FFE01849190E2980F9830E9
:101E200060F48770FE2D01C0FF0F8A95EAF78F2FAF
:101E30000E946A120E94971202C00E94250A8F2DEA
:101E4000815030F2EFE9FFE03197F1F700C0000078
:101E5000F7CF0E5F1F4FFE01849190E2980F9830EC
:101E600050F48770FE2D01C0FF0F8A95EAF78F2F7F
:101E70000E947012DFCF0E94AF0AE1CF0E5F1F4FAA
:101E8000FE01C491C150D8F28FE99FE00197F1F7AC
:101E900000C00000F7CF0E5F1F4FFE01F490CFCFC0
:101EA0000E94250A8E01CBCF1F93CF93DF93C09161
:101EB0000C0216E080910D028C1304C0DF91CF91CB
:101EC0001F910895D0E01C9FF0011D9FF00D11247B
:101ED000E25FFD4F408151816281738184819581F0
:101EE0000E94BB0D2196C770E5CF40913E025091F4
:101EF0003F026091400270914102809142029091B4
:101F000043020C94BB0DFF920F931F93CF93DF936B
:101F100080914302807FD1F4809140028823B1F008
:101F200080910C0210910D0260913E0270913F026F
:101F3000A0914102B0914202062F0723C0910C01EB
:101F4000D0910D0196E0F92E181306C0DF91CF91C4
:101F50001F910F91FF90089590E0109711F00F3F9F
:101F600019F401968770F0CFF89E9001F99E300D1C
:101F70001124F901E25FFD4F41814713F2CF408107
:101F80004613EFCF42814111ECCF438154814A1B6C
:101F90005B0B4C175D0728F7809143028F708061BF
:101FA00080934302F901ED5EFD4F80818F70806167
:101FB00080838EE392E00E94440DDF91CF911F91C8
:101FC0000F91FF900C94540FAF92BF92CF92DF927B
:101FD000EF92FF920F931F93CF93DF93CDB7DEB7AE
:101FE00061970FB6F894DEBF0FBECDBF8C0185E0C0
:101FF000F801DE011D9601900D928A95E1F7F80136
:10200000E2808EE3C82E82E0D82E6091410270916A
:1020100042026115710509F45FC190913E02209161
:102020003F02892F82238F3F09F456C1408151819D
:10203000A380B480F0904002F501E61BF70BBF01CE
:10204000E0910C01F0910D01FF2009F4F6C08091A0
:102050004302382F307F6E177F0708F0AFC0311171
:1020600079C0FE2C251323C0941321C0E1101FC09A
:102070008F708061809343020E94750FC6010E9499
:10208000440D80914302F80185838F2D61960FB630
:10209000F894DEBF0FBECDBFDF91CF911F910F919E
:1020A000FF90EF90DF90CF90BF90AF900895AB2856
:1020B00029F0842F85238F3F09F027C180E0F82F76
:1020C000F170DF2E80FF3CC080910C0220910D0248
:1020D00036E0821315C04D875E878D859E850E94F0
:1020E000AE0E292F22952F702230F0F0243018F5F3
:1020F0009F70F1F0F8019581907FD1F4D12C1EC032
:1021000090E0389FF001399FF00D1124E25FFD4F00
:102110006181651306C06081641303C062816E1122
:102120000FC001968770D5CF9F7011F0882331F3CF
:10213000805E883018F3C8010E94440DFD2CA5CFA5
:10214000EE2009F4A2CF8091430281608093430284
:10215000F12C9BCF251306C0941304C0F801EE2088
:1021600009F487C0C8010E94A50D882319F1EE204B
:1021700009F180914302803270F020913E0230914B
:102180003F0238872F831986BB86AA868C87CE01AB
:1021900007960E94440D86E0F801AEE3B2E001909C
:1021A0000D928A95E1F70E94830F0E94750FFF241C
:1021B000F3946BCFC8010E94440DF9CF311113C0C5
:1021C0007A2DB98AA88A6E2D89890E94AC0D8EE37A
:1021D00092E00E94440D86E0F60111928A95E9F79B
:1021E0000E94750FB5CF25130FC094130DC0E110D9
:1021F0000BC0F8018583C8010E94440D86E0F601FA
:1022000011928A95E9F741CFC8010E94A50D882354
:1022100089F2EE2079F280914302803208F4BBCF3C
:1022200020913E0230913F023A8329831B82BD8276
:10223000AC828E83CE010196ACCF6E177F0708F07B
:102240003EC0FE2CEE2009F4B5CF25132AC094130E
:1022500028C08091430280FD1BC0982F907FC1F061
:10226000F8018583903F31F0982F907F905F8F70B9
:10227000892B8583C8010E94440D86E0F801AEE3F6
:10228000B2E001900D928A95E1F70E94750FFDCEA4
:1022900086E0F801AEE3B2E001900D928A95E1F795
:1022A000F4CEC8010E94A50D811175CF8091430223
:1022B000816080934302C8010E94440DE6CE7A2DCE
:1022C000B98AA88A6E2D89890E94AC0D86E0F60134
:1022D00011928A95E9F7D9CFEE2009F46BCFC801A6
:1022E0000E94A50DF82E882309F464CF86E0F8013A
:1022F000AEE3B2E001900D928A95E1F78EE392E0B1
:102300000E94200A0E94830FC0CF81E08E25D7CE85
:102310001F93CF93DF93CDB7DEB72C970FB6F8940A
:10232000DEBF0FBECDBF4F83588769877A878B8703
:102330009C87CE0107960E94E40F882369F08A8566
:102340009B85892B39F04F815885842F85238F3FBA
:1023500009F071C016E05FC086E0FE013796DE012D
:10236000119601900D928A95E1F78A859B85892BBC
:1023700089F388859F8189238F3F61F320910D0226
:1023800030E0C90101968770992740910C024817E7
:10239000190671F40E94820D10920D0210920C0227
:1023A00086E0EEE3F2E0DF011D928A95E9F7D2CFF5
:1023B00096E0929FD001939FB00D1124A25FBD4F74
:1023C000FE01319601900D929A95E1F780930D02EE
:1023D0000E94540FBFCF819FC0011124825F9D4F87
:1023E0000E94E40F8823E9F0E0910C021E9FF001A7
:1023F0001124E25FFD4F40815181628173818481AC
:1024000095810E94BB0D80910C0290E0019687702F
:10241000992780930C0280910C0290910D028913F0
:10242000DACF2C960FB6F894DEBF0FBECDBFDF918A
:10243000CF911F91089569857A858B859C850E942F
:10244000BB0D88CF682F80910E0190910F010C94E5
:10245000751E682F80910E0190910F010C94801EC3
:1024600080910E0190910F010C948B1E809164025B
:102470008595859585950895809164028770089566
:1024800090916402977081E009F480E00895809152
:102490008802089590918802892B8093880208957C
:1024A00080959091880298239093880208951092C5
:1024B0008802089590918702892B8093870208955E
:1024C00080959091870298239093870208951092A7
:1024D0008702089590918602892B80938602089541
:1024E0008095909186029823909386020895109289
:1024F0008602089580916502089508950C947D12D6
:102500009091670492FD08C090916502981721F0A0
:10251000809365020C947E12089580916502882351
:1025200029F01092650280E00C947E120895CF93FA
:10253000DF93E0910E01F0910F018091880280837A
:10254000E0910E01F0910F01808190918702892B1B
:102550008083E0910E01F0910F01808190918602BD
:10256000892B808390916502992381F0E0910E017F
:10257000F0910F018081892B808380910E019091D1
:102580000F010E94E11D81110E948D12C0910E0168
:10259000D0910F0140E250E064E472E0CE010E946D
:1025A000B827892B69F080E2FE01A4E4B2E0019033
:1025B0000D928A95E1F7CE01DF91CF910C949B1D8E
:1025C000DF91CF91089508950C94E31290916704E0
:1025D00092FD10C098E0899F90011124622B6093B6
:1025E00064020E94FB0D8091640285958595859516
:1025F0000C94E4120C94FB0D1092640280E00C9495
:10260000E412909164028095892380936402282FBC
:10261000277091F4282F082E000C330B9217130605
:1026200059F09091670492FD07C085958595859531
:102630000E94060E0C94FC1208959091670492FB80
:10264000222720F9281769F080FB92F990936704FC
:1026500080916604909167040E94681382E00C9454
:10266000011308958091670482FB882780F991E027
:1026700089270C941D1381E00C941D1380E00C94A9
:102680001D136FEF7FEF90E080E00C94112890E035
:1026900080E00E94DD27893E9E4F11F40C948B1838
:1026A00080E0089582E090E00C94D52783E090E0EC
:1026B0000C94D527CF9384E090E00E94D527C82FB3
:1026C00082E290E00E94D527982F8C2FCF91089519
:1026D000CF93C92F682F84E090E00E94F3276C2FDE
:1026E00082E290E0CF910C94F327AB01BC018FE024
:1026F00090E00C940528AB01BC0183E190E00C94C0
:10270000052860E070E0CB010C947B1360E070E082
:10271000CB010E9475130C94811369EE7EEF90E05B
:1027200080E00E94112860E082E090E00E94F327A0
:1027300060E083E090E00E94F32710920B0260E0DB
:1027400084E090E00E94F32760E082E290E00E9443
:10275000F32760E085E090E00E94F32760E086E0E8
:1027600090E00E94F3276FEF87E090E00E94F3274C
:1027700040E050E0BA0188E090E00E94052860E067
:102780008DE090E00E94F32740E050E0BA0188E13C
:1027900090E00E94052860E087E190E00E94F32726
:1027A00040E050E0BA018CE190E00E94052870E022
:1027B00060E080E290E00E94112840E050E0BA0121
:1027C00088E190E00E94052880E00E94A4180E9401
:1027D000C9180C9486130C948D13682F8EE090E02A
:1027E0000C94F3270E943A1F6093990270939A0207
:1027F00080939B0290939C02609395027093960243
:102800008093970290939802089585B7806885BF5A
:1028100085B7806885BF0895089508950C940D14B8
:1028200008950C9410140E94051488EC96E10E94FF
:10283000851D0E940C140C940E1481E008950C94D4
:102840001D14089508950E9421140C9422140E94CE
:10285000E2160C94C7090E94251F0E94D8180E94F6
:10286000CE170E9427140C9411145F926F927F92DE
:102870008F929F92AF92BF92CF92DF92EF92FF9290
:102880000F931F93CF93DF93CDB7DEB72A970FB681
:10289000F894DEBF0FBECDBF0E94E317A82E8111B2
:1028A0000E94F21339E8832E32E0932E10E000E00C
:1028B000502E802F0E94FE166C01F40161907190E1
:1028C0004F016816790609F454C080919D0281FD7C
:1028D0000E940717B12CEE24E394F12C6C247D2484
:1028E000C3018E219F21892BF1F10E941F1488239F
:1028F000A9F0BE825F82CE20DF2081E0CD2809F4DE
:1029000080E088870E942E1F8160782F9A878987B0
:102910004E815F8168858A850E94E209000F111F40
:10292000F801E757FD4F80819181E826F926F18271
:10293000E08281E0A11001C080E02A960FB6F894F1
:10294000DEBF0FBECDBFDF91CF911F910F91FF90E2
:10295000EF90DF90CF90BF90AF909F908F907F903F
:102960006F905F900895B394EE0CFF1CFFE0BF12D0
:10297000B7CF0F5F1F4F0630110509F099CF8FEFCA
:1029800089838A831B820E942E1F8160782F9D83FA
:102990008C8349815A816B818D810E94E209C9CF64
:1029A0000E9435140C94D70990E080E008950895B2
:1029B000FC01EE0FFF1FE45DFB4F8591949108959C
:1029C000CF93DF930E94EE15EC01811520E592076D
:1029D00008F041C0811530E4930708F0B4C0803E90
:1029E000910518F5803C910508F09DC0883A910545
:1029F00070F4853A910508F08EC081309105F9F0A8
:102A00000097E9F00497D8F4D0E0C0E018C08F3BFD
:102A10009105D0F7C85AD0E0CC0FDD1FC25BDE4F66
:102A20000990D881C02DD4640AC08115904258F411
:102A3000C11581E0D80718F4C83ED10528F7CE01AA
:102A4000DF91CF910895C11590E3D90708F071C0C7
:102A5000CE019F706AC0811525E5920758F5811552
:102A600034E5930708F09EC0811542E5940750F4C1
:102A7000C11581E5D80708F469C0DC2FCC27C16FE8
:102A8000D06ADDCF982F969596959E0123703327B7
:102A9000C115D34508F077C0C1E0D0E002C0CC0F2B
:102AA000DD1F2A95E2F720E2929FC0011124C82B76
:102AB000D92B67C0C11589E5D807A8F4C11598E5D9
:102AC000D90708F074C0C11526E5D20708F09CCFDD
:102AD0008C2F0E948516C82FD0E0DC2FCC27CC2766
:102AE000DF71D062ACCFC1153AE5D30708F464C0FA
:102AF000CE0190568115904208F086CF8D2F8F71B0
:102B00000E94851690E0982F882788279F719C0146
:102B10002C2BE901E6CFC55AD0E0C458DE4FC8815E
:102B2000D0E0D0648CCF805C91090E94D814EC0175
:102B300086CFCE019927D3FF03C0EC01D86C7FCF9D
:102B4000EC01D06C7CCFDF70D06A79CFCE01E4E0AD
:102B500096958795EA95E1F783702C2F2695269513
:102B6000237090E2299F90011124382B8C2F8370C1
:102B7000C1E0D0E002C0CC0FDD1F8A95E2F7C22B86
:102B8000D32BDC685CCFC1E0D0E002C0CC0FDD1FEE
:102B90002A95E2F730E2939FC0011124C82BD92B6C
:102BA000DA684DCFD82FCC27C46FD06A48CFDC2F3E
:102BB000CC27C06FD06A43CF8C2F8F700E948516B0
:102BC00034E0D695C7953A95E1F7CF709C2FEC018C
:102BD000D06935CF0E94D21B0C94E0148238910545
:102BE000B1F1B0F48133910509F475C048F489322C
:102BF000910509F469C08A32910509F473C00895FA
:102C00008533910509F459C08933910501F108957F
:102C1000833E9105A9F138F4803E9105F9F0823E9A
:102C2000910549F10895863E9105A9F1873E9105E8
:102C3000C9F1843E910519F52091670421FF1FC059
:102C40008091660484FD14C087EE90E00895209181
:102C500066042370A1F080EE90E008952091660450
:102C600020FD47C03091670430FF09C024FF44C0F5
:102C700090E080E004C02091660422FDF7CF089523
:102C80002091660422FD3BC03091670430FDE3CF04
:102C900024FFF5CFEDCF2091660423FFF0CF24FD74
:102CA000E7CFD2CF2091660423FD2CC0309167047A
:102CB00031FFEECF84EE90E008952091660425FF69
:102CC000DECF89E290E008952091660425FFD7CFFA
:102CD00085E390E008952091660426FFD0CF8AE234
:102CE00090E008952091660426FFC9CF81E390E02B
:102CF000089589E390E0089583EE90E0089582EED0
:102D000090E0089586EE90E008959091660492FF19
:102D100006C0282F28712830F9F4877F846093FF3C
:102D200006C0282F28712831F1F4877E8461209114
:102D3000670420FF06C0382F38713830D9F4877FF8
:102D4000816021FF06C0282F28712831D1F4877EA9
:102D5000816194FD877E0895282F24712430F9F62F
:102D60008B7F8860DCCF282F2471243101F78B7E84
:102D70008861DDCF382F3171313019F78E7F88604F
:102D8000E0CF282F2171213121F78E7E8861E1CF9C
:102D900080E008950C9441130E94E3178FE39CE9AF
:102DA0000197F1F700C000000E94E31780E00E9445
:102DB000FE1680FF04C00E94CA160C94791F089565
:102DC0000C94CC160E944713811102C00E94EB1391
:102DD0000E94521380939D020E945A13909367049D
:102DE000809366040E94E0160E9456130E94D50D3F
:102DF00080910A020C94E80D08950895E82FF0E000
:102E0000EE0FFF1FEC58FB4F8081918108950895CC
:102E100080EA8A95F1F7089500C008950C94081788
:102E2000F894E82FE295EF70F0E031A1282F2F7091
:102E300081E090E001C0880F2A95EAF7982F9095DD
:102E4000932391A392A1892B82A3789408950F9341
:102E50001F93CF93DF93CFE7D1E089918F3F11F09C
:102E60000E94101781E0CE38D807B9F7CEE8D1E03C
:102E700004E911E089918F3F11F00E9410170C179F
:102E80001D07C1F7DF91CF911F910F9108958F9288
:102E90009F92BF92CF92DF92EF92FF920F931F9378
:102EA000CF93DF93D82EE92EF62E8A01C62FD0E0DD
:102EB000C158DE4F28812F3F09F464C0F894E22FF7
:102EC000E295EF70F0E031A12F7081E090E001C059
:102ED000880F2A95EAF7932F982B91A392A18095BA
:102EE000892382A378940E940C178EE8882E81E0B3
:102EF000982EED2DFE2DBF01645F7F4FE12C680100
:102F0000C094D094D401BD904D0181919191AF01B5
:102F100042505109BFEFBB1679F12B2D22952F702E
:102F200030E0D90190962C9130E0BB2DBF7002C0EB
:102F300035952795BA95E2F720FD1EC0802B912B81
:102F4000DA018D939C93EE24E3946E177F07D1F6FC
:102F500088818F3F11F00E9410176E2D8F2DDF9109
:102F6000CF911F910F91FF90EF90DF90CF90BF9086
:102F70009F908F900C940E178C219D21DA018D93D8
:102F80009C93E3CFDF91CF911F910F91FF90EF9032
:102F9000DF90CF90BF909F908F9008950E94271749
:102FA0008CE0E4E7F4E0DF01982F1D929A95E9F7B1
:102FB000E8E6F4E0DF011D928A95E9F786E00E94D9
:102FC00038180C947F08CF92DF92FF920F931F93D3
:102FD000CF93DF93CDB7DEB72C970FB6F894DEBF53
:102FE0000FBECDBF8E010F5F1F4F8CE0F801119215
:102FF0008A95E9F7F12CCC24C394D12CA6016F2D2E
:10300000C8010E944717F394CC0CDD1CFFE0FF12AF
:10301000F5CF4CE050E0B80188E694E00E94B82774
:10302000FF24F394009709F4F12C892B41F08CE0F4
:10303000F801A8E6B4E001900D928A95E1F72F2DF2
:1030400046E064E774E088E694E00E9439180E9444
:1030500081088F2D2C960FB6F894DEBF0FBECDBF22
:10306000DF91CF911F910F91FF90DF90CF90089546
:103070000895FF920F931F93CF93DF93F82E092F9C
:10308000162FD72FC42F222349F081E08093A0026E
:103090000E942E1F90939F0280939E028091A00217
:1030A0008823A1F080919E0290919F020E94461F6A
:1030B000059760F0EF2DF02FA12FBD2F90E080E05D
:1030C000D0E08C179D0744F01092A002DF91CF91C1
:1030D0001F910F91FF900895219131912D933D9370
:1030E0000196EFCF0E9454210E942B140C94602172
:1030F0000E9464210E94D0140C947E210E94B71E6D
:103100000E943B210E9413140E9472180E9478189A
:103110000E942314FBCF83E290E00E94D5278232E5
:1031200089F484E290E00E94D527813059F485E249
:1031300090E00E94D52791E0843209F090E0892F39
:103140008170089580E0FCCFCF93C82F6FEF81117D
:1031500062E283E290E00E94F3276FEFC11161E029
:1031600084E290E00E94F3276FEFC11164E285E2F0
:1031700090E0CF910C94F32786E290E00E94D5274F
:10318000682F70E090E080E0089586E290E00C9473
:10319000F32780E00E94A41860E070E0CB010E9459
:1031A000C5180E944A1B0E94361C81E00C94A4188A
:1031B0000E94A0070E948B18811102C00C94C918AC
:1031C0000895CF93FB01C281CC2309F19C012251C8
:1031D0003F452031310520F582510E94461CC0E058
:1031E0008C2FCF91089581E00E94FB0D43E062E0B7
:1031F00081E00E947608F3CF81E00E94060E43E052
:1032000062E081E00E947608EBCF82E0F6CF803169
:10321000FFE59F0789F381319F45B9F3C1E0E0CF16
:103220008031EFE59E07F9F281319F45C9F682E0D2
:10323000DBCFEF92FF920F931F93CF93DF93EC01BD
:10324000062FE881E150E33108F0A4C0F0E0E8582F
:10325000F74D0C944F27198289E08A83602FCE01A5
:10326000DF91CF911F910F91FF90EF900C9414205C
:103270008981823069F0833071F08130D9F40E9405
:103280003A1F0E9455276A837B838C839D83E6CFF8
:103290000E94BC18F6CF7E0110E0812F0E94FE161E
:1032A000F701928383831F5FF2E0EF0EF11C16306B
:1032B000A1F7D4CF602FCE010E94F607CFCF89812E
:1032C0008230C1F76A817B818C819D810E94552764
:1032D0000E94C518C3CF4B816A8189810E941C1B43
:1032E0009827892798279D838C83B8CF2C813D818F
:1032F0003227232732274B816A8189810E94351B1F
:10330000ADCF0E944A1BAACF0E94DF1B8983A6CFA4
:103310000E94E11B9827892798279A8389839ECF4B
:103320006B8170E089819A81AE014C5F5F4F982775
:10333000892798270E94E41B91CF6B8170E08981D7
:103340009A81AE014C5F5F4F9827892798270E948A
:103350000B1C84CF0E94361C81CF0E940A1BD6CF43
:103360006B8170E089819A81AE014C5F5F4F982735
:10337000892798270E94821B71CF6B8170E0898119
:103380009A81AE014C5F5F4F9827892798270E944A
:10339000A81B64CF8FEF888361CFCF93DF93EC01BD
:1033A000FB018281882309F433C1C330FDE5DF07C7
:1033B000C0F5CA3F9CE5D90730F49E0122503C4538
:1033C00024313105B0F50E945A139093670480931D
:1033D0006604C1318CE5D80709F4EEC008F069C075
:1033E000C930ECE5DE0709F4D5C0C8F5C5308CE579
:1033F000D80709F4C7C000F5C330ECE5DE0709F4CF
:10340000B9C008F0BBC0C230DC4509F4ADC0809142
:103410006604909167040E9468130E94820D80E008
:1034200008C0C136EDE5DE0771F2C53AFDE5DF07FC
:1034300051F2DF91CF910895809166048062C73088
:103440009CE5D90709F493C0809166048061C83077
:10345000DC4508F48CC080916604806488C080914B
:1034600066048B7FCD30FCE5DF0709F480C098F45B
:10347000809166048E7FCB309CE5D90709F477C034
:10348000809166048C60CC30DC4508F470C080917B
:1034900066048D7F6CC0809166048F7ECF30FCE522
:1034A000DF0709F464C008F47BC0809166048F7D57
:1034B0005EC0CD3F9CE5D90709F47AC050F5C5310F
:1034C000FCE5DF0709F486C098F480916604837FE9
:1034D000C3319CE5D90709F44AC008F471C00E94C1
:1034E000820D90916604892F97FB87F980583FC021
:1034F000CB3FFCE5DF0709F449C008F055C08091D7
:1035000067048160CA3FDC4509F081CF809367047E
:103510007ECFC130EDE5DE0709F468C0A8F4CF3FE7
:103520008CE5D80709F452C0809167048360C11507
:10353000DD4560F380916704982F909591708E7FA0
:10354000892B90FB81F9E2CFC136EDE5DE0709F466
:1035500051C0C53AFDE5DF0709F453C0C230DD456F
:1035600009F055CF80E043C080916604816080936C
:1035700066044DCF809166048260F9CF8091660425
:103580008460F5CF809166048860F1CF80916704F4
:103590008260BCCF0E94820D809166048068E7CF74
:1035A00080916604877FE3CF809167048E7FAECFE2
:1035B000809167048D7FAACF809166048F7BD7CFDF
:1035C0000E94820D809166048F77D1CF809167042D
:1035D0008C7F9CCF8091660482FB992790F921E033
:1035E000922790FB82F990FB83F9C1CF81E00E9482
:1035F000ED130DCF90916604892F8F7E94FF80612B
:10360000B6CF90916604892F8E7F90FF8160AFCFF7
:1036100081E00FCF84E0089550E0440F551F9EE1F4
:10362000699F400D511D112494EB899F400D511D40
:103630001124CA018E9608950F931F93CF93DF93A1
:103640000E940C1B8C010E94D527C82FD0E0DC2FD4
:10365000CC27C80101960E94D5279E01282BC901BD
:10366000DF91CF911F910F9108950F931F93CF93E7
:10367000DF93122F032F0E940C1BEC01602F0E947E
:10368000F327612FCE010196DF91CF911F910F910A
:103690000C94F327AF92BF92CF92DF92EF92FF92FA
:1036A0001F93CF93DF938CEAC82E80E0D82ED0E012
:1036B0007601C0E014C0F50125913491412F6C2FA3
:1036C0008D2F0E94351B82E0A80EB11C1F5F1F309A
:1036D00091F78EE1E80EF11CCF5FC63019F057016B
:1036E00010E0E9CFDF5F84EBC80ED11CD43001F7C6
:1036F000DF91CF911F91FF90EF90DF90CF90BF901F
:10370000AF900895EF92FF920F931F93CF93DF93A3
:10371000EC018A017C01E60EF71ECE018E96CE15D5
:10372000DF0539F4DF91CF911F910F91FF90EF905A
:103730000895C03D22E0D20740F40E94D527F80149
:1037400080830F5F1F4F2196E8CFF8011082F9CFD9
:10375000CF92DF92EF92FF920F931F93CF93DF935D
:103760007C016A018C01060F171FEC01CE018E96B9
:10377000C017D10749F4DF91CF911F910F91FF90AE
:10378000EF90DF90CF900895C03D22E0D20740F443
:10379000FE01EE19FF09EC0DFD1D60810E94F3276B
:1037A0002196E4CF462F843038F4763028F46F30F9
:1037B00018F4672F0C941C1B90E080E0089580E1C2
:1037C000089582E091E00895EF92FF920F931F9386
:1037D000CF93DF93EC018A017C01E60EF71ECE0148
:1037E00082509D4FCE15DF0539F4DF91CF911F91A7
:1037F0000F91FF90EF900895C23021E0D20740F47E
:103800000E94D527F80180830F5F1F4F2196E7CFD5
:10381000F8011082F9CFCF92DF92EF92FF920F93CF
:103820001F93CF93DF937C016A018C01060F171F52
:10383000EC01CE0182509D4FC017D10749F4DF91B2
:10384000CF911F910F91FF90EF90DF90CF9008954F
:10385000C23021E0D20740F4FE01EE19FF09EC0D61
:10386000FD1D60810E94F3272196E3CFCF93DF9364
:10387000CEEFD2E060E0CE010E94F3272196C11581
:1038800084E0D807B9F7DF91CF910895DF92EF92E6
:10389000FF920F931F93CF93DF9300D000D0CDB74B
:1038A000DEB7F82E8FE08F1540F08FEF93E00E9487
:1038B000D5270EEF12E08823C1F00F900F900F90E4
:1038C0000F90DF91CF911F910F91FF90EF90DF90BC
:1038D0000895011584E0180781F3C8010E94D527D7
:1038E000811101C0FA940F5F1F4FF110F2CF1982BE
:1038F0001A821B821C82DD24D39478018FEFE81A90
:10390000F80AC8010E94D52789831A828823A9F260
:103910009FEF980F933078F48A83D9820E5F1F4F00
:10392000C7010E94D5278B83882339F2CE010196E7
:103930000E94BF09E2CF8701F9CFCF93DF93EB015C
:1039400086319C4511F50E9447129A81992399F07E
:103950008A7A91E009F490E09093A102811109C064
:1039600089E20E9422120E94971280E0DF91CF919B
:10397000089585E3F6CF8091A102811104C089E208
:103980000E942912F0CF85E3FBCF81E0EFCF0F93A8
:103990001F93CF93DF93C42FD22FFC018281882302
:1039A000C9F04093A4020E942E1F9093A30280931B
:1039B000A20280E28C0F883008F050C0C77081E00E
:1039C00001C0880FCA95EAF7DF91CF911F910F913F
:1039D0000C941D0B1091A402141335C08091A20207
:1039E0009091A3020E94461F883C910560F5C0E2B9
:1039F000CD0F1D17B9F080E2810F883040F41770A9
:103A000081E001C0880F1A95EAF70E94240BC830A4
:103A100048F481E09D2F977001C0880F9A95EAF7CE
:103A20000E941D0B802F0E94150BC830B8F4D77070
:103A300081E001C0880FDA95EAF7DF91CF911F91FD
:103A40000F910C94240B80E28C0F883038F4C770EF
:103A500081E001C0880FCA95EAF7EFCFDF91CF91DF
:103A60001F910F9108950F939C01CB01233F4CE5CB
:103A7000340759F1A8F4283DFCE53F0701F1293D41
:103A80004CE53407D1F1273D3C4591F406E221EEA7
:103A900041EE67ED7CE50E94C71C80E00F91089520
:103AA000253FFCE53F07E9F0B0F0263F3C45F9F043
:103AB000FC018281882339F11092A402EFCF07E242
:103AC00025EE45EE68ED7CE5E6CF06E221EE40EE20
:103AD00063EF7CE5E0CF07E225EE44EE64EF7CE5A2
:103AE000DACF06E221EE42EE65EF7CE5D4CF07E2C5
:103AF00025EE46EE66EF7CE5CECF08E221E045EE0E
:103B000069ED7CE5C8CF81E0C9CF9093A501809392
:103B1000A40108959093AA028093A9020895E091C8
:103B2000A902F091AA02309721F00190F081E02DD6
:103B3000099480E00895E091A902F091AA023097DB
:103B400099F020911C01222359F02091660427FF4F
:103B500007C0DC012C9111962C93119726E02C9331
:103B60000280F381E02D099408952091A7023091FD
:103B7000A8022817390771F09093A8028093A70232
:103B8000E091A902F091AA02309721F00680F78116
:103B9000E02D099408952091A5023091A6022817DE
:103BA000390771F09093A6028093A502E091A902D3
:103BB000F091AA02309721F00084F185E02D09945C
:103BC0000895FC01329680911C01882321F0809198
:103BD00066049EE187FF96E080E0915008F4089526
:103BE00021912223D1F38F5FF8CF662301F1209139
:103BF0001C012223F1F02091660427FF1AC0462FF2
:103C00004695469546954E3190F4677021E030E038
:103C100002C0220F331F6A95E2F7840F911DFC0149
:103C2000828190E02823392381E0232B69F480E00E
:103C30000895FC01329608962191261721F0E81785
:103C4000F907D1F7F4CF81E008959C01FC01329689
:103C50009FEF80E04191461751F09F3F19F44111C9
:103C600001C0982F8F5F8630A9F79F3F09F4089510
:103C7000290F311D97FD3A95F90162830895FC01E2
:103C8000329608962191261303C0DF0111971C92EA
:103C9000E817F907B9F70895E62FE695E695E69552
:103CA000EE3168F4E80FF92FF11D677021E030E084
:103CB00001C0220F6A95EAF78281822B82830895E0
:103CC000E62FE695E695E695EE3170F4E80FF92FCC
:103CD000F11D677021E030E001C0220F6A95EAF71C
:103CE0002095828128232283089520911C0122237C
:103CF00029F02091660427FD0C944C1E0C94251E7F
:103D000020911C01222329F02091660427FD0C94A8
:103D1000601E0C943F1EFC01329680911C0188238A
:103D200051F08091660487FF06C08EE1DF011D928D
:103D30008A95E9F7089586E0F9CF08950C949D1EC1
:103D4000811105C081E08093AB020C949E1E82E03D
:103D5000FACF83E08093AB020C949E1E0C94A01EBD
:103D600081E08093AB020C949E1E0C94B01E0895CB
:103D700080918804843031F10E9483081092AC0253
:103D800088E190E020E40FB6F894A8958093600055
:103D90000FBE2093600083B7817F846083BF83B7A9
:103DA000816083BF7894889583B78E7F83BF0FB679
:103DB000F894A895809160008861809360001092CB
:103DC00060000FBE089508950895CF930E94E31EEA
:103DD0000E94E3170E94E41EC0E08C2F0E94FE1692
:103DE000892B31F4CF5FC630C1F780E0CF910895C1
:103DF00081E0FCCF0E94820D0C94ED081F921FB64B
:103E00001F9211248F939F93AF93BF938091AC0225
:103E1000811113C08091800490918104A09182044B
:103E2000B09183044196A11DB11D809380049093AD
:103E30008104A0938204B0938304BF91AF919F91BA
:103E40008F911F901FBE1F90189582E084BD93E054
:103E500095BD9AEF97BD80936E0008952FB7F894A3
:103E60008091800490918104A0918204B091830498
:103E70002FBF08952FB7F89460918004709181044A
:103E800080918204909183042FBF08959C014FB7C5
:103E9000F8948091800490918104A0918204B09163
:103EA00083044FBF821B930B089578941F921FB613
:103EB0001F9211248F939F93AF93BF93809180049F
:103EC00090918104A0918204B09183040196A11D78
:103ED000B11D8093800490938104A0938204B093D9
:103EE0008304BF91AF919F918F911F901FBE1F9030
:103EF000189581E08093E00080E28093D8001092D2
:103F0000C9008FE19EE40197F1F700C0000087E04F
:103F100090EBDC018093910490939204A09393041E
:103F2000B093940488E19CE00FB6F894A895809330
:103F300060000FBE90936000FFCF8091D002089583
:103F40000895CF93DF93EC0180911C018823B1F198
:103F50008091660487FF32C060E284E08093E900CC
:103F60008FEF9091E800815095FD06C095ED9A95F0
:103F7000F1F700008111F5CF8091E80085FF1BC0AB
:103F800080911C0170E050E040E0811104C050E0DD
:103F900040E068E070E0CE010E9425228091E800B8
:103FA0008E778093E80080E2FE01A0EBB2E0019002
:103FB0000D928A95E1F7DF91CF91089568E081E055
:103FC000CDCF8093AD027093AF026093AE0280912B
:103FD00088048430F9F48093E9008FEF9091E80031
:103FE000815095FD06C095ED9A95F1F7000081117D
:103FF000F5CF8091E80085FF0DC050E040E063E020
:1040000070E08DEA92E00E9425228091E8008E7790
:104010008093E8000895BC0184E00C94E11FBC018A
:1040200083E00C94E11F0895CF93FC01603221F5E9
:1040300080918804843001F5C091E900CF7020910F
:10404000EC00922F917020FD90E8C92B82E08093C4
:10405000E9008091E80080FF0CC050E040E060E2A1
:1040600070E0CF010E9425228091E8008E77809336
:10407000E800CF70C093E900CF9108958091870444
:10408000811109C00E9404240E9461248091E200F1
:1040900084608093E20008951092870408950C9440
:1040A000B01E6091840481E0611101C080E00C9435
:1040B000A91E9091880481E0943009F080E060911D
:1040C00084040C94AE1E42E061EC81E00E948023E7
:1040D00042E261EC84E00E94802342E261EC82E0F3
:1040E0000E94802342E260EC83E00E948023909152
:1040F000880481E0943009F080E0609184040C949D
:10410000A01E80918A04833009F462C030F48130AB
:10411000D9F1823009F49EC008958A3009F48AC02A
:104120008B3009F470C0893009F051C08091890446
:10413000813209F04CC080918D0490918E040097DB
:1041400019F0029709F043C08091E800877F8093BF
:10415000E8008091E80082FF36C09091F3008091E2
:10416000F200029731F48091F100813011F0863035
:1041700021F48091F1008093D0028091E8008B7748
:104180008093E8000C94B42380918904813AF9F477
:104190008091E800877F8093E80080918D04909162
:1041A0008E04892B61F460E280EB92E070E00E9463
:1041B000C3228091E8008B778093E800089560E047
:1041C00090E080E0F3CF809188048111C2CF089500
:1041D00080918904813AD9F780918D0490918E0461
:1041E000892BA9F78091E800877F8093E800809170
:1041F000E80080FFFCCF80911C018093F10080914A
:10420000E8008E77BDCF80918904813201F78091DB
:104210008D0490918E04892BD1F68091E800877FE0
:104220008093E8000E94B42380918B0480931C014A
:104230000C94820D80918904813249F68091E800C6
:10424000877F8093E8000E94B42380918C04809340
:10425000D102089580918904813A09F0B8CF809104
:10426000E800877F8093E8008091E80080FFFCCF22
:104270008091D102C2CF84B7877F84BF0FB6F894F4
:10428000A895809160008861809360001092600022
:104290000FBE80E890E00FB6F89480936100909391
:1042A00061000FBE0C94B51E0E9404240E9461247C
:1042B000E2EEF0E080818460808378940C94EA26BA
:1042C00080E191E00C948A1D809188048530A9F4E6
:1042D00080918804853011F00C94FA1E0E94B81E5B
:1042E000809186048823A1F30E94E51E882381F330
:1042F0000E940F220E94820DEBCF0895CF93DF938F
:10430000CDB7DEB7A0970FB6F894DEBF0FBECDBF16
:1043100080918804843009F583E08093E9008091DE
:10432000E80082FF1AC08091E80090E085FF09C094
:1043300050E040E060E270E0CE0101960E947422FD
:1043400091E08091E8008B778093E800992329F031
:1043500060E2CE0101960E941919A0960FB6F8945A
:10436000DEBF0FBECDBFDF91CF9108950C94B82171
:10437000292F33272330310521F168F4213031050D
:1043800009F443C02230310509F444C090E080E0D4
:1043900030E020E026C02132310551F122323105D2
:1043A000A9F76330710590F7FB01EE0FFF1FE95687
:1043B000FE4F208131816C567E4FFB01808190E061
:1043C00010C099278130910581F0009729F002975C
:1043D000E9F6ECE2F4E002C0EAE6F4E0849190E071
:1043E0009F01FA01318320830895E2E5F4E0F6CFDE
:1043F0006330710558F6660F771FFB01E356FE4FD9
:104400002081318189E090E0ECCF82E190E029ECDD
:1044100034E0E7CF8BE590E02EE634E0E2CF80E1B8
:1044200089BD82E189BD09B400FEFDCF8091D8002D
:104430008F7D8093D8008091E00082608093E000BF
:104440008091E00081FDFCCF0895AF92BF92CF92A2
:10445000DF92FF920F931F93CF93DF936C01EB01D9
:104460008A010E94D323F82E811123C00115110562
:1044700039F0F80180819181C81BD90BC80ED91E73
:10448000B12CA12C2097A9F08091E80085FD22C0D5
:104490008091E8008E778093E80001151105A1F066
:1044A000F80180819181A80EB91EB182A08285E0B9
:1044B000F82E8F2DDF91CF911F910F91FF90DF90FC
:1044C000CF90BF90AF9008950E94D3238823D1F25C
:1044D000F82EEFCFF60181916F018093F1002197C3
:1044E000FFEFAF1ABF0ACECFAF92BF92CF92DF924B
:1044F000FF920F931F93CF93DF936C01EB018A011F
:104500000E94D323F82E811123C00115110539F023
:10451000F80180819181C81BD90BC80ED91EB12C1E
:10452000A12C2097A9F08091E80085FD22C0809100
:10453000E8008B778093E80001151105A1F0F801E0
:1045400080819181A80EB91EB182A08285E0F82EEB
:104550008F2DDF91CF911F910F91FF90DF90CF9022
:10456000BF90AF9008950E94D3238823D1F2F82EF4
:10457000EFCF8091F100F60181936F012197FFEF5A
:10458000AF1ABF0ACECFFC0180918F0490919004A6
:1045900086179707A0F06115710529F49091E8003E
:1045A0009E779093E80090E06115710551F49111A8
:1045B00008C08091E80082FF34C080E00895BC010B
:1045C000F2CF809188048823C1F18530C1F18091B8
:1045D000E80083FD30C08091E80082FDEACF809141
:1045E000E80080FFE1CF8091F3002091F200382FA6
:1045F0006115710519F02830310558F091E0283027
:10460000310509F090E02091E8002E772093E80032
:10461000CBCF81918093F100615071092F5F3F4FA3
:10462000E7CF80918804882341F0853041F0809164
:10463000E80083FFBECF81E0089582E0089583E023
:104640000895FC0180918F0490919004861797073C
:10465000A0F06115710529F48091E8008E778093B0
:10466000E80090E06115710551F4911108C0809146
:10467000E80082FF35C080E00895BC01F2CF809150
:1046800088048823C9F18530C9F18091E80083FD51
:1046900031C08091E80082FDEACF8091E80080FF80
:1046A000E1CF8091F3002091F200382F6115710560
:1046B00019F02830310558F091E02830310509F023
:1046C00090E08091E8008E778093E800CBCF8491D2
:1046D0008093F1003196615071092F5F3F4FE6CF13
:1046E00080918804882341F0853041F08091E80072
:1046F00083FFBDCF81E0089582E0089583E00895AF
:10470000982F973028F08F708093E90081E008950A
:104710009093E900242F762F50E0981731F0709194
:10472000EC002091ED005091F00021FD02C09F5F50
:10473000E8CF3091EB003E7F3093EB003091ED00FD
:104740003D7F3093ED003091EB0031603093EB0012
:104750007093EC002093ED005093F0002091EE0058
:1047600027FDE5CF80E008958091890487FF13C07D
:104770008091E80082FF06C08091E8008B778093EB
:10478000E80004C0809188048111F2CF08958091DF
:1047900088048823D9F38091E80080FFF8CF8091C6
:1047A000E8008E77ECCF2091E4003091E50095E6AB
:1047B000A9012091EC00822F817020FF06C080911A
:1047C000E80080FF06C080E008952091E80022FD07
:1047D0001AC080918804882389F0853089F08091FF
:1047E000EB0085FD0FC02091E4003091E5004217F9
:1047F0005307F9F29150E1F684E0089582E00895BC
:1048000083E0089581E008950E9472240E947A2432
:10481000E0EEF0E0808181608083E8EDF0E080816F
:104820008F77808319BCA7EDB0E08C918E7F8C933D
:1048300080818F7E80831092870408950F931F9349
:10484000CF93DF930E9472240E947A24C8EDD0E0B7
:1048500088818F77888388818068888388818F7D2D
:10486000888319BC109288041092840410928604E4
:104870001092850400EE10E0F80180818B7F808328
:1048800088818160888342E060E080E00E9480232C
:10489000E1EEF0E080818E7F8083E2EEF0E08081C7
:1048A00081608083808188608083F80180818E7F31
:1048B0008083888180618883DF91CF911F910F91E0
:1048C0000895E8EDF0E080818F7E8083E7EDF0E0F1
:1048D00080818160808384E082BF81E0809387044F
:1048E0000C941E24E8EDF0E080818E7F808310928E
:1048F000E20008951092DA001092E10008951F92EC
:104900000F920FB60F9211242F933F934F935F9303
:104910006F937F938F939F93AF93BF93EF93FF9387
:104920008091E10082FF0BC08091E20082FF07C00E
:104930008091E1008B7F8093E1000E94E9268091C5
:10494000DA0080FF19C08091D80080FF15C08091E7
:10495000DA008E7F8093DA008091D90080FF96C0C4
:1049600080E189BD82E189BD09B400FEFDCF81E00F
:10497000809388040E943E208091E10080FF19C04E
:104980008091E20080FF15C08091E2008E7F8093CD
:10499000E2008091E20080618093E2008091D80083
:1049A00080628093D80019BC85E0809388040E94BF
:1049B00051208091E10084FF2BC08091E20084FFB0
:1049C00027C080E189BD82E189BD89B5982F9170AA
:1049D00080FFFBCF8091D8008F7D8093D80080919D
:1049E000E1008F7E8093E1008091E2008F7E8093D2
:1049F000E2008091E20081608093E2008091840473
:104A0000882309F449C084E0809388040E945920D7
:104A10008091E10083FF29C08091E20083FF25C0DF
:104A20008091E100877F8093E10082E08093880499
:104A3000109284048091E1008E7F8093E100809148
:104A4000E2008E7F8093E2008091E200806180939B
:104A5000E20042E060E080E00E9480238091F0006C
:104A600088608093F0000E944F20FF91EF91BF91EA
:104A7000AF919F918F917F916F915F914F913F91F6
:104A80002F910F900FBE0F901F90189519BC109288
:104A900088040E944C2070CF8091E30087FD93E052
:104AA00090938804B3CF1F920F920FB60F921124E8
:104AB0002F933F934F935F936F937F938F939F9326
:104AC000AF93BF93CF93DF93EF93FF93D091E90020
:104AD000DF708091EC00C82FC17080FDC0E810929B
:104AE000E9008091F000877F8093F00078940E9425
:104AF00097251092E9008091F00088608093F00083
:104B0000CD2BCF70C093E900FF91EF91DF91CF9152
:104B1000BF91AF919F918F917F916F915F914F91D5
:104B20003F912F910F900FBE0F901F9018951F93DC
:104B3000CF93DF93CDB7DEB7AA970FB6F894DEBF59
:104B40000FBECDBF89E894E02091F100FC012193D4
:104B5000CF01F4E081399F07B9F70E94812080914D
:104B6000E80083FF1EC18091890490918A049A30E5
:104B700008F017C1E92FF0E0E557F74D0C944F27E7
:104B8000803899F0823809F00CC180918D048F70C3
:104B9000873008F006C18093E9008091EB0085FB27
:104BA000882780F91092E90006C0809185049091D1
:104BB0008604911182609091E800977F9093E800BD
:104BC0008093F1001092F1008091E8008E77E5C0AB
:104BD000882309F4D3C0823009F0E3C080918B04AC
:104BE0008111D6C080918D048F702FEF280F263051
:104BF00008F0D7C08093E9002091EB0020FFC8C0E7
:104C0000933031F48091EB0080628093EB00C0C060
:104C10009091EB0090619093EB0021E030E001C0B7
:104C2000220F8A95EAF72093EA001092EA00809119
:104C3000EB008860EACF8111B4C010918B041F771C
:104C40008091E3008078812B8093E3008091E800DD
:104C5000877F8093E8000E94B4238091E80080FF62
:104C6000FCCF8091E30080688093E30082E0111123
:104C700083E08093880495C08058823008F091C00A
:104C800080918B0490918C048C3D23E09207A1F5D8
:104C900083E08A838AE289834FB7F894DE01139612
:104CA00020E03EE051E2E32FF0E050935700E49122
:104CB00020FF03C0E295EF703F5FEF708E2F90E012
:104CC000EA30C0F0C7968D939D932F5F243159F73A
:104CD0004FBF8091E800877F8093E8006AE270E030
:104CE000CE0101960E94C3228091E8008B778093C9
:104CF000E80057C0C096E7CF60918D0470918E0494
:104D0000AE014F5F5F4F0E94B621BC01892B09F4B1
:104D100048C09091E800977F9093E80089819A813C
:104D20000E942123E1CF8038E1F58091E800877F60
:104D30008093E800809184048093F10045CF811135
:104D400030C090918B04923060F58091E800877FAD
:104D50008093E800909384040E94B423809184049B
:104D6000882311F084E005C08091E30087FDFACF2D
:104D700081E0809388040E94632013C080918B049B
:104D8000813079F481E0933009F080E080938604EB
:104D90001092E9008091E800877F8093E8000E94EC
:104DA000B4238091E80083FF0AC08091E800877FE8
:104DB0008093E8008091EB0080628093EB00AA96DC
:104DC0000FB6F894DEBF0FBECDBFDF91CF911F911C
:104DD00008950895CF93809188048823A1F0C0910D
:104DE000E900CF709091EC00892F817090FD80E8F0
:104DF000C82B1092E9008091E80083FD0E9497255E
:104E0000CF70C093E900CF910895AA1BBB1B51E15D
:104E100007C0AA1FBB1FA617B70710F0A61BB70B2A
:104E2000881F991F5A95A9F780959095BC01CD01CF
:104E3000089597FB072E16F4009407D077FD09D04C
:104E40000E94052707FC05D03EF4909581959F4F61
:104E50000895709561957F4F0895A1E21A2EAA1BBF
:104E6000BB1BFD010DC0AA1FBB1FEE1FFF1FA2171A
:104E7000B307E407F50720F0A21BB30BE40BF50B17
:104E8000661F771F881F991F1A9469F760957095A0
:104E9000809590959B01AC01BD01CF010895EE0F67
:104EA000FF1F0590F491E02D099469279627692743
:104EB00078278727782708958F929F92AF92BF9285
:104EC000CF92DF92EF92FF92CF93DF93EC01688154
:104ED00079818A819B81611571058105910521F494
:104EE00064E279ED8BE597E02DE133EF41E050E0AE
:104EF0000E94172849015A019B01AC01A7EAB1E4BD
:104F00000E9436286B017C01ACEEB4EFA501940140
:104F10000E944428DC01CB018C0D9D1DAE1DBF1DE0
:104F2000B7FF03C00197A109B04888839983AA837A
:104F3000BB839F77DF91CF91FF90EF90DF90CF9071
:104F4000BF90AF909F908F9008950E945C27089526
:104F500080E091E00E945C270895B0E0A0E080939B
:104F6000000190930101A0930201B0930301089501
:104F7000FB01DC0104C08D910190801921F44150A6
:104F80005040C8F7881B990B0895DC01CB01FC0148
:104F9000F999FECF06C0F2BDE1BDF89A319600B492
:104FA0000D9241505040B8F70895F999FECF92BD47
:104FB00081BDF89A992780B50895A8E1B0E042E054
:104FC00050E00C94C727DC01A40FB51F415050409E
:104FD00048F0CB01840F951F2E910E94F427415079
:104FE0005040D0F70895262FF999FECF92BD81BD8C
:104FF000F89A019700B4021639F01FBA20BD0FB617
:10500000F894FA9AF99A0FBE08950396272F0E94F2
:10501000F4270E94F327252F0E94F427242F0C94B5
:10502000F4270196272F0E94F4270C94F327052ECE
:1050300097FB1EF400940E942E2857FD07D00E9473
:105040002D2707FC03D04EF40C942E285095409544
:10505000309521953F4F4F4F5F4F08959095809524
:10506000709561957F4F8F4F9F4F08950E944928FB
:10507000A59F900DB49F900DA49F800D911D1124AC
:105080000895B7FF0C9436280E943628821B930B94
:105090000895A29FB001B39FC001A39F700D811D11
:1050A0001124911DB29F700D811D1124911D089531
:1050B000F894FFCF650B650B960B960B290CC50B6F
:1050C000C50BC50B450CAC0CBB0CBB0C130DC50BB9
:1050D000C50B1C0D910D910D9A0D9A0D9C0D9A0DFD
:1050E0009A0D9A0D910D910DA10D9A0D9A0DA10D8C
:1050F0002B1938195F196B19761981195A195A1910
:105100005A19CA19CA198419881990199D19AA1906
:10511000AD19B019BD19C025E825D126E825D1263D
:0A5120001B263C26D12693269F266D
:10512A0001000000FF0000FF010000FFC800660246
:10513A009D1FA11F13200F200B20A01F01E200E9D1
:10514A0000EA00B500B600B700CD008301CC008AA2
:10515A000192019401210223022402250226022738
:10516A00022A02B300B4006F007000818283E20059
:10517A00E900EA00B500B600B700CD008301CC0013
:10518A008A019201940121022302240225022602A5
:10519A0027022A02B300B4006F007000818283F5EF
:1051AA009531323393926766363534979694F1F097
:1051BA00C6F4F6F740226D6A05DB04FD0480049903
:0451CA0004B9040020
:00000001FF
