:100000000C94FC020C9434030C9434030C943403CD
:100010000C9434030C9434030C9434030C94340384
:100020000C9434030C9434030C94252A0C94F92A70
:100030000C9434030C9434030C9434030C94340364
:100040000C9434030C942E1B0C9434030C94340342
:100050000C9434030C9436250C9434030C94340320
:100060000C9434030C9434030C9434030C94340334
:100070000C9434030C9434030C9434030C94340324
:100080000C9434030C9434030C9434030C94340314
:100090000C9434030C9434030C9434030C94340304
:1000A0000C9434030C9434030C94340329001E0084
:1000B0001F0020002100220023002400250026002C
:1000C00027002D002E0001002B0014001A0008004C
:1000D000150017001C0018000C00120013002F0060
:1000E00030002A00390004001600070009000A0049
:1000F0000B000D000E000F0033003400280031000B
:10010000E1001D001B000600190005001100100091
:10011000360037003800E50001006400E000E3002D
:10012000E2000100000000002C0000000100E600D9
:100130002152E700E40032000100027803780478DD
:1001400001000100010001000100010001000100A7
:10015000010001000100010001000100007C01001C
:100160000100010001000100010001000100010087
:100170000100010001000100010001000100010077
:100180000100010001000100010001000100010067
:100190000100010001000100010001000100010057
:1001A0000100010001000100010001000100010047
:1001B00000000000AE00000001000100010001008D
:1001C000010001001E0F0500047F3F1F643214640C
:1001D0003214783C1E1E140A052223252628292ABB
:1001E0002C2D2F3032333536383A3B3D3E4042439A
:1001F0004547494A4C4E5051535557595A5C5E60D9
:1002000062646668696B6D6F71737577797B7D7FEA
:1002100081838587898A8C8E90929496989A9C9EE9
:100220009FA1A3A5A7A8AAACAEAFB1B3B4B6B8B905
:10023000BBBCBEBFC1C2C3C5C6C7C9CACBCCCDCE6D
:10024000D0D1D2D2D3D4D5D6D7D7D8D9D9DADADB50
:10025000DBDBDCDCDCDCDCDDDDDDDDDCDCDCDCDCDC
:10026000DBDBDBDADAD9D9D8D7D7D6D5D4D3D2D21B
:10027000D1D0CECDCCCBCAC9C7C6C5C3C2C1BFBE03
:10028000BCBBB9B8B6B4B3B1AFAEACAAA8A7A5A36E
:10029000A19F9E9C9A98969492908E8C8A8987852D
:1002A00083817F7D7B79777573716F6D6B6968660C
:1002B0006462605E5C5A5957555351504E4C4A49DE
:1002C00047454342403E3D3B3A3836353332302F86
:1002D0002D2C2A292826252322FFAA7F55400000FD
:1002E000000000000000000000010204060A0F17D1
:1002F000202C3A4A5D71879DB3C7DAE9F5FCFFFC13
:10030000F5E9DAC7B39D87715D4A3A2C20170F0AC9
:1003100006040201000000000000000000000001CF
:1003200001010101010101010202020202020202B5
:100330000203030303030303030404040404040487
:10034000050505050506060606060707070707084B
:10035000080808090909090A0A0A0B0B0B0C0C0CFE
:100360000D0D0D0E0E0E0F0F0F1010111111121298
:1003700013131414151516161717181819191A1A15
:100380001B1B1C1D1D1E1E1F202021222223242476
:10039000252626272829292A2B2C2D2D2E2F3031B2
:1003A0003232333435363738393A3B3C3D3E3F40C4
:1003B0004142434445464748494A4C4D4E4F5051AF
:1003C0005354555658595A5B5D5E5F616264656669
:1003D00068696B6C6D6F7072737577787A7B7D7EF0
:1003E0008082838587888A8C8E8F91939596989A40
:1003F0009C9EA0A2A3A5A7A9ABADAFB1B3B5B7BA58
:10040000BCBEC0C2C4C6C9CBCDCFD1D4D6D8DBDD2B
:10041000DFE2E4E7E9EBEEF0F3F5F8FAFDFF0000C8
:100420000000000000002A2B28000000000000004F
:1004300000000000000000000029000000002C1E49
:100440003420212224342627252E362D3738271E06
:100450001F202122232425263333362E37381F042C
:1004600005060708090A0B0C0D0E0F1011121314C4
:1004700015161718191A1B1C1D2F3130232D350482
:1004800005060708090A0B0C0D0E0F1011121314A4
:1004900015161718191A1B1C1D2F3130354C00006A
:1004A000000000000000000000000000000000004C
:1004B000000000000000000000000000000000003C
:1004C00000007E0F00D4FFFFFFC700000078080384
:1004D00068003600300000001403680069006E00F8
:1004E0006500790062007500730068000000040375
:1004F000090409025B00030100A0FA0904000001DD
:1005000003010100092111010001224400070581B6
:100510000308000109040100020300000009211181
:1005200001000122220007058203200001070503C4
:100530000320000109040200010300000009211149
:10054000010001223200070584032000011201008E
:100550000200000008D804BEEB0100010200010601
:1005600060FF0961A1010962150026FF0095207551
:100570000881020963150026FF0095207508910285
:10058000C005010980A101850319012AB7001501E1
:1005900026B700950175108100C0050C0901A10165
:1005A000850419012AA002150126A00295017510E3
:1005B0008100C005010906A101050719E029E71519
:1005C00000250195087501810295017508810105D5
:1005D00007190029FF150026FF0095067508810000
:1005E00005081901290515002501950575019102D8
:1005F000950175039101C00011241FBECFEFDAE011
:10060000DEBFCDBF04B603FE18C080914D039091AC
:100610004E03A0914F03B09150038730904BA740F9
:10062000B04B59F410924D0310924E0310924F03A9
:1006300010925003E0E0F8E3099511E0A0E0B1E08A
:10064000E0E2FEE502C005900D92A43EB107D9F7A5
:1006500023E0A4EEB1E001C01D92AD34B207E1F792
:100660000E94D5120C94A72E0C9400003E9A089577
:10067000CF93C82F0E945E04882319F0C1FD04C0E7
:10068000469A81E0CF9108954698FBCF8230B8F426
:100690006530A8F44E3098F450E09EE0699F400D1C
:1006A000511D1124FA0196E4899FE00DF11D1124DA
:1006B000EE0FFF1FE455FF4F85919491089581E05F
:1006C00090E0089581E008950E946203089581E01A
:1006D00008950E94620308950E9469030895089591
:1006E0000E946F030895A6E0B0E0E9E7F3E00C9400
:1006F000532D49835A839E833091EB0189819A81DE
:1007000031111AC03E81332399F0222389F00E94CF
:100710002709182F682F89819A810E94030969810E
:100720007A81812F0E9441102696E3E00C946F2D70
:100730000E941509182FF3CF0E94270969817A8139
:10074000F1CFFC01262F4081518162817381848128
:1007500095810E9473030895CF93DF93EC0161E0CC
:100760000E94A103BE010E946403DF91CF9108950E
:10077000CF93DF93EC0160E00E94A103BE010E94D1
:100780007003DF91CF91089508950E94FF070E94A2
:10079000C4032FEF84E39CE0215080409040E1F7B8
:1007A00000C0000008950E94C5030E945A250895C4
:1007B0000E94C5030E947E2508950F931F93CF9337
:1007C000DF938C0161E00E94A103EC01F8018581B7
:1007D00081110E947F1AB801CE010E94E21D811191
:1007E00006C080E0DF91CF911F910F910895B8016D
:1007F000CE010E946C038823A1F3B801CE010E94B0
:10080000681C882371F3B801CE010E9468238823F5
:1008100041F3B801CE010E949B1F882311F3B80158
:10082000CE010E94DA228823E1F2B801CE010E94B3
:100830009E1A8823B1F2B801CE010E94AC2388230E
:1008400081F2F8018581882361F0C330FCE7DF077E
:10085000E9F058F4C115ECE7DE07A9F0C130DC4738
:10086000B9F0C8010E946703BDCFCB358CE7D8072C
:10087000A9F0CC35ECE7DE0771F0CA35DC4789F723
:100880000E947F0DEECF0E94D303ABCF0E94870D55
:100890000E94D803A6CF0E94750DE3CF0E94830D5E
:1008A000E0CF0E94D62408950E94941B0E946A04FF
:1008B0000E94D6190E94DB240895089581E00895CE
:1008C0000895CF93C82F0E945D048C2F0E94380397
:1008D000CF9108950E94FA230E9461040895CF9356
:1008E0000E94FA23C82F8091E6018C1779F0C093FB
:1008F000E6010E941B256093E7017093E801809355
:10090000E9019093EA018C2F0E946104CF91089530
:10091000ADE0B0E0EEE8F4E00C94542D4887598740
:100920006A877B878C879D8791110E94AD0C1F82FF
:1009300086E0FE013896DE01119601900D928A95AF
:10094000E1F78D8181110DC029813A814B815C8154
:100950006D817E818F810E94E00B2D96E2E00C94E8
:10096000702DCE0101960E94AC038111EDCFF5CF21
:10097000FC012481213021F4808191810E9454095D
:100980000895CF93C82F8823C9F08238C9F40E94F4
:10099000072481FD13C089E30E94650C0E94E60CC8
:1009A0002FEF87EE93E0215080409040E1F700C0A8
:1009B000000089E30E946D0C0E94E60CCF9108951F
:1009C0008338A1F40E94072480FDF8CF83E50E94BC
:1009D000650C0E94E60C2FEF81EE94E021508040E0
:1009E0009040E1F700C0000083E5E4CF8438A1F433
:1009F0000E94072482FDE2CF87E40E94650C0E94DA
:100A0000E60C2FEF81EE94E0215080409040E1F71A
:100A100000C0000087E4CECF8CEF8C0F813A90F4B9
:100A20006C2F80910401909105010E94712488230C
:100A300029F08C2F0E946D0C0E94E60C8C2F0E94D6
:100A4000650CBACF80E28C0F883048F4C77081E023
:100A500001C0880FCA95EAF70E94900CADCFEBE574
:100A6000EC0FE33040F4F0E0E55AFE4F808190E077
:100A70000E941524A3CFC85ACB3108F09FCFEC2F8A
:100A8000F0E0EE0FFF1FEB5DFE4F808191810E9431
:100A90003A2494CF882309F44DC0823879F40E9417
:100AA000072481FF47C089E30E94650C0E94E60C81
:100AB00089E30E946D0C0E94E60C0895833859F476
:100AC0000E94072480FF36C083E50E94650C0E94C7
:100AD000E60C83E5EECF843859F40E94072482FFA8
:100AE00029C087E40E94650C0E94E60C87E4E1CFF0
:100AF0009CEF980F913AE8F290E2980F983050F4FA
:100B0000877091E001C0990F8A95EAF7892F0E94BA
:100B1000960CD1CF9BE5980F933028F490E080E0BD
:100B20000E9415240895885A8B3120F490E080E0CB
:100B30000E943A2408951F93CF93DF93182FEB015F
:100B40000E94C104209739F4812F0E944A05DF9149
:100B5000CF911F9108958FE99FE00197F1F700C0B1
:100B600000002197EFCF70E060E0893311F460E579
:100B700070E00E949B050895882321F00E94900C4C
:100B80000E94E60C0895882321F00E94960C0E9492
:100B9000E60C0895B0E0A0E0E0EDF5E00C944D2DFA
:100BA0006C01D62FC72FFC011581068102950F70AD
:100BB0000E94860CE82E8823F9F0E12E1123E1F043
:100BC0008C2F807F803461F080E28D0F883008F1B7
:100BD0008C2F807E803221F4D230D8F00023C9F0EF
:100BE0008091EE0282FF15C082E00E94490D0E94B2
:100BF000860C91E0E82EE926BC2EB2949FE0B92243
:100C0000FBE0FB15B8F1EB2DF0E0E755F14D0C944E
:100C1000062DE12CF1CF0C2F0F70C07F11F0029543
:100C2000007F112399F0002359F080E28D0F883066
:100C300010F0D11107C0802F0E94900C0E94E60C8A
:100C40008D2F5AC0802F0E94A00CF8CF8D2F0E94AC
:100C50004A05002379F080E28D0F883010F0D11121
:100C600004C0802F0E94960C03C0802F0E94A60C07
:100C70000E94E60CEB2DE850FF0B349720F40E9405
:100C8000FA230E946104EE2089F00E94820C80FD0C
:100C90000DC0F60115820E947C0C0E947708C601E7
:100CA0000E94CA070E947C0C0E948308CDB7DEB761
:100CB000E9E00C94692D2C2F2F70F22EC07FC032EA
:100CC00019F0F29480EFF822DD2341F0D130D1F118
:100CD000112309F444C00023F1F0B2CF8091EE0259
:100CE00082FD15C0112359F0FF2029F08F2D0E949D
:100CF000900C0E94E60C80E00E94C104BBCF80E013
:100D00000E944A05FF2009F4B5CF8F2DABCF1123E8
:100D100069F0011104C08F2D0E94BC05ABCF0130DA
:100D200009F0A8CF8F2D0E94C40CA4CF0111A2CF2F
:100D30008F2D0E94C3058F2D0E94D00C8F2D0E94F5
:100D4000B40C98CF112321F0063008F093CFE3CFF5
:100D5000053008F08FCF8F2D0E94C3058BCF002365
:100D6000D1F3D93349F43FEF87EE93E0315080401F
:100D70009040E1F700C000008D2F0E944A057ACF15
:100D80008C2F86958695837069F0813009F072CF3B
:100D90008D2F9C2F9370111102C080E090E00E9473
:100DA0003A2468CF8D2F9C2F9370111102C080E0E0
:100DB00090E00E9415245ECF8C2F837079F511117D
:100DC00059CF4D2F429546954770440F440F8D2FB4
:100DD0008F70042E01C0880F0A94EAF72D2F20711E
:100DE000D4FF07C02FE030E001C0220F4A95EAF798
:100DF0002095C695C695C370822BC23049F058F431
:100E0000C13019F00E94530835CF0E944D0832CFEF
:100E10000E9459082FCF0E944A082CCF8695112393
:100E200011F08C2F8170882309F424CF4D2F429527
:100E300046954770440F440F8D2F8F70042E01C0CC
:100E4000880F0A94EAF72D2F2071D4FF07C02FE0F6
:100E500030E001C0220F4A95EAF72095C695C69565
:100E6000C370822BC23049F058F4C13019F00E948F
:100E7000A20800CF0E949C08FDCE0E94A808FACECE
:100E80000E946508F7CECF70112329F08C2F0E94A5
:100E900077088D2F41CF8D2F0E94C3058C2F0E9484
:100EA0008308E8CED23F41F160F4D03FB9F0D13FA2
:100EB00081F0112309F446C00111C2CE8C2F8F712D
:100EC0001FC0D33F01F1D43FA1F78091EE0282FD14
:100ED00024C08C2F8F71112311F312C0112341F004
:100EE000053008F0C7CE8C2F8F710E949008C2CEBB
:100EF000063008F0BFCEF7CF8C2F8F711111CFCFF6
:100F00000E947708B7CE112329F08C2F8F710E9491
:100F10006E08B0CE0E946A08ADCE112349F0CF71A1
:100F20008C2F0E94770863E08C2F0E942B0DA2CE9D
:100F300081E00E94490D023008F49CCE82E00E94BC
:100F4000490D98CE002359F0D93309F015CFEFEFB2
:100F5000F7EE23E0E150F0402040E1F70BCF8C2F7B
:100F60008F719DCF0F931F93CF93DF93EC01688117
:100F700079818D810E945F098C010E94AE080E94D8
:100F80004908B801CE010E94CA05DF91CF911F9197
:100F90000F910895CF93DF93EC018C81882399F012
:100FA000CE010E94DD03811111C00E94860C8823AE
:100FB00051F08D81882339F08091EE0282FF03C0C9
:100FC00082E00E94490DDF91CF910895CE010E94E9
:100FD000B207CE010E94B803F6CF90E080E00E94F5
:100FE000152490E080E00E943A240E94AD0C0E94FB
:100FF000E60C08950E94750C0E94ED0708950E946A
:101000009D0C0E94FA07089592959F70963091F07A
:1010100058F4925F9F70923058F4803F19F030F48A
:10102000883E30F481E008959A5FF4CF843FD1F395
:1010300080E00895883EB0F3813FD1F7F3CFFC0103
:101040002481222339F0808191810E9454090E94D9
:101050000408089580E00895A6E0B0E0E2E3F8E037
:101060000C94542D2696E2E00C94702DA7E0B0E08D
:10107000ECE3F8E00C94542D2796E2E00C94702DEC
:1010800008950E94400808950E9441088093080234
:10109000089508950E944408089590910802892BAC
:1010A0000E94440808959091080289230E944408F0
:1010B00008959091080289270E94440808950E948B
:1010C000400808950E945F0808950E946208809376
:1010D0000702089580E00E946508089591E001C02C
:1010E000990F8A95EAF7892F0E946508089521E0F3
:1010F00030E001C0220F8A95EAF780910702822B27
:101100000E946508089521E030E001C0220F8A9511
:10111000EAF720958091070282230E9465080895CE
:1011200021E030E001C0220F8A95EAF780910702A2
:1011300082270E946508089590910702892B0E94DA
:10114000650808959091070289230E946508089513
:101150009091070289270E94650808950895262F17
:10116000277091E001C0990F2A95EAF723E0769560
:1011700067952A95E1F7FB01EE0FFF1FE60FF71FBA
:10118000E40FF51F50E040E0682F70E08191DF012F
:1011900011979B01042E02C0369527950A94E2F719
:1011A000217021952827292328272C934F5F5F4FF3
:1011B0004330510559F70895A82FA77023E096955D
:1011C00087952A95E1F7FC01EE0FFF1FE80FF91F45
:1011D000E60FF71F50E040E080E0219130E00A2E5A
:1011E00002C0369527950A94E2F721703327042E22
:1011F00001C0220F0A94EAF7822B4F5F5F4F433002
:10120000510559F70895262F953070F48E3060F40B
:10121000682F70E08EE0989F600D711D11244CEED8
:1012200051E0822F0E94AF080895292F953068F46D
:101230008E3058F490E06CEE71E03EE0239F800D1C
:10124000911D11240E94DC08089580E00895CF923A
:10125000DF92FF920F931F93CF93DF936C01009166
:10126000070280910802082BC3E0D0E010E0FC2EBA
:10127000C8010C2E02C0959587950A94E2F780FD6F
:101280000CC02197A0F7F12C8F2DDF91CF911F91EA
:101290000F91FF90DF90CF900895B6018C2F0E94A0
:1012A0004D10019771F3F0CFCF93DF93EC010E94C3
:1012B0002709BE010E944D10DF91CF9108951F9321
:1012C000CF93DF93EB019091EB01992339F0CB01A0
:1012D0000E945409DF91CF911F910895882369F0EE
:1012E000CB010E942709182F682FCE010E94030905
:1012F000BE01812F0E944D10EDCFCB010E94150938
:10130000182FF6CFE1E0F0E0DF0102C0AA0FBB1F0B
:101310006A95E2F7BD01DF0102C0AA0FBB1F4A9523
:10132000E2F76A2B01C0EE0F2A95EAF7962F982371
:10133000961302C08E2B0895E0958E230895242FD6
:10134000462F682F809107020E9482090E9465083B
:1013500008951F93CF93DF93C091090217E0809106
:101360000A028C1304C0DF91CF911F910895D0E041
:101370001C9FF0011D9FF00D1124E55FFD4F2081A2
:101380003181428153816481758186810E94360852
:101390002196C770E4CF20914302309144024091DE
:1013A0004502509146026091470270914802809137
:1013B00049020E9436080895CF93DF938091490235
:1013C000807F09F04DC080914802882309F448C00D
:1013D000E091090250910A02C0914402D091430267
:1013E000609145027091460247E05E17C9F18E2F69
:1013F00090E0E49FF0011124E55FFD4F248122235A
:1014000091F1489FF001499FF00D1124DF01A55F84
:10141000BD4F11962C9111972C1325C02C912D1393
:1014200022C015962C91159721111DC012962D9151
:101430003C91261B370B283C3105A8F480914902CA
:101440008F70806180934902EF5EFD4F80818F70C5
:101450008061808383E492E00E94CA070E94A90908
:10146000DF91CF910895FC013196E770BECF482FF0
:101470002091090290910A0257E0291302C080E0EE
:10148000089530E0529FF001539FF00D1124E55F65
:10149000FD4F8181681306C08081481303C0858198
:1014A0008111EECF2F5F3F4F2770E7CFA4E1B0E06F
:1014B000ECE5FAE00C944A2D8C0186E0F801DE019F
:1014C0001F9601900D928A95E1F7F8018481E580DD
:1014D00093E4A92E92E0B92E9091470291111FC07A
:1014E0008823D1F0EE20A9F0C8010E941F08F82E31
:1014F000882379F087E0F801D50101900D928A9553
:10150000E1F7C5010E94B8040E94DC090E94CB09E2
:101510005FC0C8010E94CA07FF24F39459C0C0806D
:10152000D18082809380F0904802209145023091D2
:101530004602A401421B530BFF2009F4F9C0483CAA
:10154000510508F0A7C0882309F442C090914402D5
:1015500080914902282F207F09F05CC09D1116C0A0
:1015600090914302C91212C0E1104EC08F70806189
:10157000809349020E94CB0983E492E00E94CA074B
:1015800080914902F8018683F12C22C0E1103CC011
:101590006D2D8C2D0E94370A6D2D8C2D0E94370ADF
:1015A000E82E8111F1CFCF86D88A8F8598890E9445
:1015B0005409292F22952F70243078F49F702230FF
:1015C000A8F09923B9F0F8019681907F99F4FE2C48
:1015D0008F2D6496ECE00C94662D2A5F2F702230DC
:1015E00068F0C8010E94CA07EF2CF1CF992311F0CF
:1015F000882369F3805E883050F3F3CF803F38F35F
:10160000815F833070F7E3CF8091490281608093DE
:101610004902BACF9D1113C090914302C9120FC065
:10162000E1100DC08683C8010E94CA0787E0F80157
:10163000A3E4B2E001900D928A95E1F767CFC8016B
:101640000E941F08882309F464CFEE2009F461CFBB
:1016500080914902803288F0209143023091440207
:10166000398728879B868A86909147029C871D86AA
:101670008E87CE0108960E94CA0787E0F801A3E48E
:10168000B2E001900D928A95E1F70E94DC090E9478
:10169000CB0942CF90914902292F207FA1F4682DD8
:1016A0009A8A898AA6017A899E2D0E942C0883E451
:1016B00092E00E94CA0787E0F50111928A95E9F746
:1016C0000E94CB0961CF882309F482CF8091440224
:1016D0008D1110C080914302C8120CC0E1100AC0E5
:1016E0009683C8010E94CA0787E0F50111928A9586
:1016F000E9F76ECFC8010E941F08882309F409CFBB
:10170000EE2009F406CF80914902803208F4B5CF6B
:1017100020914302309144023A8329839C828B8238
:10172000909147029D831E828F83CE010196A3CFA5
:10173000483C5105B8F5882309F4EECEFE2CEE2086
:1017400009F4E7CE809144028D111EC080914302BE
:10175000C8121AC08091490280FD0DC0982F907F59
:1017600051F08683903F09F45ECF982F907F905F71
:101770008F70892B57CF87E0F801A3E4B2E0019086
:101780000D928A95E1F724CFC8010E941F088111AC
:1017900074CF80914902816080934902C8010E9400
:1017A000CA0716CF682D9A8A898AA6017A899E2D42
:1017B0000E942C0887E0F50111928A95E9F7A6CEE0
:1017C000AEE0B0E0E6EEFBE00C94532D28873987BD
:1017D0004A875B876C877D878E87CE0108960E943B
:1017E000560A8823B1F06C85662341F02885398537
:1017F0004A855B857D858E850E94360817E080913D
:10180000090290910A0289133DC02E96E3E00C94E0
:101810006F2D87E0FE013896DE01119601900D9242
:101820008A95E1F78C85882349F320910A0230E0FC
:10183000C901019687709927409109024817190636
:1018400099F097E0929FD001939FB00D1124A55F6E
:10185000BD4FFE01319601900D929A95E1F780936C
:101860000A020E94A909CACF0E94FF0710920A0229
:101870001092090287E0E3E4F2E0DF011D928A950D
:10188000E9F7BCCF819FC0011124855F9D4F0E9465
:10189000560A882309F4B9CFE09109021E9FF0018E
:1018A0001124E55FFD4F20813181428153816481A4
:1018B000758186810E9436088091090290E0019628
:1018C00087709927809309029ACF682F809104012D
:1018D000909105010E94A7240895682F809104012A
:1018E000909105010E94AA2408958091040190918D
:1018F00005010E94AD240895809152028695869537
:1019000086950895809152028770089590915202B1
:10191000977081E009F480E0089580915E02089557
:1019200090915E02892B80935E020895809590913C
:101930005E02982390935E02089510925E020895CD
:1019400090915D02892B80935D020895809590911E
:101950005D02982390935D02089510925D020895B0
:1019600008950E94B00C089590915302292F2823C6
:1019700031F080958923809353020E94B10C089521
:1019800008950E94C00C089590915402292F282395
:10199000281729F0982B909354020E94C10C0895A7
:1019A00090915402292F282331F080958923809328
:1019B00054020E94C10C089580915402882329F09A
:1019C0001092540280E00E94C10C0895CF93DF93DF
:1019D000E0910401F091050180915E028083E09125
:1019E0000401F0910501808190915D02892B808333
:1019F00090915402992381F0E0910401F091050146
:101A00008081892B808380910401909105010E943F
:101A10005F2481110E94DC0CC0910401D09105016A
:101A200048E050E06AE472E0CE010E941A2E892B51
:101A300059F088E0FE01AAE4B2E001900D928A9587
:101A4000E1F7CE010E940A24DF91CF910895089515
:101A50000E94270D08959091EE0292FF11C098E028
:101A6000899F90011124622B609352020E94770893
:101A7000809152028695869586950E94280D08953C
:101A80000E94770808951092520280E00E94280D6B
:101A90000895909152028095892380935202282FB5
:101AA000277069F4891759F09091EE0292FF07C0F0
:101AB0008695869586950E9483080E94430D089519
:101AC0009091EE0292FB222720F9281769F080FB03
:101AD00092F99093EE028091ED029091EE020E94B5
:101AE000A90D82E00E94490D08958091EE0282FBCB
:101AF000882780F991E089270E94600D089581E090
:101B00000E94600D089580E00E94600D08956FEFBF
:101B10007FEF90E080E00E94722E089590E080E0D8
:101B20000E943E2E863E9E4F19F40E94771D089516
:101B300080E0089582E090E00E94302E089583E0D6
:101B400090E00E94302E089584E090E00E943E2EA6
:101B50000895BC0184E090E00E94722E0895AB01CC
:101B6000BC018FE090E00E94662E0895AB01BC019D
:101B700083E190E00E94662E089560E070E0CB0162
:101B80000E94B60D089560E070E0CB010E94AF0D99
:101B90000E94BD0D0895A8E0B0E0E1EDFDE00C94D9
:101BA000542D66EE7EEF90E080E00E94722E60E0A1
:101BB00082E090E00E94542E81E08093080261E070
:101BC00083E090E00E94542E60E074E184E090E0B5
:101BD0000E94722E60E086E090E00E94542E6FEF2B
:101BE00087E090E00E94542E40E050E0BA0188E087
:101BF00090E00E94662E60E084E290E00E94542E05
:101C000060E087E190E00E94542E60E08CE090E07C
:101C10000E94542E60E08DE090E00E94542E1982C4
:101C20001A821B821C821D821E821F82188648E037
:101C300050E068E170E0CE0101960E94442E40E041
:101C400050E0BA0180E290E00E94662E80E00E949F
:101C5000901D0E94C01D0E94C30D2896E2E00C94C6
:101C6000702D0E94CB0D0895682F8EE090E00E94A9
:101C7000542E0895A6E0B0E0E0E4FEE00C94522D6E
:101C80000E940F258C0180915F0290916002801765
:101C9000910781F019821A820E940F25682F4981CD
:101CA0005A81792F80E090E00E94880410936002AE
:101CB00000935F022696E4E00C946E2D0E941B2593
:101CC00060936F027093700280937102909372021E
:101CD00060936B0270936C0280936D0290936E021E
:101CE0000895089508950E94710E089508950E9420
:101CF000760E089583E491E10E94E2120E94720E32
:101D00000E94730E089581E008950E94830E089545
:101D10000E94830E0895089508950E948B0E0E94DC
:101D20008C0E08950E9462110E9460040E943A1D68
:101D300008950E9406250E94D01D0E943A120E941A
:101D4000920E0E94941B0E947E190E94101B0E94FA
:101D5000770E0895A6E0B0E0E0EBFEE00C94482D8D
:101D60000E94850E81110CC00E943A0E0E94801ABA
:101D70000E94391D0E946F042696EEE00C94642D9B
:101D80000E94501221E6822E22E0922E640110E081
:101D9000F601E190F1906F01812F0E9481111F5F88
:101DA000153009F44BC0E816F90691F380917302DF
:101DB00081FD0E948A110E94880E782E10E0662410
:101DC0006394812F0E9481117C01F401A190B19054
:101DD0004F018A159B0561F100E0CC24C394D12CFE
:101DE000AE24BF24C5018C219D21892BC1F0772011
:101DF000B1F009831A830E940F259C838B836D8227
:101E000021E0C7018C219D21892B09F420E0498123
:101E10005A816B817C818D81922F0E9488040F5F93
:101E2000CC0CDD1C0E30F1F6F4013297F182E08229
:101E30001F5F153031F60E945E0E98CFE816F90646
:101E400009F0B4CF91CF1F93CF93DF930E9452102C
:101E5000EC01C11580E5D807F0F5C11580E4D8077D
:101E600008F09CC0C03ED10520F5CD3CD10508F05E
:101E700082C0C83AD10578F4C53AD10508F073C0DC
:101E8000C130D10519F1209709F1C430D105F0F422
:101E9000D0E0C0E01BC0C33CD105D0F7C85AD0E0A9
:101EA000CC0FDD1FC25ADE4F0990D881C02DD464FB
:101EB0000DC0C11580E2D80708F0D1C0C11581E07E
:101EC000D80708F05AC0C83ED10510F7CE01DF91FF
:101ED000CF911F910895C03682E5D80718F5C03418
:101EE00082E5D80708F06BC0C03282E5D80708F059
:101EF0005FC0C11582E5D80708F497C02C2F26953E
:101F0000269580E2289F900111248C2F8370C1E0D8
:101F1000D0E002C0CC0FDD1F8A95E2F7C22BD32B95
:101F2000DD68D4CFC03A82E5D80760F4C03882E5D6
:101F3000D80708F459C0CF71D0E0DC2FCC27C46F8C
:101F4000D06AC4CFC03C82E5D80708F462C0C03E66
:101F500082E5D80708F09CCFDC2FCC27CC27DF7197
:101F6000C06FD06AB3CFC55AD0E0CC56DE4FC8811F
:101F7000D0E0D064ABCFD065A9CF8D2F0E94F410F4
:101F8000182FCE0199270E945210C12FD0E0DC2FCC
:101F9000CC27CC27DF71C82BD92B98CFCE0199271E
:101FA0000E945210CC27DF70C82BD92BD06A8ECF5D
:101FB000CF71D0E0DC2FCC27C16FD06A87CF2C2F18
:101FC00026952695277080E2289F900111248C2F5A
:101FD0008370C1E0D0E002C0CC0FDD1F8A95E2F72C
:101FE000C22BD32BDC6872CF2C2F26952695277019
:101FF00080E2289F900111248C2F8370C1E0D0E0F3
:1020000002C0CC0FDD1F8A95E2F7C22BD32BDA6812
:102010005DCF8C2F8F710E94F410C82FD0E0DC2F81
:10202000CC27CC27DF71D06251CF8C2F8F710E94CB
:10203000F41055E0D695C7955A95E1F7CF70D0E0EA
:10204000DC2FCC27282F30E084FF05C044E0220F8E
:10205000331F4A95E1F7C22BD32BD06937CF8D2F91
:102060008F710E94F410182FCE0199270E945210F0
:10207000C12FD0E0DC2FCC27CC27DF71C82BD92B88
:10208000D2CF462F753030F46E3020F4672F0E9487
:10209000F221089590E080E008950E9441100E948E
:1020A000230F089582389105B9F1B0F48133910579
:1020B00009F47DC048F48932910509F46DC08A3273
:1020C000910509F47BC008958533910509F45FC03B
:1020D0008933910509F10895833E9105D9F138F4CA
:1020E000803E910529F1823E910579F10895863E61
:1020F0009105D9F1873E910509F43EC0843E9105D2
:1021000041F52091EE0221FF24C08091ED0284FD73
:1021100019C087EE90E008952091ED02237009F038
:102120005AC02091EE0223FF14C089E290E0089586
:102130002091ED0220FD38C03091EE0230FF09C041
:1021400024FF43C090E080E008952091ED0222FD3D
:10215000F7CF08952091ED0222FD3AC03091EE02B2
:1021600030FD39C024FFF5CFEDCF2091ED0223FFE4
:10217000F0CF24FDE7CFCDCF2091ED0223FD2EC07F
:102180003091EE0231FFEECF84EE90E00895209181
:10219000ED0225FFDECFC9CF2091ED0225FD21C044
:1021A0002091EE0223FFD5CF89E390E0D2CF20919A
:1021B000ED0226FFCECF8AE290E008952091ED0255
:1021C00026FFC7CF81E390E0089583EE90E0089565
:1021D00082EE90E0089580EE90E0089586EE90E023
:1021E000089585E390E008959091ED0292FF10C06C
:1021F00041E0282F2471243009F040E031E0282FFD
:102200002871283009F030E0431711F02CE08227C4
:1022100093FF10C041E0282F2471243109F040E0E1
:1022200031E0282F2871283109F030E0431711F0F0
:102230002CE082273091EE0230FF10C051E0282FB1
:102240002171213009F050E041E0282F2871283019
:1022500009F040E0541711F029E0822731FF10C047
:1022600041E0282F2171213109F040E031E0282F91
:102270002871283109F030E0431711F029E0822756
:1022800094FD877E089580E008950E94870D08954B
:102290000E9450122FEF86E791E02150804090403D
:1022A000E1F700C000000E94501280E00E948111FE
:1022B00080FF04C00E9445110E945A2508950E9483
:1022C000481108950E948E0D811102C00E94310EA6
:1022D0000E949A0D809373020E94A40D9093EE02C7
:1022E0008093ED020E945F110E949F0D0E944A0898
:1022F000809107020E946208089508950E947D114E
:102300000895E82FF0E0EE0FFF1FE750FD4F8081AA
:1023100091810895089580EA8A95F1F7089500C0A3
:1023200008950E948B110895F894E82FE295EF70BC
:10233000F0E031A1282F2F7081E090E001C0880FDC
:102340002A95EAF7982F9095932391A392A1892B30
:1023500082A3789408950F931F93CF93DF93C5EAD8
:10236000D1E089918F3F11F00E94941181E0CA3A27
:10237000D807B9F7C7E9D1E005EA11E089918F3FA5
:1023800011F00E9494110C171D07C1F7DF91CF9136
:102390001F910F910895AF92BF92DF92EF92FF923B
:1023A0000F931F93CF93DF938C01D62EC62FD0E0CF
:1023B000CE018B559E4F7C01FC0120812F3F09F4FB
:1023C0004CC0F894E22FE295EF70F0E031A12F704D
:1023D00081E090E001C0880F2A95EAF7932F982BAF
:1023E00091A392A18095892382A378940E948F1152
:1023F000E7E9F1E041E050E0B12CA12C21912F3F21
:10240000B1F1A22FA295AF70B0E090968C9190E0C0
:102410002F7002C0959587952A95E2F780FD27C019
:10242000CA01A82AB92A440F551F81E0E53AF807E6
:1024300029F7F70180818F3F11F00E94941161E02C
:10244000A114B10409F460E08D2D0E949111CC0F0C
:10245000DD1FC00FD11FB982A882DF91CF911F91DC
:102460000F91FF90EF90DF90BF90AF90089590E0B4
:1024700080E0D7CF0E94AB118AE0E9EFF2E0DF0104
:10248000982F1D929A95E9F7EFEEF2E0DF011D9289
:102490008A95E9F785E00E948B120E943603089521
:1024A000AAE0B0E0E6E5F2E10C94512D8E010F5F59
:1024B0001F4F8AE0F80111928A95E9F7F12C6F2DF0
:1024C000C8010E94CB11F394F5E0FF12F8CF4AE067
:1024D00050E0B8018FEE92E00E941A2E21E00097A2
:1024E00009F420E0892B41F08AE0F801AFEEB2E078
:1024F00001900D928A95E1F745E069EF72E08FEE69
:1025000092E00E948C12182F0E947E11812F2A9631
:10251000E5E00C946D2D0895B0E0A0E0E2E9F2E171
:102520000C944E2D6C017B01042FC22F222379F0D5
:1025300081E0809376020E940F259093750280932C
:10254000740280E0CDB7DEB7E8E00C946A2DD0913C
:102550007602DD23B1F380917402909175020E949E
:102560002725059770F310E0000F111FA801B60191
:10257000C7010E941A2E892B31F0A801B601C701AC
:102580000E94272ECD2F109276028C2FDBCF0E9437
:10259000FA260E94990E0E94072708950E940C2790
:1025A0000E94AA0E0E94262708950E94F3240E94EA
:1025B000E0260E947A0E0E94C7120E94CE120E944C
:1025C0008D0EFBCF9093E5018093E4010895EF9287
:1025D000FF920F931F93CF93DF93EB01E82FD1115D
:1025E0000EC0442321F0F0E0E25EFC4FE4916E2F38
:1025F0007E2F8E2FCDB7DEB7E6E00C946C2D0D2F1D
:1026000010E0282F30E0442329F0225E3C4FF901EE
:10261000249130E0F6E0CF9FC0011124EFEFF0E00D
:10262000BF010E94BC2CAB018C2F90E0880F991F3A
:10263000A5E5A49FB001A59F700D1124861B970BE3
:10264000982F990F980FBF01601B710B629FD001EB
:10265000639FB00D729FB00D11248B2F9D9FB00111
:102660001124672F7727EF01C61BD70BBE01629F8E
:10267000E001639FD00D729FD00D11247F01E91AF4
:10268000F108E09EB001E19E700DF09E700D1124E6
:10269000672F7727E61BF70BE29F8001E39F100D62
:1026A000F29F100D1124E12F722F4230510599F045
:1026B00048F44115510569F04130510581F0EB2F87
:1026C0008D2F07C04430510569F080F04630510528
:1026D000B1F76E2F8FCFE22F7B2F812FFACFE22F12
:1026E0007D2FF7CFEB2F822F712FF3CF7B2F822FF0
:1026F000ED2FEFCF41E00E94E712089508950E9468
:102700007A130895CF93DF93762FE901682F842FF2
:102710000E947F13798368838A83DF91CF91089524
:1027200080910303982F9C7F29F4837084608093A9
:10273000030308958C3AE8F38370886AF8CFB0E019
:10274000A0E0E5EAF3E10C944E2D88E090E00E94D1
:10275000382E6B017C0184E290E00E94302E282FFD
:1027600030E040E050E060E070E080E090E000E2C7
:102770000E947B2DB22FA32FF42FE52FD62FC72F2A
:1027800097018601BC29A12BFE295E2F532B2B2FED
:102790003A2F4F2F6D2F7C2FCDB7DEB7E8E00C948A
:1027A0006A2DB0E0A0E0E7EDF3E10C944A2D490179
:1027B0005A016B017C010E9490138401A4016A2DCF
:1027C0007B2D88E090E00E94662E94014A2D5B2DBF
:1027D000B601C70100E20E94962D622F84E290E0CC
:1027E0000E94542ECDB7DEB7ECE00C94662DE3E0EA
:1027F000F3E020813181428153816481758186813A
:1028000097810E94D1130895E3E0F3E085E080838F
:1028100011828FEF828383831482758125E030E0FB
:102820004FEF5FEF60E0868197810E94D11308959A
:102830008091030380FF03C086958695089580E00C
:102840000895809103038170089590910703933058
:1028500018F49F5F90930703882391F0209103035E
:1028600030910403409105035091060360910703E2
:10287000709108038091090390910A030E94D1137B
:10288000089581E00E9425140895909107039923EB
:1028900019F0915090930703882391F0209103033E
:1028A00030910403409105035091060360910703A2
:1028B000709108038091090390910A030E94D1133B
:1028C000089581E00E9445140895809107030895BA
:1028D00080930703662389F020910303309104035A
:1028E000409105035091060370910803682F809171
:1028F000090390910A030E94D113089560E00E9499
:102900006814089580910403089580910503089543
:1029100080910603089570E00E944B1D0895609118
:102920000A018091030380FF0BC08091090123E01D
:10293000829FC0011124855F9C4F0E948B140895D3
:1029400080910B0190910C0123E0829FF0011124F2
:10295000E55FFC4F891748F71182108212828F5F62
:102960003396F8CF9091030390FF0EC090910B0126
:1029700020910C0133E0939FF0011124E55FFC4F9F
:10298000921718F00E948F14089581836083428308
:102990009F5F3396F5CFA3E0B0E0E1EDF4E10C9456
:1029A000542D9091030390FF0AC09E012F5F3F4F6B
:1029B0000E9482134B8169818A810E94B2142396FE
:1029C000E2E00C94702DCF93DF93EC01EC81F0E00A
:1029D000E752FE4F4491E3E0F3E0628181810E947F
:1029E000CB148C818F5F8C83DF91CF910895CF932F
:1029F000DF93EC01E3E0F3E0438162818C810E948C
:102A0000CB148C818F5F8C83DF91CF910895A3E0ED
:102A1000B0E0EDE0F5E10C94522D8C01809177024D
:102A200081110AC09E012F5F3F4F4FEF6FEF0E9451
:102A300082138A8180937702F8016481613069F0A2
:102A40008091770240E0662361F040E0623011F44B
:102A50004091770280E060E004C06091770240E03E
:102A600080E00E94B214F801848190E0019663E056
:102A700070E00E94D02C84832396E4E00C946E2DA9
:102A8000A3E0B0E0E6E4F5E10C944D2D082FD62E3E
:102A9000F42EC22E9091030390FF2FC0E92FE695EC
:102AA000E695AE2FB0E0A655BE4F8C918093D30231
:102AB0009C7F943031F59E012F5F3F4F802F0E9405
:102AC00082134B8169818A810E94B21400930403AE
:102AD000D0920503F0920603CC2079F020910303F5
:102AE0006091070370910803302F4D2D5F2D809169
:102AF000090390910A030E94D1132396E9E00C94F4
:102B0000692D823019F4F0900603E0CF863019F475
:102B100000910403DBCF8930D9F38931B9F6E9514B
:102B20006E2F6170B62EE695F0E0E752FD4F1491DE
:102B3000E12C60910D01E61618F00E948F14C6CFAB
:102B4000E19EC001112470E00E94BC2C802FB110C6
:102B500014C0860F20910B01622F6E0D7727771F0F
:102B60009B01220F331F260F371F255F3C4F4F2D30
:102B70006D2D0E948213E394DCCF861BEBCFE3E044
:102B8000F3E09181282F4381628188E0890F0E94C0
:102B90004015089581E00E94BF150895E3E0F3E039
:102BA0009181282F4381628188EF890F0E9440150F
:102BB000089581E00E94CE150895E3E0F3E062817C
:102BC00028E0620F08F46FEF282F438181810E9473
:102BD0004015089581E00E94DD150895E3E0F3E0DB
:102BE000628128E0621B08F460E0282F4381818124
:102BF0000E944015089581E00E94EE150895E3E0DB
:102C0000F3E0438128E0420F08F44FEF282F628160
:102C100081810E944015089581E00E94FF1508956A
:102C2000E3E0F3E0438128E0421B08F440E0282F72
:102C3000628181810E944015089581E00E941016F2
:102C4000089520E00E9440150895EF92FF921F938F
:102C5000CF93DF93EC0110E0EE24EA94F12C609125
:102C60000D01161770F00E948F149A818C8190FFCD
:102C700027C08F5F8C83DF91CF911F91FF90EF90E2
:102C8000089520910B01422F410F5527551FCA016E
:102C90009A01220F331F280F391F255F3C4F70E028
:102CA000C7010E94D02C962F8C8140910603609121
:102CB0000503199F800D11240E9482131F5FCFCF3F
:102CC0008150D8CFB0E0A0E0E8E6F6E10C944D2DBD
:102CD000FC0182810FEF80FF01E010E080910D0187
:102CE000181798F00E948F1480917902013009F032
:102CF0004CC0811102C080910D01815080937902F6
:102D0000CDB7DEB7E9E00C94692DC0910B01C12E5F
:102D1000D12CCC0DDD2DD11DCE01880F991FC80FF0
:102D2000D91FC55FDC4F198218821A8234E0E32E66
:102D3000F12CB12C809179028B0D813104F18F70CF
:102D4000082E000C990BC816D90691F48091060341
:102D50008E9DA0018F9D500D112455954795559539
:102D600047959E0160910503809104030E948213A0
:102D7000B00EF1E0EF1AF108E9F61F5FAFCF87FF61
:102D8000DFCF90910D01890FDBCF90E0019660912C
:102D90000D0170E00E94D02CB1CF0F931F93CF9301
:102DA000DF9380910B0190910C0123E0829FF00151
:102DB0001124E55FFC4F891740F1C0E0D3E060913A
:102DC0000D01C61740F10E948F14209107018091D8
:102DD0007802820F8093780290910801920F90936D
:102DE0000801191654F4082E000C990B40910D019E
:102DF0004150550B841795071CF02195209307012E
:102E0000DF91CF911F910F9108951182108212824C
:102E10008F5F3396D0CF0C2F10E070E0C8010E9476
:102E2000D02C20910B01820F482F50E02091780286
:102E3000022E000C330B02171307BCF0209108017F
:102E4000022E000C330B201731077CF08D9F900170
:102E50001124255F3C4F409106036091050380914A
:102E600004030E948213CF5FAACFFA01EE0FFF1F67
:102E7000E40FF51FE55FFC4F118210821282F3CF41
:102E8000B0E0A0E0E6E4F7E10C944A2DEC014C81BF
:102E9000042F10E09801D8010E941B2D9B01AC016A
:102EA0000E94312D4B015C01E0E2F0E0E01BF10BF0
:102EB000A5E5B0E0AC019B010E94312D6B017C01C6
:102EC0009F01DF010E94132D9B01AC010E943C2D4C
:102ED0009B01AC01280D391D4A1D5B1DC701B601C0
:102EE0000E94E42CF22E822F90E039E23F1520F16F
:102EF00043E0249F9001112435952795122F1095BA
:102F000000E085E5E82EEF1880910D01081718F113
:102F10000E948F149C8181E0992319F0903219F45A
:102F20008FEF8093060180910601890F8C83CDB7C6
:102F3000DEB7ECE00C94662D25E530E0B901681BA6
:102F4000790B9B01220F331F260F371F37FFD4CF7A
:102F50002F5F3F4FD1CF8E2D01FD8F2D20910B0183
:102F6000622F600F7727771F9B01220F331F260FD9
:102F7000371F255F3C4F412F609105030E9482134C
:102F80000F5FC2CF0F931F93CF93DF93EC0110E03D
:102F900000E090910D019017110609F06CF40E9469
:102FA0008F148C8190E00196817099278C83DF913A
:102FB000CF911F910F91089520910B01A801420F0D
:102FC000511D9A01220F331F240F351F255F3C4FDF
:102FD0004C8160910503809104039695901711062A
:102FE00051F04CF0442349F0409106030E948213B3
:102FF0000F5F1F4FCECF4423B9F340E0F7CFB0E0CF
:10300000A0E0E5E0F8E10C94462DFC0162804480EC
:1030100081E08483E9EDF1E07490E8E5F2E0E49189
:10302000C0910603C695C158D0E0CC0FDD1FCD2F4F
:10303000DD27812C75E0972EAA24AA94B12C552463
:103040005A94E719EE2EF12C80910D01881638F074
:103050000E948F14CDB7DEB7E0E10C94622DC82C2E
:10306000D12C82E0861568F09C9CF0019D9CF00DAF
:103070001124E658FD4F809104038083809105035D
:103080008183411023C09C9CF0019D9CF00D112474
:10309000E658FD4F1382128220910B01C601820F68
:1030A000911D9C01220F331F280F391F255F3C4FB4
:1030B0009C9CF0019D9CF00D1124E658FD4F42812F
:1030C000618180810E9482138394BECF9C9C800189
:1030D0009D9C100D112406581D4FF80183818823F3
:1030E000F1F081508383859DC0011124648170E0DB
:1030F0000E94BC2CFB01FF27E752FE4F8491E82F72
:10310000E719E59DC0011124B7010E94BC2C8091F4
:103110000603689FB0011124F8017283BDCF0E949D
:10312000FD2DB5010E94D02C8C179D070CF0B4CF5B
:10313000F2E0F61598F40E94FD2DB5010E94D02C06
:10314000F80180830E94FD2D209105032695622FB2
:1031500070E00E94D02C280FF80121839C9CF00184
:103160009D9CF00D1124E658FD4F128280910603BC
:10317000893C58F088EC9C9CF0019D9CF00D11243A
:10318000E658FD4F8483838387CF8431A0F784E1A1
:10319000F2CFE3E0F3E020812E7F20833181428172
:1031A000538164817581868197810E94D113109229
:1031B000D4020E948F140895E3E0F3E080818E7FB3
:1031C00080831092D4020E948F14089560910303AB
:1031D0006695669570E04BE050E08EE091E00E94CD
:1031E0000D2E892B19F481E08093D4020E940F25C3
:1031F0009093CB028093CA0208959091030390FFAD
:1032000034C09370811132C094609093030366239D
:1032100091F02091030330910403409105035091F4
:103220000603609107037091080380910903909150
:103230000A030E94D113609103036695669570E0BE
:103240004BE050E08EE091E00E940D2E892BB1F012
:103250001092D40281E08093CD02409106036091E8
:103260000503809104030E94211608958B3210F00B
:10327000986ACBCF880F880F982BC7CF0E94E6188B
:10328000E9CF682F909103039695969581E0890F79
:103290008B3208F081E00E94FD18089581E00E94C1
:1032A00041190895682F90910303969596958FEF95
:1032B000890F09F48AE20E94FD18089581E00E94B6
:1032C0005219089561E00E94FD180895E3E0F3E0CB
:1032D000808181608083869586950E946219089519
:1032E0008091030380FF03C00E94C91808950E94C3
:1032F0006619089560E00E94FD1808958091D20239
:1033000081113FC00E948E0D811104C00E94310EB8
:103310000E9404140E949F1320930303309304031C
:1033200040930503509306036093070370930803CB
:103330008093090390930A032C7FA1F40E94041444
:103340000E949F13209303033093040340930503CB
:103350005093060360930703709308038093090357
:1033600090930A030E9490131092D4028091030359
:1033700080FF04C0869586950E947A1981E080932B
:10338000D2020895E3E0F3E0808181608083869536
:1033900086950E947A1908958091030380FF03C0E7
:1033A0000E94DC1808950E94C21908951092D1025B
:1033B0008091D00281110E94C2190E94E6180895DE
:1033C0000F931F93CF93DF938091D4028823C1F191
:1033D0008091D302E0910303E695E695E81BE09324
:1033E000CC02823091F5F0E0EB52FE4FE491CE2F0B
:1033F000D0E003EE14E18091CD02882361F01092B9
:10340000CD020E940F259093CB028093CA021092A6
:10341000CF021092CE020E940F25E091CA02F091D5
:10342000CB028E1B9F0B8F3F9F4750F4EC0FFD1F6D
:10343000F093CB02E093CA028AEC92E0F80109957E
:10344000DF91CF911F910F910895863049F4F0E0FC
:10345000EE52FE4FE491CE2FD0E007EF14E1CBCF38
:10346000893051F4E695F0E0E153FE4FE491CE2F20
:10347000D0E005E216E1BFCF8F3051F4E695F0E0E1
:10348000E453FE4FE491CE2FD0E002E616E1B3CF35
:10349000853149F4F0E0E753FE4FE491CE2FD0E0C0
:1034A0000DEC16E1A8CFC8E2D0E000E417E18831C6
:1034B00009F4A1CF833239F4E7ECF1E0C591D4915E
:1034C00007E015E198CFC4EFD1E002EC17E18432B8
:1034D00009F491CFC0EDD7E00EE713E1853209F092
:1034E0008ACF8E2F63E00E94B02CE92FF0E0EC53DE
:1034F000FE4FE491CE2FD0E00FEF17E17CCF08957F
:103500000E94E0190895FA01811101C0FB0109959B
:103510000895CF93DF93C82FD62F0E9418148C17CD
:1035200048F00E9418148D1728F40E944E19DF915C
:10353000CF9108958C2F0E946219F9CF1F93CF93DA
:10354000DF93EC01FB011581111110C00E948D0C5D
:103550008272FE01E052F847E531F10508F05EC0E5
:10356000EB54F14D0C94062D0E947019812FDF91C0
:10357000CF911F9108954EE559E16EE479E10E94E3
:10358000831AF4CF4EE459E16EE579E1F8CF49EDC5
:1035900055E16AEC75E1F3CF4AEC55E169ED75E16F
:1035A000EECF4BEF55E16AEE75E1E9CF4AEE55E11A
:1035B0006BEF75E1E4CF4DE156E16CE076E1DFCFF2
:1035C0004CE056E16DE176E1DACF41E654E161E4A9
:1035D00074E1D5CF41E454E161E674E1D0CF81E0FC
:1035E0000E946219C3CF65E082E00E94891ABECFB3
:1035F00068E086E0FACF6EE089E0F7CF64E18FE023
:10360000F4CF67E185E1F1CF88E1EACF62E289E1B9
:10361000ECCF83E2E5CF6AE285E2E7CF11E0A6CF07
:10362000E1E8F0E080818860808380818160808330
:103630008FB7F89420ED33E0309389002093880011
:103640008FBF0895EFE6F0E0808182608083089567
:10365000EFE6F0E080818D7F808308951F920F92C6
:103660000FB60F9211242F933F934F935F936F9355
:103670007F938F939F93AF93BF93EF93FF9380912B
:10368000D6029091D70201969093D7028093D602EA
:10369000811107C08091D50282608093D5020E947B
:1036A0006104E091D702E695E695F0E0E252FD4F25
:1036B000E4918091D6028E1307C08091D5028D7F50
:1036C0008093D5020E946104FF91EF91BF91AF9169
:1036D0009F918F917F916F915F914F913F912F912A
:1036E0000F900FBE0F901F90189586E090E00E94FB
:1036F000302E0895682F86E090E00E94542E0895A1
:1037000080913B030E947A1B0895EBE3F3E08081F4
:103710008470816680830E947A1B089580913B03A8
:1037200086958695869508950E948E0D811104C018
:103730000E94310E0E94851B0E94751B80933B03E3
:10374000883620F08770806680933B0390913B031E
:10375000892F817090FF04C0892F86958695869564
:103760000E94981C089580913B03982F96959695FA
:1037700096959C3040F49F5F990F990F990F877031
:10378000892B80933B0380913B03816080933B03B3
:103790000E947A1B80913B038695869586950E94B0
:1037A000981C089580913B03982F987F79F088505A
:1037B00080933B03887F91E009F490E080913B0384
:1037C00090FB80F980933B030E947A1B80913B031E
:1037D0008695869586950E94981C089580913B0356
:1037E00080FD13C0816080933B03813019F489E030
:1037F00080933B0380913B030E947A1B80913B03A3
:103800008695869586950E94981C089580913B0325
:1038100080FF08C08E7F80933B030E947A1B80E06C
:103820000E94981C089580913B0380FF03C00E9472
:10383000061C08950E94EE1B089590913B03892F6A
:103840008695869586958F5F8F7197708D30E0F4A1
:10385000880F880F880F892B80933B0380913B034F
:10386000887F91E009F490E080913B0390FB80F920
:1038700080933B030E947A1B80913B03869586953B
:1038800086950E94981C089590933B03E7CF8D3056
:1038900008F08CE090913B039770282F220F220FA5
:1038A000220F922B90933B03987F21E009F420E0B4
:1038B00090913B0320FB90F990933B030E94981C4E
:1038C00008950E94471C80913B030E947A1B089533
:1038D0009C01FB018581882349F12230F8E73F07ED
:1038E000F9F040F42115E8E73E0769F02130384748
:1038F00079F00895243098E7390779F058F02530A9
:10390000384789F008958CE00E94611C80E008959A
:1039100080E0FACF0E94D21BF9CF0E94B31BF6CFF2
:103920000E94131CF3CF0E941D1CF0CF81E008956C
:103930008F929F92AF92BF92EF92FF920F931F933D
:10394000CF93DF938D30B0F5811135C09091800019
:10395000977F90938000A0918600B0918700282FD8
:1039600030E00E941B2D2CE030E040E050E00E944F
:10397000E42C89019A0180918600909187006CE087
:1039800070E00E94BC2C60177107C8F0C80169E0A4
:1039900070E00E94BC2C70938D0060938C00DF91CE
:1039A000CF911F910F91FF90EF90BF90AF909F909C
:1039B0008F9008958CE0909180009860CACF80919C
:1039C000860090918700E0908600F0908700E0915B
:1039D0008600F0918700C6E0D0E0BE010E94BC2CBA
:1039E000060F171F211D311D4801590185E0880C64
:1039F000991CAA1CBB1C8A95D1F7C701BE010E9465
:103A0000BC2C9F0150E040E0260F371F411D511D87
:103A1000C501B4010E94E42C49015A01E0918600DD
:103A2000F0918700CA01B9010E94A02C9B01AC0152
:103A3000DF010E94312D9B01AC01C501B4010E9440
:103A4000A02C2FE096958795779567952A95D1F7C5
:103A5000009186001091870030E020E006171707DC
:103A60002807390708F097CF60918600709187008A
:103A700092CF0895279A2F988AE08093800089E159
:103A8000809381008FEF9FEF909387008093860053
:103A90000E94941B0895209A45B14E7F55B1516004
:103AA000EFB7F8949B01220F331F260F371F280F03
:103AB000391F2817390741F4EFBF8FE594E00197CC
:103AC000F1F700C000000895DC016D91CD0178E0B0
:103AD00055B9000000C067FF45B9660F000000C07F
:103AE00000C000C045B900C07A9591F7E2CF85E2E9
:103AF00090E00E94302E833289F486E290E00E94AA
:103B0000302E803159F487E290E00E94302E91E00F
:103B1000803109F090E0892F8170089580E0FCCF1A
:103B2000CF93C82F6FEF811163E285E290E00E948E
:103B3000542EC1110DC0CFEF6C2F86E290E00E9491
:103B4000542E6C2F87E290E00E94542ECF9108955E
:103B5000C0E1F2CF089588E290E00E94302E682FF5
:103B600070E090E080E008950895CF93C62F0E9402
:103B7000B41D6C2F88E290E00E94542ECF910895DE
:103B800080E00E94901D60E070E0CB010E94B51DB6
:103B90000E948A210E944D2281E00E94901D08957A
:103BA0000E94AA1D0E94AB1D0E94B41D0E94771D99
:103BB000811102C00E94C01D08950E94131C0E9422
:103BC000CC1908959C01FB018581882351F0A9013E
:103BD00057574038510530F4822F0E945D2280E013
:103BE000089581E008952FEFFC012083089580E07F
:103BF0000895CF93DF93EC018881813029F08230E2
:103C000079F0DF91CF9108950E948E1B2FEF829F54
:103C1000C00111246CE070E00E94BC2C6983F1CFDC
:103C20001982EFCFFC012081213061F48181FCE019
:103C30008F9FC00111246FEF70E00E94BC2C862F73
:103C40000E94471C0895FC019C012E5F3F4F90810C
:103C5000983041F0993051F0973059F4C9010E94E1
:103C6000121E0895C9010E94F91D08950E94801B2B
:103C700008958FEF80830895CF93DF93EC018881BF
:103C80008230E9F028F4813071F0DF91CF9108950E
:103C90008330F9F08430C9F70E94821489830E942E
:103CA00085148A83F2CF0E9488142FEF829FC0016F
:103CB00011246FEF70E00E94BC2C6983E6CF0E9454
:103CC0002114882321F00E9418148983DECF80E01C
:103CD000FCCF0E946514F9CFCF93DF93EC0188816C
:103CE000823021F128F4813069F0DF91CF9108957D
:103CF000833041F18430C9F70E948814482F6A81CB
:103D0000898111C089812FEF829FC00111246FEF3B
:103D100070E00E94BC2CD62F0E948514C82F0E94F0
:103D200082144D2F6C2F0E942116DFCF89818111C3
:103D300003C00E94DC18D9CF0E94C21989810E9459
:103D40007A19D3CF89810E947E14CFCFFC019C01C8
:103D50002E5F3F4F9081983041F0993051F097306D
:103D600059F4C9010E946C1E0895C9010E943C1EAD
:103D700008950E94F71308958FEF80830895FC0142
:103D80002181213019F40E94231E0895223019F454
:103D90000E94A61E08950E94F31D0895B0E0A0E0C1
:103DA000E4EDFEE10C944E2DEC01C62E0E94F71DB1
:103DB000811110C0E881E150E331B8F4F0E0E6533E
:103DC000F14D0C94062D19828CE08A836C2DCE0166
:103DD0000E94CC25CDB7DEB7E8E00C946A2D89812E
:103DE0008230C1F028F4813061F08FEF8883EECF0C
:103DF000833099F08430C9F71A821B821C821D829D
:103E0000E5CF0E941B250E940C2D6A837B838C8347
:103E10009D83DCCF0E94AB1DF6CF8A81082F10E076
:103E20007E019EE0D92ED80E0530110578F6802F40
:103E30000E948111F701938384830F5F1F4FF2E08B
:103E4000EF0EF11CD012F0CFC1CF8981823031F05A
:103E5000853059F68A810E94DD1DB8CF6A817B8149
:103E60008C819D810E940C2D0E94B51DAFCF4B818E
:103E70006A8189810E944C219827892798279D83F0
:103E80008C83A4CF2C813D813227232732274B817D
:103E90006A8189810E946E2199CF0E948A2196CFE2
:103EA0006C2DCE010E94BF1E91CF0E94FE218983FE
:103EB0008DCF0E9400229827892798279A8389838B
:103EC00085CF6B8170E089819A81AE014C5F5F4F35
:103ED0009827892798270E94032278CF6B8170E06A
:103EE00089819A81AE014C5F5F4F98278927982777
:103EF0000E9428226BCF0E944D2268CF0E943A2157
:103F0000D6CF6B8170E089819A81AE014C5F5F4FA3
:103F10009827892798270E94AA2158CF6B8170E0A3
:103F200089819A81AE014C5F5F4F98278927982736
:103F30000E94CE214BCFCF93DF93EC01FB01858113
:103F4000882309F4D2C09E0130572332310508F08E
:103F5000B2C00E94A40D9093EE028093ED02FE0188
:103F6000E150F047E232F10520F4E352F14D0C94B8
:103F7000062D8091ED0281608093ED0293C08091C7
:103F8000EE0288608093EE028DC08091ED02826027
:103F9000F3CF8091ED028460EFCF8091ED028860D5
:103FA000EBCF8091EE028160EDCF8091EE028260D6
:103FB000E9CF8091ED028061DFCF8091ED028062D8
:103FC000DBCF8091ED028064D7CF0E94FF07809104
:103FD000ED028068D1CF8091ED028C60CDCF8091D1
:103FE000EE028360CFCF8091ED028E7FC5CF8091AE
:103FF000EE02877FC7CF8091ED028D7FBDCF80918C
:10400000ED028B7FB9CF8091ED02877FB5CF809194
:10401000EE028E7FB7CF8091EE028D7FB3CF80917D
:10402000ED028F7EA9CF8091ED028F7DA5CF80918B
:10403000ED028F7BA1CF0E94FF078091ED028F7769
:104040009BCF8091ED02837F97CF8091EE028C7F92
:1040500099CF8091ED0282FB992790F921E0922778
:1040600090FB82F990FB83F987CF8091EE02982F25
:10407000909591708E7F892B90FB81F983CF9091E1
:10408000ED02892F8F7B96FF806476CF0E94FF0719
:104090009091ED02892F97FB87F980586DCF81E0D1
:1040A0000E94340E8091ED029091EE020E94A90DC3
:1040B0000E94FF0780E0DF91CF91089580E0F0CF6C
:1040C0009091ED02892F8F7E94FF806155CF909162
:1040D000ED02892F8E7F90FF81604ECF9091EE028E
:1040E000892F877F93FF88604DCF81E0E4CFB0E0D8
:1040F000A0E0EDE7F0E20C944F2DE82FF0E0E25E57
:10410000FB4FD490282F26952695269530E0F9016F
:10411000E254FB4F0491877010E0082E02C0159501
:1041200007950A94E2F701701127F901E255FB4F58
:10413000E490F12C082E02C0F594E7940A94E2F77B
:1041400091E0E922FF24F901E256FB4FC491D0E04F
:1041500002C0D595C7958A95E2F7C170DD27011594
:10416000110519F081EE0E94C104E114F10419F067
:1041700086EE0E94C1048D2D0E94B305E114F10466
:1041800019F086EE0E944A050115110519F081EE1D
:104190000E944A05CD2B19F08CE20E94B305CDB7E1
:1041A000DEB7E7E00C946B2DEF92FF920F931F9315
:1041B000CF93DF93EC01162F0AE08881882309F45E
:1041C00054C0813009F04EC08981813099F47E015C
:1041D00022E0E20EF11C8A810E94B305E7012196DC
:1041E000812F815050F3EFE9FFE03197F1F700C0E4
:1041F0000000F7CF823041F47E0182E0E80EF11C2E
:104200008A810E94C104EACF833041F47E01E2E05A
:10421000EE0EF11C8A810E944A05E0CF843011F035
:104220002196DDCF2A81229690E080E0AE014F5F9B
:104230005F4F2053330B2A30310548F0019778F255
:10424000EFE9FFE03197F1F700C00000F7CF089FDA
:10425000B001099F700D1124C901860F971F298194
:10426000EA01E4CF0E947720BACFCDB7DEB7E6E00F
:104270000C946C2D84E0089550E0440F551F9CE190
:10428000699F400D511D11249CE8899F400D511DCF
:104290001124CA01899608950F931F93CF93DF933A
:1042A0008430C8F46530B8F44E30A8F40E943C2144
:1042B0008C010E94302EC82FD0E0DC2FCC27C80103
:1042C00001960E94302E9E01282BC901DF91CF91CB
:1042D0001F910F91089590E080E0F8CF0F931F9306
:1042E000CF93DF93122F032F843078F4653068F476
:1042F0004E3058F40E943C21EC01602F0E94542E55
:10430000612FCE0101960E94542EDF91CF911F9113
:104310000F9108951F93CF93DF93D0E0C0E011C0B9
:10432000412F6C2F8D2F0E9446039C01412F6C2F33
:104330008D2F0E946E211F5F1E3091F7CF5FC53019
:1043400011F010E0EDCFDF5FD43041F7DF91CF9176
:104350001F910895EF92FF920F931F93CF93DF93D6
:10436000EC018A017C01E60EF71ECE018996CE157E
:10437000DF0529F4CDB7DEB7E6E00C946C2DC03331
:1043800022E0D20740F40E94302EF80180830F5FB4
:104390001F4F2196EACFF8011082F9CFB0E0A0E0DC
:1043A000E4EDF1E20C944E2D7C016A018C01060FC4
:1043B000171FEC01CE018996C017D10729F4CDB79C
:1043C000DEB7E8E00C946A2DC03322E0D20740F457
:1043D000FE01EE19FF09EC0DFD1D60810E94542EB7
:1043E0002196E8CF843038F4653028F44E3018F444
:1043F0000E944C21089590E080E0089580E10895A6
:1044000087EA91E00895EF92FF920F931F93CF9365
:10441000DF93EC018A017C01E60EF71ECE01875A7C
:104420009D4FCE15DF0529F4CDB7DEB7E6E00C943D
:104430006C2DC73A21E0D20740F40E94302EF801DB
:1044400080830F5F1F4F2196E9CFF8011082F9CFCB
:10445000B0E0A0E0EEE2F2E20C944E2D7C016A01A5
:104460008C01060F171FEC01CE01875A9D4FC01714
:10447000D10729F4CDB7DEB7E8E00C946A2DC73A2E
:1044800021E0D20740F4FE01EE19FF09EC0DFD1DFD
:1044900060810E94542E2196E7CFCF93DF93C9E528
:1044A000D2E060E0CE010E94542E2196C11584E036
:1044B000D807B9F7DF91CF910895A8E0B0E0E3E61F
:1044C000F2E20C944C2DF82E8FE08F1508F46EC09C
:1044D0008FEF93E00E94302E811168C009E512E051
:1044E000F11035C0FE0131966F0188E011928A9576
:1044F000E9F77801FFEFEF1AFF0AC8010E94302E9A
:1045000089831A82882309F451C08130D1F458017B
:1045100082E0A80EB11CC7010E94302E8A83882336
:1045200009F444C09FEF980F9330F0F4780193E0C2
:10453000E90EF11CC5010E94302E8B838823B1F156
:104540001C8260E0C6010E94D4208701D2CF0115F1
:1045500094E0190759F1C8010E94302E811101C061
:10456000FA940F5F1F4FBCCF7501843051F702E002
:1045700010E07501EFEFEE1AFE0AC5010E94302E21
:10458000F601E00FF11F8083882381F08C3741F41E
:10459000E2E0F0E0EC0FFD1FE00FF11F1082D1CF41
:1045A0000F5F1F4F57010730110519F72896EAE0F2
:1045B0000C94682DCF93DF93EB0186319C4711F566
:1045C0000E948D0C9D81992399F08A7A91E009F4DB
:1045D00090E09093D802811109C089E20E94650C95
:1045E0000E94E60C80E0DF91CF91089585E3F6CF3D
:1045F0008091D802811104C089E20E946D0CF0CF35
:1046000085E3FBCF81E0EFCF0F931F93CF93DF9331
:10461000C42FD22FFC0185818823C9F04093DB028F
:104620000E940F259093DA028093D90280E28C0FCA
:10463000883040F4C77081E001C0880FCA95EAF75E
:104640000E94BC05DF91CF911F910F9108951091A9
:10465000DB02141332C08091D9029091DA020E94D9
:104660002725883C910548F5C0E2CD0F1D17B9F00C
:1046700080E2810F883040F4177081E001C0880F1C
:104680001A95EAF70E94C305C83048F481E09D2FCF
:10469000977001C0880F9A95EAF70E94BC05802F99
:1046A0000E94B305C83070F6D77081E001C0880F52
:1046B000DA95EAF70E94C305C5CF80E28C0F8830F7
:1046C00008F6C77081E001C0880FCA95EAF7F2CFFB
:1046D0000F93DB0188519C4787309105A0F5FC01C1
:1046E000E150F14D0C94062D06E221EE41EE6AE117
:1046F0007CE7CD010E94042380E00F91089507E23A
:1047000025EE45EE6BE17CE7F4CF06E221EE40EECC
:1047100068E17CE7EECF07E225EE44EE69E17CE755
:10472000E8CF06E221EE42EE6CE17CE7E2CF07E261
:1047300025EE46EE6DE17CE7DCCF08E221E045EEB8
:104740006EE17CE7D6CF15968C91882319F01092F4
:10475000DB02D3CF81E0D1CF1F93CF93DF93873795
:104760002CE7920759F0C1E088379C47E1F4FB0140
:10477000C581CC2371F10E94EF2306C0FB01C581E6
:10478000CC23B1F00E94EC230E9477080E94F22310
:10479000D82F0E94EF23C82F0E94EC234D2F6C2F9F
:1047A0000E949F09C0E08C2FDF91CF911F91089547
:1047B0000E94EC230E9483080E94F223182F0E947B
:1047C000EF23D82F0E94EC23412F6D2F0E949F09C9
:1047D000EACF0E94EF23EECF80911B0108958091D4
:1047E0001A0108958091190108959093E102809330
:1047F000E0020895E091E002F091E102309729F0A3
:104800000190F081E02D0995089580E008950E94BF
:10481000FA230895E091E002F091E102309721F04F
:104820000280F381E02D09950895A3E0B0E0EBE16B
:10483000F4E20C94542D2091DE023091DF0228170F
:104840003907A1F09093DF028093DE02E091E0024D
:10485000F091E102309751F023E029839B838A8312
:104860000680F781E02DCE01019609952396E2E0BE
:104870000C94702DA3E0B0E0E0E4F4E20C94542D2D
:104880002091DC023091DD0228173907A1F09093C6
:10489000DD028093DC02E091E002F091E1023097CA
:1048A00051F024E029839B838A830680F781E02DE1
:1048B000CE01019609952396E2E00C94702D9C019F
:1048C0002E5F3F4FAC01485F5F4F80E024173507F4
:1048D00009F40895F90191919F019923B9F38F5F2C
:1048E000F5CF662349F0FC013296089621912617F0
:1048F00029F0E817F907D1F780E0089581E00895DD
:104900009C01FC0132969FEF80E04191461751F0E7
:104910009F3F19F4411101C0982F8F5F8630A9F78E
:104920009F3F09F40895290F311D97FD3A95F9012C
:1049300062830895FC01329608962191261303C0E4
:10494000DF0111971C92E817F907B9F708950E9443
:10495000802408950E949A240895029626E0FC017E
:1049600011922A95E9F7089508950E94B4240895B4
:10497000811106C081E08093E2020E94B52408956F
:1049800082E0F9CF83E08093E2020E94B52408958B
:104990000E94B824089581E08093E2020E94B52429
:1049A00008950E94CB240895089508950E94D52467
:1049B0000895089508950E94D4240895CF930E94E5
:1049C000D9240E9450120E94DA24C0E08C2F0E9449
:1049D0008111892B31F4CF5FC530C1F780E0CF91D1
:1049E000089581E0FCCF85B7806885BF85B7806872
:1049F00085BF089580914403843011F00E945104D2
:104A000008950E94FF070E945404089582E084BD27
:104A100093E095BD9AEF97BD80936E0008952FB7F0
:104A2000F89480913C0390913D03A0913E03B09196
:104A30003F032FBF08952FB7F89460913C03709106
:104A40003D0380913E0390913F032FBF08959C0149
:104A50004FB7F89480913C0390913D03A0913E03A1
:104A6000B0913F034FBF821B930B089578941F9220
:104A70001FB61F9211248F939F93AF93BF93809182
:104A80003C0390913D03A0913E03B0913F030196FA
:104A9000A11DB11D80933C0390933D03A0933E0361
:104AA000B0933F03BF91AF919F918F911F901FBE15
:104AB0001F90189581E08093E00080E28093D800F9
:104AC0001092C9008FE19EE40197F1F700C0000049
:104AD00087E090EBDC0180934D0390934E03A0930D
:104AE0004F03B093500388E19CE00FB6F894A8956B
:104AF000809360000FBE90936000FFCF88E19CE040
:104B00000FB6F894A895809360000FBE9093600054
:104B1000FFCF8091EB02089508959B01BA01909117
:104B200044039430E9F48F708093E9009FEF809103
:104B3000E800915085FD06C085ED8A95F1F70000EB
:104B40009111F5CF8091E80085FF0AC050E040E068
:104B5000C9010E94CA278091E8008E778093E800FF
:104B6000089543E050E0BC0184E00E948D25089543
:104B7000CF93DF93EC0148E050E0BC0181E00E945C
:104B80008D2588E0FE01A3EEB2E001900D928A959A
:104B9000E1F7DF91CF910895603231F440E250E0C7
:104BA000BC0182E00E948D2508958091430381110C
:104BB00009C00E94A9290E94062A8091E20084600F
:104BC0008093E20008951092430308950E94CB243D
:104BD00008956091400381E0611101C080E00E946E
:104BE000C2240E94221B08959091440381E09430D6
:104BF00009F080E0609140030E94C8240E94281BB5
:104C00000E94FA230E946104089542E061EC81E071
:104C10000E94252942E261EC84E00E94252942E2BB
:104C200061EC82E00E94252942E260EC83E00E9470
:104C300025299091440381E0943009F080E060914F
:104C400040030E94B824089580914603833009F4FC
:104C500063C030F48130E1F1823009F4A0C00895DE
:104C60008A3009F48CC08B3009F471C0893009F0A6
:104C700052C080914503813209F04DC080914903B3
:104C800090914A03009719F0029709F044C080916F
:104C9000E800877F8093E8008091E80082FF37C0BA
:104CA0009091F3008091F200029731F48091F1002D
:104CB000813011F0863021F48091F1008093EB0275
:104CC0008091E8008B778093E8000E94592923C0E7
:104CD00080914503813AF9F48091E800877F8093C1
:104CE000E8008091490390914A03892B61F468E0C0
:104CF00083EE92E070E00E9468288091E8008B7754
:104D00008093E800089560E090E080E0F3CF809128
:104D100044038111C1CF089580914503813AD9F7A9
:104D20008091490390914A03892BA9F78091E8006B
:104D3000877F8093E8008091E80080FFFCCF80911E
:104D400024018093F1008091E8008E77BCCF8091A0
:104D50004503813201F78091490390914A03892BE1
:104D6000D1F68091E800877F8093E8000E9459295E
:104D700080914703809324010E94FF07089580914A
:104D80004503813241F68091E800877F8093E800F7
:104D90000E945929809148038093EC0208958091E4
:104DA0004503813A09F0B7CF8091E800877F80936F
:104DB000E8008091E80080FFFCCF8091EC02C1CF39
:104DC00084B7877F84BF0FB6F894A8958091600060
:104DD000886180936000109260000FBE80E890E0D0
:104DE0000FB6F89480936100909361000FBE0E940B
:104DF000D12408950E94A9290E94062AE2EEF0E03B
:104E000080818460808378940E94852C08958CE151
:104E100091E00E94F523089580914403853031F498
:104E200080914403853019F00E94012508950E9465
:104E3000FA2480914203882399F30E94DE24882378
:104E400079F30E94B4270E94FF07EACFA0E2B0E006
:104E5000ECE2F7E20C94542D80914403843009F580
:104E600083E08093E9008091E80082FF1AC080917E
:104E7000E80090E085FF09C050E040E060E270E0AB
:104E8000CE0101960E94192891E08091E8008B776D
:104E90008093E800992329F060E2CE0101960E94F8
:104EA000CE1EA096E2E00C94702D9A0140914B0327
:104EB00050914C030E945D270895492F5527433098
:104EC000510521F168F44130510509F443C04230E5
:104ED000510509F444C090E080E050E040E026C075
:104EE0004132510551F142325105A9F76330710544
:104EF00090F7FB01EE0FFF1FE852FE4F40815181FA
:104F00006B527E4FFB01808190E010C09927813069
:104F1000910581F0009729F00297E9F6EEECF4E0B4
:104F200002C0EEEEF4E0849190E0AF01F90151830C
:104F300040830895E8EDF4E0F6CF6330710558F64C
:104F4000660F771FFB01E252FE4F4081518189E0DD
:104F500090E0ECCF82E190E04DE455E0E7CF8BE5C7
:104F600090E042EF54E0E2CF80E189BD82E189BD6B
:104F700009B400FEFDCF8091D8008F7D8093D800CA
:104F80008091E00082608093E0008091E00081FDEC
:104F9000FCCF0895AF92BF92CF92DF92FF920F9312
:104FA0001F93CF93DF936C01EB018A010E94782954
:104FB000F82E811123C00115110539F0F801808107
:104FC0009181C81BD90BC80ED91EB12CA12C2097DA
:104FD000A9F08091E80085FD22C08091E8008E77DD
:104FE0008093E80001151105A1F0F80180819181FD
:104FF000A80EB91EB182A08285E0F82E8F2DDF9118
:10500000CF911F910F91FF90DF90CF90BF90AF9005
:1050100008950E9478298823D1F2F82EEFCFF60167
:1050200081916F018093F1002197FFEFAF1ABF0AC2
:10503000CECFAF92BF92CF92DF92FF920F931F938A
:10504000CF93DF936C01EB018A010E947829F82E3F
:10505000811123C00115110539F0F801808191817A
:10506000C81BD90BC80ED91EB12CA12C2097A9F0B2
:105070008091E80085FD22C08091E8008B778093C5
:10508000E80001151105A1F0F80180819181A80EB9
:10509000B91EB182A08285E0F82E8F2DDF91CF91CD
:1050A0001F910F91FF90DF90CF90BF90AF90089528
:1050B0000E9478298823D1F2F82EEFCF8091F10059
:1050C000F60181936F012197FFEFAF1ABF0ACECF90
:1050D000FC0180914B0390914C0386179707A0F039
:1050E0006115710529F49091E8009E779093E8008E
:1050F00090E06115710551F4911108C08091E800AC
:1051000082FF34C080E00895BC01F2CF8091440357
:105110008823C1F18530C1F18091E80083FD30C062
:105120008091E80082FDEACF8091E80080FFE1CF26
:105130008091F3002091F200382F6115710519F06C
:105140002830310558F091E02830310509F090E021
:105150002091E8002E772093E800CBCF81918093B7
:10516000F100615071092F5F3F4FE7CF80914403F9
:10517000882341F0853041F08091E80083FFBECF65
:1051800081E0089582E0089583E00895FC01809114
:105190004B0390914C0386179707A0F0611571059A
:1051A00029F48091E8008E778093E80090E0611503
:1051B000710551F4911108C08091E80082FF35C05B
:1051C00080E00895BC01F2CF809144038823C9F1A7
:1051D0008530C9F18091E80083FD31C08091E800FD
:1051E00082FDEACF8091E80080FFE1CF8091F3005B
:1051F0002091F200382F6115710519F02830310522
:1052000058F091E02830310509F090E08091E800F5
:105210008E778093E800CBCF84918093F100319614
:10522000615071092F5F3F4FE6CF8091440388237F
:1052300041F0853041F08091E80083FFBDCF81E0EF
:10524000089582E0089583E00895982F973028F01C
:105250008F708093E90081E008959093E900242FF6
:10526000762F50E0981731F07091EC002091ED000E
:105270005091F00021FD02C09F5FE8CF3091EB001C
:105280003E7F3093EB003091ED003D7F3093ED0099
:105290003091EB0031603093EB007093EC00209381
:1052A000ED005093F0002091EE0027FDE5CF80E067
:1052B00008958091450387FF13C08091E80082FF25
:1052C00006C08091E8008B778093E80004C080914D
:1052D00044038111F2CF0895809144038823D9F3C8
:1052E0008091E80080FFF8CF8091E8008E77ECCFC6
:1052F0002091E4003091E50095E6A9012091EC00B1
:10530000822F817020FF06C08091E80080FF06C0D8
:1053100080E008952091E80022FD1AC080914403A6
:10532000882389F0853089F08091EB0085FD0FC0DE
:105330002091E4003091E50042175307F9F29150B3
:10534000E1F684E0089582E0089583E0089581E025
:1053500008950E94182A0E94202AE0EEF0E0808141
:1053600081608083E8EDF0E080818F77808319BCD5
:10537000A7EDB0E08C918E7F8C9380818F7E8083AF
:105380001092430308950F931F93CF93DF930E94CE
:10539000182A0E94202AC8EDD0E088818F77888360
:1053A00088818068888388818F7D888319BC10926A
:1053B000440310924003109242031092410300EE06
:1053C00010E0F80180818B7F8083888181608883F1
:1053D00042E060E080E00E942529E1EEF0E080817B
:1053E0008E7F8083E2EEF0E0808181608083808127
:1053F00088608083F80180818E7F808388818061CE
:105400008883DF91CF911F910F910895E8EDF0E02F
:1054100080818F7E8083E7EDF0E0808181608083F2
:1054200084E082BF81E0809343030E94C3290895F2
:10543000E8EDF0E080818E7F80831092E200089595
:105440001092DA001092E10008951F920F920FB6A9
:105450000F9211242F933F934F935F936F937F93FA
:105460008F939F93AF93BF93EF93FF938091E1004E
:1054700082FF0BC08091E20082FF07C08091E100B3
:105480008B7F8093E1000E94842C8091DA0080FF62
:1054900019C08091D80080FF15C08091DA008E7FFE
:1054A0008093DA008091D90080FF96C080E189BDA9
:1054B00082E189BD09B400FEFDCF81E08093440301
:1054C0000E94D5258091E10080FF19C08091E20003
:1054D00080FF15C08091E2008E7F8093E200809172
:1054E000E20080618093E2008091D8008062809326
:1054F000D80019BC85E0809344030E94E92580917F
:10550000E10084FF2BC08091E20084FF27C080E18E
:1055100089BD82E189BD89B5982F917080FFFBCF4D
:105520008091D8008F7D8093D8008091E1008F7E9C
:105530008093E1008091E2008F7E8093E200809171
:10554000E20081608093E20080914003882309F4A7
:1055500049C084E0809344030E94F4258091E100D7
:1055600083FF29C08091E20083FF25C08091E10084
:10557000877F8093E10082E0809344031092400390
:105580008091E1008E7F8093E1008091E2008E7F28
:105590008093E2008091E20080618093E20042E02B
:1055A00060E080E00E9425298091F000886080936F
:1055B000F0000E94E625FF91EF91BF91AF919F917E
:1055C0008F917F916F915F914F913F912F910F90AC
:1055D0000FBE0F901F90189519BC109244030E94A3
:1055E000E32570CF8091E30087FD93E0909344031F
:1055F000B3CF1F920F920FB60F9211242F933F93A8
:105600004F935F936F937F938F939F93AF93BF93CA
:10561000CF93DF93EF93FF93D091E900DF708091F8
:10562000EC00C82FC17080FDC0E81092E9008091A5
:10563000F000877F8093F00078940E943D2B1092B9
:10564000E9008091F00088608093F000CD2BCF704E
:10565000C093E900FF91EF91DF91CF91BF91AF919E
:105660009F918F917F916F915F914F913F912F917A
:105670000F900FBE0F901F901895AAE2B0E0E3E4E0
:10568000FBE20C94532D85E493E02091F100FC01A2
:105690002193CF01F3E08D349F07B9F70E942426B0
:1056A0008091E80083FF1EC18091450390914603DD
:1056B0009A3008F017C1E92FF0E0EA5FF04D0C9442
:1056C000062D803899F0823809F00CC18091490389
:1056D0008F70873008F006C18093E9008091EB005D
:1056E00085FB882780F91092E90006C0809141036C
:1056F00090914203911182609091E800977F90937E
:10570000E8008093F1001092F1008091E8008E771C
:10571000E5C0882309F4D3C0823009F0E3C080914A
:1057200047038111D6C0809149038F702FEF280F56
:10573000263008F0D7C08093E9002091EB0020FFCD
:10574000C8C0933031F48091EB0080628093EB000D
:10575000C0C09091EB0090619093EB0021E030E0AD
:1057600001C0220F8A95EAF72093EA001092EA001E
:105770008091EB008860EACF8111B4C0109147039B
:105780001F778091E3008078812B8093E3008091E4
:10579000E800877F8093E8000E9459298091E80003
:1057A00080FFFCCF8091E30080688093E30082E07B
:1057B000111183E08093440395C08058823008F033
:1057C00091C080914703909148038C3D23E092075C
:1057D000A1F583E08A838AE289834FB7F894DE01DA
:1057E000139620E03EE051E2E32FF0E050935700A3
:1057F000E49120FF03C0E295EF703F5FEF708E2FC2
:1058000090E0EA30C0F0C7968D939D932F5F2431CE
:1058100059F74FBF8091E800877F8093E8006AE2E4
:1058200070E0CE0101960E9468288091E8008B7795
:105830008093E80057C0C096E7CF6091490370910C
:105840004A03AE014F5F5F4F0E945527BC01892B71
:1058500009F448C09091E800977F9093E80089810F
:105860009A810E94C628E1CF8038E1F58091E80056
:10587000877F8093E800809140038093F10045CFBB
:10588000811130C090914703923060F58091E8001B
:10589000877F8093E800909340030E94592980916C
:1058A0004003882311F084E005C08091E30087FD68
:1058B000FACF81E0809344030E94052613C08091B3
:1058C0004703813079F481E0933009F080E08093E0
:1058D00042031092E9008091E800877F8093E800FE
:1058E0000E9459298091E80083FF0AC08091E80056
:1058F000877F8093E8008091EB0080628093EB00CB
:10590000AA96E3E00C946F2D0895CF938091440301
:105910008823A1F0C091E900CF709091EC00892F0D
:10592000817090FD80E8C82B1092E9008091E8001A
:1059300083FD0E943D2BCF70C093E900CF91089565
:10594000DB018F939F930E94312DBF91AF91A29F56
:10595000800D911DA39F900DB29F900D112408956D
:10596000991B79E004C0991F961708F0961B881FB1
:105970007A95C9F780950895AA1BBB1B51E107C012
:10598000AA1FBB1FA617B70710F0A61BB70B881FCF
:10599000991F5A95A9F780959095BC01CD0108955E
:1059A00097FB072E16F4009407D077FD09D00E94CC
:1059B000BC2C07FC05D03EF4909581959F4F08952F
:1059C000709561957F4F0895A1E21A2EAA1BBB1B0B
:1059D000FD010DC0AA1FBB1FEE1FFF1FA217B307BB
:1059E000E407F50720F0A21BB30BE40BF50B661FD1
:1059F000771F881F991F1A9469F760957095809595
:105A000090959B01AC01BD01CF010895EE0FFF1FE2
:105A10000590F491E02D0994692796276927782746
:105A20008727782708950E941B2D332312F48A1BA1
:105A30009B0B0C942C2DA29FB001B39FC001A39F80
:105A4000700D811D1124911DB29F700D811D1124B7
:105A5000911D08950E941B2DB7FF0895821B930B83
:105A600008950E941B2DA59F900DB49F900DA49F9B
:105A7000800D911D11240895B7FF0C94312D0E94C3
:105A8000312D821B930B08952F923F924F925F927C
:105A90006F927F928F929F92AF92BF92CF92DF923E
:105AA000EF92FF920F931F93CF93DF93CDB7DEB7A3
:105AB000CA1BDB0B0FB6F894DEBF0FBECDBF099437
:105AC0002A88398848885F846E847D848C849B848E
:105AD000AA84B984C884DF80EE80FD800C811B819C
