:100000000C940D040C942A040C9445040C942A04BA
:100010000C942A040C942A040C942A040C942A04A8
:100020000C942A040C9416210C94F2200C942A04AB
:100030000C942A040C942A040C942A040C942A0488
:100040000C942A040C942A040C942A040C942A0478
:100050000C942A04000000000000000000000000D2
:100060000000000000000000000000000000000090
:1000700000000000000000007E0F00D4FFFFFFC75B
:100080000000007800000000000000002A2B28007B
:100090000000000000000000000000000000002937
:1000A000000000002C1E3420212224342627252E77
:1000B000362D3738271E1F202122232425263333AF
:1000C000362E37381F0405060708090A0B0C0D0EDB
:1000D0000F101112131415161718191A1B1C1D2FA7
:1000E0003130232D350405060708090A0B0C0D0EC7
:1000F0000F101112131415161718191A1B1C1D2F87
:100100003130354C1E0F0500047F3F1F64321464EC
:100110003214783C1E1E140A050001010101010180
:1001200001010102020202020202020203030303AE
:10013000030303030404040404040405050505057E
:10014000060606060607070707070808080809093C
:1001500009090A0A0A0B0B0B0C0C0C0D0D0D0E0EE7
:100160000E0F0F0F1010111111121213131414157A
:100170001516161717181819191A1A1B1B1C1D1DEE
:100180001E1E1F2020212222232424252626272844
:1001900029292A2B2C2D2D2E2F3031323233343574
:1001A000363738393A3B3C3D3E3F40414243444577
:1001B000464748494A4C4D4E4F5051535455565856
:1001C000595A5B5D5E5F616264656668696B6C6D00
:1001D0006F7072737577787A7B7D7E808283858776
:1001E000888A8C8E8F91939596989A9C9EA0A2A3B4
:1001F000A5A7A9ABADAFB1B3B5B7BABCBEC0C2C4B9
:10020000C6C9CBCDCFD1D4D6D8DBDDDFE2E4E7E978
:10021000EBEEF0F3F5F8FAFDFFFFAA7F554022233D
:10022000252628292A2C2D2F3032333536383A3BD3
:100230003D3E4042434547494A4C4E505153555725
:10024000595A5C5E6062646668696B6D6F71737544
:1002500077797B7D7F81838587898A8C8E90929444
:1002600096989A9C9E9FA1A3A5A7A8AAACAEAFB151
:10027000B3B4B6B8B9BBBCBEBFC1C2C3C5C6C7C99B
:10028000CACBCCCDCED0D1D2D2D3D4D5D6D7D7D855
:10029000D9D9DADADBDBDBDCDCDCDCDCDDDDDDDDA7
:1002A000DCDCDCDCDCDBDBDBDADAD9D9D8D7D7D6AF
:1002B000D5D4D3D2D2D1D0CECDCCCBCAC9C7C6C566
:1002C000C3C2C1BFBEBCBBB9B8B6B4B3B1AFAEACAC
:1002D000AAA8A7A5A3A19F9E9C9A98969492908E57
:1002E0008C8A89878583817F7D7B79777573716F30
:1002F0006D6B6968666462605E5C5A59575553510C
:10030000504E4C4A4947454342403E3D3B3A3836C1
:10031000353332302F2D2C2A292826252322000080
:1003200000000000000000000001010203040506B7
:10033000080A0C0F1114181C2024292E33393F46AB
:100340004C535B626A7179818A929AA2AAB2B9C14E
:10035000C8CFD5DCE1E7EBF0F4F7FAFCFDFEFFFED9
:10036000FDFCFAF7F4F0EBE7E1DCD5CFC8C1B9B298
:10037000AAA29A928A8179716A625B534C463F398C
:10038000332E2924201C1814110F0C0A080605040A
:10039000030201010000000000000000000029002D
:1003A0001E001F0020002100220023002400250041
:1003B000260027002D002E002A004900530054007B
:1003C000550048002B0014001A0008001500170003
:1003D0001C0018000C00120013002F0030004C000D
:1003E0004C005F00600061005600390004001600F8
:1003F000070009000A000B000D000E000F0033007B
:1004000034002800280031005C005D005E005700C9
:10041000E1002C001D001B00060019000500110062
:100420001000360037003800E500E50052005900A2
:100430005A005B005800E000E3000000E20000000A
:1004400000002C00000000000000E600E700E400CF
:10045000500051004F00620063005800010001008D
:100460000100010001000100010001000100010084
:100470000100010001000100010001000100010074
:100480000100010001000100010001000100010064
:100490000100010001000100010001000100010054
:1004A0000100010001000100010001000100010044
:1004B0000100010001000100010001000100010034
:1004C0000100010001000100010001000100010024
:1004D0000100010001000100010001000100010014
:1004E0000100010001000100010001000100010004
:1004F00001000100010001000000010000000000F7
:1005000001000000000000000100010001000100E6
:1005100001000100010001000100010001000100D3
:1005200001000100010001000100010001000100C3
:1005300001000100010001000100010001000100B3
:1005400001000100010001000100010001000100A3
:100550000100010001000100010001000100010093
:100560000100010001000100010001000100010083
:100570000100010001000100010001000100010073
:100580000100010001000100010001000100010063
:100590000100010001000100010001000100010053
:1005A0000100010001000100010001000100010043
:1005B0000100010001000000010000000000010036
:1005C0000000000000000100010001000100010026
:1005D0000100010001000100010001000100010013
:1005E0000100010001000100010001000100010003
:1005F00001000100010001000100010001000100F3
:1006000001000100010001000100010001000100E2
:1006100001000100010001000100010001000100D2
:1006200001000100010001000100010001000100C2
:1006300001000100010001000100010001000100B2
:1006400001000100010001000100010001000100A2
:100650000100010001000100010001000100010092
:100660000100010001000100010001000100010082
:100670000100010000000100000000000100000076
:100680000000000001000100010001000100010064
:1006900001000100010005010902A1018502090113
:1006A000A100050919012908150025019508750102
:1006B00081020501093009311581257F95027508F0
:1006C000810609381581257F950175088106050C7D
:1006D0000A38021581257F950175088106C0C0057D
:1006E000010980A101850319012AB700150126B768
:1006F00000950175108100C0050C0901A101850458
:1007000019012AA002150126A00295017510810089
:10071000C00660FF0961A1010962150026FF00956E
:1007200020750881020963150026FF0095207508D1
:100730009102C005010906A101050719E029E71585
:100740000025019508750181029501750881030551
:1007500007190029FF150026FF009506750881007E
:100760000508190129059505750191029501750383
:100770009103C010034F006C006C00790020004210
:10078000004200000022034D006500630068006C19
:10079000006F00760069006E002E00530074007533
:1007A00000640069006F0000000403090409025B93
:1007B00000030100A0FA090400000103010100097F
:1007C0002101010001224000070581030800010901
:1007D000040100020300000009210101000122229E
:1007E0000007058403080001070504030800010948
:1007F0000402000103000000092101010001227B25
:100800000007058303080001120110010000000821
:100810004C4D81D101000102000111241FBECFE522
:10082000D8E0DEBFCDBF23E0A6EEB0E001C01D9250
:10083000A939B207E1F710E0A0E6B0E0E6E0F5E59F
:1008400002C005900D92A63EB107D9F70E948821FB
:100850000C94F9290C940000A82FB92F80E090E0A7
:1008600041E050EA609530E009C02D9182279795CC
:10087000879510F084279527305EC8F36F5FA8F343
:100880000895EADF8D939D930895CF93CFB7CF93CB
:10089000DF93C395839BE9F7839B10C0839B0EC0B6
:1008A000839B0CC0839B0AC0839B08C0839B06C0AC
:1008B000C0917303C395C09373038EC06F93C091AF
:1008C0007203DD27C958DC4F2F9365E5839B03C076
:1008D0002F916F91E1CF0F931F934F9320E040E151
:1008E0005F9300B30C7003FB27F93F9350E03BE0AC
:1008F00039C01C7040642F77012F5F5F1EC04068B5
:1009000010B31C702F7752501FC0406400B32F7774
:100910000C70D1F15F5F00C023C0406210B32F772D
:100920001C7091F15F5F00C025C00C701027515002
:1009300012F45D5F0000115027952C3F10B3C8F6EC
:100940001C700127015027952C3FC8F64227499378
:1009500000B30C7010274F73115027952C3FA8F649
:100960004695469510B31C7079F0012701502795E4
:100970002C3F98F66B5A60F3315000B3B0F600C0CC
:1009800010E81ABF00271CC03B503195C31BD04054
:1009900010E81ABF0881033C21F10B3411F12091BA
:1009A00070031981110F1213EDCF4A81441F0936CC
:1009B00079F10D3211F0013E29F74F7009F0042F43
:1009C000009376033F915F914F911F910F912F916B
:1009D0006F91CAB7C7FD5DCFDF91CF91CFBFCF91E8
:1009E000189520917603222369F310917403112343
:1009F00009F049C034300AF448C03093740320939E
:100A00007103109172033BE0311B309372033DC0C0
:100A1000009174030130BCF50AE54F7049F4309140
:100A20007C0034FD33C000937C00CDE4D3E032C0C1
:100A3000433059F0443091F03091580334FD26C0D2
:100A400000935803C9E5D3E025C030918D0334FDF0
:100A50001DC000938D03CEE8D3E01CC03091640329
:100A600034FD14C000936403C5E6D3E013C005272A
:100A700010E000C0000002BB1AC0052710E0221FD2
:100A80001DC010E021C04AE502C032ED432FC4E191
:100A9000D0E032E011B31C60939A02B311BB5CE06A
:100AA00020E865E320FF052702BB279517951C3F2B
:100AB000F0F66695B8F7B1F720FF052702BB27953A
:100AC00017951C3FD0F62795179517FF05270000AF
:100AD0001C3F02BBB0F629913A9519F7037F10919C
:100AE0007503110FC651D04002BB11F01093700373
:100AF00010E81ABF086011B3137F402F437F54E002
:100B00005A95F1F702BB11BB42BB5CCF482F209135
:100B100049039091100357E0291302C080E0089523
:100B200030E0529FF001539FF00D1124EF5EFC4F17
:100B30008181681306C08081481303C085818111BB
:100B4000EECF2F5F3F4F2770E7CFFC0183818330CB
:100B500089F130F48130F1F0823021F180E00895A4
:100B6000813209F446C08232C9F7248135812130AF
:100B7000310509F45CC02115310509F450C022305B
:100B8000310561F786E996E090930F0380930E0399
:100B90008BE7089588E098E090930F0380930E030D
:100BA00082E108958DEA97E090930F0380930E03FE
:100BB0008BE5089582818130A1F0882351F0823045
:100BC00069F683E797E090930F0380930E0380E12B
:100BD000089589EA97E090930F0380930E0384E0D1
:100BE000089585E897E090930F0380930E0382E2C7
:100BF00008958281813081F0882331F0823009F0BC
:100C0000ADCF88EF97E002C08FEB97E090930F0392
:100C100080930E0389E0089588ED97E0F7CF83E392
:100C200097E090930F0380930E0380E4089521E1F1
:100C300037E030930F0320930E030895809109034A
:100C4000089588E198E00FB6F894A89581BD0FBE8D
:100C500091BDA895F894D8E0CEE528E3299320E04B
:100C6000299314BEFFCF08959C014FB7F89480914B
:100C7000580290915902A0915A02B0915B024FBF65
:100C8000821B930B08952FB7F8948091580290918E
:100C90005902A0915A02B0915B022FBF08959C01A6
:100CA000FC0132969FEF80E04191461751F09F3F43
:100CB00019F4411101C0982F8F5F8630A9F79F3F2B
:100CC00009F40895290F311D97FD3A95F9016283C2
:100CD0000895A3E0B0E0EFE6F6E00C9460282091E0
:100CE00056023091570228173907A1F09093570206
:100CF00080935602E0915402F0915502309751F0E2
:100D000024E029839B838A830680F781E02DCE012E
:100D1000019609952396E2E00C947C28A3E0B0E0CC
:100D2000E4E9F6E00C9460282091520230915302DD
:100D300028173907A1F09093530280935202E09153
:100D40005402F0915502309751F023E029839B83A0
:100D50008A830680F781E02DCE01019609952396BE
:100D6000E2E00C947C28E0915402F0915502309717
:100D700029F00190F081E02D0995089580E0089513
:100D8000B0E0A0E0E6ECF6E00C9456288C0186B5C5
:100D900097B56CE070E00E940C286017710758F05E
:100DA000C80169E070E00E940C28CB01CDB7DEB726
:100DB000ECE00C94722886B597B5E6B4F7B4C6B4E7
:100DC000D7B4C6E0D0E0BE010E940C2830E020E09D
:100DD000060F171F211D311D4801590185E0880CA0
:100DE000991CAA1CBB1C8A95D1F7C701BE010E94A1
:100DF0000C28F12CE12CA7019601260F371F411D6D
:100E0000511DC501B4010E94C82969017A01E6B5E6
:100E1000F7B5CA01B9010E94EE279B01AC01DF01C1
:100E20000E94B5299B01AC01C701B6010E94EE27C3
:100E30002FE096958795779567952A95D1F706B512
:100E400017B530E020E0061717072807390708F024
:100E5000ACCF66B577B5A9CF8430B8F4811116C090
:100E60009FB59F7D9FBDA6B5B7B5282F30E00E94E6
:100E7000EA2923E030E040E050E00E94C829C9019F
:100E80000E94C00699BD88BD089583E09FB5906219
:100E9000E9CF282F220F220F220F90914E02977038
:100EA000922B90934E02987F21E009F420E09091DC
:100EB0004E0220FB90F990934E020E942C07089559
:100EC000FA01811101C0FB010995089508958091EF
:100ED0004602982F9E7F29F481708260809346029B
:100EE00008958635E8F381708465F8CFAF92BF929C
:100EF000DF92EF92FF920F931F93CF93DF93082F10
:100F0000162FE901E42FF0E0E75EFE4F611110C0FB
:100F1000E4915E2F4E2F4983E8835A83DF91CF916E
:100F20001F910F91FF90EF90DF90BF90AF900895C9
:100F3000E62EF12C4491D42EE42FF0E026E0829F9F
:100F4000C00111242FEF30E0B9010E940C28802F3E
:100F500090E0880F991F55E5569FD001579FB00D1F
:100F600011248A1B9B0B982F990F890F5901AE18DA
:100F7000BF08AE9ED001AF9EB00DBE9EB00D112435
:100F80005B2F189F80011124012F11275901A01AEE
:100F9000B10AAE9E8001AF9E100DBE9E100D1124B1
:100FA0005901A81AB108AE9CC001AF9C900DBE9C1F
:100FB000900D1124892F9927281B390B2E9FC001D2
:100FC0002F9F900D3E9F900D1124E92F62307105E7
:100FD000A1F050F46115710509F49DCF61307105E0
:100FE00081F0EB2F512F97CF6430710569F080F0BD
:100FF0006630710509F48FCFF4CFE42F4B2F592FB2
:101000008ACFE42F412F87CFEB2F542F492F83CF47
:101010004B2F5D2DE12F7FCF0E9443069C019091C5
:10102000770180917801982B21F0309374012093FF
:1010300073019091790180917A01982B21F030937E
:10104000720120937101E0915402F09155023097A2
:1010500049F082E0809375010480F581E02D85E7F9
:1010600091E0099508958091700180FD16C081FD81
:1010700016C082FD16C080916F018823A1F08832CE
:1010800080F428E0829FC001112468E270E00E9491
:101090002028862F672B39F0089582E0089584E098
:1010A000089588E0089581E008958091700180FDA1
:1010B00014C081FD14C082FD16C080916E0188238A
:1010C00081F08E3180F420E5829FC00111246EE111
:1010D00070E00E942028862F089584E1089588E218
:1010E000089588E0089580E50895282F35EB2303BF
:1010F000C001112497FF04C080589109892F0895D9
:1011000080589F4FFBCF80E0089590913C0192FF63
:1011100010C041E0282F2471243009F040E031E074
:10112000282F2871283009F030E0431711F02CE007
:10113000822793FF10C041E0282F2471243109F049
:1011400040E031E0282F2871283109F030E04317C2
:1011500011F02CE0822730913D0130FF10C051E0AA
:10116000282F2171213009F050E041E0282F28710B
:10117000283009F040E0541711F029E0822731FFB0
:1011800010C041E0282F2171213109F040E031E009
:10119000282F2871283109F030E0431711F029E099
:1011A000822794FD877E089582389105B9F1B0F4C5
:1011B0008133910509F47DC048F48932910509F421
:1011C0006DC08A32910509F47BC00895853391057D
:1011D00009F45FC08933910509F10895833E9105B3
:1011E000D9F138F4803E910529F1823E910579F1DB
:1011F0000895863E9105D9F1873E910509F43EC0D8
:10120000843E910541F520913D0121FF24C080914C
:101210003C0184FD19C087EE90E0089520913C01C7
:10122000237009F05AC020913D0123FF14C089E2C8
:1012300090E0089520913C0120FD38C030913D019F
:1012400030FF09C024FF43C090E080E00895209162
:101250003C0122FDF7CF089520913C0122FD3AC0C8
:1012600030913D0130FD39C024FFF5CFEDCF209105
:101270003C0123FFF0CF24FDE7CFCDCF20913C01EF
:1012800023FD2EC030913D0131FFEECF84EE90E082
:10129000089520913C0125FFDECFC9CF20913C016C
:1012A00025FD21C020913D0123FFD5CF89E390E0AA
:1012B000D2CF20913C0126FFCECF8AE290E0089564
:1012C00020913C0126FFC7CF81E390E0089583EE93
:1012D00090E0089582EE90E0089580EE90E0089509
:1012E00086EE90E0089585E390E008951F93CF93F4
:1012F000DF930E94D408EC01C11580E5D807F0F512
:10130000C11580E4D80708F09CC0C03ED10520F587
:10131000CD3CD10508F082C0C83AD10578F4C53A71
:10132000D10508F073C0C130D10519F1209709F13A
:10133000C430D105F0F4D0E0C0E01BC0C33CD105FF
:10134000D0F7C85AD0E0CC0FDD1FC058DF4F09904E
:10135000D881C02DD4640DC0C11580E2D80708F033
:10136000D1C0C11581E0D80708F05AC0C83ED105E8
:1013700010F7CE01DF91CF911F910895C03682E51D
:10138000D80718F5C03482E5D80708F06BC0C03222
:1013900082E5D80708F05FC0C11582E5D80708F4D8
:1013A00097C02C2F2695269580E2289F9001112426
:1013B0008C2F8370C1E0D0E002C0CC0FDD1F8A9576
:1013C000E2F7C22BD32BDD68D4CFC03A82E5D80731
:1013D00060F4C03882E5D80708F459C0CF71D0E076
:1013E000DC2FCC27C46FD06AC4CFC03C82E5D807BD
:1013F00008F462C0C03E82E5D80708F09CCFDC2F1D
:10140000CC27CC27DF71C06FD06AB3CFC55AD0E0EC
:10141000C358DF4FC881D0E0D064ABCFD065A9CF2F
:101420008D2F0E948508182FCE0199270E94D4087D
:10143000C12FD0E0DC2FCC27CC27DF71C82BD92BD4
:1014400098CFCE0199270E94D408CC27DF70C82BF3
:10145000D92BD06A8ECFCF71D0E0DC2FCC27C16FD3
:10146000D06A87CF2C2F26952695277080E2289F5B
:10147000900111248C2F8370C1E0D0E002C0CC0F0A
:10148000DD1F8A95E2F7C22BD32BDC6872CF2C2F9D
:1014900026952695277080E2289F900111248C2F95
:1014A0008370C1E0D0E002C0CC0FDD1F8A95E2F767
:1014B000C22BD32BDA685DCF8C2F8F710E948508E9
:1014C000C82FD0E0DC2FCC27CC27DF71D06251CFE2
:1014D0008C2F8F710E94850855E0D695C7955A9537
:1014E000E1F7CF70D0E0DC2FCC27282F30E084FF4D
:1014F00005C044E0220F331F4A95E1F7C22BD32BDE
:10150000D06937CF8D2F8F710E948508182FCE019B
:1015100099270E94D408C12FD0E0DC2FCC27CC27FC
:10152000DF71C82BD92BD2CF8095909120019823C1
:101530009093200108958091200190911F01892BA3
:101540008093E80090911E01992391F0892B80935C
:10155000E80020E08AEE90E0FC013191CF013111EA
:101560002F5FF0E0803F9F07B9F7211110921E0115
:10157000E0915402F0915502309731F00280F381EE
:10158000E02D88EE90E009950895809149039091AF
:101590001003981301C008958F5F8770FACF292F29
:1015A000953078F5833168F590E033E1239F800D25
:1015B000911D1124682F677023E0969587952A95D1
:1015C000E1F7FC01EE0FFF1FE80FF91FEE50FF4F90
:1015D00050E040E080E0219130E0062E02C03695D8
:1015E00027950A94E2F721703327042E01C0220FB9
:1015F0000A94EAF7822B4F5F5F4F4330510559F74A
:10160000089580E00895292F953098F5833188F565
:1016100090E033E1239F800D911D1124282F277026
:1016200041E001C0440F2A95EAF723E0969587959B
:101630002A95E1F7FC01EE0FFF1FE80FF91FEE50AE
:10164000FF4F30E020E070E05191DF011197CB01B6
:10165000022E02C0969587950A94E2F781708195D3
:101660008527842385278C932F5F3F4F23303105B7
:1016700059F70895809321010895882321F00E944D
:10168000940A0E949B0A0895882339F090912001C2
:10169000982B909320010E949B0A0895662309F4D9
:1016A0005DC08D3C41F40E9455088195809378017E
:1016B0000E940C0808958E3C19F40E945508F6CF3C
:1016C0008F3C31F40E945508819580937701F0CFCB
:1016D000803D19F40E945508F8CF893D29F40E94F5
:1016E000330880937901E4CF8A3D21F40E943308C6
:1016F0008195F7CF8B3D31F40E943308819580931B
:101700007A01D6CF8C3D19F40E943308F8CF9FE2BE
:10171000980F983070F4815D990B21E030E001C0A2
:10172000220F8A95EAF780917601822B80937601C9
:10173000BFCF8D3D31F48091700181608093700145
:10174000B7CF8E3D21F4809170018260F7CF8F3D3D
:1017500009F0AECF809170018460F0CF40917701A5
:101760008D3C59F48091780187FF0DC0109278016B
:1017700041110BC010926E0108C08E3C81F4809123
:10178000780118169CF3442381F08091790190919F
:101790007A01892B09F08CCF10926F0189CF8F3C91
:1017A00049F447FFF0CF10927701809178018111C1
:1017B000ECCFE0CF803D19F41416ACF3E4CF909158
:1017C0007901893D29F41916F4F610927901DBCFDD
:1017D0008A3D19F497FFD7CFF8CF90917A018B3DCE
:1017E00029F497FFD0CF10927A01CDCF8C3D19F418
:1017F0001916CCF3C8CF9FE2980F983090F4815D12
:10180000990B21E030E0B90102C0660F771F8A957D
:10181000E2F7CB0180959091760189238093760140
:10182000B2CF8D3D31F4809170018E7F8093700135
:10183000AACF8E3D21F4809170018D7FF7CF8F3D2F
:1018400009F0A1CF809170018B7FF0CF8823D1F177
:101850009CEF980F913A78F4EAEEF0E091918913B9
:1018600003C0DF0111971C9290E0E03FF907B1F748
:101870000E949B0A089590E2980F983050F4877068
:1018800091E001C0990F8A95EAF7892F0E94940A86
:10189000EFCF9BE5980F933028F490E080E00E9412
:1018A0008E06089598E5980F9B3128F490E080E02B
:1018B0000E946906089593E3980F933118F460E04D
:1018C0000E944E0B0895CF93C82F8823B1F08CEF60
:1018D0008C0F813A00F5EAEEF0E080EF90E0DF0156
:1018E0002D91C21761F08A179B07D1F76C2F88EEF4
:1018F00090E00E944F060E949B0ACF91089521918B
:10190000C21303C0DF0111971C928E179F07B9F70E
:101910000E949B0AEBCF80E28C0F883068F4C7707E
:1019200021E030E001C0220FCA95EAF78091200142
:10193000822B80932001DFCFEBE5EC0FE33040F406
:10194000F0E0E358FF4F808190E00E948E06D5CFF3
:10195000E8E5EC0FEB3150F4F0E0EE0FFF1FE0583C
:10196000FF4F808191810E946906C7CF83E38C0F6E
:10197000833118F661E08C2F0E944E0BBECF80FFA2
:1019800009C0C19A81FF08C0C09A82FF07C0C29AED
:1019900081E00895C198F6CFC098F7CFC298F8CFEC
:1019A000882381F081FF0EC0919A82FF0EC0909A29
:1019B00083FF0EC0A99A84FF0EC0A89A85FF0EC0AF
:1019C000AE9A089591988111F0CF90988111F0CF3F
:1019D000A9988111F0CFA8988111F0CFAE98089501
:1019E0000E94D00C80933B01089590913B0121E02F
:1019F00030E0F90101C0EE0F8A95EAF7D90102C083
:101A0000AA0FBB1F6A95E2F7EA2B01C0220F4A9585
:101A1000EAF7892F8E23E81305C0292B822F0E9415
:101A2000F00C089520952923F9CF21E030E001C082
:101A3000220F8A95EAF7209580913B0182230E942C
:101A4000F00C089590911D018095892380931D01CC
:101A5000282F277069F4891759F090913D0192FF62
:101A600007C08695869586950E94150D10921D01DA
:101A7000089521E030E001C0220F8A95EAF78091B5
:101A80003B01822B0E94F00C0895CF93DF9380914D
:101A90007403835087FD14C090917203CCE0D0E0B2
:101AA000C91BD109C958DC4F90917103903108F0DE
:101AB0006BC0883009F453C01092FE021092740378
:101AC00080917C0084FF3EC080917B008F3FD1F1EC
:101AD000C82F893008F0C8E0982F9C1B90937B009A
:101AE00090914D0328E8922790934D038823E9F0C5
:101AF00080910E0390910F0320910D0326FF06C1E4
:101B0000FC012C2FAEE4B3E034913D93319621508B
:101B1000D9F79C012F5F3F4F8FEF8C0F820F932FD0
:101B2000911D90930F0380930E036C2F8EE493E02E
:101B30000E944104CC5FCC3019F08FEF80937B0082
:101B4000C0937C0084E190B39C7031F48150D9F74C
:101B50001092750310927003DF91CF9108958091D8
:101B6000FE02893108F0A8CFE82FF0E0E252FD4FE5
:101B70009E01285F3F4F99919193C217D307D9F7E0
:101B8000885F8093FE029ACF9D3209F0A3C088300F
:101B900009F094CF83EC80934D038AE580937C0019
:101BA00010920D038881807609F447C0803229F5B0
:101BB0008981813099F48C819D81892BF1F480E0B9
:101BC00093E090930F0380930E0388E09F8191111F
:101BD00031C09E81981770F5892F2CC0823041F456
:101BE0008FEF92E090930F0380930E0381E0EECF8E
:101BF0008A3029F48B818093FF0280E0E7CF89301F
:101C0000E1F78A819B818115924069F48C819D81E5
:101C1000892B49F481E080930C038E819F819093FE
:101C20000B0380930A03888187FF52C08E8190E85E
:101C300090930D0380937B0041CF2A81109256032D
:101C4000998191110AC01092570326E533E082E092
:101C500030930F0320930E03B9CF953029F42093CE
:101C6000750326E533E0F4CF9630C1F49B819130C3
:101C700049F4CE010E94A50590E490930D038F3F97
:101C800091F2A4CF9230A9F3933099F3913289F372
:101C9000923279F390E490930D0398CF983089F0C5
:101CA000993019F420930803DCCF9A3071F09B30FF
:101CB000C1F69BE49093590390938E039093650330
:101CC000D0CF28E033E081E0C3CF26E533E0FBCF7F
:101CD0008FEFADCF80910D0387FFF0CE80910A0387
:101CE00090910B03892B71F080910C03813051F49A
:101CF00088818093090310920B0310920A031092BB
:101D00007B00DCCE8EE180937C00D8CEDC012C2FD2
:101D1000EEE4F3E03D9131932150E1F7FACE1F93C9
:101D2000CF93DF93E82F792F162FEA01888184FF64
:101D30001CC0298188E828272983CE010296DC016E
:101D40002E2F372F512F5E0FF90121912D939F01D7
:101D5000452F4E1B1416C4F3612F0E9441041C5FD3
:101D60001883DF91CF911F9108958AE58883E5CF8D
:101D700020918D0324FF05C04DE853E066E00E94EA
:101D80008F0E089520918D0324FF05C04DE853E088
:101D900063E00E948F0E0895CF93DF93CAE0D0E0F6
:101DA0008091580384FF1CC08091DC029091DD0279
:101DB000981799F028E0829FC001112448E553E06C
:101DC00068E0845A9D4F0E948F0E8091DC0290E063
:101DD00001968F7099278093DC02DF91CF9108954F
:101DE0000E94450D8FE99FE00197F1F700C00000C8
:101DF0002197B1F6F2CFCF93DF93EC01A091DD02F2
:101E0000B0E0CD0101968F7099272091DC02281750
:101E100079F093E0AA0FBB1F9A95E1F7A45ABD4F42
:101E200098E0FE0101900D929A95E1F78093DD0212
:101E30000E94450D0E94CC0E88E0FE01A0E0B3E0B8
:101E400001900D928A95E1F7DF91CF9108958091ED
:101E5000460280FD0AC0E6E8F1E01182108212829B
:101E6000339651E0EE3CF507C1F7BB9A38B3377FA4
:101E700028B328604FB7F89486E891E0FC015191AF
:101E8000CF0168E028BB000000C057FF38BB550FEA
:101E9000000000C000C000C038BB00C06A9591F7C8
:101EA000F1E08E3C9F0751F74FBF8FE594E001971B
:101EB000F1F700C000000895EF92FF920F931F9377
:101EC000CF93DF938C01C6E8D1E0F12CE12CF8012F
:101ED00094816091480280914702FCE0EF16F10482
:101EE000ECF49923E9F09E01409149020E947607A3
:101EF0002FEFE21AF20A239688E1E816F10439F787
:101F00000E94270FF801848190E001968170992743
:101F10008483CDB7DEB7E6E00C947828992319F3D3
:101F20009E0140E0E3CFB0E0A0E0E9E9FFE00C94DF
:101F30005628EC014C81042F10E09801D8010E9432
:101F4000EA299B01AC010E94B5294B015C01E0E24A
:101F5000F0E0E01BF10BA5E5B0E0AC019B010E94B5
:101F6000B5296B017C019F01DF010E9441289B0183
:101F7000AC010E94C0299B01AC01280D391D4A1DEE
:101F80005B1DC701B6010E94C829F22E822F90E086
:101F900039E23F1598F143E0249F900111243595D3
:101FA0002795122F109596E8C92E91E0D92E00E0C2
:101FB00085E5E82EEF188E2D01FD8F2D9601412F1E
:101FC000609148020E9476070F5F53E0C50ED11C56
:101FD000083189F70E94270F9C8181E0992319F02D
:101FE000903219F48FEF8093790080917900890FF6
:101FF0008C83CDB7DEB7ECE00C94722825E530E099
:10200000A901481B590BCA019A01220F331F280F3F
:10201000391F37FFC4CF2F5F3F4FC1CF0F931F939F
:10202000CF93DF93C6E8D1E0FE01118210821282C5
:10203000339681E0EE3CF807C1F710E000E08091B4
:102040008401082E000C990B081719078CF1809158
:102050007800082E000C990B801791074CF19E0117
:102060004091490260914802809147020E947607A0
:102070000F5F1F4F23960831110509F70E94270FA4
:102080008091770090918401980F90938401209122
:102090007800280F20937800121614F497311CF062
:1020A000819580937700DF91CF911F910F910895D3
:1020B000198218821A82DCCFB0E0A0E0E2E6F0E1FB
:1020C0000C945928FC018281DD24DA9480FD02C041
:1020D000DD24D39406E811E0D0E0C0E028E1B22E80
:1020E000F80111821082128294E0E92EF12CC12CA9
:1020F000809183018C0D8931C4F16B2D0E94FE27E4
:10210000892F082E000C990B8C179D0791F4809154
:1021100049028E9DA0018F9D500D11245595479524
:1021200055954795980160914802809147020E9419
:102130007607CD0CF1E0EF1AF108D1F621960D5F8C
:102140001F4FC831D10561F60E94270F809183018E
:1021500091E0D91210C081110CC087E180938301F6
:10216000CDB7DEB7E9E00C94752887FFCACF885E4B
:10217000C8CF8150F3CF90E00196BE010E94202885
:10218000EDCFEF92FF921F93CF93DF93EC0186E8A0
:10219000E82E81E0F82E10E08C81970140914902F1
:1021A00060914802810F0E947607165F83E0E80E77
:1021B000F11C103F89F70E94270F9A818C8190FFB4
:1021C00008C08F5F8C83DF91CF911F91FF90EF90BC
:1021D00008958150F7CF9091460290FF0CC0E6E839
:1021E000F1E0818360834283339691E0EE3CF9070E
:1021F000C1F70E94270F0895A3E0B0E0E2E0F1E10B
:102200000C945E288C018091850181110AC09E0189
:102210002F5F3F4F4FEF6FEF0E9476078A818093C9
:102220008501F8016481613069F08091850140E0A9
:10223000662361F040E0623011F44091850180E056
:1022400060E004C06091850140E080E00E94EB10F6
:10225000F801848190E0019663E070E00E942028FC
:1022600084832396E4E00C947A28A3E0B0E0EBE3C7
:10227000F1E10C9460289091460290FF0AC09E0103
:102280002F5F3F4F0E9476074B8169818A810E94B0
:10229000EB102396E2E00C947C28CF93DF93EC01C3
:1022A000E6E4F2E0438162818C810E9435118C81E9
:1022B0008F5F8C83DF91CF910895CF93DF93EC01F3
:1022C000EC81F0E0E25EFD4F4491E6E4F2E06281F1
:1022D00081810E9435118C818F5F8C83DF91CF913A
:1022E000089580E00E94490780E00E94BF0C109290
:1022F00082018091400181110EC081E080934001F4
:1023000080914602982F917090933F018E7F809329
:1023100046020E94270F08951F93CF93DF93182F33
:10232000D0E0C0E0893311F4C0E5D0E0812F0E94F5
:10233000630C209739F4812F0E94260CDF91CF91F6
:102340001F9108958FE99FE00197F1F700C0000009
:102350002197EFCF0F931F93CF93DF93C62FD42FE7
:10236000022FFC0185818823A9F060934C030E9411
:10237000430690934B0380934A03C77081E001C0EA
:10238000880FCA95EAF70E94440BDF91CF911F9105
:102390000F91089580914C03681332C080914A03D5
:1023A00090914B030E943406883C910548F510E259
:1023B0001D0FCD17B9F080E28C0F883040F4C77044
:1023C00081E001C0880FCA95EAF70E943D0B1830E2
:1023D00048F481E09D2F977001C0880F9A95EAF725
:1023E0000E94440B802F0E948C11183070F6D77019
:1023F00081E001C0880FDA95EAF70E943D0BC5CF56
:10240000C77081E001C0880FCA95EAF7F6CFCF9375
:10241000DF93C1E2D3E060E0CE010E946329219600
:10242000C11584E0D807B9F7DF91CF9108951F93C4
:10243000CF93DF93122F8430E0F46530D0F4433132
:10244000C0F4C42FD0E0CC0FDD1F96E2699FC00D11
:10245000D11D11249EEB899FC00DD11D1124632F26
:10246000CE0189960E946329612FCE018A960E942F
:102470006329DF91CF911F910895AF92BF92CF92C0
:10248000DF92EF92FF921F93CF93DF938EE9C82ED6
:1024900083E0D82ED0E07601C0E014C0F50125918C
:1024A0003491412F6C2F8D2F0E94171282E0A80EBD
:1024B000B11C1F5F133191F786E2E80EF11CCF5F6C
:1024C000C53019F0570110E0E9CFDF5F8EEBC80E81
:1024D000D11CD43001F7DF91CF911F91FF90EF9085
:1024E000DF90CF90BF90AF900895CF93C82F6FEF3C
:1024F000811163E285E290E00E9463296FEFC111D0
:1025000067E086E290E00E9463296FEFC11166E206
:1025100087E290E00E946329CF91089580E00E94B5
:10252000751260E088E290E00E9463290E943D12EB
:102530000E94071281E00E9475120895682F86E0BC
:1025400090E00E946329089580914E0281FF0FC0A0
:102550008D7F80934E020E949E1289B78B7F89BF28
:1025600080914E028695869586950E942C07089547
:1025700080914E0281FD0EC0826080934E020E94C7
:102580009E12109251021092500210924F0289B77F
:10259000846089BF089580914E0280FF08C08E7FBD
:1025A00080934E020E949E1280E00E942C070895A4
:1025B00080914E0280FD13C0816080934E02813075
:1025C00019F489E080934E0280914E020E949E127F
:1025D00080914E028695869586950E942C070895D7
:1025E0000F931F93CF93DF93843030F5653020F540
:1025F000433110F5C42FD0E0CC0FDD1F26E2629FDF
:10260000C00DD11D11243EEB839FC00DD11D11249F
:10261000CE0189960E943F29082F10E0102F002735
:10262000CE018A960E943F299801282BC901DF918B
:10263000CF911F910F91089590E080E0F8CF462F41
:10264000753040F4633130F4843020F4672F0E94F9
:10265000F012089590E080E00895CF92DF92FF920B
:102660000F931F93CF93DF936C0100913B018091F7
:102670002101082BC3E0D0E010E0FC2EC8010C2E95
:1026800002C0959587950A94E2F780FD0CC02197CA
:10269000A0F7F12C8F2DDF91CF911F910F91FF901B
:1026A000DF90CF900895B6018C2F0E941F130E94D7
:1026B0007609019761F3EECFCF93DF93EC010E948F
:1026C0002D13BE010E941F130E947609DF91CF9146
:1026D0000895FC0124812223C1F0808191810E9410
:1026E0005C1392959F70963091F058F4925F9F70B2
:1026F000923058F4803F19F030F4883E30F481E095
:1027000008959A5FF4CF843FD1F380E00895883E26
:10271000B0F3813FD1F7F3CFA6E0B0E0E2E9F3E117
:102720000C945F2849835A8349815A819923A1F0E7
:10273000222391F0CA010E942D13182F682F89813E
:102740009A810E94030B69817A81812F0E941F1355
:102750002696E3E00C947B28CA010E94CF0A182F2A
:10276000F2CF85E290E00E943F29833289F486E22D
:1027700090E00E943F29873059F487E290E00E9460
:102780003F2991E0863209F090E0892F8170089509
:1027900080E0FCCFB0E0A0E0E0EDF3E10C94522843
:1027A000FC016280448081E08483EEE1F2E0749079
:1027B000EDE9F2E0E491009149020695015810E03C
:1027C000000F111F012F1127CEECD1E026E8C22EF9
:1027D00021E0D22E36E4832E32E0932EAA24AA944E
:1027E000B12C55245A94E719EE2EF12C82E086156F
:1027F00030F080914702888380914802898341109C
:1028000016C01B821A8296014A81698188810E94C2
:102810007607259683E0C80ED11C8C169D0631F7ED
:102820000E94270FCDB7DEB7E0E10C946E288B81B4
:102830008823E9F081508B83859DC00111246C8130
:1028400070E00E940C28FB01FF27E25EFD4F84919F
:10285000E82FE719E59DC0011124B7010E940C285B
:1028600080914902689FB00111247A83CCCF0E94E5
:102870001529B5010E9420288017910724F682E0CF
:10288000861588F40E941529B5010E9420288883A6
:102890000E941529209148022695622F70E00E941F
:1028A0002028280F29831A8280914902893C20F030
:1028B00088EC8C838B83A7CF8431D8F784E1F9CF60
:1028C00060914602669570E04BE050E08CE690E047
:1028D0000E942529892B19F481E0809382010E94AE
:1028E000430690937C0180937B010895B0E0A0E0C3
:1028F000ECE7F4E10C94562849015A016B017C0184
:102900000E9467078401A4016A2D7B2D88E090E076
:102910000E94742994014A2D5B2DB601C70100E283
:102920000E94A228622F84E290E00E946329CDB722
:10293000DEB7ECE00C947228A3E0B0E0E2EAF4E148
:102940000C945328F82E762EE42E622E9091460297
:1029500090FF2EC0E92FE695AE2FB0E0A554BF4FF3
:102960008C91809381019E7F923031F59E012F5F83
:102970003F4F8F2D0E9476074B8169818A810E948B
:10298000EB10F092470270924802E09249026620F2
:1029900079F02091460260914A0270914B023F2DDE
:1029A000472D5E2D80914C0290914D020E9476142D
:1029B0002396EFE00C946F28823019F4E0904902DE
:1029C000E0CF863019F4F0904702DBCF8930D9F39D
:1029D0008931B9F6E9518E2F8170582EE695F0E0D5
:1029E000E75EFD4FE4910E2F10E086E8C82E81E0EF
:1029F000D82EB12CA12C98E1892E912CC501B401BF
:102A00000E940C288F2D511013C0860F96014E2D59
:102A1000672D0E947607A00EB11E83E0C80ED11C60
:102A20008EECC81681E0D80649F70E94270FA9CF7F
:102A3000861BECCFE6E4F2E0438121E1421B08F47F
:102A400040E021E0628181810E949C140895E6E4C7
:102A5000F2E0438121E1420F08F44FEF21E062816F
:102A600081810E949C140895E6E4F2E0628121E1F4
:102A7000621B08F460E021E0438181810E949C1484
:102A80000895E6E4F2E0628121E1620F08F46FEF5D
:102A900021E0438181810E949C140895E6E4F2E0E4
:102AA000818121E04381628188500E949C140895B5
:102AB000E6E4F2E0818121E043816281885F0E9447
:102AC0009C14089580914A02882319F081508093C4
:102AD0004A022091460230914702409148025091AB
:102AE000490260914A0270914B0280914C02909190
:102AF0004D020E947614089580914A02833018F4A2
:102B00008F5F80934A0220914602309147024091A4
:102B100048025091490260914A0270914B028091A3
:102B20004C0290914D020E947614089590914602B5
:102B300090FF34C09170811132C092609093460230
:102B4000662391F02091460230914702409148025D
:102B50005091490260914A0270914B0280914C025F
:102B600090914D020E94761460914602669570E045
:102B70004BE050E08CE690E00E942529892BB1F0D3
:102B80001092820181E080937E0120E04091490211
:102B900060914802809147020E949C1408958B32F4
:102BA00010F09465CBCF880F982BC8CF0E9460148B
:102BB000E9CFE6E4F2E080818160808360E0869581
:102BC0000E9496150895809146028695815009F4D9
:102BD0008AE261E00E9496150895809146028695EA
:102BE0008F5F8B3208F081E061E00E9496150895B6
:102BF0009091460290FF08C09695981728F0961776
:102C000018F40E94ED15089561E00E94961508954C
:102C1000E6E4F2E083E0808311828FEF8283838396
:102C20001482758123E030E04FEF5FEF60E0868132
:102C300097810E947614089590913D0192FB22277E
:102C400020F9281779F080FB92F990933D0160916B
:102C50003C0170913D0184E090E00E94802982E077
:102C60000E94220D089590E080E00E944D29863E4A
:102C70009E4F19F40E94B113089580E00895B0E0CA
:102C8000A0E0E5E4F6E10C94502890E080E020E03C
:102C9000182FEFEFE80FE23128F4F0E0E550F64DA1
:102CA0000C943428D898D99806C0D898D998DA9A2C
:102CB00003C0D898D99ADA98C49A00EA0A95F1F72D
:102CC000C12CD12C7601C394082E04C0CC0CDD1C81
:102CD000EE1CFF1C0A94D2F7460157018094909491
:102CE000A094B094E7E2F1E046EB242E40E0342ECD
:102CF00030E04191519161917191D1010D911D018E
:102D0000A02FA295AF70B0E0D096CC91D0E00F701C
:102D100002C0D595C7950A95E2F7DF0114970C2FED
:102D20002A013B01C0FD48C04C285D286E287F2841
:102D30004D925D926D927C9213974D905D906D9047
:102D40007C90441555056605770509F031E041E0B2
:102D5000EB33F40771F61150123198F5E12FF0E0E2
:102D6000E35FF54D0C943428D898D99AA0CFD89A1F
:102D70009ACFD89A9BCFD89A9DCFD89AF6CFD89A87
:102D8000D99ADA9AAF9A99CFD898D998DA98FACF8F
:102D9000D898D998F6CFD898D99AF8CFD898F0CFB4
:102DA000D89AF3CFD89AF5CFD89AF6CFAA9885CFEC
:102DB000AB9883CFAD9881CF482059206A207B20E3
:102DC000B7CFD89AD99A06C0D89AD99ADA9803C0B8
:102DD000D89AD998DA9AC498232B01968331910511
:102DE00009F056CF222309F452C081E080932601D6
:102DF0000E94430690932501809324018091240131
:102E0000909125010E943406059708F444C044E1DE
:102E100050E067E271E087E591E00E943229892B5A
:102E200009F43FC084E1E7E2F1E0A7E5B1E00190F9
:102E30000D928A95E1F781E0109226012DC0D89A73
:102E4000D998C4CFD898BECFD898BFCFD898C1CF83
:102E5000D898F6CFD898D998DA98AF98BDCFD89AA5
:102E6000D99ADA9AFACFD89AD99AF6CFD89AD99825
:102E7000F8CFD89AF0CFD898F3CFD898F5CFD89884
:102E8000F6CFAA9AA9CFAB9AA7CFAD9AA5CF80913A
:102E900026018111B3CF80E0CDB7DEB7E2E10C941B
:102EA0006C2880E0C9CFA8E0B0E0E9E5F7E10C9438
:102EB000602866EE7EEF90E080E00E94802960E06E
:102EC00082E090E00E94632960E083E090E00E944D
:102ED00063291092210160E074E184E090E00E9497
:102EE000802960E086E090E00E9463296FEF87E030
:102EF00090E00E94632940E050E0BA0188E090E051
:102F00000E94742960E084E290E00E94632960E0FE
:102F100087E190E00E94632960E08CE090E00E94ED
:102F2000632960E08DE090E00E94632919821A8293
:102F30001B821C821D821E821F82188648E050E080
:102F400068E170E0CE0101960E94532940E050E014
:102F5000BA0180E290E00E94742980E00E9475121C
:102F60000E948E1240E050E0BA018FE090E00E9493
:102F7000742940E050E0BA0183E190E00E94742996
:102F80002896E2E00C947C280E94331681110AC036
:102F90000E94531780914E028470896180934E0283
:102FA0000E949E1286E090E00E943F2980934E028C
:102FB000803220F08770886180934E0290914E029B
:102FC000892F817090FF04C0892F869586958695FC
:102FD0000E942C070895CF9310922001C6E0EAEEDC
:102FE000F0E0DF018C2F1D928A95E9F790E080E0F8
:102FF0000E948E0690E080E00E94690610921F01F8
:103000000E949B0AE5E7F1E0DF011D92CA95E9F70E
:1030100010926E0110926F01109270010E940C08C4
:10302000CF9108950E94EB172FEF84E39CE021508D
:1030300080409040E1F700C0000088E198E00FB6C2
:10304000F894A89581BD0FBE91BDFFCFA8E0B0E078
:10305000ECE2F8E10C9452288C01DC0114968C917E
:103060001497882309F4B8C021E04C9111965C9123
:10307000119712966C91129713967C91139715964F
:103080009C910E948C137C01F8018581882309F4AE
:103090000DC6C70197578038910508F036C1FFE08B
:1030A000FE1508F489C08FEF93E00E943F2981113B
:1030B00083C061E2A62E63E0B62EE11047C0FE0198
:1030C000339686E0DF011D928A95E9F75AE0452E96
:1030D0007501BFEFEB1AFB0AC5010E943F298983E6
:1030E0001A82882309F468C0813009F079C065012B
:1030F000E2E0CE0ED11CC7010E943F298A838823BB
:1031000009F45AC09FEF980F933070F5F3E0AF0EBB
:10311000B11CC6010E943F298B83882309F44CC04F
:103120001C82DE0111967D01F7012081222381F2AC
:10313000213009F095C091818281913009F052C00F
:10314000F2E0EF0EF11C0E948C1153C0A11424E098
:10315000B20691F1C5010E943F29811101C0EA9494
:103160003FEFA31AB30AA9CF56018430D1F642E04B
:10317000E42EF12C56012FEFA21AB20AC6010E94CA
:103180003F29E1E0F0E0EC0FFD1FEE0DFF1D808315
:10319000882391F08C3741F4E2E0F0E0EC0FFD1F62
:1031A000EE0DFF1D1082BDCF3FEFE31AF30A65015C
:1031B00087E0E816F104F1F680911D01877061F057
:1031C000D80115968C91882339F080913D0182FFBA
:1031D00003C082E00E94220D2896E0E10C946E2844
:1031E00057019FCF923049F422E0E20EF11C0E9479
:1031F000630CEFEFEE1AFE0A97CF933031F432E012
:10320000E30EF11C0E94260CF4CF943021F08FEFD6
:10321000E81AF80AEECF92E0E90EF11C30E020E067
:10322000B7016F5F7F4FD70111964C918053990B77
:103230008A30910550F021503109D8F2EFE9FFE0D2
:103240003197F1F700C00000F6CF429EF001439E97
:10325000F00D11249C012E0F3F1F842F7B01E0CF26
:10326000E22FF0E0EC57FF4F5490822F8695869521
:10327000869590E0FC01EC58FF4F64902770712C0C
:10328000022E02C0759467940A94E2F731E063223B
:103290007724FC01EC59FF4F8490912C022E02C040
:1032A000959487940A94E2F7A1E08A229924FC017C
:1032B000EC5AFF4FC490D12C02C0D594C7942A95E4
:1032C000E2F7B1E0CB22DD246114710419F081EE44
:1032D0000E94630C8114910419F086EE0E94630C25
:1032E000852D0E948C118114910419F086EE0E94A4
:1032F000260C6114710419F081EE0E94260CC11491
:10330000D10409F476CF8CE21ECFF701F857E730ED
:10331000F10508F0D6C4E15EF54D0C94342883E045
:103320000E94490780914E020E949E1245CF80E084
:10333000F7CF80914E02982F987F79F08850809334
:103340004E02887F91E009F490E080914E0290FB5C
:1033500080F980934E020E949E1280914E028695C3
:10336000869586950E942C0727CF80914E02982F34
:10337000969596959695933040F49F5F990F990F87
:10338000990F8770892B80934E0280914E02816045
:10339000E0CF80914E0280FF03C00E94CB120CCF81
:1033A0000E94D81209CF90914E02892F869586955A
:1033B00086958F5F8F719770843048F4880F880FDF
:1033C000880F892B80934E0280914E02BACF909342
:1033D0004E02FACF80914E0281FF03C00E94A412D8
:1033E000EBCE0E94B812E8CE26E241EE61EEC801B3
:1033F0000E94AA11E1CE27E245EE65EEF8CF26E263
:1034000041EE60EEF4CF27E245EE64EEF0CF26E227
:1034100041EE62EEECCF27E245EE66EEE8CF28E221
:1034200041E0EBCF80913C01816080933C0195C0ED
:1034300080913D01886080933D018FC080913C0167
:103440008260F3CF80913C018460EFCF80913C019A
:103450008860EBCF80913D018160EDCF80913D018F
:103460008260E9CF80913C018061DFCF80913C0197
:103470008062DBCF80913C018064D7CF0E94EB1744
:1034800080913C018068D1CF80913C018C60CDCF90
:1034900080913D018360CFCF80913C018E7FC5CF6D
:1034A00080913D01877FC7CF80913C018D7FBDCF4B
:1034B00080913C018B7FB9CF80913C01877FB5CF54
:1034C00080913D018E7FB7CF80913D018D7FB3CF3D
:1034D00080913C018F7EA9CF80913C018F7DA5CF4B
:1034E00080913C018F7BA1CF0E94EB1780913C0122
:1034F0008F779BCF80913C01837F97CF80913D0157
:103500008C7F99CF80913C0182FB992790F921E033
:10351000922790FB82F990FB83F987CF80913D0140
:10352000982F909591708E7F892B90FB81F983CF96
:1035300090913C01892F8F7B96FF806476CF0E940B
:10354000EB1790913C01892F97FB87F980586DCF3D
:1035500061E08EE090E00E94632960913C017091EF
:103560003D0184E090E00E9480290E94EB1724CE68
:1035700060E0EFCF90913C01892F8F7E94FF8061B6
:1035800054CF90913C01892F8E7F90FF81604DCF69
:1035900090913D01892F877F93FF88604CCF85E311
:1035A00047C38091460280FF19C0282F2E7F2093A9
:1035B0004602309147024091480250914902609181
:1035C0004A0270914B0280914C0290914D020E94F0
:1035D0007614109282010E94270FEECD81608093B5
:1035E000460261E086950E949615E6CD43EE55E1D0
:1035F0006DEE75E10E946007DFCD4DEE55E163EEA3
:1036000075E1F8CF4EE455E168E575E1F3CF48E5A3
:1036100055E16EE475E1EECF44E355E161E475E117
:10362000E9CF41E455E164E375E1E4CF4AE155E1D6
:1036300067E275E1DFCF47E255E16AE175E1DACF94
:1036400042E655E16CE775E1D5CF4CE755E162E61E
:1036500075E1D0CF61E081E0C6CF65E082E00E94F5
:10366000F815AACD68E086E0FACF6EE089E0F7CFE2
:1036700064E18FE0F4CF67E185E1F1CF61E088E1BB
:10368000B2CF62E289E1EBCF61E083E2ACCF6AE2E4
:1036900085E2E5CFF7E7EF16FCE7FF0609F460C027
:1036A00028E7E2162CE7F20609F45EC0F8018581EE
:1036B000E080F180882309F48CC0C7010E942D139B
:1036C000D82E682FC7010E94030BB7018D2D0E94D1
:1036D0001F130E9476097C01882ED8011596AC90A4
:1036E000159716969C9092943FE0932280911D012D
:1036F0008770F1F0CA2CAA20E1F08F2D807F8034F2
:1037000051F080E28E0D883098F0911004C08F2D1A
:10371000807E803269F080913D0182FF09C082E0A5
:103720000E94220D80911D018770CC24C3948111C9
:10373000C12CBF2CB2942FE0B222BBE0BB1508F421
:10374000B1C0EB2DF0E0EA5DF54D0C94342881E03A
:103750000E94390D43E062E081E00E94F50C2CCD1F
:1037600081E00E94150DF6CF82E0FBCFBBE5EB16A2
:10377000BCE7FB0661F1ECE5EE16ECE7FE06E9F0CE
:10378000FAE5EF16FCE7FF0609F090CF81E01CC0D8
:103790000E94EB172FEF34E38CE021503040804043
:1037A000E1F700C000000E94210606CD6FEF7FEF19
:1037B00090E080E00E94802969C280913D0182FBF7
:1037C000882780F991E089270E941C166FCF80E03E
:1037D000FBCFC7010E94CF0AD82E77CFEF2DEF7015
:1037E000DE2E8F2D807F19F0D29490EFD922AA205F
:1037F000B9F0DD2069F080E28E0D883010F0811084
:1038000009C080912001D82AD09220010E949B0AF1
:103810008E2D46C080911F01D82AD0921F01F6CF6D
:103820008E2D0E94260CDD20E9F180E28E0D88307D
:1038300010F0811004C08D2D0E94940A06C0D0940F
:1038400080911F01D822D0921F010E949B0A2AC09A
:10385000FF2DFF70DF2E8F2D807F803219F0D294E4
:1038600080EFD822882059F021E0821609F484C024
:10387000AA2009F490C0992009F452C0C9CF8091C0
:103880003D0182FD49C0AA2009F440C0DD2039F085
:1038900080912001D82AD09220010E949B0A80E0CA
:1038A0000E94630CAB2DA850BB0B149720F40E9410
:1038B000B3060E94BF0CCC20A9F080911D0180FDB1
:1038C00011C0F80115828695869586950E94390D5E
:1038D000C8010E94261880911D01869586958695BF
:1038E0000E94150D20E0D8014C9111965C91119722
:1038F00012966C91129713967C91139714968C9153
:10390000149715969C910E948C1366CC80E00E94BF
:10391000260CDD2039F28FCFAA20A1F0911004C02F
:103920008D2D0E94440BBECF31E09312BBCF80910E
:103930001E019D2D9823D91609F4B4CFD82AD09210
:103940001E01B0CF9110AECF8D2D0E943D0B9091F6
:103950001E018D2D892329F08D2D8095892380933B
:103960001E018091F1009D2D982309F49BCFD094E6
:10397000D822D092F10096CFAA2029F085E08915AF
:1039800008F490CFCDCF94E0991508F48BCF8D2D0E
:103990000E943D0B87CF9920D1F3A9E38A1209C079
:1039A000BFEFE7EEF3E0B150E040F040E1F700C0D8
:1039B00000008E2D0E94260C75CF8F2D8695869542
:1039C000837061F0813009F06DCFC7019370A11051
:1039D00002C080E090E00E94690664CFC701937046
:1039E000A11002C080E090E00E948E065BCF6A2D9D
:1039F0008E2D0E944E0B56CF8F2D837091F5A11006
:103A000051CF4E2D429546954770440F440F8E2D51
:103A10008F70042E01C0880F0A94EAF72E2D2071B2
:103A2000E4FE07C02FE030E001C0220F4A95EAF71C
:103A300020953F2D369536953370323069F050F42D
:103A400040912101313029F0822B84230E943A0BCE
:103A500029CF842B822BFACF282B8091210182271A
:103A6000F5CF8695AA2011F08F2D8170882309F457
:103A700019CF4E2D429546954770440F440F8E2D19
:103A80008F70042E01C0880F0A94EAF72E2D207142
:103A9000E4FE07C02FE030E001C0220F4A95EAF7AC
:103AA00020953F2D369536953370323069F050F4BD
:103AB00040913B01313029F0822B84230E94F00C8D
:103AC000F1CE842B822BFACF282B80913B018227C9
:103AD000F5CF2F2D2F70F22EAA2029F0822F0E94D1
:103AE000390D8E2D1ECF8E2D0E943D0B8F2D0E94E5
:103AF000150DD8CE8E2D32EF8316B1F1381570F03A
:103B000090EF8916D1F0A1EF8A1691F0AA2009F45E
:103B10005EC091107DCE8F2D8F712AC0B3EF8B16B2
:103B200051F1E4EF8E12F2CF80913D0182FD2FC062
:103B30008F2D8F71AA20D9F21BC0AA2081F0F4E04A
:103B4000F91508F4AFCE2F2D2F7181E090E001C060
:103B5000880F2A95EAF790913B018927AFCF25E09E
:103B6000291508F49FCEEFCF8F2D8F71A110BFCFF5
:103B70000E94390D97CE80E0AA2009F49FCF9F2D97
:103B80009F7181E001C0880F9A95EAF797CFAA202C
:103B900099F03F2D3F71F32E832F0E94390D8091B4
:103BA0003D0182FF07C0A8E0FA9EC0011124836096
:103BB00080931D018F2DDCCF81E00E94220DB1E0AA
:103BC000B91508F06FCE82E00E94220D6BCE9920CD
:103BD00059F0893309F0EDCEEFEFF7EE23E0E15035
:103BE000F0402040E1F7E3CE8F2D8F7180CFB6E11A
:103BF000EB16BCE7FB0651F5809120018A7A91E033
:103C000009F490E09093F00069E2811165E388EE99
:103C100090E00E944F060E949B0ACECAE6E1EE1693
:103C2000ECE7FE06A9F58091F0008111B8CC89E29D
:103C3000EAEEF0E020EF30E09191891303C0DF015C
:103C400011971C922E173F07B9F7E5CFF7E7EF164C
:103C5000FCE7FF0609F47BCD82E028E7E2162CE7BB
:103C6000F20609F475CD33E0E3163CE7F30609F4F8
:103C70009DCD08F07BCDE1149CE7F90609F488CDD1
:103C8000A1E0EA16ACE7FA0609F010CD0E9412187E
:103C9000809120018272F701E052F847E531F10589
:103CA00008F0F8CCEE5CF54D0C943428F701E8519F
:103CB000FC47E730F10508F0B1CFE95BF54D0C9416
:103CC0003428F701E851FC47E730F105B0F31092D2
:103CD0004C03C7019057839708F089CF84E090E0A8
:103CE0000E944D2990933D0180933C01F701E150E2
:103CF000F047E232F10508F095CBE25BF54D0C940C
:103D00003428CF93DF9380911C01807F09F04DC050
:103D100080911B01882309F448C0E0914903509128
:103D20001003C0911701D091160160911801709194
:103D3000190147E05E17C9F18E2F90E0E49FF00172
:103D40001124EF5EFC4F2481222391F1489FF00162
:103D5000499FF00D1124DF01AF5EBC4F11962C91ED
:103D600011972C1325C02C912D1322C015962C9140
:103D7000159721111DC012962D913C91261B370BD2
:103D8000283C3105A8F480911C018F7080618093DC
:103D90001C01E95EFC4F80818F708061808386E129
:103DA00091E00E9426180E94C50ADF91CF910895E4
:103DB000FC013196E770BECFA4E1B0E0E2EEFEE197
:103DC0000C9456288C0186E0F801DE011F960190C4
:103DD0000D928A95E1F7F8018481E58096E1A92E9C
:103DE00091E0B92E90911A01911128C0882319F100
:103DF000EE20F1F0C8010E946913F82E8823C1F06B
:103E000087E0F801D50101900D928A95E1F7809144
:103E10001A01813031F480911601909117010E94AE
:103E20005C130E94811E8F2D6496ECE00C94722826
:103E3000C8010E942618FF24F394F5CFD080C180DA
:103E400082809380F0901B0120911801309119011C
:103E5000A401421B530BFF2009F4D9C0483C510573
:103E600008F092C08823F9F29091170180911C010B
:103E7000282F207F09F056C0C91214C09091160156
:103E8000D91210C0E11048C08F70806180931C016E
:103E900086E191E00E94261880911C01F80186833A
:103EA000F12CC1CFE11038C06C2D8D2D0E948605FC
:103EB0006C2D8D2D0E948605E82E8111F1CFDF86B5
:103EC000C88A8F8598890E945C13292F22952F70AC
:103ED000243058F49F70223088F0992399F0F8012B
:103EE0009681907F79F4FE2C9ECF2A5F2F7022302E
:103EF00068F0C8010E942618EF2CF5CF992311F025
:103F0000882389F3805E883070F3F3CF803F58F3C5
:103F1000815F833070F7E7CF80911C0181608093CF
:103F20001C01BECFC91207C090911601D91203C05F
:103F3000EE2009F48DC0C8010E946913882309F49A
:103F400077CFEE2009F474CF80911C01803288F085
:103F50002091160130911701398728879B868A8620
:103F600090911A019C871D868E87CE0108960E942B
:103F7000261887E0F801A6E1B1E001900D928A953C
:103F8000E1F70E94811E57CF90911C01292F207FBD
:103F900051F486E191E00E94261887E0F501119224
:103FA0008A95E9F77DCF882309F43DCF80911701E9
:103FB0008C1110C080911601D8120CC0E1100AC0FB
:103FC0009683C8010E94261887E0F50111928A9510
:103FD000E9F729CFC8010E946913882309F428CF83
:103FE000EE2009F425CF80911C01803210F220913F
:103FF0001601309117013A8329839C828B8290911C
:104000001A019D831E828F83CE010196B0CF483C5A
:104010005105D0F6882309F40ECFFE2CEE2009F4CA
:1040200007CF809117018C1120C080911601D81202
:104030001CC080911C0180FD0FC0982F907F61F003
:104040008683903F31F0982F907F905F8F70892BFF
:104050008683C8010E94261887E0F801A6E1B1E036
:1040600001900D928A95E1F7DECEC8010E94691396
:1040700081117FCF80911C01816080931C01C80158
:104080000E942618D0CEABE1B0E0E9E4F0E20C9457
:104090005E284E8B5F8B688F798F8A8F9B8F192F4D
:1040A000911110921F011D8A86E0FE017696DE01B5
:1040B0001F9601900D928A95E1F70A8D002341F039
:1040C00021E04F85588969897A89C8010E948C133B
:1040D0000B8B1C8B87E0FE013F96DE01189601904A
:1040E0000D928A95E1F7CE0108960E94DC1E81119F
:1040F0002AC087E0FE013896DE01119601900D92EC
:104100008A95E1F78C858823F1F02091100330E047
:10411000C9010196877099274091490348171906EC
:10412000E9F097E0929FD001939FB00D1124AF5E0C
:10413000BC4FFE01319601900D929A95E1F7809364
:1041400010030E94C50A17E0809149039091100363
:10415000891312C06B96E4E00C947A280E94EB1746
:10416000109210031092490387E0E6E1F1E0DF01CD
:104170001D928A95E9F7E7CF819FC00111248F5ED8
:104180009C4F0E94DC1E882329F38091490390E014
:1041900001968770992780934903D6CFA6E0B0E0B7
:1041A000E4EDF0E20C945E280E9443068C018091BD
:1041B0002201909123018017910781F019821A82C0
:1041C0000E944306682F49815A81792F80E090E050
:1041D0000E94432010932301009322012696E4E0DD
:1041E0000C947A2878941F921FB61F9211248F93F3
:1041F0009F93AF93BF938091580290915902A091E1
:104200005A02B0915B020196A11DB11D8093580224
:1042100090935902A0935A02B0935B02BF91AF9161
:104220009F918F911F901FBE1F9018951F920F9204
:104230000FB60F9211242F933F934F935F936F9379
:104240007F938F939F93AF93BF93EF93FF9380914F
:104250007A008230A1F08F5F80937A00FF91EF9116
:10426000BF91AF919F918F917F916F915F914F918E
:104270003F912F910F900FBE0F901F90189581E0E6
:1042800080937A008091500290915102019660EDE6
:1042900072E00E940C28909351028093500265E0D6
:1042A00070E00E940C2867FD6FE780914F0282301A
:1042B00031F4603441F489B78B7F89BF04C0813009
:1042C00011F46F37C1F3E62FF0E0E25EFC4F24916A
:1042D000A6B5B7B530E00E94EA292FEF30E040E004
:1042E00050E00E94C829C90163E070E00E940C28D8
:1042F00080914E02869586958695282F269FC0012F
:10430000279F900D11240E94C00699BD88BDA6CF9D
:10431000CDB7DEB72E970FB6F894DEBF0FBECDBF78
:1043200084B7806884BF84B7806884BF0E944306D6
:1043300090936D0180936C0183E898E09093E7007F
:104340008093E60085B7886085BF8BB780688BBF98
:104350008BE48093590380938E03809365038AE5F1
:104360008093580380938D03809364038B9A80E03D
:10437000815009F0DDC18B9878948BE083BF8AEF80
:104380008CBF82E089BF0E94B113811102C00E94DC
:104390008E12AA9AAB9AAD9AC498AF98D89AD99A25
:1043A000DA9AA6EBB0E061E070E08D91E82FE2953B
:1043B000EF70F0E041A98F709B0101C0220F8A9538
:1043C000EAF7922F9095942391AB82A9822B82AB2E
:1043D000F0E0AB3BBF0749F7D09AD19AD29ABC9A8A
:1043E000A79AA29AA39AA59AE7E2F1E0A7E5B1E01D
:1043F00011921192119211921D921D921D921D9275
:1044000021E0EB33F207A1F70E943316811102C0BD
:104410000E94531782E090E00E943F29809341015F
:1044200084E090E00E944D2990933D0180933C01EF
:104430000E943F164FEF86E791E041508040904048
:10444000E1F700C000000E943F168091570180FFF5
:1044500008C06FEF7FEF90E080E00E9480290E940B
:10446000210683E090E00E943F290E943A0B809150
:104470003B010E94D00CA09A889A899AA19AA69A88
:104480008C9A949882E28FBD89E18EBD8FEF9FEF69
:1044900097BD86BD0E94C41780914E0281FF09C05E
:1044A000109251021092500210924F0289B784600C
:1044B00089BF0E94C41780913E01811173C00E9480
:1044C0003316811104C00E9453170E94081688E019
:1044D00090E00E9447294B015C0184E290E00E9439
:1044E0003F29282F30E040E050E060E070E080E0BD
:1044F00090E000E20E948728282939294A295B296F
:104500002093460230934702409348025093490259
:1045100060934A0270934B0280934C0290934D0239
:104520002E7F89F50E94081688E090E00E944729B6
:104530006B017C0184E290E00E943F29282F30E04B
:1045400040E050E060E070E080E090E00E9487286A
:10455000B22FA32FF42FE52F5B0197018601BC2911
:10456000A12BFE29E32BB0934602A0934702F093C0
:104570004802E093490260934A02B0924B02809352
:104580004C0290934D020E94670710928201809125
:10459000460280FF04C060E086950E94961581E087
:1045A00080933E0184E690E09093550280935402FC
:1045B000EFEFF0E722E0E150F0402040E1F700C0EB
:1045C00000008091730310916B01882309F4B8C037
:1045D000109273030E94430690936D0180936C01C7
:1045E0001123B9F010926B010E94EB170E94C417BF
:1045F0000E94B3060E94BF0C1092400180913F01BF
:1046000081110E94D9150E94601480916B01811163
:1046100099C00E94450D80910803882309F4DAC1EE
:104620008091580384FFD6C10E943F1682E491E036
:104630009E878D8727E531E08C01F80141915191EA
:10464000619171918F01F90181919191A191B19144
:104650009F01F1E006351F0709F498C04817590774
:104660006A077B0751F357E5252E51E0352E10E000
:10467000F101C190D190E190F1901F01ED85FE858F
:104680004190519061907190FE87ED874C145D04CC
:104690006E047F04E9F100E0812C912C5401839495
:1046A0004C245D246E247F24D301C20188219921EA
:1046B000AA21BB21892B8A2B8B2BE1F00F83188732
:1046C0000E9443069A878987F1E0FB8791E0B70152
:1046D000A601482159216A217B21452B462B472BD6
:1046E00009F490E09C874F81588569857A858B8590
:1046F0000E9443200F5F880C991CAA1CBB1C03312D
:1047000099F6ED85FE853497C082D182E282F382EC
:104710001F5F153009F0ACCF8FB7F8944091580265
:104720005091590260915A0270915B028FBF36C05E
:10473000A895EFE9FFE03197F1F700C0000018CE2F
:104740001123A9F00E9471110E943F168BE691E09F
:10475000E7E5F1E04191519161917191452B462B33
:10476000472B09F00AC48E179F07A1F72ACF809123
:104770006C0190916D010E943406069708F449CFB0
:1047800081E080936B010E9471113FCF4817590758
:104790006A077B0709F067CF0E94CE2080918201D3
:1047A0008823D1F180918101E0914602E695E81BD2
:1047B000E0937D01823009F02BC1F0E0EB5EFE4F0B
:1047C000E4910E2F10E02DE5E22E21E1F22E8091F2
:1047D0007E01882361F010927E010E94430690932F
:1047E0007C0180937B011092800110927F010E94D6
:1047F0004306E0917B01F0917C018E1B9F0B8F3F64
:104800009F4750F4E00FF11FF0937C01E0937B0190
:104810008BE791E0F701099586E0E5E7F1E0DE013D
:10482000119601900D928A95E1F7109277011092FE
:1048300078011092790110927A011B810C81812FED
:10484000802B09F445C080917301909174010E94FE
:1048500034069C0190916E01992309F4BAC3253165
:104860003105B0F19F3F19F09F5F90936E011123C6
:1048700059F00E9455089FEF11160CF491E0899FA2
:10488000802D112480937701002359F00E94550850
:104890009FEF10160CF491E0899F802D11248093D6
:1048A000780180917701882399F010917801112384
:1048B00079F00E947508882309F41AC18093770162
:1048C000812F0E947508882309F414C18093780110
:1048D0001D810E81812F802B09F445C080917101CB
:1048E000909172010E9434069C0190916F0199236E
:1048F00009F46AC321353105B0F19F3F19F09F5F7C
:1049000090936F01112359F00E9433089FEF111605
:104910000CF491E0899F802D11248093790100236C
:1049200059F00E9433089FEF10160CF491E0899F14
:10493000802D112480937A0180917901882399F048
:1049400010917A01112379F00E947508882309F4E7
:10495000D3C080937901812F0E947508882309F4C0
:10496000CDC080937A0146E050E0BE016F5F7F4F7B
:1049700085E791E00E943229892B61F480917701CB
:1049800090917801892B90917901892B90917A01EE
:10499000892B11F00E940C0886E0FE013196A5E7F4
:1049A000B1E001900D928A95E1F70E94B3069091D3
:1049B0005601891779F0809356019FB7F89440917A
:1049C00058025091590260915A0270915B029FBF48
:1049D0000E94BF0C0E94CC0E0E94450D80910803DE
:1049E000882309F4EECD8091640384FFEACD8091A1
:1049F000FE02803209F0E5CD8091DE02EFEFE80F94
:104A0000E33108F08BC0F0E0E059F54D0C94342808
:104A1000863059F4F0E0EE5EFE4FE4910E2F10E088
:104A20009DE4E92E91E1F92ED2CE893061F4E6952C
:104A3000F0E0E15FFE4FE4910E2F10E081ECE82EF4
:104A400080E1F82EC4CE8F3061F4E695F0E0E45FAB
:104A5000FE4FE4910E2F10E0BCE5EB2EB0E1FB2EF3
:104A6000B6CE853159F4F0E0E75FFE4FE4910E2FAA
:104A700010E0AEE0EA2EA0E1FA2EA9CE08E210E0A6
:104A800073E9E72E7FE0F72E883109F4A0CE833258
:104A900049F4E7E0F1E005911491FCEFEF2EF0E12D
:104AA000FF2E95CE04EF11E06CE5E62E6FE0F62EBA
:104AB000843209F48CCE00ED17E056E6E52E57E07F
:104AC000F52E853209F083CE8BEAE89F812D1124E3
:104AD0008695982F990F890FE81BF0E0EC5FFE4F49
:104AE000E4910E2F10E0EAECEE2EE3E1FE2E6FCE05
:104AF00081E0E4CE81E0EACE81E02BCF81E031CFCE
:104B00001092DF028CE08093E0022EC08091DF02E1
:104B1000823009F44CC230F4813089F08FEF8093F9
:104B2000DE0222C0833019F18430C1F71092E00216
:104B30001092E1021092E2021092E30215C02FB728
:104B4000F894609158027091590280915A029091A4
:104B50005B022FBF0E943A286093E0027093E1024B
:104B60008093E2029093E3020EED12E0E5C18091A2
:104B7000E00290E0EEEDF2E085309105A8F7DC016F
:104B8000AA0FBB1FAA0FBB1FA95ABE4F2C9111968B
:104B90003C91119712964C9143833483258301965F
:104BA000339622E0E93FF20739F7DECF8091DF024A
:104BB0008230B9F0853009F0B1CF80914E0280FF8C
:104BC0001FC00E94CB128091460280FF1CC08091C2
:104BD00046028E7F80934602109282010E94270F28
:104BE000C3CF6091E0027091E1028091E202909166
:104BF000E3020E943A2888E290E00E946329B4CF41
:104C00000E94D812E0CF0E94D915AECF4091E102A8
:104C10006091E0028091DF020E94F01298278927BC
:104C200098279093E3028093E2029ECF2091E202C4
:104C30003091E3023227232732274091E10260912D
:104C4000E0028091DF020E9417128ECF0E943D1277
:104C50008BCF9091DF02913009F046C0883009F186
:104C60008930E9F18091E002813051F0823009F021
:104C70007BCF8091E102811111C00E94A41274CFF8
:104C80008091E10243E0849FC00111246FEF70E046
:104C90000E940C28862F0E94490766CF0E94B812F6
:104CA00063CF8091E002813051F0823009F05CCF17
:104CB00080914E02869581708093E10255CF80915C
:104CC0004E02869586958695EFEF8E9FC001112442
:104CD00063E070E00E940C286093E10245CF809170
:104CE0004E020E949E1240CF923009F017CF8830BA
:104CF000E9F1893009F464C08091E002823021F149
:104D0000B0F4813009F030CF8091E102FFEF8F9F46
:104D1000C00111246FEF70E00E940C28462F20E0A4
:104D200060914802809147020E949C141DCF8330FD
:104D3000C1F0843009F018CF20E040914902609121
:104D4000E2028091E102F0CF8091E102882309F430
:104D50003ECF0E94D91560E08091E1020E94961535
:104D600003CF8091E10280934A02FECE8091E0025F
:104D70008230D9F060F4813009F0F6CE809149029A
:104D80002FEF829FC00111246FEF70E0A3CF83301B
:104D9000A1F0843009F0E8CE809147028093E102CF
:104DA000809148028093E202DFCE8091460280FF2C
:104DB00002C0869581CF80E07FCF80914A027CCF70
:104DC0002091460230914702409148025091490299
:104DD00060914A0270914B0280914C0290914D0279
:104DE0000E947614C1CE80E18093DF02BDCE109286
:104DF000DF028FED88CE0091DF021091E0021027D4
:104E0000012710273EEDC32E32E0D32EE090E102C1
:104E1000F12CC70182529D4F7C01C8018F5D9C4FD0
:104E2000CE14DF0409F4A0CE0F3D110550F40E940A
:104E30003F29F60184830F5F1F4FFFEFCF1ADF0A70
:104E4000ECCFF6011482F7CF0091DF021091E0025F
:104E50001027012710272EEDC22E22E0D22EE0903F
:104E6000E102E00EF12EF11CC8018F5D9C4FE016AF
:104E7000F10609F479CE0F3D110520F4F6016481A5
:104E80000E946329FFEFCF1ADF0A0F5F1F4FECCF9D
:104E90000E94071269CE84E0A7CF0091DF02109133
:104EA000E0021027012710279EEDE92E92E0F92E4F
:104EB000C090E102D12CC60182529D4F6C01C80105
:104EC0008996CE14DF0409F44FCE083FE2E01E07B6
:104ED00050F40E943F29F70184830F5F1F4FFFEFBB
:104EE000EF1AFF0AECCFF7011482F7CF0091DF022F
:104EF0001091E0021027012710278EEDC82E82E0C6
:104F0000D82EE090E102E00EF12EF11CC801899646
:104F1000E016F10609F428CE083F22E0120720F43B
:104F2000F60164810E946329FFEFCF1ADF0A0F5F49
:104F30001F4FECCF0E94450D8091640384FFFACF90
:104F400044E653E068E0C8010E948F0E085F1F4FDF
:104F500022E00E3F120781F78091640384FF0AC0AC
:104F600044E653E060E090E080E00E948F0E1092F3
:104F7000FE0227CB0E94450DEFCFF89421B3939A00
:104F8000822F8C6081BB92B33CE0932792BB4FE7AA
:104F900088E391E0415080409040E1F700C000007C
:104FA00082B3832782BB21BB939878940ACB88E293
:104FB00090E00E943F291092E0021092E1021092CC
:104FC000E2028093E302D0CD2B30310508F097CC7C
:104FD000CACC2B30310508F047CC7ACCDB018F935B
:104FE0009F930E94B529BF91AF91A29F800D911D03
:104FF000A39F900DB29F900D1124089587FB082E5A
:10500000062687FD819567FD61950E94BD280EF4F7
:10501000919507FC81950895AA1BBB1B51E107C020
:10502000AA1FBB1FA617B70710F0A61BB70B881F38
:10503000991F5A95A9F780959095BC01CD010895C7
:1050400097FB072E16F4009407D077FD09D00E9435
:105050000C2807FC05D03EF4909581959F4F08954C
:10506000709561957F4F0895EE0FFF1F0590F491A5
:10507000E02D0994692796276927782787277827BD
:1050800008950E94EA29332312F48A1B9B0B0C9487
:105090004B280E94EA29B7FF0895821B930B0895BD
:1050A0002F923F924F925F926F927F928F929F9238
:1050B000AF92BF92CF92DF92EF92FF920F931F9326
:1050C000CF93DF93CDB7DEB7CA1BDB0B0FB6F894D7
:1050D000DEBF0FBECDBF09942A88398848885F8417
:1050E0006E847D848C849B84AA84B984C884DF8088
:1050F000EE80FD800C811B81AA81B981CE0FD11D6C
:105100000FB6F894DEBF0FBECDBFED010895002E9F
:10511000083090F0982F872F762F652F542F432F2C
:10512000322F22270850F4CF220F331F441F551F60
:10513000661F771F881F991F0A95B2F7002D0895E3
:1051400097FD1094002E083098F00850232F342F2C
:10515000452F562F672F782F892F912DF4CF159437
:10516000979587957795679557954795379527959F
:105170000A95AAF71124002D0895991B79E004C01F
:10518000991F961708F0961B881F7A95C9F7809586
:1051900008958F929F92AF92BF92CF92DF92EF923B
:1051A000FF92CF93DF93EC01688179818A819B81A3
:1051B000611571058105910521F464E279ED8BE5B6
:1051C00097E02DE133EF41E050E00E94962949013C
:1051D0005A019B01AC01A7EAB1E40E94B5296B0119
:1051E0007C01ACEEB4EFA50194010E94C329DC015F
:1051F000CB018C0D9D1DAE1DBF1DB7FF03C00197D8
:10520000A109B04888839983AA83BB839F77DF91E4
:10521000CF91FF90EF90DF90CF90BF90AF909F9095
:105220008F9008950E94C928089580E690E00E941A
:10523000C9280895B0E0A0E08093600090936100D9
:10524000A0936200B09363000895FC014150504068
:1052500030F001900616D1F73197CF0108958827D5
:1052600099270895FB01DC0104C08D9101908019FC
:1052700021F441505040C8F7881B990B0895E199DB
:10528000FECF9FBB8EBBE09A99278DB30895A6E110
:10529000B0E044E050E00C948829A8E1B0E042E09E
:1052A00050E00C948829DC01A40FB51F41505040F8
:1052B00048F0CB01840F951F2E910E946429415024
:1052C0005040D0F70895262FE199FECF9FBB8EBBAB
:1052D000E09A01970DB2021631F02DBB0FB6F8948B
:1052E000E29AE19A0FBE08950396272F0E9464293F
:1052F0000E946329252F0E946429242F0C9464297D
:105300000196272F0E9464290C946329DC01CB01AC
:10531000FC01E199FECF06C0FFBBEEBBE09A3196DF
:105320000DB20D9241505040B8F70895052E97FBED
:105330001EF400940E94AD2957FD07D00E94C82991
:1053400007FC03D04EF40C94AD2950954095309550
:1053500021953F4F4F4F5F4F0895909580957095E1
:1053600061957F4F8F4F9F4F08950E94EA29A59F17
:10537000900DB49F900DA49F800D911D1124089550
:10538000B7FF0C94B5290E94B529821B930B089591
:10539000A1E21A2EAA1BBB1BFD010DC0AA1FBB1F39
:1053A000EE1FFF1FA217B307E407F50720F0A21BAB
:1053B000B30BE40BF50B661F771F881F991F1A9418
:1053C00069F760957095809590959B01AC01BD0142
:1053D000CF010895A29FB001B39FC001A39F700D9C
:1053E000811D1124911DB29F700D811D1124911DED
:1053F0000895F894FFCF55165916B416B716B91676
:10540000BB16BD16BF16C416C816CB16CE16D016C0
:10541000D216D416D616D816DA16E416E8161F17C2
:1054200022172417261728172A172F17331736176E
:1054300039173B173D173F174117431745178F196A
:105440009719C9199919B519D319EA19EE1BEE1B49
:10545000281C281CDD1CF71C521C521CFC1C691D3E
:105460007A1D7A1DD11AF61AFD1A021B071B0C1B96
:10547000111B161B1B1B201B251B2A1B2D1B321B44
:10548000351B381B3B1B3E1B411B441B471BFF1995
:10549000031AF419FB19071A0B1A0F1A4C1AC11A1E
:1054A000541A1E1A221A581A261A5C1A681A321A24
:1054B000BA1A361A6C1A3A1A701A981A3E1A741ACC
:1054C0009F1A441A7A1A821A2A1A601A2E1A641A11
:1054D000481A7E1A8E1AA81AB81A181A501AC81A18
:1054E00080258625D625062616262626292629261F
:1054F00029268E258E25F326F726FB2624274827E6
:065500004B274D27762722
:10550600010000001E06FB0EB80EC20E01191A1B82
:105516001C1D1E1F20212201020101FF5A818283C8
:10552600E200E900EA00B500B600B700CD0083014D
:10553600CC008A0192019401210223022402250251
:10554600260227022A02B300B4006F0070009F01F2
:10555600CB019F02A00206959493960001020202D7
:10556600020606060909090909090F0F0F0F0F0F91
:10557600151515181919191919191919191923248D
:0655860025252525252541
:00000001FF
