:100000000C9483060C94BB060C94BB060C94BB06A4
:100010000C94BB060C94BB060C94BB060C94BB065C
:100020000C94BB060C94BB060C9408230C94C422BD
:100030000C945B240C94BB060C94BB060C94BB067E
:100040000C94BB060C94BB060C94BB060C94BB062C
:100050000C94BB060C9437240C94BB060C94BB0682
:100060000C94BB060C94BB060C94BB060C94BB060C
:100070000C94BB060C94BB060C94BB060C94BB06FC
:100080000C94BB060C94BB060C94BB060C94BB06EC
:100090000C94BB060C94BB060C94BB060C94BB06DC
:1000A0000C94BB060C94BB060C94BB060631FF09EE
:1000B00074A1010975150026FF00952075088102BD
:1000C0000976150026FF00952075089102C00501EC
:1000D0000902A10185020901A100050919012908E8
:1000E00015002501950875018102050109300931C6
:1000F0001581257F95027508810609381581257FB0
:10010000950175088106050C0A38021581257F9531
:100110000175088106C0C005010980A10185031988
:10012000012AB700150126B700950175108100C09E
:10013000050C0901A101850419012AA00215012657
:10014000A002950175108100C005010906A1018575
:1001500006050719E029E7150025019508750181B5
:10016000020507190029EF1500250195F075018199
:10017000020508190129059505750191029501757A
:10018000039101C00660FF0961A101096215002603
:10019000FF009520750881020963150026FF009570
:1001A0002075089102C005010906A101050719E0A3
:1001B00029E715002501950875018102950175084B
:1001C00081010507190029FF150026FF0095067516
:1001D0000881000508190129059505750191029509
:1001E0000175039101C00000000000000000000044
:1001F00000000000000000000000000000000000FF
:10020000000000000000000000007E0F00D4FFFF8F
:10021000FFC70000007800000000000000002A2B4B
:1002200028000000000000000000000000000000A6
:100230000029000000002C1E34202122243426270F
:10024000252E362D3738271E1F2021222324252630
:100250003333362E37381F0405060708090A0B0CFE
:100260000D0E0F101112131415161718191A1B1C46
:100270001D2F3130232D350405060708090A0B0C04
:100280000D0E0F101112131415161718191A1B1C26
:100290001D2F3130354C44454255473A206469732F
:1002A00061626C65642E0A0044454255473A2065F8
:1002B0006E61626C65642E0A003F00433E2000615F
:1002C00064645F6B65795F6269743A2063616E276D
:1002D00074206164643A20253032580A0064656CE9
:1002E0005F6B65795F6269743A2063616E27742081
:1002F00064656C3A20253032580A004F6E65736889
:100300006F743A206163746976653A2025640A0047
:100310000A002530325820006B6579626F61726483
:100320005F7265706F72743A200073757370656EDA
:1003300064696E67206B6579626F6172640D0A0093
:100340000A002530313662003A200025303258004C
:100350000A722F6320303132333435363738394121
:1003600042434445460A000A0025303258006C6575
:10037000645F7461736B3A2000290A002575002FB1
:10038000002575005D2800256400200025640020FC
:100390000025640020002564007C002530325800D0
:1003A0006D6F7573656B6579205B62746E7C782008
:1003B00079207620685D287265702F61636C293A18
:1003C000205B006B65796D61705F636F6E66696756
:1003D0002E7261773A20253032580A2E7377617079
:1003E0005F636F6E74726F6C5F636170736C6F6369
:1003F0006B3A2025750A2E636170736C6F636B5FB7
:10040000746F5F636F6E74726F6C3A2025750A2E7D
:10041000737761705F6C63746C5F6C6775693A20A9
:1004200025750A2E737761705F7263746C5F7267F3
:1004300075693A2025750A2E737761705F6C616C5F
:10044000745F6C6775693A2025750A2E7377617041
:100450005F72616C745F726775693A2025750A2E48
:100460006E6F5F6775693A2025750A2E7377617024
:100470005F67726176655F6573633A2025750A2E42
:10048000737761705F6261636B736C6173685F62E5
:1004900061636B73706163653A2025750A2E6E6B1C
:1004A000726F3A2025750A2E737761705F657363EA
:1004B0006170655F636170736C6F636B3A20257563
:1004C0000A0064656275675F636F6E6669672E72A6
:1004D00061773A20253032580A2E656E61626C656C
:1004E0003A2025750A2E6D61747269783A20257557
:1004F0000A2E6B6579626F6172643A2025750A2E47
:100500006D6F7573653A2025750A006565636F6EBA
:100510006669673A0A64656661756C745F6C6179D7
:1005200065723A2025750A000A092D204D61676918
:1005300063202D0A443A094465627567204D65734E
:100540007361676520546F67676C650A583A094D97
:100550006174726978204465627567204D6F6465C7
:1005600020546F67676C65202D2053686F77206B70
:1005700065797072657373657320696E206D61743F
:1005800072697820677269640A4B3A094B6579622F
:100590006F61726420446562756720546F67676C91
:1005A00065202D2053686F77206B657970726573B5
:1005B00073207265706F72740A4D3A0944656275F2
:1005C00067204D6F75736520546F67676C650A56B9
:1005D0003A0956657273696F6E0A533A095374612A
:1005E0007475730A433A09416374697661746520CE
:1005F000436F6E736F6C65204D6F64650A46312DD5
:100600004631303A0953776974636820746F204C1F
:100610006179657220302D392028463130203D2007
:100620004C30290A302D393A0953776974636820B0
:10063000746F204C6179657220302D390A47524120
:1006400056453A0953776974636820746F204C618A
:1006500079657220302028616C7465726E617465F2
:10066000290A423A094A756D7020746F20426F6FF3
:10067000746C6F616465720A4553433A094A756D3B
:100680007020746F20426F6F746C6F6164657220AC
:1006900028616C7465726E617465290A453A095067
:1006A00072696E7420454550524F4D2053657474E5
:1006B000696E67730A4241434B53504143453A09BF
:1006C000436C65617220454550524F4D0A4E3A09C0
:1006D0004E4B524F20546F67676C650A000A092D14
:1006E00020436F6E736F6C65202D0A4553432F7145
:1006F0003A09717569740A6D3A096D6F7573656BA6
:1007000065790A002573000A092D205374617475F8
:1007100073202D0A686F73745F6B6579626F617205
:10072000645F6C65647328293A20253032580A6B5F
:100730006579626F6172645F70726F746F636F6C02
:100740003A20253032580A6B6579626F6172645FB6
:1007500069646C653A20253032580A6B65796D61A1
:10076000705F636F6E6669672E6E6B726F3A2025DD
:100770003032580A74696D65725F72656164333234
:1007800028293A202530386C580A003F004E4B5239
:100790004F3A206F66660A004E4B524F3A206F6EFA
:1007A0000A000A6D6F7573653A206F66660A000A63
:1007B0006D6F7573653A206F6E0A000A6B6579621A
:1007C0006F6172643A206F66660A000A6B6579622F
:1007D0006F6172643A206F6E0A000A6D617472690B
:1007E000783A206F66660A000A6D61747269783A19
:1007F000206F6E0A000A64656275673A206F66664C
:100800000A000A64656275673A206F6E0A000A0A78
:100810004A756D70696E6720746F20626F6F746CBB
:100820006F616465722E2E2E2000433E2000436CC3
:10083000656172696E6720454550524F4D0A00311F
:100840003A0964656C6179282A31306D73293A2040
:1008500025750A323A09696E74657276616C286D85
:1008600073293A2025750A333A096D61785F7370F0
:100870006565643A2025750A343A0974696D655FC7
:10088000746F5F6D61783A2025750A353A0977688B
:1008900065656C5F6D61785F73706565643A20258E
:1008A000750A363A09776865656C5F74696D655FCE
:1008B000746F5F6D61783A2025750A00703A09708F
:1008C00072696E742076616C7565730A643A097397
:1008D00065742064656661756C74730A75703A0995
:1008E0002B310A646E3A092D310A6C743A092B31A6
:1008F000300A72743A092D31300A4553432F713A48
:1009000009717569740A0A7370656564203D206415
:10091000656C7461202A206D61785F737065656411
:10092000202A2028726570656174202F2074696DFB
:10093000655F746F5F6D6178290A776865726520FD
:1009400064656C74613A20637572736F723D2564DF
:100950002C20776865656C3D25640A5365652068C1
:100960007474703A2F2F656E2E77696B69706564A9
:1009700069612E6F72672F77696B692F4D6F757381
:10098000655F6B6579730A004D3E20004D25753A11
:1009900025733E20003F0A003D2025750A003F0ACE
:1009A0000064656661756C74730A0025750A003F02
:1009B0000A000A092D2056616C756573202D0A0006
:1009C000710A000A092D204D6F7573656B657920DA
:1009D0002D0A004C25640A0029001E001F0020007B
:1009E00021002200230024002500260027002D00DE
:1009F0002E0031004A002B0014001A0008001500D8
:100A000017001C0018000C00120013002F0030000B
:100A10002A004B00E00004001600070009000A004D
:100A20000B000D000E000F00330034004C002800B6
:100A30004E00E1001D001B0006001900050011001A
:100A400010003600370038000000E50052004D006D
:100A5000E000E300E200000000002C0000000000C5
:100A60000000E60021525000000051004F0001003C
:100A70003A003B003C003D003E003F00400041008A
:100A8000420043004400450001004C002078010072
:100A900001000100007C01000100010001000100D3
:100AA000010001000100010001000100010001003E
:100AB000010001000100010001000100010001002E
:100AC000010001000100010001000100010001001E
:100AD000010001000100010001000100010000000F
:100AE0000100010001000100010001000000000000
:100AF00001000000000000000100010001000000F2
:100B000001000100010001000100010001000100DD
:100B100001000100010001000100010001000100CD
:100B200001000100010001000100010001000100BD
:100B300001000100010001000100010001000100AD
:100B4000010001000100010001000100010001009D
:100B5000010001000100010001000100010001008D
:100B6000010001000100010001000100010001007D
:100B7000010001000000010001000100010001006E
:100B80000100000000000100000000000000010062
:100B9000010001000000010001000100010001004E
:100BA000010001000100010001000100010001003D
:100BB000010001000100010001000100010001002D
:100BC000010001000100010001000100010001001D
:100BD000010001000100010001000100010001000D
:100BE00001000100010001000100010001000100FD
:100BF00001000100010001000100010001000100ED
:100C000001000100010001000100000001000100DD
:100C100001000100010001000000000001000000CF
:100C200000000000010001000100000001000100BF
:100C30005B435D005B445D005B535D005B575D00A3
:100C40005B525D0009027B00040100A0FA09040068
:100C500000010301010009211101000122400007E8
:100C600005810308000109040100020300000009D6
:100C70002111010001222200070582032000010743
:100C8000050303200001090402000103000000091C
:100C9000211101000122B60007058403200001098B
:100CA00004030002030000000921110100012222B7
:100CB0000007058503200001070505032000011238
:100CC00001000200000008424B65600100010200C3
:100CD000011C034B0042004400360037002000484E
:100CE000006F007400730077006100700000001056
:100CF000034B0042004400460061006E0073000098
:100D000000040309040011241FBECFEFDAE0DEBFA8
:100D1000CDBF04B603FE18C08091BD039091BE0301
:100D2000A091BF03B091C0038730904BA740B04B58
:100D300059F41092BD031092BE031092BF0310929B
:100D4000C003E0E0F8E3099512E0A0E0B1E0E8E6D6
:100D5000F4E502C005900D92AA39B107D9F723E056
:100D6000AAE9B2E001C01D92AD3BB207E1F70E94D3
:100D700082240C94A1290C940000FF93EF93E0913E
:100D80009A02F0919B02309709F00995EF91FF913B
:100D90000895FC018591803011F0EFDFFBCF0895BD
:100DA000FF27E0E230E247FF0CC0419597FF09C002
:100DB000EDE26095709580959095611D711D811D86
:100DC000911D27FF02C0219530E350E2AA27660F4C
:100DD000771F881F991FAA1FA41710F0A41B6395E3
:100DE0005A95A9F7AA3008F0A95FA05DAF93F395D3
:100DF000611571058105910541F7ED3211F4EF930D
:100E0000F395F21718F43F93F395FBCF8F91B5DF6D
:100E1000FA95E1F70895E991F9918591803021F0F3
:100E2000853219F0AADFF9CF089520E0E8945591B2
:100E30005532C1F3503311F4689455915A3348F444
:100E4000505390F3220F022E220F220F200D250F58
:100E5000F4CF0EF4219589919991533619F35337B4
:100E600029F1533559F1BC0188279927E8945C365C
:100E700021F48991999168945591543639F446EF4B
:100E80007EF077FF0DC08FEF9FEF0AC055374AE025
:100E900039F0583540E121F0523642E009F008952A
:100EA000FF93EF937DDFEF91FF91B7CFFF93EF9328
:100EB000FC0181918030B9F360DFFBCFFF93EF93AA
:100EC00068DFF1CFDF93CF93CDB7DEB72596A3DFF1
:100ED000CF91DF910895482F2091B903909180031D
:100EE00057E0291302C080E0089530E0529FF001DE
:100EF000539FF00D1124EF57FC4F8181681306C0FA
:100F00008081481303C085818111EECF2F5F3F4F51
:100F10002770E7CFE8EDF0E080818E7F808310922C
:100F2000E2001092DA001092E100A0EEB0E08C91A5
:100F300081608C9380818F77808319BCA7EDB0E0AE
:100F40008C918E7F8C9380818F7E80831092510351
:100F500008952091E4003091E50095E6A9012091E3
:100F6000EC00822F817020FF06C08091E80080FF96
:100F700006C080E008952091E80022FD1AC080910B
:100F80007603882389F0853089F08091EB0085FD18
:100F90000FC02091E4003091E50042175307F9F2A9
:100FA0009150E1F684E0089582E0089583E0089589
:100FB00081E008958091780387FF13C08091E80055
:100FC00082FF06C08091E8008B778093E80004C020
:100FD000809176038111F2CF089580917603882362
:100FE000D9F38091E80080FFF8CF8091E8008E77F8
:100FF000ECCF982F9093E900242F762F50E089179B
:1010000031F07091EC002091ED005091F00021FD45
:1010100007C09F5F973071F78093E90081E00895E2
:101020003091EB003E7F3093EB003091ED003D7F3F
:101030003093ED003091EB0031603093EB00709312
:10104000EC002093ED005093F0002091EE0027FD7E
:10105000E0CF80E00895B0E0A0E0E1E3F8E00C9498
:101060000129C8EDD0E088818F7E8883E7EDF0E02C
:1010700080818160808384E082BF81E0809351031E
:1010800088818E7F888302EE10E0F8011082109232
:10109000DA0081EEC82ED12CF601108288818F777C
:1010A000888388818068888388818F7D888319BC44
:1010B00010927603109277031092750310927403C6
:1010C00090EEE92EF12CF70180818B7F808388815F
:1010D0008160888342E060E080E00E94F907F601C9
:1010E00080818E7F8083F801808181608083808110
:1010F00088608083F70180818E7F80838881806112
:101100008883CDB7DEB7E8E00C941D29FC018091FF
:101110007E0390917F0386179707A0F061157105F4
:1011200029F49091E8009E779093E80090E0611593
:10113000710551F4911108C08091E80082FF34C01C
:1011400080E00895BC01F2CF809176038823C1F13D
:101150008530C1F18091E80083FD30C08091E800C6
:1011600082FDEACF8091E80080FFE1CF8091F3001B
:101170002091F200382F6115710519F028303105E2
:1011800058F091E02830310509F090E02091E80016
:101190002E772093E800CBCF81918093F1006150AE
:1011A00071092F5F3F4FE7CF80917603882341F08D
:1011B000853041F08091E80083FFBECF81E0089543
:1011C00082E0089583E008958091530308959C017F
:1011D0004FB7F8948091480390914903A0914A0336
:1011E000B0914B034FBF821B930B08952FB7F89418
:1011F000609148037091490380914A0390914B0399
:101200002FBF08952FB7F894809148039091490318
:10121000A0914A03B0914B032FBF0895A3E0B0E023
:10122000E4E1F9E00C94072920914503309146034D
:1012300028173907A1F09093460380934503E09166
:101240004303F0914403309751F024E029839B83BA
:101250008A830680F781E02DCE01019609952396B9
:10126000E2E00C942329A3E0B0E0E9E3F9E00C9478
:101270000729209141033091420328173907A1F033
:101280009093420380934103E0914303F091440320
:10129000309751F023E029839B838A830680F7816E
:1012A000E02DCE01019609952396E2E00C942329C6
:1012B000E0914303F0914403309729F00190F081CD
:1012C000E02D0995089580E0089580912E0380FF18
:1012D0000CC06091090170E07595679575956795EB
:1012E0006115710549F1862F089581FF06C060914F
:1012F000090170E075956795F3CF6091090182FD52
:101300000BC090912D039923A1F060910801809169
:101310000901961738F0682F70E06038710500F306
:101320008FE70895899FC001112470E00E94D6289C
:10133000F4CF61E070E0D7CF81E0089580912E0373
:1013400080FF0DC060910B0170E0660F771F603861
:10135000710570F56115710569F1862F089581FF9A
:1013600007C060910B0184E0689FB0011124EFCFAA
:1013700082FF04C060910B0188E0F6CF80912F03BB
:10138000882399F020910A0160910B018217A0F740
:10139000869FC001112433E0880F991F3A95E1F729
:1013A000622F70E00E94D628D2CF68E070E0D5CFDF
:1013B0008FE7089581E00895282F35EB2303C001BE
:1013C000112497FF04C080589109892F08958058EF
:1013D0009F4FFBCFF894E82FE295EF70F0E031A13A
:1013E000282F2F7081E090E001C0880F2A95EAF73E
:1013F000982F9095932391A392A1892B82A37894FF
:10140000089590914C0392FF10C041E0282F247161
:10141000243009F040E031E0282F2871283009F00D
:1014200030E0431711F02CE0822793FF10C041E019
:10143000282F2471243109F040E031E0282F287151
:10144000283109F030E0431711F02CE08227309169
:101450004D0330FF10C051E0282F2171213009F0D9
:1014600050E041E0282F2871283009F040E054175F
:1014700011F029E0822731FF10C041E0282F2171AF
:10148000213109F040E031E0282F2871283109F09E
:1014900030E0431711F029E0822794FD877E0895FC
:1014A00082389105B9F1B0F48133910509F47DC01A
:1014B00048F48932910509F46DC08A32910509F426
:1014C0007BC008958533910509F45FC08933910588
:1014D00009F10895833E9105D9F138F4803E9105D4
:1014E00029F1823E910579F10895863E9105D9F161
:1014F000873E910509F43EC0843E910541F5209157
:101500004D0321FF24C080914C0384FD19C087EE58
:1015100090E0089520914C03237009F05AC0209167
:101520004D0323FF14C089E290E0089520914C03FD
:1015300020FD38C030914D0330FF09C024FF43C067
:1015400090E080E0089520914C0322FDF7CF0895AC
:1015500020914C0322FD3AC030914D0330FD39C03B
:1015600024FFF5CFEDCF20914C0323FFF0CF24FDD6
:10157000E7CFCDCF20914C0323FD2EC030914D03FA
:1015800031FFEECF84EE90E0089520914C0325FFCB
:10159000DECFC9CF20914C0325FD21C020914D0302
:1015A00023FFD5CF89E390E0D2CF20914C0326FFD3
:1015B000CECF8AE290E0089520914C0326FFC7CF5A
:1015C00081E390E0089583EE90E0089582EE90E04C
:1015D000089580EE90E0089586EE90E0089585E30A
:1015E00090E008951F93CF93DF930E94500AEC017F
:1015F000C11580E5D807F0F5C11580E4D80708F0DB
:101600009CC0C03ED10520F5CD3CD10508F082C07C
:10161000C83AD10578F4C53AD10508F073C0C13095
:10162000D10519F1209709F1C430D105F0F4D0E0CB
:10163000C0E01BC0C33CD105D0F7C85AD0E0CC0FE6
:10164000DD1FC45CDD4F0990D881C02DD4640DC06E
:10165000C11580E2D80708F0D1C0C11581E0D807D4
:1016600008F05AC0C83ED10510F7CE01DF91CF91E6
:101670001F910895C03682E5D80718F5C03482E579
:10168000D80708F06BC0C03282E5D80708F05FC009
:10169000C11582E5D80708F497C02C2F269526950A
:1016A00080E2289F900111248C2F8370C1E0D0E04C
:1016B00002C0CC0FDD1F8A95E2F7C22BD32BDD6869
:1016C000D4CFC03A82E5D80760F4C03882E5D807A5
:1016D00008F459C0CF71D0E0DC2FCC27C46FD06A9A
:1016E000C4CFC03C82E5D80708F462C0C03E82E5A2
:1016F000D80708F09CCFDC2FCC27CC27DF71C06F38
:10170000D06AB3CFC55AD0E0C75CDD4FC881D0E006
:10171000D064ABCFD065A9CF8D2F0E94010A182FBE
:10172000CE0199270E94500AC12FD0E0DC2FCC2790
:10173000CC27DF71C82BD92B98CFCE0199270E94D7
:10174000500ACC27DF70C82BD92BD06A8ECFCF712F
:10175000D0E0DC2FCC27C16FD06A87CF2C2F269505
:101760002695277080E2289F900111248C2F83708A
:10177000C1E0D0E002C0CC0FDD1F8A95E2F7C22B9A
:10178000D32BDC6872CF2C2F26952695277080E20C
:10179000289F900111248C2F8370C1E0D0E002C0FB
:1017A000CC0FDD1F8A95E2F7C22BD32BDA685DCF11
:1017B0008C2F8F710E94010AC82FD0E0DC2FCC271C
:1017C000CC27DF71D06251CF8C2F8F710E94010A1C
:1017D00055E0D695C7955A95E1F7CF70D0E0DC2F4C
:1017E000CC27282F30E084FF05C044E0220F331FB0
:1017F0004A95E1F7C22BD32BD06937CF8D2F8F714C
:101800000E94010A182FCE0199270E94500AC12F69
:10181000D0E0DC2FCC27CC27DF71C82BD92BD2CF3F
:1018200080959091060398239093060308958091E4
:10183000B90390918003981301C008958F5F87705A
:10184000FACF292F953078F58F3068F590E03FE09A
:10185000239F800D911D1124682F677023E09695BA
:1018600087952A95E1F7FC01EE0FFF1FE80FF91F9E
:10187000E254FD4F50E040E080E0219130E0062E40
:1018800002C0369527950A94E2F721703327042E7B
:1018900001C0220F0A94EAF7822B4F5F5F4F43305B
:1018A000510559F7089580E00895292F953098F54E
:1018B0008F3088F590E03FE0239F800D911D11242B
:1018C000282F277041E001C0440F2A95EAF723E052
:1018D000969587952A95E1F7FC01EE0FFF1FE80F1B
:1018E000F91FE254FD4F30E020E070E05191DF013C
:1018F0001197CB01022E02C0969587950A94E2F7C4
:10190000817081958527842385278C932F5F3F4F96
:101910002330310559F70895809317030895909166
:10192000170321E030E0F90101C0EE0F8A95EAF7D4
:10193000D90102C0AA0FBB1F6A95E2F7EA2B01C0CA
:10194000220F4A95EAF7892F8E23E81305C0292B29
:10195000822F0E948C0C089520952923F9CF21E035
:1019600030E001C0220F8A95EAF720958091170395
:1019700082230E948C0C08959091E3028095892324
:101980008093E302282F277069F4891759F090910A
:101990004D0392FF07C08695869586950E94AF0CF1
:1019A0001092E302089521E030E001C0220F8A95F1
:1019B000EAF780911703822B0E948C0C0895809384
:1019C00007030895829590E09C01220F331F220F98
:1019D000331F2C7C95958795959587958373282B38
:1019E00030E0C901880F991F8A7A359527952575AA
:1019F000822B08959FB7F89410924F039FBF909148
:101A00007603943009F048C02091E9002F7030919E
:101A1000EC00932F917030FD90E8922B25E02093FD
:101A2000E9002091EB0020FF34C02091EE0027FF59
:101A300030C020914E03222321F02091E80025FFA1
:101A400028C010924E0326E03091E80035FF14C004
:101A50008093F1008091E80085FD27C08091E80027
:101A600080FFFCCF8091E8008E778093E8009F7024
:101A70009093E90080E0089530917603343049F482
:101A80003091EB0035FD05C0215041F481E0809399
:101A90004E039F709093E9008FEF0895EFE9FFE008
:101AA0003197F1F700C00000CFCF8FB7F89421E055
:101AB00020934F038FBFDBCF0F931F93CF93DF9301
:101AC0008B01EA0190917603943061F58093E900EF
:101AD0008FEF9091E800815095FD06C095ED9A95A5
:101AE000F1F700008111F5CF8091E80085FF1AC061
:101AF0000E94A907811111C08091E80085FD06C0F0
:101B00008091E8008E778093E800F2CFF801819110
:101B10008F018093F100219779F78091E8008E770B
:101B20008093E800DF91CF911F910F91089543E0DA
:101B300050E0BC0184E00E945C0D089546E050E056
:101B4000BC0184E00E945C0D0895CF93DF93EC010B
:101B500080910E01811111C048E050E0BE0181E08A
:101B60000E945C0D80E2FE01A4E5B3E001900D92BD
:101B70008A95E1F7DF91CF91089580914C0387FF1B
:101B800005C040E284E050E0BE01EACF48E081E0D9
:101B9000FACF81E08093E00080E28093D800109239
:101BA000C9008FE19EE40197F1F700C0000087E0D3
:101BB00090EBDC018093BD039093BE03A093BF0321
:101BC000B093C00388E19CE00FB6F894A895809389
:101BD00060000FBE90936000FFCFCF93DF93C1E80A
:101BE000D2E060E0CE010E9460292196C11584E018
:101BF000D807B9F7DF91CF9108951F93CF93DF9363
:101C0000122F8430E0F46530D0F44F30C0F4C42F8C
:101C1000D0E0CC0FDD1F9EE1699FC00DD11D1124C6
:101C200096E9899FC00DD11D1124632FCE0189969D
:101C30000E946029612FCE018A960E946029DF915F
:101C4000CF911F910895AF92BF92CF92DF92EF9202
:101C5000FF921F93CF93DF9388EDC82E89E0D82E93
:101C6000D0E07601C0E014C0F50125913491412FF8
:101C70006C2F8D2F0E94FD0D82E0A80EB11C1F5FFE
:101C80001F3091F78EE1E80EF11CCF5FC53019F0DF
:101C9000570110E0E9CFDF5F86E9C80ED11CD430D0
:101CA00001F7DF91CF911F91FF90EF90DF90CF90E0
:101CB000BF90AF900895CF93C82F6FEF811163E26B
:101CC00085E290E00E9460296FEFC11167E086E233
:101CD00090E00E9460296FEFC11165E287E290E019
:101CE0000E946029CF91089580E00E945B0E60E021
:101CF00088E290E00E9460290E94230E0E94ED0D70
:101D000081E00E945B0E08950F931F93CF93DF93A2
:101D1000843030F5653020F54F3010F5C42FD0E019
:101D2000CC0FDD1F2EE1629FC00DD11D112436E9BD
:101D3000839FC00DD11D1124CE0189960E94422996
:101D4000082F10E0102F0027CE018A960E9442290A
:101D50009801282BC901DF91CF911F910F91089510
:101D600090E080E0F8CF462F753040F46F3030F4CB
:101D7000843020F4672F0E94840E089590E080E064
:101D80000895CF92DF92FF920F931F93CF93DF932B
:101D90006C010091170380910703082BC3E0D0E08A
:101DA00010E0FC2EC8010C2E02C0959587950A9470
:101DB000E2F780FD0CC02197A0F7F12C8F2DDF9169
:101DC000CF911F910F91FF90DF90CF900895B601B2
:101DD0008C2F0E94B30E0E94F20A019761F3EECF9E
:101DE000CF93DF93EC010E94C10EBE010E94B30E9F
:101DF0000E94F20ADF91CF910895FC0124812223F1
:101E0000C1F0808191810E94F00E92959F70963072
:101E100091F058F4925F9F70923058F4803F19F01F
:101E200030F4883E30F481E008959A5FF4CF843F27
:101E3000D1F380E00895883EB0F3813FD1F7F3CF2E
:101E4000A6E0B0E0E6E2FFE00C94062949835A835D
:101E500049815A819923A1F0222391F0CA010E945D
:101E6000C10E182F682F89819A810E94550C6981B3
:101E70007A81812F0E94B30E2696E3E00C942229EA
:101E8000CA010E94210C182FF2CF85E290E00E9437
:101E90004229833289F486E290E00E944229873009
:101EA00059F487E290E00E94422991E0853209F0DE
:101EB00090E0892F8170089580E0FCCF8091080127
:101EC0001F928F93809109011F928F9380910A0135
:101ED0001F928F9380910B011F928F9380910C0121
:101EE0001F928F9380910D011F928F938FE398E043
:101EF0009F938F930E9462078DB79EB70E960FB681
:101F0000F8949EBF0FBE8DBF0895883228F58E319C
:101F100008F072C08B3041F130F4873009F4CFC043
:101F20008EE999E0E0C0833109F45FC08431C1F7E4
:101F300080EC99E00E94C90680914003882309F44F
:101F4000FEC01092400310923F0310923E03109285
:101F50003D0310923C0320C08F3409F4C7C0D8F56C
:101F6000893231F38833E1F683EC99E00E94C906A7
:101F70000E945E0F1F9281E08F931F9288E08F93E3
:101F80008CEB98E09F938F930E9462070F900F90C5
:101F90000F900F900F900F9020914003222309F48F
:101FA000C9C080913C0390913D03009711F48FE0EC
:101FB00091E09F938F931F922F938CE899E09F93CA
:101FC0008F930E9462070F900F900F900F900F90C9
:101FD0000F9081E00895813509F49CC008F49CC0FD
:101FE000823509F09DCF81E082C082EB99E00E94AA
:101FF000C9060E945E0FD0CF8D518093400383307D
:1020000009F442C058F48130C1F08230A1F110923D
:1020100040038FEA99E00E94C9061BC0853009F48D
:1020200045C0D8F1863099F788E091E090933F035E
:1020300080933E0387E591E008C08DE091E09093A6
:102040003F0380933E0383E191E090933D038093AF
:102050003C0380914003882309F49ECF1F928F9305
:102060008BEA99E09F938F930E9462070F900F90E5
:102070000F900F9091CF8CE091E090933F0380936D
:102080003E038CE191E0E1CF8BE091E090933F0340
:1020900080933E0388E291E0D8CF8AE091E090936C
:1020A0003F0380933E0385E391E0CFCF89E091E049
:1020B00090933F0380933E0384E491E0C6CF81E098
:1020C00080930D0184E180930C018AE080930B01E1
:1020D0008EE180930A0188E08093090188E2809371
:1020E000080181EA99E00E94C90656CF8AE0E09192
:1020F0003E03F0913F033097D1F02081082E000C71
:10210000990B820F911D8F3F910541F03CF08FEFAD
:10211000808307C08FEFEBCF86EFE9CF97FFF8CF33
:10212000108280811F928F9388E999E09BCF85E987
:1021300099E0D9CF88E899E00E94C9064ACF80E0AB
:10214000089580913B0383FF7EC080EA93E00E9464
:10215000C906809135031F928F938BE993E09F937B
:102160008F930E94620789E993E00E94C9068091DB
:102170003603282F082E000C330B3F938F9386E9EC
:1021800093E09F938F930E94620784E993E00E94FB
:10219000C90680913703282F082E000C330B3F937C
:1021A0008F9381E993E09F938F930E9462078FE85A
:1021B00093E00E94C90680913803282F082E000C56
:1021C000330B3F938F938CE893E09F938F930E9400
:1021D00062078AE893E00E94C90680913903282F9C
:1021E000082E000C330B3F938F9387E893E09F9367
:1021F0008F930E94620784E893E00E94C906809151
:102200002F031F928F9381E893E09F938F930E94F7
:1022100062078FE793E00E94C90680912E031F9208
:102220008F938CE793E09F938F930E94620789E7D7
:1022300093E00E94C9068DB79EB74C960FB6F894EE
:102240009EBF0FBE8DBF0E9402099C019091360374
:1022500080913703982B21F030933303209332037E
:102260009091380380913903982B21F030933103FA
:1022700020933003E0914303F0914403309749F0F9
:1022800082E0809334030480F581E02D84E393E0C1
:1022900009950895662309F45DC08D3C41F40E94C0
:1022A0009E098195809337030E94A11008958E3C6A
:1022B00019F40E949E09F6CF8F3C31F40E949E09CA
:1022C000819580933603F0CF803D19F40E949E09DA
:1022D000F8CF893D29F40E94650980933803E4CF43
:1022E0008A3D21F40E9465098195F7CF8B3D31F439
:1022F0000E946509819580933903D6CF8C3D19F4EE
:102300000E946509F8CF9FE2980F983070F4815DC4
:10231000990B21E030E001C0220F8A95EAF7809105
:102320003503822B80933503BFCF8D3D31F48091EF
:102330002E03816080932E03B7CF8E3D21F48091D0
:102340002E038260F7CF8F3D09F0AECF80912E0330
:102350008460F0CF409136038D3C59F4809137036F
:1023600087FF0DC01092370341110BC010922F034D
:1023700008C08E3C81F48091370318169CF34423E7
:1023800081F08091380390913903892B09F08CCF2B
:1023900010922D0389CF8F3C49F447FFF0CF109264
:1023A0003603809137038111ECCFE0CF803D19F4E3
:1023B0001416ACF3E4CF90913803893D29F4191633
:1023C000F4F610923803DBCF8A3D19F497FFD7CF8C
:1023D000F8CF909139038B3D29F497FFD0CF10921D
:1023E0003903CDCF8C3D19F41916CCF3C8CF9FE239
:1023F000980F983090F4815D990B21E030E0B9019D
:1024000002C0660F771F8A95E2F7CB018095909105
:102410003503892380933503B2CF8D3D31F480910C
:102420002E038E7F80932E03AACF8E3D21F48091C0
:102430002E038D7FF7CF8F3D09F0A1CF80912E0322
:102440008B7FF0CF90910E01992359F190914C031D
:1024500097FF27C0E82FE695E695E695EE3180F4E4
:10246000F0E0E456FD4F282F277081E090E001C096
:10247000880F2A95EAF780959281892382830895AF
:1024800090913B0390FF19C01F928F938DED92E0C6
:102490009F938F930E9462070F900F900F900F9061
:1024A0000895EEE9F2E09191891303C0DF011197DD
:1024B0001C9292E0E43AF907B1F7089590910E0169
:1024C000992349F190914C0397FF25C0E82FE69599
:1024D000E695E695EE3170F4F0E0E456FD4F877036
:1024E00021E030E001C0220F8A95EAF78281822B39
:1024F0008283089590913B0390FF1EC01F928F939B
:102500008FEB92E09F938F930E9462070F900F9042
:102510000F900F900895AEE9B2E0EFEF90E02D91AB
:10252000821751F0EF3F19F4211101C0E92F9F5F8D
:102530009630A9F7EF3F09F408950E2E000CFF0B1B
:10254000E456FD4FD5CF0F931F93CF93DF93809128
:10255000060390910503892B80939C0290910403BC
:102560009923B1F0892B80939C0280910E018823DE
:1025700009F46FC080914C0387FF6BC08EE1EEE9D8
:10258000F2E090E0815008F066C0911110920403CF
:1025900040E250E064EE72E08CE992E00E949429FF
:1025A000892B09F451C080E2ECE9F2E0A4EEB2E03C
:1025B00001900D928A95E1F7E0914303F091440375
:1025C000309709F441C080910E01882359F0809121
:1025D0004C0387FF07C080919C0280939D0286E098
:1025E00080939C020280F381E02D8CE992E00995B2
:1025F00080913B0382FF28C080FF04C088E193E004
:102600000E94C906D0E0C0E002E113E080913B03E4
:1026100080FF0EC0FE01E456FD4F80811F928F9314
:102620001F930F930E9462070F900F900F900F90CF
:102630002196C830D10551F780913B0380FF04C03B
:1026400080E193E00E94C906DF91CF911F910F9125
:10265000089586E094CF2191222309F493CF9F5FC0
:1026600091CF882321F00E94100C0E94A31208959C
:10267000882339F090910603982B909306030E94CB
:10268000A3120895882309F456C0823879F40E9471
:10269000580981FF50C089E30E945E120E94A31274
:1026A00089E30E9422120E94A3120895833859F4EC
:1026B0000E94580980FF3FC083E50E945E120E947D
:1026C000A31283E5EECF843859F40E94580982FFA3
:1026D00032C087E40E945E120E94A31287E4E1CF19
:1026E0009CEF980F913AE8F290E2980F983050F4EE
:1026F000877091E001C0990F8A95EAF7892F0E94AF
:10270000100CD1CF9BE5980F933028F490E080E037
:102710000E943309089598E5980F9B3128F490E0C2
:1027200080E00E940E09089593E3980F933118F406
:1027300060E00E944A110895CF93C82F80914D0305
:1027400082FB992790F99C17F9F0C0FB82F98093DE
:102750004D0360914C0370914D0384E090E00E9422
:102760007E2982E00E94BC0C80913B0380FF0CC05C
:102770001F92CF938BEF92E09F938F930E946207FB
:102780000F900F900F900F90CF9108951092060325
:1027900080910E01EEE9F2E0882329F180914C034B
:1027A00087FF21C08EE1DF011D928A95E9F790E055
:1027B00080E00E94330990E080E00E940E091092B0
:1027C00005030E94A31286E0E4E3F3E0DF011D921B
:1027D0008A95E9F710922F0310922D0310922E0381
:1027E0000E94A110089586E0DECFAAE2B0E0EBEFF0
:1027F000F3E10C94062988E793E02091F100DC01D5
:102800002D93CD01B3E080389B07B9F78091790310
:10281000833009F472C0B8F4813009F449C08230C1
:1028200009F4B3C08091E80083FF91C280917803DE
:10283000909179039A3008F08AC2E92FF0E0ED55C3
:10284000F64D0C94EA288A3009F48EC08B3009F4D6
:1028500071C0893039F780917803813219F78091FE
:102860007C0390917D03009711F00297D9F6809137
:10287000E800877F8093E8008091E80082FF38C0FD
:102880009091F3008091F200029731F48091F10071
:10289000813011F0863021F48091F1008093530350
:1028A0008091E8008B778093E8000E94DA07BACF26
:1028B00080917803813A09F0B5CF8091E800877F55
:1028C0008093E80080917C0390917D03892B61F4D3
:1028D00060E284E593E070E00E9486088091E80061
:1028E0008B778093E8009ECF60E090E080E0F3CFAC
:1028F000809176038111C0CF95CF80917803813A82
:1029000009F090CF80917C0390917D03892B09F091
:1029100089CF8091E800877F8093E8008091E8006C
:1029200080FFFCCF80910E018093F1008091E80040
:102930008E77B9CF80917803813209F073CF80917F
:102940007C0390917D03892B09F06CCF8091E80086
:10295000877F8093E8000E94DA0780917A03809352
:102960000E010E94C6135ECF80917803813209F078
:1029700059CF8091E800877F8093E8000E94DA07B2
:1029800080917B03809352034DCF80917803813AED
:1029900009F048CF8091E800877F8093E80080911C
:1029A000E80080FFFCCF80915203BECF803899F0C1
:1029B000823809F0CCC180917C038F70873008F099
:1029C000C6C18093E9008091EB0085FB882780F9E0
:1029D0001092E90006C080917403909175039111E3
:1029E00082609091E800977F9093E8008093F100D7
:1029F0001092F1008091E8008E77A5C1882309F438
:102A000093C1823009F0A3C180917A03811196C1EC
:102A100080917C038F702FEF280F263008F097C12C
:102A20008093E9002091EB0020FF88C1933031F4BE
:102A30008091EB0080628093EB0080C19091EB006D
:102A400090619093EB0021E030E001C0220F8A9565
:102A5000EAF72093EA001092EA008091EB00886088
:102A6000EACF811174C110917A031F778091E3003E
:102A70008078812B8093E3008091E800877F8093AA
:102A8000E8000E94DA078091E80080FFFCCF809187
:102A9000E30080688093E30082E0111183E080937B
:102AA000760355C18058823008F051C120917A03D5
:102AB00030917B032C3DE3E03E07A1F583E08A8360
:102AC0008AE289834FB7F894DE01139620E03EE056
:102AD00051E2E32FF0E050935700E49120FF03C050
:102AE000E295EF703F5FEF708E2F90E0EA30C0F01C
:102AF000C7968D939D932F5F243159F74FBF8091D7
:102B0000E800877F8093E8006AE270E0CE010196DA
:102B10000E9486088091E8008B778093E80017C1B7
:102B2000C096E7CF80917C0390917D03432F55277A
:102B30004330510509F44AC078F54130510509F494
:102B40007AC08BE790E0E4E4FCE04230510509F004
:102B5000FEC02091E800277F2093E80020917E03AB
:102B600030917F038217930708F49C0140E0211500
:102B7000310509F065C0411163C08091E80082FD14
:102B8000C9CF80917603882329F2853019F280918C
:102B9000E80083FFF2CFBECF4132510509F43CC0BB
:102BA0004232510509F0D3C08430910508F0CFC0FE
:102BB000FC01EE0FFF1FE657FD4F0190F081E02D65
:102BC0008A579D4FDC018C9190E01AC03327213049
:102BD0003105D1F02115310561F02230310509F0C0
:102BE000B6C0E1EDFCE0E4918E2F90E0E1EDFCE079
:102BF00007C0E1E0FDE0E4918E2F90E0E1E0FDE030
:102C0000009709F4A4C0A5CFEFEEFCE0E4918E2F6D
:102C100090E0EFEEFCE0F4CF8430910508F097C02F
:102C2000880F991FFC01EE56FD4F0190F081E02DB9
:102C300089E090E08ECF82E190E0EFEBFCE089CF7D
:102C400080917603882309F465CF853009F462CF3B
:102C50008091E80083FD5ECF8091E80082FD8DCFFA
:102C60008091E80080FF83CF9091F3008091F20083
:102C70002115310519F08830910550F041E0089791
:102C800009F040E08091E8008E778093E8006FCFF4
:102C900044914093F1003196215031090196E8CFDB
:102CA000803809F054C08091E800877F8093E80065
:102CB000809177038093F1009DCE811148C01091DF
:102CC0007A03123008F043C08091E800877F809338
:102CD000E800109377030E94DA07112311F084E0D3
:102CE00005C08091E30087FDFACF81E080937603F1
:102CF00042E061EC81E00E94F90742E261EC84E08D
:102D00000E94F90742E261EC82E00E94F90742E288
:102D100060EC83E00E94F90742E261EC85E00E94EA
:102D2000F9078091760313C080917A03813079F49A
:102D300081E0933009F080E0809375031092E90000
:102D40008091E800877F8093E8000E94DA078091F5
:102D5000E80083FF0AC08091E800877F8093E80045
:102D60008091EB0080628093EB00AA96E3E00C94E4
:102D70002229CF93C82F1F928F9383ED99E09F93C1
:102D80008F930E94620781E001C0880FCA95EAF71D
:102D90000E94DF0C0E94C6130F900F900F900F90AF
:102DA000CF9108950E94C6132FEF84E39CE0215039
:102DB00080409040E1F700C0000088E19CE00FB641
:102DC000F894A895809360000FBE90936000FFCFA9
:102DD000AAE0B0E0EEEEF6E10C94F9288E010F5F68
:102DE0001F4F8AE0F80111928A95E9F792E7E92EE0
:102DF00092E0F92E680127E7422E22E0522E662447
:102E00006394712C46E8842E42E0942EF701819160
:102E10007F018F3F09F445C0F894E82FE295EF70E9
:102E2000F0E021A18F70A30102C0440F551F8A95C5
:102E3000E2F7CA01922F982B91A392A18095892342
:102E400082A3789400C0E7E7F2E021E030E0B12C03
:102E5000A12C41914F3F09F464C0A42FA295AF70FB
:102E6000B0E090968C9190E04F7002C09595879558
:102E70004A95E2F780FD55C0C901A82AB92A220F58
:102E8000331F8E169F0629F7F701319780818F3FF8
:102E900011F00E94EA0950EA5A95F1F7F601B18261
:102EA000A082F2E0CF0ED11C4E145F0409F0AECF29
:102EB0004AE050E0B8018DE093E00E949429892B0C
:102EC00099F18AE0F801ADE0B3E001900D928A95A6
:102ED000E1F781E080930C030E94020990930B03B9
:102EE00080930A0380910A0390910B030E94E708E4
:102EF0000597F0F04AE050E06DE073E083E293E084
:102F00000E949429892BC9F08AE0EDE0F3E0A3E266
:102F1000B3E001900D928A95E1F781E010920C03E5
:102F200008C090E080E0A9CF80910C038111DACF36
:102F300080E02A96E0E10C94152980E0EFCFA8E02C
:102F4000B0E0E5EAF7E10C94072966EE7EEF90E049
:102F500080E00E947E2960E082E090E00E9460298B
:102F600060E083E090E00E9460291092070360E037
:102F700074E184E090E00E947E2960E086E090E0C9
:102F80000E9460296FEF87E090E00E94602940E096
:102F900050E0BA0188E090E00E94722960E084E28B
:102FA00090E00E94602960E087E190E00E94602943
:102FB00060E08CE090E00E94602960E08DE090E0AD
:102FC0000E94602919821A821B821C821D821E8225
:102FD0001F82188648E050E068E170E0CE0101965B
:102FE0000E94502940E050E0BA0180E290E00E9447
:102FF000722980E00E945B0E0E94740E40E050E057
:10300000BA018FE090E00E94722940E050E0BA01DE
:1030100083E190E00E9472292896E2E00C94232933
:10302000B0E0A0E0E6E1F8E10C940229EBEFE80F54
:10303000EF3308F04EC1F0E0E355F64D0C94EA286A
:1030400083E090E00E9442291F928F938BE095E0ED
:103050009F938F930E94620782E090E00E94422932
:1030600083FB992790F91F929F9382FB992790F9F0
:103070001F929F9381FB992790F91F929F93982FFE
:1030800091701F929F931F928F9382EC94E09F9375
:103090008F930E94620784E090E00E944A2993FB8C
:1030A000222720F91F922F9387FB222720F91F92B6
:1030B0002F9386FB222720F91F922F9385FB22272F
:1030C00020F91F922F9384FB222720F91F922F9320
:1030D00083FB222720F91F922F9382FB222720F9BE
:1030E0001F922F9391FB222720F91F922F93292FB4
:1030F00021701F922F9381FB222720F91F922F937B
:10310000282F21701F922F939F938F9383EC93E02E
:103110009F938F930E9462078DB79EB78A960FB6D2
:10312000F8949EBF0FBE8DBF81E01CC08EE298E078
:103130000E94C9060E949F17F7CF88E295E00E947F
:10314000C906F2CF80913B03807F80933B038DEDD6
:1031500096E00E94C9068AE298E00E94C90681E0D2
:1031600080933A03CDB7DEB7E7E00C941E298EE0DA
:1031700098E00E94C9060E94C6139FEF24E38CE0EA
:10318000915020408040E1F700C000000E94C90D2E
:1031900090913B03892F8E7F90FF816080933B034A
:1031A00080FF03C082E098E0CACF85EF97E00E94DD
:1031B000C90680913B03817F80933B03B5CF9091FB
:1031C0003B03892F8D7F91FF826080933B0381FFBA
:1031D00008C088EE97E00E94C90680913B03816099
:1031E000EBCF8AED97E0ABCF90913B03892F8B7F9C
:1031F00092FF846080933B0382FF03C08BEC97E0D7
:10320000EACF8BEB97E09BCF90913B03892F877F91
:1032100093FF886080933B0383FF03C08FEA97E0AE
:10322000DACF82EA97E08BCF8CE691E09F938F9381
:1032300084E097E09F938F930E9462070F900F9016
:103240000F900F9071CF0E94F608062FF72EE82EF0
:10325000D92EC0914C03C7FBCC27C0F91091520363
:10326000D0910E010E945809DF92EF92FF920F93C6
:103270001F92CF931F921F931F92DF931F928F93E2
:1032800087E097E09F938F930E9462078DB79EB768
:103290000E960FB6F8949EBF0FBE8DBF45CF0E940D
:1032A000C61390914C03892F97FB87F98058809320
:1032B0004C0387FF03C088E997E041CF8DE897E092
:1032C0003ECF80E00E94B9162FCF8953FBCF8D519E
:1032D000F9CF8BE897E00E94C90680E043CFCF93F7
:1032E000C82F8823C9F08238C9F40E94580981FD8B
:1032F00013C089E30E945E120E94A3122FEF87EE93
:1033000093E0215080409040E1F700C0000089E345
:103310000E9422120E94A312CF9108958338A1F433
:103320000E94580980FDF8CF83E50E945E120E943A
:10333000A3122FEF81EE94E0215080409040E1F7FE
:1033400000C0000083E5E4CF8438A1F40E9458094E
:1033500082FDE2CF87E40E945E120E94A3122FEF4B
:1033600081EE94E0215080409040E1F700C00000E1
:1033700087E4CECF8CEF8C0F813A08F078C0809133
:103380003A038130B9F1882359F1823009F45CC0E5
:1033900010923A0380910E01882309F459C080915C
:1033A0004C0387FF55C0EC2FE695E695E695F0E0D7
:1033B000E456FD4F828190E04C2F477021E030E0D1
:1033C00002C0220F331F4A95E2F782239323892BF1
:1033D00009F449C08C2F0E9422120E94A31243C0FC
:1033E000809106038232B1F68C2F0E941018811151
:1033F00093CFD0CF809106038232B1F3C431C9F0AC
:1034000048F4CB3059F0C031C1F089EB92E00E9412
:10341000C90611C0C93269F0C833B9F78DED96E01D
:103420000E94C9068BEB92E00E94C90681E0817080
:10343000DECF10923A0380E0FACF82E080933A0325
:1034400088E30E94850FF2CF8C2F0E94850F64CFF6
:10345000EEE9F2E084EA92E02191C21709F4BACFD2
:103460008E179F07C9F78C2F0E945E1253CF80E200
:103470008C0F883068F4C77021E030E001C0220F63
:10348000CA95EAF780910603822B8093060342CF08
:10349000EBE5EC0FE33040F4F0E0E75CFD4F8081BA
:1034A00090E00E94330938CFE8E5EC0FEB3150F49F
:1034B000F0E0EE0FFF1FE45CFD4F808191810E94E0
:1034C0000E092ACF83E38C0F833108F025CF61E00A
:1034D0008C2F0E944A1120CF1F93CF93DF93182F78
:1034E000D0E0C0E0893311F4C0E5D0E0812F0E9424
:1034F0006F19209739F4812F0E944213DF91CF91E9
:103500001F9108958FE99FE00197F1F700C0000037
:103510002197EFCF0F931F93CF93DF93C62FD42F15
:10352000022FFC0185818823A9F06093BC030E94CF
:1035300002099093BB038093BA03C77081E001C076
:10354000880FCA95EAF70E943813DF91CF911F9137
:103550000F9108958091BC03681332C08091BA0323
:103560009091BB030E94E708883C910548F510E262
:103570001D0FCD17B9F080E28C0F883040F4C77072
:1035800081E001C0880FCA95EAF70E943113183014
:1035900048F481E09D2F977001C0880F9A95EAF753
:1035A0000E943813802F0E946C1A183070F6D77062
:1035B00081E001C0880FDA95EAF70E943113C5CF88
:1035C000C77081E001C0880FCA95EAF7F6CFA8E07E
:1035D000B0E0EDEEFAE10C94F9288C01DC011496D0
:1035E0008C911497882309F4B8C021E04C9111966E
:1035F0005C91119712966C91129713967C91139788
:1036000015969C910E94200F7C01F80185818823EA
:1036100009F43CC1C70197578038910508F015C5DA
:10362000FFE0FE1508F489C08FEF93E00E94422965
:10363000811183C061E8A62E62E0B62EE11047C07A
:10364000FE01339686E0DF011D928A95E9F75AE084
:10365000452E7501BFEFEB1AFB0AC5010E944229F6
:1036600089831A82882309F468C0813009F079C0FF
:103670006501E2E0CE0ED11CC7010E9442298A8377
:10368000882309F45AC09FEF980F933070F5F3E048
:10369000AF0EB11CC6010E9442298B83882309F416
:1036A0004CC01C82DE0111967D01F701208122238E
:1036B00081F2213009F095C091818281913009F029
:1036C00052C0F2E0EF0EF11C0E946C1A53C0A1141C
:1036D00024E0B20691F1C5010E944229811101C086
:1036E000EA943FEFA31AB30AA9CF56018430D1F66A
:1036F00042E0E42EF12C56012FEFA21AB20AC601C5
:103700000E944229E1E0F0E0EC0FFD1FEE0DFF1DED
:103710008083882391F08C3741F4E2E0F0E0EC0FF5
:10372000FD1FEE0DFF1D1082BDCF3FEFE31AF30A20
:10373000650187E0E816F104F1F68091E3028770F5
:1037400061F0D80115968C91882339F080914D0352
:1037500082FF03C082E00E94BC0C2896E0E10C943A
:10376000152957019FCF923049F422E0E20EF11C57
:103770000E946F19EFEFEE1AFE0A97CF933031F4E3
:1037800032E0E30EF11C0E944213F4CF943021F09A
:103790008FEFE81AF80AEECF92E0E90EF11C30E064
:1037A00020E0B7016F5F7F4FD70111964C91805396
:1037B000990B8A30910550F021503109D8F2EFE988
:1037C000FFE03197F1F700C00000F6CF429EF00114
:1037D000439EF00D11249C012E0F3F1F842F7B016F
:1037E000E0CFE22FF0E0EA5EFD4F5490822F869505
:1037F0008695869590E0FC01EA5FFD4F6490277006
:10380000712C022E02C0759467940A94E2F731E09D
:1038100063227724FC01EA50FE4F8490912C022E03
:1038200002C0959487940A94E2F7A1E08A22992431
:10383000FC01EA51FE4FC490D12C02C0D594C7942C
:103840002A95E2F7B1E0CB22DD246114710419F06E
:1038500081EE0E946F198114910419F086EE0E9486
:103860006F19852D0E946C1A8114910419F086EE4F
:103870000E9442136114710419F081EE0E944213F8
:10388000C114D10409F476CF8CE21ECFF701E851C0
:10389000FC47E730F10508F0CBC3E451F64D0C943A
:1038A000EA2826E241EE61EEC8010E948A1A45CF5D
:1038B00027E245EE65EEF8CF26E241EE60EEF4CF6A
:1038C00027E245EE64EEF0CF26E241EE62EEECCF69
:1038D00027E245EE66EEE8CF28E241E0EBCF8091AB
:1038E0004C03816080934C0395C080914D038860A8
:1038F00080934D038FC080914C038260F3CF809101
:103900004C038460EFCF80914C038860EBCF8091B3
:103910004D038160EDCF80914D038260E9CF8091AE
:103920004C038061DFCF80914C038062DBCF8091BC
:103930004C038064D7CF0E94C61380914C038068EB
:10394000D1CF80914C038C60CDCF80914D038360AB
:10395000CFCF80914C038E7FC5CF80914D03877F61
:10396000C7CF80914C038D7FBDCF80914C038B7F5F
:10397000B9CF80914C03877FB5CF80914D038E7F67
:10398000B7CF80914D038D7FB3CF80914C038F7E55
:10399000A9CF80914C038F7DA5CF80914C038F7B65
:1039A000A1CF0E94C61380914C038F779BCF80914B
:1039B0004C03837F97CF80914D038C7F99CF80916B
:1039C0004C0382FB992790F921E0922790FB82F922
:1039D00090FB83F987CF80914D03982F909591703C
:1039E0008E7F892B90FB81F983CF90914C03892F97
:1039F0008F7B96FF806476CF0E94C61390914C0314
:103A0000892F97FB87F980586DCF61E08EE090E0B9
:103A10000E94602960914C0370914D0384E090E016
:103A20000E947E290E94C61388CE60E0EFCF90915D
:103A30004C03892F8F7E94FF806154CF90914C036B
:103A4000892F8E7F90FF81604DCF90914D03892FFC
:103A5000877F93FF88604CCF85E3E5C285E3F2C2A0
:103A6000F7E7EF16FCE7FF0609F46CC028E7E2165B
:103A70002CE7F20609F473C033E0E3163CE7F306E3
:103A800009F4A0C008F06DC091E0E9169CE7F906C2
:103A900009F49EC008F084C0E114BCE7FB0609F4F9
:103AA00072C0F8018581E080F180882309F49EC00E
:103AB000C7010E94C10ED82E682FC7010E94550C65
:103AC000B7018D2D0E94B30E0E94F20A7C01882E50
:103AD000D8011596AC90159716969C9092943FE05D
:103AE00093228091E3028770F1F0DA2CAA20E1F0B2
:103AF0008F2D807F803451F080E28E0D883098F0D9
:103B0000911004C08F2D807E803269F080914D032A
:103B100082FF09C082E00E94BC0C8091E3028770A2
:103B2000DD24D3948111D12CCF2CC2942FE0C2225A
:103B3000BBE0BC1508F4C2C0EC2DF0E0ED50F64D32
:103B40000C94EA2881E00E94D30C43E062E081E01B
:103B50000E948F0CF2CD81E00E94AF0CF6CF82E084
:103B6000F2CFEBE5EE16ECE7FE06F1F1FCE5EF1621
:103B7000FCE7FF0679F12AE5E2162CE7F20609F0E8
:103B800090CF81E02EC00E94C6133FEF84E39CE0FB
:103B9000315080409040E1F700C000000E94C90D04
:103BA00090913B03892F8E7F90FF816080933B0330
:103BB00080FF05C088EA92E00E94C906BECD86E972
:103BC00092E0FACF6FEF7FEF90E080E00E947E29D5
:103BD0000E94D21680914D0382FB882780F991E0E4
:103BE00089270E949C135DCF80E0FBCFC7010E9414
:103BF000210CD82E65CFEF2DEF70BE2E8F2D807F3C
:103C000019F0B29490EFB922AA20B9F0BB2069F064
:103C100080E28E0D883010F0811009C0809106037B
:103C2000B82AB09206030E94A3128E2D45C080913F
:103C30000503B82AB0920503F6CF8E2D0E944213D9
:103C4000BB20E1F180E28E0D883010F0811004C0BD
:103C50008B2D0E94100C06C0B09480910503B822F1
:103C6000B09205030E94A31229C0FF2DFF70BF2E42
:103C70008F2D807F803219F0B29480EFB822882097
:103C800059F021E0821609F482C0AA2009F48EC0FE
:103C9000992009F44FC0C9CF80914D0382FD46C0E1
:103CA000AA20F1F1BB2039F0809106038B29809383
:103CB00006030E94A31280E00E946F19AC2DA85049
:103CC000BB0B149710F40E945809DD20A9F08091D5
:103CD000E30280FD11C0F8011582869586958695D0
:103CE0000E94D30CC8010E94E71A8091E3028695D6
:103CF000869586950E94AF0C20E0D8014C911196D4
:103D00005C91119712966C91129713967C91139770
:103D100014968C91149715969C910E94200F1DCD9E
:103D200080E00E944213BB2049F292CFAA20A1F06A
:103D3000911004C08B2D0E943813C0CF31E0931234
:103D4000BDCF809104039B2D9823B91609F4B6CFFB
:103D50008B2980930403B2CF9110B0CF8B2D0E949A
:103D60003113909104038B2D892329F08B2D80959D
:103D70008923809304039091BD028B2D892309F43C
:103D80009DCF8B2D809589238093BD0297CFAA204C
:103D900029F085E0891508F491CFCCCF94E09915EE
:103DA00008F48CCF8B2D0E94311388CF9920D1F34A
:103DB000A9E38A1209C0BFEFE7EEF3E0B150E0409B
:103DC000F040E1F700C000008E2D0E94421376CF34
:103DD0008F2D86958695837061F0813009F06ECFC6
:103DE000C7019370A11002C080E090E00E940E090C
:103DF00065CFC7019370A11002C080E090E00E94DF
:103E000033095CCF6A2D8E2D0E944A1157CF8F2D1A
:103E1000837091F5A11052CF4E2D42954695477073
:103E2000440F440F8E2D8F70042E01C0880F0A940A
:103E3000EAF72E2D2071E4FE07C02FE030E001C02C
:103E4000220F4A95EAF720953F2D36953695337027
:103E5000323069F050F440910703313029F0822B61
:103E600084230E94DF0C2ACF842B822BFACF282BAD
:103E7000809107038227F5CF8695AA2011F08F2D18
:103E80008170882309F41ACF4E2D429546954770CC
:103E9000440F440F8E2D8F70042E01C0880F0A949A
:103EA000EAF72E2D2071E4FE07C02FE030E001C0BC
:103EB000220F4A95EAF720953F2D369536953370B7
:103EC000323069F050F440911703313029F0822BE1
:103ED00084230E948C0CF2CE842B822BFACF282BC9
:103EE000809117038227F5CF2F2D2F70F22EAA2055
:103EF00029F0822F0E94D30C8E2D1DCF8E2D0E9473
:103F000031138F2D0E94AF0CD9CE8E2D32EF831638
:103F1000B1F1381570F090EF8916D1F0A1EF8A1643
:103F200091F0AA2009F45EC091107FCE8F2D8F7181
:103F30002AC0B3EF8B1651F1E4EF8E12F2CF8091CD
:103F40004D0382FD2FC08F2D8F71AA20D9F21BC087
:103F5000AA2081F0F4E0F91508F4B0CE2F2D2F71CE
:103F600081E090E001C0880F2A95EAF7909117034D
:103F70008927AFCF25E0291508F4A0CEEFCF8F2DEC
:103F80008F71A110BFCF0E94D30C98CE80E0AA20E1
:103F900009F49FCF9F2D9F7181E001C0880F9A95F2
:103FA000EAF797CFAA2099F03F2D3F71F32E832F88
:103FB0000E94D30C80914D0382FF07C0A8E0FA9EB7
:103FC000C001112483608093E3028F2DDCCF81E058
:103FD0000E94BC0CB1E0B91508F070CE82E00E94DE
:103FE000BC0C6CCE992059F0893309F0EDCEEFEF7F
:103FF000F7EE23E0E150F0402040E1F7E3CE8F2DD3
:104000008F7180CFB6E1EB16BCE7FB0609F028CD37
:10401000809106038A7A91E009F490E09093BC02C3
:1040200081111ACD89E20E945E120E94A31285CBF3
:10403000E6E1EE16ECE7FE0641F58091BC02811147
:104040000DCD89E20E942212F0CFF701E851FC4722
:10405000E730F10508F421CC1092BC03C70190575A
:10406000839780F684E090E00E944A2990934D0364
:1040700080934C03F701E150F047E232F10508F07C
:104080002ECCE150F64D0C94EA28F7E7EF16FCE74A
:10409000FF0609F460CD82E028E7E2162CE7F2067D
:1040A00009F45ACDFECCCF93DF938091E202807F5A
:1040B00009F04DC08091E102882309F448C0E091E5
:1040C000B90350918003C091DD02D091DC02609170
:1040D000DE027091DF0247E05E17C9F18E2F90E09B
:1040E000E49FF0011124EF57FC4F2481222391F12A
:1040F000489FF001499FF00D1124DF01AF57BC4FDD
:1041000011962C9111972C1325C02C912D1322C0A0
:1041100015962C91159721111DC012962D913C9149
:10412000261B370B283C3105A8F48091E2028F70E2
:1041300080618093E202E957FC4F80818F7080613B
:1041400080838CED92E00E94E71A0E94170CDF91A9
:10415000CF910895FC013196E770BECFA4E1B0E0A5
:10416000E4EBF0E20C94FD288C0186E0F801DE011E
:104170001F9601900D928A95E1F7F8018481E58000
:104180009CEDA92E92E0B92E9091E002911128C0E9
:10419000882319F1EE20F1F0C8010E94FD0EF82EDF
:1041A0008823C1F087E0F801D50101900D928A952E
:1041B000E1F78091E002813031F48091DC0290914E
:1041C000DD020E94F00E0E9453208F2D6496ECE0D9
:1041D0000C941929C8010E94E71AFF24F394F5CF23
:1041E000D080C18082809380F090E1022091DE0235
:1041F0003091DF02A401421B530BFF2009F4D9C008
:10420000483C510508F092C08823F9F29091DD02F4
:104210008091E202282F207F09F056C0C91214C0F5
:104220009091DC02D91210C0E11048C08F708061FB
:104230008093E2028CED92E00E94E71A8091E20204
:10424000F8018683F12CC1CFE11038C06C2D8D2D83
:104250000E946B076C2D8D2D0E946B07E82E81113B
:10426000F1CFDF86C88A8F8598890E94F00E292FAA
:1042700022952F70243058F49F70223088F09923B3
:1042800099F0F8019681907F79F4FE2C9ECF2A5FF9
:104290002F70223068F0C8010E94E71AEF2CF5CF8A
:1042A000992311F0882389F3805E883070F3F3CF6F
:1042B000803F58F3815F833070F7E7CF8091E2024F
:1042C00081608093E202BECFC91207C09091DC02E8
:1042D000D91203C0EE2009F48DC0C8010E94FD0E62
:1042E000882309F477CFEE2009F474CF8091E2029D
:1042F000803288F02091DC023091DD0239872887F6
:104300009B868A869091E0029C871D868E87CE01CF
:1043100008960E94E71A87E0F801ACEDB2E0019040
:104320000D928A95E1F70E94532057CF9091E202B7
:10433000292F207F51F48CED92E00E94E71A87E04C
:10434000F50111928A95E9F77DCF882309F43DCFD5
:104350008091DD028C1110C08091DC02D8120CC05B
:10436000E1100AC09683C8010E94E71A87E0F501B0
:1043700011928A95E9F729CFC8010E94FD0E882382
:1043800009F428CFEE2009F425CF8091E202803293
:1043900010F22091DC023091DD023A8329839C8265
:1043A0008B829091E0029D831E828F83CE010196C5
:1043B000B0CF483C5105D0F6882309F40ECFFE2C2F
:1043C000EE2009F407CF8091DD028C1120C080918E
:1043D000DC02D8121CC08091E20280FD0FC0982F31
:1043E000907F61F08683903F31F0982F907F905FAF
:1043F0008F70892B8683C8010E94E71A87E0F80135
:10440000ACEDB2E001900D928A95E1F7DECEC801E5
:104410000E94FD0E81117FCF8091E2028160809326
:10442000E202C8010E94E71AD0CEABE1B0E0EBE1B6
:10443000F2E20C9405294E8B5F8B688F798F8A8FFF
:104440009B8F192F9111109205031D8A86E0FE01A2
:104450007696DE011F9601900D928A95E1F70A8DFE
:10446000002341F021E04F85588969897A89C80184
:104470000E94200F0B8B1C8B87E0FE013F96DE0114
:10448000189601900D928A95E1F7CE0108960E9448
:10449000AE2081112AC087E0FE013896DE01119618
:1044A00001900D928A95E1F78C858823F1F0209197
:1044B000800330E0C9010196877099274091B903C4
:1044C00048171906E9F097E0929FD001939FB00D2D
:1044D0001124AF57BC4FFE01319601900D929A9571
:1044E000E1F7809380030E94170C17E08091B903D5
:1044F00090918003891312C06B96E4E00C942129FB
:104500000E94C613109280031092B90387E0ECED6D
:10451000F2E0DF011D928A95E9F7E7CF819FC001A4
:1045200011248F579C4F0E94AE20882329F380913D
:10453000B90390E00196877099278093B903D6CF8D
:10454000A6E0B0E0E6EAF2E20C9405290E94020936
:104550008C0180910803909109038017910781F0E5
:1045600019821A820E940209682F49815A81792F83
:1045700080E090E00E941522109309030093080345
:104580002696E4E00C9421291F920F920FB60F9209
:1045900011242F933F934F935F936F937F938F9348
:1045A0009F93AF93BF93CF93DF93EF93FF93D091FC
:1045B000E900DF708091EC00C82FC17080FDC0E879
:1045C0001092E9008091F000877F8093F00078944A
:1045D0000E94F5131092E9008091F00088608093AA
:1045E000F000CD2BCF70C093E900FF91EF91DF91E8
:1045F000CF91BF91AF919F918F917F916F915F917B
:104600004F913F912F910F900FBE0F901F901895D3
:104610001F920F920FB60F9211242F933F934F9337
:104620005F936F937F938F939F93AF93BF93EF931A
:10463000FF938091E10082FF15C08091E20082FF2C
:1046400011C08091E1008B7F8093E10020915003A5
:104650002F5F822F62E30E94CA28992309F4C0C009
:10466000209350038091DA0080FF28C08091D80009
:1046700080FF24C08091DA008E7F8093DA008091E1
:10468000D90080FFE3C080E189BD82E189BD09B422
:1046900000FEFDCF81E08093760380E39CE00E94E2
:1046A000C90680915103811109C00E948A070E94A6
:1046B0002B088091E20084608093E2008091E10009
:1046C00080FF1BC08091E20080FF17C08091E20054
:1046D0008E7F8093E2008091E20080618093E2000F
:1046E0008091D80080628093D80019BC85E08093C7
:1046F000760388E39CE00E94C9068091E10084FF74
:104700002FC08091E20084FF2BC080E189BD82E14F
:1047100089BD89B5982F917080FFFBCF8091D8001B
:104720008F7D8093D8008091E1008F7E8093E1009F
:104730008091E2008F7E8093E2008091E2008160B0
:104740008093E20080917703882309F489C084E094
:10475000809376038CE39CE00E94C90680917603E7
:104760008091E10083FF2BC08091E20083FF27C08E
:104770008091E100877F8093E10082E0809376035F
:10478000109277038091E1008E7F8093E100809109
:10479000E2008E7F8093E2008091E200806180934E
:1047A000E20042E060E080E00E94F9078091F000C2
:1047B00088608093F00080E49CE00E94C906FF912D
:1047C000EF91BF91AF919F918F917F916F915F9189
:1047D0004F913F912F910F900FBE0F901F90189502
:1047E0001092500380914F03882309F43BCF8091AE
:1047F00076038430C1F49091E9009F702091EC0021
:10480000822F817020FD80E8892B95E09093E9004C
:104810009091EB0090FF04C09091EE0097FD08C0CE
:104820008F708093E90010924F031CCF1092F1001B
:104830009091E80095FDFACF9091E80090FFF0CFBD
:104840009091E8009E779093E800EACF19BC10920F
:10485000760384E39CE00E94C906109251032ECF98
:104860008091E30087FD93E09093760373CF789473
:104870001F921FB61F9211248F939F93AF93BF93E4
:104880008091480390914903A0914A03B0914B0352
:104890000196A11DB11D8093480390934903A093F5
:1048A0004A03B0934B03BF91AF919F918F911F909B
:1048B0001FBE1F9018951F921FB61F9211248F9331
:1048C0009F93AF93BF9380914703811113C0809151
:1048D000480390914903A0914A03B0914B0341963C
:1048E000A11DB11D8093480390934903A0934A03EF
:1048F000B0934B03BF91AF919F918F911F901FBEBB
:104900001F901895CDB7DEB7A6970FB6F894DEBF07
:104910000FBECDBF85B7806885BF85B7806885BF6E
:1049200084B7877F84BF0FB6F894A8958091600004
:10493000886180936000109260000FBE80E890E074
:104940000FB6F89480936100909361000FBE8AEFD8
:104950009CE090939B0280939A020E948A070E9497
:104960002B088091E20084608093E200789480912B
:1049700076038823A1F01091E9001F709091EC005C
:10498000892F817090FD80E8182B1092E9008091AA
:10499000E80083FD0E94F5131F701093E90082E088
:1049A00084BD93E095BD9AEF97BD80936E000E9401
:1049B000450F811102C00E94740E02E712E087E7E2
:1049C000E82E82E0F82ED8018D918D018F3F11F0F5
:1049D0000E94EA09E016F106B1F707E712E0F801D4
:1049E00081918F018F3F11F00E94EA09F2E00638B1
:1049F0001F07A9F78AE0E3E2F3E0DF01282F1D9209
:104A00002A95E9F7EDE0F3E0DF011D928A95E9F7D9
:104A100090E080E00E944A29863E9E4F21F40E9449
:104A2000450F811102C00E949F1782E090E00E9412
:104A3000422980933B0384E090E00E944A299093AE
:104A40004D0380934C030E94E816EFEFF6E721E058
:104A5000E150F0402040E1F700C000000E94E8165D
:104A60008091230380FF08C06FEF7FEF90E080E02C
:104A70000E947E290E94C90D83E090E00E94422995
:104A80000E94DF0C80E091E0909344038093430305
:104A900011E022242394809176038530A1F4809143
:104AA0003B0380FF04C08AE293E00E94C90600E154
:104AB000F02E02E180917603853009F45EC00E94F9
:104AC000C6130E9458090E94E816A8E1CA2EA3E066
:104AD000DA2EB3E24B2EB3E05B2ED201F601219128
:104AE00031918D919D9142E253E04E175F0709F499
:104AF0007FC02817390799F380913B0381FD69C175
:104B000000E0D201ED90FD902D01F6018190919091
:104B10006F018E149F0459F1712CAA24A394B12C17
:104B20008E249F24C4018A219B21892BB1F079A274
:104B30000AA30E9402099CA38BA32DA291E09701D6
:104B40002A213B21232B09F490E09EA349A15AA1DD
:104B50006BA17CA18DA10E9415227394AA0CBB1C91
:104B6000FFE07F12DFCFF6013297F182E0820F5F24
:104B7000053039F60E94F60841C0809176038430F2
:104B800021F11092470348E150E080E40FB6F89419
:104B9000A895409360000FBE8093600083B7817F2B
:104BA000846083BF83B7816083BF7894889583B71F
:104BB0008E7F83BF0FB6F894A895809160008861BE
:104BC00080936000109260000FBE8091750388236F
:104BD00009F470CF0E94E816E3E2F3E0819191912D
:104BE000892B09F0B3C293E0ED32F907B9F762CF30
:104BF0002817390709F080CF0E94A02286E0E4E35D
:104C0000F3E0DE01119601900D928A95E1F7109282
:104C100036031092370310923803109239038B81B8
:104C20009C81892B91F080913203909133030E94F3
:104C3000E708AC0190912F03992309F40AC18091F0
:104C40000C018417150608F412C18D819E81892BF1
:104C500009F447C080913003909131030E94E70826
:104C60009C0190912D03992309F48FC221353105C0
:104C7000C0F19F3F19F09F5F90932D030D8100239A
:104C800059F00E9465099FEF10160CF491E0899F7E
:104C9000802D1124809338030E81002359F00E9447
:104CA00065099FEF10160CF491E0899F802D112467
:104CB0008093390380913803882399F00091390358
:104CC000002379F00E94DC09882309F40CC1809349
:104CD0003803802F0E94DC09882309F407C18093E0
:104CE000390346E050E0BE016F5F7F4F84E393E0FD
:104CF0000E949429892B61F48091360390913703A7
:104D0000892B90913803892B90913903892B11F0CD
:104D10000E94A11086E0FE013196A4E3B3E0019069
:104D20000D928A95E1F70E945809082F809122037D
:104D3000081731F1009322030E94F60880913B038B
:104D400082FF1EC080FF1CC08EE693E00E94C90651
:104D500080913B0380FF14C01F920F9389E693E07C
:104D60009F938F930E94620780913B030F900F9057
:104D70000F900F9080FF04C087E693E00E94C90661
:104D800080917603843009F086CE83E08093E90039
:104D90008091E80082FF7FCE8091E80090E085FF5F
:104DA00006C00E94A907882309F4A3C091E080915E
:104DB000E8008B778093E800992309F46CCEE981B1
:104DC000E150E33108F0BEC0F0E0EF5DF54D0C942A
:104DD000EA2880E593E00E94C90673E2E72E73E0BB
:104DE000F72E712C612CEBE48E2EE3E09E2EF2E484
:104DF000AF2EF3E0BF2E7F926F929F928F920E9410
:104E0000620788E493E00E94C906D7018C9111964D
:104E10003C90B2E0EB0EF11C0E94E20C082F832DB7
:104E20000E94E20C0F938F93BF92AF920E94620791
:104E300080E493E00E94C906EFEF6E1A7E0A0FB677
:104E4000F894DEBF0FBECDBF55E06516710499F62C
:104E500057CE20910D018AE0289F9001112424173C
:104E6000350708F0F2CE9F5F90932F0302C09F3F5B
:104E7000D1F70B81002359F00E949E099FEF101675
:104E80000CF491E0899F802D1124809336030C81CE
:104E9000002359F00E949E099FEF10160CF491E038
:104EA000899F802D112480933703809136038823B6
:104EB00009F4CBCE00913703002309F4C6CE0E943B
:104EC000DC09882351F080933603802F0E94DC098F
:104ED000882331F080933703B8CE10933603F5CF93
:104EE00010933703B2CE10933803F3CE10933903E7
:104EF000F8CE40E2E42EF12CDE0111966D01809196
:104F0000E80085FD0AC08091E8008B778093E80077
:104F10000E94A907882399F349CF8091F100F601F7
:104F200081936F01F1E0EF1AF10849F73FCF1A8240
:104F30008CE08B831BC08A81823009F41DC128F468
:104F4000813061F08FEF898311C08330C1F08430EC
:104F5000C9F71B821C821D821E8208C00E94F608AF
:104F60000E94F0286B837C838D839E8340E250E017
:104F7000BE016F5F7F4F82E00E945C0D8CCD2B8164
:104F8000822F90E0FE013196225F8530910570F707
:104F9000DC01AA0FBB1FAD5DBC4F3C9111964C913B
:104FA00043833483019632962813EFCFDFCF8A8173
:104FB000823019F08530D1F2C5CF6B817C818D8133
:104FC0009E810E94F02888E290E00E946029CECF66
:104FD0004C816B818A810E94840E982789279827AB
:104FE0009E838D83C3CF2D813E8132272327322795
:104FF0004C816B818A810E94FD0DB8CF0E94230EE7
:10500000B5CF80E18A83B2CF1A838FE792CFEA804F
:10501000FB80FE24EF24FE24AE014F5F5F4F5A0158
:10502000CC80CA018C0D911D6C01C7018F579D4F1B
:10503000CA14DB0409F49ACFAFE7EA16A1E0FA0636
:1050400058F40E944229F5018483BFEFEB1AFB0A52
:10505000EFEFAE1ABE0AE9CFD50114961C92F5CF38
:10506000EA80FB80FE24EF24FE24AE014F5F5F4FF9
:105070005A01CC80CE0CDF2CD11CC7018F579D4F1D
:10508000CE14DF0409F472CF5FE7E51651E0F506B0
:1050900028F4D50114966C910E946029BFEFAB1AD9
:1050A000BB0AEFEFEE1AFE0AE8CF0E94ED0D5ECFCD
:1050B00084E0A8CFEA80FB80FE24EF24FE24AE012A
:1050C0004F5F5F4F5A01CC80CA018C0D911D6C015E
:1050D000C7018996CA14DB0409F448CFA8E5EA168B
:1050E000A2E0FA0658F40E944229F5018483BFEF3A
:1050F000EB1AFB0AEFEFAE1ABE0AEACFD5011496FF
:105100001C92F5CFEA80FB80FE24EF24FE24AE0142
:105110004F5F5F4F5A01CC80CE0CDF2CD11CC701F2
:105120008996EC14FD0409F421CF58E5E51652E008
:10513000F50628F4D50114966C910E946029BFEF02
:10514000AB1ABB0AEFEFEE1AFE0AE9CFF9BC09BDB4
:1051500009B400FEFDCF8091D8008F7D8093D800E8
:105160008091E00082608093E0008091E00081FD0A
:10517000FCCF0E94C6139ECC88E290E00E94422998
:105180001B821C821D828E83F1CE2B30310508F0EC
:1051900072CDA7CD991B79E004C0991F961708F02E
:1051A000961B881F7A95C9F78095089597FB072E5F
:1051B00016F4009407D077FD09D00E942E2907FC31
:1051C00005D03EF4909581959F4F08957095619517
:1051D0007F4F0895EE0FFF1F0590F491E02D099485
:1051E00069279627692778278727782708952F9298
:1051F0003F924F925F926F927F928F929F92AF9267
:10520000BF92CF92DF92EF92FF920F931F93CF93B3
:10521000DF93CDB7DEB7CA1BDB0B0FB6F894DEBF4A
:105220000FBECDBF09942A88398848885F846E8470
:105230007D848C849B84AA84B984C884DF80EE80BA
:10524000FD800C811B81AA81B981CE0FD11D0FB6C3
:10525000F894DEBF0FBECDBFED010895AA1BBB1BA6
:1052600051E107C0AA1FBB1FA617B70710F0A61B66
:10527000B70B881F991F5A95A9F780959095BC0187
:10528000CD010895F999FECF92BD81BDF89A992775
:1052900080B50895A8E1B0E042E050E00C94862982
:1052A000DC01A40FB51F4150504048F0CB01840FE2
:1052B000951F2E910E94612941505040D0F70895CA
:1052C000262FF999FECF92BD81BDF89A019700B4BF
:1052D000021639F01FBA20BD0FB6F894FA9AF99A5F
:1052E0000FBE08950396272F0E9461290E9460290E
:1052F000252F0E946129242F0C9461290196272FC4
:105300000E9461290C946029DC01CB01FC01F99910
:10531000FECF06C0F2BDE1BDF89A319600B40D9201
:1053200041505040B8F70895FB01DC0104C08D9155
:105330000190801921F441505040C8F7881B990B07
:105340000895F894FFCFD614FE14A716FE14A716DE
:1053500031155215A71650165D16B718A218C818A1
:105360002018691969199D1869196919F4186919BA
:1053700004194F19691969196919691923196919E2
:10538000691914196919DF186919691967196719F1
:105390006719671967196719671967196719611913
:1053A0006919B71896186919691969196919691974
:1053B00069196919691969196919611969196919E5
:1053C0009D186919651965196519651965196519B2
:1053D00065196519651961195C1C601C511C581C04
:1053E000641C681C6C1CFB1DFB1D351E351EE81E55
:1053F000021F5E1E5E1E071F741F851F851FA91CCE
:105400001E1DB11C7B1C7F1CB51C831CB91CC51C3C
:105410008F1C171D931CC91C971CCD1CF51C9B1CB5
:10542000D11CFC1CA11CD71CDF1C871CBD1C8B1CA9
:10543000C11CA51CDB1CEB1C051D151D751CAD1C22
:10544000251D97279B27D727E827F327FE27A22785
:10545000A227A227A227A22701280428072830284C
:08546000552858285A2882281B
:10546800E408A50D9E0D970D28081E0A1401013F9A
:105478003F3F006D6B5F64656C6179006D6B5F69C0
:105488006E74657276616C006D6B5F6D61785F73C9
:1054980070656564006D6B5F74696D655F746F5FDF
:1054A8006D6178006D6B5F776865656C5F6D6178BD
:1054B8005F7370656564006D6B5F776865656C5FC9
:1054C80074696D655F746F5F6D6178000A092D20DE
:1054D80056657273696F6E202D0A5649443A20301A
:1054E800783442343228224B424446616E73222972
:1054F800205049443A2030783630363528224B42FD
:1055080044363720486F74737761702229205645D6
:10551800523A203078303030310A4255494C443ABA
:105528002020284A756C2032352032303233290A3F
:105538004F5054494F4E533A204C554641204D4FF9
:105548005553454B45592045585452414B455920D0
:10555800434F4E534F4C4520434F4D4D414E4420F1
:105568004E4B524F204C544F20343039360A474363
:10557800433A20382E332E30204156522D4C494282
:10558800433A20322E302E30204156525F4152434A
:10559800483A20617672350A00818283E200E90088
:1055A800EA00B500B600B700CD008301CC008A013F
:1055B80092019401210223022402250226022702D5
:1055C8002A02B300B4006F0070009F01CB019F0254
:1055D800A002333231309467F7F6F5F4F1C69190B2
:1055E8009293959697664022B622A6018401CE0032
:0A55F800AC00560C6F0C8F0CA80CD1
:00000001FF
