:100000000C945E040C9496040C9496040C94960440
:100010000C9496040C9496040C9496040C949604F8
:100020000C9496040C9496040C94000F0C942C13CE
:100030000C940E200C9496040C9496040C94960444
:100040000C9496040C9496040C9496040C949604C8
:100050000C9496040C94D90F0C9496040C9496046A
:100060000C9496040C9496040C9496040C949604A8
:100070000C9496040C9496040C9496040C94960498
:100080000C9440260C9496040C9496040C949604BC
:100090000C9496040C9496040C9496040C94960478
:1000A0000C9496040C9496040C9496040501090291
:1000B000A10185020901A1000509190129081500FE
:1000C0002501950875018102050109300931158165
:1000D000257F95027508810609381581257F9501D0
:1000E00075088106050C0A38021581257F95017572
:1000F000088106C0C005010980A101850319012AF4
:10010000B700150126B700950175108100C0050CD8
:100110000901A101850419012AA002150126A002E6
:10012000950175108100C005010906A1018506052C
:100130000719E029E71500250195087501810205D9
:1001400007190029EF1500250195F07501810205B9
:10015000081901290595057501910295017503910D
:1001600001C00660FF0961A1010962150026FF00B8
:100170009520750881020963150026FF00952075FA
:10018000089102C005010906A101050719E029E748
:1001900015002501950875018102950175088101F9
:1001A0000507190029FF150026FF0095067508812F
:1001B000000508190129059505750191029501753C
:1001C000039101C0000102030405060708090A0B98
:1001D0000C0D0E0F101112131415161718191A1BE7
:1001E0001C1D1E1F202122232425262728292AFF03
:1001F0002B2CFF2D2E2F3031323334353637383912
:100200003A3B3CFFFFFF3DFFFFFF3E3F40414200C6
:10021000000F001E002D003C004B005A00690078C2
:100220000087009600A500B400CB00E00004101782
:100230001026103510441053106210711080108F6A
:10024000109E10AD10BC10CE10E01006201A202910
:10025000203820472056206520742083209220A13A
:1002600020B020C920E02009302230313040304F0A
:10027000305E306D307C308B309A30A930BD30D25A
:1002800030E03002401540274060409840AB40C30A
:1002900040D240E0408AF08CD28EB59199957E9CF8
:1002A00065A650B643C844D851E266E880EC9BF09E
:1002B000C7F3F085E186BA889C8A7E8D609344A15D
:1002C0002CC121DE2FEB48F064F482F6A0F7C4F8CD
:1002D000E97FDA7FB17F927F737F547F367F17008B
:1002E00008002700460065008400B700E779D7774B
:1002F000A4758672686D4C62324722252916410F1B
:100300005D0B7A08A207CD06E974EC71C76EA452A2
:100310004A1B6A148A0FB70DD40BF00001010101CA
:1003200001010101010202020202020202020303B0
:100330000303030303030404040404040405050580
:100340000505060606060607070707070808080842
:10035000090909090A0A0A0B0B0B0C0C0C0D0D0DEF
:100360000E0E0E0F0F0F1010111111121213131485
:1003700014151516161717181819191A1A1B1B1CFD
:100380001D1D1E1E1F202021222223242425262657
:10039000272829292A2B2C2D2D2E2F30313232338C
:1003A0003435363738393A3B3C3D3E3F4041424395
:1003B0004445464748494A4C4D4E4F505153545579
:1003C0005658595A5B5D5E5F616264656668696B29
:1003D0006C6D6F7072737577787A7B7D7E808283A7
:1003E0008587888A8C8E8F91939596989A9C9EA0EB
:1003F000A2A3A5A7A9ABADAFB1B3B5B7BABCBEC0F8
:10040000C2C4C6C9CBCDCFD1D4D6D8DBDDDFE2E4C0
:10041000E7E9EBEEF0F3F5F8FAFDFF00000000006D
:1004200000000000000000000000000000000000CC
:100430000000000000000000000000000000007E3E
:100440000F00D4FFFFFFC70000007800000000008D
:100450000000002A2B28000000000000000000001F
:1004600000000000000029000000002C1E342021A4
:100470002224342627252E362D3738271E1F2021EB
:1004800022232425263333362E37381F040506074A
:1004900008090A0B0C0D0E0F101112131415161764
:1004A00018191A1B1C1D2F3130232D350405060782
:1004B00008090A0B0C0D0E0F101112131415161744
:1004C00018191A1B1C1D2F3130354C0034445400B0
:1004D0002445550025355600263646002737470067
:1004E00028384800293949002A3A4A002B3B4B0159
:1004F000344454012445550125355601263646011C
:100500002737470128384800A4948400A595850022
:10051000A6968600A7978700A8988800A9998900C1
:10052000AA9A7900AB8A7A009B8B7B01A494840100
:10053000A5958501A6968601A7978701A8988801A9
:10054000A99989002C4D5D002D3D5E002E3E4E0088
:100550002F3F4F0030405000314151003242520095
:10056000334353012D3D5E012E3E4E012F3F4F017F
:100570003040500131415101AA9A79003C4C5C0055
:10058000AF9F8F00B0A09000B1A19100B2A28100F6
:10059000B39282013C4C5C012C4D5D01AC9C8C0102
:1005A000AD9D8D01AE9E8E01B1A1910132425201ED
:1005B00033435300AC9C8C00AD9D8D00AE9E8E00ED
:1005C000A3938301AF9F8F01B0A09001B2A28101DC
:1005D000B3928201A39383167C1E001F002000218A
:1005E000002200230024002500260027002D002ED5
:1005F000002A004A002B0014001A000800150017FA
:10060000001C0018000C00120013002F00300031F5
:10061000004B00390004001600070009000A000B17
:10062000000D000E000F0033003400280000004EC3
:1006300000E10000001D001B00060019000500116C
:10064000001000360037003800E50052004D00E091
:1006500000E300E2000000000000002C00000000A9
:100660000000002152E400500051004F00167C3A77
:10067000003B003C003D003E003F00400041004286
:10068000004300440045004C004A000100027E0384
:100690007E007E017E067E077E087E097E01004682
:1006A0000047004800007C4B0039000100010001B8
:1006B0000001000A7E0B7E0C7E0D7E010001000110
:1006C00000010000004E00E10000000100010001F7
:1006D0000001000100137001000100010001000190
:1006E00000A900A8000100010001000000000000B6
:1006F00000010000000000000001000100AC00AAA1
:1007000000AB000100010001000100010001000137
:1007100000010001000100010001000100010001D1
:1007200000010001000100010001000100010001C1
:1007300000010001000100010001000100010001B1
:1007400000010001000100010001000100010001A1
:100750000001000100010001000000010001000093
:100760000001000100010001000100010001000181
:100770000001000100010001000100010001000171
:100780000000000000000001000000000000000167
:100790000001000100010001000100010001000151
:1007A0000001000100010001000100010001000141
:1007B0000001000100010001000100010001000131
:1007C0000001000100010001000100010001000121
:1007D0000001000100010001000100010001000111
:1007E0000001000100010001000100010001000002
:1007F00000010001000000010001000100010001F2
:1008000000010001000100010001000100010001E0
:1008100000010001000100000000000000010000D4
:1008200000000000000100010001000100010009BA
:10083000025B00030100A0FA0904000001030101AA
:100840000009211101000122400007058103080071
:100850000109040100020300000009211101000147
:100860002222000705820320000107050303200060
:100870000109040200010300000009211101000127
:1008800022B60007058403200001120100020000C7
:1008900000084B5408000100010200011003500041
:1008A0006F0072007400690063006F0000000803AD
:1008B00054004B00430000000403090411241FBE30
:1008C000CFEFDAE0DEBFCDBF04B603FE18C08091E3
:1008D0005A0490915B04A0915C04B0915D04873050
:1008E000904BA740B04B59F410925A0410925B04FD
:1008F00010925C0410925D04E0E0F8E3099524E0B6
:10090000A0E9B1E001C01D92AA35B207E1F711E0FC
:10091000A0E0B1E0E2EEF9E502C005900D92A03949
:10092000B107D9F70E9435200C94202C0C940000BC
:10093000482F2091560490911D0457E0291302C0BE
:1009400080E0089530E0529FF001539FF00D112494
:10095000E25EFB4F8181681306C08081481303C0AB
:1009600085818111EECF2F5F3F4F2770E7CFE8EDF4
:10097000F0E080818E7F80831092E2001092DA0096
:100980001092E100A0EEB0E08C9181608C938081A8
:100990008F77808319BCA7EDB0E08C918E7F8C930C
:1009A00080818F7E80831092EE0308952091E40071
:1009B0003091E50095E6A9012091EC00822F81702D
:1009C00020FF06C08091E80080FF06C080E0089507
:1009D0002091E80022FD1AC080911304882389F039
:1009E000853089F08091EB0085FD0FC02091E400F7
:1009F0003091E50042175307F9F29150E1F684E097
:100A0000089582E0089583E0089581E0089580913B
:100A1000150487FF13C08091E80082FF06C0809113
:100A2000E8008B778093E80004C080911304811163
:100A3000F2CF0895809113048823D9F38091E800C0
:100A400080FFF8CF8091E8008E77ECCF982F9093BD
:100A5000E900242F762F50E0891731F07091EC00D7
:100A60002091ED005091F00021FD07C09F5F97306D
:100A700071F78093E90081E008953091EB003E7FAB
:100A80003093EB003091ED003D7F3093ED003091DD
:100A9000EB0031603093EB007093EC002093ED009D
:100AA0005093F0002091EE0027FDE0CF80E0089504
:100AB000B0E0A0E0EEE5F5E00C94AB2AC8EDD0E0A4
:100AC00088818F7E8883E7EDF0E08081816080837C
:100AD00084E082BF81E08093EE0388818E7F8883EB
:100AE00002EE10E0F80110821092DA0081EEC82EBA
:100AF000D12CF601108288818F7788838881806865
:100B0000888388818F7D888319BC1092130410928A
:100B10001404109212041092110490EEE92EF12C9C
:100B2000F70180818B7F808388818160888342E0A8
:100B300060E080E00E942605F60180818E7F808340
:100B4000F801808181608083808188608083F701E3
:100B500080818E7F8083888180618883CDB7DEB776
:100B6000E8E00C94C72AFC0180911B0490911C04BE
:100B700086179707A0F06115710529F49091E80098
:100B80009E779093E80090E06115710551F4911102
:100B900008C08091E80082FF34C080E00895BC0165
:100BA000F2CF809113048823C1F18530C1F1809187
:100BB000E80083FD30C08091E80082FDEACF80919B
:100BC000E80080FFE1CF8091F3002091F200382F00
:100BD0006115710519F02830310558F091E0283081
:100BE000310509F090E02091E8002E772093E8008D
:100BF000CBCF81918093F100615071092F5F3F4FFE
:100C0000E7CF80911304882341F0853041F0809133
:100C1000E80083FFBECF81E0089582E0089583E07D
:100C200008958091F0030895209132012223C9F0A4
:100C30002091EC0327FF15C0E62FE695E695E69593
:100C4000EE31D8F4E80FF92FF11D677021E030E0A4
:100C500001C0220F6A95EAF720958281282322831A
:100C60000895FC01329608962191621303C0DF01BA
:100C700011971C92E817F907B9F7089520913201EE
:100C80002223C1F02091EC0327FF14C0E62FE69544
:100C9000E695E695EE31F8F4E80FF92FF11D67704F
:100CA00021E030E001C0220F6A95EAF78281822BB1
:100CB00082830895FC0132962FEF30E04191641752
:100CC00051F02F3F19F4411101C0232F3F5F3630FF
:100CD000A9F72F3F09F40895820F911D27FD9A95DA
:100CE000FC0162830895A3E0B0E0E9E7F6E00C942C
:100CF000B12A2091E5033091E60328173907A1F0C6
:100D00009093E6038093E503E091E303F091E4031D
:100D1000309751F024E029839B838A830680F781F2
:100D2000E02DCE01019609952396E2E00C94CD2AA0
:100D3000A3E0B0E0EEE9F6E00C94B12A2091E103E3
:100D40003091E20328173907A1F09093E2038093D2
:100D5000E103E091E303F091E403309751F023E0E5
:100D600029839B838A830680F781E02DCE0101963B
:100D700009952396E2E00C94CD2AE091E303F091EB
:100D8000E403309729F00190F081E02D0995089552
:100D900080E008958091D40380FF0CC06091310100
:100DA00070E075956795759567956115710549F1C1
:100DB000862F089581FF06C06091310170E075951E
:100DC0006795F3CF6091310182FD0BC09091D30301
:100DD0009923A1F06091300180913101961738F08C
:100DE000682F70E06038710500F38FE70895899FE0
:100DF000C001112470E00E94D82AF4CF61E070E0B5
:100E0000D7CF81E008958091D40380FF0DC0609119
:100E10002F0170E0660F771F6038710570F561155E
:100E2000710569F1862F089581FF07C060912F0138
:100E300084E0689FB0011124EFCF82FF04C060916D
:100E40002F0188E0F6CF8091D203882399F020917A
:100E50002E0160912F018217A0F7869FC0011124F7
:100E600033E0880F991F3A95E1F7622F70E00E94F6
:100E7000D82AD2CF68E070E0D5CF8FE7089581E01F
:100E8000089580E00895F894E82FE295EF70F0E07F
:100E900031A1282F2F7081E090E001C0880F2A95A2
:100EA000EAF7982F9095932391A392A1892B82A37F
:100EB000789408959091EC0392FF06C0282F287132
:100EC0002830F9F4877F846093FF06C0282F2871AB
:100ED0002831F1F4877E84612091ED0320FF06C064
:100EE000382F38713830D9F4877F816021FF06C0F0
:100EF000282F28712831D1F4877E816194FD877E67
:100F00000895282F24712430F9F68B7F8860DCCF78
:100F1000282F2471243101F78B7E8861DDCF382F93
:100F20003171313019F78E7F8860E0CF282F217121
:100F3000213121F78E7E8861E1CF82389105B9F1A8
:100F4000B0F48133910509F47DC048F489329105EC
:100F500009F46DC08A32910509F47BC00895853388
:100F6000910509F45FC08933910509F10895833E25
:100F70009105D9F138F4803E910529F1823E910521
:100F800079F10895863E9105D9F1873E910509F4DE
:100F90003EC0843E910541F52091ED0321FF24C020
:100FA0008091EC0384FD19C087EE90E008952091B4
:100FB000EC03237009F05AC02091ED0323FF14C005
:100FC00089E290E008952091EC0320FD38C0309133
:100FD000ED0330FF09C024FF43C090E080E0089596
:100FE0002091EC0322FDF7CF08952091EC0322FD20
:100FF0003AC03091ED0330FD39C024FFF5CFEDCF7D
:101000002091EC0323FFF0CF24FDE7CFCDCF20913B
:10101000EC0323FD2EC03091ED0331FFEECF84EEC3
:1010200090E008952091EC0325FFDECFC9CF2091F9
:10103000EC0325FD21C02091ED0323FFD5CF89E3EB
:1010400090E0D2CF2091EC0326FFCECF8AE290E051
:1010500008952091EC0326FFC7CF81E390E0089527
:1010600083EE90E0089582EE90E0089580EE90E0A7
:10107000089586EE90E0089585E390E008951F932B
:10108000CF93DF930E949D07EC01C11580E5D8073F
:10109000F0F5C11580E4D80708F09CC0C03ED1052A
:1010A00020F5CD3CD10508F082C0C83AD10578F4CE
:1010B000C53AD10508F073C0C130D10519F12097A8
:1010C00009F1C430D105F0F4D0E0C0E01BC0C33C4E
:1010D000D105D0F7C85AD0E0CC0FDD1FCA5CDE4F77
:1010E0000990D881C02DD4640DC0C11580E2D80705
:1010F00008F0D1C0C11581E0D80708F05AC0C83E39
:10110000D10510F7CE01DF91CF911F910895C03620
:1011100082E5D80718F5C03482E5D80708F06BC01F
:10112000C03282E5D80708F05FC0C11582E5D80754
:1011300008F497C02C2F2695269580E2289F9001D1
:1011400011248C2F8370C1E0D0E002C0CC0FDD1FD2
:101150008A95E2F7C22BD32BDD68D4CFC03A82E563
:10116000D80760F4C03882E5D80708F459C0CF71B9
:10117000D0E0DC2FCC27C46FD06AC4CFC03C82E55E
:10118000D80708F462C0C03E82E5D80708F09CCFBB
:10119000DC2FCC27CC27DF71C06FD06AB3CFC55A04
:1011A000D0E0CD5CDE4FC881D0E0D064ABCFD0655D
:1011B000A9CF8D2F0E945A07182FCE0199270E9480
:1011C0009D07C12FD0E0DC2FCC27CC27DF71C82BA7
:1011D000D92B98CFCE0199270E949D07CC27DF708D
:1011E000C82BD92BD06A8ECFCF71D0E0DC2FCC2783
:1011F000C16FD06A87CF2C2F26952695277080E265
:10120000289F900111248C2F8370C1E0D0E002C090
:10121000CC0FDD1F8A95E2F7C22BD32BDC6872CF8F
:101220002C2F26952695277080E2289F9001112467
:101230008C2F8370C1E0D0E002C0CC0FDD1F8A95F7
:10124000E2F7C22BD32BDA685DCF8C2F8F710E940F
:101250005A07C82FD0E0DC2FCC27CC27DF71D06213
:1012600051CF8C2F8F710E945A0755E0D695C795A4
:101270005A95E1F7CF70D0E0DC2FCC27282F30E053
:1012800084FF05C044E0220F331F4A95E1F7C22BCB
:10129000D32BD06937CF8D2F8F710E945A07182F0B
:1012A000CE0199270E949D07C12FD0E0DC2FCC27CB
:1012B000CC27DF71C82BD92BD2CF809590911C02FF
:1012C000982390931C0208958091560490911D04D8
:1012D000981301C008958F5F8770FACF292F95303A
:1012E00078F58F3068F590E03FE0239F800D911DE9
:1012F0001124682F677023E0969587952A95E1F76A
:10130000FC01EE0FFF1FE80FF91FEC52FE4F50E0FB
:1013100040E080E0219130E0062E02C0369527950E
:101320000A94E2F721703327042E01C0220F0A9499
:10133000EAF7822B4F5F5F4F4330510559F708950D
:1013400080E00895292F953098F58F3088F590E04A
:101350003FE0239F800D911D1124282F277041E02D
:1013600001C0440F2A95EAF723E0969587952A95C0
:10137000E1F7FC01EE0FFF1FE80FF91FEC52FE4FE3
:1013800030E020E070E05191DF011197CB01022E97
:1013900002C0969587950A94E2F78170819585271A
:1013A000842385278C932F5F3F4F2330310559F7D6
:1013B00008958093B90308959091B90321E030E036
:1013C000F90101C0EE0F8A95EAF7D90102C0AA0F10
:1013D000BB1F6A95E2F7EA2B01C0220F4A95EAF794
:1013E000892F8E23E81305C0292B822F0E94D9094B
:1013F000089520952923F9CF21E030E001C0220F84
:101400008A95EAF720958091B90382230E94D90931
:1014100008959091F901809589238093F901282FEF
:10142000277091F4282F082E000C330B9217130607
:1014300059F09091ED0392FF07C0859585958595AC
:101440000E94FC091092F901089521E030E001C0EA
:10145000220F8A95EAF78091B903822B0E94D9095D
:10146000089580931D020895AF92BF92CF92DF92AC
:10147000FF920F931F93CF93DF93362F472FE82FC1
:10148000F0E0E55EFC4F71110FC0E4918E2F2E2F1E
:101490006E2F722FDF91CF911F910F91FF90DF90F0
:1014A000CF90BF90AF900895C72FD0E02491F22E37
:1014B000022F10E056E0659FC0011124EFEFF0E02D
:1014C000BF010E948D2A832F90E0880F991F35E578
:1014D000369FD001379FB00D11248A1B9B0B982F8C
:1014E000990F980F6F01CC1ADD0AC09ED001C19EE2
:1014F000B00DD09EB00D11248B2F499FA001112457
:10150000452F55276F01C41AD50AC09EA001C19E60
:10151000500DD09E500D11245F01A91AB108AC9E48
:101520006001AD9ED00CBC9ED00C1124CD2CDD24CE
:10153000EC19FD09E09FE001E19FD00DF09FD00D77
:101540001124ED2F62307105A1F050F46115710581
:1015500009F49ECF6130710581F0EB2F852F98CF74
:101560006430710569F080F06630710509F490CF40
:10157000F4CFE22F2B2F8D2F8BCFE22F252F88CF6B
:10158000EB2F822F2D2F84CF2B2F8F2DE52F80CF68
:10159000853020F08FEFDA018C9308956F30D0F70B
:1015A000E62FF0E0BFE08B9FE00DF11D1124EC531E
:1015B000FE4FE491DA01EC930895A1E0B0E0E3EE90
:1015C000FAE00C94A92AF82E6B015A018EEFF81656
:1015D000F8F0FB01F082FA0110822196EAE00C9407
:1015E000C52A1F5F1F3021F40F5F0530B1F310E0F3
:1015F000E982AE014F5F5F4F612F802F0E94C80AC2
:1016000089818F11EECFF6010083F5011083E5CFBC
:1016100000E0EE24EA94EBCFFC01862F642F8530A6
:1016200010F080830895AF010E94C80A08950F93B7
:101630001F93CF93DF938B01EA01909113049430B1
:1016400061F58093E9008FEF9091E800815095FD5E
:1016500006C095ED9A95F1F700008111F5CF8091C4
:10166000E80085FF1AC00E94D604811111C0809144
:10167000E80085FD06C08091E8008E778093E80041
:10168000F2CFF80181918F018093F100219779F7D2
:101690008091E8008E778093E800DF91CF911F91D1
:1016A0000F91089543E050E0BC0184E00E94170BC5
:1016B000089546E050E0BC0184E00E94170B0895B5
:1016C000CF93DF93EC0180913201811111C048E08A
:1016D00050E0BE0181E00E94170B80E2FE01A1EF05
:1016E000B3E001900D928A95E1F7DF91CF910895D3
:1016F0008091EC0387FF05C040E284E050E0BE012A
:10170000EACF48E081E0FACF81E08093E00080E218
:101710008093D8001092C9008FE19EE40197F1F701
:1017200000C0000087E090EBDC0180935A049093A6
:101730005B04A0935C04B0935D0488E19CE00FB669
:10174000F894A895809360000FBE90936000FFCF3F
:10175000CF93DF93CDE9D2E060E0CE010E94992BD8
:101760002196C11584E0D807B9F7DF91CF9108958C
:101770001F93CF93DF93122F8430E8F46530D8F4B1
:101780004F30C8F4C42FD0E0CC0FDD1F9EE1699F1D
:10179000C00DD11D112496E9899FC00DD11D1124C2
:1017A000CB5BDF4F632FCE010E94992B612FCE01BF
:1017B00001960E94992BDF91CF911F910895AF92CE
:1017C000BF92CF92DF92EF92FF921F93CF93DF935E
:1017D00087EDC82E85E0D82ED0E07601C0E014C099
:1017E000F50125913491412F6C2F8D2F0E94B80B5C
:1017F00082E0A80EB11C1F5F1F3091F78EE1E80E4A
:10180000F11CCF5FC53019F0570110E0E9CFDF5F61
:1018100086E9C80ED11CD43001F7DF91CF911F911A
:10182000FF90EF90DF90CF90BF90AF900895CF934F
:10183000C82F6FEF811163E282E290E00E94992B42
:101840006FEFC11164E083E290E00E94992B6FEF8B
:10185000C11162E184E290E00E94992BCF9108953A
:1018600080E00E94170C60E085E290E00E94992BD6
:101870000E94DF0B0E94A80B81E00E94170C0895C4
:101880000F931F93CF93DF93843038F5653028F59D
:101890004F3018F5C42FD0E0CC0FDD1F2EE1629F32
:1018A000C00DD11D112436E9839FC00DD11D112417
:1018B000CB5BDF4FCE010E947B2B082F10E0102F57
:1018C0000027CE0101960E947B2B9801282BC9018D
:1018D000DF91CF911F910F91089590E080E0F8CFB4
:1018E000462F753040F46F3030F4843020F4672F89
:1018F0000E94400C089590E080E00895CF92DF921E
:10190000FF920F931F93CF93DF936C010091B90364
:1019100080911D02082BC3E0D0E010E0FC2EC8012E
:101920000C2E02C0959587950A94E2F780FD0CC0B5
:101930002197A0F7F12C8F2DDF91CF911F910F915F
:10194000FF90DF90CF900895B6018C2F0E94700C0D
:101950000E943F08019761F3EECFCF93DF93EC0134
:101960000E947E0CBE010E94700C0E943F08DF9115
:10197000CF910895FC0124812223C1F080819181BF
:101980000E94AD0C92959F70963091F058F4925F42
:101990009F70923058F4803F19F030F4883E30F454
:1019A00081E008959A5FF4CF843FD1F380E00895F9
:1019B000883EB0F3813FD1F7F3CF82E290E00E94FE
:1019C0007B2B833289F483E290E00E947B2B84306E
:1019D00059F484E290E00E947B2B91E0823109F07F
:1019E00090E0892F8170089580E0FCCF80911C02E7
:1019F00090911B02892B8093920190911A02992356
:101A0000A1F0892B80939201809132018823E1F12A
:101A10008091EC0387FF38C08EE1E4E9F1E090E0CB
:101A20008150A0F5911110921A0240E250E06AEF45
:101A300071E082E991E00E945E2B892B21F180E226
:101A4000E2E9F1E0AAEFB1E001900D928A95E1F7A9
:101A5000E091E303F091E4033097A9F08091320123
:101A6000882359F08091EC0387FF07C08091920191
:101A70008093930186E0809392010280F381E02DB0
:101A800082E991E00995089586E0C7CF219122234C
:101A900039F29F5FC5CF882321F00E945D090E9423
:101AA000F60C0895882339F090911C02982B90939E
:101AB0001C020E94F60C08959091ED0392FB2227E0
:101AC00020F9281779F080FB92F99093ED0360914B
:101AD000EC037091ED0384E090E00E94B72B82E06C
:101AE0000E94090A089590E080E00E94832B873EBF
:101AF0009E4F19F40E94DD0C089580E00895A4E043
:101B0000B0E0E5E8FDE00C94AE2AF62E042F122F8B
:101B10008334910574F5880F991F880F991FBC01B4
:101B200065537B4F44E050E0CE0101960E94552B57
:101B300089818370EA81282F30E040E9849FC001C9
:101B400011248D5D9D4FE80FF92FF11DB497F082A0
:101B5000EB81E80FF92FF11DB4970083EC81E80FBA
:101B6000F92FF11DB49710832D5B3C4F81E0F901F3
:101B700080832496E5E00C94CA2AFF920F931F936A
:101B8000CF93DF93182F062FF42ED0E0C0E02F2D37
:101B9000402F612FCE010E947F0D2196C334D105C5
:101BA000B1F7CDB7DEB7E5E00C94CA2ACF93C82FC2
:101BB000809111010E94340ACE3F31F4482F872FC3
:101BC0000E94BD0DCF910895282F462F672F8C2F8F
:101BD00090E00E947F0DF6CF67EE7EEF90E080E010
:101BE0000E94B72B60E082E090E00E94992B60E0B9
:101BF00083E090E00E94992B10921D0260E074E156
:101C000084E090E00E94B72B60E086E090E00E94C4
:101C1000992B6FEF87E090E00E94992B40E050E015
:101C2000BA0188E090E00E94AB2B60E08DE090E08C
:101C30000E94992B40E050E0BA0188E190E00E94B8
:101C4000AB2B60E087E190E00E94992B40E050E0F0
:101C5000BA018CE190E00E94AB2B70E060E080E282
:101C600090E00E94B72B40E050E0BA0188E190E09C
:101C70000E94AB2B80E00E94170C0E94300C40E0C9
:101C800050E0BA018FE090E00E94AB2B40E050E0C2
:101C9000BA0183E190E00E94AB2B08950F931F934C
:101CA000CF93DF93082F000FEB0114E21093B701DD
:101CB000E8EBF1E0DE018D91819381E0E83CF807EB
:101CC000D1F724E630E041E150E067EB71E0802F8E
:101CD0000E946C2A105F6096143B41F7DF91CF9110
:101CE0001F910F910895E7EBF1E06083418324E6B3
:101CF00030E042E050E0BF01880F0E946C2A089556
:101D0000EF92FF920F931F93CF93DF93E82E062F4E
:101D100010E00B5B1C4FF8018081882381F0F2E119
:101D20006F9FE0011124C95BDC4FF12C49916F2DAD
:101D30008E2D0E94730EF39482E1F812F7CFF80112
:101D40001082CDB7DEB7E6E00C94C92ACF93DF93BB
:101D5000C82F4BE06DEF0E94730E40E06AE08C2FBD
:101D60000E94730E8FE39CE90197F1F700C0000019
:101D700040E060E08C2F0E94730E40E061E08C2F09
:101D80000E94730E40E066E08C2F0E94730E40E0CC
:101D90006DEF8C2F0E94730ED0E040E06D2F8C2FE2
:101DA0000E94730EDF5FD231C1F740E06D2F8C2FA0
:101DB0000E94730EDF5FD432C1F740E06D2F8C2F8D
:101DC0000E94730EDF5FD43BC1F74BE06DEF8C2FA9
:101DD0000E94730E41E06AE08C2F0E94730E40E077
:101DE0006DEF8C2F0E94730EDF91CF9108954FE11C
:101DF00050E066E270E08FE091E00E94892B089548
:101E00001F920F920FB60F9211242F933F934F936F
:101E10005F936F937F938F939F93AF93BF93EF9352
:101E2000FF938091E10082FF09C08091E20082FF70
:101E300005C08091E1008B7F8093E1008091DA0002
:101E400080FF24C08091D80080FF20C08091DA00FC
:101E50008E7F8093DA008091D90080FF9DC080E161
:101E600089BD82E189BD09B400FEFDCF81E0809388
:101E700013048091EE03811109C00E94B7040E94EF
:101E800058058091E20084608093E2008091E10037
:101E900080FF17C08091E20080FF13C08091E200B4
:101EA0008E7F8093E2008091E20080618093E20067
:101EB0008091D80080628093D80019BC85E080931F
:101EC00013048091E10084FF2BC08091E20084FF25
:101ED00027C080E189BD82E189BD89B5982F9170C5
:101EE00080FFFBCF8091D8008F7D8093D8008091B8
:101EF000E1008F7E8093E1008091E2008F7E8093ED
:101F0000E2008091E20081608093E20080911404FD
:101F1000882309F447C084E080931304809113045C
:101F20008091E10083FF27C08091E20083FF23C0FE
:101F30008091E100877F8093E10082E08093130429
:101F4000109214048091E1008E7F8093E1008091D3
:101F5000E2008E7F8093E2008091E20080618093B6
:101F6000E20042E060E080E00E9426058091F000FF
:101F700088608093F000FF91EF91BF91AF919F91A6
:101F80008F917F916F915F914F913F912F910F9022
:101F90000FBE0F901F90189519BC10921304109249
:101FA000EE0374CF8091E30087FD93E090931304D8
:101FB000B5CF78941F921FB61F9211248F939F93D1
:101FC000AF93BF938091E8039091E903A091EA0356
:101FD000B091EB030196A11DB11D8093E80390938E
:101FE000E903A093EA03B093EB03BF91AF919F91F4
:101FF0008F911F901FBE1F9018959C014FB7F894AA
:102000008091E8039091E903A091EA03B091EB037A
:102010004FBF821B930B08952FB7F8948091E8036C
:102020009091E903A091EA03B091EB032FBF0895CB
:102030000E940C109C019091DB038091DC03982B93
:1020400021F03093D8032093D7039091DD03809142
:10205000DE03982B21F03093D6032093D503E09133
:10206000E303F091E403309749F082E08093D903D1
:102070000480F581E02D89ED93E009950895109293
:102080001C0280913201E4E9F1E0882329F180917A
:10209000EC0387FF21C08EE1DF011D928A95E9F7ED
:1020A00090E080E00E94980690E080E00E94730635
:1020B00010921B020E94F60C86E0E9EDF3E0DF01CE
:1020C0001D928A95E9F71092D2031092D3031092D1
:1020D000D4030E941810089586E0DECFAAE2B0E093
:1020E000E4E7F0E10C94B02A85E194E02091F1005E
:1020F000DC012D93CD01B4E08D319B07B9F78091C0
:102100001604833009F472C0B8F4813009F449C070
:10211000823009F4B3C08091E80083FF8BC28091C4
:102120001504909116049A3008F084C2E92FF0E06B
:10213000EE5DF34D0C94EC2A8A3009F48EC08B309E
:1021400009F471C0893039F780911504813219F78B
:102150008091190490911A04009711F00297D9F612
:102160008091E800877F8093E8008091E80082FFFB
:1021700038C09091F3008091F200029731F4809181
:10218000F100813011F0863021F48091F1008093CC
:10219000F0038091E8008B778093E8000E940705A8
:1021A000BACF80911504813A09F0B5CF8091E8004B
:1021B000877F8093E8008091190490911A04892BFD
:1021C00061F460E281EF93E070E00E94B3058091DA
:1021D000E8008B778093E8009ECF60E090E080E09D
:1021E000F3CF809113048111C0CF95CF8091150456
:1021F000813A09F090CF8091190490911A04892BAB
:1022000009F089CF8091E800877F8093E800809172
:10221000E80080FFFCCF809132018093F100809133
:10222000E8008E77B9CF80911504813209F073CF21
:102230008091190490911A04892B09F06CCF809138
:10224000E800877F8093E8000E94070580911704CB
:10225000809332010E943F105ECF8091150481323D
:1022600009F059CF8091E800877F8093E8000E94B1
:102270000705809118048093EF034DCF80911504DA
:10228000813A09F048CF8091E800877F8093E80089
:102290008091E80080FFFCCF8091EF03BECF8038B3
:1022A00099F0823809F0C6C1809119048F70873087
:1022B00008F0C0C18093E9008091EB0085FB88277E
:1022C00080F91092E90006C08091110490911204E7
:1022D000911182609091E800977F9093E80080933D
:1022E000F1001092F1008091E8008E779FC1882361
:1022F00009F48DC1823009F09DC1809117048111CC
:1023000090C1809119048F702FEF280F263008F0AC
:1023100091C18093E9002091EB0020FF82C19330AE
:1023200031F48091EB0080628093EB007AC1909150
:10233000EB0090619093EB0021E030E001C0220FB0
:102340008A95EAF72093EA001092EA008091EB0068
:102350008860EACF81116EC1109117041F778091B8
:10236000E3008078812B8093E3008091E800877FF1
:102370008093E8000E9407058091E80080FFFCCF71
:102380008091E30080688093E30082E0111183E094
:10239000809313044FC18058823008F04BC12091C4
:1023A0001704309118042C3DE3E03E07A1F583E0CB
:1023B0008A838AE289834FB7F894DE01139620E07E
:1023C0003EE051E2E32FF0E050935700E49120FF0C
:1023D00003C0E295EF703F5FEF708E2F90E0EA3020
:1023E000C0F0C7968D939D932F5F243159F74FBF4F
:1023F0008091E800877F8093E8006AE270E0CE0178
:1024000001960E94B3058091E8008B778093E800E5
:1024100011C1C096E7CF8091190490911A04432FFF
:1024200055274330510509F44AC078F5413051052C
:1024300009F47AC08BE590E0EFE2F8E04230510514
:1024400009F0F8C02091E800277F2093E800209150
:102450001B0430911C048217930708F49C0140E090
:102460002115310509F065C0411163C08091E80074
:1024700082FDC9CF80911304882329F2853019F297
:102480008091E80083FFF2CFBECF4132510509F4BD
:102490003CC04232510509F0CDC08330910508F0AF
:1024A000C9C0FC01EE0FFF1FED57FE4F0190F081F8
:1024B000E02D80589E4FDC018C9190E01AC03327AC
:1024C00021303105D1F02115310561F0223031057F
:1024D00009F0B0C0ECE9F8E0E4918E2F90E0ECE96F
:1024E000F8E007C0E8EBF8E0E4918E2F90E0E8EB2D
:1024F000F8E0009709F49EC0A5CFEEEAF8E0E49179
:102500008E2F90E0EEEAF8E0F4CF8330910508F0EA
:1025100091C0880F991FFC01E757FE4F0190F08191
:10252000E02D89E090E08ECF82E190E0EAE8F8E0EB
:1025300089CF80911304882309F465CF853009F48D
:1025400062CF8091E80083FD5ECF8091E80082FD3C
:102550008DCF8091E80080FF83CF9091F300809130
:10256000F2002115310519F08830910550F041E055
:10257000089709F040E08091E8008E778093E800AA
:102580006FCF44914093F10031962150310901966B
:10259000E8CF803809F04EC08091E800877F8093B3
:1025A000E800809114048093F1009DCE811142C017
:1025B000109117041230F0F58091E800877F809326
:1025C000E800109314040E940705112311F084E021
:1025D00005C08091E30087FDFACF81E0809313046A
:1025E00042E061EC81E00E94260542E261EC84E079
:1025F0000E94260542E261EC82E00E94260542E24A
:1026000060EC83E00E9426058091130413C0809142
:102610001704813079F481E0933009F080E08093F1
:1026200012041092E9008091E800877F8093E8000F
:102630000E9407058091E80083FF0AC08091E800AE
:10264000877F8093E8008091EB0080628093EB00AD
:10265000AA96E3E00C94CC2A1F920F920FB60F9229
:1026600011242F933F934F935F936F937F938F9397
:102670009F93AF93BF93CF93DF93EF93FF93D0914B
:10268000E900DF708091EC00C82FC17080FDC0E8C8
:102690001092E9008091F000877F8093F000789499
:1026A0000E946E101092E9008091F0008860809383
:1026B000F000CD2BCF70C093E900FF91EF91DF9137
:1026C000CF91BF91AF919F918F917F916F915F91CA
:1026D0004F913F912F910F900FBE0F901F90189523
:1026E000EBEFE80FEF3308F06CC0F0E0E45DF34D82
:1026F0000C94EC2A0E94EC0D81E008958091E00397
:10270000807F8093E00381E08093DF0308950E943F
:102710003F102FEF84E39CE0215080409040E1F790
:1027200000C000000E94840B9091E003892F8E7FEF
:1027300090FF81608093E00380FDDECF817F8093F6
:10274000E003DACF9091E003892F8D7F91FF8260C3
:102750008093E00381FFD0CF8091E0038160EFCFD1
:102760009091E003892F8B7F92FF84608093E00338
:1027700082FDF2CFC1CF9091E003892F877F93FF35
:1027800088608093E00383FDE7CFB6CF0E943F10BF
:102790009091EC03892F97FB87F980588093EC0385
:1027A000ABCF81E00E94310A0E943F10A5CF895330
:1027B00091E001C0990F8A95EAF7892FF3CF8D51E7
:1027C000F7CF80E008950E943F102FEF84E39CE054
:1027D000215080409040E1F700C0000088E19CE07B
:1027E0000FB6F894A895809360000FBE9093600098
:1027F000FFCF662309F45DC08D3C41F40E940307BE
:1028000081958093DC030E94181008958E3C19F482
:102810000E940307F6CF8F3C31F40E940307819595
:102820008093DB03F0CF803D19F40E940307F8CFBB
:10283000893D29F40E94CA068093DD03E4CF8A3DD6
:1028400021F40E94CA068195F7CF8B3D31F40E9496
:10285000CA0681958093DE03D6CF8C3D19F40E9481
:10286000CA06F8CF9FE2980F983070F4815D990BFB
:1028700021E030E001C0220F8A95EAF78091DA0367
:10288000822B8093DA03BFCF8D3D31F48091D40346
:1028900081608093D403B7CF8E3D21F48091D4031F
:1028A0008260F7CF8F3D09F0AECF8091D403846072
:1028B000F0CF4091DB038D3C59F48091DC0387FF1E
:1028C0000DC01092DC0341110BC01092D20308C05E
:1028D0008E3C81F48091DC0318169CF3442381F034
:1028E0008091DD039091DE03892B09F08CCF10924B
:1028F000D30389CF8F3C49F447FFF0CF1092DB031D
:102900008091DC038111ECCFE0CF803D19F41416E7
:10291000ACF3E4CF9091DD03893D29F41916F4F668
:102920001092DD03DBCF8A3D19F497FFD7CFF8CFA4
:102930009091DE038B3D29F497FFD0CF1092DE03F8
:10294000CDCF8C3D19F41916CCF3C8CF9FE2980F68
:10295000983090F4815D990B21E030E0B90102C01C
:10296000660F771F8A95E2F7CB0180959091DA0385
:1029700089238093DA03B2CF8D3D31F48091D40363
:102980008E7F8093D403AACF8E3D21F48091D4030F
:102990008D7FF7CF8F3D09F0A1CF8091D4038B7F3E
:1029A000F0CF882399F19CEF980F913A40F4682F6B
:1029B00082E991E00E9414060E94F60C089590E2CC
:1029C000980F983050F4877091E001C0990F8A9564
:1029D000EAF7892F0E945D09EFCF9BE5980F9330AE
:1029E00028F490E080E00E949806089598E5980FFA
:1029F0009B3128F490E080E00E947306089593E3F1
:102A0000980F933118F460E00E94F9130895CF9362
:102A1000C82F882309F467C08CEF8C0F813A08F027
:102A2000EBC08091DF038130C9F1882369F18230E6
:102A300009F44FC01092DF0380913201882309F41A
:102A4000C8C08091EC0387FFC4C0EC2FE695E695E3
:102A5000E695F0E0EE56FE4F828190E04C2F4770F5
:102A600021E030E002C0220F331F4A95E2F78223B3
:102A70009323892B09F4B8C06C2F82E991E00E945E
:102A800014060E94F60CB0C080911C028232A1F69E
:102A90008C2F0E947013811126C0CECF80911C0212
:102AA0008232B1F3C43171F038F4CB3049F0C03127
:102AB00061F080E08170EFCFC93221F0C833C9F7EF
:102AC00081E0F8CF1092DF03F4CF82E08093DF0340
:102AD000F7CFC93209F43FC0E8F4C431E1F128F47A
:102AE000C73009F45BC0CF91089582EE8C0F8A3015
:102AF000D0F7CD51C093D301C33009F446C0B0F52F
:102B0000C13009F43FC08EE091E0C230B1F11092C3
:102B1000D301E9CFC03509F454C0B8F48AE0CF340A
:102B200011F7E091D101F091D2013097E1F22081CB
:102B3000082E000C990B820F911D8F3F910509F013
:102B40000CF443C08FEF8083CECFC135E1F181E03B
:102B5000C23539F3C8CF8091D301882321F2109276
:102B6000D3011092D2011092D101BDCFC53099F09E
:102B700078F080E391E0C63051F69093D2018093D3
:102B8000D101B1CF8DE091E0F8CF8FE291E0F5CFA8
:102B90008EE291E0F2CF81E391E0EFCF81E080938C
:102BA0000D0184E180930E018AE080932F018EE174
:102BB00080932E0188E08093310188E28093300178
:102BC00092CF86EFAECF8FEFACCF97FFBCCF108206
:102BD0008ACFE4E9F1E08AE991E02191C21709F492
:102BE0004BCF8E179F07C9F76C2F82E991E00E94A7
:102BF0003E060E94F60C77CF80E28C0F883068F496
:102C0000C77021E030E001C0220FCA95EAF7809139
:102C10001C02822B80931C02ECCFEBE5EC0FE3301F
:102C200040F4F0E0ED5CFE4F808190E00E94980659
:102C30005ACFE8E5EC0FEB3150F4F0E0EE0FFF1F58
:102C4000EA5CFE4F808191810E9473064CCF83E342
:102C50008C0F833108F047CF61E08C2F0E94F9136D
:102C600042CF1F93CF93DF93182FD0E0C0E089337A
:102C700011F4C0E5D0E0812F0E940715209739F4A8
:102C8000812F0E94D114DF91CF911F9108958FE978
:102C90009FE00197F1F700C000002197EFCF0F935D
:102CA0001F93CF93DF93C62FD42F022FFC01858172
:102CB0008823A9F0609359040E940C109093580443
:102CC00080935704C77081E001C0880FCA95EAF766
:102CD0000E94520DDF91CF911F910F910895809125
:102CE0005904681332C080915704909158040E948F
:102CF000FD0F883C910548F510E21D0FCD17B9F086
:102D000080E28C0F883040F4C77081E001C0880FEA
:102D1000CA95EAF70E944B0D183048F481E09D2FC8
:102D2000977001C0880F9A95EAF70E94520D802F84
:102D30000E943116183070F6D77081E001C0880FFC
:102D4000DA95EAF70E944B0DC5CFC77081E001C04C
:102D5000880FCA95EAF7F6CFA8E0B0E0E2EBF6E11B
:102D60000C94A32A8C01DC0114968C91882309F41D
:102D7000CBC086E0F801DE01119601900D928A9594
:102D8000E1F7F801258189819A81222309F472C033
:102D90000E947E0CF82E682F89819A810E94A209D8
:102DA00069817A818F2D0E94700C7C01D801159663
:102DB0008C911597882309F455C1C701975780381E
:102DC000910508F03AC1BFE0BE1508F48DC08FEF41
:102DD00093E00E947B2B811187C06DE9A62E62E0F3
:102DE000B62EE1104BC0FE01339686E0DF011D9246
:102DF0008A95E9F75AE0452E7501BFEFEB1AFB0AF9
:102E0000C5010E947B2B89831A82882309F46CC038
:102E1000813009F07DC06501E2E0CE0ED11CC70112
:102E20000E947B2B8A83882309F45EC09FEF980F52
:102E3000933090F5F3E0AF0EB11CC6010E947B2BDE
:102E40008B83882309F450C01C82DE0111967D011A
:102E5000F7012081222381F2213009F099C091816C
:102E60008281913009F056C0F2E0EF0EF11C0E9411
:102E7000311657C00E946E09F82E92CFA114E4E0DB
:102E8000BE0691F1C5010E947B2B811101C0EA941D
:102E9000FFEFAF1ABF0AA5CF56018430B1F642E06A
:102EA000E42EF12C56012FEFA21AB20AC6010E949D
:102EB0007B2BE1E0F0E0EC0FFD1FEE0DFF1D8083AA
:102EC000882391F08C3741F4E2E0F0E0EC0FFD1F35
:102ED000EE0DFF1D1082B9CF3FEFE31AF30A650133
:102EE00087E0E816F104F1F68091F901877061F04E
:102EF000D80115968C91882339F08091ED0382FFDB
:102F000003C082E00E94090A2896E0E10C94BF2ADF
:102F100057019BCF923049F422E0E20EF11C0E944F
:102F20000715EFEFEE1AFE0A93CF933031F432E03B
:102F3000E30EF11C0E94D114F4CF943021F08FEFF6
:102F4000E81AF80AEECF92E0E90EF11C30E020E03A
:102F5000B7016F5F7F4FD70111964C918053990B4A
:102F60008A30910550F021503109D8F2EFE9FFE0A5
:102F70003197F1F700C00000F6CF429EF001439E6A
:102F8000F00D11249C012E0F3F1F842F7B01E0CFF9
:102F9000E22FF0E0E55BFB4F5490822F86958695FB
:102FA000869590E0FC01E55CFB4F64902770712CE6
:102FB000022E02C0759467940A94E2F731E063220E
:102FC0007724FC01E55DFB4F8490912C022E02C01A
:102FD000959487940A94E2F7A1E08A229924FC014F
:102FE000E55EFB4FC490D12C02C0D594C7942A95BE
:102FF000E2F7B1E0CB22DD246114710419F081EE17
:103000000E9407158114910419F086EE0E9407159D
:10301000852D0E9431168114910419F086EE0E94CC
:10302000D1146114710419F081EE0E94D114C114FD
:10303000D10409F476CF8CE21ACFAE014F5F5F4F17
:103040006C9111968C910E94C80AE981F0E0E559D3
:10305000FC4F10821092CB011092CC011092CD0146
:103060001092CE01F701FE57EE30F10508F0E0C0F6
:10307000E559F34DD80115968C910C94EC2A8823D0
:1030800071F08091110190E008968F3F910519F041
:1030900014F08FEF90E0809311010E94F70EF80179
:1030A0008581882309F404C410925904C7019057FC
:1030B000839708F0E6C384E090E00E94832B90930E
:1030C000ED038093EC03F701E150F047E232F105A4
:1030D00008F0D7C0E758F34D0C94EC2A8823F9F296
:1030E000809111018850990B97FFD5CF80E0D3CF05
:1030F0008823A9F28091120190E001968B3091050E
:1031000014F08AE090E080931201C7CF882339F24F
:10311000809112018150990B97FFF0CF90E080E0F1
:10312000EDCF882309F4BBCF8091130190E0019685
:103130008430910514F083E090E080931301ADCFCB
:10314000882309F4ACCF809113018150990B97FF2C
:10315000EFCF90E080E0ECCF882309F4A0CF8091FE
:10316000140190E008968F3F910519F014F08FEF4D
:1031700090E08093140191CF882309F490CF80913F
:1031800014018850990B97FFF4CF80E0F2CF882389
:1031900009F485CF8091150190E008968F3F910545
:1031A00019F014F08FEF90E08093150176CF88230B
:1031B00009F475CF809115018850990B97FFF4CFD2
:1031C00080E0F2CF882309F46ACF8091160190E065
:1031D00008968F3F910519F014F08FEF90E08093DF
:1031E00016015BCF882309F45ACF809116018850CD
:1031F000990B97FFF4CF80E0F2CF882309F44FCFEB
:103200008091170190E008968F3F910519F014F016
:103210008FEF90E08093170140CF882309F43FCFD0
:10322000809117018850990B97FFF4CF80E0F2CF7F
:10323000F701E851FC47E730F10508F030CFE556DB
:10324000F34D0C94EC2A26E241EE61EEC8010E9497
:103250004F164ACE27E245EE65EEF8CF26E241EE64
:1032600060EEF4CF27E245EE64EEF0CF26E241EEC9
:1032700062EEECCF27E245EE66EEE8CF28E241E0D1
:10328000EBCF8091EC0381608093EC0395C080913B
:10329000ED0388608093ED038FC08091EC03826022
:1032A000F3CF8091EC038460EFCF8091EC038860D2
:1032B000EBCF8091ED038160EDCF8091ED038260D3
:1032C000E9CF8091EC038061DFCF8091EC038062D5
:1032D000DBCF8091EC038064D7CF0E943F108091B8
:1032E000EC038068D1CF8091EC038C60CDCF8091CE
:1032F000ED038360CFCF8091EC038E7FC5CF8091AB
:10330000ED03877FC7CF8091EC038D7FBDCF809188
:10331000EC038B7FB9CF8091EC03877FB5CF809191
:10332000ED038E7FB7CF8091ED038D7FB3CF80917A
:10333000EC038F7EA9CF8091EC038F7DA5CF809188
:10334000EC038F7BA1CF0E943F108091EC038F771D
:103350009BCF8091EC03837F97CF8091ED038C7F8F
:1033600099CF8091EC0382FB992790F921E0922775
:1033700090FB82F990FB83F987CF8091ED03982F22
:10338000909591708E7F892B90FB81F983CF9091DE
:10339000EC03892F8F7B96FF806476CF0E943F10CD
:1033A0009091EC03892F97FB87F980586DCF61E0EE
:1033B0008EE090E00E94992B6091EC037091ED03F8
:1033C00084E090E00E94B72B0E943F108DCD60E01A
:1033D000EFCF9091EC03892F8F7E94FF806154CFC3
:1033E0009091EC03892F8E7F90FF81604DCF90915B
:1033F000ED03892F877F93FF88604CCF8091CF01A9
:1034000069E2811165E382E991E00E9414064DC2F0
:1034100081E00E94250A03C081E00E94FC0943E08C
:1034200062E081E00E94DC095FCD82E0F2CF9BE5A3
:10343000E9169CE7F90661F1ACE5EA16ACE7FA0695
:10344000E9F0BAE5EB16BCE7FB0609F063C281E0E0
:103450001CC00E943F10EFEFF4E32CE0E150F0407D
:103460002040E1F700C000000E94840B6FEF7FEF67
:1034700090E080E00E94B72B0E94E3138091ED035F
:1034800082FB882780F991E089270E945C0D42C267
:1034900080E0FBCFC7010E946E09D82E4AC2EF2DF3
:1034A000EF70DE2E8F2D807F19F0D29490EFD9220D
:1034B000AA20B9F0DD2069F080E28E0D883010F08E
:1034C000811009C080911C02D82AD0921C020E944F
:1034D000F60C8E2D44C080911B02D82AD0921B027C
:1034E000F6CF8E2D0E94D114DD20D9F180E28E0D11
:1034F000883010F0811004C08D2D0E945D0906C037
:10350000D09480911B02D822D0921B020E94F60C0C
:1035100028C0FF2DFF70DF2E8F2D807F803219F0A5
:10352000D29480EFD822882051F021E0821609F44D
:103530006DC0AA2009F479C09920E9F1CACF809121
:10354000ED0382FD34C0AA2061F1DD2039F08091C5
:103550001C02D82AD0921C020E94F60C80E00E9425
:103560000715AB2DA850BB0B149710F40E94BD0695
:10357000CC2009F4C9CC8091F90180FDC5CCF801BB
:1035800015828595859585950E94250AC8010E941A
:10359000AC168091F9018595859585950E94FC0969
:1035A000B3CC80E00E94D114DD20D9F2A5CFAA20AF
:1035B00099F0911004C08D2D0E94520DD2CF31E0B0
:1035C0009312CFCF80911A029D2D9823D91649F2DC
:1035D000D82AD0921A02C5CF9110C3CF8D2D0E9448
:1035E0004B0D90911A028D2D892329F08D2D8095F8
:1035F000892380931A028091D0019D2D982309F48C
:10360000B0CFD094D822D092D001ABCFAA2029F04D
:1036100085E0891508F4A5CFCECF94E0991508F47C
:10362000A0CF8D2D0E944B0D9CCF9920D1F3A9E303
:103630008A1209C0BFEFE7EEF3E0B150E040F0407E
:10364000E1F700C000008E2D0E94D1148ACF8F2D8B
:1036500086958695837061F0813009F082CFC7012D
:103660009370A11002C080E090E00E94730679CFB1
:10367000C7019370A11002C080E090E00E949806FC
:1036800070CF6A2D8E2D0E94F9136BCF8F2D837012
:1036900091F5A11066CF4E2D429546954770440F87
:1036A000440F8E2D8F70042E01C0880F0A94EAF704
:1036B0002E2D2071E4FE07C02FE030E001C0220F64
:1036C0004A95EAF720953F2D36953695337032307E
:1036D00069F050F440911D02313029F0822B84238F
:1036E0000E94310A3ECF842B822BFACF282B809167
:1036F0001D028227F5CF8695AA2011F08F2D8170AB
:10370000882309F42ECF4E2D429546954770440FDD
:10371000440F8E2D8F70042E01C0880F0A94EAF793
:103720002E2D2071E4FE07C02FE030E001C0220FF3
:103730004A95EAF720953F2D36953695337032300D
:1037400069F050F44091B903313029F0822B842381
:103750000E94D90906CF842B822BFACF282B809187
:10376000B9038227F5CF2F2D2F70F22EAA2029F032
:10377000822F0E94250A8E2D1FCF8E2D0E944B0D69
:103780008F2D0E94FC09EDCE8E2D32EF8316B1F104
:10379000381570F090EF8916D1F0A1EF8A1691F0EC
:1037A000AA2009F45EC0911094CE8F2D8F712AC08B
:1037B000B3EF8B1651F1E4EF8E12F2CF8091ED034F
:1037C00082FD2FC08F2D8F71AA20D9F21BC0AA2095
:1037D00081F0F4E0F91508F4C4CE2F2D2F7181E0AB
:1037E00090E001C0880F2A95EAF79091B9038927E4
:1037F000AFCF25E0291508F4B4CEEFCF8F2D8F7110
:10380000A110BFCF0E94250AACCE80E0AA2009F407
:103810009FCF9F2D9F7181E001C0880F9A95EAF795
:1038200097CFAA2099F03F2D3F71F32E832F0E944E
:10383000250A8091ED0382FF07C0A8E0FA9EC0012F
:10384000112483608093F9018F2DDCCF81E00E94E9
:10385000090AB1E0B91508F084CE82E00E94090A95
:1038600080CE992059F0893309F0EDCEEFEFF7EED5
:1038700023E0E150F0402040E1F7E3CE8F2D8F713F
:1038800080CFF6E1EF16FCE7FF0629F580911C02D8
:103890008A7A91E009F490E09093CF0169E2811176
:1038A00065E382E991E00E943E060E94F60C1CCB83
:1038B00026E1E2162CE7F20609F4A0CD37E7E3167D
:1038C0003CE7F30609F4A8CD88E7E8168CE7F8068C
:1038D00009F582E0A2CD97E7E9169CE7F90609F41D
:1038E00097CDA8E7EA16ACE7FA0609F49ECDF3E017
:1038F000EF16FCE7FF0609F4B9CD08F098CDE11406
:103900003CE7F30609F4A5CD81E0E8168CE7F8065C
:1039100009F4B2CDF8018581E080F180882309F4B3
:10392000B9CDC7010E947E0CD82E682FC7010E9416
:10393000A209B7018D2D0E94700C0E943F087C01E6
:10394000882ED8011596AC90159716969C90929457
:103950003FE093228091F9018770F1F0CA2CAA20F0
:10396000E1F08F2D807F803451F080E28E0D883021
:1039700098F0911004C08F2D807E803269F0809184
:10398000ED0382FF09C082E00E94090A8091F901DB
:103990008770CC24C3948111C12CBF2CB2942FE02A
:1039A000B222BBE0BB1508F4DCCDEB2DF0E0EE5508
:1039B000F34D0C94EC2ACF93DF938091F801807F34
:1039C00009F04DC08091F701882309F448C0E091C7
:1039D000560450911D04C091F301D091F201609101
:1039E000F4017091F50147E05E17C9F18E2F90E068
:1039F000E49FF0011124E25EFB4F2481222391F128
:103A0000489FF001499FF00D1124DF01A25EBB4FDA
:103A100011962C9111972C1325C02C912D1322C097
:103A200015962C91159721111DC012962D913C9140
:103A3000261B370B283C3105A8F48091F8018F70C4
:103A400080618093F801EC5DFB4F80818F70806115
:103A5000808382EF91E00E94AC160E946409DF919E
:103A6000CF910895FC013196E770BECFA4E1B0E09C
:103A7000ECE3FDE10C94A72A8C0186E0F801DE015D
:103A80001F9601900D928A95E1F7F8018481E580F7
:103A90009091F601911125C0882319F1EE20D9F0FB
:103AA000C8010E94BA0CF82E8823A9F087E0F8011B
:103AB000A2EFB1E001900D928A95E1F78091F201B9
:103AC0009091F3010E94AD0C0E94DB1C8F2D649637
:103AD000ECE00C94C32AC8010E94AC16FF24F394B6
:103AE000F5CFF801D080C1808280938092EFA92E1B
:103AF00091E0B92EF090F7012091F4013091F50199
:103B0000A401421B530BFF2009F4D8C0483C5105C7
:103B100008F091C08823D1F29091F3018091F801CF
:103B2000282F207F09F055C0C91213C09091F201CF
:103B30009D110FC0E11047C08F7080618093F80124
:103B4000C5010E94AC168091F801F8018683F12C22
:103B5000BDCFE11038C06C2D8D2D0E9498046C2DC6
:103B60008D2D0E949804E82E8111F1CFDF86C88A3E
:103B70008F8598890E94AD0C292F22952F702430B3
:103B800058F49F70223088F0992399F0F8019681BB
:103B9000907F79F4FE2C9ACF2A5F2F70223068F044
:103BA000C8010E94AC16EF2CF5CF992311F08823A1
:103BB00089F3805E883070F3F3CF803F58F3815FE4
:103BC000833070F7E7CF8091F80181608093F8012E
:103BD000BECFC91207C09091F2019D1103C0EE2023
:103BE00009F48DC0C8010E94BA0C882309F473CF70
:103BF000EE2009F470CF8091F801803288F0209196
:103C0000F2013091F301398728879B868A8690914B
:103C1000F6019C871D868E87CE0108960E94AC1601
:103C200087E0F801A2EFB1E001900D928A95E1F7EB
:103C30000E94DB1C53CF9091F801292F207F51F473
:103C400082EF91E00E94AC1687E0F50111928A950F
:103C5000E9F77DCF882309F439CF8091F3018C11E6
:103C600010C08091F2018D110CC0E1100AC0968342
:103C7000C8010E94AC1687E0F50111928A95E9F718
:103C800025CFC8010E94BA0C882309F424CFEE2066
:103C900009F421CF8091F801803210F22091F201D5
:103CA0003091F3013A8329839C828B829091F601B3
:103CB0009D831E828F83CE010196B0CF483C510573
:103CC000D0F6882309F40ACFFE2CEE2009F403CFA6
:103CD0008091F3018C1120C08091F2018D111CC0E4
:103CE0008091F80180FD0FC0982F907F61F086834E
:103CF000903F31F0982F907F905F8F70892B868353
:103D0000C8010E94AC1687E0F801A2EFB1E0019073
:103D10000D928A95E1F7DACEC8010E94BA0C8111A2
:103D20007FCF8091F80181608093F801C8010E94E3
:103D3000AC16CCCEABE1B0E0E0EAFEE10C94B02AE8
:103D40004E8B5F8B688F798F8A8F9B8F911110922A
:103D50001B021D8A86E0FE017696DE011F96019009
:103D60000D928A95E1F79C8B87E0FE013F96DE017C
:103D7000189601900D928A95E1F7CE0108960E945F
:103D8000361D81112AC087E0FE013896DE011196AA
:103D900001900D928A95E1F78C858823F1F02091AE
:103DA0001D0430E0C901019687709927409156049F
:103DB00048171906E9F097E0929FD001939FB00D44
:103DC0001124A25EBB4FFE01319601900D929A958F
:103DD000E1F780931D040E94640917E08091560466
:103DE00090911D04891312C06B96E3E00C94CC2AC9
:103DF0000E943F1010921D041092560487E0E2EFDB
:103E0000F1E0DF011D928A95E9F7E7CF819FC001BC
:103E10001124825E9B4F0E94361D882329F38091D6
:103E2000560490E001968770992780935604D6CF68
:103E3000AAE0B0E0EEE1FFE10C94A52A8E010F5F4D
:103E40001F4F8AE0F80111928A95E9F79CE6E92E66
:103E500091E0F92E680121E7622E21E0722E88247C
:103E60008394912CF70181917F018F3F09F446C023
:103E7000F894E82FE295EF70F0E021A18F70A40193
:103E800002C0440F551F8A95E2F7CA01922F982B62
:103E900091A392A18095892382A3789400C0E1E741
:103EA000F1E021E030E0B12CA12C41914F3F09F429
:103EB00066C0A42FA295AF70B0E090968C9190E070
:103EC0004F7002C0959587954A95E2F780FD57C0DF
:103ED000C901A82AB92A220F331F51E0E038F5079B
:103EE00021F7F701319780818F3F11F00E9443073E
:103EF00080EA8A95F1F7F601B182A082F2E0CF0E56
:103F0000D11C6E147F0409F0ADCF4AE050E0B80137
:103F10008FEA93E00E945E2B892BA1F18AE0F801E1
:103F2000AFEAB3E001900D928A95E1F781E08093CA
:103F300022020E940C109093210280932002809113
:103F40002002909121020E94FD0F0397F8F04AE0B1
:103F500050E06FEA73E088EC93E00E945E2B10E083
:103F6000892B51F08AE0EFEAF3E0A8ECB3E001908E
:103F70000D928A95E1F711E01092220208C090E0BC
:103F800080E0A7CF809122028111D9CF10E08091EB
:103F90004303882329F063E272E084E70E944E0E17
:103FA0001092430380914403882329F063EB72E06D
:103FB00087E70E944E0E1092440360E084E70E945F
:103FC000800E61E087E70E94800E812F2A96EEE046
:103FD0000C94C12AA6E0B0E0E0EFFFE10C94AF2A18
:103FE0000E940C108C0180911E0290911F0280177C
:103FF000910781F019821A820E940C10682F498162
:104000005A81792F80E090E00E949A1E10931F023F
:1040100000931E022696E4E00C94CB2A1F921FB652
:104020001F9211248F939F93AF93BF938091E703C7
:10403000811113C08091E8039091E903A091EA03F4
:10404000B091EB034196A11DB11D8093E8039093BD
:10405000E903A093EA03B093EB03BF91AF919F9163
:104060008F911F901FBE1F901895CDB7DEB7A697F2
:104070000FB6F894DEBF0FBECDBF85B7806885BF91
:1040800085B7806885BF84B7877F84BF0FB6F894F3
:10409000A895809160008861809360001092600014
:1040A0000FBE80E890E00FB6F89480936100909383
:1040B00061000FBE81E497E090939101809390019D
:1040C0000E94B7040E9458058091E20084608093AA
:1040D000E2007894809113048823A1F01091E90004
:1040E0001F709091EC00892F817090FD80E8182B53
:1040F0001092E9008091E80083FD0E946E101F700D
:104100001093E90082E084BD93E095BD9AEF97BDDE
:1041100080936E000E94730D882309F422C14FE141
:1041200050E066E270E08FE091E00E946B2B0E940D
:10413000CC2984E70E94A60E87E70E94A60E0BEC0E
:1041400014E077ED472E75E0572EE2E17E2EF8E081
:10415000CF2ED12CEE24E394F12C6624639444E01A
:1041600050E0B801CE0101960E94552B4A8150E0E3
:10417000CA0184972B81622F6452770B4B012C81EB
:10418000A22FA452BB0B5D012981237030E0FC01FA
:1041900097FD3796AF0163E0559547956A95E1F72E
:1041A000729EF001739EF00D1124E95BFC4FE40F49
:1041B000F11DB6010E94D82AA70102C0440F551F65
:1041C0008A95E2F7CA019081892B8083F40197FCDC
:1041D000379693E0F595E7959A95E1F7729EC001C1
:1041E000739E900D1124895B9C4FE80FF92FF11DF0
:1041F000C401B6010E94D82AA70101C0440F8A95C4
:10420000EAF78081842B8083F501B7FC379683E041
:10421000F595E7958A95E1F7729EC001739E900D22
:104220001124895B9C4FE80FF92FF11DC501B601E0
:104230000E94D82AA70101C0440F8A95EAF780811D
:10424000842B80832B5B3C4FD9016C920C5F1F4FFA
:104250004016510609F083CF60E084E70E94800E8B
:1042600061E087E70E94800EEBE6F3E08FEF819339
:10427000B3E0EE3AFB07D9F78091AE0381110EC08F
:1042800081E08093AE038DE0809391009FB7F89416
:1042900023E020939900809398009FBF8091710044
:1042A0008260809371000E94DD0C811102C00E9427
:1042B000300C0CE611E0B1E7EB2EB1E0FB2EF8017B
:1042C00081918F018F3F11F00E944307E016F106A4
:1042D000B1F701E711E0A0E8EA2EA1E0FA2ED8013B
:1042E0008D918D018F3F11F00E944307E016F1067A
:1042F000B1F78AE0E8ECF3E0DF01282F1D922A9560
:10430000E9F7EFEAF3E0DF011D928A95E9F70E94F1
:10431000730D811102C00E94EC0D82E090E00E94BA
:104320007B2B8093E00384E090E00E94832B9093AA
:10433000ED038093EC030E94181FEFEBFDE531972E
:10434000F1F700C000000E94181F8091C80380FF91
:104350000BC06FEF7FEF90E080E00E94B72B0E94D0
:10436000840B0E94F70EE3CE83E090E00E947B2B4B
:104370000E94310A85E091E09093E4038093E30387
:10438000F8E14F2E512C7724739466246394809126
:10439000130400E112E1853009F49AC00E94181F4D
:1043A0007BEBA72E73E0B72EE8EC8E2EE3E09E2E7B
:1043B00045EC53E0D401F501219131918D919D910E
:1043C0004E175F0709F490C028173907A9F3312C5D
:1043D000D4010D911D914D01F501C190D1905F0166
:1043E000C016D10661F1212CEE24E394F12CC026F5
:1043F000D126C6018E219F21892BB9F029A23AA28C
:104400000E940C109CA38BA3F1E0FDA391E0980106
:104410002E213F21232B09F490E09EA349A15AA10C
:104420006BA17CA18DA10E949A1E2394EE0CFF1C0F
:104430002FE02212DECFF5013297118300833394EF
:1044400045E03412C5CF8FB7F8944091E8035091FE
:10445000E9036091EA037091EB038FBF4BC0809139
:104460001304843021F16092BA031092E703F0E460
:104470000FB6F894A895409260000FBEF0936000CC
:1044800083B7817F846083BF83B7816083BF789463
:10449000889583B78E7F83BF0FB6F894A8958091D7
:1044A0006000886180936000109260000FBE809170
:1044B0001204882369F00E94181FE8ECF3E0819150
:1044C0009191892B09F0B8C323E0E23DF207B9F7D7
:1044D00080911304853009F4C2CF0E943F100E94DE
:1044E000BD061092BA035ACF2817390709F06FCFCB
:1044F0000E94EA1F86E0E9EDF3E0DE0111960190EB
:104500000D928A95E1F71092DB031092DC03109272
:10451000DD031092DE038B819C81892B91F08091C9
:10452000D7039091D8030E94FD0FAC019091D20364
:10453000992309F4BAC080910E018417150608F476
:10454000C2C08D819E81892B09F44AC08091D50318
:104550009091D6030E94FD0F9C019091D303992363
:1045600009F489C321353105D8F19F3F19F09F5FC8
:104570009093D3031D81112359F00E94CA069FEF27
:1045800011160CF491E0899F802D11248093DD0396
:104590001E81112359F00E94CA069FEF11160CF4D8
:1045A00091E0899F802D11248093DE033091DD03FB
:1045B0003323B1F02091DE03222391F055EB350334
:1045C000C0011124992309F4BDC09093DD0365EB6C
:1045D000260390011124332309F4B7C03093DE037E
:1045E00046E050E0BE016F5F7F4F89ED93E00E948F
:1045F0005E2B892B61F48091DB039091DC03892B86
:104600009091DD03892B9091DE03892B11F00E949C
:10461000181086E0FE013196A9EDB3E001900D92ED
:104620008A95E1F70E94BD069091C503891769F04C
:104630008093C5038FB7F8944091E8035091E90344
:104640006091EA037091EB038FBF80911304843073
:1046500009F09DCE83E08093E9008091E80082FF1D
:1046600096CE8091E80090E085FF0CC00E94D604B1
:1046700040E2E42EF12C8E010F5F1F4F882309F4D6
:1046800071C091E08091E8008B778093E8009923D6
:1046900009F47DCE8981EFEFE80FE33108F07BC0AC
:1046A000F0E0E255F34D0C94EC2A20910D016AE004
:1046B000269F900111242417350708F042CF9F5FF1
:1046C0009093D20302C09F3FD1F71B81112359F071
:1046D0000E9403079FEF11160CF491E0899F802D33
:1046E00011248093DB031C81112359F00E940307DE
:1046F0009FEF11160CF491E0899F802D1124809377
:10470000DC033091DB03332309F41BCF2091DC035E
:10471000222309F416CF75EB3703C0011124992326
:1047200059F09093DB0345EB2403900111243323CC
:1047300031F03093DC0305CF7092DB03F4CF70923D
:10474000DC03FFCE7092DD0342CF7092DE0348CFD0
:104750008091F100D8018D938D01B1E0EB1AF10841
:1047600009F48FCF8091E80085FDF2CF8091E800B9
:104770008B778093E8000E94D604882399F381CF39
:104780001A828CE08B8324C08A81823009F46AC249
:1047900028F4813061F08FEF89831AC0833009F1EA
:1047A0008430C9F71B821C821D821E8211C02FB764
:1047B000F8946091E8037091E9038091EA03909185
:1047C000EB032FBF0E94F22A6B837C838D839E8331
:1047D00040E250E0BE016F5F7F4F82E00E94170B06
:1047E000D6CD2B81822F90E0FE013196225F85305D
:1047F000910570F7DC01AA0FBB1FA853BC4F3C9179
:1048000011964C9143833483019632962813EFCF4F
:10481000DFCF8A818230A1F0853009F0BCCF8B8157
:10482000811119C0909112019093C70381E09111F9
:1048300080E08093C6038091C60380931201C8CFA5
:104840006B817C818D819E810E94F22A85E290E0BD
:104850000E94992BBDCF80FFEECF8091C703EDCF93
:104860004C816B818A810E94400C98278927982768
:104870009E838D83ADCF2D813E8132272327322722
:104880004C816B818A810E94B80BA2CF0E94DF0B02
:104890009FCF9A8191119CCF883009F477C08930DD
:1048A00009F42AC1EB81E750E03108F091CFF0E044
:1048B000EF53F34D0C94EC2A91E08C81811101C0EF
:1048C00090E080910F0190FB85F980930F0180CFDC
:1048D0008C81809310017CCF8C818093110178CFE3
:1048E0008C81ABCF8C818093130172CF8C818093AC
:1048F00014018D81809315016BCF8C8180931601FB
:104900008D818093170164CF8C81809318018D81F4
:10491000809319015DCF4D816C818AE191E00E9405
:104920000C0B56CF8C8180931B018D8180931C01D1
:104930004FCF4D816C818DE191E0F1CF8C818093DF
:104940001E018D8180931F0143CF4D816C8180E2D8
:1049500091E0E5CF8C81809321018D8180932201AC
:1049600037CF4D816C8183E291E0D9CFFE01319642
:10497000A4E2B1E09E01255F3F4F938184818D9336
:104980009D933296E217F307C1F722CFEB81E150F6
:10499000E63108F01DCFF0E0EF52F34D0C94EC2A15
:1049A00080910F0181708C8313CF80910F018695C8
:1049B0008170F9CF80910F0182FB882780F9F3CFB6
:1049C00080910F0183FB882780F9EDCF80910F0143
:1049D00082958170E8CF80910F0185FB882780F94F
:1049E000E2CF80910F0186FB882780F9DCCF809190
:1049F0001001D9CF80911101D6CF80911201D3CF70
:104A000080911301D0CF809114018C838091150186
:104A10008D83DECE809116018C8380911701F8CFB3
:104A2000809118018C8380911901F2CFAE014B5F08
:104A30005F4FBE016C5F7F4F80911A010E94DD0ABB
:104A4000C7CE80911B018C8380911C01E1CFAE0108
:104A50004B5F5F4FBE016C5F7F4F80911D01EECFBA
:104A600080911E018C8380911F01D2CFAE014B5FDC
:104A70005F4FBE016C5F7F4F80912001DFCF80913F
:104A800021018C8380912201C3CFAE014B5F5F4F28
:104A9000BE016C5F7F4F80912301D0CF80912401B4
:104AA000909125019827892798279D838C83809151
:104AB0002601909127019827892798279F838E8325
:104AC0008091280190912901982789279827998713
:104AD000888780912A0190912B0198278927982710
:104AE0009B878A8780912C0190912D019827892797
:104AF00098279D878C876CCE0E94F70E69CE80E147
:104B00008A8366CE7A8283E63DCE0A811B81102796
:104B100001271027FE0131967F01CC80AF014C0D9B
:104B2000511D6A01C80183569D4FCE14DF0409F45C
:104B30004FCE033651E0150758F40E947B2BD70166
:104B400014968C930F5F1F4FFFEFEF1AFF0AEACF07
:104B5000F7011482F7CF0A811B8110270127102744
:104B6000AE014F5F5F4F6A01EC80E00EF12EF11C49
:104B7000C80183569D4FE016F10609F429CE03368D
:104B800051E0150728F4D60114966C910E94992BD8
:104B9000BFEFCB1ADB0A0F5F1F4FEACF0E94A80BB3
:104BA00017CE84E0ADCF0A811B8110270127102783
:104BB000FE0131967F01CC80AF014C0D511D6A0181
:104BC000C8018B5B9F4FCE14DF0409F401CE08357A
:104BD00052E0150758F40E947B2BD70114968C9352
:104BE0000F5F1F4FFFEFEF1AFF0AEACFF7011482A2
:104BF000F7CF0A811B81102701271027AE014F5FD5
:104C00005F4F6A01EC80E00EF12EF11CC8018B5B56
:104C10009F4F0E151F0509F4DBCD083552E015072F
:104C200028F4D60114966C910E94992BBFEFCB1AF1
:104C3000DB0A0F5F1F4FEACF09BD19BD09B400FEA3
:104C4000FDCF8091D8008F7D8093D8008091E000C7
:104C500082608093E0008091E00081FDFCCF0E94A3
:104C60003F1036CC85E290E00E947B2B1B821C8299
:104C70001D828E83ADCD2B30310508F078CCB0CCC1
:104C80001F920F920FB60F9211244F925F926F9264
:104C90007F928F929F92AF92BF92CF92DF92EF92CC
:104CA000FF920F931F932F933F934F935F936F93B5
:104CB0007F938F939F93AF93BF93EF93FF93CF9384
:104CC000DF930F92CDB7DEB78091B601843128F51E
:104CD0008F5F8093B6010F90DF91CF91FF91EF919D
:104CE000BF91AF919F918F917F916F915F914F9104
:104CF0003F912F911F910F91FF90EF90DF90CF90F8
:104D0000BF90AF909F908F907F906F905F904F90EB
:104D10000F900FBE0F901F9018958091B201909147
:104D2000B301A091B401B091B5010196A11DB11DCF
:104D30008093B2019093B301A093B401B093B501F5
:104D40004091CB015091CC016091CD017091CE0189
:104D50004F3F2FEF52076207720761F04F5F5F4FBF
:104D60006F4F7F4F4093CB015093CC016093CD01A7
:104D70007093CE011BE6E12E13E0F12EB701FB018B
:104D80002191BF012F3F31F0AF01415051092F5FF9
:104D9000FA012083F3E06E3A7F0789F7E091120170
:104DA000EF3F39F5F4E0B695A79597958795FA9575
:104DB000D1F783709927AA27BB2782309105A105D7
:104DC000B10581F083309105A105B10571F040E096
:104DD00060E00197A105B10551F46FEF80E00E94FA
:104DE000BD0D79CF4FEF60E0F9CF4FEF6FEF8FEF51
:104DF000F6CF2091BA03222321F020910F0125FD47
:104E00001FC0209110012223C9F060EB74E0269F9F
:104E1000A001279F500D1124052E000C660B770B67
:104E200021E08090CB019090CC01A090CD01B0907A
:104E3000CE01481559056A057B0518F020E001C030
:104E400021E0022F017020FDE0E010910401E093C9
:104E50000401E150EA3028F4F0E0E951F34D0C94FC
:104E6000EC2A40E060E080E00E94BD0D011133CFEC
:104E700080911A018F3F61F00E94BD0681FF08C03A
:104E8000609118017091190180911A010E94D60D4C
:104E90008091B903882309F41ECF90E09C0153E070
:104EA000359527955A95E1F720FF57C28091230148
:104EB00060912101709122018F3F09F40CCF0E9473
:104EC000D60D09CF609114017091150180911101E7
:104ED0000E94340A482F872FC7CF60911401709128
:104EE0001501809111010E94340A962E872E782E8A
:104EF0006091160170911701809111010E94340A8E
:104F0000662E572E482E7FE0C72E71E0D72E10E078
:104F1000AA24A394B12CF12CE12CAE014F5F5F4F7A
:104F20006E2D812F0E94C80A89818334A0F490E0FD
:104F3000F6014589568995010E2C02C0220F331FB8
:104F40000A94E2F724233523232B99F4272D492DA6
:104F5000682D0E947F0DFFEFEF1AFF0A2FE0E21687
:104F6000F104D9F61F5F32E0C30ED11C153099F65B
:104F70007DCF242D462D652DECCF8091160190918B
:104F80001401891B990B803891050CF441C09A9546
:104F900097FD03969595879595958795182F809100
:104FA000170190911501891B990B97FD0396959513
:104FB000879595958795F82EE09011015FE0A52ED5
:104FC00052E0B52ED12CC12CF50184913196E4919B
:104FD000E295EF7060911401E19F600D11247091D2
:104FE0001501EF9D700D11248E2D0E94340A462F5D
:104FF000282F672FC6010E947F0DFFEFCF1ADF0A0F
:1050000022E0A20EB11C33E4C316D104E9F62ECF80
:105010008138EFEF9E070CF0BBCF9395B9CFD090BE
:105020001401809116018D19990B97FD03969595A2
:10503000879595958795E82EC09015018091170169
:105040008C19990B97FD039695958795959587955E
:10505000F82E0E94452B63E470E00E94D82AB12C00
:10506000A12C4C019924143019F48A149B04C9F41E
:105070000E94452B83707D2C8E9D700C11240E9404
:10508000452B83707C2D8F9D700D1124672D809191
:1050900011010E94340A462F282F672FC5010E9454
:1050A0007F0D8FEFA81AB80AE3E4AE16B104D9F663
:1050B000DDCE2091130104C0880F991FAA1FBB1FCA
:1050C0002A95D2F7182FD12CC12C8FE3A82EB12C02
:1050D000F70121917F01F4E02F9F900111248AE2D2
:1050E000C816D10431F420918F03E4E02E9F900183
:1050F0001124B501621B730B203431050CF060E004
:10510000610F7FEF809111010E94340A462F282FF2
:10511000672FC6010E947F0DFFEFCF1ADF0A23E43D
:10512000C216D104A9F6A2CE2091130104C0880FA3
:10513000991FAA1FBB1F2A95D2F7182F7090110133
:10514000AFE0AA2EA2E0BA2ED12CC12CBFE38B2E49
:10515000912CF70181917F01F4E08F9FC001112410
:105160002AE2C216D10431F480918F0334E0839F88
:10517000C0011124B401681B790B803491050CF037
:1051800060E0F50184913196E491810F680F7FEF23
:10519000872D0E94340A462F282F672FC6010E94B0
:1051A0007F0DFFEFCF1ADF0A22E0A20EB11C33E41D
:1051B000C316D10471F65ACE2091130104C0880F92
:1051C000991FAA1FBB1F2A95D2F7182F70901101A3
:1051D000EFE0AE2EE2E0BE2ED12CC12CFFE38F2EED
:1051E000912CF70181917F01F4E08F9FC001112480
:1051F0002AE2C216D10431F480918F0334E0839FF8
:10520000C001112480349105FCF4F401E81BF90B72
:10521000CF01F501949131966491610F680F7FEF92
:10522000872D0E94340A462F282F672FC6010E941F
:105230007F0DFFEFCF1ADF0A22E0A20EB11C33E48C
:10524000C316D10471F612CE80E0E3CF0E94452B45
:1052500063E470E00E94D82AF12CE12C6C01DD247B
:10526000183019F4CE14DF0489F40E94452BB82EAF
:105270000E94452B6B2D782F809111010E94340ADA
:10528000462F282F672FC7010E947F0D8FEFE81A46
:10529000F80AE3E4EE16F10419F7E8CD20911301C2
:1052A00004C0880F991FAA1FBB1F2A95D2F7182F79
:1052B000B090110175E9C72E72E0D72EF12CE12CC8
:1052C000F601649131967491610F8B2D0E94340A1E
:1052D000462F282F672FC7010E947F0DFFEFEF1A7F
:1052E000FF0A22E0C20ED11C33E4E316F10441F7B9
:1052F000BDCD2091130104C0880F991FAA1FBB1FA9
:105300002A95D2F7182FB090110165E9C62E62E0F8
:10531000D62EF12CE12CF601649131967491610F37
:1053200067FD60956695669580911401680F769586
:1053300071588B2D0E94340A462F282F672FC701E2
:105340000E947F0DFFEFEF1AFF0A22E0C20ED11C70
:1053500033E4E316F104F9F689CD9C0135952795E0
:105360003595279520FF0AC08091200160911E018C
:1053700070911F018F3F09F4AECCA1CD9595879513
:1053800080FFA9CC80911D018F3F09F4A4CC6091CE
:105390001B0170911C0193CD1092B9008CE0809399
:1053A000B8000895B0E0A0E0E8EDF9E20C94A82A76
:1053B000B82EEB010E940C106C01EE24E394F12C4A
:1053C000C431D10560F025E0E22EF12CCF3FDC079F
:1053D00031F0CE0164E170E00E948D2A7B0184EA05
:1053E000A82E94E8992E1092BC00A092BC000E94B6
:1053F0000C108C018091BC0087FF0DC08091B9001A
:10540000887F8830F9F08091B900887F8031D1F0B1
:105410000FEF1FEF08C0C8010E94FD0FE816F90644
:1054200048F70EEF1FEFCF3FDC07E9F2C6010E94FD
:10543000FD0FC817D907B8F6C801CDB7DEB7EBE046
:105440000C94C42AB092BB009092BC000E940C1035
:105450008C018091BC0087FF0AC08091B900887FD1
:10546000883111F08034A1F610E000E0E5CFC801EA
:105470000E94FD0FE816F90660F7D3CF0F931F9334
:10548000CF93DF93EB018093BB0084E88093BC0053
:105490000E940C108C018091BC0087FF11C02091EC
:1054A000B900287F81E090E0283211F490E080E09C
:1054B000919581959109DF91CF911F910F91089559
:1054C000CF3FDC0741F3C8010E94FD0FC817D90781
:1054D00010F78EEF9FEFEFCFB0E0A0E0E2E7FAE247
:1054E0000C94AB2A6B018A017901B9010E94D2297F
:1054F000E6010C0D1D1DC017D10711F097FF08C064
:1055000024E92093BC00CDB7DEB7E8E00C94C72AAD
:10551000B70189910E943E2AEECFAA1BBB1B51E125
:1055200007C0AA1FBB1FA617B70710F0A61BB70B13
:10553000881F991F5A95A9F780959095BC01CD01B8
:1055400008952F923F924F925F926F927F928F9227
:105550009F92AF92BF92CF92DF92EF92FF920F9302
:105560001F93CF93DF93CDB7DEB7CA1BDB0B0FB60C
:10557000F894DEBF0FBECDBF09942A8839884888C9
:105580005F846E847D848C849B84AA84B984C8845F
:10559000DF80EE80FD800C811B81AA81B981CE0F56
:1055A000D11D0FB6F894DEBF0FBECDBFED0108953B
:1055B00097FB072E16F4009407D077FD09D00E94C0
:1055C0008D2A07FC05D03EF4909581959F4F089554
:1055D000709561957F4F0895EE0FFF1F0590F49130
:1055E000E02D099469279627692778278727782748
:1055F00008958F929F92AF92BF92CF92DF92EF92D7
:10560000FF92CF93DF93EC01688179818A819B813E
:10561000611571058105910521F464E279ED8BE551
:1056200097E02DE133EF41E050E00E94BD2B4901AE
:105630005A019B01AC01A7EAB1E40E94DC2B6B018B
:105640007C01ACEEB4EFA50194010E94EA2BDC01D1
:10565000CB018C0D9D1DAE1DBF1DB7FF03C0019773
:10566000A109B04888839983AA83BB839F77DF9180
:10567000CF91FF90EF90DF90CF90BF90AF909F9031
:105680008F9008950E94F92A089580E091E00E9489
:10569000F92A0895B0E0A0E0809300019093010101
:1056A000A0930201B09303010895FB01DC0102C045
:1056B00005900D9241505040D8F70895FB01DC0150
:1056C00004C08D910190801921F441505040C8F7D9
:1056D000881B990B0895DC01CB01FC01F999FECFE1
:1056E00006C0F2BDE1BDF89A319600B40D9241506A
:1056F0005040B8F70895F999FECF92BD81BDF89A50
:10570000992780B50895A8E1B0E042E050E00C94FC
:105710006D2BDC01A40FB51F4150504048F0CB0168
:10572000840F951F2E910E949A2B41505040D0F724
:105730000895262FF999FECF92BD81BDF89A019761
:1057400000B4021639F01FBA20BD0FB6F894FA9AC9
:10575000F99A0FBE08950396272F0E949A2B0E9454
:10576000992B252F0E949A2B242F0C949A2B01966B
:10577000272F0E949A2B0C94992B052E97FB1EF431
:1057800000940E94D42B57FD07D00E94EF2B07FCFA
:1057900003D04EF40C94D42B509540953095219520
:1057A0003F4F4F4F5F4F089590958095709561954D
:1057B0007F4F8F4F9F4F08950E94112CA59F900DF2
:1057C000B49F900DA49F800D911D11240895B7FFE3
:1057D0000C94DC2B0E94DC2B821B930B0895A1E21E
:1057E0001A2EAA1BBB1BFD010DC0AA1FBB1FEE1F5B
:1057F000FF1FA217B307E407F50720F0A21BB30BA6
:10580000E40BF50B661F771F881F991F1A9469F721
:1058100060957095809590959B01AC01BD01CF017D
:105820000895A29FB001B39FC001A39F700D811D79
:105830001124911DB29F700D811D1124911D089599
:10584000F894FFCF4F1177111A1377111A13AA1179
:10585000CB111A13C912D61287137E1394137C131B
:10586000E113E1137C13E113E113B013E113BB1354
:10587000C613E113E113E113E1137C13E113E11308
:105880007C13E113A213E113E113DF13DF13DF1322
:10589000DF13DF13DF13DF13DF13DF13D113E11384
:1058A00087137A13E113E113E113E113E113E11319
:1058B000E113E113E113E113D113E113E1137C13BD
:1058C000E113D713D713D713D713D713D713D7137E
:1058D000D713D713D1133F186E187818861891185C
:1058E000A018AC18BC18C718D718E218F218FD1881
:1058F0000D197B19F01983194D195119871955196B
:105900008B1997196119E91965199B1969199F195B
:10591000C7196D19A319CE197319A919B1195919F4
:105920008F195D1993197719AD19BD19D719E71991
:1059300047197F19F7192E19321923192A193619FF
:105940003A193E194F1A4F1A891A891A271B411BF7
:10595000B11AB11A461BB31BC41BC41BC023C423FA
:10596000092430243B244624492449244924CB23B8
:10597000CB237F2582258525AB25CE25D125D32593
:10598000F9255C2468246C247024722476247D24F8
:1059900084248B24922499249E24A524AA24B1240F
:1059A000B624D024D524DA24E024E624F124EB2400
:1059B000F724FA24FD24002503250A2510251625A1
:1059C00021252725302536253F2545254E256227CB
:1059D0006D27BD270F2859289428DC2826294E2911
:0259E000792923
:1059E20001000000FF1106600B590B520B0114203D
:1059F20000FFFF0000FF7FFF0000FF0000FF00002C
:105A0200FF0000FF0160016001700170FFFF1E0ACC
:105A1200280801818283E200E900EA00B500B600AD
:105A2200B700CD008301CC008A01920194012102CA
:105A3200230224022502260227022A02B300B4000E
:105A42006F0070009F01CB019F02A002366667F7CC
:105A52009293959496973435F6F5F4F130313233CA
:105A62004022B684016201AC0041085A087A08005B
:00000001FF
