:100000000C943C030C9474030C9474030C947403CC
:100010000C9474030C9474030C9474030C94740384
:100020000C9474030C9474030C948C290C9448293C
:100030000C94892A0C9474030C9474030C94740328
:100040000C9474030C9474030C9474030C94740354
:100050000C9474030C94652A0C9474030C9474032C
:100060000C9474030C9474030C9474030C94740334
:100070000C9474030C9474030C9474030C94740324
:100080000C9474030C9474030C9474030C94740314
:100090000C9474030C9474030C9474030C94740304
:1000A0000C9474030C9474030C94740305010902FA
:1000B000A10185020901A1000509190129081500FE
:1000C0002501950875018102050109300931158165
:1000D000257F95027508810609381581257F9501D0
:1000E00075088106050C0A38021581257F95017572
:1000F000088106C0C005010980A101850319012AF4
:10010000B700150126B700950175108100C0050CD8
:100110000901A101850419012AA002150126A002E6
:10012000950175108100C005010906A1018506052C
:100130000719E029E71500250195087501810205D9
:1001400007190029EF1500250195F07501810205B9
:10015000081901290595057501910295017503910D
:1001600001C00660FF0961A1010962150026FF00B8
:100170009520750881020963150026FF00952075FA
:10018000089102C005010906A101050719E029E748
:1001900015002501950875018102950175088101F9
:1001A0000507190029FF150026FF0095067508812F
:1001B000000508190129051500250195057501910E
:1001C00002950175039101C00000000000000000CD
:1001D000000000000000000000000000000000001F
:1001E0000000000000000000000000007E0F00D4AE
:1001F000FFFFFFC7000000780000000000000000C3
:100200002A2B280000000000000000000000000071
:1002100000000029000000002C1E3420212224347C
:100220002627252E362D3738271E1F20212223244E
:1002300025263333362E37381F0405060708090AEA
:100240000B0C0D0E0F101112131415161718191A86
:100250001B1C1D2F3130232D350405060708090A04
:100260000B0C0D0E0F101112131415161718191A66
:100270001B1C1D2F3130354C000101010101010112
:10028000010102020202020202020203030303034B
:10029000030303040404040404040505050505061A
:1002A00006060606070707070708080808090909D8
:1002B000090A0A0A0B0B0B0C0C0C0D0D0D0E0E0E81
:1002C0000F0F0F1010111111121213131414151512
:1002D00016161717181819191A1A1B1B1C1D1D1E84
:1002E0001E1F2020212222232424252626272829D8
:1002F000292A2B2C2D2D2E2F303132323334353606
:100300003738393A3B3C3D3E3F4041424344454605
:100310004748494A4C4D4E4F5051535455565859E1
:100320005A5B5D5E5F616264656668696B6C6D6F88
:100330007072737577787A7B7D7E808283858788FB
:100340008A8C8E8F91939596989A9C9EA0A2A3A535
:10035000A7A9ABADAFB1B3B5B7BABCBEC0C2C4C636
:10036000C9CBCDCFD1D4D6D8DBDDDFE2E4E7E9EBF2
:10037000EEF0F3F5F8FAFDFF167C1E001F002000DA
:1003800021002200230024002500260027002D0044
:100390002E002A004C002B0014001A000800150043
:1003A00017001C0018000C00120013002F00300072
:1003B00028004A0039000000040016000700090068
:1003C0000A000B000D000E000F0033003400320055
:1003D0004B00E10064001D001B0006001900050031
:1003E00011001000360037003800E50052004E00C2
:1003F000E000E300E2000000000000002C0000002C
:100400000000E60021520000500051004F00007C27
:100410003A003B003C003D003E003F0040004100F0
:100420004200430044004500010001000100207823
:100430002178237824782578267827782878010071
:1004400001000100010001000100010000000100A5
:100450000100010001000100010001000100010094
:100460000100010001000100010001000100010084
:100470000100010001000100010001000100010074
:100480000100010001000100010001000000000066
:100490000000010000000000010001000000010058
:1004A0000100010001000100010001000100010044
:1004B0000100010001000100010001000100010034
:1004C0000100010001000100010001000100010024
:1004D0000100010001000100010001000100010014
:1004E0000100000001000100010001000100010005
:1004F00001000100010001000100010001000100F4
:1005000001000100010001000100010001000100E3
:1005100001000100010001000100010001000100D3
:1005200001000000000000000100000000000100C8
:1005300001000000010001000100010001000100B4
:1005400001000100010001000100010001000100A3
:100550000100010001000100010001000100010093
:100560000100010001000100010001000100010083
:100570000100010001000100000001000100010074
:100580000100010001000100010001000100010063
:100590000100010001000100010001000100010053
:1005A0000100010001000100010001000100010043
:1005B0000100010001000100000000000000010036
:1005C0000000000001000100000001000100010026
:1005D00009025B00030100A0FA0904000001030105
:1005E00001000921110100012244000705810308CF
:1005F00000010904010002030000000921110100AB
:1006000001222200070582032000010705030320C1
:10061000000109040200010300000009211101008A
:100620000122B60007058403200001120100020028
:10063000000008504B53060100010200011C034258
:10064000004D00360035004800530052004700427C
:10065000002000490053004F00000016034B0050DB
:1006600000720065007000750062006C0069006334
:10067000000000040309040011241FBECFEFDAE0DC
:10068000DEBFCDBF04B603FE18C08091590690911D
:100690005A06A0915B06B0915C068730904BA7404C
:1006A000B04B59F41092590610925A0610925B06FC
:1006B00010925C06E0E0F8E3099526E0A8EAB2E0D3
:1006C00001C01D92A935B207E1F712E0A0E0B1E048
:1006D000E6E3F6E602C005900D92A83AB107D9F715
:1006E0000E94B02A0C9485320C940000482F20916F
:1006F00020069091E70557E0291302C080E0089595
:1007000030E0529FF001539FF00D1124E851FA4F51
:100710008181681306C08081481303C085818111DF
:10072000EECF2F5F3F4F2770E7CFE8EDF0E08081FD
:100730008E7F80831092E2001092DA001092E10026
:10074000A0EEB0E08C9181608C9380818F77808364
:1007500019BCA7EDB0E08C918E7F8C9380818F7E49
:1007600080831092D00508952091E4003091E50037
:1007700095E6A9012091EC00822F817020FF06C030
:100780008091E80080FF06C080E008952091E80095
:1007900022FD1AC08091DD05882389F0853089F01B
:1007A0008091EB0085FD0FC02091E4003091E500C1
:1007B00042175307F9F29150E1F684E0089582E080
:1007C000089583E0089581E008958091DF0587FF13
:1007D00013C08091E80082FF06C08091E8008B770B
:1007E0008093E80004C08091DD058111F2CF089567
:1007F0008091DD058823D9F38091E80080FFF8CF50
:100800008091E8008E77ECCF982F9093E900242F09
:10081000762F50E0891731F07091EC002091ED00B7
:100820005091F00021FD07C09F5F973071F78093D2
:10083000E90081E008953091EB003E7F3093EB00BA
:100840003091ED003D7F3093ED003091EB00316051
:100850003093EB007093EC002093ED005093F00088
:100860002091EE0027FDE0CF80E00895B0E0A0E009
:10087000ECE3F4E00C943131C8EDD0E088818F7E58
:100880008883E7EDF0E080818160808384E082BF2F
:1008900081E08093D00588818E7F888302EE10E00E
:1008A000F80110821092DA0081EEC82ED12CF601E8
:1008B000108288818F778883888180688883888187
:1008C0008F7D888319BC1092DD051092DE05109291
:1008D000DC051092DB0590EEE92EF12CF70180810A
:1008E0008B7F808388818160888342E060E080E044
:1008F0000E940404F60180818E7F8083F80180814C
:1009000081608083808188608083F70180818E7F11
:100910008083888180618883CDB7DEB7E8E00C945E
:100920004D31FC018091E5059091E605861797070A
:10093000A0F06115710529F49091E8009E779093DD
:10094000E80090E06115710551F4911108C08091A3
:10095000E80082FF34C080E00895BC01F2CF8091AE
:10096000DD058823C1F18530C1F18091E80083FD68
:1009700030C08091E80082FDEACF8091E80080FFDE
:10098000E1CF8091F3002091F200382F61157105BD
:1009900019F02830310558F091E02830310509F080
:1009A00090E02091E8002E772093E800CBCF819152
:1009B0008093F100615071092F5F3F4FE7CF809125
:1009C000DD05882341F0853041F08091E80083FF08
:1009D000BECF81E0089582E0089583E0089580917C
:1009E000D20508959C014FB7F8948091CC05909161
:1009F000CD05A091CE05B091CF054FBF821B930BC3
:100A000008952FB7F8946091CC057091CD05809131
:100A1000CE059091CF052FBF08952FB7F894809100
:100A2000CC059091CD05A091CE05B091CF052FBFFB
:100A30000895909113019923D1F09091C90597FFE2
:100A400016C0E82FE695E695E695EE31E0F4F0E085
:100A5000EE54FD4F282F277081E090E001C0880FF1
:100A60002A95EAF780959281892382830895ECEA9A
:100A7000F2E09191891303C0DF0111971C9292E07B
:100A8000E23BF907B1F70895909113019923C1F062
:100A90009091C90597FF14C0E82FE695E695E69575
:100AA000EE31F8F4F0E0EE54FD4F877021E030E0D5
:100AB00001C0220F8A95EAF78281822B82830895F2
:100AC000ACEAB2E0EFEF90E02D91821751F0EF3FEA
:100AD00019F4211101C0E92F9F5F9630A9F7EF3F6C
:100AE00009F408950E2E000CFF0BE655FD4FE6CFDE
:100AF000A3E0B0E0EEE7F5E00C9437312091C705B4
:100B00003091C80528173907A1F09093C805809344
:100B1000C705E091C505F091C605309751F024E076
:100B200029839B838A830084F185E02DCE01019681
:100B300009952396E2E00C945331A3E0B0E0E3EA98
:100B4000F5E00C9437312091C3053091C405281786
:100B50003907A1F09093C4058093C305E091C505C2
:100B6000F091C605309751F023E029839B838A8357
:100B70000084F185E02DCE01019609952396E2E0EF
:100B80000C945331E091C505F091C605309729F0DA
:100B90000190F081E02D0995089580E008950E946C
:100BA0000D059C019091BF058091C005982B21F007
:100BB0003093BC052093BB059091C1058091C2057F
:100BC000982B21F03093BA052093B905E091C50523
:100BD000F091C605309749F082E08093BD0506800C
:100BE000F781E02D8DEB95E0099508958091B8058A
:100BF00080FD16C081FD16C082FD16C08091B7052C
:100C00008823A1F0883280F428E0829FC00111245B
:100C100068E270E00E940631862F672B39F0089554
:100C200082E0089584E0089588E0089581E00895C1
:100C30008091B80580FD14C081FD14C082FD16C0EE
:100C40008091B605882381F08E3180F420E5829F63
:100C5000C00111246EE170E00E940631862F0895D4
:100C600084E1089588E2089588E0089580E5089574
:100C7000282F35EB2303C001112497FF04C08058AF
:100C80009109892F089580589F4FFBCFFA01811158
:100C900001C0FB0109950895FC01EE0FFF1FDF0164
:100CA000A80FB91FA852BB4F11963C91119736134C
:100CB00007C03C91341304C012963C91321751F096
:100CC00031E03093D704E80FF91FE852FB4F6183FE
:100CD000408322830895FF920F931F93CF93DF9356
:100CE000182F062FF42ED0E0C0E02F2D402F612FBB
:100CF000CE010E944C062196CA34D105B1F7CDB77A
:100D0000DEB7E5E00C9450316A9A1092D70408954A
:100D1000E5E2F6E0248130E1231B08F420E024839F
:100D20008091D60481608093D6040895E5E2F6E0D0
:100D3000248130E1230F08F42FEF24838091D6041F
:100D400081608093D604089590912506937071F088
:100D500080932606609327064D3808F04CE84093B0
:100D600028068091D604822B8093D6040895E5E26C
:100D7000F6E0438120E1421B08F440E0818121E05C
:100D8000628190E00E94A4060895E5E2F6E04381C6
:100D900020E1420F08F44FEF818121E0628190E071
:100DA0000E94A4060895E5E2F6E0628120E1621B5C
:100DB00008F460E0818121E0438190E00E94A40674
:100DC0000895E5E2F6E0628120E1620F08F46FEF3A
:100DD000818121E0438190E00E94A4060895E5E22C
:100DE000F6E0818121E0438162818850990B0E9465
:100DF000A4060895E5E2F6E0818190E021E04381D8
:100E0000628108960E94A406089590912506937029
:100E100061F081110BC0946090932506109212012D
:100E20008091D604862B8093D60408958D3210F0DD
:100E3000906BF2CF880F880F982BEECF809125060C
:100E400086958695815009F48CE261E00E94050741
:100E5000089580912506869586958F5F8D3208F0DE
:100E600081E061E00E94050708959FE0899F802D41
:100E70001124980F9B3408F09AE40895EF92FF92A2
:100E80000F939701201B31092F3F310519F010F006
:100E90002FEF30E02095382F320F08F43FEF832FEB
:100EA0000F91FF90EF900895EF92FF920F939701AB
:100EB000201B31092F3F310519F010F02FEF30E0E2
:100EC000322F3095482F430F08F44FEF842F620FD5
:100ED0000F91FF90EF900895EF92FF920F93972F4D
:100EE000093438F4B701601B71096F3F710519F0BF
:100EF00010F06FEF70E0485F5F4F4131510540F0F7
:100F0000A901485F5F4F4131510510F06FEF70E06C
:100F10006095482F460F08F44FEF842F37FF02C02B
:100F20002D5F3F4F3595279535952795609126067E
:100F3000620F792F0F91FF90EF900895EF92FF923B
:100F40000F931F930E0D1F2D111DF90137FF03C0C5
:100F5000F195E195F10924E0EE0FFF1F2A95E1F7E5
:100F6000EF3FF10519F014F0EFEFF0E09A0157FFB1
:100F700003C031952195310994E0220F331F9A95D2
:100F8000E1F72E173F070CF4F901E00FF11FEF3FD7
:100F9000F10519F010F0EFEFF0E0E095282F3E2F6B
:100FA000230F08F42FEF822F1F910F91FF90EF90E6
:100FB0000895EF92FF920F93970195E0099F200DFE
:100FC000311D11242F3F310519F010F02FEF30E0C3
:100FD0002095382F320F08F43FEF832F0F91FF90A9
:100FE000EF900895409520E4429F412D1124640F15
:100FF00008954095282F429F412D1124842F089554
:10100000E42FF0E0EE0FFF1FE753FE4F9081921B9D
:1010100097FD9195292F38E1239F212D1124620FEF
:1010200008950F931F9310E0F801EE0FFF1FE75391
:10103000FE4F9081905797FD9195000F111FF80179
:10104000E653FE4F00810052110B2003F001219F57
:10105000F00D112408E310E0091B110997FD139509
:1010600040039001419F300D1124E20FF31F9F01B7
:10107000220F331F2E0F3F1F37FF02C021583F4F53
:10108000220F232F221F330B620F1F910F91089500
:101090000F931F93522F10E0F801EE0FFF1FE6533E
:1010A000FE4FA081A052BB0B9D015203F001539F44
:1010B000F00D1124000F111FD801A753BE4F0C9142
:1010C0000057110B40039001419F300D11242E0F4A
:1010D0003F1F37FF02C0215C3F4F96E035952795B3
:1010E0009A95E1F7620F1F910F9108950F931F9347
:1010F000522F10E0F801EE0FFF1FE653FE4FA081C4
:10110000A052BB0B9D015203F001539FF00D11241F
:10111000000F111FD801A753BE4F0C910057110BA0
:1011200040039001419F300D11242E0F3F1F37FFC8
:1011300002C021583F4F220F232F221F330B620F73
:101140001F910F910895EF920F93972F23E0029F25
:10115000B0011124759567956E0D792F0F91EF9061
:101160000895322F50E0FA01EE0FFF1FE653FE4FB5
:101170009081905297FD9195440F551FFA01E753C6
:10118000FE4F2081231B330B290F311D97FD3A950C
:10119000620F0895E42FF0E0EE0FFF1FE653FE4FBD
:1011A0006081621B0895E42FF0E0EE0FFF1FE7530C
:1011B000FE4F6081621B0895622F0895E42FF0E0D6
:1011C000EE0FFF1FE753FE4F408134EE439F412D4A
:1011D0001124E82FF0E050E0445E5F4FDA01A21BDB
:1011E000B1099D01B7FF03C031952195310993E005
:1011F000220F331F9A95E1F7AF01421B530B9A015F
:1012000057FD20E0582F259F212D1124822F08956E
:10121000E42FF0E0EE0FFF1FE753FE4F408134EE66
:10122000439F412D1124E72FF0E050E0445E5F4FD3
:10123000DA01A21BB1099D01B7FF03C031952195C9
:10124000310993E0220F331F9A95E1F7AF01421B5A
:10125000530B9A0157FD20E0279F212D1124722F57
:1012600008950E946B0608950E944C060895FC01A3
:101270009B01009729F480E077FF2BC080E8089558
:10128000AC0197FF04C044275527481B590BB901EF
:10129000640F751F37FD10C0241B350BC901A5E075
:1012A000880F991FAA95E1F70E94063180E2861BFC
:1012B000F7FF0FC081950895CB0165E0880F991F56
:1012C0006A95E1F7BA01621B730B0E94063180E652
:1012D000EECF0895EF920F93CF93DF93D72FC82FC0
:1012E000C9010E19BA010E943709602F681B7D2FB2
:1012F0008C2FDF91CF910F91EF9008950F93CF93A3
:10130000DF93D72FC82FC901BA010E943709682F70
:10131000600F7D2F8C2FDF91CF910F910895EF9269
:101320000F931F93CF93DF93D62FC72F182FC90189
:101330000E19010FBA010E943709081B202F219FA7
:10134000212D1124822F6D2F7C2FDF91CF911F91A2
:101350000F91EF900895EF920F931F93CF93DF9328
:10136000D62F172FC82FC9010E19070FBA010E94D7
:101370003709702F781B719F712D11246D2F8C2FC1
:10138000DF91CF911F910F91EF9008950F931F93CD
:10139000CF93DF93D62FC72F182FC901212F201BE2
:1013A000022FBA010E943709982F990F990F891BB4
:1013B000800F282F219F212D1124822F6D2F7C2F0C
:1013C000DF91CF911F910F9108950F931F93CF93AA
:1013D000DF93D62F172FC82FC901272F201B022FCD
:1013E000BA010E943709982F990F990F782F791B0E
:1013F000700F719F712D11246D2F8C2FDF91CF9164
:101400001F910F910895E82F86FDE0952E2F2F70E4
:1014100086FD2F5FE695E695E695E670F0E0E959E2
:10142000FE4F9181929F902D212D112492959F70B6
:101430002295207F922B2081920F87FD919580E845
:10144000890F08950F931F93CF93DF938B01D82FAC
:10145000C42F822F0E94030AEC2FF0E0EE0FFF1F33
:10146000E753FE4F90819058890F87FD8195880F33
:10147000682F2CE0629F612D1124600F712F8D2F3A
:10148000DF91CF911F910F91089540910E015091DE
:101490000F0125E038E0429FC001439F900D529F0D
:1014A000900D1124875E994C90930F0180930E014B
:1014B000890F0895AC018230910508F408959FEFDB
:1014C000413E8EE1580740F49A0195E03695279504
:1014D0009A95E1F798E0920F61E0E62FE90FFF2778
:1014E000FF1F9F0135952795822F229FF001239F93
:1014F000F00DF00D11244E175F0738F49FEF920F97
:10150000961758F78FEF860F08952F3FE9F361E0A4
:10151000620FF6CF0F93CF93DF93D72FC82F47FDDE
:10152000419588E390E0841B910947FD9395889F3E
:10153000B001899F700D700D1124229FC001239F5F
:10154000900D900D1124860F971F0E945A0A982F14
:10155000990F890F682F600F7D2F8C2FDF91CF910E
:101560000F91089530E020E0869F212D969F200D59
:10157000311D1124C90108952091290630E1230F5E
:1015800008F42FEF60E1822F90E00E94B20ABC01C4
:1015900088EB9BE00E94F23090E080E00895AF92EB
:1015A000BF92CF92DF92FF920F931F93CF93DF935F
:1015B000362F472FE82FF0E0E858FD4F71110FC08C
:1015C000E4918E2F2E2F6E2F722FDF91CF911F91CE
:1015D0000F91FF90DF90CF90BF90AF900895C72FED
:1015E000D0E02491F22E022F10E056E0659FC0015A
:1015F0001124EFEFF0E0BF010E94F230832F90E062
:10160000880F991F35E5369FD001379FB00D112403
:101610008A1B9B0B982F990F980F6F01CC1ADD0A2C
:10162000C09ED001C19EB00DD09EB00D11248B2F55
:10163000499FA0011124452F55276F01C41AD50ACF
:10164000C09EA001C19E500DD09E500D11245F017F
:10165000A91AB108AC9E6001AD9ED00CBC9ED00C06
:101660001124CD2CDD24EC19FD09E09FE001E19F60
:10167000D00DF09FD00D1124ED2F62307105A1F037
:1016800050F46115710509F49ECF6130710581F048
:10169000EB2F852F98CF6430710569F080F06630AC
:1016A000710509F490CFF4CFE22F2B2F8D2F8BCF24
:1016B000E22F252F88CFEB2F822F2D2F84CF2B2F9A
:1016C0008F2DE52F80CFB0E0A0E0E9E6FBE00C94A1
:1016D00032318C01FC01E35AFD4F8081682349F1CE
:1016E000D0902706D0912806C0912606EC2EF12C2A
:1016F0000E94450A282FC7018C549F4F68E671E06D
:101700000E9406318E199F0997FD0396959587953E
:101710009595879523706C2F289F600D11247D2D42
:101720008D2F0E94CF0A462F282F672FC8010E94B5
:101730003409CDB7DEB7E7E00C944E312F923F92DB
:101740005F926F927F928F929F92AF92BF92CF9251
:10175000DF92EF92FF920F931F93CF93DF93CDB75A
:10176000DEB729970FB6F894DEBF0FBECDBF8983D1
:101770007D836C83809114010E9435079A832091A8
:101780002D062B83E82FF0E0F987E887CF01880F3B
:10179000991F9C0127533E4F69013981832F90E0A7
:1017A000FC013196FF83EE838A8198859817E8F0D3
:1017B00081E0EA81EA3408F080E029960FB6F894D7
:1017C000DEBF0FBECDBFDF91CF911F910F91FF9074
:1017D000EF90DF90CF90BF90AF909F908F907F90D1
:1017E0006F905F903F902F900895E885F985E35AB8
:1017F000FD4F8081909115018923F1F020902606FC
:10180000309027062E813F81235D394F3901598061
:1018100010E0FB815F16D0F020912806129F112D59
:101820001124B101812F0E94CF0A462F282F672F44
:10183000888599850E943409288539852F5F3F4F17
:101840003987288732E0C30ED11CAECFF3018191D6
:101850003F01F601A080A81ABB088180F3018781AF
:10186000881A9908AA9C9001AB9C300D300D112468
:10187000889CC001899C900D900D1124820F931FAC
:101880000E945A0A082F6091290621E0620F08F48D
:101890006FEFF301EE0FFF1FED52F6408589968939
:1018A0000E94B20A7C019401A501B101812FEC8153
:1018B000FD8109951B015394182FABCFB0E0A0E038
:1018C000E4E6FCE00C9432318C01809114010E941A
:1018D0003507C82FD92E2091290631E0230F08F4AF
:1018E0002FEF30E050E040E06FEF7FEF80E090E0DE
:1018F0000E9422327901D0E02C2FCD1550F081E0EA
:10190000F9E4FD1508F480E0CDB7DEB7E7E00C940C
:101910004E31FE01E35AFD4F8081909115018923DC
:1019200011F140912D064150042E000C550B47FF3C
:101930001CC0C7016091290621E0620F08F46FEF17
:101940000E94B20AAC016091260670912706809130
:101950002806F80109950E94CF0A462F282F672FE5
:10196000CE010E9434092196C7CFFA01E35DF94FF9
:10197000818982130AC0FA01EE0FFF1FE35DF94F60
:10198000818D928D8E159F05A8F241505109CFCFC0
:10199000EF92FF920F931F93CF93DF937C0180917F
:1019A00014010E943507C82F192F609129066695EA
:1019B000669521E0620F08F46FEF80912106909107
:1019C00022060E94B20A082FD0E0C11748F081E039
:1019D0001A3408F080E0CDB7DEB7E6E00C944F3162
:1019E000FE01E35AFD4F808190911501892391F00A
:1019F000609126067091270680912806202F4C2F93
:101A0000F70109950E94CF0A462F282F672FCE0194
:101A10000E9434092196D9CFB0E0A0E0E2E1FDE0D8
:101A20000C942F316C01809114010E943507C82F4E
:101A3000F92E609129066695669580912106909110
:101A400022060E94B20A182F80E4810F0E94030A26
:101A500090E8B92EB80E812F0E94030A20E8A22E2A
:101A6000A80ED0E0CF1550F081E099E49F1508F45E
:101A700080E0CDB7DEB7EAE00C944B31FE01E35ACB
:101A8000FD4F8081909115018923A1F06091260678
:101A90007091270680912806E12E0C2F2A2D4B2DC0
:101AA000F60109950E94CF0A462F282F672FCE01F5
:101AB0000E9434092196D6CFB0E0A0E0E2E6FDE036
:101AC0000C942D316C01809114010E943507C82FB0
:101AD000192F609129066695809121069091220622
:101AE0000E94B20AF82ED0E0C11748F081E01A3403
:101AF00008F080E0CDB7DEB7ECE00C944931FE0190
:101B0000E35AFD4F8081909115018923C9F1CE01DF
:101B1000880F991F82589E4FFC01E55BFF4F208183
:101B2000422F4057550B5A01845B9F4FFC01808127
:101B3000282F2052330B4901449F9001459F300DBF
:101B4000300D1124889CC001899C900D900D1124AA
:101B5000820F931F0E945A0A082F609126067091E7
:101B6000270680912806EF2C9401A501F60109951E
:101B70000E94CF0A462F282F672FCE010E943409DA
:101B80002196B2CFB0E0A0E0E8ECFDE00C94323159
:101B90007C01809114010E943507C82F192F609194
:101BA0002906669580912106909122060E94B20A2C
:101BB000D82ED0E0C11748F081E01A3408F080E058
:101BC000CDB7DEB7E7E00C944E31FE01E35AFD4F8E
:101BD000808190911501892311F1CE01880F991F01
:101BE00082589E4FFC01E45BFF4F20812052330B53
:101BF000855B9F4FFC0140814057550B6091260645
:101C000070912706809128060D2DF70109950E94F5
:101C1000CF0A462F282F672FCE010E943409219624
:101C2000C9CF1F93CF93DF93EC01FC01E35AFD4F23
:101C300080816823B1F00E94450A182F0E94450A4E
:101C400020E8829FC00111247FE7790F612F8091E6
:101C500028060E94CF0A462F282F672FCE010E9408
:101C60003409DF91CF911F91089580E00895F89491
:101C7000E82FE295EF70F0E031A1282F2F7081E07E
:101C800090E001C0880F2A95EAF7982F909593234A
:101C900091A392A1892B82A3789408959091C9056C
:101CA00092FF10C041E0282F2471243009F040E059
:101CB00031E0282F2871283009F030E0431711F067
:101CC0002CE0822793FF10C041E0282F247124319B
:101CD00009F040E031E0282F2871283109F030E088
:101CE000431711F02CE082273091CA0530FF10C055
:101CF00051E0282F2171213009F050E041E0282FD8
:101D00002871283009F040E0541711F029E08227AB
:101D100031FF10C041E0282F2171213109F040E04E
:101D200031E0282F2871283109F030E0431711F0F5
:101D300029E0822794FD877E089582389105B9F1C4
:101D4000B0F48133910509F47DC048F489329105DE
:101D500009F46DC08A32910509F47BC0089585337A
:101D6000910509F45FC08933910509F10895833E17
:101D70009105D9F138F4803E910529F1823E910513
:101D800079F10895863E9105D9F1873E910509F4D0
:101D90003EC0843E910541F52091CA0521FF24C033
:101DA0008091C90584FD19C087EE90E008952091C7
:101DB000C905237009F05AC02091CA0523FF14C039
:101DC00089E290E008952091C90520FD38C0309146
:101DD000CA0530FF09C024FF43C090E080E00895A9
:101DE0002091C90522FDF7CF08952091C90522FD54
:101DF0003AC03091CA0530FD39C024FFF5CFEDCF90
:101E00002091C90523FFF0CF24FDE7CFCDCF20914E
:101E1000C90523FD2EC03091CA0531FFEECF84EEF7
:101E200090E008952091C90525FFDECFC9CF20910C
:101E3000C90525FD21C02091CA0523FFD5CF89E31F
:101E400090E0D2CF2091C90526FFCECF8AE290E064
:101E500008952091C90526FFC7CF81E390E008953A
:101E600083EE90E0089582EE90E0089580EE90E099
:101E7000089586EE90E0089585E390E008951F931D
:101E8000CF93DF930E949D0EEC01C11580E5D8072A
:101E9000F0F5C11580E4D80708F09CC0C03ED1051C
:101EA00020F5CD3CD10508F082C0C83AD10578F4C0
:101EB000C53AD10508F073C0C130D10519F120979A
:101EC00009F1C430D105F0F4D0E0C0E01BC0C33C40
:101ED000D105D0F7C85AD0E0CC0FDD1FC35EDE4F6E
:101EE0000990D881C02DD4640DC0C11580E2D807F7
:101EF00008F0D1C0C11581E0D80708F05AC0C83E2B
:101F0000D10510F7CE01DF91CF911F910895C03612
:101F100082E5D80718F5C03482E5D80708F06BC011
:101F2000C03282E5D80708F05FC0C11582E5D80746
:101F300008F497C02C2F2695269580E2289F9001C3
:101F400011248C2F8370C1E0D0E002C0CC0FDD1FC4
:101F50008A95E2F7C22BD32BDD68D4CFC03A82E555
:101F6000D80760F4C03882E5D80708F459C0CF71AB
:101F7000D0E0DC2FCC27C46FD06AC4CFC03C82E550
:101F8000D80708F462C0C03E82E5D80708F09CCFAD
:101F9000DC2FCC27CC27DF71C06FD06AB3CFC55AF6
:101FA000D0E0C65EDE4FC881D0E0D064ABCFD06554
:101FB000A9CF8D2F0E944E0E182FCE0199270E9477
:101FC0009D0EC12FD0E0DC2FCC27CC27DF71C82B92
:101FD000D92B98CFCE0199270E949D0ECC27DF7078
:101FE000C82BD92BD06A8ECFCF71D0E0DC2FCC2775
:101FF000C16FD06A87CF2C2F26952695277080E257
:10200000289F900111248C2F8370C1E0D0E002C082
:10201000CC0FDD1F8A95E2F7C22BD32BDC6872CF81
:102020002C2F26952695277080E2289F9001112459
:102030008C2F8370C1E0D0E002C0CC0FDD1F8A95E9
:10204000E2F7C22BD32BDA685DCF8C2F8F710E9401
:102050004E0EC82FD0E0DC2FCC27CC27DF71D0620A
:1020600051CF8C2F8F710E944E0E55E0D695C7959B
:102070005A95E1F7CF70D0E0DC2FCC27282F30E045
:1020800084FF05C044E0220F331F4A95E1F7C22BBD
:10209000D32BD06937CF8D2F8F710E944E0E182F02
:1020A000CE0199270E949D0EC12FD0E0DC2FCC27B6
:1020B000CC27DF71C82BD92BD2CF809590912403E8
:1020C0009823909324030895809124039091FB0218
:1020D000892B9091FA02992391F0892B9091130109
:1020E000992371F09091C90597FF0AC09EE124EBF6
:1020F00032E040E0915040F441111092FA0208950C
:1021000096E02CEA32E0F5CFF90151919F01552379
:1021100089F34F5FEFCF809120069091E7059813E8
:1021200001C008958F5F8770FACF292F953078F519
:102130008F3068F590E03FE0239F800D911D1124C2
:10214000682F677023E0969587952A95E1F7FC0143
:10215000EE0FFF1FE80FF91FEC52FD4F50E040E07B
:1021600080E0219130E0062E02C0369527950A9432
:10217000E2F721703327042E01C0220F0A94EAF7F8
:10218000822B4F5F5F4F4330510559F7089580E030
:102190000895292F953098F58F3088F590E03FE02D
:1021A000239F800D911D1124282F277041E001C02D
:1021B000440F2A95EAF723E0969587952A95E1F74B
:1021C000FC01EE0FFF1FE80FF91FEC52FD4F30E04E
:1021D00020E070E05191DF011197CB01022E02C087
:1021E000969587950A94E2F78170819585278423D7
:1021F00085278C932F5F3F4F2330310559F7089582
:102200008093350308959091350321E030E0F90182
:1022100001C0EE0F8A95EAF7D90102C0AA0FBB1FD1
:102220006A95E2F7EA2B01C0220F4A95EAF7892F57
:102230008E23E81305C0292B822F0E9400110895D8
:1022400020952923F9CF21E030E001C0220F8A95A3
:10225000EAF720958091350382230E9400110895AA
:102260009091F902809589238093F902282F277095
:1022700069F4891759F09091CA0592FF07C08695B5
:10228000869586950E9423111092F902089521E007
:1022900030E001C0220F8A95EAF780913503822B46
:1022A0000E94001108958093340308954091BF0562
:1022B0009091C1052091C205662309F469C0942B51
:1022C000922B2091C005922B31F098E09093B605A7
:1022D00091E09093B7058D3C41F40E9418068195DA
:1022E0008093C0050E94CF0508958E3C19F40E948A
:1022F0001806F6CF8F3C31F40E9418068195809322
:10230000BF05F0CF803D19F40E941806F8CF893D33
:1023100029F40E94F6058093C105E4CF8A3D21F49B
:102320000E94F6058195F7CF8B3D31F40E94F605AA
:1023300081958093C205D6CF8C3D19F40E94F60595
:10234000F8CF9FE2980F983070F4815D990B21E0EF
:1023500030E001C0220F8A95EAF78091BE05822BFA
:102360008093BE05BFCF8D3D31F48091B80581606B
:102370008093B805B7CF8E3D21F48091B805826077
:10238000F7CF8F3D09F0AECF8091B8058460F0CFD4
:102390008D3C59F48091C00587FF0DC01092C00597
:1023A00041110BC01092B60508C08E3C81F480919B
:1023B000C00518169CF3442381F08091C1059091CB
:1023C000C205892B09F08ECF1092B7058BCF8F3CB9
:1023D00049F447FFF0CF1092BF058091C0058111ED
:1023E000ECCFE0CF803D19F41416ACF3E4CF893D77
:1023F00029F4191604F71092C105DDCF8A3D19F4AE
:1024000097FFD9CFF8CF8B3D29F427FFD4CF109277
:10241000C205D1CF8C3D19F41216CCF3CCCF9FE27C
:10242000980F983090F4815D990B21E030E0B9016C
:1024300002C0660F771F8A95E2F7CB0180959091D5
:10244000BE0589238093BE05B6CF8D3D31F48091C2
:10245000B8058E7F8093B805AECF8E3D21F4809174
:10246000B8058D7FF7CF8F3D09F0A5CF8091B805D6
:102470008B7FF0CF0F931F93CF93DF938B01EA01F4
:102480009091DD05943061F58093E9008FEF909194
:10249000E800815095FD06C095ED9A95F1F7000092
:1024A0008111F5CF8091E80085FF1AC00E94B40326
:1024B000811111C08091E80085FD06C08091E8007F
:1024C0008E778093E800F2CFF80181918F0180939D
:1024D000F100219779F78091E8008E778093E800EA
:1024E000DF91CF911F910F91089543E050E0BC011F
:1024F00084E00E943A12089546E050E0BC0184E076
:102500000E943A12089540E250E0BC0184E00E942B
:102510003A120895CF93DF93EC0148E050E0BC01FC
:1025200081E00E943A1288E0FE01A3EDB5E001903F
:102530000D928A95E1F7DF91CF91089581E0809324
:10254000E00080E28093D8001092C9008FE19EE401
:102550000197F1F700C0000087E090EBDC01809369
:10256000590690935A06A0935B06B0935C0688E1E7
:102570009CE00FB6F894A895809360000FBE9093EE
:102580006000FFCF8091D704882339F13EB13B7FB3
:102590002EB124604FB7F89488ED94E0FC0151917E
:1025A000CF0168E02EB9000000C057FF3EB9550FBB
:1025B000000000C000C000C03EB900C06A9591F79D
:1025C000F5E0863B9F0751F74FBF8FE594E00197F9
:1025D000F1F700C000001092D7040895CF93C82FE0
:1025E0006FEF811164E284E290E00E94FE31C1113C
:1025F0000DC0CFEF6C2F85E290E00E94FE316C2F72
:1026000086E290E00E94FE31CF910895C8E0F2CFBB
:10261000CF93DF93C0E8D2E060E0CE010E94FE31AC
:102620002196C11584E0D807B9F7DF91CF910895BD
:102630001F93CF93DF93122F8430E0F46530D0F4F2
:102640004F30C0F4C42FD0E0CC0FDD1F9EE1699F56
:10265000C00DD11D112496E9899FC00DD11D1124F3
:10266000632FCE0188960E94FE31612FCE0189969C
:102670000E94FE31DF91CF911F910895AF92BF92DA
:10268000CF92DF92EF92FF921F93CF93DF9388E771
:10269000C82E83E0D82ED0E07601C0E014C0F5014A
:1026A00025913491412F6C2F8D2F0E94181382E0B9
:1026B000A80EB11C1F5F1F3091F78EE1E80EF11CD0
:1026C000CF5FC53019F0570110E0E9CFDF5F86E931
:1026D000C80ED11CD43001F7DF91CF911F91FF902C
:1026E000EF90DF90CF90BF90AF90089580E00E9470
:1026F000EE1260E087E290E00E94FE310E943E13FD
:102700000E94081381E00E94EE12089584E290E096
:102710000E94E031843289F485E290E00E94E03149
:10272000883059F486E290E00E94E03191E08830F0
:1027300009F090E0892F8170089580E0FCCF0F931D
:102740001F93CF93DF93843030F5653020F54F3001
:1027500010F5C42FD0E0CC0FDD1F2EE1629FC00D1D
:10276000D11D112436E9839FC00DD11D1124CE0146
:1027700088960E94E031082F10E0102F0027CE012C
:1027800089960E94E0319801282BC901DF91CF91F1
:102790001F910F91089590E080E0F8CF462F75309B
:1027A00040F46F3030F4843020F4672F0E949F1380
:1027B000089590E080E00895CF92DF92FF920F930A
:1027C0001F93CF93DF936C01009135038091340305
:1027D000082BC3E0D0E010E0FC2EC8010C2E02C094
:1027E000959587950A94E2F780FD0CC02197A0F794
:1027F000F12C8F2DDF91CF911F910F91FF90DF90E2
:10280000CF900895B6018C2F0E94CE130E943F0FE7
:10281000019761F3EECFCF93DF93EC010E94DC13BD
:10282000BE010E94CE130E943F0FDF91CF91089509
:10283000FC0124812223C1F0808191810E940B142C
:1028400092959F70963091F058F4925F9F709230FD
:1028500058F4803F19F030F4883E30F481E0089558
:102860009A5FF4CF843FD1F380E00895883EB0F3BF
:10287000813FD1F7F3CFA6E0B0E0E1E4F4E10C94BE
:10288000363149835A8349815A819923A1F0222301
:1028900091F0CA010E94DC13182F682F89819A8158
:1028A0000E94C91069817A81812F0E94CE132696D9
:1028B000E3E00C945231CA010E949510182FF2CF18
:1028C00048E050E067E170E085E296E00E94EE317A
:1028D0001092D6040895A5E0B0E0E1E7F4E10C948D
:1028E0002731C0907503D0907603E0907703F09085
:1028F00078038FB7F8944090CC055090CD05609048
:10290000CE057090CF058FBF530142018C189D08F2
:10291000AE08BF080E9401056093750370937603AB
:102920008093770390937803A0914C03ECE4F3E059
:102930002A2F30E04FEFC40ED41EE11CF11CC41846
:10294000D508E608F708A3131BC020934C03309169
:102950002506532F5370752E19F0732E76947694A6
:10296000209112012130B1F12223E9F0223009F443
:10297000E4C6233009F4EBC62596E2E10C9443311A
:10298000418D528D2A01712C612CC414D504E604AA
:10299000F70420F421503F5F3296D5CF480D591DE2
:1029A000528F418FF8CF10921401609321067093DB
:1029B0002206809323069093240689E2ECE4F3E058
:1029C000ADE2B6E001900D928A95E1F781E0809347
:1029D0001201D2CF9091110181E079120BC0832FA7
:1029E00083702091100130E091E08217130609F402
:1029F00090E0892F81708093160180912A06909132
:102A00001501981739F08093150140E060E080E0EF
:102A10000E9431098CE2871550F0E72DF0E0E9576C
:102A2000FD4C0C941A3180911601811102C019825B
:102A300099C040E060E080E00E943109F8CF8091C9
:102A400014010E9435078983192F60912606709121
:102A50002706809128060E94CF0A062FF72EE82E1F
:102A6000B981AB2FB0E0BD83AC83FC81F11718F0C6
:102A700021E02983B2C1EC81FD81E35AFD4F8081C1
:102A800090911501892339F02E2D402F6F2D8C81C7
:102A90009D810E943409EC81FD813196FD83EC8398
:102AA000E4CF809114010E9435078983192FF0909B
:102AB000270600912806309126063A83632F7F2D42
:102AC000802F0E94CF0AE62ED72EC82E60912906AD
:102AD0004A81640F7F2D802F0E94CF0A062FF72E88
:102AE000B82E9981892F90E09D838C83BC81B1178A
:102AF00018F0E1E0E98371C1EC81FD81E35AFD4FFB
:102B0000908180911501892361F02B2D402F6F2D2D
:102B100090FD03C02C2D4E2D6D2D8C819D810E942A
:102B20003409AC81BD811196BD83AC83DFCF809128
:102B300014010E943507092FF0902706E09028061F
:102B40002091290610E4129F112D1124282F30E026
:102B50003D832C835C81501718F181E089830A340E
:102B600008F065CF809114018F5F80931401598123
:102B70005111D5C582E08093120180911601811117
:102B80000AC6772009F4E1C50E94C20581FFCFC5BE
:102B90002FEF4FEF6FEF8EE190E00E943409C7C531
:102BA000EC81FD81E35AFD4F8081909115018923CD
:102BB000C9F0EC81FD81EE0FFF1FE653FE4F8081CF
:102BC00082958F7060912606819F600D11247F2D64
:102BD0008E2D0E94CF0A462F282F672F8C819D8132
:102BE0000E9434094C815D814F5F5F4F5D834C8350
:102BF000B1CF809114010E943507092FF09027066C
:102C0000E09028062091290610E4129F112D11242E
:102C1000A82FB0E0BD83AC83FC81F01718F021E051
:102C200029839DCFEC81FD81E35AFD4F80819091F6
:102C300015018923E9F0EC81FD81EE0FFF1FE753B9
:102C4000FE4F6081169FB0011124B5E07595679520
:102C5000BA95E1F780912606680F7F2D8E2D0E9490
:102C6000CF0A462F282F672F8C819D810E9434091F
:102C7000EC81FD813196FD83EC83CECF80911401F0
:102C80000E9435078983192F009126063091270667
:102C90003A83F090280660912906669566956695B8
:102CA00080912106909122060E94B20A0E94030A96
:102CB000805887FD8195880F482F5F2D459F412DB6
:102CC0001124842F602F7A810E94CF0A062FF72EBD
:102CD000E82E9981892F90E09D838C83BC81B11768
:102CE00008F007CFEC81FD81E35AFD4F8081909180
:102CF0001501892339F02E2D402F6F2D8C819D8158
:102D00000E943409AC81BD811196BD83AC83E6CFAE
:102D100088E099E00E94C80C898324CF8EED98E06A
:102D2000F9CF85EE99E00E94C20DF6CF86EC99E0CE
:102D3000FACF8BEA99E00E945C0DEECF8FE899E024
:102D4000FACF8CED98E0E6CF83ED98E0E3CF8AEC04
:102D500098E0E0CF81EB98E0DDCF83EA98E0EBCF1D
:102D60008AE89AE0E0CF8EE799E0DDCF8AE699E045
:102D7000E2CF86E798E00E940C0DCECF88E498E081
:102D8000FACF81E198E0F7CF809114010E943507D6
:102D9000192F90911601911124C06091290620E10C
:102DA000620F08F46FEF80912106909122060E9435
:102DB000B20A6AE070E00E94F230892B61F40E944E
:102DC000450AFAE48F9FC001112460911501892FF3
:102DD00090E00E94630B91E099831A3408F4C2CE0C
:102DE00026CE282F30E03D832C83E12EF12C8C81E0
:102DF0009D818E159F057CF7609115018C819D81C9
:102E00000E94630B4C815D814F5F5F4F5D834C83FC
:102E1000EECF809114010E943507192F9091160171
:102E2000911121C06091290620E1620F08F46FEF33
:102E300080912106909122060E94B20A65E070E01E
:102E40000E94F230892B61F40E94450AAAE48A9F0D
:102E5000C001112460911501892F90E00E94110E8C
:102E600051E05983BACFE82FF0E0FD83EC83E12EE7
:102E7000F12C4C815D814E155F0594F76091150131
:102E80008C819D810E94110E2C813D812F5F3F4FCF
:102E90003D832C83EECF809114010E9435078983F6
:102EA000192FF090270600912806809126068A8324
:102EB00060912906669566956695809121069091A8
:102EC00022060E94B20A0E94030A805887FD81955B
:102ED000880F682F2CE0629F612D11249A81690F61
:102EE0007F2D802F0E94CF0A062FF72EE82EB98162
:102EF000AB2FB0E0BD83AC83FC81F11708F0B8CDF7
:102F0000EC81FD81E35AFD4F808190911501892369
:102F100039F02E2D402F6F2D8C819D810E94340918
:102F2000EC81FD813196FD83EC83E6CF82E29AE06D
:102F3000F1CE80E098E0EECE809114010E9435073A
:102F4000192F40912106509122066091230670911D
:102F500024068091790390917A03A0917B03B0912C
:102F60007C0384179507A607B70708F0C2CD0E9417
:102F7000450A9AE4899FA0011124A52FBB27BD8390
:102F8000AC83FD01E35AFD4F8081909115018923A7
:102F900009F4AFCD0E94450A81FD3CC00E94450A5C
:102FA000082F0E94450AB0E88B9FC00111247FE7DB
:102FB000790F80912806602F0E94CF0A462F282F74
:102FC000672F8C819D810E9434092091290630E170
:102FD000230F08F42FEF60E1822F90E00E94B20AE5
:102FE000BC0184EF91E00E94F23080912106909123
:102FF0002206A0912306B0912406860F971FA11DDB
:10300000B11D8093790390937A03A0937B03B093CF
:103010007C036FCD80E070E000E0CDCF40915B0499
:1030200050915C0460915D0470915E048091210672
:1030300090912206A0912306B0912406841795074B
:10304000A607B70708F4F3CC80911601811120C0C0
:10305000809114010E943507092FC82ED12C43E01E
:10306000849F9001112423583C4F3D832C83C0162C
:1030700008F44EC021E029830A3408F019820A348A
:1030800008F470CD20E0402F4150550B7A0172C0FA
:1030900040E060E080E00E9431090DE713E01D820E
:1030A0001C820E94450A81FF12C0D8011C92119611
:1030B0001C92119712961C92EC81FD813196FD8332
:1030C000EC830D5F1F4FEA34F10559F7C1CF0E9421
:1030D000450AD82E0E94450AB0E88B9FC0011124F2
:1030E0007FE7790FEC80FD80EE0CFF1CEC81FD8109
:1030F000EE0EFF1E970123583C4F79016D2D8091F4
:1031000028060E94CF0AD7016D937D938C93D4CF6C
:10311000F601E35AFD4F808190911501892359F002
:10312000AC81BD8112962C9112974C9111966C91A5
:10313000C6010E943409EC81FD813396FD83EC8346
:10314000FFEFCF1ADF0A93CFFC01EE0FFF1FE80F4E
:10315000F91FE358FC4F0196DC01AA0FBB1FA80F13
:10316000B91FA358BC4F8D919D91AC9180839183E1
:10317000A2832F5F822F90E08E159F052CF30E9473
:10318000450A8701000F111F81FF21C00E0D1F1D71
:10319000F801E358FC4F1082118212820E94BC0A8F
:1031A00000912106109122062091230630912406D9
:1031B000DC01CB01800F911FA21FB31F80935B0422
:1031C00090935C04A0935D04B0935E04CBCC0E940A
:1031D000450A8A830E94450A50E8859FC001112450
:1031E0007FE7790F0E0D1F1D03581C4F6A818091D8
:1031F00028060E94CF0AD8016D937D938C93CECF81
:1032000080911601882329F040E060E080E00E9470
:103210003109809114010E9435079B83409121065A
:1032200050912206609123067091240680918204B9
:1032300090918304A0918404B0918504841795072C
:10324000A607B70708F0AEC0609126067091270662
:10325000809128060E94CF0A362E7A83282E0FE509
:1032600014E0EEE7F1E0FD83EC83AC80BD803FE04D
:10327000A30EB11C8C809D80650178011982D70155
:103280008D917D01412C612C512C882319F0422C09
:10329000632C5A80D401ED914D01F0E0DF01A35A77
:1032A000BD4F9C9180911501982331F0242D452D1F
:1032B000662DCF010E943409D601EE916D01F0E038
:1032C000DF01A35ABD4F9C9180911501982331F0E5
:1032D000242D452D662DCF010E943409F7018081F0
:1032E00031978083F981FF5FF983F63041F6D80189
:1032F00016968C91D12CF12CE12C882319F0D22C2C
:10330000F32CEA80AC81BD811696EC91F0E0DF01F0
:10331000A35ABD4F9C9180911501982331F02D2D1A
:103320004E2D6F2DCF010E943409AC81BD811896BE
:10333000EC91F0E0DF01A35ABD4F9C918091150103
:10334000982331F02D2D4E2D6F2DCF010E94340981
:103350000E94450A837091E009F090E0F80196839D
:10336000095F1F4FBD82AC8229EC31E02A153B0575
:1033700009F07BCF0E94BC0A009121061091220621
:103380002091230630912406DC01CB01800F911F90
:10339000A21FB31F8093820490938304A09384049C
:1033A000B093850441E049835B815A3408F4DACB59
:1033B0003ECB809114010E943507882EB92E809152
:1033C0001601882361F040E060E080E00E9431094E
:1033D000EBE8F4E08BE4DF011D928A95E9F7809138
:1033E0001401811115C080918704909188040E9476
:1033F000F20421E08931910508F420E0209386044D
:10340000499730F00E940D059093880480938704BB
:10341000D12CC12C00E09FE0992E25E5622E3AEADE
:10342000A32E5524539405C0EEE0EC1508F45BC0C0
:1034300000E0202F30E09D9CF0011124FD83EC83FF
:10344000E258FE4FE20FF31FE080E81408F443C097
:10345000EB1408F040C0C394F12CF701E35AFD4F80
:10346000808190911501892309F435C04C815D81DB
:1034700045575B4F420F531F5D834C83DA011C910C
:10348000312F262D321B08F430E0709127062A2DAB
:10349000210F08F42FEF40912806822F880F820F0A
:1034A0008E5F582F549F512D1124852F6A2D631B39
:1034B0000E94CF0A462F282F672FC7010E94340988
:1034C00080918604882339F0252D121B08F410E022
:1034D000AC81BD811C930F5F0F3009F0AACFD3944C
:1034E000B5E0DB12A1CFF1E0F98329E42B1508F058
:1034F00039CB9DCA9090280683E0989EA0011124A4
:1035000056954795569547955D834C835C80C92CAD
:10351000D12C8FEF90E0B6010E940631862E80916B
:103520001601882371F040E060E080E00E943109DC
:10353000EBE8F4E08BE4DF011D928A95E9F7109245
:103540008A04809189048F5F8093890410E000E0F1
:10355000EC81FD81CE1ADF0A7801612CD801A557D4
:10356000BB4F5D0180918A04862909F045C00E9405
:10357000AA31853595400CF03FC0D5019C92F701EA
:10358000E258FE4FE081EF3FE1F0D701A557BB4F76
:103590002C91F0E0521608F040C030E04C815D8183
:1035A000241B350B249FC001259F900D349F900D47
:1035B0001124B6010E94F230262F492DCF010E941E
:1035C000340963945FE0E50EF11C85E06812CACF10
:1035D0000F5F1F4F0F30110509F0BECF8091890496
:1035E000881202C01092890480918A048F5F8D3105
:1035F000F8F480938A041BCAF701E557FB4F8081DA
:10360000882309F4BCCF891508F0B9CF90918904BB
:103610008912B5CF81508083B2CF929EC001112410
:103620006C817D810E94F230462F20E060E0C6CFA1
:1036300010928A0428EB34E084E04AE954E09FEFDA
:10364000990DABE8B4E0F901843041F4DC966C915B
:10365000DC97961203C0DC969C93DC976081691519
:1036600010F090839786119631964A175B0761F7A1
:1036700081502F5031098111E4CFD9C989EF97E0EA
:103680000E945E0C49CB82EF97E0FACF80912D0625
:1036900021E0382F321B08F430E0832F69ED77E00A
:1036A0000E949E0B39CB69ED77E080E0F9CF8091E5
:1036B0002D0621E0482F421B08F440E0842F6EE9DC
:1036C00077E0EECF6EE977E0F0CF80912D0621E034
:1036D000582F521B08F450E0852F6CE677E0E0CFBE
:1036E0006CE677E0E2CF80912D0621E0382F321B87
:1036F00008F430E0832F64E577E0D2CF64E577E02B
:10370000D4CF80912D0621E0482F421B08F440E0E1
:10371000842F6EE377E0C4CF6EE377E0C6CF7720E7
:1037200009F42AC980911201823009F42DCA8091CE
:10373000140181500E9435071FC970921101832F17
:103740008370809310010E94C21283E040C980916F
:10375000D60481110E9460144091210650912206E6
:1037600060912306709124062FB7F8948091CC05C0
:103770009091CD05A091CE05B091CF052FBF841BB0
:10378000950BA60BB70B4097A105B10508F4F4C83B
:1037900010921201F1C8772009F4EEC8F5C9909192
:1037A000CA0592FB222720F9281779F080FB92F9AD
:1037B0009093CA056091C9057091CA0584E090E0B4
:1037C0000E941C3282E00E9430110895AAE0B0E00D
:1037D000ECEEFBE10C9429318E010F5F1F4F8AE064
:1037E000F80111928A95E9F793E5E92E91E0F92E17
:1037F000680128E5422E21E0522E66246394712C44
:1038000047E6842E41E0942EF70181917F018F3F9E
:1038100009F445C0F894E82FE295EF70F0E021A19B
:103820008F70A30102C0440F551F8A95E2F7CA01A9
:10383000922F982B91A392A18095892382A37894AB
:1038400000C0E8E5F1E021E030E0B12CA12C41918D
:103850004F3F09F44BC0A42FA295AF70B0E09096F3
:103860008C9190E04F7002C0959587954A95E2F74C
:1038700080FD3CC0C901A82AB92A220F331F8E1629
:103880009F0629F7F701319780818F3F11F00E9441
:10389000370E50EA5A95F1F7F601B182A082F2E0B4
:1038A000CF0ED11C4E145F0409F0AECF4AE050E0B9
:1038B000B8018AE293E00E94BA31892BE1F08AE0F4
:1038C000F801AAE2B3E001900D928A95E1F781E058
:1038D000809329030E940D0590932803809327036A
:1038E00010E0812F2A96E0E10C94453190E080E0D1
:1038F000C2CF10E01FC010912903112389F38091DA
:103900002703909128030E94F204059748F34AE0A8
:1039100050E06AE273E082E493E00E94BA31892BBE
:1039200041F38AE0EAE2F3E0A2E4B3E001900D9211
:103930008A95E1F710922903D4CF8091130188234F
:1039400059F18091C90587FF27C00E9464108093B8
:10395000B30240E250E06CEF72E082EB92E00E9432
:10396000BA31892BC1F080E2E2EBF2E0ACEFB2E0D9
:1039700001900D928A95E1F7E091C505F091C60599
:10398000309749F086E08093B2020480F581E02D03
:1039900082EB92E0099508950E9464108093AA0238
:1039A00048E050E06CE173E08AEA92E00E94BA31AC
:1039B000892B89F388E0EAEAF2E0ACE1B3E0019018
:1039C0000D928A95E1F7E091C505F091C605309713
:1039D00011F30280F381E02D8AEA92E0DBCF1092AE
:1039E000240380911301882339F18091C90587FF51
:1039F00023C0E4EBF2E08EE1DF011D928A95E9F746
:103A000090E080E00E949D0590E080E00E947805B3
:103A10001092FB020E949D1C86E0EDEBF5E0DF01B9
:103A20001D928A95E9F71092B6051092B70510928B
:103A3000B8050E94CF050895ECEAF2E086E0DCCFFD
:103A4000AAE2B0E0E6E2FDE10C9436318FED95E0BC
:103A50002091F100DC012D93CD01B5E0873E9B075D
:103A6000B9F78091E005833009F472C0B8F4813071
:103A700009F449C0823009F4B3C08091E80083FFA3
:103A80008BC28091DF059091E0059A3008F084C2E6
:103A9000E92FF0E0EC54FD4C0C941A318A3009F413
:103AA0008EC08B3009F471C0893039F78091DF0501
:103AB000813219F78091E3059091E405009711F0A8
:103AC0000297D9F68091E800877F8093E800809183
:103AD000E80082FF38C09091F3008091F2000297D5
:103AE00031F48091F100813011F0863021F4809121
:103AF000F1008093D2058091E8008B778093E800F5
:103B00000E94E503BACF8091DF05813A09F0B5CF75
:103B10008091E800877F8093E8008091E305909191
:103B2000E405892B61F468E083ED95E070E00E9484
:103B300091048091E8008B778093E8009ECF60E04D
:103B400090E080E0F3CF8091DD058111C0CF95CF6B
:103B50008091DF05813A09F090CF8091E305909143
:103B6000E405892B09F089CF8091E800877F809355
:103B7000E8008091E80080FFFCCF809113018093E2
:103B8000F1008091E8008E77B9CF8091DF05813216
:103B900009F073CF8091E3059091E405892B09F03A
:103BA0006CCF8091E800877F8093E8000E94E50356
:103BB0008091E105809313010E94EF1C5ECF8091FC
:103BC000DF05813209F059CF8091E800877F80932B
:103BD000E8000E94E5038091E2058093D1054DCF76
:103BE0008091DF05813A09F048CF8091E800877F16
:103BF0008093E8008091E80080FFFCCF8091D105A0
:103C0000BECF803899F0823809F0C6C18091E305B3
:103C10008F70873008F0C0C18093E9008091EB007D
:103C200085FB882780F91092E90006C08091DB05AA
:103C30009091DC05911182609091E800977F9093BC
:103C4000E8008093F1001092F1008091E8008E77F7
:103C50009FC1882309F48DC1823009F09DC18091F4
:103C6000E105811190C18091E3058F702FEF280F3E
:103C7000263008F091C18093E9002091EB0020FFED
:103C800082C1933031F48091EB0080628093EB002D
:103C90007AC19091EB0090619093EB0021E030E0CD
:103CA00001C0220F8A95EAF72093EA001092EA00F9
:103CB0008091EB008860EACF81116EC11091E1051F
:103CC0001F778091E3008078812B8093E3008091BF
:103CD000E800877F8093E8000E94E5038091E80078
:103CE00080FFFCCF8091E30080688093E30082E056
:103CF000111183E08093DD054FC18058823008F0B8
:103D00004BC12091E1053091E2052C3DE3E03E07F7
:103D1000A1F583E08A838AE289834FB7F894DE01B4
:103D2000139620E03EE051E2E32FF0E0509357007D
:103D3000E49120FF03C0E295EF703F5FEF708E2F9C
:103D400090E0EA30C0F0C7968D939D932F5F2431A9
:103D500059F74FBF8091E800877F8093E8006AE2BF
:103D600070E0CE0101960E9491048091E8008B776B
:103D70008093E80011C1C096E7CF8091E305909150
:103D8000E405432F55274330510509F44AC078F51F
:103D90004130510509F47AC08BE590E0E0EDF5E0A3
:103DA0004230510509F0F8C02091E800277F2093A8
:103DB000E8002091E5053091E6058217930708F4A5
:103DC0009C0140E02115310509F065C0411163C037
:103DD0008091E80082FDC9CF8091DD05882329F21A
:103DE000853019F28091E80083FFF2CFBECF4132D7
:103DF000510509F43CC04232510509F0CDC0833071
:103E0000910508F0C9C0FC01EE0FFF1FEE58FE4FF0
:103E10000190F081E02D81599E4FDC018C9190E062
:103E20001AC0332721303105D1F02115310561F059
:103E30002230310509F0B0C0EDE3F6E0E4918E2FB9
:103E400090E0EDE3F6E007C0E3E7F6E0E4918E2FC3
:103E500090E0E3E7F6E0009709F49EC0A5CFEBE51C
:103E6000F6E0E4918E2F90E0EBE5F6E0F4CF8330BE
:103E7000910508F091C0880F991FFC01E858FE4F8A
:103E80000190F081E02D89E090E08ECF82E190E01A
:103E9000EBE2F6E089CF8091DD05882309F465CF58
:103EA000853009F462CF8091E80083FD5ECF809178
:103EB000E80082FD8DCF8091E80080FF83CF909154
:103EC000F3008091F2002115310519F08830910539
:103ED00050F041E0089709F040E08091E8008E77CB
:103EE0008093E8006FCF44914093F10031962150C8
:103EF00031090196E8CF803809F04EC08091E80082
:103F0000877F8093E8008091DE058093F1009DCE4D
:103F1000811142C01091E1051230F0F58091E80066
:103F2000877F8093E8001093DE050E94E50311234C
:103F300011F084E005C08091E30087FDFACF81E0B5
:103F40008093DD0542E061EC81E00E94040442E2DE
:103F500061EC84E00E94040442E261EC82E00E9491
:103F6000040442E260EC83E00E9404048091DD05D9
:103F700013C08091E105813079F481E0933009F03C
:103F800080E08093DC051092E9008091E800877F53
:103F90008093E8000E94E5038091E80083FF0AC057
:103FA0008091E800877F8093E8008091EB00806239
:103FB0008093EB00AA96E3E00C9452310E94EF1C30
:103FC0002FEF84E39CE0215080409040E1F700C057
:103FD000000088E19CE00FB6F894A89580936000FB
:103FE0000FBE90936000FFCF882321F00E945D10E8
:103FF0000E949D1C0895882339F090912403982BEA
:10400000909324030E949D1C0895882381F19CEFC6
:10401000980F913A28F40E9419050E949D1C08955A
:1040200090E2980F983050F4877091E001C0990F9A
:104030008A95EAF7892F0E945D10EFCF9BE5980FD4
:10404000933028F490E080E00E949D05089598E563
:10405000980F9B3128F490E080E00E947805089545
:1040600093E3980F933118F460E00E94561108957D
:10407000CF93C82F8823B1F18CEF8C0F813AA0F534
:1040800080911301882301F18091C90587FF1CC02D
:10409000EC2FE695E695E695F0E0EE54FD4F828133
:1040A00090E04C2F477021E030E002C0220F331F18
:1040B0004A95E2F782239323892B79F08C2F0E9473
:1040C00019050E949D1C09C0ECEAF2E08191C81715
:1040D000A9F382E0E23BF807C9F78C2F0E94440560
:1040E0000E949D1CCF91089580E28C0F883068F467
:1040F000C77021E030E001C0220FCA95EAF7809135
:104100002403822B80932403EBCFEBE5EC0FE33009
:1041100040F4F0E0E65EFE4F808190E00E949D0555
:10412000E1CFE8E5EC0FEB3150F4F0E0EE0FFF1FCC
:10413000E35EFE4F808191810E947805D3CF83E3B7
:104140008C0F833178F661E08C2F0E945611CACF14
:104150001F93CF93DF93182FEB010E9438202097F5
:1041600039F4812F0E940520DF91CF911F9108958E
:104170008FE99FE00197F1F700C000002197EFCF92
:104180000F931F93CF93DF93C62FD42F022FFC01E1
:1041900085818823A9F0609358060E940D059093AD
:1041A000570680935606C77081E001C0880FCA95F4
:1041B000EAF70E94FB1FDF91CF911F910F910895A5
:1041C00080915806681334C0809156069091570626
:1041D0000E94F204883C910558F510E21D0FCD179E
:1041E000B9F080E28C0F883040F4C77081E001C0E4
:1041F000880FCA95EAF70E94F41F183048F481E04E
:104200009D2F977001C0880F9A95EAF70E94FB1FB7
:1042100070E060E0802F0E94A820183060F6D77010
:1042200081E001C0880FDA95EAF70E94F41FC3CF3E
:10423000C77081E001C0880FCA95EAF7F6CFA8E001
:10424000B0E0E5E2F1E20C9429318C01DC01149636
:104250008C911497882309F4BEC021E04C911196EB
:104260005C91119712966C91129713967C9113970B
:1042700015969C910E943B147C01F801858188234E
:1042800009F448C1C70197578038910508F06FC5F8
:10429000FFE0FE1508F48FC08FEF93E00E94E0313D
:1042A000811189C060E8A62E62E0B62EE1104DC0F3
:1042B000FE01339686E0DF011D928A95E9F75AE008
:1042C000452E7501BFEFEB1AFB0AC5010E94E031D4
:1042D00089831A82882309F46EC0813009F07FC077
:1042E0006501E2E0CE0ED11CC7010E94E0318A8355
:1042F000882309F460C09FEF980F9330A0F5F3E096
:10430000AF0EB11CC6010E94E0318B83882309F4F3
:1043100052C01C82DE0111967D01F701208122230B
:1043200081F2213009F09DC091818281913009F0A4
:1043300058C0F2E0EF0EF11C70E060E0893311F438
:1043400060E570E00E94A82053C0A11424E0B206EA
:1043500091F1C5010E94E031811101C0EA943FEF63
:10436000A31AB30AA3CF56018430A1F642E0E42E8B
:10437000F12C56012FEFA21AB20AC6010E94E031B9
:10438000E1E0F0E0EC0FFD1FEE0DFF1D80838823C0
:1043900091F08C3741F4E2E0F0E0EC0FFD1FEE0D00
:1043A000FF1D1082B7CF3FEFE31AF30A650187E0E4
:1043B000E816F104F1F68091F902877061F0D801F6
:1043C00015968C91882339F08091CA0582FF03C02D
:1043D00082E00E9430112896E0E10C9445315701AB
:1043E00099CF923049F422E0E20EF11C0E9438206D
:1043F0009FEFE91AF90A91CF933031F432E0E30EDE
:10440000F11C0E940520F4CF943021F08FEFE81AC0
:10441000F80AEECF92E0E90EF11C30E020E0B7019F
:104420006F5F7F4FD70111964C918053990B8A3063
:10443000910560F021153105D9F2EFE9FFE03197E0
:10444000F1F700C0000021503109F4CF429EF00185
:10445000439EF00D11249C012E0F3F1F842F7B01E2
:10446000DECFE22FF0E0E850FE4F5490822F869589
:104470008695869590E0FC01E851FE4F6490277088
:10448000712C022E02C0759467940A94E2F7F1E051
:104490006F227724FC01E852FE4F8490912C022E6B
:1044A00002C0959487940A94E2F731E0832299241C
:1044B000FC01E853FE4FC490D12C02C0D594C794A0
:1044C0002A95E2F781E0C822DD246114710419F015
:1044D00081EE0E9438208114910419F086EE0E942A
:1044E000382070E060E0852D0E94A820811491049E
:1044F00019F086EE0E9405206114710419F081EE16
:104500000E940520C114D10409F472CF70E060E06C
:104510008CE218CFF701E851FC47E730F10508F0CD
:1045200012C4E254FD4C0C941A3126E241EE61EEC5
:10453000C8010E94C0203FCF27E245EE65EEF8CFCC
:1045400026E241EE60EEF4CF27E245EE64EEF0CFD6
:1045500026E241EE62EEECCF27E245EE66EEE8CFD2
:1045600028E241E0EBCF8091C90581608093C905C5
:1045700095C08091CA0588608093CA058FC08091DC
:10458000C9058260F3CF8091C9058460EFCF809127
:10459000C9058860EBCF8091CA058160EDCF80911D
:1045A000CA058260E9CF8091C9058061DFCF809123
:1045B000C9058062DBCF8091C9058064D7CF0E9496
:1045C000EF1C8091C9058068D1CF8091C9058C60AE
:1045D000CDCF8091CA058360CFCF8091C9058E7FF2
:1045E000C5CF8091CA05877FC7CF8091C9058D7FD0
:1045F000BDCF8091C9058B7FB9CF8091C905877FD9
:10460000B5CF8091CA058E7FB7CF8091CA058D7FC7
:10461000B3CF8091C9058F7EA9CF8091C9058F7DC9
:10462000A5CF8091C9058F7BA1CF0E94EF1C8091FF
:10463000C9058F779BCF8091C905837F97CF8091E4
:10464000CA058C7F99CF8091C90582FB992790F983
:1046500021E0922790FB82F990FB83F987CF80912C
:10466000CA05982F909591708E7F892B90FB81F9C8
:1046700083CF9091C905892F8F7B96FF806476CF79
:104680000E94EF1C9091C905892F97FB87F98058EC
:104690006DCF61E08EE090E00E94FE316091C9052F
:1046A0007091CA0584E090E00E941C320E94EF1CC9
:1046B00082CE60E0EFCF9091C905892F8F7E94FF65
:1046C000806154CF9091C905892F8E7F90FF8160C2
:1046D0004DCF9091CA05892F877F93FF88604CCF7B
:1046E00085E32CC38091D202811104C089E20E942B
:1046F000190526C385E3FBCFA7E7EA16ACE7FA0660
:1047000009F0F0C281E00E94471143E062E081E0DD
:104710000E94031150CE8091250691E08927809355
:104720002506109212018091D60481608093D604F0
:1047300042CE4EE157E069E277E00E9446063BCE6A
:1047400049E257E06EE177E0F8CF4FEE56E06AEFCE
:1047500076E0F3CF4AEF56E06FEE76E0EECF43ED32
:1047600056E061EE76E0E9CF41EE56E063ED76E0AB
:10477000E4CF47EB56E065EC76E0DFCF45EC56E062
:1047800067EB76E0DACF48E856E066E976E0D5CF29
:1047900046E956E068E876E0D0CF61E081E00E942B
:1047A000050709CE61E085E0FACF61E08DE0F7CF43
:1047B00061E082E1F4CFB7E7EB16BCE7FB0609F452
:1047C0005AC0E8E7EE16ECE7FE0609F45AC0F80115
:1047D0008581E080F180882309F487C0C7010E94A9
:1047E000DC13D82E682FC7010E94C910B7018D2D88
:1047F0000E94CE130E943F0F7C01882ED80115968F
:10480000AC90159716969C9092943FE093228091DD
:10481000F902877009F1CA2CAA20F9F08F2D807F48
:10482000803469F080E28E0D8830B0F08F2D807E6C
:10483000803229F4B1E0BE1578F4992069F08091B6
:10484000CA0582FF09C082E00E9430118091F902FE
:104850008770CC24C3948111C12CBF2CB2942FE05B
:10486000B222EBE0EB1508F4A8C0EB2DF0E0EB531F
:10487000FD4C0C941A3181E00E94231146CF82E056
:1048800042CF82E0F9CF9BE5E9169CE7F90659F1A2
:10489000ACE5EA16ACE7FA06E1F0BAE5EB16BCE7E0
:1048A000FB0609F094CF81E01BC00E94EF1CEFEFE4
:1048B000F4E32CE0E150F0402040E1F700C00000BC
:1048C0000E949E126FEF7FEF90E080E00E941C320A
:1048D00022C28091CA0582FB882780F991E089274E
:1048E0000E94CF1B74CF80E0FBCFC7010E949510C0
:1048F000D82E7CCFFF2DFF70DF2E8F2D807F19F0FB
:10490000D29490EFD922AA20B9F0DD2069F080E29C
:104910008E0D883010F0811009C080912403D82AB0
:10492000D09224030E949D1C8E2D45C08091FB02D5
:10493000D82AD092FB02F6CF8E2D0E940520DD20D2
:10494000E1F180E28E0D883010F0811004C08D2DD1
:104950000E945D1006C0D0948091FB02D822D092B4
:10496000FB020E949D1C29C02F2D2F70D22E8F2D4F
:10497000807F803219F0D29480EFD822882059F0BD
:1049800031E0831609F47AC0AA2009F486C0992080
:1049900009F448C0C9CF8091CA0582FD3FC0AA2052
:1049A000B9F1DD2039F080912403D82AD092240374
:1049B0000E949D1C80E00E9438202B2D2850330B34
:1049C0002430310510F40E94C205CC20B1F0809152
:1049D000F90280FD12C0D80115961C928695869525
:1049E00086950E944711C8010E941F218091F902FB
:1049F0008695869586950E94231120E0F8014081D6
:104A0000518162817381848195810E943B14E3CC42
:104A100080E00E940520DD2081F299CFAA20A1F03C
:104A2000911004C08D2D0E94FB1FC7CF81E098120A
:104A3000C4CF8091FA029D2D9823D91609F4BDCFD9
:104A4000D82AD092FA02B9CF9110B7CF8D2D0E94FB
:104A5000F41F9091FA028D2D892329F08D2D8095D8
:104A600089238093FA028091D3029D2D982309F423
:104A7000A4CFD094D822D092D3029FCFAA2029F0DD
:104A800095E0991508F499CFCDCFA4E0A91508F4C5
:104A900094CF8D2D0E94F41F90CF9920D1F3B9E3CC
:104AA0008B1209C0EFEFF7EE23E0E150F040204019
:104AB000E1F700C000008E2D0E9405207ECF8F2DD3
:104AC00086958695837061F0813009F076CFC701B5
:104AD0009370A11002C080E090E00E9478056DCF35
:104AE000C7019370A11002C080E090E00E949D0574
:104AF00064CF6A2D8E2D0E9456115FCF8F2D83704B
:104B000091F5A1105ACF4E2D429546954770440F0E
:104B1000440F8E2D8F70042E01C0880F0A94EAF77F
:104B20002E2D2071E4FE07C02FE030E001C0220FDF
:104B30004A95EAF720953F2D3695369533703230F9
:104B400069F050F440913403313029F0822B8423F2
:104B50000E94531132CF842B822BFACF282B8091C5
:104B600034038227F5CF8695AA2011F08F2D81700E
:104B7000882309F422CF4E2D429546954770440F65
:104B8000440F8E2D8F70042E01C0880F0A94EAF70F
:104B90002E2D2071E4FE07C02FE030E001C0220F6F
:104BA0004A95EAF720953F2D369536953370323089
:104BB00069F050F440913503313029F0822B842381
:104BC0000E940011FACE842B822BFACF282B8091E1
:104BD00035038227F5CF3F2D3F70F32EAA2029F011
:104BE000832F0E9447118E2D1ECF8E2D0E94F41F01
:104BF0008F2D0E942311E1CE8E2D92EF8916B1F1F7
:104C0000981570F0A0EF8A16D1F0B1EF8B1691F0E5
:104C1000AA2009F457C0911087CE8F2D8F712AC01A
:104C2000E3EF8E1651F1F4EF8F12F2CF9091CA0597
:104C300092FD2FC08F2D8F71AA20D9F21BC0AA2000
:104C400081F024E0291508F4B8CE2F2D2F7181E0D2
:104C500090E001C0880F2A95EAF7909135038927E3
:104C6000AFCF35E0391508F4A8CEEFCF8F2D8F7177
:104C7000A110BFCF0E944711A0CE80E0AA2009F466
:104C80009FCF9F2D9F7181E001C0880F9A95EAF711
:104C900097CFAA2061F08F2D8F7192FFEBCF98E014
:104CA000899F9001112423602093F902E3CF81E0D2
:104CB0000E943011A1E0A91508F07FCE82E00E9489
:104CC00030117BCE992059F0893309F0F4CEBFEF33
:104CD000E7EEF3E0B150E040F040E1F7EACE8F2D8F
:104CE0008F7187CFF8E7EF16FCE7FF0609F4C7CD11
:104CF000F3E0EF16FCE7FF0609F4E4CD08F0C3CDBE
:104D0000E1143CE7F30609F4D0CD81E0E8168CE726
:104D1000F80609F05CCD0E94DE1F26E1E2162CE7C2
:104D2000F20609F0E9CC809124038A7A91E009F433
:104D300090E09093D2028111D3CC89E20E94440585
:104D40000E949D1C38CB36E1E3163CE7F30609F4DC
:104D5000C9CC809124038272F701E052F847E53113
:104D6000F10508F028CDEF52FD4C0C941A31F701F3
:104D7000E851FC47E730F10508F4D3CB1092580610
:104D8000C7019057839748F684E090E00E94E8318D
:104D90009093CA058093C905F701E150F047E232CC
:104DA000F10508F0E0CBEA51FD4C0C941A31CF9399
:104DB000DF938091F802807F09F04DC08091F70267
:104DC000882309F448C0E09120065091E705C0917E
:104DD000F302D091F2026091F4027091F50247E083
:104DE0005E17C9F18E2F90E0E49FF0011124E85185
:104DF000FA4F2481222391F1489FF001499FF00D41
:104E00001124DF01A851BA4F11962C9111972C1340
:104E100025C02C912D1322C015962C911597211188
:104E20001DC012962D913C91261B370B283C310555
:104E3000A8F48091F8028F7080618093F802E251AB
:104E4000FA4F80818F708061808382EF92E00E94B0
:104E50001F210E948B10DF91CF910895FC013196A4
:104E6000E770BECFA4E1B0E0E8E3F7E20C942D31A7
:104E70008C0186E0F801DE011F9601900D928A9563
:104E8000E1F7F8018481E58092EFA92E92E0B92E36
:104E90009091F602911128C0882319F1EE20F1F0CB
:104EA000C8010E941814F82E8823C1F087E0F80189
:104EB000D50101900D928A95E1F78091F60281303B
:104EC00031F48091F2029091F3020E940B140E943F
:104ED000D7268F2D6496ECE00C944931C8010E94CE
:104EE0001F21FF24F394F5CFD080C180828093806E
:104EF000F090F7022091F4023091F502A401421BD8
:104F0000530BFF2009F4D9C0483C510508F092C06A
:104F10008823F9F29091F3028091F802282F207FE4
:104F200009F056C0C91214C09091F202D91210C0F3
:104F3000E11048C08F7080618093F80282EF92E0A8
:104F40000E941F218091F802F8018683F12CC1CFC5
:104F5000E11038C06C2D8D2D0E9476036C2D8D2DA7
:104F60000E947603E82E8111F1CFDF86C88A8F85F3
:104F700098890E940B14292F22952F70243058F401
:104F80009F70223088F0992399F0F8019681907FE4
:104F900079F4FE2C9ECF2A5F2F70223068F0C80172
:104FA0000E941F21EF2CF5CF992311F0882389F35C
:104FB000805E883070F3F3CF803F58F3815F833099
:104FC00070F7E7CF8091F80281608093F802BECF3E
:104FD000C91207C09091F202D91203C0EE2009F461
:104FE0008DC0C8010E941814882309F477CFEE20E1
:104FF00009F474CF8091F802803288F02091F20297
:105000003091F302398728879B868A869091F60231
:105010009C871D868E87CE0108960E941F2187E0FF
:10502000F801A2EFB2E001900D928A95E1F70E949B
:10503000D72657CF9091F802292F207F51F482EF85
:1050400092E00E941F2187E0F50111928A95E9F70D
:105050007DCF882309F43DCF8091F3028C1110C0DD
:105060008091F202D8120CC0E1100AC09683C801E8
:105070000E941F2187E0F50111928A95E9F729CF57
:10508000C8010E941814882309F428CFEE2009F4DF
:1050900025CF8091F802803210F22091F2023091F7
:1050A000F3023A8329839C828B829091F6029D833E
:1050B0001E828F83CE010196B0CF483C5105D0F6B9
:1050C000882309F40ECFFE2CEE2009F407CF80913F
:1050D000F3028C1120C08091F202D8121CC0809182
:1050E000F80280FD0FC0982F907F61F08683903F7B
:1050F00031F0982F907F905F8F70892B8683C80145
:105100000E941F2187E0F801A2EFB2E001900D920A
:105110008A95E1F7DECEC8010E94181481117FCF75
:105120008091F80281608093F802C8010E941F21DB
:10513000D0CEABE1B0E0EFE9F8E20C9435314E8B24
:105140005F8B688F798F8A8F9B8F192F91111092A7
:10515000FB021D8A86E0FE017696DE011F96019015
:105160000D928A95E1F70A8D002341F021E04F85E9
:10517000588969897A89C8010E943B140B8B1C8B62
:1051800087E0FE013F96DE01189601900D928A9508
:10519000E1F7CE0108960E94322781112AC087E0EC
:1051A000FE013896DE01119601900D928A95E1F785
:1051B0008C858823F1F02091E70530E0C901019644
:1051C000877099274091200648171906E9F097E063
:1051D000929FD001939FB00D1124A851BA4FFE01A8
:1051E000319601900D929A95E1F78093E7050E9420
:1051F0008B1017E0809120069091E705891312C06B
:105200006B96E4E00C9451310E94EF1C1092E7057C
:105210001092200687E0E2EFF2E0DF011D928A950E
:10522000E9F7E7CF819FC001112488519A4F0E946E
:105230003227882329F38091200690E00196877019
:10524000992780932006D6CFA6E0B0E0EAE2F9E203
:105250000C9435310E940D058C01809125039091AD
:1052600026038017910781F019821A820E940D058A
:10527000682F49815A81792F80E090E00E94992817
:1052800010932603009325032696E4E00C945131F5
:105290001F920F920FB60F9211242F933F934F93AB
:1052A0005F936F937F938F939F93AF93BF93CF93AE
:1052B000DF93EF93FF93D091E900DF708091EC00D2
:1052C000C82FC17080FDC0E81092E9008091F00005
:1052D000877F8093F00078940E94201D1092E9004F
:1052E0008091F00088608093F000CD2BCF70C09348
:1052F000E900FF91EF91DF91CF91BF91AF919F9125
:105300008F917F916F915F914F913F912F910F906E
:105310000FBE0F901F9018951F920F920FB60F920D
:1053200011242F933F934F935F936F937F938F93AA
:105330009F93AF93BF93EF93FF938091E10082FF20
:1053400009C08091E20082FF05C08091E1008B7F5F
:105350008093E1008091DA0080FF24C08091D80022
:1053600080FF20C08091DA008E7F8093DA008091E8
:10537000D90080FF9DC080E189BD82E189BD09B46B
:1053800000FEFDCF81E08093DD058091D005811185
:1053900009C00E9495030E9436048091E200846057
:1053A0008093E2008091E10080FF17C08091E200CD
:1053B00080FF13C08091E2008E7F8093E200809195
:1053C000E20080618093E2008091D8008062809347
:1053D000D80019BC85E08093DD058091E10084FF51
:1053E0002BC08091E20084FF27C080E189BD82E16B
:1053F00089BD89B5982F917080FFFBCF8091D8002F
:105400008F7D8093D8008091E1008F7E8093E100B2
:105410008091E2008F7E8093E2008091E2008160C3
:105420008093E2008091DE05882309F447C084E080
:105430008093DD058091DD058091E10083FF27C029
:105440008091E20083FF23C08091E100877F8093F9
:10545000E10082E08093DD051092DE058091E1009D
:105460008E7F8093E1008091E2008E7F8093E20046
:105470008091E20080618093E20042E060E080E0A1
:105480000E9404048091F00088608093F000FF91F6
:10549000EF91BF91AF919F918F917F916F915F91AC
:1054A0004F913F912F910F900FBE0F901F90189525
:1054B00019BC1092DD051092D00574CF8091E300E5
:1054C00087FD93E09093DD05B5CF78941F921FB6CA
:1054D0001F9211248F939F93AF93BF938091CC051C
:1054E0009091CD05A091CE05B091CF050196A11D5B
:1054F000B11D8093CC059093CD05A093CE05B093BC
:10550000CF05BF91AF919F918F911F901FBE1F90AC
:1055100018951F921FB61F9211248F939F93AF93DC
:10552000BF938091CB05811113C08091CC059091E0
:10553000CD05A091CE05B091CF054196A11DB11D1D
:105540008093CC059093CD05A093CE05B093CF0565
:10555000BF91AF919F918F911F901FBE1F90189583
:10556000CDB7DEB7E3970FB6F894DEBF0FBECDBF61
:1055700085B7806885BF85B7806885BF84B7877F1A
:1055800084BF0FB6F894A8958091600088618093DD
:105590006000109260000FBE80E890E00FB6F894B3
:1055A00080936100909361000FBE85E39EE090932D
:1055B000A9028093A8020E9495030E94360480915C
:1055C000E20084608093E20078948091DD05882376
:1055D000A1F01091E9001F709091EC00892F81706B
:1055E00090FD80E8182B1092E9008091E80083FD7F
:1055F0000E94201D1F701093E90082E084BD93E09B
:1056000095BD9AEF97BD80936E000E94861381111D
:1056100002C00E94761303E511E058E5E52E51E043
:10562000F52ED8018D918D018F3F11F00E94370E1C
:10563000E016F106B1F708E511E047E6E42E41E097
:10564000F42EF80181918F018F3F11F00E94370EE7
:10565000E016F106B1F78AE0E2E4F3E0DF01282F7B
:105660001D922A95E9F7EAE2F3E0DF011D928A959F
:10567000E9F790E080E00E94E831853E9E4F21F4FA
:105680000E948613811163C065EE7EEF90E080E09A
:105690000E941C3260E082E090E00E94FE3181E0D6
:1056A0008093340361E083E090E00E94FE3160E08B
:1056B00074E184E090E00E941C3260E086E090E0BB
:1056C0000E94FE3160E087E090E00E94FE3140E001
:1056D00050E0BA0188E090E00E94103260E083E27E
:1056E00090E00E94FE3160E08CE090E00E94FE318C
:1056F00060E08DE090E00E94FE3119821A821B82E8
:105700001C821D821E821F82188648E050E067E1DD
:1057100070E0CE0101960E94EE3140E050E0BA0107
:105720008FE190E00E94103280E00E94EE120E9411
:10573000761340E050E0BA018FE090E00E94103212
:1057400040E050E0BA0183E190E00E94103282E034
:1057500090E00E94E0318093360384E090E00E9464
:10576000E8319093CA058093C9050E94E61BEFEFCC
:10577000F6E721E0E150F0402040E1F700C00000F2
:105780000E94E61B8091420380FF08C06FEF7FEF0D
:1057900090E080E00E941C320E949E1283E090E024
:1057A0000E94E0310E9453110E94840610922D063F
:1057B0008FEF9FEF9093470680934606909349069C
:1057C0008093480690934B0680934A0690934D062B
:1057D00080934C0690934F0680934E06909351060B
:1057E00080935006909353068093520690935506EB
:1057F0008093540610924C03909366038093650344
:10580000909368038093670390936A03809369037E
:1058100090936C0380936B0390936E0380936D035E
:105820009093700380936F0390937203809371033E
:10583000909374038093730381E08093D60448E0CF
:1058400050E067E170E085E296E00E94D03110926E
:10585000D604809125068C7FB9F489E180932506D2
:105860008091170190911801A0911901809326064B
:1058700090932706A09328068FE7809329068FEF41
:1058800080932A060E9460148091C90580688093E5
:10589000C9056091C9057091CA0584E090E00E9435
:1058A0001C3284E091E09093C6058093C5058091F9
:1058B000DD0510E400E132E1F32E853009F4E1C0AA
:1058C0000E94E61BA7E3B3E0BAA7A9A7E2E4F3E0CE
:1058D000FDA7ECA7DF01E7E3F3E0219131918D9182
:1058E0009D9141E453E04E175F0709F4D4C0281797
:1058F000390799F3712C612CF12CACA5BDA52D9025
:105900003D90BDA7ACA7E9A5FAA581919191FAA711
:10591000E9A78215930509F442C26301E12C4424EE
:105920004394512C9C01222533253FA72EA78EA5F9
:105930009FA584219521892B09F423C2410184204C
:105940009520E9A2FAA20E940D059CA38BA331E049
:105950003DA391E08114910409F490E09EA349A134
:105960005AA16BA17CA18DA10E9499288114910458
:1059700039F0F601E258FE4F80818F3F09F09AC15D
:105980001FA25FA1052F10E080914C03800F912F83
:10599000911D099774F1B8E0AB2EB12CA01AB10A91
:1059A000B801635B7C4FA5018DE493E00E94C73191
:1059B000B8016B5A7C4FA50185E593E00E94C73181
:1059C000A501440F551FB801660F771F6B597C4F17
:1059D00085E693E00E94C731B801635A7C4FA50168
:1059E0008DE593E00E94C73188E09FA1891B8093D9
:1059F0004C0380914C0390E0EBA5AE2FB0E09D01ED
:105A0000220F331F27533E4FAA0FBB1FBD01665302
:105A10007E4F69C18091DD05843029F10E946B14AD
:105A20001092CB0548E150E00FB6F894A89540934A
:105A300060000FBE1093600083B7817F846083BFD6
:105A400083B7816083BF7894889583B78E7F83BF47
:105A50000FB6F894A89580916000886180936000EB
:105A6000109260000FBE0E94E61BE2E4F3E0819119
:105A70009191892B09F083C38CE493E08E179F07E3
:105A8000B1F78091DD05853009F4C4CF0E94EF1C89
:105A90000E94C20515CF2817390709F02BCF0E94A5
:105AA00024290E946B1486E0EDEBF5E0DE011196EF
:105AB00001900D928A95E1F7D090BE05F090BF0558
:105AC0001091C005E090C1050091C2051092BF057C
:105AD0001092C0051092C1051092C205812F8F2926
