:100000000C94D3030C940B040C940B040C940B046D
:100010000C940B040C940B040C940B040C940B0424
:100020000C940B040C940B040C941C1F0C94D81E01
:100030000C9419200C940B040C940B040C940B04DA
:100040000C940B040C940B040C940B040C940B04F4
:100050000C940B040C94F51F0C940B040C940B04DF
:100060000C940B040C940B040C940B040C940B04D4
:100070000C940B040C940B040C940B040C940B04C4
:100080000C940B040C940B040C940B040C940B04B4
:100090000C940B040C940B040C940B040C940B04A4
:1000A0000C940B040C940B040C940B040501090232
:1000B000A10185020901A1000509190129081500FE
:1000C0002501950875018102050109300931158165
:1000D000257F95027508810609381581257F9501D0
:1000E00075088106050C0A38021581257F95017572
:1000F000088106C0C005010980A101850319012AF4
:10010000B700150126B700950175108100C0050CD8
:100110000901A101850419012AA002150126A002E6
:10012000950175108100C00660FF0961A101096297
:10013000150026FF00952075088102096315002629
:10014000FF00952075089102C005010906A101056F
:100150000719E029E7150025019508750181029529
:1001600001750881010507190029FF150026FF0008
:100170009506750881000508190129059505750181
:100180009102950175039101C0000000000000007C
:10019000000000000000000000000000000000005F
:1001A000000000000000000000000000007E0F00C2
:1001B000D4FFFFFFC700000078000000000000002F
:1001C000002A2B28000000000000000000000000B2
:1001D0000000000029000000002C1E3420212224F1
:1001E000342627252E362D3738271E1F202122237F
:1001F0002425263333362E37381F04050607080911
:100200000A0B0C0D0E0F10111213141516171819D6
:100210001A1B1C1D2F3130232D3504050607080934
:100220000A0B0C0D0E0F10111213141516171819B6
:100230001A1B1C1D2F3130354C1E0F0500047F3F4B
:100240001F643214643214783C1E1E140A05000127
:100250000101010101010101020202020202020286
:100260000203030303030303030404040404040458
:10027000050505050506060606060707070707081C
:10028000080808090909090A0A0A0B0B0B0C0C0CCF
:100290000D0D0D0E0E0E0F0F0F1010111111121269
:1002A00013131414151516161717181819191A1AE6
:1002B0001B1B1C1D1D1E1E1F202021222223242447
:1002C000252626272829292A2B2C2D2D2E2F303183
:1002D0003232333435363738393A3B3C3D3E3F4095
:1002E0004142434445464748494A4C4D4E4F505180
:1002F0005354555658595A5B5D5E5F61626465663A
:1003000068696B6C6D6F7072737577787A7B7D7EC0
:100310008082838587888A8C8E8F91939596989A10
:100320009C9EA0A2A3A5A7A9ABADAFB1B3B5B7BA28
:10033000BCBEC0C2C4C6C9CBCDCFD1D4D6D8DBDDFC
:10034000DFE2E4E7E9EBEEF0F3F5F8FAFDFFFFAAF0
:100350007F55402223252628292A2C2D2F30323361
:100360003536383A3B3D3E4042434547494A4C4E7C
:100370005051535557595A5C5E6062646668696BA8
:100380006D6F71737577797B7D7F81838587898AAE
:100390008C8E90929496989A9C9E9FA1A3A5A7A8B4
:1003A000AAACAEAFB1B3B4B6B8B9BBBCBEBFC1C2E4
:1003B000C3C5C6C7C9CACBCCCDCED0D1D2D2D3D477
:1003C000D5D6D7D7D8D9D9DADADBDBDBDCDCDCDC95
:1003D000DCDDDDDDDDDCDCDCDCDCDBDBDBDADAD963
:1003E000D9D8D7D7D6D5D4D3D2D2D1D0CECDCCCBE5
:1003F000CAC9C7C6C5C3C2C1BFBEBCBBB9B8B6B403
:10040000B3B1AFAEACAAA8A7A5A3A19F9E9C9A9892
:10041000969492908E8C8A89878583817F7D7B7963
:10042000777573716F6D6B6968666462605E5C5A44
:100430005957555351504E4C4A4947454342403E07
:100440003D3B3A3836353332302F2D2C2A29282699
:100450002523223A003B00167C1E001F00200021AD
:10046000002200230024002500260027002D002E56
:100470000035002A003C003D002B0014001A000843
:1004800000150017001C0018000C00120013002FAC
:100490000030003100A9003E003F00390004001682
:1004A00000070009000A000B000D000E000F0033CA
:1004B0000034002800AA00000040004100E10031A3
:1004C000001D001B00060019000500110010003679
:1004D0000037003800E500A800520042004300E069
:1004E00000E300E200215200002C00000000002C7C
:1004F000000000E600500051004F00AB00440045F2
:1005000000007C1E001F0020002100220023002488
:10051000002500260027002D002E0035002A006847
:100520000069002B0014001A000800150017001CB9
:100530000018000C00120013002F0030003100A939
:10054000006A006B00390004001600070009000A69
:10055000000B000D000E000F00330034002800AA2D
:100560000000006C006D00E10031001D001B000662
:10057000001900050011001000360037003800E5B2
:1005800000A80052006E006F00E000E300E20001EE
:100590000000002C00000000002C000000E60050CD
:1005A0000051004F00AB00010001000100010001FB
:1005B0000001000100010001000100010001000133
:1005C0000001000100010001000100010001000123
:1005D0000001000100010001000100010001000113
:1005E0000001000100010001000100010001000103
:1005F00000010001000100010001000100010001F3
:1006000000010001000100010001000000010001E3
:1006100000010001000100010001000100010001D2
:1006200000010001000100010001000100010001C2
:10063000000100E0000100010001000000010000D5
:1006400000000001000000010001000100010001A4
:100650000001000100010001000100010001000192
:100660000001000100010001000100010001000182
:100670000001000100010001000100010001000172
:100680000001000100010001000100010001000162
:100690000001000100010001000100010001000152
:1006A0000001000100010001000100010001000142
:1006B0000001000100000001000100010001000133
:1006C0000001000100010001000100010001000122
:1006D00000010001000100010001000100E0000133
:1006E0000001000100000001000000000001000006
:1006F000000100010001000100010009025B00038C
:100700000100A0FA09040000010301010009211100
:1007100001000122400007058103080001090401CE
:10072000000203000000092111010001222200073C
:1007300005820320000107050303200001090402CC
:10074000000103000000092111010001227B0007C4
:100750000584032000011201000200000008444348
:1007600035530100010200011A03530075006E00A9
:100770007300650074007400650072002000520070
:10078000320000001C034300680061007200750025
:1007900065002000440065007300690067006E007A
:1007A00000000403090411241FBECFEFDAE0DEBF0E
:1007B000CDBF04B603FE18C08091EA029091EB020F
:1007C000A091EC02B091ED028730904BA740B04B66
:1007D00059F41092EA021092EB021092EC0210927D
:1007E000ED02E0E0F8E3099522E0A0EAB1E001C003
:1007F0001D92AA3EB207E1F711E0A0E0B1E0E0EF00
:10080000FFE402C005900D92A03AB107D9F70E940B
:1008100040200C948F270C940000E8EDF0E08081DC
:100820008E7F80831092E2001092DA001092E10035
:10083000A0EEB0E08C9181608C9380818F77808373
:1008400019BCA7EDB0E08C918E7F8C9380818F7E58
:1008500080831092CF0208952091E4003091E5004A
:1008600095E6A9012091EC00822F817020FF06C03F
:100870008091E80080FF06C080E008952091E800A4
:1008800022FD1AC08091DC02882389F0853089F02E
:100890008091EB0085FD0FC02091E4003091E500D0
:1008A00042175307F9F29150E1F684E0089582E08F
:1008B000089583E0089581E008958091DE0287FF26
:1008C00013C08091E80082FF06C08091E8008B771A
:1008D0008093E80004C08091DC028111F2CF08957A
:1008E0008091DC028823D9F38091E80080FFF8CF63
:1008F0008091E8008E77ECCF982F9093E900242F19
:10090000762F50E0891731F07091EC002091ED00C6
:100910005091F00021FD07C09F5F973071F78093E1
:10092000E90081E008953091EB003E7F3093EB00C9
:100930003091ED003D7F3093ED003091EB00316060
:100940003093EB007093EC002093ED005093F00097
:100950002091EE0027FDE0CF80E00895B0E0A0E018
:10096000E4EBF4E00C944126C8EDD0E088818F7E62
:100970008883E7EDF0E080818160808384E082BF3E
:1009800081E08093CF0288818E7F888302EE10E021
:10099000F80110821092DA0081EEC82ED12CF601F7
:1009A000108288818F778883888180688883888196
:1009B0008F7D888319BC1092DC021092DD021092A8
:1009C000DB021092DA0290EEE92EF12CF701808121
:1009D0008B7F808388818160888342E060E080E053
:1009E0000E947C04F60180818E7F8083F8018081E3
:1009F00081608083808188608083F70180818E7F21
:100A00008083888180618883CDB7DEB7E8E00C946D
:100A10005D26FC018091E4029091E502861797071C
:100A2000A0F06115710529F49091E8009E779093EC
:100A3000E80090E06115710551F4911108C08091B2
:100A4000E80082FF34C080E00895BC01F2CF8091BD
:100A5000DC028823C1F18530C1F18091E80083FD7B
:100A600030C08091E80082FDEACF8091E80080FFED
:100A7000E1CF8091F3002091F200382F61157105CC
:100A800019F02830310558F091E02830310509F08F
:100A900090E02091E8002E772093E800CBCF819161
:100AA0008093F100615071092F5F3F4FE7CF809134
:100AB000DC02882341F0853041F08091E80083FF1B
:100AC000BECF81E0089582E0089583E0089580918B
:100AD000D10208959C014FB7F8948091CB02909178
:100AE000CC02A091CD02B091CE024FBF821B930BDE
:100AF00008952FB7F8948091CB029091CC02A091E9
:100B0000CD02B091CE022FBF0895A3E0B0E0EBE894
:100B1000F5E00C9447262091C8023091C9022817AD
:100B20003907A1F09093C9028093C802E091C602F0
:100B3000F091C702309751F024E029839B838A8388
:100B40000680F781E02DCE01019609952396E2E01B
:100B50000C946326A3E0B0E0E0EBF5E00C944726AC
:100B60002091C4023091C50228173907A1F0909353
:100B7000C5028093C402E091C602F091C70230978B
:100B800051F023E029839B838A830680F781E02D3F
:100B9000CE01019609952396E2E00C946326E0913C
:100BA000C602F091C702309729F00190F081E02D44
:100BB0000995089580E00895FA01811101C0FB01B3
:100BC0000995089508958091BF02982F9E7F29F47A
:100BD000817082608093BF0208958635E8F381704A
:100BE0008465F8CFAF92BF92DF92EF92FF920F939E
:100BF0001F93CF93DF93082F162FE901E42FF0E026
:100C0000E25BFD4F611110C0E4915E2F4E2F4983CE
:100C1000E8835A83DF91CF911F910F91FF90EF905E
:100C2000DF90BF90AF900895E62EF12C4491D42E22
:100C3000E42FF0E026E0829FC00111242FEF30E086
:100C4000B9010E94F325802F90E0880F991F55E588
:100C5000569FD001579FB00D11248A1B9B0B982FD4
:100C6000990F890F5901AE18BF08AE9ED001AF9EF3
:100C7000B00DBE9EB00D11245B2F189F8001112472
:100C8000012F11275901A01AB10AAE9E8001AF9E13
:100C9000100DBE9E100D11245901A81AB108AE9C6A
:100CA000C001AF9C900DBE9C900D1124892F9927F7
:100CB000281B390B2E9FC0012F9F900D3E9F900D3A
:100CC0001124E92F62307105A1F050F4611571050E
:100CD00009F49DCF6130710581F0EB2F512F97CF33
:100CE0006430710569F080F06630710509F48FCFCA
:100CF000F4CFE42F4B2F592F8ACFE42F412F87CFEA
:100D0000EB2F542F492F83CF4B2F5D2DE12F7FCF1A
:100D10000E9479059C019091600280916102982B5C
:100D200021F030935D0220935C02909162028091E9
:100D30006302982B21F030935B0220935A02E091DA
:100D4000C602F091C702309749F082E080935E02BC
:100D50000480F581E02D8EE592E00995089580915B
:100D6000590280FD16C081FD16C082FD16C080911B
:100D700058028823A1F0883280F428E0829FC001C5
:100D8000112468E270E00E940726862F672B39F055
:100D9000089582E0089584E0089588E0089581E050
:100DA00008958091590280FD14C081FD14C082FD18
:100DB00016C080915702882381F08E3180F420E59F
:100DC000829FC00111246EE170E00E940726862FE9
:100DD000089584E1089588E2089588E0089580E503
:100DE000089580E00895F894E82FE295EF70F0E020
:100DF00031A1282F2F7081E090E001C0880F2A9543
:100E0000EAF7982F9095932391A392A1892B82A31F
:100E1000789408959091280292FF06C0282F287197
:100E20002830F9F4877F846093FF06C0282F28714B
:100E30002831F1F4877E84612091290220FF06C0C9
:100E4000382F38713830D9F4877F816021FF06C090
:100E5000282F28712831D1F4877E816194FD877E07
:100E60000895282F24712430F9F68B7F8860DCCF19
:100E7000282F2471243101F78B7E8861DDCF382F34
:100E80003171313019F78E7F8860E0CF282F2171C2
:100E9000213121F78E7E8861E1CFCF93DF93EC0182
:100EA00082389105B9F108F041C08133910509F408
:100EB0009FC050F58932910509F48FC08A9709F4D3
:100EC0009EC0C11520E5D20708F0BDC0C11530E4B1
:100ED000D30708F00AC1C03ED10508F0A5C0CD3C3B
:100EE000D10508F000C1C83AD10508F08FC0C53A55
:100EF000D10508F0F0C0C130D10539F1209729F1B2
:100F0000C430D10510F546C08533910509F460C0A1
:100F1000C997B9F680912802837009F044C1809185
:100F2000290283FF12C0C9E2D0E00FC0833E9105C1
:100F3000A1F178F4803E910509F1823E910509F016
:100F4000C0CF8091280282FD21C0CE01DF91CF91D8
:100F50000895863E910561F1873E910571F1843EC9
:100F6000910509F0AECF8091290281FFEECF8091EB
:100F70002802C7EED0E084FD0DC0E7CF80912802A3
:100F800080FD33C09091290290FFDFCFC3EED0E007
:100F900084FFDBCFD0E0C0E0D8CF8091280282FD73
:100FA000FFC09091290290FDFEC084FFCECFF2CF0A
:100FB0008091280283FDDDCFC8CF8091280283FD78
:100FC000F5C09091290291FFF0CFC4EED0E0BDCFE3
:100FD0008091280285FFB9CFA6CF8091280285FD98
:100FE000E8C08091290283FFB0CFC9E3D0E0ADCF44
:100FF0008091280286FFA9CFCAE2D0E0A6CF8091D7
:10100000280286FFA2CFC1E3D0E09FCFC13CD1052B
:1010100008F6C85AD0E0CC0FDD1FC25EDE4F099043
:10102000D881C02DD46491CFC11540E2D40708F017
:10103000AAC0C11581E0D80708F087CFC83ED10506
:1010400008F483CFA7CFC03622E5D20718F5C03405
:1010500032E5D30708F053C0C03242E5D40708F0A8
:1010600047C0C11582E5D80708F47FC02C2F26950C
:10107000269540E2249F900111248C2F8370C1E0BB
:10108000D0E002C0CC0FDD1F8A95E2F7C22BD32B34
:10109000DD685BCFC03A22E5D20760F4C03832E5A4
:1010A000D30708F441C0CF71D0E0DC2FCC27C46F48
:1010B000D06A4BCFC03C42E5D40708F44AC0C03EDA
:1010C00082E5D80708F066CFDC2FCC27CC27DF716C
:1010D000C06FD06A3ACFC55AD0E0C55EDE4FC88136
:1010E000D0E0D06432CFD06530CFDF70D06A2DCF62
:1010F000CF71D0E0DC2FCC27C16FD06A26CF2C2F48
:1011000026952695277080E2289F900111248C2F28
:101110008370C1E0D0E002C0CC0FDD1F8A95E2F7FA
:10112000C22BD32BDC6811CF2C2F26952695277048
:1011300040E2249F900111248C2F8370C1E0D0E005
:1011400002C0CC0FDD1F8A95E2F7C22BD32BDA68E1
:10115000FCCE8C2F8F710E940A07C82FD0E0DC2FA5
:10116000CC27CC27DF71D062F0CE8C2F8F710E94FC
:101170000A0735E0D695C7953A95E1F7CF709C2FD1
:10118000EC01D069E2CE8D2F8F710E940A0790E0AA
:10119000982F882788279F719C012C2BE901E3CF8A
:1011A000C2EED0E0D2CEC0EED0E0CFCEC6EED0E0E0
:1011B000CCCEC5E3D0E0C9CE80910F028111109250
:1011C0000F020895809590910E02982390930E023D
:1011D0000895E4EAF1E09191891303C0DF011197CA
:1011E0001C9291E0EA3AF907B1F70895A4EAB1E058
:1011F000EFEF90E02D91821751F0EF3F19F421119C
:1012000001C0E92F9F5F9630A9F7EF3F09F40895D9
:101210000E2E000CFF0BEE55FE4F82830895809139
:1012200003029091D201981301C008958F5F8770D7
:10123000FACF292F953078F5813168F590E031E1CA
:10124000239F800D911D1124682F677023E09695D0
:1012500087952A95E1F7FC01EE0FFF1FE80FF91FB4
:10126000E555FE4F50E040E080E0219130E0062E51
:1012700002C0369527950A94E2F721703327042E91
:1012800001C0220F0A94EAF7822B4F5F5F4F433071
:10129000510559F7089580E00895292F953098F564
:1012A000813188F590E031E1239F800D911D11245B
:1012B000282F277041E001C0440F2A95EAF723E068
:1012C000969587952A95E1F7FC01EE0FFF1FE80F31
:1012D000F91FE555FE4F30E020E070E05191DF014D
:1012E0001197CB01022E02C0969587950A94E2F7DA
:1012F000817081958527842385278C932F5F3F4FAD
:101300002330310559F70895662309F45DC08D3CFB
:1013100041F40E94D1068195809361020E94880663
:1013200008958E3C19F40E94D106F6CF8F3C31F41B
:101330000E94D106819580936002F0CF803D19F420
:101340000E94D106F8CF893D29F40E94AF06809310
:101350006202E4CF8A3D21F40E94AF068195F7CF67
:101360008B3D31F40E94AF06819580936302D6CF06
:101370008C3D19F40E94AF06F8CF9FE2980F983089
:1013800070F4815D990B21E030E001C0220F8A9555
:10139000EAF780915F02822B80935F02BFCF8D3D81
:1013A00031F480915902816080935902B7CF8E3D0C
:1013B00021F4809159028260F7CF8F3D09F0AECFC2
:1013C000809159028460F0CF409160028D3C59F4C5
:1013D0008091610287FF0DC01092610241110BC024
:1013E0001092570208C08E3C81F480916102181659
:1013F0009CF3442381F08091620290916302892BD7
:1014000009F08CCF1092580289CF8F3C49F447FFE6
:10141000F0CF10926002809161028111ECCFE0CF99
:10142000803D19F41416ACF3E4CF90916202893D2B
:1014300029F41916F4F610926202DBCF8A3D19F4F2
:1014400097FFD7CFF8CF909163028B3D29F497FF98
:10145000D0CF10926302CDCF8C3D19F41916CCF386
:10146000C8CF9FE2980F983090F4815D990B21E0EE
:1014700030E0B90102C0660F771F8A95E2F7CB0111
:10148000809590915F02892380935F02B2CF8D3D5A
:1014900031F4809159028E7F80935902AACF8E3DFC
:1014A00021F4809159028D7FF7CF8F3D09F0A1CFB4
:1014B000809159028B7FF0CF81FF02C0289A089556
:1014C000289808950F931F93CF93DF938B01EA0120
:1014D0009091DC02943061F58093E9008FEF909158
:1014E000E800815095FD06C095ED9A95F1F7000052
:1014F0008111F5CF8091E80085FF1AC00E942C046D
:10150000811111C08091E80085FD06C08091E8003E
:101510008E778093E800F2CFF80181918F0180935C
:10152000F100219779F78091E8008E778093E800A9
:10153000DF91CF911F910F91089543E050E0BC01DE
:1015400084E00E94620A089546E050E0BC0184E015
:101550000E94620A0895CF93DF93EC0148E050E0C7
:10156000BC0181E00E94620A88E0FE01A2EDB2E0C7
:1015700001900D928A95E1F7DF91CF91089581E076
:101580008093E00080E28093D8001092C9008FE140
:101590009EE40197F1F700C0000087E090EBDC01CA
:1015A0008093EA029093EB02A093EC02B093ED02D9
:1015B00088E19CE00FB6F894A895809360000FBE78
:1015C00090936000FFCF8091BF0280FD0AC0EFE6DC
:1015D000F2E0118210821282339652E0ED38F50764
:1015E000C1F76E9A3EB13F7B2EB120644FB7F8949D
:1015F0008FE692E0FC015191CF0168E02EB9000026
:1016000000C057FF3EB9550F000000C000C000C029
:101610003EB900C06A9591F7F2E08D389F0751F707
:101620004FBF8FE594E00197F1F700C000000895E7
:10163000EF92FF920F931F93CF93DF938C01CFE62E
:10164000D2E0F12CE12CF80194816091C1028091EB
:10165000C002F5E0EF16F104ECF49923E9F09E01E5
:101660004091C2020E94F2052FEFE21AF20A23967D
:101670008AE0E816F10439F70E94E30AF801848150
:1016800090E00196817099278483CDB7DEB7E6E0BC
:101690000C945F26992319F39E0140E0E3CFB0E05C
:1016A000A0E0E5E5FBE00C943D26EC014C81042F25
:1016B00010E09801D8010E9480279B01AC010E9494
:1016C0004B274B015C01E0E2F0E0E01BF10BA5E5EC
:1016D000B0E0AC019B010E944B276B017C019F0194
:1016E000DF010E9428269B01AC010E9456279B0126
:1016F000AC01280D391D4A1D5B1DC701B6010E94B2
:101700005E27F22E822F90E039E23F1598F143E0F8
:10171000249F9001112435952795122F10959FE64F
:10172000C92E92E0D92E00E085E5E82EEF188E2D27
:1017300001FD8F2D9601412F6091C1020E94F2059B
:101740000F5F53E0C50ED11C0A3089F70E94E30AEF
:101750009C8181E0992319F0903219F48FEF8093E6
:10176000190180911901890F8C83CDB7DEB7ECE0A8
:101770000C94592625E530E0A901481B590BCA01F4
:101780009A01220F331F280F391F37FFC4CF2F5F55
:101790003F4FC1CF0F931F93CF93DF93CFE6D2E09C
:1017A000FE01118210821282339682E0ED38F80732
:1017B000C1F710E000E080916D02082E000C990B3B
:1017C000081719078CF180911801082E000C990B4D
:1017D000801791074CF19E014091C2026091C102B5
:1017E0008091C0020E94F2050F5F1F4F23960A30BE
:1017F000110509F70E94E30A8091170190916D028B
:10180000980F90936D0220911801280F20931801D2
:10181000121614F499301CF0819580931701DF9112
:10182000CF911F910F910895198218821A82DCCFEF
:10183000B0E0A0E0EEE1FCE00C944026FC018281E7
:10184000DD24DA9480FD02C0DD24D3940FE612E09B
:10185000D0E0C0E02AE0B22EF8011182108212829C
:1018600094E0E92EF12CC12C80916C028C0D8B3010
:10187000C4F16B2D0E94E525892F082E000C990BD1
:101880008C179D0791F48091C2028E9DA0018F9DBF
:10189000500D1124559547955595479598016091A0
:1018A000C1028091C0020E94F205CD0CF1E0EF1A56
:1018B000F108D1F621960D5F1F4FCA30D10561F6B0
:1018C0000E94E30A80916C0291E0D91210C081114C
:1018D0000CC089E080936C02CDB7DEB7E9E00C94D0
:1018E0005C2687FFCACF865FC8CF8150F3CF90E0D8
:1018F0000196BE010E940726EDCFEF92FF921F9343
:10190000CF93DF93EC018FE6E82E82E0F82E10E013
:101910008C8197014091C2026091C102810F0E94A7
:10192000F205175E83E0E80EF11C1A3F89F70E946A
:10193000E30A9A818C8190FF08C08F5F8C83DF91CE
:10194000CF911F91FF90EF9008958150F7CF909124
:10195000BF0290FF0CC0EFE6F2E081836083428318
:10196000339692E0ED38F907C1F70E94E30A089533
:10197000A3E0B0E0EEEBFCE00C9445268C018091F6
:101980006E0281110AC09E012F5F3F4F4FEF6FEF34
:101990000E94F2058A8180936E02F80164816130B1
:1019A00069F080916E0240E0662361F040E06230B1
:1019B00011F440916E0280E060E004C060916E021C
:1019C00040E080E00E94A70CF801848190E001963D
:1019D00063E070E00E94072684832396E4E00C9481
:1019E0006126A3E0B0E0E7EFFCE00C94472690917D
:1019F000BF0290FF0AC09E012F5F3F4F0E94F20579
:101A00004B8169818A810E94A70C2396E2E00C94A5
:101A10006326CF93DF93EC01EFEBF2E04381628129
:101A20008C810E94F10C8C818F5F8C83DF91CF9130
:101A30000895CF93DF93EC01EC81F0E0ED5AFC4F79
:101A40004491EFEBF2E0628181810E94F10C8C8184
:101A50008F5F8C83DF91CF910895CF93DF93CEEC8E
:101A6000D2E060E0CE010E94F8262196C11584E004
:101A7000D807B9F7DF91CF9108951F93CF93DF93E4
:101A8000122F8430E0F46530D0F44131C0F4C42F1B
:101A9000D0E0CC0FDD1F92E2699FC00DD11D112453
:101AA0009AEA899FC00DD11D1124632FCE0186961D
:101AB0000E94F826612FCE0187960E94F826DF91BA
:101AC000CF911F910895AF92BF92CF92DF92EF9284
:101AD000FF921F93CF93DF9383E5C82E84E0D82E27
:101AE000D0E07601C0E014C0F50125913491412F7A
:101AF0006C2F8D2F0E943D0D82E0A80EB11C1F5F40
:101B0000113191F782E2E80EF11CCF5FC53019F078
:101B1000570110E0E9CFDF5F8AEAC80ED11CD4304C
:101B200001F7DF91CF911F91FF90EF90DF90CF9061
:101B3000BF90AF900895CF93C82F6FEF811162E2ED
:101B400082E290E00E94F8266FEFC11161E183E22A
:101B500090E00E94F8266FEFC11160E184E290E00E
:101B60000E94F826CF91089580E00E949B0D60E0CE
:101B700085E290E00E94F8260E94630D0E942D0DE0
:101B800081E00E949B0D08950F931F93CF93DF93E5
:101B9000843030F5653020F5413110F5C42FD0E0A8
:101BA000CC0FDD1F22E2629FC00DD11D11243AEA45
:101BB000839FC00DD11D1124CE0186960E94E4267C
:101BC000082F10E0102F0027CE0187960E94E426F0
:101BD0009801282BC901DF91CF911F910F91089592
:101BE00090E080E0F8CF462F753040F4613130F45A
:101BF000843020F4672F0E94C40D089590E080E0A7
:101C00000895CF92DF92FF920F931F93CF93DF93AC
:101C10006C010091E90280911002082BC7E0D0E02E
:101C200010E0FC2EC8010C2E02C0959587950A94F1
:101C3000E2F780FD0CC02197A0F7F12C8F2DDF91EA
:101C4000CF911F910F91FF90DF90CF900895B60133
:101C50008C2F0E94F30D0E944D07019761F3EECF88
:101C6000CF93DF93EC010E94010EBE010E94F30DA1
:101C70000E944D07DF91CF910895FC0183819481EB
:101C8000892B29F08081918189238F3F51F480E055
:101C90000895843FE1F717C0883EA8F0813FB9F767
:101CA00012C0808191810E94300E92959F70963073
:101CB00099F358F4925F9F70923048F7803F19F083
:101CC00040F7883E20F781E008959A5FF4CF82E2E2
:101CD00090E00E94E426823289F483E290E00E9440
:101CE000E426813159F484E290E00E94E42691E0F8
:101CF000803109F090E0892F8170089580E0FCCF59
:101D0000B0E0A0E0E6E8FEE00C943926FC01628039
:101D1000448081E08483E3E5F3E07490E2EDF3E056
:101D2000E491CDE8D2E03FE6E32E32E0F32E4FEB34
:101D3000C42E42E0D42E52E0A52EBB24B3948824B6
:101D40008A94912C55245A94E7190E2F10E082E0C2
:101D5000861530F08091C00288838091C10289830A
:101D6000411016C01B821A8297014A8169818881BD
:101D70000E94F205259683E0E80EF11CCC16DD06E4
:101D800031F70E94E30ACDB7DEB7E0E10C945526A7
:101D90008B818823E9F081508B83859DC0011124BC
:101DA0006C8170E00E94F325FB01FF27ED5AFC4F88
:101DB0008491E82FE719E59DC0011124B8010E9424
:101DC000F3258091C202689FB00111247A83CCCFA1
:101DD0000E94BA262091C202269521582A9DA00170
:101DE0002B9D500D1124452F5527841795070CF076
:101DF000BBCF82E0861588F40E94BA26B4010E9407
:101E0000072688830E94BA262091C1022695622F58
:101E100070E00E940726280F29831A828091C2024F
:101E2000893C20F088EC8C838B839ECF8431D8F75B
:101E300084E1F9CFCF92DF92EF92FF926B017C01A8
:101E40000E94E305B701A60188E090E00E940A27FE
:101E5000FF90EF90DF90CF900895A3E0B0E0E3E330
:101E6000FFE00C943A26F82E762EE42E622E909106
:101E7000BF0290FF29C0E92FE695AE2FB0E0AA5926
:101E8000BE4F8C9180936A029E7F923009F59E012D
:101E90002F5F3F4F8F2D0E94F2054B8169818A8110
:101EA0000E94A70CF092C0027092C102E092C2029E
:101EB000662051F06091BF027091C0028091C10212
:101EC0009091C2020E941A0F2396EFE00C945626BE
:101ED000823019F4E090C202E5CF863019F4F09018
:101EE000C002E0CF8930D9F38931E1F6E9518E2F74
:101EF0008170582EE695F0E0E25BFC4FE4910E2FE6
:101F000010E08FE6C82E82E0D82EB12CA12C9AE0EA
:101F1000892E912CC501B4010E94F3258F2D5110FB
:101F200013C0860F96014E2D672D0E94F205A00E5C
:101F3000B11E83E0C80ED11C8DE8C81682E0D80619
:101F400049F70E94E30AAECF861BECCFEFEBF2E03D
:101F5000438121E1421B08F440E021E0628181815C
:101F60000E942D0F0895EFEBF2E0438121E1420F33
:101F700008F44FEF21E0628181810E942D0F0895C6
:101F8000EFEBF2E0628121E1621B08F460E021E006
:101F9000438181810E942D0F0895EFEBF2E0628171
:101FA00021E1620F08F46FEF21E0438181810E94FB
:101FB0002D0F0895EFEBF2E0818121E043816281F2
:101FC00088500E942D0F0895EFEBF2E0818121E00F
:101FD00043816281885F0E942D0F08958091C30222
:101FE000882319F081508093C3026091BF027091E1
:101FF000C0028091C1029091C2020E941A0F0895FE
:102000008091C302833018F48F5F8093C302609184
:10201000BF027091C0028091C1029091C2020E94E1
:102020001A0F08959091BF0290FF2CC091708111FA
:102030002AC092609093BF02662351F06091BF0264
:102040007091C0028091C1029091C2020E941A0F49
:102050006091BF02669570E04BE050E08CE091E04B
:102060000E94CA26892BB1F010926B0281E0809306
:10207000670220E04091C2026091C1028091C002DB
:102080000E942D0F08958B3210F09465D3CF880FE6
:10209000982BD0CF81E080936B020E9479059093BA
:1020A000650280936402E2CF8091BF0286958150E1
:1020B00009F48AE261E00E94121008958091BF0243
:1020C00086958F5F8B3208F081E061E00E941210EC
:1020D00008959091BF0290FF08C09695981728F038
:1020E000961718F40E945E10089561E00E94121085
:1020F0000895EFEBF2E083E0808311828FEF82831B
:102100008383148260817181828193810E941A0F7E
:10211000089580910E0290910D02892B8093A20167
:1021200090910F02992391F0892B8093A20120E0D6
:1021300084EA91E0FC013191CF0131112F5FF1E090
:102140008A3A9F07B9F721110E94DC0848E050E065
:1021500065E072E082EA91E00E94D726892BA9F01F
:1021600088E0E2EAF1E0A5E0B2E001900D928A9504
:10217000E1F7E091C602F091C702309731F002809A
:10218000F381E02D82EA91E00995089590E080E0E6
:102190000E94AA0590E080E00E94850510920D0241
:1021A0000E94891086E0EEE5F2E0DF011D928A953B
:1021B000E9F71092570210925802109259020E94A9
:1021C000880608958093E9020E94C61008958091C0
:1021D000E902982F9670963021F488600E94E210F0
:1021E0000895877FFBCF21E030E001C0220F8A9560
:1021F000EAF720958091E90282230E94E210089577
:10220000909104028095892380930402282F2770DF
:1022100091F4282F082E000C330B9217130659F057
:102220009091290292FF07C08595859585950E941A
:10223000F31010920402089521E030E001C0220F53
:102240008A95EAF78091E902822B0E94E2100895B4
:10225000809310020E94C6100895882321F00E94E6
:10226000E2080E9489100895882339F090910E02A7
:10227000982B90930E020E9489100895882309F4E8
:1022800056C0823879F40E94CF0581FF50C089E39F
:102290000E94F6080E94891089E30E94E9080E94C2
:1022A00089100895833859F40E94CF0580FF3FC0FC
:1022B00083E50E94F6080E94891083E5EECF8438FA
:1022C00059F40E94CF0582FF32C087E40E94F608CD
:1022D0000E94891087E4E1CF9CEF980F913AE8F2D1
:1022E00090E2980F983050F4877091E001C0990FF8
:1022F0008A95EAF7892F0E94E208D1CF9BE5980FD3
:10230000933028F490E080E00E94AA05089598E5B3
:10231000980F993128F490E080E00E948505089597
:1023200093E3980F933118F460E00E9484090895B4
:10233000CF93C82F8823C9F08238C9F40E94CF05F3
:1023400081FD13C089E30E94F6080E9489102FEFD7
:1023500087EE93E0215080409040E1F700C00000FC
:1023600089E30E94E9080E948910CF91089583387B
:10237000A1F40E94CF0580FDF8CF83E50E94F60806
:102380000E9489102FEF81EE94E021508040904010
:10239000E1F700C0000083E5E4CF8438A1F40E9497
:1023A000CF0582FDE2CF87E40E94F6080E948910E3
:1023B0002FEF81EE94E0215080409040E1F700C083
:1023C000000087E4CECF8CEF8C0F813A68F4E4EA0A
:1023D000F1E08191C817E9F121E0EA3AF207C9F783
:1023E0008C2F0E94F608BFCF80E28C0F883068F4F3
:1023F000C77021E030E001C0220FCA95EAF7809152
:102400000E02822B80930E02AECFEBE5EC0FE33091
:1024100040F4F0E0E55EFE4F808190E00E94AA0566
:10242000A4CFE8E5EC0FE93150F4F0E0EE0FFF1F28
:10243000E25EFE4F808191810E94850596CF83E305
:102440008C0F833108F091CF61E08C2F0E948409BA
:102450008CCF8C2F0E94E9080E948910C1CF1F9356
:10246000CF93DF93182FD0E0C0E0893311F4C0E59B
:10247000D0E0812F0E949811209739F4812F0E947B
:102480003E11DF91CF911F9108958FE99FE0019751
:10249000F1F700C000002197EFCF0F931F93CF9368
:1024A000DF93C62FD42F022FFC0182818823A9F04D
:1024B0006093E8020E9479059093E7028093E60218
:1024C000C77081E001C0880FCA95EAF70E943411F5
:1024D000DF91CF911F910F9108958091E8026813C9
:1024E00032C08091E6029091E7020E946A05883C22
:1024F000910548F510E21D0FCD17B9F080E28C0F61
:10250000883040F4C77081E001C0880FCA95EAF7AF
:102510000E942D11183048F481E09D2F977001C062
:10252000880F9A95EAF70E943411802F0E942F128B
:10253000183070F6D77081E001C0880FDA95EAF79D
:102540000E942D11C5CFC77081E001C0880FCA95C8
:10255000EAF7F6CF67EE7EEF90E080E00E94162764
:1025600060E082E090E00E94F82660E083E090E086
:102570000E94F8261092100260E074E184E090E07E
:102580000E94162760E086E090E00E94F8266FEF38
:1025900087E090E00E94F82640E050E0BA0188E031
:1025A00090E00E940A2760E08DE090E00E94F8260B
:1025B00040E050E0BA0188E190E00E940A2760E024
:1025C00087E190E00E94F82640E050E0BA018CE1FB
:1025D00090E00E940A2770E060E080E290E00E94B4
:1025E000162740E050E0BA0188E190E00E940A27F7
:1025F00080E00E949B0D0E94B40D40E050E0BA01C3
:102600008FE090E00E940A2740E050E0BA0183E1A9
:1026100090E00E940A2708959091290292FB2227B8
:1026200020F9281779F080FB92F9909329026091A4
:1026300028027091290284E090E00E94162782E02F
:102640000E940011089590E080E00E94F226873EEB
:102650009E4F19F40E94670E089580E0089510922D
:102660000E02E4EAF1E086E0DF011D928A95E9F7C7
:102670000E94C6100895AAE2B0E0E1E4F3E10C94F0
:1026800046268EED92E02091F100DC012D93CD01E4
:10269000B2E0863E9B07B9F78091DF02833009F4F0
:1026A00072C0B8F4813009F449C0823009F4B3C073
:1026B0008091E80083FF8BC28091DE029091DF025F
:1026C0009A3008F084C2E92FF0E0EF56F84D0C94F0
:1026D0001B268A3009F48EC08B3009F471C0893012
:1026E00039F78091DE02813219F78091E2029091F0
:1026F000E302009711F00297D9F68091E800877FF6
:102700008093E8008091E80082FF38C09091F30048
:102710008091F200029731F48091F100813011F044
:10272000863021F48091F1008093D1028091E800FD
:102730008B778093E8000E945D04BACF8091DE021F
:10274000813A09F0B5CF8091E800877F8093E80057
:102750008091E2029091E302892B61F468E082EDBE
:1027600092E070E00E9409058091E8008B778093E9
:10277000E8009ECF60E090E080E0F3CF8091DC0243
:102780008111C0CF95CF8091DE02813A09F090CFC0
:102790008091E2029091E302892B09F089CF809128
:1027A000E800877F8093E8008091E80080FFFCCFFD
:1027B00080911A018093F1008091E8008E77B9CF63
:1027C0008091DE02813209F073CF8091E202909114
:1027D000E302892B09F06CCF8091E800877F80931A
:1027E000E8000E945D048091E00280931A010E943B
:1027F0002F135ECF8091DE02813209F059CF809194
:10280000E800877F8093E8000E945D048091E102E8
:102810008093D0024DCF8091DE02813A09F048CFFB
:102820008091E800877F8093E8008091E80080FF36
:10283000FCCF8091D002BECF803899F0823809F069
:10284000C6C18091E2028F70873008F0C0C18093CA
:10285000E9008091EB0085FB882780F91092E90060
:1028600006C08091DA029091DB0291118260909112
:10287000E800977F9093E8008093F1001092F100B8
:102880008091E8008E779FC1882309F48DC1823042
:1028900009F09DC18091E002811190C18091E20216
:1028A0008F702FEF280F263008F091C18093E90038
:1028B0002091EB0020FF82C1933031F48091EB0036
:1028C00080628093EB007AC19091EB0090619093CD
:1028D000EB0021E030E001C0220F8A95EAF7209357
:1028E000EA001092EA008091EB008860EACF811143
:1028F0006EC11091E0021F778091E3008078812BF8
:102900008093E3008091E800877F8093E8000E9435
:102910005D048091E80080FFFCCF8091E300806837
:102920008093E30082E0111183E08093DC024FC1C9
:102930008058823008F04BC12091E0023091E102D2
:102940002C3DE3E03E07A1F583E08A838AE2898398
:102950004FB7F894DE01139620E03EE051E2E32FFA
:10296000F0E050935700E49120FF03C0E295EF7030
:102970003F5FEF708E2F90E0EA30C0F0C7968D93E6
:102980009D932F5F243159F74FBF8091E800877FD7
:102990008093E8006AE270E0CE0101960E9409058A
:1029A0008091E8008B778093E80011C1C096E7CF53
:1029B0008091E2029091E302432F55274330510565
:1029C00009F44AC078F54130510509F47AC08BE525
:1029D00090E0EBEFF6E04230510509F0F8C02091AD
:1029E000E800277F2093E8002091E4023091E5027F
:1029F0008217930708F49C0140E02115310509F086
:102A000065C0411163C08091E80082FDC9CF80910B
:102A1000DC02882329F2853019F28091E80083FFD7
:102A2000F2CFBECF4132510509F43CC042325105CC
:102A300009F0CDC08330910508F0C9C0FC01EE0F4C
:102A4000FF1FEC56FE4F0190F081E02D8F569E4FF8
:102A5000DC018C9190E01AC0332721303105D1F090
:102A60002115310561F02230310509F0B0C0E8E6EA
:102A7000F7E0E4918E2F90E0E8E6F7E007C0E2EAA5
:102A8000F7E0E4918E2F90E0E2EAF7E0009709F496
:102A90009EC0A5CFE4E8F7E0E4918E2F90E0E4E853
:102AA000F7E0F4CF8330910508F091C0880F991FAB
:102AB000FC01E656FE4F0190F081E02D89E090E0A8
:102AC0008ECF82E190E0E6E5F7E089CF8091DC02ED
:102AD000882309F465CF853009F462CF8091E8003E
:102AE00083FD5ECF8091E80082FD8DCF8091E8006C
:102AF00080FF83CF9091F3008091F2002115310582
:102B000019F08830910550F041E0089709F040E055
:102B10008091E8008E778093E8006FCF44914093D6
:102B2000F1003196215031090196E8CF803809F043
:102B30004EC08091E800877F8093E8008091DD029D
:102B40008093F1009DCE811142C01091E0021230BD
:102B5000F0F58091E800877F8093E8001093DD0214
:102B60000E945D04112311F084E005C08091E30010
:102B700087FDFACF81E08093DC0242E061EC81E0E6
:102B80000E947C0442E261EC84E00E947C0442E208
:102B900061EC82E00E947C0442E260EC83E00E94EF
:102BA0007C048091DC0213C08091E002813079F4D2
:102BB00081E0933009F080E08093DB021092E9001D
:102BC0008091E800877F8093E8000E945D048091F7
:102BD000E80083FF0AC08091E800877F8093E800C7
:102BE0008091EB0080628093EB00AA96E3E00C9466
:102BF00062260E942F132FEF84E39CE02150804037
:102C00009040E1F700C0000088E19CE00FB6F89426
:102C1000A895809360000FBE90936000FFCFA8E05E
:102C2000B0E0E5E1F6E10C9439268C01DC01139665
:102C30008D919C911497892B39F08C9111969C91D0
:102C400089238F3F09F04EC52896E0E10C94552664
:102C50000E94010EF82E682F89819A810E944D09E9
:102C600069817A818F2D0E94F30D7C01F8018281A8
:102C7000882309F42BC597012250374720313105AD
:102C800008F00EC58FEF93E00E94E426811185C005
:102C9000EA94EA946EECA62E62E0B62EE11047C0EC
:102CA000FE01339686E0DF011D928A95E9F75AE02E
:102CB000452E7501BFEFEB1AFB0AC5010E94E42601
:102CC00089831A82882309F468C0813009F078C0AA
:102CD0006501E2E0CE0ED11CC7010E94E4268A8382
:102CE000882309F45AC09FEF980F933070F5F3E0F2
:102CF000AF0EB11CC6010E94E4268B83882309F421
:102D00004CC01C82DE0111967D01F7012081222337
:102D100081F2213009F094C091818281913009F0D3
:102D200051C0F2E0EF0EF11C0E942F1252C0A1140C
:102D3000F4E0BF0691F1C5010E94E426811101C0B3
:102D4000EA942FEFA21AB20AA9CF56018430D1F625
:102D500042E0E42EF12C56012FEFA21AB20AC6016E
:102D60000E94E426E1E0F0E0EC0FFD1FEE0DFF1DF8
:102D70008083882391F08C3741F4E2E0F0E0EC0F9F
:102D8000FD1FEE0DFF1D1082BDCF3FEFE31AF30ACA
:102D9000650187E0E816F104F1F68091040287707E
:102DA00009F452CFD80112968C91882309F44CCFA4
:102DB0008091290282FF48CF82E00E94001144CF17
:102DC0005701A0CF923049F422E0E20EF11C0E949C
:102DD0009811EFEFEE1AFE0A98CF933031F432E0FB
:102DE000E30EF11C0E943E11F4CF943021F08FEFDE
:102DF000E81AF80AEECF92E0E90EF11C30E020E08C
:102E0000B7016F5F7F4FD70111964C918053990B9B
:102E10008A30910550F021503109D8F2EFE9FFE0F6
:102E20003197F1F700C00000F6CF429EF001439EBB
:102E3000F00D11249C012E0F3F1F842F7B01E0CF4A
:102E4000E22FF0E0E754FE4F5490822F869586954E
:102E5000869590E0FC01E755FE4F64902770712C39
:102E6000022E02C0759467940A94E2F731E063225F
:102E70007724FC01E756FE4F8490912C022E02C06D
:102E8000959487940A94E2F7A1E08A229924FC01A0
:102E9000E757FE4FC490D12C02C0D594C7942A9511
:102EA000E2F7B1E0CB22DD246114710419F081EE68
:102EB0000E9498118114910419F086EE0E949811D5
:102EC000852D0E942F128114910419F086EE0E9424
:102ED0003E116114710419F081EE0E943E11C1147B
:102EE000D10409F476CF8CE21FCF81E00E941C113F
:102EF0000E94E71052CF81E00E94F310F9CF82E0E8
:102F0000F5CF26E241EE61EEC8010E944D1245CF99
:102F100027E245EE65EEF8CF26E241EE60EEF4CF13
:102F200027E245EE64EEF0CF26E241EE62EEECCF12
:102F300027E245EE66EEE8CF28E241E0EBCF8823BA
:102F400009F4F8C31092E802C7019057839708F07C
:102F5000DCC384E090E00E94F226909329028093E3
:102F60002802F701E150F047E232F10520F4E5567E
:102F7000F84D0C941B2680912802816080932802D2
:102F800095C0809129028860809329028FC080912A
:102F900028028260F3CF809128028460EFCF809175
:102FA00028028860EBCF809129028160EDCF80916B
:102FB00029028260E9CF809128028061DFCF809171
:102FC00028028062DBCF809128028064D7CF0E94E4
:102FD0002F13809128028068D1CF809128028C60C5
:102FE000CDCF809129028360CFCF809128028E7F40
:102FF000C5CF80912902877FC7CF809128028D7F1E
:10300000BDCF809128028B7FB9CF80912802877F26
:10301000B5CF809129028E7FB7CF809129028D7F15
:10302000B3CF809128028F7EA9CF809128028F7D17
:10303000A5CF809128028F7BA1CF0E942F13809172
:1030400028028F779BCF80912802837F97CF809132
:1030500029028C7F99CF8091280282FB992790F9D1
:1030600021E0922790FB82F990FB83F987CF809132
:103070002902982F909591708E7F892B90FB81F972
:1030800083CF90912802892F8F7B96FF806476CF23
:103090000E942F1390912802892F97FB87F980585F
:1030A0006DCF61E08EE090E00E94F82660912802EA
:1030B0007091290284E090E00E9416270E942F134D
:1030C0006CCE60E0EFCF90912802892F8F7E94FF25
:1030D000806154CF90912802892F8E7F90FF81606C
:1030E0004DCF90912902892F877F93FF88604CCF25
:1030F00085E31BC385E328C38091BF0280FF12C014
:103100008E7F8093BF026091BF027091C002809158
:10311000C1029091C2020E941A0F10926B020E948B
:10312000E30A3BCE81608093BF0261E086950E94F6
:10313000121033CE44E550E16EE570E10E94DC05EB
:103140002CCE4EE550E164E570E1F8CF4AED5FE04A
:1031500064EE7FE0F3CF44EE5FE06AED7FE0EECF18
:1031600040EC5FE06DEC7FE0E9CF4DEC5FE060ECC0
:103170007FE0E4CF46EA5FE063EB7FE0DFCF43EB45
:103180005FE066EA7FE0DACF4EEE5FE060E070E19C
:10319000D5CF40E050E16EEE7FE0D0CF61E081E03E
:1031A000C6CF65E082E00E946910F7CD68E086E056
:1031B000FACF6EE089E0F7CF64E18FE0F4CF67E10A
:1031C00085E1F1CF61E088E1B2CF62E289E1EBCF46
:1031D00061E083E2ACCF6AE285E2E5CF0E942F1383
:1031E000FFEF24E33CE0F15020403040E1F700C025
:1031F00000000E94BF0A6FEF7FEF90E080E00E9426
:1032000016270E94F9158091290282FB882780F9F0
:1032100091E089270E940C13F8018281E080F180FF
:10322000882309F446C0C7010E94010ED82E682FDA
:10323000C7010E944D09B7018D2D0E94F30D0E9418
:103240004D077C01882ED8011296AC9012971596E6
:103250009C9092943FE09322809104028770C1F089
:10326000CA2CAA20B1F08F2D807F803421F080E21B
:103270008E0D883068F08091290282FF09C082E0BB
:103280000E940011809104028770CC24C3948111A4
:10329000C12CBF2CB2942FE0B222BBE0BB1508F4C6
:1032A00077C0EB2DF0E0E354F84D0C941B2680E042
:1032B000B1CFC7010E941909D82EBDCFEF2DEF70F5
:1032C000DE2E8F2D807F19F0D29490EFD922AA2084
:1032D000B9F0DD2069F080E28E0D883010F08110A9
:1032E00009C080910E02D82AD0920E020E94891045
:1032F0008E2D4CC080910D02D82AD0920D02F6CFAF
:103300008E2D0E943E11DD2009F442C080E28E0D18
:10331000883010F0811004C08D2D0E94E20806C094
:10332000D09480910D02D822D0920D020E94891073
:103330002FC0FF2DFF70DF2E8F2D807F803219F080
:10334000D29480EFD822882089F021E0821609F4F7
:103350006EC0AA2009F478C0992009F46EC0F80163
:10336000858180FFC5CF8F70858367C0209129023A
:1033700022FD36C0AA2071F1DD2039F080910E02C5
:10338000D82AD0920E020E94891080E00E949811E3
:10339000AB2DA850BB0B149720F40E94CF050E94C0
:1033A0005C0ACC2009F450CC8091040280FD4CCC06
:1033B000F80112828595859585950E941C11C8019A
:1033C0000E940F16809104028595859585950E942F
:1033D000F3103ACC80E00E943E11DD20C9F29CCF70
:1033E000AA2099F090910F028D2D892B911003C086
:1033F0000E943411CDCF31E09312FACF22FFC8CF13
:10340000981731F280930F02C3CF911006C00E942B
:10341000DC088D2D0E942D11BBCF81E0981609F498
:10342000B7CF8D2D0E942D110E94DC08B1CFAA20AC
:1034300031F095E0991508F4ABCF8D2DD9CFA4E0EC
:10344000A91508F4A5CFE5CF992019F3F9E38F1258
:1034500009C02FEF37EE83E0215030408040E1F784
:1034600000C000008E2D0E943E1192CF8F2D8695B8
:103470008695837061F0813009F08ACFC70193701F
:10348000A11002C080E090E00E94850581CFC701B5
:103490009370A11002C080E090E00E94AA0578CF4E
:1034A0006A2D8E2D0E94840973CF8F2D837091F524
:1034B000A1106ECF4E2D429546954770440F440F94
:1034C0008E2D8F70042E01C0880F0A94EAF72E2DDE
:1034D0002071E4FE07C02FE030E001C0220F4A95C2
:1034E000EAF720953F2D369536953370323069F0E6
:1034F00050F440911002313029F0822B84230E9435
:10350000281146CF842B822BFACF282B80911002D2
:103510008227F5CF8695AA2011F08F2D8170882300
:1035200009F436CF4E2D429546954770440F440F0F
:103530008E2D8F70042E01C0880F0A94EAF72E2D6D
:103540002071E4FE07C02FE030E001C0220F4A9551
:10355000EAF720953F2D369536953370323069F075
:1035600050F44091E902313029F0822B84230E94EB
:10357000E2100ECF842B822BFACF282B8091E90208
:103580008227F5CF9F2D9F70F92EAA2029F0892F31
:103590000E941C118E2D2CCF8E2D0E942D118F2D4F
:1035A0000E94F310F5CE8E2DA2EF8A16B1F1A81568
:1035B00070F0B0EF8B16D1F0E1EF8E1691F0AA20EB
:1035C00009F45EC0911094CE8F2D8F712AC0F3EF55
:1035D0008F1651F124EF8212F2CF8091290282FDE1
:1035E0002FC08F2D8F71AA20D9F21BC0AA2081F085
:1035F00034E0391508F4CCCE2F2D2F7181E090E006
:1036000001C0880F2A95EAF79091E9028927AFCF88
:1036100085E0891508F4BCCEEFCF8F2D8F71A110F6
:10362000BFCF0E941C11B4CE80E0AA2009F49FCF26
:103630009F2D9F7181E001C0880F9A95EAF797CF7F
:10364000AA2099F09F2D9F71F92E892F0E941C119D
:103650008091290282FF07C0A8E0FA9EC0011124D0
:103660008360809304028F2DDCCF81E00E940011E3
:10367000B1E0B91508F08CCE82E00E94001188CE2E
:10368000992059F0893309F0EDCEEFEFF7EE23E002
:10369000E150F0402040E1F7E3CE8F2D8F7180CFD5
:1036A000E114F7E7FF0609F420CC21E0E21627E752
:1036B000F20609F424CCF701E851FC47E730F105A4
:1036C00008F03DCCE753F84D0C941B26E11437E786
:1036D000F30609F410CC91E0E91697E7F90659F7DB
:1036E00082E00ACC85E0F801DE01119601900D928E
:1036F0008A95E1F7D80112962C9189819A8121113E
:10370000A7CA0E941909F82EABCAB6E1EB16BCE7AE
:10371000FB06E9F480910E028A7A91E009F490E0C8
:103720009093AA018111E4CC89E20E94F6080E94DC
:10373000891033CBE6E1EE16ECE7FE0679F58091D1
:10374000AA018111D7CC89E20E94E908F0CFF3E009
:10375000EF16FCE7FF0609F44ECD60F4E1143CE7F8
:10376000F30609F43BCD81E0E8168CE7F80609F48E
:1037700048CD52CD9BE5E9169CE7F90609F497CDB3
:10378000ACE5EA16ACE7FA0609F43DCDBAE5EB166E
:10379000BCE7FB0609F040CD81E03CCD80910E02F4
:1037A0008272F701E052F847E531F10508F034CDB7
:1037B000E053F84D0C941B261F93CF93DF93809119
:1037C000D101807F09F049C08091CE01882309F49E
:1037D00044C080910302D091D2016091CC017091DC
:1037E000CD01A091CF01B091D001C62FC72316E023
:1037F000D81799F190E0109711F0CF3F19F4019686
:103800008770F6CF189F9001199F300D1124F90190
:10381000ED52FE4F41814713F2CF40814613EFCF67
:1038200042814111ECCF438154814A1B5B0B483CE0
:10383000510528F78091D1018F7080618093D1016B
:10384000F901E852FE4F80818F70806180838CEC9B
:1038500091E00E940F160E940F09DF91CF911F91F6
:103860000895A1E1B0E0E7E3FCE10C943F268C0170
:1038700085E0F801DE011D9601900D928A95E1F731
:10388000F801E2808CECA82E81E0B82E6091CF0187
:103890007091D0016115710509F426C19091CC0198
:1038A0004091CD01892F84238F3F09F41DC12081D0
:1038B0003181C380D480F090CE01F601E61BF70B76
:1038C000FF2009F4DCC08091D101582F507FE83CE3
:1038D000F10508F09FC051116BC0FE2C431314C0BA
:1038E000921312C0E11010C08F7080618093D101DB
:1038F000C5010E940F168091D101F80185838F2D9B
:103900006196EAE00C945B26C114D10429F0822F61
:1039100083238F3F09F003C180E0F82FF170DF2E81
:1039200080FF3CC0809103024091D20156E0841395
:1039300015C02D873E878D859E850E94300E292FCC
:1039400022952F702230F0F0243018F59F70F1F09E
:10395000F8019581907FD1F4D12C1EC090E0589F42
:10396000F001599FF00D1124ED52FE4F6181361385
:1039700006C06081261303C06281E6120FC0019663
:103980008770D5CF9F7011F0882331F3805E883027
:1039900018F3C8010E940F16FD2CB1CFEE2009F4D8
:1039A000AECF8091D10181608093D101F12CA7CF5E
:1039B000431306C0921304C0F801EE2009F479C045
:1039C000C8010E943D0E882309F1EE20F9F0809194
:1039D000D101803270F02091CC013091CD01388737
:1039E0002F831986DB86CA868C87CE0107960E94B4
:1039F0000F1686E0F801ACECB1E001900D928A95CB
:103A0000E1F70E94DC1BFF24F39479CFC8010E94E8
:103A10000F16F9CF51110AC08CEC91E00E940F16DD
:103A200086E0F50111928A95E9F7C0CF43130FC0E4
:103A300092130DC0E1100BC0F8018583C8010E94EC
:103A40000F1686E0F50111928A95E9F758CFC80163
:103A50000E943D0E8823D1F2EE20C1F28091D10167
:103A6000803238F22091CC013091CD013A83298304
:103A70001B82DD82CC828E83CE010196B8CFE83CDA
:103A8000F105F8F6FE2CEE2009F243131FC0921345
:103A90001DC08091D10180FD10C0982F907F69F0EA
:103AA000F8018583903F31F0982F907F905F8F7061
:103AB000892B8583C8010E940F1686E0F801ACECC3
:103AC000B1E001900D928A95E1F719CFC8010E94EB
:103AD0003D0E81118ECF8091D10181608093D10103
:103AE000C8010E940F160BCFEE2009F48FCFC8013A
:103AF0000E943D0EF82E882309F488CF86E0F80155
:103B0000ACECB1E001900D928A95E1F78091CC0187
:103B10009091CD010E94300E0E94DC1BF0CE81E01E
:103B20008E25FBCEA7E1B0E0E8E9FDE10C94462646
:103B30004B8B5C8B6D8B7E8B8F8B611110920D028A
:103B40001A8A198A85E0FE017396DE011D9601909E
:103B50000D928A95E1F786E0FE013D96DE0117960B
:103B600001900D928A95E1F7CE0107960E94311CD3
:103B7000811112C086E0FE013796DE011196019098
:103B80000D928A95E1F78A859B85892B29F0888596
:103B90009F8189238F3F81F516E0809103029091E8
:103BA000D201891317C06796E3E00C94622696E071
:103BB000929FD001939FB00D1124AD52BE4FFE01D4
:103BC000319601900D929A95E1F78093D2010E946F
:103BD0000F09E2CF819FC00111248D529E4F0E9498
:103BE000311C882301F38091030290E001968770D5
:103BF000992780930302D1CF2091D20130E0C901EF
:103C0000019687709927409103024817190679F6A3
:103C10000E942F131092D2011092030286E0ECEC66
:103C2000F1E0DF011D928A95E9F7B6CFA4E1B0E09B
:103C3000ECE1FEE10C9437268E010F5F1F4F84E10B
:103C4000F80111928A95E9F790E5E92E91E0F92EB5
:103C5000680125E5222E21E0322EAA24A394B12C5E
:103C600046E6842E41E0942EF70181917F018F3F3B
:103C700009F44FC0F894E82FE295EF70F0E021A12D
:103C80008F70A50102C0440F551F8A95E2F7CA0143
:103C9000922F982B91A392A18095892382A3789447
:103CA00000C0E5E5F1E041E050E060E070E0412C6B
:103CB000512C320121912F3F09F46BC0A22FA29504
:103CC000AF70B0E090968C9190E02F7002C0959507
:103CD00087952A95E2F780FD5CC0DB01CA01482A7E
:103CE000592A6A2A7B2A440F551F661F771F8E1692
:103CF0009F0601F7F701319780818F3F11F00E94F5
:103D0000F30650EA5A95F1F7F60140825182628239
:103D10007382F4E0CF0ED11C2E143F0409F0A4CF1F
:103D200044E150E0B80184E192E00E94D726892B5B
:103D3000A1F184E1F801A4E1B2E001900D928A952D
:103D4000E1F781E0809313020E94790590931202BB
:103D50008093110280911102909112020E946A05D3
:103D60000597F8F044E150E064E172E083E492E00A
:103D70000E94D726892BD1F084E1E4E1F2E0A3E4AC
:103D8000B2E001900D928A95E1F781E01092130262
:103D900009C080E090E0DC01A2CF80911302811184
:103DA000D9CF80E06496E2E10C94532680E0EECF18
:103DB0001F920F920FB60F9211242F933F934F93A0
:103DC0005F936F937F938F939F93AF93BF93CF93A3
:103DD000DF93EF93FF93D091E900DF708091EC00C7
:103DE000C82FC17080FDC0E81092E9008091F000FA
:103DF000877F8093F00078940E943B131092E90033
:103E00008091F00088608093F000CD2BCF70C0933C
:103E1000E900FF91EF91DF91CF91BF91AF919F9119
:103E20008F917F916F915F914F913F912F910F9063
:103E30000FBE0F901F9018951F920F920FB60F9202
:103E400011242F933F934F935F936F937F938F939F
:103E50009F93AF93BF93EF93FF938091E10082FF15
:103E600009C08091E20082FF05C08091E1008B7F54
:103E70008093E1008091DA0080FF24C08091D80017
:103E800080FF20C08091DA008E7F8093DA008091DD
:103E9000D90080FF9DC080E189BD82E189BD09B460
:103EA00000FEFDCF81E08093DC028091CF02811182
:103EB00009C00E940D040E94AE048091E20084605B
:103EC0008093E2008091E10080FF17C08091E200C2
:103ED00080FF13C08091E2008E7F8093E20080918A
:103EE000E20080618093E2008091D800806280933C
:103EF000D80019BC85E08093DC028091E10084FF4A
:103F00002BC08091E20084FF27C080E189BD82E15F
:103F100089BD89B5982F917080FFFBCF8091D80023
:103F20008F7D8093D8008091E1008F7E8093E100A7
:103F30008091E2008F7E8093E2008091E2008160B8
:103F40008093E2008091DD02882309F447C084E079
:103F50008093DC028091DC028091E10083FF27C026
:103F60008091E20083FF23C08091E100877F8093EE
:103F7000E10082E08093DC021092DD028091E1009A
:103F80008E7F8093E1008091E2008E7F8093E2003B
:103F90008091E20080618093E20042E060E080E096
:103FA0000E947C048091F00088608093F000FF9173
:103FB000EF91BF91AF919F918F917F916F915F91A1
:103FC0004F913F912F910F900FBE0F901F9018951A
:103FD00019BC1092DC021092CF0274CF8091E300E2
:103FE00087FD93E09093DC02B5CF78941F921FB6C3
:103FF0001F9211248F939F93AF93BF938091CB0215
:104000009091CC02A091CD02B091CE020196A11D5B
:10401000B11D8093CB029093CC02A093CD02B093BC
:10402000CE02BF91AF919F918F911F901FBE1F90A5
:1040300018951F921FB61F9211248F939F93AF93D1
:10404000BF938091CA02811113C08091CB029091DD
:10405000CC02A091CD02B091CE024196A11DB11D1E
:104060008093CB029093CC02A093CD02B093CE026A
:10407000BF91AF919F918F911F901FBE1F90189578
:10408000CDB7DEB7AE970FB6F894DEBF0FBECDBF8B
:1040900085B7806885BF85B7806885BF84B7877F0F
:1040A00084BF0FB6F894A8958091600088618093D2
:1040B0006000109260000FBE80E890E00FB6F894A8
:1040C00080936100909361000FBE81EF96E0909322
:1040D000A1018093A0010E940D040E94AE04809172
:1040E000E20084608093E20078948091DC0288236F
:1040F000A1F01091E9001F709091EC00892F817060
:1041000090FD80E8182B1092E9008091E80083FD73
:104110000E943B131F701093E90082E084BD93E07E
:1041200095BD9AEF97BD80936E000E94670E811136
:1041300002C00E94B40D00E511E0D8018D918D01FF
:104140008F3F11F00E94F306B1E005351B07A9F778
:1041500005E511E0F80181918F018F3F11F00E9478
:10416000F306F1E006361F07A9F784E1E3E4F2E085
:10417000DF01282F1D922A95E9F7E4E1F2E0DF0143
:104180001D928A95E9F70E942313811102C00E94B3
:10419000AA1282E090E00E94E42680932D0284E03F
:1041A00090E00E94F22690932902809328020E94B8
:1041B000161EEFE3FCE93197F1F700C000000E9402
:1041C000161E8091430280FF08C06FEF7FEF90E0E2
:1041D00080E00E9416270E94BF0A83E090E00E94C0
:1041E000E4260E942811209A289880912A028111A1
:1041F00033C00E942313811104C00E94AA120E949E
:10420000791088E090E00E94EC266093BF027093E2
:10421000C0028093C1029093C2026E7F71F40E942B
:10422000791088E090E00E94EC266093BF027093C2
:10423000C0028093C1029093C2020E94E3051092D3
:104240006B028091BF0280FF04C060E086950E94EF
:10425000121081E080932A0284E091E09093C702DB
:104260008093C6028091DC0200E112E1853009F4FE
:10427000C7C00E94161EAEE2B2E0BCA7ABA793E493
:10428000292E92E0392ED101EEE2F2E00191119156
:10429000219131914D915D916D917D9182E492E0FA
:1042A0008E179F0709F4B8C00417150726073707AC
:1042B00069F3A3E4B2E0BEA7ADA710E0ADA5BEA52B
:1042C000CD90DD90ED90FD90BEA7ADA7EBA5FCA530
:1042D0004190519061907190FCA7EBA74C145D0444
:1042E0006E047F04E1F100E0812C912C5401839451
:1042F0004C245D246E247F24D301C201882199219E
:10430000AA21BB21892B8A2B8B2BD9F00EA31FA3AB
:1043100021E0D701C60188219921AA21BB21892B3F
:104320008A2B8B2B09F420E028A70E947905816055
:10433000782F9AA789A74EA15FA168A58AA50E9498
:10434000921D0F5F880C991CAA1CBB1C0131A1F6A1
:10435000EBA5FCA53497C082D182E282F3821F5F75
:10436000153009F0ABCF8FB7F8944091CB02509144
:10437000CC026091CD027091CE028FBF71C080914E
:10438000DC02843039F180E00E945C0A1092CA029B
:1043900088E190E0A0E40FB6F894A89580936000BF
:1043A0000FBEA093600083B7817F846083BF83B713
:1043B000816083BF7894889583B78E7F83BF0FB663
:1043C000F894A895809160008861809360001092B5
:1043D00060000FBE8091DB02882391F00E94161EC0
:1043E000E3E4F2E081919191A191B191892B8A2B23
:1043F0008B2B09F0B5C387E592E08E179F0791F7E5
:104400008091DC02853009F4BACF0E942F130E94FC
:10441000CF050E945C0A2DCF041715072607370722
:1044200009F06CC10E9479058C0180912B0290915A
:104430002C0208171907A1F08FEF89A38AA31BA2EA
:104440000E9479058160782F9DA38CA349A15AA170
:104450006BA18DA10E94921D10932C0200932B0240
:1044600080916B028823D1F180916A02E091BF02B2
:10447000E695E81BE0936602823009F044C1F0E063
:10448000E65BFD4FE4910E2F10E0A9E1EA2EADE0CE
:10449000FA2E80916702882361F0109267020E94D1
:1044A00079059093650280936402109269021092DC
:1044B00068020E947905E0916402F09165028E1B0A
:1044C0009F0B8F3F9F4750F4E00FF11FF093650261
:1044D000E093640284E692E0F701099586E0EEE558
:1044E000F2E0DE01119601900D928A95E1F71092AB
:1044F00060021092610210926202109263028B813C
:104500009C81892B09F44AC080915C0290915D02E4
:104510000E946A059C0190915702992309F444C3B3
:1045200025313105D8F19F3F19F09F5F90935702D5
:104530001B81112359F00E94D1069FEF11160CF434
:1045400091E0899F802D1124809360021C811123AA
:1045500059F00E94D1069FEF11160CF491E0899F4B
:10456000802D112480936102309160023323B1F0D9
:1045700020916102222391F045EB3403C001112404
:10458000992309F42CC19093600245EB2403900118
:104590001124332309F427C1309361028D819E8158
:1045A000892B09F44AC080915A0290915B020E94C3
:1045B0006A059C0190915802992309F4F0C22135B3
:1045C0003105D8F19F3F19F09F5F909358021D81EC
:1045D000112359F00E94AF069FEF11160CF491E0E1
:1045E000899F802D1124809362021E81112359F02E
:1045F0000E94AF069FEF11160CF491E0899F802D69
:10460000112480936302309162023323B1F0209130
:104610006302222391F045EB3403C0011124992356
:1046200009F4E5C09093620245EB24039001112444
:10463000332309F4E0C03093630246E050E0BE014A
:104640006F5F7F4F8EE592E00E94D726892B61F441
:104650008091600290916102892B90916202892B76
:1046600090916302892B11F00E94880686E0FE017A
:104670003196AEE5B2E001900D928A95E1F70E9485
:10468000CF0590914202891779F0809342029FB73B
:10469000F8944091CB025091CC026091CD02709180
:1046A000CE029FBF0E945C0A8091DC02843009F038
:1046B000D9CD83E08093E9008091E80082FFD2CDDC
:1046C0008091E80090E085FF06C00E942C048823BA
:1046D00009F495C091E08091E8008B778093E80021
:1046E000992309F4BFCD8981EFEFE80FE33108F09A
:1046F000AFC0F0E0EB51F84D0C941B26E3E4F2E080
:10470000FEA7EDA7DACD863059F4F0E0E95BFD4F66
:10471000E4910E2F10E0F9E0EF2EFDE0FF2EB9CE70
:10472000893061F4E695F0E0EC5BFD4FE4910E2FEB
:1047300010E0EDE7EE2EECE0FE2EABCE8F3061F414
:10474000E695F0E0EF5BFD4FE4910E2F10E078E18D
:10475000E72E7CE0F72E9DCE853159F4F0E0E25C47
:10476000FD4FE4910E2F10E06AECE62E6BE0F62E82
:1047700090CE08E210E03FE4E32E3BE0F32E8831D8
:1047800009F487CE833249F4ECE3F2E00591149109
:1047900058EBE52E5CE0F52E7CCE04EF11E028E12D
:1047A000E22E2BE0F22E843209F473CE00ED17E0F6
:1047B00092EEE92E95E0F92E853209F06ACE8E2F21
:1047C00063E00E94D925E92FF0E0E75CFD4FE4911A
:1047D0000E2F10E040E8E42E4EE0F42E5ACE81E099
:1047E00080936002D2CE81E080936102D7CE81E0D7
:1047F0008093620219CF81E0809363021ECF80E232
:10480000E82EF12C8E010F5F1F4F8091E80085FD8F
:104810000AC08091E8008B778093E8000E942C0406
:10482000882399F357CF8091F100D8018D938D01A2
:10483000B1E0EB1AF10849F74DCF1A828BE08B8378
:1048400024C08A81823009F4A1C128F4813061F04A
:104850008FEF89831AC0833009F18430C9F71B8236
:104860001C821D821E8211C02FB7F8946091CB026A
:104870007091CC028091CD029091CE022FBF0E9408
:1048800021266B837C838D839E8340E250E0BE01B2
:104890006F5F7F4F82E00E94620AE4CCFE01319696
:1048A000D1014D915D916D917D911D016283538385
:1048B00044833396B7E52B16B2E03B0689F7E5CF84
:1048C0008A81823081F0853019F68091BF0280FFA5
:1048D00015C08091BF028E7F8093BF0210926B0241
:1048E0000E94E30AD2CF6B817C818D819E810E94E0
:1048F000212685E290E00E94F826C7CF8160809350
:10490000BF0260E086950E941210BFCF4C816B8180
:104910008A810E94C40D9827892798279E838D83BA
:10492000B4CF2D813E813227232732274C816B81E2
:104930008A810E943D0DA9CF0E94630DA6CF9A8166
:10494000923009F085CF8830D9F1893009F463C0FD
:104950008B81823009F1A8F4813009F096CF8C81E7
:10496000EFEF8E9FC00111246FEF70E00E94F325DE
:10497000462F20E06091C1028091C0020E942D0F5D
:1049800084CF8330C9F0843009F07FCF20E040919C
:10499000C2026D818C81F2CF8C81882309F499CF7A
:1049A0008091BF0281608093BF0260E086950E9483
:1049B000121060E08C81A7CF8C818093C30265CFF9
:1049C0008B818230E1F078F4813009F05ECF809104
:1049D000C202FFEF8F9FC00111246FEF70E00E94B1
:1049E000F3256C8352CF833099F0843009F04DCF9A
:1049F0008091C0028C838091C1028D8346CF8091CB
:104A0000BF0280FF03C086958C833FCF80E0FCCF40
:104A10008091C302F9CF6091BF027091C002809172
:104A2000C1029091C2020E941A0F2FCF80E18A83A7
:104A30002CCF81E08A8382E302CF0A811B81102779
:104A400001271027CE0101966C01EC80DC01AE0D30
:104A5000B11D7D01C80182539D4FCE14DF0409F4BE
:104A600014CF0233B1E01B0750F40E94E426F60194
:104A700084830F5F1F4FBFEFCB1ADB0AEBCFD6014A
:104A800014961C92F6CF0A811B811027012710274C
:104A9000FE0131966F01EC80E00EF12EF11CC80191
:104AA00082539D4F0E151F0509F4EFCE0233F1E03E
:104AB0001F0728F4D60114966C910E94F826BFEFC8
:104AC000CB1ADB0A0F5F1F4FEACF0E942D0DDDCE00
:104AD00084E0ADCF0A811B81102701271027FE013A
:104AE00031966F01EC80CF018E0D911D7C01C801C4
:104AF0008696EC14FD0409F4C8CE083AA2E01A0721
:104B000050F40E94E426F60184830F5F1F4FBFEF2D
:104B1000CB1ADB0AECCFD60114961C92F6CF0A8191
:104B20001B81102701271027FE0131966F01EC80B1
:104B3000E00EF12EF11CC8018696E016F10609F48C
:104B4000A4CE083AF2E01F0728F4D60114966C911F
:104B50000E94F826BFEFCB1ADB0A0F5F1F4FEBCF87
:104B600009BD19BD09B400FEFDCF8091D8008F7D2D
:104B70008093D8008091E00082608093E000809173
:104B8000E00081FDFCCF0E942F133ACC85E290E03B
:104B90000E94E4261B821C821D828E8376CE2B30DF
:104BA000310508F011CD49CD2B30310508F0BDCCD1
:104BB000F5CC991B79E004C0991F961708F0961B55
:104BC000881F7A95C9F78095089587FB082E0626D9
:104BD00087FD819567FD61950E94D9250EF4919519
:104BE00007FC81950895AA1BBB1B51E107C0AA1FB2
:104BF000BB1FA617B70710F0A61BB70B881F991F7E
:104C00005A95A9F780959095BC01CD01089597FB21
:104C1000072E16F4009407D077FD09D00E94F325E3
:104C200007FC05D03EF4909581959F4F08957095AF
:104C300061957F4F0895EE0FFF1F0590F491E02DD1
:104C40000994692796276927782787277827089561
:104C50000E948027332312F48A1B9B0B0C9432266C
:104C60000E948027B7FF0895821B930B08952F920F
:104C70003F924F925F926F927F928F929F92AF92EC
:104C8000BF92CF92DF92EF92FF920F931F93CF9339
:104C9000DF93CDB7DEB7CA1BDB0B0FB6F894DEBFD0
:104CA0000FBECDBF09942A88398848885F846E84F6
:104CB0007D848C849B84AA84B984C884DF80EE8040
:104CC000FD800C811B81AA81B981CE0FD11D0FB649
:104CD000F894DEBF0FBECDBFED0108958F929F9275
:104CE000AF92BF92CF92DF92EF92FF92CF93DF937A
:104CF000EC01688179818A819B816115710581054B
:104D0000910521F464E279ED8BE597E02DE133EF35
:104D100041E050E00E942C2749015A019B01AC015F
:104D2000A7EAB1E40E944B276B017C01ACEEB4EF23
:104D3000A50194010E945927DC01CB018C0D9D1D1A
:104D4000AE1DBF1DB7FF03C00197A109B0488883FE
:104D50009983AA83BB839F77DF91CF91FF90EF90D8
:104D6000DF90CF90BF90AF909F908F9008950E945A
:104D70006E26089580E091E00E946E260895B0E0CE
:104D8000A0E08093000190930101A0930201B093F1
:104D900003010895FC014150504030F00190061687
:104DA000D1F73197CF010895882799270895FB01FE
:104DB000DC0104C08D910190801921F441505040D4
:104DC000C8F7881B990B0895F999FECF92BD81BD54
:104DD000F89A992780B50895A6E1B0E044E050E044
:104DE0000C941E27A8E1B0E042E050E00C941E278E
:104DF000262FF999FECF92BD81BDF89A019700B494
:104E0000021639F01FBA20BD0FB6F894FA9AF99A33
:104E10000FBE08950396272F0E94F9260E94F826B8
:104E2000252F0E94F926242F0C94F9260196272F6E
:104E30000E94F9260C94F826DC01CB01FC01F999BB
:104E4000FECF06C0F2BDE1BDF89A319600B40D92D6
:104E500041505040B8F70895052E97FB1EF400947A
:104E60000E94432757FD07D00E945E2707FC03D00E
:104E70004EF40C94432750954095309521953F4F23
:104E80004F4F5F4F089590958095709561957F4F36
:104E90008F4F9F4F08950E948027A59F900DB49F2C
:104EA000900DA49F800D911D11240895B7FF0C94BF
:104EB0004B270E944B27821B930B0895A1E21A2EC9
:104EC000AA1BBB1BFD010DC0AA1FBB1FEE1FFF1FAE
:104ED000A217B307E407F50720F0A21BB30BE40BFE
:104EE000F50B661F771F881F991F1A9469F7609545
:104EF0007095809590959B01AC01BD01CF010895FF
:104F0000A29FB001B39FC001A39F700D811D11240A
:104F1000911DB29F700D811D1124911D0895F8946B
:104F2000FFCF1C144414E7154414E71577149814A4
:104F3000E7159615A315F5176A18FD17C717CB17B0
:104F40000118CF1705181118DB176318DF1715188C
:104F5000E31719184118E7171D184818ED172318FB
:104F60002B18D3170918D7170D18F117271837184A
:104F700051186118C117F91771185E195E1999193E
:104F80009919361A501AC819C819551AC21AD31ABB
:104F9000D31A8C17901781178817941798179C1796
:104FA0007C189A18A118A618AB18B018B518BA181A
:104FB000BF18C418C918CE18D118D618D918DC18BB
:104FC000DF18E218E518E818EB181D2421246024E6
:104FD000862491249C249F249F249F2428242824D1
:104FE000162519251D254325652568256A258F2544
:104FF000010000006705AB0AA40A9D0A01191A1BEB
:105000001C1D1E1F20212201020101818283E2005A
:10501000E900EA00B500B600B700CD008301CC007E
:105020008A01920194012102230224022502260210
:1050300027022A02B300B4006F0070009F01CB0169
:105040003332F4F5F6F0F1F731909192939594960E
:105050009734353666670001020202020606060929
:1050600009090909090F0F0F0F0F0F151515181949
:10507000191919191919191919232425252525254F
:105080002540227B49012701AC000D072607460772
:00000001FF
