:100000000C94EA030C9422040C9422040C94220411
:100010000C9422040C9422040C9422040C942204C8
:100020000C9422040C9422040C94142E0C94E82EAC
:100030000C94A0280C9422040C9422040C94220406
:100040000C9422040C9422040C9422040C94220498
:100050000C9417200C9427290C9422040C9422044D
:100060000C9422040C9422040C9422040C94220478
:100070000C9422040C9422040C9422040C94220468
:100080000C9422040C9422040C9422040C94220458
:100090000C9422040C9422040C9422040C94220448
:1000A0000C9422040C9422040C94220429001E00B7
:1000B0001F0020002100220023002400250026002C
:1000C00027002D002E0035002A002B0014001A00F6
:1000D0000800150017001C0018000C001200130087
:1000E0002F00300031000000390004001600070026
:1000F00009000A000B000D000E000F003300340051
:10010000000028000000E10000001D001B000600A8
:100110001900050011001000360037003800E50016
:100120004C000000E000E300E20000002C000000B2
:100130002C0000002C000000E6002152E700E40043
:100140000000007C3A003B003C003D003E003F00C8
:10015000400041004200430044004500010001000E
:10016000010002780378047805780100010001009D
:100170000100010001000100010001000000010078
:100180000100010001000100010001000100010067
:100190000100010001000000010000000100010059
:1001A0000100010001000100010001000100010047
:1001B0000100010001000100000001000100010038
:1001C000000001000000010000000100000001002B
:1001D0000100010001000000010001000100010018
:1001E0000100010001000100010001000100010007
:1001F00001000100010001000100010001000100F7
:1002000001000100010001000100010001000100E6
:1002100001000000010001000100010001000100D7
:1002200001000100010001000100010000000100C7
:1002300000000100010001000100010001000100B7
:1002400001000100010001000100010001000000A7
:100250000100010001000000010000000100000099
:100260000100000001000100010001000000010088
:100270000100010001000100010001000100010076
:100280000100010001000100010001000100010066
:100290000100010001000100010001000100010056
:1002A0000100010001000100000001000100010047
:1002B0000100010001000100010001000100010036
:1002C0000100000001000000010001000100010028
:1002D0000100010001000100010001000100010016
:1002E0000100010000000100010001000000010008
:1002F00000000100000001000000010001000100F9
:10030000010000001E0F0500047F3F1F64321464CB
:100310003214783C1E1E140A052223252628292A79
:100320002C2D2F3032333536383A3B3D3E40424358
:100330004547494A4C4E5051535557595A5C5E6097
:1003400062646668696B6D6F71737577797B7D7FA9
:1003500081838587898A8C8E90929496989A9C9EA8
:100360009FA1A3A5A7A8AAACAEAFB1B3B4B6B8B9C4
:10037000BBBCBEBFC1C2C3C5C6C7C9CACBCCCDCE2C
:10038000D0D1D2D2D3D4D5D6D7D7D8D9D9DADADB0F
:10039000DBDBDCDCDCDCDCDDDDDDDDDCDCDCDCDC9B
:1003A000DBDBDBDADAD9D9D8D7D7D6D5D4D3D2D2DA
:1003B000D1D0CECDCCCBCAC9C7C6C5C3C2C1BFBEC2
:1003C000BCBBB9B8B6B4B3B1AFAEACAAA8A7A5A32D
:1003D000A19F9E9C9A98969492908E8C8A898785EC
:1003E00083817F7D7B79777573716F6D6B696866CB
:1003F0006462605E5C5A5957555351504E4C4A499D
:1004000047454342403E3D3B3A3836353332302F44
:100410002D2C2A292826252322FFAA7F55400000BB
:1004200000000000000000000001010203040506B6
:10043000080A0C0F1114181C2024292E33393F46AA
:100440004C535B626A7179818A929AA2AAB2B9C14D
:10045000C8CFD5DCE1E7EBF0F4F7FAFCFDFEFFFED8
:10046000FDFCFAF7F4F0EBE7E1DCD5CFC8C1B9B297
:10047000AAA29A928A8179716A625B534C463F398B
:10048000332E2924201C1814110F0C0A0806050409
:100490000302010100000000000000000000000154
:1004A0000101010101010101020202020202020234
:1004B0000203030303030303030404040404040406
:1004C00005050505050606060606070707070708CA
:1004D000080808090909090A0A0A0B0B0B0C0C0C7D
:1004E0000D0D0D0E0E0E0F0F0F1010111111121217
:1004F00013131414151516161717181819191A1A94
:100500001B1B1C1D1D1E1E1F2020212222232424F4
:10051000252626272829292A2B2C2D2D2E2F303130
:100520003232333435363738393A3B3C3D3E3F4042
:100530004142434445464748494A4C4D4E4F50512D
:100540005354555658595A5B5D5E5F6162646566E7
:1005500068696B6C6D6F7072737577787A7B7D7E6E
:100560008082838587888A8C8E8F91939596989ABE
:100570009C9EA0A2A3A5A7A9ABADAFB1B3B5B7BAD6
:10058000BCBEC0C2C4C6C9CBCDCFD1D4D6D8DBDDAA
:10059000DFE2E4E7E9EBEEF0F3F5F8FAFDFF000047
:1005A0000000000000002A2B2800000000000000CE
:1005B00000000000000000000029000000002C1EC8
:1005C0003420212224342627252E362D3738271E85
:1005D0001F202122232425263333362E37381F04AB
:1005E00005060708090A0B0C0D0E0F101112131443
:1005F00015161718191A1B1C1D2F3130232D350401
:1006000005060708090A0B0C0D0E0F101112131422
:1006100015161718191A1B1C1D2F3130354C0000E8
:1006200000000000000000000000000000000000CA
:1006300000000000000000000000000000000000BA
:1006400000007E0F00D4FFFFFFC7000000782403E6
:100650004C0065006100660020003600300020007C
:1006600055006E006900760065007200730061003D
:100670006C000000100346006F00780020004C0062
:100680006100620000000403090409025B00030129
:1006900000A0FA0904000001030101000921110171
:1006A0000001224000070581030800010904010040
:1006B00002030000000921110100012222000705A8
:1006C0008203200001070503032000010904020042
:1006D0000103000000092111010001227B00070530
:1006E000840320000112010002000000084C4602B1
:1006F000000100010200010660FF0961A101096219
:10070000150026FF00952075088102096315002653
:10071000FF00952075089102C005010902A101851D
:10072000020901A1000509190129081500250195F3
:1007300008750181020501093009311581257F9570
:10074000027508810609381581257F950175088194
:1007500006050C0A38021581257F9501750881066A
:10076000C0C005010980A101850319012AB7001540
:100770000126B700950175108100C0050C0901A183
:1007800001850419012AA002150126A00295017510
:10079000108100C005010906A101050719E029E73C
:1007A00015002501950875018102950175088101E3
:1007B0000507190029FF150026FF00950675088119
:1007C0000005081901290595057501910295017526
:1007D000039101C011241FBECFEFDAE0DEBFCDBF11
:1007E00004B603FE18C08091270390912803A091BE
:1007F0002903B0912A038730904BA740B04B59F49E
:1008000010922703109228031092290310922A03B2
:10081000E0E0F8E3099511E0A0E0B1E0E0E8F5E6FA
:1008200002C005900D92A03FB107D9F723E0A0EFD9
:10083000B1E001C01D92A732B207E1F70E94D413C4
:100840000C9450320C94000084E008958430B8F485
:100850006530A8F44F3098F450E09FE0699F400D58
:10086000511D1124FA019BE4899FE00DF11D112413
:10087000EE0FFF1FE455FF4F85919491089581E09D
:1008800090E0089581E0089581E008950E94440475
:10089000089508950E9449040895A6E0B0E0E3E5B4
:1008A000F4E00C94423149835A839E833091F701DE
:1008B00089819A8131111AC03E81332399F0222314
:1008C00089F00E94330A182F682F89819A810E942B
:1008D0000F0A69817A81812F0E9444112696E3E0F4
:1008E0000C945E310E94210A182FF3CF0E94330A24
:1008F00069817A81F1CFFC01262F4081518162818B
:100900007381848195810E944D04089581E008954A
:10091000CF93DF93EC0160E00E947B04BE010E9454
:100920004A04DF91CF91089508950E940B090E9417
:1009300094042FEF84E39CE0215080409040E1F745
:1009400000C0000008950E9495040E944B2908955C
:100950000E9495040E946F2908950F931F93CF93CF
:10096000DF938C0161E00E947B04EC01B8010E94DE
:100970005421811106C080E0DF91CF911F910F912A
:100980000895B801CE010E9446048823A1F3B8015E
:10099000CE010E94301F882371F3B801CE010E945E
:1009A000F426882341F3B801CE010E941B2388233B
:1009B00011F3B801CE010E9466268823E1F2B80146
:1009C000CE010E94A11D8823B1F2B801CE010E9480
:1009D0003827882381F2F8018581882361F0C330AC
:1009E000FCE7DF07E9F058F4C115ECE7DE07A9F0F2
:1009F000C130DC47B9F0C8010E944204BDCFCB35FD
:100A00008CE7D807A9F0CC35ECE7DE0771F0CA35E2
:100A1000DC4789F70E94920EEECF0E94A304ABCF71
:100A20000E949A0E0E94A804A6CF0E94880EE3CFCF
:100A30000E94960EE0CF0E947C2880E00E94D51F85
:100A40000E9452050E94FD1B08950E945C1E0E9498
:100A500056050E94DE1C0E9481280895089581E0B9
:100A6000089581FD02C0769A089576980895CF93EF
:100A7000DF93D82F0E942F05C82F882319F08D2FC0
:100A80000E9431058C2FDF91CF9108956E9A769A4E
:100A90000895CF93C82F0E942E058C2F0E943705F2
:100AA000CF91089580E00E94490508950E948B2708
:100AB0000E9449050895CF930E948B27C82F8091EB
:100AC000F2018C1779F0C093F2010E940C29609317
:100AD000F3017093F4018093F5019093F6018C2F4C
:100AE0000E944905CF910895ADE0B0E0EAE7F5E056
:100AF0000C944331488759876A877B878C879D8709
:100B000091110E94BB0D1F8286E0FE013896DE0126
:100B1000119601900D928A95E1F78D8181110DC09A
:100B200029813A814B815C816D817E818F810E9418
:100B3000EE0C2D96E2E00C945F31CE0101960E94FE
:100B400086048111EDCFF5CFFC01808191810E9457
:100B5000600A0895662329F00E9458140E942B15FC
:100B600008950E94B214FACFCF93C82F8823C9F0FA
:100B70008238C9F40E948B2781FD13C089E30E944B
:100B8000730D0E94F40D2FEF87EE93E0215080400B
:100B90009040E1F700C0000089E30E947B0D0E94B5
:100BA000F40DCF9108958338A1F40E948B2780FD26
:100BB000F8CF83E50E94730D0E94F40D2FEF81EEB4
:100BC00094E0215080409040E1F700C0000083E5B0
:100BD000E4CF8438A1F40E948B2782FDE2CF87E422
:100BE0000E94730D0E94F40D2FEF81EE94E02150CE
:100BF00080409040E1F700C0000087E4CECF8CEF4A
:100C00008C0F813A90F46C2F809104019091050132
:100C10000E940D28882329F08C2F0E947B0D0E94B2
:100C2000F40D8C2F0E94730DBACF80E28C0F8830A8
:100C300048F4C77081E001C0880FCA95EAF70E94A6
:100C40009E0DADCFEBE5EC0FE33040F4F0E0EB5957
:100C5000FE4F808190E00E94B127A3CFE8E5EC0F22
:100C6000EB3150F4F0E0EE0FFF1FE15DFE4F8081AD
:100C700091810E94D62795CF83E38C0F833108F0B2
:100C800090CF61E08C2F0E94AA058BCF882309F4B6
:100C900056C0823879F40E948B2781FF50C089E3C7
:100CA0000E94730D0E94F40D89E30E947B0D0E9447
:100CB000F40D0895833859F40E948B2780FF3FC0BC
:100CC00083E50E94730D0E94F40D83E5EECF843816
:100CD00059F40E948B2782FF32C087E40E94730D73
:100CE0000E94F40D87E4E1CF9CEF980F913AE8F26F
:100CF00090E2980F983050F4877091E001C0990FFE
:100D00008A95EAF7892F0E94A40DD1CF9BE5980F11
:100D1000933028F490E080E00E94B127089598E590
:100D2000980F9B3128F490E080E00E94D627089528
:100D300093E3980F933118F460E00E94AA05089598
:100D40001F93CF93DF93182FEB010E94B4052097D8
:100D500039F4812F0E944606DF91CF911F910895AB
:100D60008FE99FE00197F1F700C000002197EFCFD6
:100D700070E060E0893311F460E570E00E94A00645
:100D80000895882321F00E949E0D0E94F40D08957D
:100D9000882321F00E94A40D0E94F40D0895B0E074
:100DA000A0E0E5EDF6E00C943C316C01D62FC72FA6
:100DB000FC011581068102950F700E94940DE82EAA
:100DC0008823E9F0E12E1123D1F08C2F807F80342D
:100DD00051F080E28D0F8830F8F0011104C08C2FA3
:100DE000807E8032C9F08091E30282FF15C082E0EC
:100DF0000E94570E0E94940D91E0E82EE926BC2E29
:100E0000B2949FE0B922FBE0FB15B8F1EB2DF0E0C6
:100E1000EE5AFD4C0C94F530E12CF1CF0C2F0F70F5
:100E2000C07F11F00295007F112399F0002359F043
:100E300080E28D0F883010F0D11107C0802F0E9402
:100E40009E0D0E94F40D8D2F5AC0802F0E94AE0D72
:100E5000F8CF8D2F0E944606002379F080E28D0F97
:100E6000883010F0D11104C0802F0E94A40D03C05F
:100E7000802F0E94B40D0E94F40DEB2DE850FF0B63
:100E8000349720F40E948B270E944905EE2089F0B8
:100E90000E94900D80FD0DC0F60115820E948A0D02
:100EA0000E948309C6010E94D2080E948A0D0E94F6
:100EB0008F09CDB7DEB7E9E00C9458312C2F2F7095
:100EC000F22EC07FC03219F0F29480EFF822DD23B9
:100ED00041F0D130D1F1112309F444C00023F1F0E5
:100EE000B2CF8091E30282FD15C0112359F0FF209B
:100EF00029F08F2D0E949E0D0E94F40D80E00E942B
:100F0000B405BBCF80E00E944606FF2009F4B5CFB0
:100F10008F2DABCF112369F0011104C08F2D0E94DA
:100F2000C106ABCF013009F0A8CF8F2D0E94D20DA2
:100F3000A4CF0111A2CF8F2D0E94C8068F2D0E9431
:100F4000DE0D8F2D0E94C20D98CF112321F00630A7
:100F500008F093CFE3CF053008F08FCF8F2D0E949C
:100F6000C8068BCF0023D1F3D93349F43FEF87EE86
:100F700093E0315080409040E1F700C000008D2F99
:100F80000E9446067ACF8C2F86958695837069F0ED
:100F9000813009F072CF8D2F9C2F9370111102C0F8
:100FA00080E090E00E94D62768CF8D2F9C2F937011
:100FB000111102C080E090E00E94B1275ECF612F46
:100FC0008D2F0E94AA0559CF8C2F837079F51111AE
:100FD00054CF4D2F429546954770440F440F8D2FA7
:100FE0008F70042E01C0880F0A94EAF72D2F20710C
:100FF000D4FF07C02FE030E001C0220F4A95EAF786
:101000002095C695C695C370822BC23049F058F41E
:10101000C13019F00E945F0930CF0E9459092DCFCD
:101020000E9465092ACF0E94560927CF8695112371
:1010300011F08C2F8170882309F41FCF4D2F42951A
:1010400046954770440F440F8D2F8F70042E01C0BA
:10105000880F0A94EAF72D2F2071D4FF07C02FE0E4
:1010600030E001C0220F4A95EAF72095C695C69553
:10107000C370822BC23049F058F4C13019F00E947D
:10108000AE09FBCE0E94A809F8CE0E94B409F5CEA5
:101090000E947109F2CECF70112329F08C2F0E948B
:1010A00083098D2F3CCF8D2F0E94C8068C2F0E9464
:1010B0008F09E3CED23F41F160F4D03FB9F0D13F88
:1010C00081F0112309F446C00111BDCE8C2F8F7120
:1010D0001FC0D33F01F1D43FA1F78091E30282FD0D
:1010E00024C08C2F8F71112311F312C0112341F0F2
:1010F000053008F0C2CE8C2F8F710E949C09BDCEA6
:10110000063008F0BACEF7CF8C2F8F711111CFCFE8
:101110000E948309B2CE112329F08C2F8F710E9477
:101120007A09ABCE0E947609A8CE112349F0CF717F
:101130008C2F0E94830963E08C2F0E94390E9DCE74
:1011400081E00E94570E023008F497CE82E00E94A0
:10115000570E93CE002359F0D93309F010CFEFEF9B
:10116000F7EE23E0E150F0402040E1F706CF8C2F6E
:101170008F719DCF0F931F93CF93DF93EC01688105
:1011800079818D810E946B0A8C010E94BA090E94AC
:101190005509B801CE010E94CF06DF91CF911F9172
:1011A0000F910895CF93DF93EC018C81882399F000
:1011B000CE010E94AD04811111C00E94940D8823BC
:1011C00051F08D81882339F08091E30282FF03C0C2
:1011D00082E00E94570EDF91CF910895CE010E94C8
:1011E000BA08CE010E948804F6CF90E080E00E9409
:1011F000B12790E080E00E94D6270E94BB0D0E949C
:10120000F40D0E9447150E942B1508950E94830D2E
:101210000E94F50808950E94AB0D0E9406090895EA
:1012200092959F70963091F058F4925F9F70923033
:1012300058F4803F19F030F4883E30F481E008958E
:101240009A5FF4CF843FD1F380E00895883EB0F3F5
:10125000813FD1F7F3CFFC012481222339F0808133
:1012600091810E94600A0E941009089580E008950B
:10127000A6E0B0E0EEE3F9E00C9443312696E2E01C
:101280000C945F31A7E0B0E0E8E4F9E00C9443315E
:101290002796E2E00C945F3108950E944C0908956E
:1012A0000E944D0980931702089508950E945009E5
:1012B000089590911702892B0E94500908959091EA
:1012C000170289230E9450090895909117028927D7
:1012D0000E94500908950E944C0908950E946B09CC
:1012E00008950E946E0980931602089580E00E947E
:1012F0007109089591E001C0990F8A95EAF7892F45
:101300000E947109089521E030E001C0220F8A9502
:10131000EAF780911602822B0E947109089521E05C
:1013200030E001C0220F8A95EAF7209580911602DD
:1013300082230E947109089521E030E001C0220F4C
:101340008A95EAF78091160282270E947109089512
:1013500090911602892B0E947109089590911602AE
:1013600089230E94710908959091160289270E948D
:10137000710908950895262F277091E001C0990FF3
:101380002A95EAF723E0769567952A95E1F7FB0120
:10139000EE0FFF1FE60FF71FE40FF51F50E040E0D0
:1013A000682F70E08191DF0111979B01042E02C02C
:1013B000369527950A94E2F721702195282729234D
:1013C00028272C934F5F5F4F4330510559F70895FD
:1013D000A82FA77023E0969587952A95E1F7FC0141
:1013E000EE0FFF1FE80FF91FE60FF71F50E040E078
:1013F00080E0219130E00A2E02C0369527950A94AC
:10140000E2F721703327042E01C0220F0A94EAF775
:10141000822B4F5F5F4F4330510559F70895262FB8
:10142000953070F48F3060F4682F70E08FE0989FF3
:10143000600D711D112448EF51E0822F0E94BB09FD
:101440000895292F953068F48F3058F490E068EFB4
:1014500071E03FE0239F800D911D11240E94E80957
:10146000089580E00895CF92DF92FF920F931F932B
:10147000CF93DF936C010091160280911702082B25
:10148000C3E0D0E010E0FC2EC8010C2E02C0959500
:1014900087950A94E2F780FD0CC02197A0F7F12C04
:1014A0008F2DDF91CF911F910F91FF90DF90CF9003
:1014B0000895B6018C2F0E945011019771F3F0CF5F
:1014C000CF93DF93EC010E94330ABE010E945011BA
:1014D000DF91CF9108951F93CF93DF93EB0190910C
:1014E000F701992339F0CB010E94600ADF91CF9177
:1014F0001F910895882369F0CB010E94330A182FA9
:10150000682FCE010E940F0ABE01812F0E94501148
:10151000EDCFCB010E94210A182FF6CFE1E0F0E0D9
:10152000DF0102C0AA0FBB1F6A95E2F7BD01DF0110
:1015300002C0AA0FBB1F4A95E2F76A2B01C0EE0F4B
:101540002A95EAF7962F9823961302C08E2B0895BA
:10155000E0958E230895242F462F682F8091160240
:101560000E948E0A0E94710908951F93CF93DF9302
:10157000C091180217E0809119028C1304C0DF910A
:10158000CF911F910895D0E01C9FF0011D9FF00D99
:101590001124E65EFD4F20813181428153816481B7
:1015A000758186810E9442092196C770E4CF2091FF
:1015B0005202309153024091540250915502609171
:1015C000560270915702809158020E944209089574
:1015D000CF93DF9380915802807F09F04DC08091B6
:1015E0005702882309F448C0E0911802509119026B
:1015F000C0915302D09152026091540270915502F1
:1016000047E05E17C9F18E2F90E0E49FF0011124AE
:10161000E65EFD4F2481222391F1489FF001499F0E
:10162000F00D1124DF01A65EBD4F11962C9111978C
:101630002C1325C02C912D1322C015962C91159793
:1016400021111DC012962D913C91261B370B283C71
:101650003105A8F4809158028F7080618093580200
:10166000E05EFD4F80818F708061808382E592E033
:101670000E94D2080E94B50ADF91CF910895FC0123
:101680003196E770BECF482F209118029091190231
:1016900057E0291302C080E0089530E0529FF00126
:1016A000539FF00D1124E65EFD4F8181681306C043
:1016B0008081481303C085818111EECF2F5F3F4F9A
:1016C0002770E7CFA4E1B0E0E8E6FBE00C94393105
:1016D0008C0186E0F801DE011F9601900D928A953B
:1016E000E1F7F8018481E58090915602911121C0C3
:1016F0008823F9F0EE20B9F0C8010E942B09F82EDA
:10170000882389F087E0F801A2E5B2E001900D920C
:101710008A95E1F782E592E00E94A4050E94E80A1A
:101720000E94D70A63C0C8010E94D208FF24F39424
:101730005DC0F801C080D1808280938092E5A92E9F
:1017400092E0B92EF0905702209154023091550248
:10175000A401421B530BFF2009F4ECC0483C510587
:1017600008F09AC0882309F441C0909153028091F7
:101770005802282F207F09F05BC09D1115C0909161
:1017800052029C1111C0E1104DC08F708061809396
:1017900058020E94D70AC5010E94D20880915802BF
:1017A000F8018683F12C22C0E1103CC06D2D8C2DF8
:1017B0000E94430B6D2D8C2D0E94430BE82E81114E
:1017C000F1CFCF86D88A8F8598890E94600A292F09
:1017D00022952F70243078F49F702230A8F099233E
:1017E000B9F0F8019681907F99F4FE2C8F2D6496C4
:1017F000ECE00C9455312A5F2F70223068F0C8015C
:101800000E94D208EF2CF1CF992311F0882369F3BD
:10181000805E883050F3F3CF803F38F3815F8330B0
:1018200070F7E3CF80915802816080935802BACF5D
:101830009D1107C0909152029C1103C0EE2009F443
:101840009BC0C8010E942B09882309F46CCFEE20AD
:1018500009F469CF80915802803288F020915202B9
:1018600030915302398728879B868A869091560249
:101870009C871D868E87CE0108960E94D20887E03D
:10188000F801A2E5B2E001900D928A95E1F70E947D
:10189000E80A0E94D70A4ACF90915802292F207F48
:1018A000A1F4682D9A8A898AA6017A899E2D0E94C0
:1018B000380982E592E00E94D20887E0F501119292
:1018C0008A95E9F70E94D70A6DCF882309F48ECF55
:1018D000809153028D1110C0809152028C110CC066
:1018E000E1100AC09683C8010E94D20887E0F50182
:1018F00011928A95E9F77ACFC8010E942B098823B3
:1019000009F411CFEE2009F40ECF809158028032F5
:1019100008F4B5CF20915202309153023A832983C3
:101920009C828B82909156029D831E828F83CE0172
:101930000196A3CF483C510508F042C0882309F422
:10194000F5CEFE2CEE2009F4EECE809153028D11DF
:1019500029C0809152028C1125C08091580280FDCF
:1019600018C0982F907FA9F08683903F31F0982F70
:10197000907F905F8F70892B8683C8010E94D20868
:1019800087E0F801A2E5B2E001900D928A95E1F7B7
:10199000C7CE87E0F801A2E5B2E001900D928A95EA
:1019A000E1F724CFC8010E942B09811168CF8091F3
:1019B0005802816080935802C8010E94D20816CF55
:1019C000682D9A8A898AA6017A899E2D0E943809F3
:1019D00087E0F50111928A95E9F7A2CEAEE0B0E07A
:1019E000E4EFFCE00C944231288739874A875B8713
:1019F0006C877D878E87CE0108960E94620B8823B4
:101A0000B1F06C85662341F0288539854A855B8570
:101A10007D858E850E94420917E080911802909181
:101A2000190289133DC02E96E3E00C945E3187E0E5
:101A3000FE013896DE01119601900D928A95E1F72C
:101A40008C85882349F32091190230E0C901019661
:101A500087709927409118024817190699F097E066
:101A6000929FD001939FB00D1124A65EBD4FFE0141
:101A7000319601900D929A95E1F7809319020E9498
:101A8000B50ACACF0E940B091092190210921802CF
:101A900087E0E2E5F2E0DF011D928A95E9F7BCCF2D
:101AA000819FC0011124865E9D4F0E94620B882396
:101AB00009F4B9CFE09118021E9FF0011124E65EEF
:101AC000FD4F2081318142815381648175818681FE
:101AD0000E9442098091180290E001968770992730
:101AE000809318029ACF682F80910401909105018C
:101AF0000E9443280895682F809104019091050168
:101B00000E944628089580910401909105010E9449
:101B10004928089580916102859585958595089558
:101B2000809161028770089590916102977081E0C1
:101B300009F480E0089580916D02089590916D02FE
:101B4000892B80936D020895809590916D02982362
:101B500090936D02089510926D02089590916C0219
:101B6000892B80936C020895809590916C02982344
:101B700090936C02089510926C02089508950E944B
:101B8000BE0D089590916202292F282331F080958F
:101B90008923809362020E94BF0D089508950E94D8
:101BA000CE0D089590916302292F2823281729F03C
:101BB000982B909363020E94CF0D08959091630239
:101BC000292F282331F080958923809363020E9476
:101BD000CF0D089580916302882329F0109263024B
:101BE00080E00E94CF0D0895CF93DF93E091040130
:101BF000F091050180916D028083E0910401F091E4
:101C00000501808190916C02892B80839091630201
:101C1000992381F0E0910401F09105018081892BE5
:101C2000808380910401909105010E94FB2781111E
:101C30000E94EA0DC0910401D091050148E050E0F6
:101C400069E572E0CE010E94D331892B59F088E01A
:101C5000FE01A9E5B2E001900D928A95E1F7CE016F
:101C60000E949827DF91CF91089508950E94350E24
:101C700008959091E30292FF11C098E0899F90012E
:101C80001124622B609361020E948309809161029A
:101C90008595859585950E94360E08950E94830945
:101CA00008951092610280E00E94360E089590918E
:101CB00061028095892380936102282F277091F417
:101CC000282F082E000C330B9217130659F0909111
:101CD000E30292FF07C08595859585950E948F093F
:101CE0000E94510E08959091E30292FB222720F961
:101CF000281769F080FB92F99093E3028091E20249
:101D00009091E3020E94BC0E82E00E94570E08955B
:101D10008091E30282FB882780F991E089270E9465
:101D2000730E089581E00E94730E089580E00E9472
:101D3000730E08956FEF7FEF90E080E00E941B32FA
:101D4000089590E080E00E94F731873E9E4F19F49D
:101D50000E94E920089580E0089582E090E00E94CA
:101D6000E931089583E090E00E94E931089584E02C
:101D700090E00E94F7310895BC0184E090E00E9459
:101D80001B320895AB01BC018FE090E00E940F323E
:101D90000895AB01BC0183E190E00E940F320895E9
:101DA00060E070E0CB010E94C90E089560E070E031
:101DB000CB010E94C20E0E94D00E089567EE7EEF06
:101DC00090E080E00E941B3260E082E090E00E94A0
:101DD000FD3160E083E090E00E94FD311092170237
:101DE00060E074E184E090E00E941B3260E086E0F5
:101DF00090E00E94FD316FEF87E090E00E94FD319E
:101E000040E050E0BA0188E090E00E940F3260E0CC
:101E10008DE090E00E94FD3140E050E0BA0188E1A1
:101E200090E00E940F3260E087E190E00E94FD3177
:101E300040E050E0BA018CE190E00E940F3270E087
:101E400060E080E290E00E941B3240E050E0BA0186
:101E500088E190E00E940F3280E00E9402210E94FF
:101E600032210E94D60E08950E94DE0E0895682F3A
:101E70008EE090E00E94FD310895A6E0B0E0E3E43A
:101E8000FFE00C9441310E9400298C0180916E0288
:101E900090916F028017910781F019821A820E9437
:101EA0000029682F49815A81792F80E090E00E94B3
:101EB000740510936F0200936E022696E4E00C9472
:101EC0005D310E940C2960937E0270937F028093A3
:101ED00080029093810260937A0270937B028093D8
:101EE0007C0290937D020895089508950E94750FD5
:101EF000089508950E94790F089581E008958AE376
:101F000092E10E9481270E94740F0E94760F08952B
:101F10000E947D0F08950E94880F089508950895E6
:101F20000E948E0F0E948F0F08950E9459120E94E6
:101F300046050E94A72008950E94F7280E9442218A
:101F40000E9435130E94950F0E945C1E0E94981CEF
:101F50000E947A0F0895A6E0B0E0E1EBFFE00C9458
:101F600037310E947D0F81110EC00E943D0F0E94EB
:101F7000E81C0E9400200E9469150E945B052696BD
:101F8000EEE00C9453310E944B1320E7822E22E0A6
:101F9000922E640110E0F601E190F1906F01812F23
:101FA0000E947C121F5F153009F44BC0E816F90639
:101FB00091F38091820281FD0E9485120E948B0F15
:101FC000782E10E066246394812F0E947C127C019D
:101FD000F401A190B1904F018A159B0561F100E0D9
:101FE000CC24C394D12CAE24BF24C5018C219D21C7
:101FF000892BC1F07720B1F009831A830E94002950
:102000009C838B836D8221E0C7018C219D21892BCC
:1020100009F420E049815A816B817C818D81922F66
:102020000E9474050F5FCC0CDD1C0F30F1F6F4013B
:102030003297F182E0821F5F153031F60E94610F06
:1020400096CFE816F90609F0B4CF8FCF1F93CF9340
:10205000DF930E945511EC01C11580E5D807F0F51A
:10206000C11580E4D80708F09CC0C03ED10520F51A
:10207000CD3CD10508F082C0C83AD10578F4C53A04
:10208000D10508F073C0C130D10519F1209709F1CD
:10209000C430D105F0F4D0E0C0E01BC0C33CD10592
:1020A000D0F7C85AD0E0CC0FDD1FC859DE4F0990D9
:1020B000D881C02DD4640DC0C11580E2D80708F0C6
:1020C000D1C0C11581E0D80708F05AC0C83ED1057B
:1020D00010F7CE01DF91CF911F910895C03682E5B0
:1020E000D80718F5C03482E5D80708F06BC0C032B5
:1020F00082E5D80708F05FC0C11582E5D80708F46B
:1021000097C02C2F2695269580E2289F90011124B8
:102110008C2F8370C1E0D0E002C0CC0FDD1F8A9508
:10212000E2F7C22BD32BDD68D4CFC03A82E5D807C3
:1021300060F4C03882E5D80708F459C0CF71D0E008
:10214000DC2FCC27C46FD06AC4CFC03C82E5D8074F
:1021500008F462C0C03E82E5D80708F09CCFDC2FAF
:10216000CC27CC27DF71C06FD06AB3CFC55AD0E07F
:10217000C256DE4FC881D0E0D064ABCFD065A9CFC6
:102180008D2F0E94F711182FCE0199270E9455110B
:10219000C12FD0E0DC2FCC27CC27DF71C82BD92B67
:1021A00098CFCE0199270E945511CC27DF70C82BFC
:1021B000D92BD06A8ECFCF71D0E0DC2FCC27C16F66
:1021C000D06A87CF2C2F26952695277080E2289FEE
:1021D000900111248C2F8370C1E0D0E002C0CC0F9D
:1021E000DD1F8A95E2F7C22BD32BDC6872CF2C2F30
:1021F00026952695277080E2289F900111248C2F28
:102200008370C1E0D0E002C0CC0FDD1F8A95E2F7F9
:10221000C22BD32BDA685DCF8C2F8F710E94F71100
:10222000C82FD0E0DC2FCC27CC27DF71D06251CF74
:102230008C2F8F710E94F71155E0D695C7955A954E
:10224000E1F7CF70D0E0DC2FCC27282F30E084FFDF
:1022500005C044E0220F331F4A95E1F7C22BD32B70
:10226000D06937CF8D2F8F710E94F711182FCE01B3
:1022700099270E945511C12FD0E0DC2FCC27CC2705
:10228000DF71C82BD92BD2CF462F753030F46F3089
:1022900020F4672F0E947E25089590E080E0089545
:1022A0000E9444110E942610089582389105B9F1C8
:1022B000B0F48133910509F47DC048F48932910569
:1022C00009F46DC08A32910509F47BC00895853305
:1022D000910509F45FC08933910509F10895833EA2
:1022E0009105D9F138F4803E910529F1823E91059E
:1022F00079F10895863E9105D9F1873E910509F45B
:102300003EC0843E910541F52091E30221FF24C0A7
:102310008091E20284FD19C087EE90E0089520913B
:10232000E202237009F05AC02091E30223FF14C097
:1023300089E290E008952091E20220FD38C03091BA
:10234000E30230FF09C024FF43C090E080E008951D
:102350002091E20222FDF7CF08952091E20222FDB2
:102360003AC03091E30230FD39C024FFF5CFEDCF04
:102370002091E20223FFF0CF24FDE7CFCDCF2091C3
:10238000E20223FD2EC03091E30231FFEECF84EE56
:1023900090E008952091E20225FFDECFC9CF209181
:1023A000E20225FD21C02091E30223FFD5CF89E37E
:1023B00090E0D2CF2091E20226FFCECF8AE290E0D9
:1023C00008952091E20226FFC7CF81E390E00895AF
:1023D00083EE90E0089582EE90E0089580EE90E024
:1023E000089586EE90E0089585E390E00895909139
:1023F000E20292FF06C0282F28712830F9F4877F67
:10240000846093FF06C0282F28712831F1F4877E5D
:1024100084612091E30220FF06C0382F38713830E4
:10242000D9F4877F816021FF06C0282F28712831C9
:10243000D1F4877E816194FD877E0895282F2471D1
:102440002430F9F68B7F8860DCCF282F247124316B
:1024500001F78B7E8861DDCF382F3171313019F76C
:102460008E7F8860E0CF282F2171213121F78E7E69
:102470008861E1CF80E008950E949A0E08950E943D
:102480004B132FEF86E791E0215080409040E1F719
:1024900000C000000E944B1380E00E947C1280FF6D
:1024A00004C00E943C120E944B2908950E943F12D2
:1024B00008950E94A10E811102C00E94340F0E9453
:1024C000AD0E809382020E94B70E9093E302809338
:1024D000E2020E9456120E94B20E0E94560980919A
:1024E00016020E946E09089508950E9474120895BC
:1024F00008950E9478120895E82FF0E0EE0FFF1F74
:10250000E251FD4F808191810895089580EA8A9576
:10251000F1F7089500C008950E9486120895F89476
:10252000E82FE295EF70F0E031A1282F2F7081E0C5
:1025300090E001C0880F2A95EAF7982F9095932391
:1025400091A392A1892B82A3789408950F931F934E
:10255000CF93DF93C0EBD1E089918F3F11F00E94C0
:102560008F1281E0C53BD807B9F7C1EAD1E000EB93
:1025700011E089918F3F11F00E948F120C171D07F7
:10258000C1F7DF91CF911F910F910895AF92BF9244
:10259000DF92EF92FF920F931F93CF93DF938C0103
:1025A000D62EC62FD0E0CE0180559E4F7C01FC0177
:1025B00020812F3F09F44CC0F894E22FE295EF7090
:1025C000F0E031A12F7081E090E001C0880F2A95E2
:1025D000EAF7932F982B91A392A18095892382A348
:1025E00078940E948A12E1EAF1E041E050E0B12CD7
:1025F000A12C21912F3FB1F1A22FA295AF70B0E095
:1026000090968C9190E02F7002C0959587952A95B1
:10261000E2F780FD27C0CA01A82AB92A440F551F36
:1026200081E0E03BF80729F7F70180818F3F11F047
:102630000E948F1261E0A114B10409F460E08D2DB5
:102640000E948C12CC0FDD1FC00FD11FB982A8824F
:10265000DF91CF911F910F91FF90EF90DF90BF908E
:10266000AF90089590E080E0D7CF0E94A6128AE054
:10267000EEEEF2E0DF01982F1D929A95E9F7E4EE75
:10268000F2E0DF011D928A95E9F785E00E9486134A
:102690000E9475120895AAE0B0E0E1E5F3E10C9420
:1026A00040318E010F5F1F4F8AE0F80111928A9529
:1026B000E9F7F12C6F2DC8010E94C612F394F5E0E2
:1026C000FF12F8CF4AE050E0B80184EE92E00E9499
:1026D000D33121E0009709F420E0892B41F08AE012
:1026E000F801A4EEB2E001900D928A95E1F745E081
:1026F0006EEE72E084EE92E00E948713182F0E9423
:102700007912812F2A96E5E00C945C310895CF92DE
:10271000DF92EF92FF921F93CF93DF936C017B01C7
:10272000C42F222349F081E0809385020E94002972
:1027300090938402809383021091850211110AC044
:1027400010E0812FDF91CF911F91FF90EF90DF90EC
:10275000CF90089580918302909184020E9418295D
:10276000059770F3D0E0CC0FDD1FAE01B601C701B5
:102770000E94D331892B41F0AE01B601C7010E94FE
:10278000E03110928502DDCF10E0FBCF0E94E92AF4
:102790000E949C0F0E94F62A08950E94FB2A0E9424
:1027A000AB0F0E94152B08950E9499280E94CF2AF2
:1027B0000E947F0F0E94C6130E94CD130E94900FAB
:1027C000FBCF80918C0280FF0DC060910B0170E007
:1027D000660F771F6038710570F56115710569F135
:1027E000862F089581FF07C060910B0184E0689FE8
:1027F000B0011124EFCF60910B0182FD0AC08091DE
:102800008B028823A9F020910A0160910B018217A5
:1028100010F088E0ECCF869FC001112433E0880FD0
:10282000991F3A95E1F7622F70E00E94BF30D2CF36
:1028300068E070E0D5CF8FE7089581E0089580913A
:102840008C0280FF0CC06091070170E07595679560
:10285000759567956115710549F1862F089581FF7A
:1028600006C06091070170E075956795F3CF6091A0
:10287000070182FD0BC090918A029923A1F060911B
:10288000060180910701961738F0682F70E06038D4
:10289000710500F38FE70895899FC001112470E04E
:1028A0000E94BF30F4CF61E070E0D7CF81E008959F
:1028B0008D3C31F40E94E11381958093900208953C
:1028C0008E3C19F40E94E113F8CF8F3C31F40E9442
:1028D000E113819580938F020895803D19F40E9441
:1028E000E113F8CF893D29F40E941F1480939102CF
:1028F00008958A3D21F40E941F148195F7CF8B3DE6
:1029000031F40E941F1481958093920208958C3DAA
:1029100019F40E941F14F8CF9FE2980F983070F4BA
:10292000815D990B21E030E001C0220F8A95EAF722
:1029300080918E02822B80938E0208958D3D31F41A
:1029400080918C02816080938C0208958E3D21F4E9
:1029500080918C028260F7CF8F3DB9F780918C0215
:102960008460F1CF40918F028D3C59F480919002A8
:1029700087FF0DC01092900241110BC010928B0284
:1029800008C08E3C81F48091900218169CF3442379
:1029900081F08091910290919202892B09F05AC0A6
:1029A00010928A0208958F3C49F447FFF0CF1092AD
:1029B0008F02809190028111ECCFE0CF803D19F41D
:1029C0001416ACF3E4CF90919102893D29F41916C5
:1029D000F4F610929102DBCF8A3D19F497FFD7CF1E
:1029E000F8CF909192028B3D29F497FFD0CF1092AF
:1029F0009202CDCF8C3D19F41916CCF3C8CF9FE2CB
:102A0000980F983090F4815D990B21E030E0B90186
:102A100002C0660F771F8A95E2F7CB0180959091EF
:102A20008E02892380938E02B2CF8D3D31F4809146
:102A30008C028E7F80938C02AACF8E3D21F48091F0
:102A40008C028D7FF7CF8F3D09F0A1CF80918C0252
:102A50008B7FF0CF08950E9400299C0190918F02F6
:102A600080919002982B21F0309389022093880264
:102A70009091910280919202982B21F030938702DD
:102A8000209386028DE892E00E94A327089586E0B5
:102A9000EDE8F2E0DF011D928A95E9F710928B02D2
:102AA00010928A0210928C020895FC018281811199
:102AB0000EC0838181110BC08481811108C091E017
:102AC0008581811101C090E0892F8170089581E096
:102AD000FCCFA6E0B0E0EFE6F5E10C94423186E0F1
:102AE000EDE8F2E0DE01119601900D928A95E1F792
:102AF00010928F0210929002109291021092920204
:102B00008B819C81892B89F0809188029091890228
:102B10000E941829AC0190918B029923C9F18091F0
:102B20000C018417150608F440C08D819E81892B05
:102B300091F080918602909187020E941829AC0141
:102B400090918A02992309F471C080910801841739
:102B5000150608F479C0BE016F5F7F4F8DE892E0E3
:102B60000E945028811105C08DE892E00E94551501
:102B700081110E942B1586E0FE013196ADE8B2E08E
:102B800001900D928A95E1F72696E3E00C945E3170
:102B900020910D018AE0289F900111242417350708
:102BA00020F69F5F90938B0202C09F3FD1F71B815D
:102BB000112359F00E94E1139FEF11160CF491E0DC
:102BC000899F802D112480938F021C81112359F03D
:102BD0000E94E1139FEF11160CF491E0899F802D64
:102BE00011248093900230918F02332309F49DCFFA
:102BF00020919002222309F498CF45EB3403C001C1
:102C00001124992359F090938F0245EB24039001EE
:102C10001124332339F03093900287CF81E08093E1
:102C20008F02F3CF81E0809390027FCF2091090142
:102C30008AE0289F900111242417350708F08BCFD4
:102C40009F5F90938A0202C09F3FD1F71D8111239D
:102C500059F00E941F149FEF11160CF491E0899F08
:102C6000802D1124809391021E81112359F00E941E
:102C70001F149FEF11160CF491E0899F802D1124F1
:102C80008093920230919102332309F464CF209112
:102C90009202222309F45FCF45EB3403C0011124D3
:102CA000992359F09093910245EB2403900111244C
:102CB000332339F0309392024ECF81E0809391021A
:102CC000F3CF81E08093920246CFEF92FF920F9371
:102CD0001F93CF93DF93EB01E82FD1110EC0442354
:102CE00021F0F0E0E256FB4FE4916E2F7E2F8E2F05
:102CF000CDB7DEB7E6E00C945B310D2F10E0282F46
:102D000030E0442329F022563B4FF901249130E072
:102D1000F6E0CF9FC0011124EFEFF0E0BF010E9469
:102D2000AB30AB018C2F90E0880F991FA5E5A49FD5
:102D3000B001A59F700D1124861B970B982F990F3A
:102D4000980FBF01601B710B629FD001639FB00D94
:102D5000729FB00D11248B2F9D9FB0011124672FFE
:102D60007727EF01C61BD70BBE01629FE001639F6F
:102D7000D00D729FD00D11247F01E91AF108E09E59
:102D8000B001E19E700DF09E700D1124672F772722
:102D9000E61BF70BE29F8001E39F100DF29F100DE1
:102DA0001124E12F722F4230510599F048F441155A
:102DB000510569F04130510581F0EB2F8D2F07C08F
:102DC0004430510569F080F046305105B1F76E2F5F
:102DD0008FCFE22F7B2F812FFACFE22F7D2FF7CFDE
:102DE000EB2F822F712FF3CF7B2F822FED2FEFCF81
:102DF00041E00E946516089508950E94F81608950E
:102E0000CF93DF93762FE901682F842F0E94FD1660
:102E1000798368838A83DF91CF9108958091F80246
:102E2000982F9E7F29F4817082608093F802089524
:102E30008635E8F381708465F8CF88E090E00E94E1
:102E4000F1310895CF92DF92EF92FF926B017C01F6
:102E50000E940E17B701A60188E090E00E940F3291
:102E6000FF90EF90DF90CF9008956091F8027091FD
:102E7000F9028091FA029091FB020E9422170895B4
:102E8000E8EFF2E083E0808311828FEF8283838317
:102E9000148260817181828193810E94221708953A
:102EA0008091F80280FF02C08695089580E0089521
:102EB0008091F802817008959091FC02933018F48B
:102EC0009F5F9093FC02882351F06091F80270910B
:102ED000F9028091FA029091FB020E942217089554
:102EE00081E00E945C1708959091FC02992319F0EB
:102EF00091509093FC02882351F06091F8027091F8
:102F0000F9028091FA029091FB020E942217089523
:102F100081E00E94741708958091FC0208958093C7
:102F2000FC02662351F06091F8027091F9028091E1
:102F3000FA029091FB020E942217089560E00E941D
:102F40008F1708958091F90208958091FA020895EB
:102F50008091FB02089570E00E94BD200895609169
:102F600012018091F80280FF0BC08091110123E0D3
:102F7000829FC001112483509D4F0E94AB1708957A
:102F8000809113019091140123E0829FF00111249C
:102F9000E350FD4F891748F71182108212828F5F2C
:102FA0003396F8CF9091F80290FF0EC090911301E4
:102FB0002091140133E0939FF0011124E350FD4F61
:102FC000921718F00E94AF1708958183608342839F
:102FD0009F5F3396F5CFA3E0B0E0E1EFF7E10C940B
:102FE00043319091F80290FF0AC09E012F5F3F4F3E
:102FF0000E9400174B8169818A810E94D217239613
:10300000E2E00C945F31CF93DF93EC01EC81F0E0D0
:10301000E75EFC4F4491E8EFF2E0628181810E941B
:10302000EB178C818F5F8C83DF91CF910895CF93C5
:10303000DF93EC01E8EFF2E0438162818C810E9432
:10304000EB178C818F5F8C83DF91CF910895A3E084
:10305000B0E0EDE2F8E10C9441318C0180919302F3
:1030600081110AC09E012F5F3F4F4FEF6FEF0E940B
:1030700000178A8180939302F8016481613069F0BE
:103080008091930240E0662361F040E0623011F4E9
:103090004091930280E060E004C06091930240E0C0
:1030A00080E00E94D217F801848190E0019663E0ED
:1030B00070E00E94BF3084832396E4E00C945D317D
:1030C000A3E0B0E0E6E6F8E10C943C31082FD62E00
:1030D000E42EC22E9091F80290FF29C0E92FE695C8
:1030E000AE2FB0E0AB54BE4F8C918093C7029E7F51
:1030F000923009F59E012F5F3F4F802F0E940017ED
:103100004B8169818A810E94D2170093F902D09283
:10311000FA02E092FB02CC2051F06091F80270912B
:10312000F9028091FA029091FB020E9422172396E5
:10313000E9E00C945831823019F4E090FB02E5CFBD
:10314000863019F40091F902E0CF8930D9F3893142
:10315000E1F6E9516E2F6170B62EE695F0E0E75E7C
:10316000FB4F1491F12C60911501F61618F00E9496
:10317000AF17CBCFF19EC001112470E00E94AB309D
:10318000802FB11014C0860F20911301622F6F0D94
:103190007727771F9B01220F331F260F371F2350DE
:1031A0003D4F4E2D6D2D0E940017F394DCCF861BF2
:1031B000EBCFE8EFF2E09181282F4381628188E034
:1031C000890F0E946018089581E00E94D91808951F
:1031D000E8EFF2E09181282F4381628188EF890F27
:1031E0000E946018089581E00E94E8180895E8EFB1
:1031F000F2E0628128E0620F08F46FEF282F43812C
:1032000081810E946018089581E00E94F718089556
:10321000E8EFF2E0628128E0621B08F460E0282F0A
:10322000438181810E946018089581E00E940819FD
:103230000895E8EFF2E0438128E0420F08F44FEFF1
:10324000282F628181810E946018089581E00E9488
:1032500019190895E8EFF2E0438128E0421B08F4D1
:1032600040E0282F628181810E946018089581E0EA
:103270000E942A19089520E00E9460180895EF9294
:10328000FF921F93CF93DF93EC0110E0EE24EA94BA
:10329000F12C60911501161770F00E94AF179A81FA
:1032A0008C8190FF27C08F5F8C83DF91CF911F911E
:1032B000FF90EF90089520911301422F410F552761
:1032C000551FCA019A01220F331F280F391F23509F
:1032D0003D4F70E0C7010E94BF30962F8C81409116
:1032E000FB026091FA02199F800D11240E940017C1
:1032F0001F5FCFCF8150D8CFB0E0A0E0E2E8F9E186
:103300000C943C31FC0182810FEF80FF01E010E062
:1033100080911501181798F00E94AF1780919502BF
:10332000013009F04CC0811102C08091150181501B
:1033300080939502CDB7DEB7E9E00C945831C09187
:103340001301C12ED12CCC0DDD2DD11DCE01880F46
:10335000991FC80FD91FC350DD4F198218821A82D6
:1033600034E0E32EF12CB12C809195028B0D893045
:1033700004F18770082E000C990BC816D90691F439
:103380008091FB028E9DA0018F9D500D11245595BB
:103390004795559547959E016091FA028091F902F3
:1033A0000E940017B00EF1E0EF1AF108E9F61F5F76
:1033B000AFCF87FFDFCF90911501890FDBCF90E072
:1033C00001966091150170E00E94BF30B1CF0F935C
:1033D0001F93CF93DF93809113019091140123E009
:1033E000829FF0011124E350FD4F891740F1C0E0A6
:1033F000D3E060911501C61740F10E94AF172091EC
:103400000F0180919402820F809394029091100199
:10341000920F90931001191654F4082E000C990B7A
:10342000409115014150550B841795071CF02195CB
:1034300020930F01DF91CF911F910F910895118279
:10344000108212828F5F3396D0CF0C2F10E070E085
:10345000C8010E94BF3020911301820F482F50E015
:1034600020919402022E000C330B02171307BCF0BC
:1034700020911001022E000C330B201731077CF035
:103480008D9F9001112423503D4F4091FB0260918C
:10349000FA028091F9020E940017CF5FAACFFA01C9
:1034A000EE0FFF1FE40FF51FE350FD4F1182108256
:1034B0001282F3CFB0E0A0E0E0E6FAE10C943931FB
:1034C000EC014C81042F10E09801D8010E940A31D0
:1034D0009B01AC010E9420314B015C01E0E2F0E075
:1034E000E01BF10BA5E5B0E0AC019B010E9420318F
:1034F0006B017C019F01DF010E9402319B01AC0145
:103500000E942B319B01AC01280D391D4A1D5B1D0A
:10351000C701B6010E94D330F22E822F90E039E22B
:103520003F1520F143E0249F900111243595279504
:10353000122F109500E085E5E82EEF188091150117
:10354000081718F10E94AF179C8181E0992319F0A8
:10355000903219F48FEF80930E0180910E01890F44
:103560008C83CDB7DEB7ECE00C94553125E530E027
:10357000B901681B790B9B01220F331F260F371FE0
:1035800037FFD4CF2F5F3F4FD1CF8E2D01FD8F2D31
:1035900020911301622F600F7727771F9B01220F65
:1035A000331F260F371F23503D4F412F6091FA02E2
:1035B0000E9400170F5FC2CF0F931F93CF93DF932B
:1035C000EC0110E000E0909115019017110609F050
:1035D0006CF40E94AF178C8190E00196817099275E
:1035E0008C83DF91CF911F910F910895209113014A
:1035F000A801420F511D9A01220F331F240F351FBE
:1036000023503D4F4C816091FA028091F9029695CA
:103610009017110651F04CF0442349F04091FB0201
:103620000E9400170F5F1F4FCECF4423B9F340E035
:10363000F7CFB0E0A0E0EFE1FBE10C943531FC0105
:103640006280448081E08483E9E1F3E07490E8E9FA
:10365000F3E0E491C091FB02C695C158D0E0CC0FD5
:10366000DD1FCD2FDD27812C75E0972EAA24AA948B
:10367000B12C55245A94E719EE2EF12C80911501A6
:10368000881638F00E94AF17CDB7DEB7E0E10C9492
:103690005131C82CD12C82E0861568F09C9CF00139
:1036A0009D9CF00D1124EA56FD4F8091F902808314
:1036B0008091FA028183411023C09C9CF0019D9C63
:1036C000F00D1124EA56FD4F13821282209113014E
:1036D000C601820F911D9C01220F331F280F391F35
:1036E00023503D4F9C9CF0019D9CF00D1124EA5607
:1036F000FD4F4281618180810E9400178394BECF7B
:103700009C9C80019D9C100D11240A561D4FF801B0
:1037100083818823F1F081508383859DC00111242A
:10372000648170E00E94AB30FB01FF27E75EFC4F35
:103730008491E82FE719E59DC0011124B7010E948B
:10374000AB308091FB02689FB0011124F8017283B5
:10375000BDCF0E94B631B5010E94BF308C179D07C6
:103760000CF0B4CFF2E0F61598F40E94B631B50132
:103770000E94BF30F80180830E94B6312091FA0286
:103780002695622F70E00E94BF30280FF801218338
:103790009C9CF0019D9CF00D1124EA56FD4F128275
:1037A0008091FB02893C58F088EC9C9CF0019D9C28
:1037B000F00D1124EA56FD4F8483838387CF843133
:1037C000A0F784E1F2CFE8EFF2E080818E7F808382
:1037D00060817181828193810E9422171092C802B8
:1037E0000E94AF170895E8EFF2E080818E7F80831A
:1037F0001092C8020E94AF1708951092C8028091DB
:10380000C50281110AC081E08093C5028091F8024F
:1038100081708093C4020E94F31B08956091F802A6
:10382000669570E04BE050E086E191E00E94C63181
:10383000892B19F481E08093C8020E94002990939B
:10384000BF028093BE0208959091F80290FF2BC0B2
:103850009170811129C092609093F802662351F013
:103860006091F8027091F9028091FA029091FB0246
:103870000E9422176091F802669570E04BE050E0DC
:1038800086E191E00E94C631892BA9F01092C8020E
:1038900081E08093C1024091FB026091FA02809125
:1038A000F9020E943B1908958B3210F09465D4CF31
:1038B000880F982BD1CF0E940E1CEACF682F9091D1
:1038C000F802969581E0890F8B3208F081E00E9422
:1038D000241C089581E00E945E1C0895682F909139
:1038E000F80296958FEF890F09F48AE20E94241C52
:1038F000089581E00E946E1C089561E00E94241CDE
:103900000895E8EFF2E080818160808386950E94CF
:103910007D1C08958091F80280FF03C00E94E31B84
:1039200008950E94811C089560E00E94241C08955F
:103930008091C60281112EC00E94A10E811104C087
:103940000E94340F0E9440170E941D176093F802D6
:103950007093F9028093FA029093FB026E7F61F4F8
:103960000E9440170E941D176093F8027093F9029D
:103970008093FA029093FB020E940E171092C802E5
:103980008091F80280FF03C086950E94941C81E01C
:103990008093C6020895E8EFF2E080818160808321
:1039A00086950E94941C08958091F80280FF03C0C0
:1039B0000E94F31B08950E94CB1C08951092C5022B
:1039C0008091C40281110E94CB1C0E940E1C08959C
:1039D0000F931F93CF93DF938091C8028823B9F18F
:1039E0008091C702E091F802E695E81BE093C002DF
:1039F000823091F5F0E0EB5EFC4FE491CE2FD0E009
:103A000003E018E18091C102882361F01092C102A5
:103A10000E9400299093BF028093BE021092C302BD
:103A20001092C2020E940029E091BE02F091BF02F2
:103A30008E1B9F0B8F3F9F4750F4EC0FFD1FF093A1
:103A4000BF02E093BE028EEB92E0F8010995DF9190
:103A5000CF911F910F910895863049F4F0E0EE5E0A
:103A6000FC4FE491CE2FD0E007E118E1CBCF8930B5
:103A700051F4E695F0E0E15FFC4FE491CE2FD0E009
:103A80000FE319E1BFCF8F3051F4E695F0E0E45F2A
:103A9000FC4FE491CE2FD0E00CE719E1B3CF853194
:103AA00049F4F0E0E75FFC4FE491CE2FD0E007EE61
:103AB00019E1A8CFC8E2D0E00AE51AE1883109F49B
:103AC000A1CF833239F4E7E0F3E0C591D49107E266
:103AD00018E198CFC4EFD1E00CED1AE1843209F47B
:103AE00091CFC0EDD7E00CEF16E1853209F08ACF17
:103AF0008E2F63E00E949F30E92FF0E0EC5FFC4FD7
:103B0000E491CE2FD0E009E11BE17CCFFA018111D5
:103B100001C0FB0109950895CF93DF93C82FD62FDD
:103B20000E9450178C1748F00E9450178D1728F4E8
:103B30000E946A1CDF91CF9108958C2F0E947D1CFA
:103B4000F9CF1F93CF93DF93EC01FB011581111186
:103B500010C00E949B0D8272FE01E052F847E531D1
:103B6000F10508F05EC0E25AFD4C0C94F5300E945D
:103B70008A1C812FDF91CF911F91089549E75CE165
:103B80006AE67CE10E94861DF4CF4AE65CE169E7C3
:103B90007CE1F8CF43EF58E164EE78E1F3CF44EEF7
:103BA00058E163EF78E1EECF45E159E164E079E176
:103BB000E9CF44E059E165E179E1E4CF47E359E138
:103BC00066E279E1DFCF46E259E167E379E1DACFF6
:103BD00048E857E160E777E1D5CF40E757E168E88B
:103BE00077E1D0CF81E00E947D1CC3CF65E082E009
:103BF0000E948C1DBECF68E086E0FACF6EE089E0BF
:103C0000F7CF64E18FE0F4CF67E185E1F1CF88E1A0
:103C1000EACF62E289E1ECCF83E2E5CF6AE285E2B6
:103C2000E7CF11E0A6CF86E090E00E94E931089549
:103C3000682F86E090E00E94FD3108958091150381
:103C40000E94181E0895E5E1F3E080818470896187
:103C500080830E94181E089580911503869586958D
:103C6000869508958091150381FD07C08260809339
:103C700015030E94181E0E940120089580911503CB
:103C800081FF07C08D7F809315030E94181E0E943C
:103C90000D2008958091150381FF03C00E943E1EF0
:103CA00008950E94321E08958091150386958170B3
:103CB00008958091210108950E94A10E811104C0F0
:103CC0000E94340F0E94231E0E94131E809315032E
:103CD000803220F0877088618093150390911503DE
:103CE000892F817090FF04C0892F869586958695CF
:103CF0000E94D51F089580911503982F969596954B
:103D00009695933040F49F5F990F990F990F8770A4
:103D1000892B80931503809115038160809315038F
:103D20000E94181E809115038695869586950E949F
:103D3000D51F089580911503982F987F79F08850AA
:103D400080931503887F91E009F490E0809115033A
:103D500090FB80F9809315030E94181E8091150333
:103D60008695869586950E94D51F089580911503A6
:103D700080FD13C0816080931503813019F489E0C0
:103D800080931503809115030E94181E80911503DE
:103D90008695869586950E94D51F08958091150376
:103DA00080FF08C08E7F809315030E94181E80E05C
:103DB0000E94D51F08958091150380FF03C00E94C3
:103DC000CE1E08950E94B61E089590911503892F66
:103DD0008695869586958F5F8F7197708430E0F415
:103DE000880F880F880F892B809315038091150306
:103DF000887F91E009F490E08091150390FB80F9B1
:103E0000809315030E94181E809115038695869550
:103E100086950E94D51F089590931503E7CF8430AF
:103E200008F083E0909115039770282F220F220F3E
:103E3000220F922B90931503987F21E009F420E044
:103E40009091150320FB90F9909315030E94D51FC4
:103E500008950E940F1F809115030E94181E089557
:103E6000FC01DB0115968C918823F1F0F857E730BF
:103E7000F105D8F4ED58FD4C0C94F53083E00E9428
:103E8000291F80E0089580E0FACF0E949A1EF9CFA2
:103E90000E947B1EF6CF0E94DB1EF3CF0E94E51E20
:103EA000F0CF0E944A1EEDCF81E00895279A2F9807
:103EB00008952F980895B0E0A0E0E1E6FFE10C94AA
:103EC00039318C0180918600909187006CE070E020
:103ED0000E94AB306017710758F0C80169E070E0CC
:103EE0000E94AB30CB01CDB7DEB7ECE00C9455317E
:103EF0008091860090918700E0908600F090870086
:103F0000C0908600D0908700C6E0D0E0BE010E943D
:103F1000AB3030E020E0060F171F211D311D480196
:103F2000590185E0880C991CAA1CBB1C8A95D1F705
:103F3000C701BE010E94AB30F12CE12CA701960114
:103F4000260F371F411D511DC501B4010E94D330FA
:103F500069017A01E0918600F0918700CA01B901F8
:103F60000E948F309B01AC01DF010E9420319B0138
:103F7000AC01C701B6010E948F302FE0969587955E
:103F8000779567952A95D1F7009186001091870063
:103F900030E020E0061717072807390708F0A2CFFE
:103FA00060918600709187009DCFCF93C82F843099
:103FB00000F581111FC080918000877F8093800071
:103FC0000E94591FA0918600B09187002C2F30E0ED
:103FD0000E940A3123E030E040E050E00E94D330FC
:103FE000C9010E945B1F90938D0080938C00CF913C
:103FF0000895C3E080918000886080938000E2CFC4
:1040000008951092CA021092C9021092CB02EFE6F4
:10401000F0E08081816080830895EFE6F0E08081A8
:104020008E7F80830E942C1E0E94D51F08951F92B0
:104030000F920FB60F921124EF92FF920F931F93DE
:104040002F933F934F935F936F937F938F939F93A0
:10405000AF93BF93CF93EF93FF9380912201823070
:10406000C9F08F5F80932201FF91EF91CF91BF91B3
:10407000AF919F918F917F916F915F914F913F9100
:104080002F911F910F91FF90EF900F900FBE0F9007
:104090001F90189581E0809322010E94591EC82F1D
:1040A0000091C9021091CA020F5F1F4F0E94591E52
:1040B00028E7829FB0011124C8010E94AB30909381
:1040C000CA028093C902C29FB0011124660F672FF4
:1040D000661F770B71950E94AB3067FD6FE780918B
:1040E000CB02823041F4603451F480916F008E7FB6
:1040F00080936F0004C0813011F46F37B1F3E62F65
:10410000F0E0E25EFB4FC491E0908600F090870003
:104110000E942C1E182F2C2F30E0D7010E940A314C
:104120002FEF30E040E050E00E94D330C90163E05F
:1041300070E00E94AB30169FC001179F900D1124B4
:104140000E945B1F90938D0080938C008DCF0E9406
:10415000561F8AE08093800089E1809381008FEF71
:104160009FEF90938700809386000E945C1E0E94C0
:10417000541E81110E94012008956A9A4EB14B7F0E
:104180005EB15460EFB7F8949B01220F331F260FE6
:10419000371F280F391F2817390741F4EFBF8FE564
:1041A00094E00197F1F700C000000895DC016D91E3
:1041B000CD0178E05EB9000000C067FF4EB9660F20
:1041C000000000C000C000C04EB900C07A9591F751
:1041D000E2CF82E290E00E94E931833289F483E207
:1041E00090E00E94E931843059F484E290E00E942A
:1041F000E93191E0843009F090E0892F81700895D1
:1042000080E0FCCFCF93C82F6FEF811163E282E291
:1042100090E00E94FD31C1110DC0CFEF6C2F83E201
:1042200090E00E94FD316C2F84E290E00E94FD310D
:10423000CF910895C4E0F2CF089585E290E00E9406
:10424000E931682F70E090E080E008950895CF9301
:10425000C62F0E9426216C2F85E290E00E94FD313E
:10426000CF91089580E00E94022160E070E0CB01D0
:104270000E9427210E940A250E94D92581E00E94E0
:10428000022108950E941C210E941D210E942621C6
:104290000E94E920811102C00E94322108950E94EB
:1042A000DB1E0E94D41C08959C01FB01858188239C
:1042B00051F0A90157574038510530F4822F0E9420
:1042C000E92580E0089581E008952FEFFC01208327
:1042D000089580E00895CF93DF93EC0188818130C9
:1042E00029F0823079F0DF91CF9108950E942C1E41
:1042F0002FEF829FC001112463E070E00E94AB3079
:104300006983F1CF0E94541E8983EDCFFC01808127
:10431000813019F0823071F00895818123E0829F0D
:10432000C00111246FEF70E00E94AB30862F0E9415
:104330000F1F08958181811103C00E943E1E0895C0
:104340000E94321E0895FC019C012E5F3F4F908118
:10435000983041F0993051F0973059F4C9010E94DA
:1043600086210895C9010E946B2108950E941E1E96
:1043700008958FEF80830895CF93DF93EC018881B8
:104380008230E9F028F4813071F0DF91CF91089507
:104390008330F9F08430C9F70E94A21789830E9404
:1043A000A5178A83F2CF0E94A8172FEF829FC00122
:1043B00011246FEF70E00E94AB306983E6CF0E945A
:1043C0005817882321F00E9450178983DECF80E0A0
:1043D000FCCF0E948C17F9CFCF93DF93EC0188813B
:1043E000823021F128F4813069F0DF91CF91089576
:1043F000833041F18430C9F70E94A817482F6A81A1
:10440000898111C089812FEF829FC00111246FEF34
:1044100070E00E94AB30D62F0E94A517C82F0E94D3
:10442000A2174D2F6C2F0E943B19DFCF898181117C
:1044300003C00E94F31BD9CF0E94CB1C89810E942C
:10444000941CD3CF89810E949E17CFCFFC019C0181
:104450002E5F3F4F9081983041F0993051F0973066
:1044600059F4C9010E94EC210895C9010E94BC21A0
:1044700008950E94351708958FEF80830895FC01F9
:104480002181213019F40E94A3210895223019F4CA
:104490000E94262208950E9465210895B0E0A0E0C0
:1044A000E4E5F2E20C943D31EC01C62E0E94692154
:1044B000811110C0E881E150E331B8F4F0E0E65832
:1044C000FD4C0C94F53019828CE08A836C2DCE0162
:1044D0000E94C329CDB7DEB7E8E00C945931898139
:1044E0008230C1F028F4813061F08FEF8883EECF05
:1044F000833099F08430C9F71A821B821C821D8296
:10450000E5CF0E940C290E94FB306A837B838C8359
:104510009D83DCCF0E941D21F6CF8A81082F10E0F9
:104520007E019EE0D92ED80E0530110578F6802F39
:104530000E947C12F701938384830F5F1F4FF2E088
:10454000EF0EF11CD012F0CFC1CF8981823031F053
:10455000853059F68A810E944F21B8CF6A817B81CC
:104560008C819D810E94FB300E942721AFCF4B811F
:104570006A8189810E94CC249827892798279D8366
:104580008C83A4CF2C813D813227232732274B8176
:104590006A8189810E94EE2499CF0E940A2596CFD4
:1045A0006C2DCE010E943F2291CF0E948A258983E3
:1045B0008DCF0E948C259827892798279A838983F5
:1045C00085CF6B8170E089819A81AE014C5F5F4F2E
:1045D0009827892798270E948F2578CF6B8170E0D4
:1045E00089819A81AE014C5F5F4F98278927982770
:1045F0000E94B4256BCF0E94D92568CF0E94BA24AF
:10460000D6CF6B8170E089819A81AE014C5F5F4F9C
:104610009827892798270E94362558CF6B8170E00C
:1046200089819A81AE014C5F5F4F9827892798272F
:104630000E945A254BCFCF93DF93EC01FB0185817C
:10464000882309F4D2C09E0130572332310508F087
:10465000B2C00E94B70E9093E3028093E202FE0183
:10466000E150F047E232F10520F4E357FD4C0C94A1
:10467000F5308091E20281608093E20293C08091E4
:10468000E30288608093E3028DC08091E202826041
:10469000F3CF8091E2028460EFCF8091E2028860E4
:1046A000EBCF8091E3028160EDCF8091E3028260E5
:1046B000E9CF8091E2028061DFCF8091E2028062E7
:1046C000DBCF8091E2028064D7CF0E940B098091FA
:1046D000E2028068D1CF8091E2028C60CDCF8091E0
:1046E000E3028360CFCF8091E2028E7FC5CF8091BD
:1046F000E302877FC7CF8091E2028D7FBDCF80919B
:10470000E2028B7FB9CF8091E202877FB5CF8091A3
:10471000E3028E7FB7CF8091E3028D7FB3CF80918C
:10472000E2028F7EA9CF8091E2028F7DA5CF80919A
:10473000E2028F7BA1CF0E940B098091E2028F776A
:104740009BCF8091E202837F97CF8091E3028C7FA1
:1047500099CF8091E20282FB992790F921E092277C
:1047600090FB82F990FB83F987CF8091E302982F29
:10477000909591708E7F892B90FB81F983CF9091DA
:10478000E202892F8F7B96FF806476CF0E940B090F
:104790009091E202892F97FB87F980586DCF81E0D5
:1047A0000E94370F8091E2029091E3020E94BC0EBA
:1047B0000E940B0980E0DF91CF91089580E0F0CF57
:1047C0009091E202892F8F7E94FF806155CF909166
:1047D000E202892F8E7F90FF81604ECF9091E3029D
:1047E000892F877F93FF88604DCF81E0E4CFB0E0D1
:1047F000A0E0EDEFF3E20C943E31E82FF0E0E2565A
:10480000FA4FD490282F26952695269530E0F90169
:10481000E25CF94F0491877010E0082E02C01595F4
:1048200007950A94E2F701701127F901E25DF94F4B
:10483000E490F12C082E02C0F594E7940A94E2F774
:1048400091E0E922FF24F901E25EF94FC491D0E042
:1048500002C0D595C7958A95E2F7C170DD2701158D
:10486000110519F081EE0E94B405E114F10419F06C
:1048700086EE0E94B4058D2D0E94B806E114F10465
:1048800019F086EE0E9446060115110519F081EE19
:104890000E944606CD2B19F08CE20E94B806CDB7D7
:1048A000DEB7E7E00C945A31EF92FF920F931F931B
:1048B000CF93DF93EC01162F0AE08881882309F457
:1048C00054C0813009F04EC08981813099F47E0155
:1048D00022E0E20EF11C8A810E94B806E7012196CF
:1048E000812F815050F3EFE9FFE03197F1F700C0DD
:1048F0000000F7CF823041F47E0182E0E80EF11C27
:104900008A810E94B405EACF833041F47E01E2E05F
:10491000EE0EF11C8A810E944606E0CF843011F031
:104920002196DDCF2A81229690E080E0AE014F5F94
:104930005F4F2053330B2A30310548F0019778F24E
:10494000EFE9FFE03197F1F700C00000F7CF089FD3
:10495000B001099F700D1124C901860F971F29818D
:10496000EA01E4CF0E94F723BACFCDB7DEB7E6E085
:104970000C945B3184E0089550E0440F551F9EE194
:10498000699F400D511D112496E9899F400D511DCD
:104990001124CA01869608950F931F93CF93DF9336
:1049A0008430C8F46530B8F44F30A8F40E94BC24B9
:1049B0008C010E94E931C82FD0E0DC2FCC27C80140
:1049C00001960E94E9319E01282BC901DF91CF9108
:1049D0001F910F91089590E080E0F8CF0F931F93FF
:1049E000CF93DF93122F032F843078F4653068F46F
:1049F0004F3058F40E94BC24EC01602F0E94FD311E
:104A0000612FCE0101960E94FD31DF91CF911F9160
:104A10000F9108950F931F93CF93DF93D0E0C0E0E1
:104A200010E019C00E94240421E030E08C171D061C
:104A300039F034F0402F612F8C2F0E9426049C0106
:104A4000402F612F8C2F0E94EE240F5F0F3051F703
:104A50001F5F153011F000E0E5CF2196C430D1057D
:104A6000F9F6DF91CF911F910F910895EF92FF9288
:104A70000F931F93CF93DF93EC018A017C01E60E25
:104A8000F71ECE018696CE15DF0529F4CDB7DEB729
:104A9000E6E00C945B31C83522E0D20740F40E9476
:104AA000E931F80180830F5F1F4F2196EACFF801AB
:104AB0001082F9CFB0E0A0E0E0E6F5E20C943D31E1
:104AC0007C016A018C01060F171FEC01CE0186964E
:104AD000C017D10729F4CDB7DEB7E8E00C945931FF
:104AE000C83522E0D20740F4FE01EE19FF09EC0DB3
:104AF000FD1D60810E94FD312196E8CF843038F49D
:104B0000653028F44F3018F40E94CC24089590E0CA
:104B100080E0089580E1089582E891E00895EF92A1
:104B2000FF920F931F93CF93DF93EC018A017C01D7
:104B3000E60EF71ECE0182589D4FCE15DF0529F4F3
:104B4000CDB7DEB7E6E00C945B31C23821E0D20786
:104B500040F40E94E931F80180830F5F1F4F2196D6
:104B6000E9CFF8011082F9CFB0E0A0E0EAEBF5E27E
:104B70000C943D317C016A018C01060F171FEC017A
:104B8000CE0182589D4FC017D10729F4CDB7DEB7AB
:104B9000E8E00C945931C23821E0D20740F4FE011C
:104BA000EE19FF09EC0DFD1D60810E94FD3121967B
:104BB000E7CFCF93DF93CEE7D2E060E0CE010E9453
:104BC000FD312196C11584E0D807B9F7DF91CF9167
:104BD0000895A8E0B0E0EFEEF5E20C943B31F82E3A
:104BE0008FE08F1508F46EC08FEF93E00E94E931DB
:104BF000811168C00EE712E0F11035C0FE01319658
:104C00006F0188E011928A95E9F77801FFEFEF1ABA
:104C1000FF0AC8010E94E93189831A82882309F4B6
:104C200051C08130D1F4580182E0A80EB11CC701F7
:104C30000E94E9318A83882309F444C09FEF980FCA
:104C40009330F0F4780193E0E90EF11CC5010E9465
:104C5000E9318B838823B1F11C8260E0C6010E9498
:104C600054248701D2CF011594E0190759F1C801E6
:104C70000E94E931811101C0FA940F5F1F4FBCCF30
:104C80007501843051F702E010E07501EFEFEE1A84
:104C9000FE0AC5010E94E931F601E00FF11F808391
:104CA000882381F08C3741F4E2E0F0E0EC0FFD1F47
:104CB000E00FF11F1082D1CF0F5F1F4F5701073058
:104CC000110519F72896EAE00C945731CF93DF933A
:104CD000EB0186319C4711F50E949B0D9D81992324
:104CE00099F08A7A91E009F490E09093CC028111D6
:104CF00009C089E20E94730D0E94F40D80E0DF91EB
:104D0000CF91089585E3F6CF8091CC02811104C044
:104D100089E20E947B0DF0CF85E3FBCF81E0EFCFEE
:104D20000F931F93CF93DF93C42FD22FFC01858164
:104D30008823C9F04093CF020E9400299093CE02AD
:104D40008093CD0280E28C0F883040F4C77081E000
:104D500001C0880FCA95EAF70E94C106DF91CF9182
:104D60001F910F9108951091CF02141332C08091BA
:104D7000CD029091CE020E941829883C910548F5F9
:104D8000C0E2CD0F1D17B9F080E2810F883040F4EA
:104D9000177081E001C0880F1A95EAF70E94C806D3
:104DA000C83048F481E09D2F977001C0880F9A9514
:104DB000EAF70E94C106802F0E94B806C83070F63C
:104DC000D77081E001C0880FDA95EAF70E94C80623
:104DD000C5CF80E28C0F883008F6C77081E001C033
:104DE000880FCA95EAF7F2CF0F93DB0188519C47F1
:104DF00087309105A0F5FC01E155FD4C0C94F53090
:104E000006E221EE41EE6AE17CE7CD010E949026A8
:104E100080E00F91089507E225EE45EE6BE17CE717
:104E2000F4CF06E221EE40EE68E17CE7EECF07E248
:104E300025EE44EE69E17CE7E8CF06E221EE42EEA2
:104E40006CE17CE7E2CF07E225EE46EE6DE17CE720
:104E5000DCCF08E221E045EE6EE17CE7D6CF159687
:104E60008C91882319F01092CF02D3CF81E0D1CF5B
:104E70001F93CF93DF9387372CE7920759F0C1E058
:104E800088379C47E1F4FB01C581CC2371F10E9476
:104E90007B2706C0FB01C581CC23B1F00E94782797
:104EA0000E9483090E947E27D82F0E947B27C82F4B
:104EB0000E9478274D2F6C2F0E94AB0AC0E08C2FE8
:104EC000DF91CF911F9108950E9478270E948F094A
:104ED0000E947E27182F0E947B27D82F0E947827B8
:104EE000412F6D2F0E94AB0AEACF0E947B27EECFA5
:104EF00080912501089580912401089580912301D6
:104F000008959093F1018093F00108959093D50254
:104F10008093D4020895E091D402F091D5023097A5
:104F200029F00190F081E02D0995089580E0089521
:104F3000E091D402F091D502309721F00280F38104
:104F4000E02D09950895E091D402F091D5023097B3
:104F500039F022E0DC012C930480F581E02D0995E5
:104F60000895A3E0B0E0E7EBF7E20C944331209121
:104F7000D2023091D30228173907A1F09093D302BF
:104F80008093D202E091D402F091D502309751F093
:104F900023E029839B838A830680F781E02DCE015D
:104FA000019609952396E2E00C945F31A3E0B0E00E
:104FB000ECEDF7E20C9443312091D0023091D10214
:104FC00028173907A1F09093D1028093D002E09185
:104FD000D402F091D502309751F024E029839B83CD
:104FE0008A830680F781E02DCE01019609952396EC
:104FF000E2E00C945F319C012E5F3F4FAC01485FB3
:105000005F4F80E02417350709F40895F901919165
:105010009F019923B9F38F5FF5CF662349F0FC0117
:10502000329608962191261729F0E817F907D1F74B
:1050300080E0089581E008959C01FC0132969FEF85
:1050400080E04191461751F09F3F19F4411101C092
:10505000982F8F5F8630A9F79F3F09F40895290F95
:10506000311D97FD3A95F90162830895FC0132964E
:1050700008962191261303C0DF0111971C92E817AF
:10508000F907B9F708950E941C2808950E94362850
:105090000895029626E0FC0111922A95E9F70895F9
:1050A00046E050E00E94D33121E0892B09F420E052
:1050B000822F089508950E945A280895811106C0EC
:1050C00081E08093D6020E945B28089582E0F9CFA8
:1050D00083E08093D6020E945B2808950E945E2898
:1050E000089581E08093D6020E945B2808950E9473
:1050F00071280895089508950E947B2808950895C1
:1051000008950E947A280895CF930E947F280E94D4
:105110004B130E948028C0E08C2F0E947C12892BA8
:1051200031F4CF5FC530C1F780E0CF91089581E0C1
:10513000FCCF85B7806885BF85B7806885BF089537
:105140001F921FB61F9211248F939F93AF93BF930B
:105150008091D702811113C080911603909117039B
:10516000A0911803B09119034196A11DB11D809320
:10517000160390931703A0931803B0931903BF91DC
:10518000AF919F918F911F901FBE1F901895809196
:105190001E03843031F10E941B051092D70288E172
:1051A00090E020E40FB6F894A895809360000FBEBD
:1051B0002093600083B7817F846083BF83B7816061
:1051C00083BF7894889583B78E7F83BF0FB6F8949A
:1051D000A8958091600088618093600010926000C3
:1051E0000FBE08950E940B090E942505089582E0D4
:1051F00084BD93E095BD9AEF97BD80936E000895AE
:105200002FB7F8948091160390911703A09118037B
:10521000B09119032FBF08952FB7F894609116032A
:105220007091170380911803909119032FBF08956F
:105230009C014FB7F8948091160390911703A091A9
:105240001803B09119034FBF821B930B08957894F4
:105250001F921FB61F9211248F939F93AF93BF93FA
:105260008091160390911703A0911803B091190330
:105270000196A11DB11D8093160390931703A0936F
:105280001803B0931903BF91AF919F918F911F9015
:105290001FBE1F90189581E08093E00080E280930C
:1052A000D8001092C9008FE19EE40197F1F700C089
:1052B000000087E090EBDC018093270390932803A4
:1052C000A0932903B0932A0388E19CE00FB6F894D9
:1052D000A895809360000FBE90936000FFCF88E197
:1052E0009CE00FB6F894A895809360000FBE909351
:1052F0006000FFCF8091E00208959B01BA01909178
:105300001E039430E9F48F708093E9009FEF809141
:10531000E800915085FD06C085ED8A95F1F7000003
:105320009111F5CF8091E80085FF0AC050E040E080
:10533000C9010E94B92B8091E8008E778093E80024
:10534000089543E050E0BC0184E00E947D29089567
:1053500046E050E0BC0184E00E947D290895CF938F
:10536000DF93EC0148E050E0BC0181E00E947D2920
:1053700088E0FE01A8EDB2E001900D928A95E1F778
:10538000DF91CF910895603231F440E250E0BC01EA
:1053900082E00E947D29089580911D03811109C03A
:1053A0000E94982D0E94F52D8091E20084608093E8
:1053B000E200089510921D0308950E947128089537
:1053C00060911A0381E0611101C080E00E946828A9
:1053D000089590911E0381E0943009F080E060917F
:1053E0001A030E946E28089542E061EC81E00E9459
:1053F000142D42E261EC84E00E94142D42E261EC43
:1054000082E00E94142D42E260EC83E00E94142DA1
:1054100090911E0381E0943009F080E060911A03BE
:105420000E945E28089580912003833009F463C0B0
:1054300030F48130E1F1823009F4A0C008958A305F
:1054400009F48CC08B3009F471C0893009F052C066
:1054500080911F03813209F04DC080912303909108
:105460002403009719F0029709F044C08091E800E6
:10547000877F8093E8008091E80082FF37C0909199
:10548000F3008091F200029731F48091F1008130B5
:1054900011F0863021F48091F1008093E002809138
:1054A000E8008B778093E8000E94482D23C080910C
:1054B0001F03813AF9F48091E800877F8093E80028
:1054C0008091230390912403892B61F468E088ED97
:1054D00092E070E00E94572C8091E8008B778093D7
:1054E000E800089560E090E080E0F3CF80911E0333
:1054F0008111C1CF089580911F03813AD9F780911E
:10550000230390912403892BA9F78091E800877FDA
:105510008093E8008091E80080FFFCCF80912E010D
:105520008093F1008091E8008E77BCCF80911F03BB
:10553000813201F78091230390912403892BD1F6C6
:105540008091E800877F8093E8000E94482D809139
:10555000210380932E010E940B09089580911F035F
:10556000813241F68091E800877F8093E8000E94B5
:10557000482D809122038093E102089580911F03BA
:10558000813A09F0B7CF8091E800877F8093E800E7
:105590008091E80080FFFCCF8091E102C1CF84B709
:1055A000877F84BF0FB6F894A895809160008861CA
:1055B00080936000109260000FBE80E890E00FB60C
:1055C000F89480936100909361000FBE0E94772849
:1055D00008950E94982D0E94F52DE2EEF0E0808162
:1055E0008460808378940E947430089586E291E00C
:1055F0000E948627089580911E03853031F48091A2
:105600001E03853019F00E94F22808950E94C728D1
:1056100080911C03882399F30E948428882379F3BE
:105620000E94A32B0E940B09EACFA0E2B0E0EBE1BD
:10563000FBE20C94433180911E03843009F583E032
:105640008093E9008091E80082FF1AC08091E80011
:1056500090E085FF09C050E040E060E270E0CE01DC
:1056600001960E94082C91E08091E8008B7780934E
:10567000E800992329F060E2CE0101960E944E22B3
:10568000A096E2E00C945F319A014091250350917D
:1056900026030E944C2B0895492F5527433051056E
:1056A00021F168F44130510509F443C042305105FD
:1056B00009F444C090E080E050E040E026C0413270
:1056C000510551F142325105A9F76330710590F748
:1056D000FB01EE0FFF1FED51FE4F408151816052E3
:1056E0007E4FFB01808190E010C0992781309105A9
:1056F00081F0009729F00297E9F6EEE4F6E002C0A7
:10570000E6E8F6E0849190E0AF01F901518340832F
:105710000895E4E7F6E0F6CF6330710558F6660FBA
:10572000771FFB01E751FE4F4081518189E090E0F6
:10573000ECCF82E190E045EE56E0E7CF8BE590E0DC
:105740004AE856E0E2CF80E189BD82E189BD09B433
:1057500000FEFDCF8091D8008F7D8093D80080918E
:10576000E00082608093E0008091E00081FDFCCF4A
:105770000895AF92BF92CF92DF92FF920F931F9343
:10578000CF93DF936C01EB018A010E94672DF82E05
:10579000811123C00115110539F0F8018081918133
:1057A000C81BD90BC80ED91EB12CA12C2097A9F06B
:1057B0008091E80085FD22C08091E8008E7780937B
:1057C000E80001151105A1F0F80180819181A80E72
:1057D000B91EB182A08285E0F82E8F2DDF91CF9186
:1057E0001F910F91FF90DF90CF90BF90AF900895E1
:1057F0000E94672D8823D1F2F82EEFCFF601819118
:105800006F018093F1002197FFEFAF1ABF0ACECF4F
:10581000AF92BF92CF92DF92FF920F931F93CF93DD
:10582000DF936C01EB018A010E94672DF82E811134
:1058300023C00115110539F0F80180819181C81B41
:10584000D90BC80ED91EB12CA12C2097A9F080919C
:10585000E80085FD22C08091E8008B778093E80006
:1058600001151105A1F0F80180819181A80EB91EE2
:10587000B182A08285E0F82E8F2DDF91CF911F910C
:105880000F91FF90DF90CF90BF90AF9008950E944E
:10589000672D8823D1F2F82EEFCF8091F100F60129
:1058A00081936F012197FFEFAF1ABF0ACECFFC01A2
:1058B000809125039091260386179707A0F0611524
:1058C000710529F49091E8009E779093E80090E0AC
:1058D0006115710551F4911108C08091E80082FFB3
:1058E00034C080E00895BC01F2CF80911E0388236C
:1058F000C1F18530C1F18091E80083FD30C0809115
:10590000E80082FDEACF8091E80080FFE1CF80913E
:10591000F3002091F200382F6115710519F028303D
:10592000310558F091E02830310509F090E02091E0
:10593000E8002E772093E800CBCF81918093F1008F
:10594000615071092F5F3F4FE7CF80911E0388237D
:1059500041F0853041F08091E80083FFBECF81E0C7
:10596000089582E0089583E00895FC018091250365
:105970009091260386179707A0F06115710529F409
:105980008091E8008E778093E80090E061157105C2
:1059900051F4911108C08091E80082FF35C080E089
:1059A0000895BC01F2CF80911E038823C9F1853090
:1059B000C9F18091E80083FD31C08091E80082FD4B
:1059C000EACF8091E80080FFE1CF8091F300209141
:1059D000F200382F6115710519F02830310558F0A3
:1059E00091E02830310509F090E08091E8008E7751
:1059F0008093E800CBCF84918093F1003196615081
:105A000071092F5F3F4FE6CF80911E03882341F03D
:105A1000853041F08091E80083FFBDCF81E008959B
:105A200082E0089583E00895982F973028F08F70D2
:105A30008093E90081E008959093E900242F762F68
:105A400050E0981731F07091EC002091ED005091EA
:105A5000F00021FD02C09F5FE8CF3091EB003E7F58
:105A60003093EB003091ED003D7F3093ED003091AD
:105A7000EB0031603093EB007093EC002093ED006D
:105A80005093F0002091EE0027FDE5CF80E00895CF
:105A900080911F0387FF13C08091E80082FF06C03A
:105AA0008091E8008B778093E80004C080911E030A
:105AB0008111F2CF089580911E038823D9F380913C
:105AC000E80080FFF8CF8091E8008E77ECCF20913E
:105AD000E4003091E50095E6A9012091EC00822FC9
