:100000000C94EE010C9426020C9426020C94260209
:100010000C9426020C9426020C9426020C942602C0
:100020000C9426020C9426020C9426020C94751E45
:100030000C94261F0C9426190C9426020C9426026C
:100040000C9426020C9426020C9426020C94AD19F2
:100050000C9426020C9426020C9426020C94260280
:100060000C9426020C9426020C9426020C94260270
:100070000C94260214001A000800150017001C003A
:1000800018000C00120013000400160007000900FD
:100090000A000B000D000E000F0028001D001B00C1
:1000A0000600190005001100100036003700380066
:1000B0000000E000E2002C0000002C000000E7003F
:1000C000E600000001000100010001000100010044
:1000D00001000100010027000100010001000100F2
:1000E0000100010001000100010001000100010008
:1000F00001000100010001000100010001000100F8
:1001000000000100010001000000010000000100EA
:1001100001000000010001000100010001000100D8
:1001200001000100010027000100010001000100A1
:1001300001000100010001000100010001000100B7
:1001400001000100010001000100010001000100A7
:10015000000001000100010000000100000001009A
:100160000100000001000100010001000100010088
:100170000100010001002700010001000100010051
:100180000100010001000100010001000100010067
:100190000100010001000100010001000100010057
:1001A000000001000100010000000100000001004A
:1001B0000100000000000000000000002A2B2800C1
:1001C0000000000000000000000000000000002906
:1001D000000000002C1E3420212224342627252E46
:1001E000362D3738271E1F2021222324252633337E
:1001F000362E37381F0405060708090A0B0C0D0EAA
:100200000F101112131415161718191A1B1C1D2F75
:100210003130232D350405060708090A0B0C0D0E95
:100220000F101112131415161718191A1B1C1D2F55
:100230003130354C000000000000000000000000DC
:1002400000000000000000000000000000000000AE
:1002500000000000000000007E0F00D4FFFFFFC779
:10026000000000781A0375006E00640065007200DB
:10027000730063006F0072006500330033000000FC
:10028000160374006F006D0069006E00610062006B
:100290006F007800310000000403090409025B00CC
:1002A000030100A0FA090400000103010100092173
:1002B000110100012244000705810308000109041F
:1002C00001000203000000092111010001222200A7
:1002D000070582032000010705030320000109042C
:1002E00002000103000000092111010001226D003C
:1002F00007058403200001120100020000000831FC
:100300007402330200010200010660FF0961A101CD
:100310000962150026FF0095207508810209631502
:100320000026FF00952075089102C005010980A1F3
:1003300001850319012AB700150126B7009501753B
:10034000108100C0050C0901A101850419012AA032
:1003500002150126A002950175108100C005010952
:1003600006A1018506050719E029E7150025019575
:1003700008750181020507190029EF15002501956F
:10038000F07501810205081901290595057501918E
:1003900002950175039101C005010906A101050738
:1003A00019E029E7150025019508750181029501DD
:1003B000750881010507190029FF150026FF009522
:1003C0000675088100050819012905150025019504
:1003D0000575019102950175039101C011241FBE9D
:1003E000CFEFD4E0DEBFCDBF04B603FE18C08091CE
:1003F000A4029091A502A091A602B091A702873015
:10040000904BA740B04B59F41092A4021092A50251
:100410001092A6021092A702E0E0F8E3099511E01D
:10042000A0E0B1E0ECEBF3E402C005900D92AE3930
:10043000B107D9F722E0AEE9B1E001C01D92A43ABC
:10044000B207E1F70E94EE110C948A210C9400008F
:10045000282F8430E0F46430D0F44A30C0F4862F82
:1004600090E06AE070E00E94CD20FC01E40FF11DF5
:10047000822F90E068E270E00E94CD20E80FF91F23
:10048000EE0FFF1FEC58FF4F85919491089581E086
:1004900090E0089581E008950E944A02089581E065
:1004A00008950E944A0208950E94510208950895F5
:1004B0000E9457020895A6E0B0E0E1E6F2E00C9455
:1004C000FA2049835A839E833091A50189819A81BC
:1004D00031111AC03E81332399F0222389F00E9402
:1004E0001A08182F682F89819A810E94F107698163
:1004F0007A81812F0E94340F2696E3E00C94162116
:100500000E940608182FF3CF0E941A0869817A8189
:10051000F1CFFC01262F408151816281738184815A
:1005200095810E945B020895CF93DF93EC0161E017
:100530000E948902BE010E944C02DF91CF91089572
:10054000CF93DF93EC0160E00E948902BE010E941C
:100550005802DF91CF91089508950E94E7060E9406
:10056000AC022FEF84E39CE0215080409040E1F703
:1005700000C0000008950E94AD020E94D1190895A4
:100580000E94AD020E94F51908950F931F93CF9317
:10059000DF938C0161E00E948902EC01B8010E94A6
:1005A0006712811106C080E0DF91CF911F910F91FA
:1005B0000895B801CE010E9454028823A1F3B80126
:1005C000CE010E941E17882371F3B801CE010E944C
:1005D0004E13882341F3B801CE010E949016882360
:1005E00011F3B801CE010E9462178823E1F2F801ED
:1005F0008581882361F0C330FCE7DF07E9F058F418
:10060000C115ECE7DE07A9F0C130DC47B9F0C8013D
:100610000E944F02C9CFCB358CE7D807A9F0CC3563
:10062000ECE7DE0771F0CA35DC4789F70E94780CE9
:10063000EECF0E94BB02B7CF0E94800C0E94C00286
:10064000B2CF0E946E0CE3CF0E947C0CE0CF0E94E0
:1006500008190E944E0308950E9452030E940D192A
:100660000895089581E008950895CF93DF93D82FDA
:100670000E943203C82F882319F08D2F0E94340363
:100680008C2FDF91CF9108950895CF93C82F0E94AA
:1006900031038C2F0E943503CF91089580E00E9492
:1006A000450308950E94B0170E9445030895CF9313
:1006B0000E94B017C82F8091A0018C1779F0C093C9
:1006C000A0010E9492196093A1017093A2018093EE
:1006D000A3019093A4018C2F0E944503CF9108950C
:1006E000ADE0B0E0E6E7F3E00C94FB2048875987E3
:1006F0006A877B878C879D8791110E94A60B1F823A
:1007000086E0FE013896DE01119601900D928A95E1
:10071000E1F78D8181110DC029813A814B815C8186
:100720006D817E818F810E94D40A2D96E2E00C9427
:100730001721CE0101960E9494028111EDCFF5CFD1
:10074000FC012481213021F4808191810E9447089D
:100750000895CF93C82F8823C9F08238C9F40E9426
:10076000BD1781FD13C089E30E945E0B0E94DF0B61
:100770002FEF87EE93E0215080409040E1F700C0DA
:10078000000089E30E94660B0E94DF0BCF91089561
:100790008338A1F40E94BD1780FDF8CF83E50E9445
:1007A0005E0B0E94DF0B2FEF81EE94E02150804022
:1007B0009040E1F700C0000083E5E4CF8438A1F465
:1007C0000E94BD1782FDE2CF87E40E945E0B0E946B
:1007D000DF0B2FEF81EE94E0215080409040E1F755
:1007E00000C0000087E4CECF8CEF8C0F813A90F4EC
:1007F0006C2F80910001909101010E94381888238C
:1008000029F08C2F0E94660B0E94DF0B8C2F0E9418
:100810005E0BBACF80E28C0F883048F4C77081E05D
:1008200001C0880FCA95EAF70E94890BADCFEBE5AE
:10083000EC0FE33040F4F0E0EC5BFE4F808190E0A1
:100840000E94DA17A3CFC85ACB3108F09FCFEC2F04
:10085000F0E0EE0FFF1FE25FFE4F808191810E946A
:10086000FF1794CF882309F44DC0823879F40E9491
:10087000BD1781FF47C089E30E945E0B0E94DF0B1A
:1008800089E30E94660B0E94DF0B0895833859F4B8
:100890000E94BD1780FF36C083E50E945E0B0E9458
:1008A000DF0B83E5EECF843859F40E94BD1782FF39
:1008B00029C087E40E945E0B0E94DF0B87E4E1CF32
:1008C0009CEF980F913AE8F290E2980F983050F42C
:1008D000877091E001C0990F8A95EAF7892F0E94ED
:1008E0008F0BD1CF9BE5980F933028F490E080E0F8
:1008F0000E94DA170895885A8B3120F490E080E046
:100900000E94FF1708951F93CF93DF93182FEB01D9
:100910000E94A903209739F4812F0E943204DF91AD
:10092000CF911F9108958FE99FE00197F1F700C0E3
:1009300000002197EFCF70E060E0893311F460E5AB
:1009400070E00E9483040895882321F00E94890B9F
:100950000E94DF0B0895882321F00E948F0B0E94D4
:10096000DF0B0895B0E0A0E0E8EBF4E00C94F42095
:100970006C01D62FC72FFC011581068102950F70DF
:100980000E947F0BE82E8823F9F0E12E1123E1F07D
:100990008C2F807F803461F080E28D0F883008F1E9
:1009A0008C2F807E803221F4D230D8F00023C9F021
:1009B0008091820282FF15C082E00E94420C0E9458
:1009C0007F0B91E0E82EE926BC2EB2949FE0B9227D
:1009D000FBE0FB15B8F1EB2DF0E0E457FE4D0C9475
:1009E000DE20E12CF1CF0C2F0F70C07F11F00295AB
:1009F000007F112399F0002359F080E28D0F883099
:100A000010F0D11107C0802F0E94890B0E94DF0BCC
:100A10008D2F5AC0802F0E94990BF8CF8D2F0E94E6
:100A20003204002379F080E28D0F883010F0D1116C
:100A300004C0802F0E948F0B03C0802F0E949F0B49
:100A40000E94DF0BEB2DE850FF0B349720F40E943F
:100A5000B0170E944503EE2089F00E947B0B80FDB9
:100A60000DC0F60115820E94750B0E945F07C6013A
:100A70000E94B2060E94750B0E946B07CDB7DEB7CD
:100A8000E9E00C9410212C2F2F70F22EC07FC03281
:100A900019F0F29480EFF822DD2341F0D130D1F14A
:100AA000112309F444C00023F1F0B2CF80918202F7
:100AB00082FD15C0112359F0FF2029F08F2D0E94CF
:100AC000890B0E94DF0B80E00E94A903BBCF80E06E
:100AD0000E943204FF2009F4B5CF8F2DABCF112334
:100AE00069F0011104C08F2D0E94A404ABCF013026
:100AF00009F0A8CF8F2D0E94BD0BA4CF0111A2CF6A
:100B00008F2D0E94AB048F2D0E94C90B8F2D0E9448
:100B1000AD0B98CF112321F0063008F093CFE3CF2F
:100B2000053008F08FCF8F2D0E94AB048BCF0023B0
:100B3000D1F3D93349F43FEF87EE93E03150804051
:100B40009040E1F700C000008D2F0E9432047ACF60
:100B50008C2F86958695837069F0813009F072CF6D
:100B60008D2F9C2F9370111102C080E090E00E94A5
:100B7000FF1768CF8D2F9C2F9370111102C080E05A
:100B800090E00E94DA175ECF8C2F837079F51111F7
:100B900059CF4D2F429546954770440F440F8D2FE6
:100BA0008F70042E01C0880F0A94EAF72D2F207150
:100BB000D4FF07C02FE030E001C0220F4A95EAF7CA
:100BC0002095C695C695C370822BC23049F058F463
:100BD000C13019F00E943B0735CF0E94350732CF54
:100BE0000E9441072FCF0E9432072CCF86951123F8
:100BF00011F08C2F8170882309F424CF4D2F42955A
:100C000046954770440F440F8D2F8F70042E01C0FE
:100C1000880F0A94EAF72D2F2071D4FF07C02FE028
:100C200030E001C0220F4A95EAF72095C695C69597
:100C3000C370822BC23049F058F4C13019F00E94C1
:100C40008A0700CF0E948407FDCE0E949007FACE4B
:100C50000E944D07F7CECF70112329F08C2F0E94F0
:100C60005F078D2F41CF8D2F0E94AB048C2F0E94E8
:100C70006B07E8CED23F41F160F4D03FB9F0D13FED
:100C800081F0112309F446C00111C2CE8C2F8F715F
:100C90001FC0D33F01F1D43FA1F78091820282FDB2
:100CA00024C08C2F8F71112311F312C0112341F036
:100CB000053008F0C7CE8C2F8F710E947807C2CE06
:100CC000063008F0BFCEF7CF8C2F8F711111CFCF28
:100CD0000E945F07B7CE112329F08C2F8F710E94DD
:100CE0005607B0CE0E945207ADCE112349F0CF7106
:100CF0008C2F0E945F0763E08C2F0E94240CA2CEF1
:100D000081E00E94420C023008F49CCE82E00E94F6
:100D1000420C98CE002359F0D93309F015CFEFEFEC
:100D2000F7EE23E0E150F0402040E1F70BCF8C2FAD
:100D30008F719DCF0F931F93CF93DF93EC01688149
:100D400079818D810E9452088C010E9496070E9431
:100D50003107B801CE010E94B204DF91CF911F91FB
:100D60000F910895CF93DF93EC018C81882399F044
:100D7000CE010E94C502811111C00E947F0B882301
:100D800051F08D81882339F08091820282FF03C067
:100D900082E00E94420CDF91CF910895CE010E9423
:100DA0009A06CE010E94A002F6CF90E080E00E9459
:100DB000DA1790E080E00E94FF170E94A60B0E94C5
:100DC000DF0B08950E946E0B0E94D50608950E94C5
:100DD000960B0E94E206089592959F70963091F0CE
:100DE00058F4925F9F70923058F4803F19F030F4BD
:100DF000883E30F481E008959A5FF4CF843FD1F3C8
:100E000080E00895883EB0F3813FD1F7F3CFFC0135
:100E10002481222339F0808191810E9447080E9419
:100E2000EC06089580E00895A6E0B0E0EAE1F7E07E
:100E30000C94FB202696E2E00C941721A7E0B0E08A
:100E4000E4E2F7E00C94FB202796E2E00C941721F3
:100E500008950E94280708950E9429078093B601EB
:100E6000089508950E942C0708959091B601892B4A
:100E70000E942C0708959091B60189230E942C07A7
:100E800008959091B60189270E942C0708950E9429
:100E9000280708950E94470708950E944A078093F3
:100EA000B501089580E00E944D07089591E001C0CA
:100EB000990F8A95EAF7892F0E944D07089521E03E
:100EC00030E001C0220F8A95EAF78091B501822BAC
:100ED0000E944D07089521E030E001C0220F8A955D
:100EE000EAF720958091B50182230E944D0708956D
:100EF00021E030E001C0220F8A95EAF78091B50128
:100F000082270E944D0708959091B501892B0E9478
:100F10004D0708959091B50189230E944D070895CA
:100F20009091B50189270E944D0708950895CF93A8
:100F3000DF93282FFA01862F8770A1E001C0AA0F46
:100F40008A95EAF7CB0133E0969587953A95E1F7D4
:100F500063E070E00E94CD20E80FF91F50E040E010
:100F6000822F90E06191EF0121979C01042E02C035
:100F7000369527950A94E2F72170219526272A2392
:100F8000262728834F5F5F4F4330510559F7DF9184
:100F9000CF910895FB01A82FA77023E09695879520
:100FA0002A95E1F763E070E00E94CD20E80FF91F79
:100FB00050E040E080E0219130E00A2E02C03695FA
:100FC00027950A94E2F721703327042E01C0220FDF
:100FD0000A94EAF7822B4F5F5F4F4330510559F770
:100FE0000895282F362F943080F48A3070F4892F9A
:100FF00090E06AE070E00E94CD20BC01620F711D9C
:1010000046EA51E0832F0E9497070895282F9430D5
:1010100078F48A3068F4892F90E06AE070E00E94EA
:10102000CD2066EA71E0820F911D0E94CA070895E3
:1010300080E00895CF92DF92FF920F931F93CF939A
:10104000DF936C010091B5018091B601082BC3E0DC
:10105000D0E010E0FC2EC8010C2E02C095958795BB
:101060000A94E2F780FD0CC02197A0F7F12C8F2D98
:10107000DF91CF911F910F91FF90DF90CF90089556
:10108000B6018C2F0E94400F019771F3F0CFCF93E0
:10109000DF93EC010E941A08BE010E94400FDF910D
:1010A000CF9108951F93CF93DF93EB019091A5010A
:1010B000992339F0CB010E944708DF91CF911F910E
:1010C0000895882369F0CB010E941A08182F682F11
:1010D000CE010E94F107BE01812F0E94400FEDCF8B
:1010E000CB010E940608182FF6CFE1E0F0E0DF0107
:1010F00002C0AA0FBB1F6A95E2F7BD01DF0102C063
:10110000AA0FBB1F4A95E2F76A2B01C0EE0F2A9582
:10111000EAF7962F9823961302C08E2B0895E09538
:101120008E230895242F462F682F8091B5010E94A9
:1011300075080E944D070895CF93DF93C091B701C2
:101140008091B8018C1303C0DF91CF910895D0E056
:10115000CE0167E070E00E94CD20FC01E754FE4F15
:1011600020813181428153816481758186810E9411
:101170001E072196C770E4CF2091F1013091F20152
:101180004091F3015091F4016091F5017091F601E5
:101190008091F7010E941E070895CF93DF938091FD
:1011A000F701807F09F04FC08091F601882309F490
:1011B0004AC02091B7014091B801A091F201B091CD
:1011C000F101C091F301D091F4014217E1F130E057
:1011D000C90167E070E00E94CD2087549E4FFC015A
:1011E0008481882399F1C90167E070E00E94CD20D5
:1011F000FC01E754FE4F81818A1328C080818B1344
:1012000025C08581811122C0828193818C1B9D0B19
:10121000883C9105D8F48091F7018F7080618093AC
:10122000F701C90167E070E00E94CD20FC01E154A4
:10123000FE4F90819F709061908381EF91E00E94BA
:10124000B2060E949C08DF91CF9108952F5F3F4F17
:101250002770BBCFA82FB62F2091B7014091B801BE
:10126000241302C080E0089530E0C90167E070E017
:101270000E94CD20FC01E754FE4F8181B81306C0C7
:101280008081A81303C085818111EDCF2F5F3F4F6F
:101290002770E6CFA4E1B0E0E0E5F9E00C94F1209E
:1012A0008C0186E0F801DE011F9601900D928A956F
:1012B000E1F7F8018481E58091EFA92E91E0B92E44
:1012C0009091F50191111FC08823D1F0EE20A9F073
:1012D000C8010E940707F82E882379F087E0F801FB
:1012E000D50101900D928A95E1F7C5010E94A003F6
:1012F0000E94CD080E94BC085FC0C8010E94B206CF
:10130000FF24F39459C0C080D18082809380F090F4
:10131000F6012091F3013091F401A401421B530B1B
:10132000FF2009F4F9C0483C510508F0A7C0882304
:1013300009F442C09091F2018091F701282F207F9B
:1013400009F05CC09D1116C09091F101C91212C044
:10135000E1104EC08F7080618093F7010E94BC083D
:1013600081EF91E00E94B2068091F701F801868337
:10137000F12C22C0E1103CC06D2D8C2D0E942A0959
:101380006D2D8C2D0E942A09E82E8111F1CFCF8678
:10139000D88A8F8598890E944708292F22952F7017
:1013A000243078F49F702230A8F09923B9F0F80126
:1013B0009681907F99F4FE2C8F2D6496ECE00C942E
:1013C0000D212A5F2F70223068F0C8010E94B206FA
:1013D000EF2CF1CF992311F0882369F3805E8830D8
:1013E00050F3F3CF803F38F3815F833070F7E3CF62
:1013F0008091F70181608093F701BACF9D1113C0EE
:101400009091F101C9120FC0E1100DC08683C8018F
:101410000E94B20687E0F801A1EFB1E001900D92C1
:101420008A95E1F767CFC8010E940707882309F46E
:1014300064CFEE2009F461CF8091F701803288F00B
:101440002091F1013091F201398728879B868A86A5
:101450009091F5019C871D868E87CE0108960E948B
:10146000B20687E0F801A1EFB1E001900D928A95F4
:10147000E1F70E94CD080E94BC0842CF9091F7018D
:10148000292F207FA1F4682D9A8A898AA6017A895A
:101490009E2D0E94140781EF91E00E94B20687E022
:1014A000F50111928A95E9F70E94BC0861CF882363
:1014B00009F482CF8091F2018D1110C08091F10169
:1014C000C8120CC0E1100AC09683C8010E94B2067F
:1014D00087E0F50111928A95E9F76ECFC8010E9465
:1014E0000707882309F409CFEE2009F406CF80917D
:1014F000F701803208F4B5CF2091F1013091F2016B
:101500003A8329839C828B829091F5019D831E8270
:101510008F83CE010196A3CF483C5105B8F58823AF
:1015200009F4EECEFE2CEE2009F4E7CE8091F20114
:101530008D111EC08091F101C8121AC08091F7016F
:1015400080FD0DC0982F907F51F08683903F09F465
:101550005ECF982F907F905F8F70892B57CF87E059
:10156000F801A1EFB1E001900D928A95E1F724CF47
:10157000C8010E940707811174CF8091F701816033
:101580008093F701C8010E94B20616CF682D9A8A8F
:10159000898AA6017A899E2D0E94140787E0F501A9
:1015A00011928A95E9F7A6CEAEE0B0E0EAEDFAE056
:1015B0000C94FB20288739874A875B876C877D8757
:1015C0008E87CE0108960E944A098823A9F06C856F
:1015D000662341F0288539854A855B857D858E8522
:1015E0000E941E078091B7019091B80189133EC0F7
:1015F0002E96E2E00C94172187E0FE013896DE017A
:10160000119601900D928A95E1F78C85882351F30C
:101610008091B80190E09C012F5F3F4F27703327E6
:101620004091B7014217130699F067E070E00E94FD
:10163000CD20DC01A754BE4F97E0FE01319601900A
:101640000D929A95E1F72093B8010E949C08CACFA9
:101650000E94E7061092B8011092B70187E0E1EF0F
:10166000F1E0DF011D928A95E9F7BCCF90E067E0D9
:1016700070E00E94CD2087549E4F0E944A09882323
:1016800009F4B6CF8091B70190E067E070E00E9466
:10169000CD20FC01E754FE4F2081318142815381EE
:1016A0006481758186810E941E078091B70190E058
:1016B0000196877099278093B70194CF682F809106
:1016C0000001909101010E94B8180895682F80913F
:1016D0000001909101010E94C618089580910001B7
:1016E000909101010E94D418089580911802869566
:1016F0008695869508958091180287700895909137
:101700001802977081E009F480E0089580913C020E
:10171000089590913C02892B80933C020895809516
:1017200090913C02982390933C02089510923C02C1
:10173000089590913B02892B80933B0208958095F8
:1017400090913B02982390933B02089510923B02A4
:10175000089508950E94A90B089590911902292FC8
:10176000282331F080958923809319020E94AA0BC7
:10177000089508950E94B90B089590911A02292F97
:101780002823281729F0982B90931A020E94BA0B4D
:10179000089590911A02292F282331F080958923EA
:1017A00080931A020E94BA0B089580911A0288232E
:1017B00029F010921A0280E00E94BA0B0895CF938C
:1017C000DF93E0910001F091010180913C02808360
:1017D000E0910001F0910101808190913B02892B01
:1017E000808390911A02992381F0E0910001F09199
:1017F00001018081892B80838091000190910101FA
:101800000E94241881110E94D50BC0910001D09133
:10181000010140E250E068EF71E0CE010E94222118
:10182000892B59F080E2FE01A8EFB1E001900D9202
:101830008A95E1F7CE010E94C017DF91CF910895FC
:1018400008950E94200C08959091820292FF11C089
:10185000982F990F990F990F962B909318020E9429
:101860005F07809118028695869586950E94210CC7
:1018700008950E945F0708951092180280E00E9468
:10188000210C089590911802809589238093180265
:10189000282F277069F4891759F09091820292FFDE
:1018A00007C08695869586950E946B070E943C0C22
:1018B00008959091820292FB222720F9281769F05F
:1018C00080FB92F990938202809181029091820232
:1018D0000E94A20C82E00E94420C08958091820234
:1018E00082FB882780F991E089270E94590C08958E
:1018F00081E00E94590C089580E00E94590C0895DF
:101900006FEF7FEF90E080E00E947421089590E0F7
:1019100080E00E944021863E9E4F19F40E940012F2
:10192000089580E0089582E090E00E9438210895B3
:1019300083E090E00E943821089584E090E00E94C6
:1019400040210895BC0184E090E00E947421089534
:10195000AB01BC018FE090E00E9468210895AB01CB
:10196000BC0183E190E00E946821089560E070E08E
:10197000CB010E94AF0C089560E070E0CB010E94A3
:10198000A80C0E94B60C0895A8E0B0E0EAECFCE0D8
:101990000C94FB2066EE7EEF90E080E00E947421C4
:1019A00060E082E090E00E94562181E08093B601E1
:1019B00061E083E090E00E94562160E074E184E001
:1019C00090E00E94742160E086E090E00E94562141
:1019D0006FEF87E090E00E94562140E050E0BA01AE
:1019E00088E090E00E94682160E084E290E00E943C
:1019F000562160E087E190E00E94562160E08CE093
:101A000090E00E94562160E08DE090E00E94562117
:101A100019821A821B821C821D821E821F821886D6
:101A200048E050E068E170E0CE0101960E94462156
:101A300040E050E0BA0180E290E00E94682180E03E
:101A40000E9419120E9449120E94BC0C2896E2E0E2
:101A50000C9417210E94C40C0895682F8EE090E02A
:101A60000E9456210895A6E0B0E0E9E3FDE00C9461
:101A7000F9200E9486198C0180913D0290913E02CE
:101A80008017910781F019821A820E948619682FA7
:101A900049815A81792F80E090E00E947003109371
:101AA0003E0200933D022696E4E00C9415210E942C
:101AB000921960934B0270934C0280934D02909365
:101AC0004E026093470270934802809349029093BC
:101AD0004A020895089508950E946A0D0895089590
:101AE0000E946F0D089586E390E10E94FB110E9411
:101AF0006B0D0E946C0D089581E008950E947C0D8D
:101B000008950E947C0D0895089508950E94840D03
:101B10000E94850D08950E9455100E944403089567
:101B20000E947D190E9459120E943A110E948B0D49
:101B30000E94700D0895A6E0B0E0E1EAFDE00C948B
:101B4000EF200E947E0D811108C00E94330D0E947B
:101B500057032696EEE00C940B210E9450112FE3C0
:101B6000822E22E0922E640110E0F601E190F190C5
:101B70006F01812F0E9478101F5F143009F44BC051
:101B8000E816F90691F380914F0281FD0E948110C1
:101B90000E94810D782E10E066246394812F0E94AC
:101BA00078107C01F401A190B1904F018A159B053A
:101BB00061F100E0CC24C394D12CAE24BF24C50134
:101BC0008C219D21892BC1F07720B1F009831A83E4
:101BD0000E9486199C838B836D8221E0C7018C2132
:101BE0009D21892B09F420E049815A816B817C81F8
:101BF0008D81922F0E9470030F5FCC0CDD1C0A3088
:101C0000F1F6F4013297F182E0821F5F143031F671
:101C10000E94570D9CCFE816F90609F0B4CF95CF76
:101C20001F93CF93DF930E94450FEC01C11580E510
:101C3000D807F0F5C11580E4D80708F09EC0C03E73
:101C4000D10520F5CD3CD10508F084C0C83AD105B6
:101C500078F4C53AD10508F075C0C130D10519F145
:101C6000209709F1C430D105F0F4D0E0C0E01BC0EA
:101C7000C33CD105D0F7C85AD0E0CC0FDD1FC95BFB
:101C8000DE4F0990D881C02DD4640DC0C11580E20B
:101C9000D80708F0D7C0C11581E0D80708F05CC0AC
:101CA000C83ED10510F7CE01DF91CF911F91089565
:101CB000C03682E5D80728F5C03482E5D80708F099
:101CC0006DC0C03282E5D80708F061C0C11582E559
:101CD000D80708F49DC02C2F2695269530E085E086
:101CE000220F331F8A95E1F78C2F8370C1E0D0E07B
:101CF00002C0CC0FDD1F8A95E2F7C22BD32BDD6823
:101D0000D2CFC03A82E5D80760F4C03882E5D80760
:101D100008F45BC0CF71D0E0DC2FCC27C46FD06A51
:101D2000C2CFC03C82E5D80708F466C0C03E82E559
:101D3000D80708F09ACFDC2FCC27CC27DF71C06FF3
:101D4000D06AB1CFC55AD0E0C358DE4FC881D0E0C9
:101D5000D064A9CFD065A7CF8D2F0E94E70F182F91
:101D6000CE0199270E94450FC12FD0E0DC2FCC2750
:101D7000CC27DF71C82BD92B96CFCE0199270E9493
:101D8000450FCC27DF70C82BD92BD06A8CCFCF71F1
:101D9000D0E0DC2FCC27C16FD06A85CF2C2F2695C1
:101DA0002695277030E0B5E0220F331FBA95E1F792
:101DB0008C2F8370C1E0D0E002C0CC0FDD1F8A956C
:101DC000E2F7C22BD32BDC686ECF2C2F26952695FD
:101DD000277030E0A5E0220F331FAA95E1F78C2F82
:101DE0008370C1E0D0E002C0CC0FDD1F8A95E2F71E
:101DF000C22BD32BDA6857CF8C2F8F710E94E70F3D
:101E0000C82FD0E0DC2FCC27CC27DF71D0624BCF9E
:101E10008C2F8F710E94E70F55E0D695C7955A9584
:101E2000E1F7CF70D0E0DC2FCC27282F30E084FF03
:101E300005C044E0220F331F4A95E1F7C22BD32B94
:101E4000D06931CF8D2F8F710E94E70F182FCE01EF
:101E500099270E94450FC12FD0E0DC2FCC27CC273B
:101E6000DF71C82BD92BD2CF462F743030F46A30B3
:101E700020F4672F0E94A815089590E080E008954F
:101E80000E94340F0E94100E089582389105B9F116
:101E9000B0F48133910509F47DC048F4893291058D
:101EA00009F46DC08A32910509F47BC00895853329
:101EB000910509F45FC08933910509F10895833EC6
:101EC0009105D9F138F4803E910529F1823E9105C2
:101ED00079F10895863E9105D9F1873E910509F47F
:101EE0003EC0843E910541F52091820221FF24C02D
:101EF0008091810284FD19C087EE90E008952091C1
:101F00008102237009F05AC02091820223FF14C07D
:101F100089E290E008952091810220FD38C030913F
:101F2000820230FF09C024FF43C090E080E00895A2
:101F30002091810222FDF7CF08952091810222FD98
:101F40003AC03091820230FD39C024FFF5CFEDCF89
:101F50002091810223FFF0CF24FDE7CFCDCF209148
:101F6000810223FD2EC03091820231FFEECF84EE3C
:101F700090E008952091810225FFDECFC9CF209106
:101F8000810225FD21C02091820223FFD5CF89E364
:101F900090E0D2CF2091810226FFCECF8AE290E05E
:101FA00008952091810226FFC7CF81E390E0089534
:101FB00083EE90E0089582EE90E0089580EE90E048
:101FC000089586EE90E0089585E390E0089590915D
:101FD000810292FF10C041E0282F2471243009F0C3
:101FE00040E031E0282F2871283009F030E0431715
:101FF00011F02CE0822793FF10C041E0282F2471BC
:10200000243109F040E031E0282F2871283109F00F
:1020100030E0431711F02CE082273091820230FF2C
:1020200010C051E0282F2171213009F050E041E02B
:10203000282F2871283009F040E0541711F029E0CA
:10204000822731FF10C041E0282F2171213109F092
:1020500040E031E0282F2871283109F030E04317A3
:1020600011F029E0822794FD877E089580E008958D
:102070000E94800C08950E9450112FEF86E791E096
:10208000215080409040E1F700C000000E945011B4
:1020900080E00E94781080FF04C00E9438100E94E7
:1020A000D11908950E943B1008950E94870C811158
:1020B00002C00E942A0D0E94930C80934F020E943E
:1020C0009D0C90938202809381020E9452100E9484
:1020D000980C0E9432078091B5010E944A0708952A
:1020E00008950E947010089508950E947410089534
:1020F000E82FF0E0EE0FFF1FE557FD4F8081918143
:102100000895089580EA8A95F1F7089500C008952A
:102110000E9482100895F894E82FE295EF70F0E0A5
:1021200031A1282F2F7081E090E001C0880F2A95FF
:10213000EAF7982F9095932391A392A1892B82A3DC
:1021400078940895CF93DF93C0E8D1E089918F3FD1
:1021500011F00E948B1081E0CA38D807B9F784E6E5
:102160000E948B1080E30E948B1081E30E948B10F1
:1021700082E30E948B10DF91CF9108958F929F92FE
:10218000BF92CF92DF92EF92FF920F931F93CF9364
:10219000DF93D82EE92EF62E8A01C62FD0E0C05844
:1021A000DE4F28812F3F09F453C0F894E22FE295C7
:1021B000EF70F0E031A12F7081E090E001C0880F56
:1021C0002A95EAF7932F982B91A392A180958923C2
:1021D00082A378940E9486108AE8882E81E0982E47
:1021E000ED2DFE2DBF01685F7F4FE12C6801C0948B
:1021F000D094D401BD904D0181919191AF01425095
:102200005109BFEFBB1681F12B2D22952F7030E0C5
:10221000D90190962C9130E0BB2DBF7002C035954E
:102220002795BA95E2F720FD1FC0802B912BDA018C
:102230008D939C93EE24E3946E177F07D1F68881EB
:102240008F3F11F00E948B106E2D8F2D0E948810F1
:10225000DF91CF911F910F91FF90EF90DF90CF9082
:10226000BF909F908F9008958C219D21DA018D93CE
:102270009C93E2CF0E94A21088E0EBE8F2E0DF013D
:10228000982F1D929A95E9F7E3E8F2E0DF011D929D
:102290008A95E9F784E00E94A4110E9471100895C4
:1022A000CF92DF92FF920F931F93CF93DF93CDB71F
:1022B000DEB728970FB6F894DEBF0FBECDBF8E01F4
:1022C0000F5F1F4F88E0F80111928A95E9F7F12C12
:1022D000CC24C394D12CA6016F2DC8010E94BE103E
:1022E000F394CC0CDD1CFAE0FF12F5CF48E050E08F
:1022F000B80183E892E00E94222121E0009709F4CE
:1023000020E0892B41F088E0F801A3E8B2E00190D9
:102310000D928A95E1F744E06BE872E083E892E081
:102320000E94A511182F0E947510812F28960FB6B4
:10233000F894DEBF0FBECDBFDF91CF911F910F91FB
:10234000FF90DF90CF9008950895B0E0A0E0EBEA11
:10235000F1E10C94F5206C017B01042FC22F2223A4
:1023600079F081E0809352020E9486199093510285
:102370008093500280E0CDB7DEB7E8E00C941121E5
:10238000D0915202DD23B1F380915002909151021D
:102390000E949E19059770F310E0000F111FA8010D
:1023A000B601C7010E942221892B31F0A801B60194
:1023B000C7010E942F21CD2F109252028C2FDBCF0C
:1023C0000E94661B0E94900D0E94731B08950E943C
:1023D000781B0E949B0D0E94921B08950E94251954
:1023E0000E944C1B0E94730D0E94E0110E94E71195
:1023F0000E94860DFBCF90939F0180939E010895CC
:1024000085E290E00E943821833289F486E290E0F0
:102410000E943821803159F487E290E00E943821EF
:1024200091E0803109F090E0892F8170089580E07B
:10243000FCCFCF93C82F6FEF811163E285E290E06C
:102440000E945621C1110DC0CFEF6C2F86E290E0A3
:102450000E9456216C2F87E290E00E945621CF9176
:102460000895C0E1F2CF089588E290E00E943821FB
:10247000682F70E090E080E008950895CF93C62F14
:102480000E943D126C2F88E290E00E945621CF916D
:10249000089580E00E94191260E070E0CB010E9474
:1024A0003E120E9440150E94031681E00E941912FC
:1024B00008950E9433120E9434120E943D120E941D
:1024C0000012811102C00E944912089508959C01D2
:1024D000FB018581882351F0A901575740385105E8
:1024E00030F4822F0E94131680E0089581E0089551
:1024F0002FEFFC01208308950E947812089580E058
:102500000895B0E0A0E0E7E8F2E10C94F520EC01DA
:10251000C62E0E947F12811110C0E881E150E33184
:10252000B8F4F0E0E856FE4D0C94DE2019828CE001
:102530008A836C2DCE010E94531ACDB7DEB7E8E036
:102540000C94112189818230C1F028F4813061F02E
:102550008FEF8883EECF833099F08430C9F71A82E9
:102560001B821C821D82E5CF0E9492190E94E420EA
:102570006A837B838C839D83DCCF0E943412F6CFE9
:102580008A81082F10E07E019EE0D92ED80E0430FB
:10259000110578F6802F0E947810F70193838483C9
:1025A0000F5F1F4FF2E0EF0EF11CD012F0CFC1CF42
:1025B0008981823031F0853059F68A810E94661215
:1025C000B8CF6A817B818C819D810E94E4200E942A
:1025D0003E12AFCF4B816A8189810E9402159827F4
:1025E000892798279D838C83A4CF2C813D81322716
:1025F000232732274B816A8189810E94241599CF34
:102600000E94401596CF6C2DCE010E947C1291CF76
:102610000E94B41589838DCF0E94B615982789270B
:1026200098279A83898385CF6B8170E089819A810D
:10263000AE014C5F5F4F9827892798270E94B915F4
:1026400078CF6B8170E089819A81AE014C5F5F4FDA
:102650009827892798270E94DE156BCF0E940316C2
:1026600068CF0E94E914D6CF6B8170E089819A818E
:10267000AE014C5F5F4F9827892798270E9460150D
:1026800058CF6B8170E089819A81AE014C5F5F4FBA
:102690009827892798270E9484154BCFCF93DF93E3
:1026A000EC01FB018581882309F4D2C09E013057DB
:1026B0002332310508F0B2C00E949D0C9093820233
:1026C00080938102FE01E150F047E232F10520F4EF
:1026D000E555FE4D0C94DE2080918102816080934F
:1026E000810293C0809182028860809382028DC0B3
:1026F000809181028260F3CF809181028460EFCF6C
:10270000809181028860EBCF809182028160EDCF61
:10271000809182028260E9CF809181028061DFCF67
:10272000809181028062DBCF809181028064D7CF6B
:102730000E94E706809181028068D1CF809181025A
:102740008C60CDCF809182028360CFCF8091810257
:102750008E7FC5CF80918202877FC7CF8091810213
:102760008D7FBDCF809181028B7FB9CF8091810217
:10277000877FB5CF809182028E7FB7CF8091820212
:102780008D7FB3CF809181028F7EA9CF809181020E
:102790008F7DA5CF809181028F7BA1CF0E94E7061C
:1027A000809181028F779BCF80918102837F97CF29
:1027B000809182028C7F99CF8091810282FB992740
:1027C00090F921E0922790FB82F990FB83F987CF63
:1027D00080918202982F909591708E7F892B90FB2B
:1027E00081F983CF90918102892F8F7B96FF80643E
:1027F00076CF0E94E70690918102892F97FB87F997
:1028000080586DCF81E00E942D0D809181029091C2
:1028100082020E94A20C0E94E70680E0DF91CF9125
:10282000089580E0F0CF90918102892F8F7E94FFF0
:10283000806155CF90918102892F8E7F90FF8160BA
:102840004ECF90918202892F877F93FF88604DCF72
:1028500081E0E4CFB0E0A0E0E0E3F4E10C94F62006
:10286000E82FF0E0EC54FE4FD490282F26952695C3
:10287000269530E0F901EC5AFD4F0491877010E085
:10288000082E02C0159507950A94E2F701701127EA
:10289000F901EC5BFD4FE490F12C082E02C0F59499
:1028A000E7940A94E2F791E0E922FF24F901EC5C55
:1028B000FD4FC491D0E002C0D595C7958A95E2F747
:1028C000C170DD270115110519F081EE0E94A903E1
:1028D000E114F10419F086EE0E94A9038D2D0E94E7
:1028E0009B04E114F10419F086EE0E9432040115F4
:1028F000110519F081EE0E943204CD2B19F08CE203
:102900000E949B04CDB7DEB7E7E00C941221EF9252
:10291000FF921F93CF93DF93EC01162F88818823BA
:1029200009F451C0813009F04BC08981813099F49C
:102930007E0122E0E20EF11C8A810E949B04E701E5
:102940002196812F815050F3EFE9FFE03197F1F7A5
:1029500000C00000F7CF823041F47E0182E0E80E33
:10296000F11C8A810E94A903EACF833041F47E01E1
:10297000E2E0EE0EF11C8A810E943204E0CF843046
:1029800011F02196DDCF2A81229690E080E0FE01B1
:1029900031962053330B2A30310548F0019780F2ED
:1029A000EFE9FFE03197F1F700C00000F7CF6AE0F0
:1029B00070E00E94CD20820F931F2981EF01E7CFA5
:1029C0000E942A14BDCFDF91CF911F91FF90EF900D
:1029D000089584E00895E82F862F90E064E170E088
:1029E0000E94CD20242F30E0220F331F280F391FE3
:1029F0008E2F90E060E570E00E94CD20820F931F43
:102A0000899608950F931F93CF93DF938430C8F472
:102A10006430B8F44A30A8F40E94EB148C010E9490
:102A20003821C82FD0E0DC2FCC27C80101960E94A6
:102A300038219E01282BC901DF91CF911F910F9161
:102A4000089590E080E0F8CF0F931F93CF93DF932A
:102A5000122F032F843078F4643068F44A3058F42D
:102A60000E94EB14EC01602F0E945621612FCE01D1
:102A700001960E945621DF91CF911F910F910895E9
:102A80001F93CF93DF93D0E0C0E011C0412F6C2F94
:102A90008D2F0E9428029C01412F6C2F8D2F0E94A8
:102AA00024151F5F1A3091F7CF5FC43011F010E08A
:102AB000EDCFDF5FD43041F7DF91CF911F910895C3
:102AC000EF92FF920F931F93CF93DF93EC018A0154
:102AD0007C01E60EF71ECE018996CE15DF0529F49E
:102AE000CDB7DEB7E6E00C941321C03421E0D20765
:102AF00040F40E943821F80180830F5F1F4F219618
:102B0000EACFF8011082F9CFB0E0A0E0EAE8F5E101
:102B10000C94F5207C016A018C01060F171FEC0153
:102B2000CE018996C017D10729F4CDB7DEB7E8E00A
:102B30000C941121C03421E0D20740F4FE01EE19BB
:102B4000FF09EC0DFD1D60810E9456212196E8CF02
:102B5000843038F4643028F44A3018F40E940215A6
:102B6000089590E080E0089580E1089587E992E07B
:102B70000895EF92FF920F931F93CF93DF93EC0191
:102B80008A017C01E60EF71ECE0187599E4FCE15B5
:102B9000DF0529F4CDB7DEB7E6E00C941321C73981
:102BA00022E0D20740F40E943821F80180830F5FB1
:102BB0001F4F2196E9CFF8011082F9CFB0E0A0E0D5
:102BC000E4EEF5E10C94F5207C016A018C01060F1E
:102BD000171FEC01CE0187599E4FC017D10729F46A
:102BE000CDB7DEB7E8E00C941121C73922E0D20757
:102BF00040F4FE01EE19FF09EC0DFD1D60810E94FD
:102C000056212196E7CFCF93DF93C9E6D1E060E06C
:102C1000CE010E9456212196C11584E0D807B9F74C
:102C2000DF91CF910895A8E0B0E0E9E1F6E10C94DE
:102C3000F320F82E8FE08F1508F46EC08FEF93E02D
:102C40000E943821811168C009E611E0F11035C0F9
:102C5000FE0131966F0188E011928A95E9F77801BB
:102C6000FFEFEF1AFF0AC8010E94382189831A82F8
:102C7000882309F451C08130D1F4580182E0A80EB4
:102C8000B11CC7010E9438218A83882309F444C0FB
:102C90009FEF980F9330F0F4780193E0E90EF11C68
:102CA000C5010E9438218B838823B1F11C8260E02A
:102CB000C6010E9487148701D2CF011594E019073D
:102CC00059F1C8010E943821811101C0FA940F5FA7
:102CD0001F4FBCCF7501843051F702E010E0750141
:102CE000EFEFEE1AFE0AC5010E943821F601E00F4F
:102CF000F11F8083882381F08C3741F4E2E0F0E01B
:102D0000EC0FFD1FE00FF11F1082D1CF0F5F1F4F9F
:102D100057010730110519F72896EAE00C940F21A6
:102D2000CF93DF93EB0186319C4711F50E94860B10
:102D30009D81992399F08A7A91E009F490E090932B
:102D40005302811109C089E20E945E0B0E94DF0BD1
:102D500080E0DF91CF91089585E3F6CF8091530213
:102D6000811104C089E20E94660BF0CF85E3FBCF9E
:102D700081E0EFCF0F931F93CF93DF93C42FD22F18
:102D8000FC0185818823C9F0409356020E94861970
:102D9000909355028093540280E28C0F883040F467
:102DA000C77081E001C0880FCA95EAF70E94A404A9
:102DB000DF91CF911F910F91089510915602141336
:102DC00032C080915402909155020E949E19883C15
:102DD000910548F5C0E2CD0F1D17B9F080E2810FD3
:102DE000883040F4177081E001C0880F1A95EAF727
:102DF0000E94AB04C83048F481E09D2F977001C059
:102E0000880F9A95EAF70E94A404802F0E949B04E1
:102E1000C83070F6D77081E001C0880FDA95EAF704
:102E20000E94AB04C5CF80E28C0F883008F6C770D3
:102E300081E001C0880FCA95EAF7F2CF0F93DB015A
:102E400088519C4787309105A0F5FC01E353FE4D66
:102E50000C94DE2006E221EE41EE6AE17CE7CD0132
:102E60000E94BA1680E00F91089507E225EE45EE24
:102E70006BE17CE7F4CF06E221EE40EE68E17CE70F
:102E8000EECF07E225EE44EE69E17CE7E8CF06E20B
:102E900021EE42EE6CE17CE7E2CF07E225EE46EE62
:102EA0006DE17CE7DCCF08E221E045EE6EE17CE7F6
:102EB000D6CF15968C91882319F010925602D3CF55
:102EC00081E0D1CF1F93CF93DF9387372CE7920711
:102ED00059F0C1E088379C47E1F4FB01C581CC2360
:102EE00071F10E94A51706C0FB01C581CC23B1F08A
:102EF0000E94A2170E945F070E94A817D82F0E9465
:102F0000A517C82F0E94A2174D2F6C2F0E94920860
:102F1000C0E08C2FDF91CF911F9108950E94A217DE
:102F20000E946B070E94A817182F0E94A517D82F80
:102F30000E94A217412F6D2F0E949208EACF0E9493
:102F4000A517EECF809104010895809103010895A3
:102F500080910201089590935C0280935B02089532
:102F6000E0915B02F0915C02309729F00190F081D2
:102F7000E02D0995089580E008950E94B017089506
:102F8000E0915B02F0915C02309799F020910D0185
:102F9000222359F02091810227FF07C0DC012C91E8
:102FA00011962C93119726E02C930280F381E02D4B
:102FB00009950895A3E0B0E0E0EEF7E10C94FB2062
:102FC0002091590230915A0228173907A1F09093A5
:102FD0005A0280935902E0915B02F0915C023097B3
:102FE00051F023E029839B838A830680F781E02DBB
:102FF000CE01019609952396E2E00C941721A3E0F7
:10300000B0E0E5E0F8E10C94FB202091570230910C
:10301000580228173907A1F090935802809357025D
:10302000E0915B02F0915C02309751F024E029833B
:103030009B838A830680F781E02DCE010196099556
:103040002396E2E00C941721FC01329680910D0149
:10305000882321F0809181029EE187FF96E080E045
:10306000915008F4089521912223D1F38F5FF8CF76
:10307000662301F120910D012223F1F020918102BC
:1030800027FF1AC0462F4695469546954E3190F437
:10309000677021E030E002C0220F331F6A95E2F72B
:1030A000840F911DFC01828190E02823392381E067
:1030B000232B69F480E00895FC0132960896219153
:1030C000261721F0E817F907D1F7F4CF81E008952A
:1030D0009C01FC0132969FEF80E04191461751F030
:1030E0009F3F19F4411101C0982F8F5F8630A9F7D7
:1030F0009F3F09F40895290F311D97FD3A95F90175
:1031000062830895FC01329608962191261303C02C
:10311000DF0111971C92E817F907B9F70895E62F18
:10312000E695E695E695EE3168F4E80FF92FF11D86
:10313000677021E030E001C0220F6A95EAF78281D2
:10314000822B82830895E62FE695E695E695EE318B
:1031500070F4E80FF92FF11D677021E030E001C035
:10316000220F6A95EAF72095828128232283089509
:1031700020910D01222339F02091810227FF03C005
:103180000E948F1808950E946818089520910D01DB
:10319000222339F02091810227FF03C00E94A31847
:1031A00008950E9482180895FC01329680910D01C5
:1031B000882351F08091810287FF06C08EE1DF01F4
:1031C0001D928A95E9F7089586E0F9CF08950E9447
:1031D000E6180895811106C081E080935D020E9487
:1031E000E718089582E0F9CF83E080935D020E94A2
:1031F000E71808950E94EA18089581E080935D021F
:103200000E94E71808950E94FD18089508950895F2
:103210000E9407190895089508950E9406190895B7
:10322000CF930E940B190E9450110E940C19C0E00C
:103230008C2F0E947810892B31F4CF5FC430C1F7F6
:1032400080E0CF91089581E0FCCF08951F921FB6D2
:103250001F9211248F939F93AF93BF9380915E022F
:10326000811113C08091930290919402A0919502D4
:10327000B09196024196A11DB11D80939302909347
:103280009402A0939502B0939602BF91AF919F9143
:103290008F911F901FBE1F90189580919B028430C4
:1032A00031F10E94270310925E0288E190E020E451
:1032B0000FB6F894A895809360000FBE209360002D
:1032C00083B7817F846083BF83B7816083BF789435
:1032D000889583B78E7F83BF0FB6F894A8958091A9
:1032E0006000886180936000109260000FBE0895B6
:1032F0000E94E7060E942C03089582E084BD93E0BB
:1033000095BD9AEF97BD80936E0008952FB7F894FE
:103310008091930290919402A0919502B0919602AF
:103320002FBF08952FB7F894609193027091940283
:1033300080919502909196022FBF08959C014FB7FE
:10334000F8948091930290919402A0919502B0918B
:1033500096024FBF821B930B089578941F921FB65D
:103360001F9211248F939F93AF93BF9380919302E9
:1033700090919402A0919502B09196020196A11DA0
:10338000B11D8093930290939402A0939502B09301
:103390009602BF91AF919F918F911F901FBE1F907A
:1033A000189581E08093E00080E28093D80010922D
:1033B000C9008FE19EE40197F1F700C0000087E0AB
:1033C00090EBDC018093A4029093A502A093A60247
:1033D000B093A70288E19CE00FB6F894A89580937B
:1033E00060000FBE90936000FFCF88E19CE00FB6B5
:1033F000F894A895809360000FBE90936000FFCF73
:1034000080917F02089508959B01BA0190919B02DB
:103410009430E9F48F708093E9009FEF8091E80089
:10342000915085FD06C085ED8A95F1F70000911158
:10343000F5CF8091E80085FF0AC050E040E0C90167
:103440000E94361C8091E8008E778093E8000895F2
:1034500043E050E0BC0184E00E94041A0895CF9339
:10346000DF93EC0180910D01811111C048E050E023
:10347000BE0181E00E94041A80E2FE01AFE5B2E0E5
:1034800001900D928A95E1F7DF91CF910895809197
:10349000810287FF05C040E284E050E0BE01EACF30
:1034A00048E081E0FACF603231F440E250E0BC0104
:1034B00082E00E94041A08950E94FD180895609108
:1034C000970281E0611101C080E00E94F418089524
:1034D00090919B0281E0943009F080E06091970226
:1034E0000E94FA18089542E061EC81E00E948D1D6F
:1034F00042E261EC84E00E948D1D42E261EC82E0D8
:103500000E948D1D42E260EC83E00E948D1D90912F
:103510009B0281E0943009F080E0609197020E9464
:10352000EA18089580919D02833009F461C030F457
:103530008130D1F1823009F49EC008958A3009F4B7
:103540008AC08B3009F46FC0893009F050C0809177
:103550009C02813209F04BC08091A0029091A1029F
:10356000009719F0029709F042C08091E800877F28
:103570008093E8008091E80082FF35C08091F200DE
:10358000823031F48091F100813011F0863021F4E5
:103590008091F10080937F028091E8008B77809387
:1035A000E8000E94C11D23C080919C02813AF9F479
:1035B0008091E800877F8093E8008091A00290913D
:1035C000A102892B61F460E28FE592E070E00E9435
:1035D000D41C8091E8008B778093E800089560E028
:1035E00090E080E0F3CF80919B028111C3CF0895DA
:1035F00080919C02813AD9F78091A0029091A1021A
:10360000892BA9F78091E800877F8093E80080915B
:10361000E80080FFFCCF80910D018093F100809144
:10362000E8008E77BCCF80919C02813201F78091B7
:10363000A0029091A102892BD1F68091E800877FAA
:103640008093E8000E94C11D80919E0280930D012D
:103650000E94E706089580919C02813241F6809194
:10366000E800877F8093E8000E94C11D80919F023F
:1036700080938002089580919C02813A09F0B7CF2F
:103680008091E800877F8093E8008091E80080FFC8
:10369000FCCF80918002C1CF84B7877F84BF0FB6F3
:1036A000F894A895809160008861809360001092E2
:1036B00060000FBE80E890E00FB6F8948093610040
:1036C000909361000FBE0E94031908950E94111E7D
:1036D0000E94641EE2EEF0E0808184608083789432
:1036E0000E94B220089585E091E00E94AB170895F2
:1036F00080919B02853031F480919B02853019F0D6
:103700000E94781908950E944D198091990288238A
:1037100099F30E941019882379F30E94201C0E94BB
:10372000E706EACFA0E2B0E0E8E9FBE10C94FB2079
:1037300080919B02843009F583E08093E9008091B9
:10374000E80082FF1AC08091E80090E085FF09C080
:1037500050E040E060E270E0CE0101960E94851CDE
:1037600091E08091E8008B778093E800992329F01D
:1037700060E2CE0101960E948112A096E2E00C94D4
:1037800017219A014091A2025091A3020E94C91BE5
:103790000895492F55274330510521F168F44130F0
:1037A000510509F443C04230510509F444C090E08A
:1037B00080E050E040E026C04132510551F14232F4
:1037C0005105A9F76330710590F7FB01EE0FFF1F5C
:1037D000EF56FE4F4081518162577E4FFB01808141
:1037E00090E010C099278130910581F0009729F071
:1037F0000297E9F6E4E6F2E002C0E8E9F2E084913B
:1038000090E0AF01F901518340830895E0E8F2E0D0
:10381000F6CF6330710558F6660F771FFB01E95646
:10382000FE4F4081518189E090E0ECCF82E190E051
:1038300047EF52E0E7CF8BE590E04CE952E0E2CF72
:1038400084E089BD86E089BD09B400FEFDCF80918A
:10385000D8008F7D8093D8008091E00082608093B3
:10386000E0008091E00081FDFCCF0895AF92BF920F
:10387000CF92DF92FF920F931F93CF93DF936C0150
:10388000EB018A010E94E01DF82E811123C0011571
:10389000110539F0F80180819181C81BD90BC80E40
:1038A000D91EB12CA12C2097A9F08091E80085FDAC
:1038B00022C08091E8008E778093E8000115110501
:1038C000A1F0F80180819181A80EB91EB182A08279
:1038D00085E0F82E8F2DDF91CF911F910F91FF90F2
:1038E000DF90CF90BF90AF9008950E94E01D882395
:1038F000D1F2F82EEFCFF60181916F018093F100A4
:103900002197FFEFAF1ABF0ACECFAF92BF92CF92EF
:10391000DF92FF920F931F93CF93DF936C01EB0124
:103920008A010E94E01DF82E811123C001151105A6
:1039300039F0F80180819181C81BD90BC80ED91EBE
:10394000B12CA12C2097A9F08091E80085FD22C020
:103950008091E8008B778093E80001151105A1F0B4
:10396000F80180819181A80EB91EB182A08285E004
:10397000F82E8F2DDF91CF911F910F91FF90DF9047
:10398000CF90BF90AF9008950E94E01D8823D1F2A0
:10399000F82EEFCF8091F100F60181936F0121970E
:1039A000FFEFAF1ABF0ACECFFC018091A202909127
:1039B000A30286179707A0F06115710529F490916D
:1039C000E8009E779093E80090E06115710551F44E
:1039D000911108C08091E80082FF32C080E0089514
:1039E000BC01F2CF80919B028823B1F18530B1F107
:1039F0008091E80083FD2EC08091E80082FDEACF2F
:103A00008091E80080FFE1CF2091F20030E0611565
:103A1000710519F02830310558F091E02830310552
:103A200009F090E02091E8002E772093E800CDCFB8
:103A300081918093F100615071092F5F3F4FE7CF73
:103A400080919B02882341F0853041F08091E8000D
:103A500083FFC0CF81E0089582E0089583E0089558
:103A6000FC018091A2029091A30286179707A0F013
:103A70006115710529F48091E8008E778093E80044
:103A800090E06115710551F4911108C08091E80032
:103A900082FF33C080E00895BC01F2CF80919B0289
:103AA0008823B9F18530B9F18091E80083FD2FC0FA
:103AB0008091E80082FDEACF8091E80080FFE1CFAD
:103AC0002091F20030E06115710519F028303105C0
:103AD00058F091E02830310509F090E08091E8003D
:103AE0008E778093E800CDCF84918093F10031965A
:103AF000615071092F5F3F4FE6CF80919B02882371
:103B000041F0853041F08091E80083FFBFCF81E034
:103B1000089582E0089583E00895982F953028F065
:103B20008F708093E90081E008959093E900242F3D
:103B3000762F50E0981731F07091EC002091ED0055
:103B40005091F00021FD02C09F5FE8CF3091EB0063
:103B50003E7F3093EB003091ED003D7F3093ED00E0
:103B60003091EB0031603093EB007093EC002093C8
:103B7000ED005093F0002091EE0027FDE5CF80E0AE
:103B8000089580919C0287FF13C08091E80082FF16
:103B900006C08091E8008B778093E80004C0809194
:103BA0009B028111F2CF089580919B028823D9F363
:103BB0008091E80080FFF8CF8091E8008E77ECCF0D
:103BC0002091E4003091E50095E6A9012091EC00F8
:103BD000822F817020FF06C08091E80080FF06C020
:103BE00080E008952091E80022FD1AC080919B0298
:103BF000882389F0853089F08091EB0085FD0FC026
:103C00002091E4003091E50042175307F9F29150FA
:103C1000E1F684E0089582E0089583E0089581E06C
:103C200008950E946F1E0E94721EE0EEF0E08081F7
:103C300081608083E8EDF0E080818F77808319BC1C
:103C4000E3E6F0E080818160808310929A0208951B
:103C50000E946F1E0E94721E8091D8008F77809301
:103C6000D8008091D80080688093D8008091D800D7
:103C70008F7D8093D80084E089BD86E089BD09B43A
:103C800000FEFDCF10929B021092970210929902B3
:103C90001092980242E060E080E00E948D1D8091C9
:103CA000E1008E7F8093E1008091E200816080934B
:103CB000E2008091E20088608093E2008091E00061
:103CC0008E7F8093E0000895E3E6F0E080818E7FB0
:103CD000808381E080939A020E94281E08951092AA
:103CE000E20008951092E10008951F920F920FB61E
:103CF0000F9211242F933F934F935F936F937F9372
:103D00008F939F93AF93BF93EF93FF938091E100C5
:103D100082FF0BC08091E20082FF07C08091E1002A
:103D20008B7F8093E1000E94B1208091E10080FFB1
:103D300019C08091E20080FF15C08091E2008E7F63
:103D40008093E2008091E20080618093E2008091A4
:103D5000D80080628093D80019BC85E080939B02D4
:103D60000E945F1A8091E10084FF2BC08091E200E5
:103D700084FF27C084E089BD86E089BD89B5982F7E
:103D8000917080FFFBCF8091D8008F7D8093D80009
:103D90008091E1008F7E8093E1008091E2008F7E30
:103DA0008093E2008091E20081608093E200809144
:103DB0009702882309F443C084E080939B020E9409
:103DC000681A8091E10083FF29C08091E20083FF9F
:103DD00025C08091E100877F8093E10082E080939D
:103DE0009B02109297028091E1008E7F8093E10008
:103DF0008091E2008E7F8093E2008091E2008061FA
:103E00008093E20042E060E080E00E948D1D80919E
:103E1000F00088608093F0000E945C1AFF91EF919F
:103E2000BF91AF919F918F917F916F915F914F91D2
:103E30003F912F910F900FBE0F901F90189580917A
:103E4000E30087FD93E090939B02B9CF1F920F92FE
:103E50000FB60F9211242F933F934F935F936F935D
:103E60007F938F939F93AF93BF93CF93DF93EF9302
:103E7000FF93D091E900DF708091EC00C82FC170F2
:103E800080FDC0E81092E9008091F000877F809368
:103E9000F00078940E946A1F1092E9008091F0006F
:103EA00088608093F000CD2BCF70C093E900FF9124
:103EB000EF91DF91CF91BF91AF919F918F917F91C2
:103EC0006F915F914F913F912F910F900FBE0F9087
:103ED0001F901895AAE2B0E0E0E7FFE10C94FA2009
:103EE0008CE992E02091F100FC012193CF01F2E0F6
:103EF000843A9F07B9F70E94921A8091E80083FFE5
:103F00001EC180919C0290919D029A3008F017C1C9
:103F1000E92FF0E0EC52FE4D0C94DE20803899F051
:103F2000823809F00CC18091A0028F70853008F0B2
:103F300006C18093E9008091EB0085FB882780F91A
:103F40001092E90006C08091980290919902911117
:103F500082609091E800977F9093E8008093F10051
:103F60001092F1008091E8008E77E5C0882309F473
:103F7000D3C0823009F0E3C080919E028111D6C087
:103F80008091A0028F702FEF280F243008F0D7C047
:103F90008093E9002091EB0020FFC8C0933031F4FA
:103FA0008091EB0080628093EB00C0C09091EB00A9
:103FB00090619093EB0021E030E001C0220F8A95E0
:103FC000EAF72093EA001092EA008091EB00886003
:103FD000EACF8111B4C010919E021F778091E30057
:103FE0008078812B8093E3008091E800877F809325
:103FF000E8000E94C11D8091E80080FFFCCF809105
:10400000E30080688093E30082E0111183E08093F5
:104010009B0295C08058823008F091C080919E022A
:1040200090919F028C3D23E09207A1F583E08A8363
:104030008AE289834FB7F894DE01139620E03EE0D0
:1040400051E2E32FF0E050935700E49120FF03C0CA
:10405000E295EF703F5FEF708E2F90E0EA30C0F096
:10406000C7968D939D932F5F243159F74FBF809151
:10407000E800877F8093E8006AE270E0CE01019655
:104080000E94D41C8091E8008B778093E80057C091
:10409000C096E7CF6091A0027091A102AE014F5F80
:1040A0005F4F0E94C11BBC01892B09F448C090914D
:1040B000E800977F9093E80089819A810E94301DE3
:1040C000E1CF8038E1F58091E800877F8093E800B8
:1040D000809197028093F10045CF811130C090917B
:1040E0009E02923060F58091E800877F8093E8001F
:1040F000909397020E94C11D80919702882311F02E
:1041000084E005C08091E30087FDFACF81E08093D1
:104110009B020E94731A13C080919E02813079F431
:1041200081E0933009F080E0809399021092E900D9
:104130008091E800877F8093E8000E94C11D8091F4
:10414000E80083FF0AC08091E800877F8093E80041
:104150008091EB0080628093EB00AA96E3E00C94E0
:1041600016210895CF9380919B028823A1F0C091DE
:10417000E900CF709091EC00892F817090FD80E86C
:10418000C82B1092E9008091E80083FD0E946A1F0D
:10419000CF70C093E900CF9108950024552704C043
:1041A000080E591F880F991F009729F0769567957B
:1041B000B8F37105B9F7802D952F0895EE0FFF1F05
:1041C0000590F491E02D09946927962769277827AF
:1041D0008727782708952F923F924F925F926F9290
:1041E0007F928F929F92AF92BF92CF92DF92EF9287
:1041F000FF920F931F93CF93DF93CDB7DEB7CA1B08
:10420000DB0B0FB6F894DEBF0FBECDBF09942A8832
:10421000398848885F846E847D848C849B84AA84DA
:10422000B984C884DF80EE80FD800C811B81AA8167
:10423000B981CE0FD11D0FB6F894DEBF0FBECDBF32
:10424000ED010895FB01DC0104C08D9101908019FE
:1042500021F441505040C8F7881B990B0895FB0189
:10426000DC0102C001900D9241505040D8F70895F2
:10427000F999FECF92BD81BDF89A992780B508952E
:10428000A8E1B0E042E050E00C947C21DC01A40FF6
:10429000B51F4150504048F0CB01840F951F2E911F
:1042A0000E94572141505040D0F70895262FF99988
:1042B000FECF92BD81BDF89A019700B4021639F085
:1042C0001FBA20BD0FB6F894FA9AF99A0FBE089556
:1042D0000396272F0E9457210E945621252F0E94C6
:1042E0005721242F0C9457210196272F0E945721E4
:1042F0000C945621DC01CB01FC01F999FECF06C0DC
:10430000F2BDE1BDF89A319600B40D924150504093
:10431000B8F70895F894FFCFF304F3044305430579
:10432000A805220522052205C4052B063A063A06F1
:104330009612A212D812EA12F512001303130313F5
:104340000313A812A81208130C13141321132E130D
:10435000311334134113A6131A14AE1378137C13BC
:10436000B2138013B613C2138C1313149013C61315
:104370009413CA13F2139813CE13F9139E13D41384
:10438000DC138413BA138813BE13A213D813E813D3
:10439000021411147213AA1321143B1741172A1780
:1043A000351747174D1753178E1FB61F9F20B61F7F
:0C43B0009F20E91F0A209F2061206D2043
:1043BC001B02030201001A2F1A031A281A01E20029
:1043CC00E900EA00B500B600B700CD008301CC00CF
:1043DC008A01920194012102230224022502260261
:1043EC0027022A02B300B4006F0070009F01CB01BA
:1043FC009F02A002818283E200E900EA00B500B6C8
:10440C0000B700CD008301CC008A019201940121F8
:10441C0002230224022502260227022A02B300B438
:10442C00006F0070009F01CB019F02A0028182836C
:10443C0065666737363534336290643031324422E6
:0E444C006D980309032B03AE02C702E70200BE
:00000001FF
