:100000000C94EC020C9424030C9424030C9424030D
:100010000C9424030C9424030C9424030C942403C4
:100020000C9424030C9424030C94AB1F0C94671FB2
:100030000C94A8200C9424030C9424030C94240303
:100040000C9424030C9424030C9424030C94240394
:100050000C9424030C9484200C9424030C94240307
:100060000C9424030C94AD270C948A270C9424033D
:100070000C9424030C9424030C9424030C94240364
:100080000C9424030C9424030C9424030C94240354
:100090000C9424030C9424030C9424030C94240344
:1000A0000C9424030C9424030C94240305010902EA
:1000B000A10185020901A1000509190129081500FE
:1000C0002501950875018102050109300931158165
:1000D000257F95027508810609381581257F9501D0
:1000E00075088106050C0A38021581257F95017572
:1000F000088106C0C005010980A101850319012AF4
:10010000B700150126B700950175108100C0050CD8
:100110000901A101850419012AA002150126A002E6
:10012000950175108100C00660FF0961A101096297
:10013000150026FF00952075088102096315002629
:10014000FF00952075089102C005010906A101056F
:100150000719E029E7150025019508750181029529
:1001600001750881010507190029FF150026FF0008
:100170009506750881000508190129059505750181
:100180009102950175039101C0000000000000007C
:10019000000000000000000000000000000000005F
:1001A000000000000000000000000000007E0F00C2
:1001B000D4FFFFFFC700000078000000000000002F
:1001C000002A2B28000000000000000000000000B2
:1001D0000000000029000000002C1E3420212224F1
:1001E000342627252E362D3738271E1F202122237F
:1001F0002425263333362E37381F04050607080911
:100200000A0B0C0D0E0F10111213141516171819D6
:100210001A1B1C1D2F3130232D3504050607080934
:100220000A0B0C0D0E0F10111213141516171819B6
:100230001A1B1C1D2F3130354C1E0F0500047F3F4B
:100240001F643214643214783C1E1E140A05000127
:100250000101010101010101020202020202020286
:100260000203030303030303030404040404040458
:10027000050505050506060606060707070707081C
:10028000080808090909090A0A0A0B0B0B0C0C0CCF
:100290000D0D0D0E0E0E0F0F0F1010111111121269
:1002A00013131414151516161717181819191A1AE6
:1002B0001B1B1C1D1D1E1E1F202021222223242447
:1002C000252626272829292A2B2C2D2D2E2F303183
:1002D0003232333435363738393A3B3C3D3E3F4095
:1002E0004142434445464748494A4C4D4E4F505180
:1002F0005354555658595A5B5D5E5F61626465663A
:1003000068696B6C6D6F7072737577787A7B7D7EC0
:100310008082838587888A8C8E8F91939596989A10
:100320009C9EA0A2A3A5A7A9ABADAFB1B3B5B7BA28
:10033000BCBEC0C2C4C6C9CBCDCFD1D4D6D8DBDDFC
:10034000DFE2E4E7E9EBEEF0F3F5F8FAFDFFFFAAF0
:100350007F55402223252628292A2C2D2F30323361
:100360003536383A3B3D3E4042434547494A4C4E7C
:100370005051535557595A5C5E6062646668696BA8
:100380006D6F71737577797B7D7F81838587898AAE
:100390008C8E90929496989A9C9E9FA1A3A5A7A8B4
:1003A000AAACAEAFB1B3B4B6B8B9BBBCBEBFC1C2E4
:1003B000C3C5C6C7C9CACBCCCDCED0D1D2D2D3D477
:1003C000D5D6D7D7D8D9D9DADADBDBDBDCDCDCDC95
:1003D000DCDDDDDDDDDCDCDCDCDCDBDBDBDADAD963
:1003E000D9D8D7D7D6D5D4D3D2D2D1D0CECDCCCBE5
:1003F000CAC9C7C6C5C3C2C1BFBEBCBBB9B8B6B403
:10040000B3B1AFAEACAAA8A7A5A3A19F9E9C9A9892
:10041000969492908E8C8A89878583817F7D7B7963
:10042000777573716F6D6B6968666462605E5C5A44
:100430005957555351504E4C4A4947454342403E07
:100440003D3B3A3836353332302F2D2C2A29282699
:10045000252322000000000000540055005600AA89
:1004600000A9005F00600061005700010001005C0E
:10047000005D005E0057000100010059005A005B5A
:100480000058000100010062006200630058000093
:10049000000000000000000000000000000000005C
:1004A000000000000000000000000000000000004C
:1004B000000000000000000000000000000000003C
:1004C000000000000000000000000000000000002C
:1004D000000000000000000000000000000000001C
:1004E000000000000000000000000000000000000C
:1004F00000000000000000000000000000000000FC
:1005000000000000000000000000000000000000EB
:1005100000000000000000000000000000000000DB
:1005200000000000000000000000000000000000CB
:1005300000000000000000000000000000000000BB
:1005400000000009025B00030100A0FA090400009A
:1005500001030101000921110100012240000705EA
:1005600081030800010904010002030000000921C1
:100570001101000122220007058203200001070566
:100580000303200001090402000103000000092107
:1005900011010001227B00070584032000011201E4
:1005A000000200000008616E6460010001020001A9
:1005B0000E0354004900440042004900540000006A
:1005C00012036E0075006C006C006200690074001C
:1005D000730000000403090411241FBECFEFDAE00A
:1005E000DEBFCDBF04B603FE18C080910F0490910A
:1005F0001004A0911104B09112048730904BA740D1
:10060000B04B59F410920F04109210041092110480
:1006100010921204E0E0F8E3099524E0AEEBB1E0BB
:1006200001C01D92AF30B207E1F711E0A0E0B1E0E8
:10063000E4E4F3E502C005900D92AE3BB107D9F7B3
:100640000E94CF200C9477290C940000E8EDF0E094
:1006500080818E7F80831092E2001092DA001092E7
:10066000E100A0EEB0E08C9181608C9380818F7767
:10067000808319BCA7EDB0E08C918E7F8C93808134
:100680008F7E80831092B00208952091E400309113
:10069000E50095E6A9012091EC00822F817020FFF2
:1006A00006C08091E80080FF06C080E00895209198
:1006B000E80022FD1AC08091BD02882389F08530B0
:1006C00089F08091EB0085FD0FC02091E40030910E
:1006D000E50042175307F9F29150E1F684E00895DE
:1006E00082E0089583E0089581E00895EF92FF92FB
:1006F0000F931F93CF937C018B010E944503C82F5A
:10070000811117C08091E80085FD0BC08091E80041
:100710008E778093E8000E944503882399F3C82FC1
:1007200008C0F70181917F018093F1000150110908
:1007300049F78C2FCF911F910F91FF90EF90089563
:100740008091BF0287FF13C08091E80082FF06C03E
:100750008091E8008B778093E80004C08091BD020F
:100760008111F2CF08958091BD028823D9F3809141
:10077000E80080FFF8CF8091E8008E77ECCF982FCB
:100780009093E900242F762F50E0891731F0709173
:10079000EC002091ED005091F00021FD07C09F5F1B
:1007A000973071F78093E90081E008953091EB0074
:1007B0003E7F3093EB003091ED003D7F3093ED00B4
:1007C0003091EB0031603093EB007093EC0020939C
:1007D000ED005093F0002091EE0027FDE0CF80E087
:1007E0000895B0E0A0E0E7EFF3E00C944B28C8EDEB
:1007F000D0E088818F7E8883E7EDF0E080818160A2
:10080000808384E082BF81E08093B00288818E7F04
:10081000888302EE10E0F80110821092DA0081EE77
:10082000C82ED12CF601108288818F778883888129
:100830008068888388818F7D888319BC1092BD026F
:100840001092BE021092BC021092BB0290EEE92EF2
:10085000F12CF70180818B7F808388818160888380
:1008600042E060E080E00E94BF03F60180818E7F5D
:100870008083F801808181608083808188608083AB
:10088000F70180818E7F8083888180618883CDB7E6
:10089000DEB7E8E00C946728FC018091C5029091D6
:1008A000C60286179707A0F06115710529F490918B
:1008B000E8009E779093E80090E06115710551F48F
:1008C000911108C08091E80082FF34C080E0089553
:1008D000BC01F2CF8091BD028823C1F18530C1F106
:1008E0008091E80083FD30C08091E80082FDEACF6E
:1008F0008091E80080FFE1CF8091F3002091F20029
:10090000382F6115710519F02830310558F091E044
:100910002830310509F090E02091E8002E772093EF
:10092000E800CBCF81918093F100615071092F5F76
:100930003F4FE7CF8091BD02882341F0853041F0E1
:100940008091E80083FFBECF81E0089582E00895A2
:1009500083E0089508958091B20208959C014FB7F5
:10096000F8948091A9029091AA02A091AB02B09153
:10097000AC024FBF821B930B08952FB7F894809160
:10098000A9029091AA02A091AB02B091AC022FBF34
:1009900008959C01FC0132969FEF80E0419146173B
:1009A00051F09F3F19F4411101C0982F8F5F86309D
:1009B000A9F79F3F09F40895290F311D97FD3A9536
:1009C000F901628308952091A6023091A7022817A9
:1009D000390771F09093A7028093A602E091A402D8
:1009E000F091A502309721F00084F185E02D099562
:1009F00008952091A2023091A3022817390771F0BF
:100A00009093A3028093A202E091A402F091A50228
:100A1000309721F00680F781E02D09950895E09147
:100A2000A402F091A502309729F00190F081E02D09
:100A30000995089580E00895FA01811101C0FB0134
:100A400009950895089580919D02982F9E7F29F41D
:100A50008170826080939D0208958635E8F38170ED
:100A60008465F8CFAF92BF92DF92EF92FF920F931F
:100A70001F93CF93DF93082F162FE901E42FF0E0A7
:100A8000E25BFD4F611110C0E4915E2F4E2F498350
:100A9000E8835A83DF91CF911F910F91FF90EF90E0
:100AA000DF90BF90AF900895E62EF12C4491D42EA4
:100AB000E42FF0E026E0829FC00111242FEF30E008
:100AC000B9010E94FD27802F90E0880F991F55E5FE
:100AD000569FD001579FB00D11248A1B9B0B982F56
:100AE000990F890F5901AE18BF08AE9ED001AF9E75
:100AF000B00DBE9EB00D11245B2F189F80011124F4
:100B0000012F11275901A01AB10AAE9E8001AF9E94
:100B1000100DBE9E100D11245901A81AB108AE9CEB
:100B2000C001AF9C900DBE9C900D1124892F992778
:100B3000281B390B2E9FC0012F9F900D3E9F900DBB
:100B40001124E92F62307105A1F050F4611571058F
:100B500009F49DCF6130710581F0EB2F512F97CFB4
:100B60006430710569F080F06630710509F48FCF4B
:100B7000F4CFE42F4B2F592F8ACFE42F412F87CF6B
:100B8000EB2F542F492F83CF4B2F5D2DE12F7FCF9C
:100B90000E94BD049C0190914E0280914F02982BBF
:100BA00021F030934B0220934A02909150028091A1
:100BB0005102982B21F03093490220934802E09192
:100BC000A402F091A502309749F082E080934C0294
:100BD0000480F581E02D8CE492E009950895409120
:100BE0004E02803F59F480914F0287FF0DC0109252
:100BF0004F0241110BC01092460208C0813F81F4A0
:100C000080914F0218169CF3442381F0809150028A
:100C100090915102892B09F05AC010924502089513
:100C2000823F49F447FFF0CF10924E0280914F026D
:100C30008111ECCFE0CF833F19F41416ACF3E4CF6D
:100C400090915002893F29F41916F4F6109250023F
:100C5000DBCF8A3F19F497FFD7CFF8CF909151029D
:100C60008B3F29F497FFD0CF10925102CDCF8C3F0C
:100C700019F41916CCF3C8CF9CE0980F953090F476
:100C8000845F990B21E030E0B90102C0660F771F45
:100C90008A95E2F7CB01809590914D02892380934C
:100CA0004D02B2CF8D3F31F4809147028E7F809309
:100CB0004702AACF8E3F21F4809147028D7FF7CF64
:100CC0008F3F09F0A1CF809147028B7FF0CF08952D
:100CD0008091470280FD16C081FD16C082FD16C0BE
:100CE000809145028823A1F0883280F428E0829F19
:100CF000C001112468E270E00E941128862F672B42
:100D000039F0089582E0089584E0089588E0089518
:100D100081E008958091470280FD14C081FD14C0D8
:100D200082FD16C080914602882381F08E3180F4C6
:100D300020E5829FC00111246EE170E00E9411281D
:100D4000862F089584E1089588E2089588E0089543
:100D500080E50895803F31F40E948A068195809352
:100D60004F020895813F19F40E948A06F8CF823F0E
:100D700031F40E948A06819580934E020895833F44
:100D800019F40E948A06F8CF893F29F40E94680668
:100D90008093500208958A3F21F40E94680681954D
:100DA000F7CF8B3F31F40E94680681958093510202
:100DB00008958C3F19F40E946806F8CF9CE0980FC4
:100DC000953070F4845F990B21E030E001C0220F70
:100DD0008A95EAF780914D02822B80934D02089507
:100DE0008D3F31F4809147028160809347020895DE
:100DF0008E3F21F4809147028260F7CF8F3FB9F791
:100E0000809147028460F1CF80E00895F894E82F44
:100E1000E295EF70F0E031A1282F2F7081E090E093
:100E200001C0880F2A95EAF7982F9095932391A3F4
:100E300092A1892B82A3789408959091290292FF20
:100E400006C0282F28712830F9F4877F846093FF2B
:100E500006C0282F28712831F1F4877E8461209103
:100E60002A0220FF06C0382F38713830D9F4877F26
:100E7000816021FF06C0282F28712831D1F4877E98
:100E8000816194FD877E0895282F24712430F9F61E
:100E90008B7F8860DCCF282F2471243101F78B7E73
:100EA0008861DDCF382F3171313019F78E7F88603E
:100EB000E0CF282F2171213121F78E7E8861E1CF8B
:100EC000CF93DF93EC0182389105A9F1D8F58133F6
:100ED000910509F496C048F58932910509F48AC054
:100EE0008A9709F495C0C11521E5D20708F0BCC066
:100EF000C11530E5D30708F014C1C83ED10508F08C
:100F00009CC0C03ED10560F5C83AD10508F087C045
:100F1000C53AD10508F0FDC0C130D10509F12097CF
:100F2000F9F0C430D105E0F440C08533910509F4EF
:100F30005AC0C997C1F680912902837089F0C0EE2A
:100F4000D0E00EC0833E910599F170F4803E91058A
:100F500001F1823E910539F68091290282FD21C07E
:100F6000CE01DF91CF910895863E910561F1873ED4
:100F7000910571F1843E910509F0B5CF80912A0267
:100F800081FFEECF80912902C7EED0E084FD0DC035
:100F9000E7CF8091290280FD12C190912A0290FF33
:100FA000DFCFC3EED0E084FFDBCFD0E0C0E0D8CF0E
:100FB0008091290282FD06C190912A0290FDBFCF47
:100FC00084FFCECFF2CF8091290283FDDDCFC8CF41
:100FD0008091290283FDF9C090912A0291FFF0CF00
:100FE000C4EED0E0BDCF8091290285FFB9CFC9E220
:100FF000D0E0B6CF8091290285FFB2CFC5E3D0E023
:10100000AFCF8091290286FFABCFCAE2D0E0A8CF54
:101010008091290286FFA4CFC1E3D0E0A1CFCF3BCE
:10102000D10518F6C85AD0E0CC0FDD1FCD5DDE4FDC
:101030000990D881C02DD46493CFC11540E2D40764
:1010400058F4C11581E0D80708F08ACFC03FD10518
:1010500008F4ABCFD06584CFC11590E4D90708F46C
:10106000A4CFDF70D06A7CCFC11525E5D20700F58B
:10107000C11534E5D30708F08AC0C11543E5D4078C
:1010800008F071C0C11582E5D80708F467C0CE0129
:101090008370992721E030E002C0220F331F8A9528
:1010A000E2F7C695C69580E2C89FE001112452C0C0
:1010B000C11599E5D907A8F4C11528E5D20708F0AC
:1010C0006BC0C11536E5D30708F06FCF8C2F0E9497
:1010D0001D07C82FD0E0DC2FCC27CC27DF71D062D2
:1010E0003FCFC1154AE5D40708F45BC0CE01905646
:1010F0008115904208F059CF8D2F8F710E941D07E6
:1011000090E0982F882788279F719C012C2BE9015C
:10111000E6CFC55AD0E0C05EDE4FC881D0E0D064D3
:101120001FCFCE01E4E096958795EA95E1F78370AD
:101130002C2F26952695237040E2249F90011124A0
:10114000382B8C2F8370C1E0D0E002C0CC0FDD1FA4
:101150008A95E2F7C22BD32BDC6802CFDC2FCC2799
:10116000C16FD06AFDCECE018370992721E030E0B7
:1011700002C0220F331F8A95E2F7C695C69590E20A
:10118000C99FE0011124C22BD32BDA68E9CEDC2FF2
:10119000CC27C46FD06AE4CEDC2FCC27C06FD06AD6
:1011A000DFCE8C2F8F700E941D0734E0D695C79537
:1011B0003A95E1F7CF709C2FEC01D069D1CEC9E30D
:1011C000D0E0CECEC2EED0E0CBCEC6EED0E0C8CEE0
:1011D00080911902811110921902089580959091C1
:1011E0001802982390931802089580910D0290910F
:1011F000DC01981301C008958F5F8770FACF292F03
:10120000953078F5863068F590E036E0239F800DC4
:10121000911D1124682F677023E0969587952A9574
:10122000E1F7FC01EE0FFF1FE80FF91FE653FE4F39
:1012300050E040E080E0219130E0062E02C036957B
:1012400027950A94E2F721703327042E01C0220F5C
:101250000A94EAF7822B4F5F5F4F4330510559F7ED
:10126000089580E00895292F953098F5863088F507
:1012700090E036E0239F800D911D1124282F2770C8
:1012800041E001C0440F2A95EAF723E0969587953F
:101290002A95E1F7FC01EE0FFF1FE80FF91FE65357
:1012A000FE4F30E020E070E05191DF011197CB015B
:1012B000022E02C0969587950A94E2F78170819577
:1012C0008527842385278C932F5F3F4F233031055B
:1012D00059F70895813019F4809888980895809A74
:1012E000FCCF81700E946A0908958093AD027093CB
:1012F000AF026093AE028091BD028430F9F4809316
:10130000E9008FEF9091E800815095FD06C095EDC2
:101310009A95F1F700008111F5CF8091E80085FFE3
:101320000DC050E040E063E070E08DEA92E00E9482
:1013300076038091E8008E778093E8000895BC01E1
:1013400084E00E9475090895BC0183E00E9475093C
:1013500008959C0184E08093E9009FEF8091E8006C
:10136000915085FD06C085ED8A95F1F70000911139
:10137000F5CF8091E80085FF0CC050E040E066E0CA
:1013800070E0C9010E9476038091E8008E77809317
:10139000E8000895CF93DF93EC0181E08093E900AA
:1013A0008FEF9091E800815095FD06C095ED9A95DC
:1013B000F1F700008111F5CF8091E80085FF14C09E
:1013C00050E040E068E070E0CE010E94760380913A
:1013D000E8008E778093E80088E0FE01A3EBB2E09E
:1013E00001900D928A95E1F7DF91CF91089581E008
:1013F0008093E00080E28093D8001092C9008FE1D2
:101400009EE40197F1F700C0000087E090EBDC015B
:1014100080930F0490931004A0931104B0931204CE
:1014200088E19CE00FB6F894A895809360000FBE09
:1014300090936000FFCF80919D0280FD0AC0EDE592
:10144000F2E0118210821282339652E0E537F507FE
:10145000C1F7269A35B13F7B25B120644FB7F89488
:101460008DE592E0FC015191CF0168E025B90000C3
:1014700000C057FF35B9550F000000C000C000C0C4
:1014800035B900C06A9591F7F2E085379F0751F7AB
:101490004FBF8FE594E00197F1F700C00000089579
:1014A000EF92FF920F931F93CF93DF938C01CDE5C3
:1014B000D2E0F12CE12CF801948160919F0280919F
:1014C0009E02F4E0EF16F104ECF49923E9F09E019A
:1014D0004091A0020E9432052FEFE21AF20A2396F1
:1014E00088E0E816F10439F70E941B0AF8018481AC
:1014F00090E00196817099278483CDB7DEB7E6E04E
:101500000C946928992319F39E0140E0E3CFB0E0E1
:10151000A0E0EDE8FAE00C944728EC014C81042FA0
:1015200010E09801D8010E9468299B01AC010E943B
:1015300055294B015C01E0E2F0E0E01BF10BA5E571
:10154000B0E0AC019B010E9455296B017C019F0119
:10155000DF010E9432289B01AC010E9460299B019F
:10156000AC01280D391D4A1D5B1DC701B6010E9443
:10157000CF27F22E822F90E039E23F1598F143E019
:10158000249F9001112435952795122F10959DE5E4
:10159000C92E92E0D92E00E085E5E82EEF188E2DB9
:1015A00001FD8F2D9601412F60919F020E9432050F
:1015B0000F5F53E0C50ED11C083089F70E941B0A4B
:1015C0009C8181E0992319F0903219F48FEF809378
:1015D0001E0180911E01890F8C83CDB7DEB7ECE030
:1015E0000C94632825E530E0A901481B590BCA017A
:1015F0009A01220F331F280F391F37FFC4CF2F5FE7
:101600003F4FC1CF0F931F93CF93DF93CDE5D2E030
:10161000FE01118210821282339682E0E537F807CC
:10162000C1F710E000E080915B02082E000C990BDE
:10163000081719078CF180911D01082E000C990BD9
:10164000801791074CF19E014091A00260919F028A
:1016500080919E020E9432050F5F1F4F2396083033
:10166000110509F70E941B0A80911C0190915B02F1
:10167000980F90935B0220911D01280F20931D016C
:10168000121614F497301CF0819580931C01DF91A1
:10169000CF911F910F910895198218821A82DCCF81
:1016A000B0E0A0E0E6E5FBE00C944B28FC01828171
:1016B000DD24DA9480FD02C0DD24D394CDE5D2E0B0
:1016C00010E000E0198218821A8294E0E92EF12CD1
:1016D000C12C80915A028C0D8930ACF18770082E94
:1016E000000C990B8017910791F48091A0028E9DB8
:1016F000A0018F9D500D11245595479555954795FF
:101700009E0160919F0280919E020E943205CD0C45
:10171000F1E0EF1AF108E9F60F5F1F4F239608304A
:10172000110581F60E941B0A80915A0291E0D9129C
:1017300010C081110CC087E080935A02CDB7DEB78C
:10174000E8E00C94672887FFCACF885FC8CF815034
:10175000F3CF90E0019687709927EECFEF92FF923A
:101760001F93CF93DF93EC018DE5E82E82E0F82EF6
:1017700010E08C8197014091A00260919F02810F3F
:101780000E943205115E83E0E80EF11C183F89F7D4
:101790000E941B0A9A818C8190FF08C08F5F8C8306
:1017A000DF91CF911F91FF90EF9008958150F7CF77
:1017B00090919D0290FF0CC0EDE5F2E08183608383
:1017C0004283339692E0E537F907C1F70E941B0A7E
:1017D0000895A3E0B0E0EFEEFBE00C944F288C01FD
:1017E00080915C0281110AC09E012F5F3F4F4FEF35
:1017F0006FEF0E9432058A8180935C02F801648158
:10180000613069F080915C0240E0662361F040E065
:10181000623011F440915C0280E060E004C06091AD
:101820005C0240E080E00E94D80BF801848190E0E7
:10183000019663E070E00E94112884832396E4E01F
:101840000C946B28A3E0B0E0E8E2FCE00C94512893
:1018500090919D0290FF0AC09E012F5F3F4F0E9412
:1018600032054B8169818A810E94D80B2396E2E080
:101870000C946D28CF93DF93EC01EDE9F2E0438106
:1018800062818C810E94220C8C818F5F8C83DF911E
:10189000CF910895CF93DF93EC01EC81F0E0ED5A06
:1018A000FC4F4491EDE9F2E0628181810E94220CBB
:1018B0008C818F5F8C83DF91CF910895CF93DF93DD
:1018C000C7E1D1E060E0CE010E9402292196C11556
:1018D00084E0D807B9F7DF91CF9108951F93CF9394
:1018E000DF93122F8430E0F46530D0F44630C0F43A
:1018F000C42FD0E0CC0FDD1F9CE0699FC00DD11D2F
:1019000011249CE3899FC00DD11D1124632FCE01AA
:1019100087960E940229612FCE0188960E94022993
:10192000DF91CF911F910895AF92BF92CF92DF9236
:10193000EF92FF921F93CF93DF9383E5C82E84E04D
:10194000D82ED0E07601C0E014C0F5012591349185
:10195000412F6C2F8D2F0E946E0C82E0A80EB11CBF
:101960001F5F163091F78CE0E80EF11CCF5FC53099
:1019700019F0570110E0E9CFDF5F8CE3C80ED11CEE
:10198000D43001F7DF91CF911F91FF90EF90DF905E
:10199000CF90BF90AF900895CF93C82F6FEF811174
:1019A00062E283E290E00E9402296FEFC11164E0DD
:1019B00084E290E00E9402296FEFC11162E085E2AB
:1019C00090E00E940229CF91089580E00E94CC0C03
:1019D00060E086E290E00E9402290E94940C0E943E
:1019E0005E0C81E00E94CC0C08950F931F93CF935F
:1019F000DF93843030F5653020F5463010F5C42F84
:101A0000D0E0CC0FDD1F2CE0629FC00DD11D112452
:101A10003CE3839FC00DD11D1124CE0187960E9407
:101A2000EE28082F10E0102F0027CE0188960E9484
:101A3000EE289801282BC901DF91CF911F910F91BA
:101A4000089590E080E0F8CF462F843040F4753060
:101A500030F4663020F4672F0E94F50C089590E072
:101A600080E00895CF92DF92FF920F931F93CF9360
:101A7000DF936C010091C70280911A02082BC7E026
:101A8000D0E010E0FC2EC8010C2E02C09595879581
:101A90000A94E2F780FD0CC02197A0F7F12C8F2D5E
:101AA000DF91CF911F910F91FF90DF90CF9008951C
:101AB000B6018C2F0E94240D0E946007019761F3EC
:101AC000EECFCF93DF93EC010E94320DBE010E9456
:101AD000240D0E946007DF91CF910895FC01808161
:101AE00091810E94610D92959F70963091F058F40B
:101AF000925F9F70923058F4803F19F030F4883E26
:101B000030F481E008959A5FF4CF843FD1F380E010
:101B10000895883EB0F3813FD1F7F3CF83E290E0A0
:101B20000E94EE28823289F484E290E00E94EE283E
:101B3000843059F485E290E00E94EE2891E08230F2
:101B400009F090E0892F8170089580E0FCCFCF9359
:101B500084E090E00E94EE28C82F82E290E00E948C
:101B6000EE28982F8C2FCF910895B0E0A0E0EBEBFA
:101B7000FDE00C944328FC016280448081E0848372
:101B8000E3E5F3E07490E2EDF3E0E491C5E7D2E041
:101B90003DE5E32E32E0F32E4DE9C42E42E0D42E93
:101BA00052E0A52EBB24B39488248A94912C55240A
:101BB0005A94E7190E2F10E082E0861530F08091DC
:101BC0009E02888380919F028983411016C01B82E8
:101BD0001A8297014A81698188810E94320525967F
:101BE00083E0E80EF11CCC16DD0631F70E941B0ADB
:101BF000CDB7DEB7E0E10C945F288B818823E9F054
:101C000081508B83859DC00111246C8170E00E94FE
:101C1000FD27FB01FF27ED5AFC4F8491E82FE719C0
:101C2000E59DC0011124B8010E94FD278091A0020A
:101C3000689FB00111247A83CCCF0E94C4282091E0
:101C4000A002269521582A9DA0012B9D500D1124FC
:101C5000452F5527841795070CF0BBCF82E08615DA
:101C600088F40E94C428B4010E94112888830E942D
:101C7000C42820919F022695622F70E00E941128AF
:101C8000280F29831A828091A002893C20F088ECD9
:101C90008C838B839ECF8431D8F784E1F9CFCF92A8
:101CA000DF92EF92FF926B017C010E942305B70146
:101CB000A60188E090E00E941429FF90EF90DF9049
:101CC000CF900895A3E0B0E0E8E6FEE00C9446284B
:101CD000182FD62E042FC22E90919D0290FF29C05E
:101CE000E92FE695AE2FB0E0AC57BE4F8C918093B4
:101CF00058029E7F923009F59E012F5F3F4F812F42
:101D00000E9432054B8169818A810E94D80B109311
:101D10009E02D0929F020093A002CC2051F06091CD
:101D20009D0270919E0280919F029091A0020E945C
:101D30004F0E2396EDE00C946228823019F4009146
:101D4000A002E5CF863019F410919E02E0CF8930D1
:101D5000D9F38931E1F6E9512E2F2170722EE695E3
:101D6000F0E0E25BFC4F8590949099243DE5E32EF2
:101D700032E0F32EB12CA12CC50123E09695879576
:101D80002A95E1F7711013C0810F9701402F6D2D37
:101D90000E943205A80CB91C83E0E80EF11C25E76F
:101DA000E21622E0F20641F70E941B0AB0CF212F73
:101DB000281B822FEACFEDE9F2E0438121E1421BAB
:101DC00008F440E021E0628181810E94620E089562
:101DD000EDE9F2E0438121E1420F08F44FEF21E009
:101DE000628181810E94620E0895EDE9F2E06281D4
:101DF00021E1621B08F460E021E0438181810E94BF
:101E0000620E0895EDE9F2E0628121E1620F08F4CB
:101E10006FEF21E0438181810E94620E0895EDE918
:101E2000F2E0818121E04381628188500E94620E4C
:101E30000895EDE9F2E0818121E043816281885FCC
:101E40000E94620E08958091A102882319F08150AA
:101E50008093A10260919D0270919E0280919F02E9
:101E60009091A0020E944F0E08958091A1028330AC
:101E700018F48F5F8093A10260919D0270919E0281
:101E800080919F029091A0020E944F0E0895909120
:101E90009D0290FF2CC0917081112AC09260909396
:101EA0009D02662351F060919D0270919E02809187
:101EB0009F029091A0020E944F0E60919D02669534
:101EC00070E04BE050E081E191E00E94D428892B42
:101ED000B1F01092590281E08093550220E04091C8
:101EE000A00260919F0280919E020E94620E08955E
:101EF0008B3210F09465D3CF880F982BD0CF81E030
:101F0000809359020E94BD04909353028093520221
:101F1000E2CF80919D028695815009F48AE261E0CA
:101F20000E94470F089580919D0286958F5F8B32A6
:101F300008F081E061E00E94470F089590919D02B2
:101F400090FF08C09695981728F0961718F40E94ED
:101F5000930F089561E00E94470F0895EDE9F2E0C4
:101F600083E0808311828FEF828383831482608178
:101F70007181828193810E944F0E08958091180291
:101F800090911702892B8093C00190911902992397
:101F900091F0892B8093C00120E082EC91E0FC015C
:101FA0003191CF0131112F5FF1E0883C9F07B9F7E4
:101FB00021110E94E80848E050E06FE072E080ECF8
:101FC00091E00E94E128892BA9F088E0E0ECF1E0A3
:101FD000AFE0B2E001900D928A95E1F7E091A402A2
:101FE000F091A502309731F00280F381E02D80EC72
:101FF00091E00995089590E080E00E94F90490E056
:1020000080E00E94E304109217020E94BE0F86E057
:10201000ECE4F2E0DF011D928A95E9F710924602A6
:1020200010924502109247020E94C80508958093BD
:10203000C7020E94FB0F08958091C702982F9670E7
:10204000963021F488600E9417100895877FFBCF97
:1020500021E030E001C0220F8A95EAF720958091B7
:10206000C70282230E941710089590910E02809556
:10207000892380930E02282F277091F4282F082E91
:10208000000C330B9217130659F090912A0292FF1D
:1020900007C08595859585950E94281010920E029F
:1020A0000895CF93C0912A02C2FB992790F99817FF
:1020B00091F080FBC2F9C0932A026091290284E06A
:1020C00090E00E9402296C2F82E290E00E94022997
:1020D00082E00E943510CF91089521E030E001C0E8
:1020E000220F8A95EAF78091C702822B0E9417106F
:1020F000089580931A020E94FB0F0895882321F00F
:102100000E94EE080E94BE0F0895882339F0909136
:102110001802982B909318020E94BE0F08958823EE
:10212000C9F19CEF980F913A78F4E2ECF1E09191CB
:10213000891303C0DF0111971C9291E0E83CF90775
:10214000B1F70E94BE0F089590E2980F983050F4B6
:10215000877091E001C0990F8A95EAF7892F0E9454
:10216000EE08EFCF9BE5980F933028F490E080E0E5
:102170000E94F904089598E5980F973128F490E0AB
:1021800080E00E94E3040895803F20F00E94EF0564
:102190000E94C8050895CF93C82F8823B1F08CEF13
:1021A0008C0F813A00F5E2ECF1E088EC91E0DF0180
:1021B0002D91C21761F08A179B07D1F76C2F80EC25
:1021C00091E00E94C9040E94BE0FCF910895219111
:1021D000C21303C0DF0111971C928E179F07B9F736
:1021E0000E94BE0FEBCF80E28C0F883068F4C7707E
:1021F00021E030E001C0220FCA95EAF78091180271
:10220000822B80931802DFCFEBE5EC0FE33040F434
:10221000F0E0E05EFE4F808190E00E94F904D5CFAF
:10222000E8E5EC0FE73150F4F0E0EE0FFF1FED5D55
:10223000FE4F808191810E94E304C7CFC03F28F206
:102240008C2F0E94AA060E94C805BFCF1F93CF9370
:10225000DF93182FD0E0C0E0893311F4C0E5D0E05F
:10226000812F0E94CB10209739F4812F0E948F106C
:10227000DF91CF911F9108958FE99FE00197F1F7CA
:1022800000C000002197EFCF0F931F93CF93DF93F0
:10229000C62FD42F022FFC0182818823A9F06093DE
:1022A000CA020E94BD049093C9028093C802C770FD
:1022B00081E001C0880FCA95EAF70E948510DF917E
:1022C000CF911F910F9108958091CA02681332C077
:1022D0008091C8029091C9020E94AE04883C910589
:1022E00048F510E21D0FCD17B9F080E28C0F883051
:1022F00040F4C77081E001C0880FCA95EAF70E94D8
:102300007E10183048F481E09D2F977001C0880F2F
:102310009A95EAF70E948510802F0E9426111830A6
:1023200070F6D77081E001C0880FDA95EAF70E9455
:102330007E10C5CFC77081E001C0880FCA95EAF74B
:10234000F6CF68EE7EEF90E080E00E94202960E00A
:1023500082E090E00E94022960E083E090E00E9429
:10236000022910921A0260E084E090E00E940229A3
:1023700064E082E290E00E94022960E085E090E063
:102380000E94022960E086E090E00E9402296FEF3F
:1023900087E090E00E94022940E050E0BA0188E026
:1023A00090E00E94142960E08DE090E00E940229F4
:1023B00040E050E0BA0188E190E00E94142960E01A
:1023C00087E190E00E94022940E050E0BA018CE1F0
:1023D00090E00E94142970E060E080E290E00E94AA
:1023E000202940E050E0BA0188E190E00E941429E1
:1023F00080E00E94CC0C0E94E50C40E050E0BA0165
:102400008FE090E00E94142940E050E0BA0183E19F
:1024100090E00E941429089510921802E2ECF1E075
:1024200086E0DF011D928A95E9F70E94FB0F08956F
:10243000AAE2B0E0EEE1F2E10C9450288FEB92E0DA
:102440002091F100DC012D93CD01B2E0873C9B0788
:10245000B9F78091C002833009F472C0B8F48130BA
:1024600009F449C0823009F4B3C08091E80083FFC9
:102470008BC28091BF029091C0029A3008F084C252
:10248000E92FF0E0E758F64D0C9425288A3009F43E
:102490008EC08B3009F471C0893039F78091BF024A
:1024A000813219F78091C3029091C402009711F014
:1024B0000297D9F68091E800877F8093E8008091A9
:1024C000E80082FF38C09091F3008091F2000297FB
:1024D00031F48091F100813011F0863021F4809147
:1024E000F1008093B2028091E8008B778093E8003E
:1024F0000E94A003BACF8091BF02813A09F0B5CF04
:102500008091E800877F8093E8008091C3029091DA
:10251000C402892B61F468E083EB92E070E00E94D2
:102520004C048091E8008B778093E8009ECF60E0B8
:1025300090E080E0F3CF8091BD028111C0CF95CFB4
:102540008091BF02813A09F090CF8091C3029091AF
:10255000C402892B09F089CF8091E800877F80939E
:10256000E8008091E80080FFFCCF80911F018093FC
:10257000F1008091E8008E77B9CF8091BF0281325F
:1025800009F073CF8091C3029091C402892B09F0A6
:102590006CCF8091E800877F8093E8000E94A003C1
:1025A0008091C10280931F010E940C125ECF809126
:1025B000BF02813209F059CF8091E800877F809374
:1025C000E8000E94A0038091C2028093B1024DCF27
:1025D0008091BF02813A09F048CF8091E800877F5F
:1025E0008093E8008091E80080FFFCCF8091B102E9
:1025F000BECF803899F0823809F0C6C18091C302FD
:102600008F70873008F0C0C18093E9008091EB00A3
:1026100085FB882780F91092E90006C08091BB02F3
:102620009091BC02911182609091E800977F909305
:10263000E8008093F1001092F1008091E8008E771D
:102640009FC1882309F48DC1823009F09DC180911A
:10265000C102811190C18091C3028F702FEF280FAA
:10266000263008F091C18093E9002091EB0020FF13
:1026700082C1933031F48091EB0080628093EB0053
:102680007AC19091EB0090619093EB0021E030E0F3
:1026900001C0220F8A95EAF72093EA001092EA001F
:1026A0008091EB008860EACF81116EC11091C10268
:1026B0001F778091E3008078812B8093E3008091E5
:1026C000E800877F8093E8000E94A0038091E800E3
:1026D00080FFFCCF8091E30080688093E30082E07C
:1026E000111183E08093BD024FC18058823008F001
:1026F0004BC12091C1023091C2022C3DE3E03E0764
:10270000A1F583E08A838AE289834FB7F894DE01DA
:10271000139620E03EE051E2E32FF0E050935700A3
:10272000E49120FF03C0E295EF703F5FEF708E2FC2
:1027300090E0EA30C0F0C7968D939D932F5F2431CF
:1027400059F74FBF8091E800877F8093E8006AE2E5
:1027500070E0CE0101960E944C048091E8008B77D6
:102760008093E80011C1C096E7CF8091C302909199
:10277000C402432F55274330510509F44AC078F568
:102780004130510509F47AC08BE590E0E3E4F5E0CF
:102790004230510509F0F8C02091E800277F2093CE
:1027A000E8002091C5023091C6028217930708F411
:1027B0009C0140E02115310509F065C0411163C05D
:1027C0008091E80082FDC9CF8091BD02882329F263
:1027D000853019F28091E80083FFF2CFBECF4132FD
:1027E000510509F43CC04232510509F0CDC0833097
:1027F000910508F0C9C0FC01EE0FFF1FEE54FE4F1B
:102800000190F081E02D81559E4FDC018C9190E08C
:102810001AC0332721303105D1F02115310561F07F
:102820002230310509F0B0C0E0EBF5E0E4918E2FE5
:1028300090E0E0EBF5E007C0E4EDF5E0E4918E2FE9
:1028400090E0E4EDF5E0009709F49EC0A5CFE0EC40
:10285000F5E0E4918E2F90E0E0ECF5E0F4CF8330EA
:10286000910508F091C0880F991FFC01E854FE4FB4
:102870000190F081E02D89E090E08ECF82E190E040
:10288000EEE9F5E089CF8091BD02882309F465CF98
:10289000853009F462CF8091E80083FD5ECF80919E
:1028A000E80082FD8DCF8091E80080FF83CF90917A
:1028B000F3008091F2002115310519F0883091055F
:1028C00050F041E0089709F040E08091E8008E77F1
:1028D0008093E8006FCF44914093F10031962150EE
:1028E00031090196E8CF803809F04EC08091E800A8
:1028F000877F8093E8008091BE028093F1009DCE97
:10290000811142C01091C1021230F0F58091E800AF
:10291000877F8093E8001093BE020E94A0031123DA
:1029200011F084E005C08091E30087FDFACF81E0DB
:102930008093BD0242E061EC81E00E94BF0342E26D
:1029400061EC84E00E94BF0342E261EC82E00E94FD
:10295000BF0342E260EC83E00E94BF038091BD02AE
:1029600013C08091C102813079F481E0933009F085
:1029700080E08093BC021092E9008091E800877F9C
:102980008093E8000E94A0038091E80083FF0AC0C2
:102990008091E800877F8093E8008091EB0080625F
:1029A0008093EB00AA96E3E00C946C286F927F92E0
:1029B0009F92AF92BF92CF92DF92EF92FF920F93CE
:1029C0001F93CF93DF9300D000D00F92CDB7DEB727
:1029D0008E010F5F1F4F85E0F80111928A95E9F78C
:1029E00091E5E92E91E0F92E99249394CC24C39497
:1029F000D12C3CE5A32E31E0B32EF70181917F016C
:102A00008F3F09F447C0F894E82FE295EF70F0E0AB
:102A100021A18F70A60102C0440F551F8A95E2F7CD
:102A2000CA01922F982B91A392A18095892382A30A
:102A3000789400C087E5682E81E0782ED801692D52
:102A40006095F30191913F018D919D0121503109D4
:102A50009F3F09F464C0492F42954F7050E0FA013E
:102A600040A150E09F7002C0559547959A95E2F7B6
:102A700040FD55C08929F9018083A614B70409F7E0
:102A8000F701319780818F3F11F00E940607F0EA2D
:102A9000FA95F1F7990C27E5E21621E0F20609F024
:102AA000ACCF45E050E0B80184E292E00E94E1281A
:102AB000FF24F394009709F4F12C892B91F185E020
:102AC000F801A4E2B2E001900D928A95E1F781E06D
:102AD00080931D020E94BD0490931C0280931B02F0
:102AE00080911B0290911C020E94AE040597E8F0B1
:102AF00080912402809340028091250280934102BC
:102B000080912602809342028091270280934302A3
:102B1000809128028093440210921D0206C08623F1
:102B2000AACF80911D028111DBCF809104018823FF
:102B300021F00E947427811114C08F2D0F900F90E7
:102B40000F900F900F90DF91CF911F910F91FF90F9
:102B5000EF90DF90CF90BF90AF909F907F906F905D
:102B600008950091230210E00E944C27F801E25ED4
:102B7000FD4F808380912302811108C090911E0235
:102B80009936B9F68F5F80932302D3CF8430D1F783
:102B900030E020E08EE192E0FC014191CF01240F72
:102BA000311DF2E082329F07B9F780911E0289360B
:102BB00091F48091220282130EC080911F029091A5
:102BC00020028F3E2FEF920730F420912102222322
:102BD00029F00E94CB1010922302ABCF0E948F10DD
:102BE000FACF90E080E00E94FC28883E9E4F19F4C6
:102BF0000E948E0D089580E00895A5E0B0E0E3E026
:102C0000F6E10C9442288C01FC0183819481892B8C
:102C100031F08081918189238F3F09F09FC52596EE
:102C2000E1E10C945E280E94320DF82E682F898114
:102C30009A810E94330969817A818F2D0E94240D27
:102C40007C01F8018281882309F40EC59701225185
:102C50003F452031310508F073C58FEF93E00E94A6
:102C6000EE28811128C0FEEEEF0E57E1852E992443
:102C70009394E11032C01C821B82442443944AE0A6
:102C8000342E74014FEFE41AF40AC4010E94EE28B6
:102C900089831A82882379F09FEF980F933058F533
:102CA0008A83498282E0880E911CC7010E94EE2827
:102CB0008B83811121C080910E02877009F4AFCF00
:102CC000F8018281882309F4AACF80912A0282FF29
:102CD000A6CF82E00E943510A2CF811424E0920694
:102CE00051F3C4010E94EE28811101C0EA943FEF24
:102CF000831A930ABECF4701FE0131967F01F70187
:102D00002081222309F4BDCF213009F047C09181F1
:102D10008281913031F4F2E0EF0EF11C0E94261115
:102D200007C0923049F422E0E20EF11C0E94CB1061
:102D30003FEFE31AF30AE3CF933031F432E0E30ECE
:102D4000F11C0E948F10F4CF943021F04FEFE41A61
:102D5000F40AEECF92E0E90EF11C30E020E0B7017A
:102D60006F5F7F4FF70141818053990B8A30910546
:102D700050F021503109E0F28FE99FE00197F1F71F
:102D800000C00000F6CF329EF001339EF00D1124FA
:102D90009C012E0F3F1F842F7B01E1CFE22FF0E03B
:102DA000E754FE4F5490822F86958695869590E045
:102DB000FC01E755FE4F64902770712C022E02C073
:102DC000759467940A94E2F7E1E06E227724FC019F
:102DD000E756FE4FA490B12C022E02C0B594A794E2
:102DE0000A94E2F7F1E0AF22BB24FC01E757FE4F63
:102DF000C490D12C02C0D594C7942A95E2F721E063
:102E0000C222DD246114710419F081EE0E94CB10FE
:102E1000A114B10419F086EE0E94CB10852D0E94FA
:102E20002611A114B10419F086EE0E948F106114CE
:102E3000710419F081EE0E948F10C114D10409F4BD
:102E400077CF8CE26BCF81E00E946D1003C081E0F0
:102E50000E9428100E941C102ECF82E0F9CF43EF71
:102E6000E4164CE5F40609F482C0C0F498EDE916C6
:102E70009CE5F90609F477C0E9EDEE16ECE5FE06EF
:102E800009F485C0F7EDEF16FCE5FF06A9F426E28C
:102E900041EE61EEC8010E9444110DCF25EFE2160C
:102EA0002CE5F20609F46BC008F465C046EFE416A1
:102EB0004CE5F40609F467C0F8018281882309F41F
:102EC0005EC41092CA02F3E0EF16FDE5FF0608F0BB
:102ED00061C02AEFE2162CE5F20630F4C7018250F9
:102EE0009C45449708F062C00E94A70D90932A0267
:102EF0008093290281E1E8168CE5F80609F43CC1CB
:102F000008F0B1C0E9E0EE16ECE5FE0609F422C1D6
:102F100008F07AC025E0E2162CE5F20609F412C1A9
:102F200008F05CC043E0E4164CE5F40609F400C187
:102F300008F004C180912902816092E0E9169CE5C5
:102F4000F90609F4F8C060912902F0902A0284E0A1
:102F500090E00E9402296F2D82E290E00E940229F7
:102F60000E940C12A8CE27E245EE65EE93CF26E232
:102F700041EE60EE8FCF27E245EE64EE8BCF26E286
:102F800041EE62EE87CF27E245EE66EE83CF28E280
:102F900041E0EBCF31E6E3163DE5F30609F4A4CFBB
:102FA00045EAE4164DE5F40609F49ECF36E1E31652
:102FB0003CE5F30609F0FCC3809118028A7A91E09F
:102FC00009F490E09093C90169E2811165E380EC16
:102FD00091E00E94C9040E94BE0F6DCE809129022B
:102FE0008062E7E0EE16ECE5FE0609F4A4C08091ED
:102FF00029028061F8E0EF16FCE5FF0608F49BC0AB
:1030000080912902806497C0809129028B7F2DE0F6
:10301000E2162CE5F20609F48EC078F480912902BC
:103020008E7F4BE0E4164CE5F40609F484C008F406
:1030300097C0809129028D7F7EC0809129028F7E6A
:103040009FE0E9169CE5F90609F475C08091290214
:10305000877FE0E1EE16ECE5FE0608F46CC0809197
:1030600029028F7D68C0FDEFEF16FCE5FF0609F42D
:103070007FC060F535E1E3163CE5F30609F48EC048
:1030800088F483E1E8168CE5F80609F47FC008F4BB
:1030900077C00E940C1290912902892F97FB87F923
:1030A000805849C0EBEFEE16ECE5FE0609F44EC081
:1030B00008F05AC080912A0281602AEFE2162CE5BE
:1030C000F20609F040CF80932A023DCF31E0E316AB
:1030D0003DE5F30609F46EC0B8F48FEFE8168CE511
:1030E000F80609F457C080912A028360E1149DE537
:1030F000F90648F380912A02982F909591708E7F5F
:10310000892B90FB81F9DFCFE1E6EE16EDE5FE06B7
:1031100009F456C0F5EAEF16FDE5FF0609F457C0BD
:1031200022E0E2162DE5F20609F00DCF60E043C083
:103130008091290282608093290205CF8091290223
:103140008460F9CF809129028860F5CF80912A02AE
:103150008260B9CF0E940C12809129028068EBCF67
:10316000809129028C60E7CF80912A028E7FABCFBD
:1031700080912A028D7FA7CF809129028F7BDBCFA0
:103180000E940C12809129028F77D5CF809129025D
:10319000837FD1CF80912A028C7F95CF80912902A5
:1031A00082FB992790F921E0922790FB82F990FB0E
:1031B00083F9C1CF61E08EE090E00E940229C3CE86
:1031C00090912902892F8F7E94FF8061B4CF9091D6
:1031D0002902892F8E7F90FF8160ADCF85E3DAC20F
:1031E000816080939D0261E086950E94470F63CDC8
:1031F00049E85FE063E97FE00E941C055CCD43E99C
:103200005FE069E87FE0F8CF49E15FE06FE07FE0F1
:10321000F3CF45EF5EE062E07FE0EECF4BED5EE0A6
:1032200068EE7EE0E9CF48EE5EE06BED7EE0E4CF55
:1032300045E35FE063E27FE0DFCF61E081E0D5CF8F
:1032400065E082E00E949E0F36CD68E086E0FACF0E
:1032500064E18FE0F7CF67E185E1F4CF62E289E1D5
:10326000F1CF61E083E2C1CF0E940C12EFEFF4E3F3
:103270002CE0E150F0402040E1F700C000005EC2C9
:1032800081E0BCC280E0BAC2C7010E94FF08D82E0C
:10329000C6C22F2D2F70C22E8F2D807F19F0C294A1
:1032A00090EFC922DD20B9F0CC2069F080E28E0DCC
:1032B000883010F0811009C080911802C82AC0928D
:1032C00018020E94BE0F8E2D4CC080911702C82A92
:1032D000C0921702F6CF8E2D0E948F10CC2009F4D9
:1032E00042C080E28E0D883010F0811004C08C2D19
:1032F0000E94EE0806C0C09480911702C822C092B6
:1033000017020E94BE0F2FC03F2D3F70C32E8F2D7E
:10331000807F803219F0C29480EFC822882089F023
:1033200041E0841609F469C0DD2009F473C0BB20B4
:1033300009F469C0F801858180FFC5CF8F7085834E
:1033400062C020912A0222FD36C0DD2071F1CC201E
:1033500039F080911802C82AC09218020E94BE0F4C
:1033600080E00E94CB10E92DE850FF0B349720F449
:103370000E940F050E947109AA2009F450CC809187
:103380000E0280FD4CCCF8011282859585958595BD
:103390000E946D10C8010E94FD1580910E02859556
:1033A000859585950E9428103ACC80E00E948F1068
:1033B000CC20C9F29CCFDD2099F090911902892F81
:1033C0008C29B11003C00E948510CDCFE1E0BE1260
:1033D000FACF22FFC8CF981731F280931902C3CFDA
:1033E000B11006C00E94E8088C2D0E947E10BBCF51
:1033F000F1E0BF1609F4B7CFF5CFDD2031F025E0BD
:103400002B1508F4B0CF8C2DDECF34E03B1508F43B
:10341000AACFEACFBB2041F3F9E38F121EC12FEFF1
:1034200037EE43E0215030404040E1F700C000005B
:1034300014C18F2D86958695837061F0813009F0D7
:1034400092CFC7019370D11002C090E080E00E943B
:10345000E30489CFC7019370D11002C090E080E0EF
:103460000E94F90480CF8E2DDD2029F00E94AA064B
:103470000E94C80578CF0E94EF05FACF8F2D837088
:1034800091F5D11070CF4E2D429546954770440F5F
:10349000440F8E2D8F70042E01C0880F0A94EAF716
:1034A0002E2D2071E4FE07C02FE030E001C0220F76
:1034B0004A95EAF720953F2D369536953370323090
:1034C00069F050F440911A02313029F0822B8423A4
:1034D0000E94791048CF842B822BFACF282B809121
:1034E0001A028227F5CF8695DD2011F08F2D81708D
:1034F000882309F438CF4E2D429546954770440FE6
:10350000440F8E2D8F70042E01C0880F0A94EAF7A5
:103510002E2D2071E4FE07C02FE030E001C0220F05
:103520004A95EAF720953F2D36953695337032301F
:1035300069F050F44091C702313029F0822B842386
:103540000E94171010CF842B822BFACF282B80914A
:10355000C7028227F5CF8F2D8F70F82EDD2021F046
:103560000E946D108E2D2FCF8E2D0E947E108F2DDC
:103570000E942810F8CE8E2D92EF8916B1F1981581
:1035800070F0E0EF8E16D1F0F1EF8F1691F0DD20A4
:1035900009F45EC0B11097CE8F2D8F712AC023EF32
:1035A000821651F134EF8312F2CF80912A0282FD0C
:1035B0002FC08F2D8F71DD20D9F21BC0DD2081F04F
:1035C00044E04B1508F4CFCE2F2D2F7181E090E011
:1035D00001C0880F2A95EAF79091C7028927B0CFDA
:1035E00085E08B1508F4BFCEEFCF8F2D8F71D110F2
:1035F000BFCF0E946D10B7CE80E0DD2009F4A0CFD0
:103600009F2D9F7181E001C0880F9A95EAF798CFAE
:10361000DD2099F09F2D9F71F92E892F0E946D104A
:1036200080912A0282FF07C0E8E0FE9EC0011124BB
:10363000836080930E028F2DDCCF81E00E943510D5
:10364000F1E0FB1508F08FCE82E00E9435108BCEA2
:10365000BB2039F0893309F4E2CE8E2D0E948F1001
:1036600082CE8F2D8F7184CFF0E1EF16FFE5FF063C
:1036700009F4EDCB21E1E2162FE5F20609F4EDCBDA
:1036800090910401911129C09701215031092E3FD9
:10369000310528F04FEEE4164FEFF406F0F099E60E
:1036A00090931E02F0922002E0921F02809321026A
:1036B00030E020E08EE192E0FC014191CF01240F47
:1036C000311DF2E082329F07B9F72093220265E0B4
:1036D00070E08EE192E00E9460278091C801811124
:1036E0000EC0F8018281882351F00E940F0580FDF1
:1036F00003C083E50E94CB1081E08093C801E114F0
:10370000FCE5FF0609F0ABCBF8018281882309F4C0
:10371000D2CA81E00E946A0980919D028E7F8093C7
:103720009D0210925902FFEF20E732E0F150204055
:103730003040E1F700C000000E941B0A0E94F70918
:1037400030E1E3163FE5F30609F47DCB41E1E416F1
:103750004FE5F40609F094CF82E076CB85E0DE01F8
:10376000119601900D928A95E1F7F80122818981E5
:103770009A81211158CA0E94FF08F82E5CCAF6E10E
:10378000EF16FCE5FF0609F083C08091C9018111A5
:1037900025CD89E2E2ECF1E028EC31E0919189134A
:1037A00003C0DF0111971C922E173F07B9F713CC06
:1037B0002AE5E2162DE5F20609F462CD68F4E1147B
:1037C0004CE5F40609F450CD8EEDE8168CE5F806CC
:1037D000B9F40E94A1116FCA9BE5E9169DE5F906AF
:1037E00009F450CDECE5EE16EDE5FE0649F48091C6
:1037F0002A0282FB882780F991E089270E945110D4
:10380000F8018281E080F180882309F43DCDC70171
:103810000E94320DD82E682FC7010E943309B701CC
:103820008D2D0E94240D0E9460077C01882EF801D6
:10383000D280B580B2943FE0B32280910E028770AF
:10384000C1F0AD2CDD20B1F08F2D807F803421F0D0
:1038500080E28E0D883068F080912A0282FF09C0D4
:1038600082E00E94351080910E028770AA24A394F2
:103870008111A12C9F2C92942FE09222FBE0F9154C
:1038800008F471CDE92DF0E0ED57F64D0C942528A4
:10389000809118028272FCECEF16FCE5FF0609F439
:1038A000C7CC08F06DC036ECE3163CE5F30609F42E
:1038B000ABCCE8F593ECE9169CE5F90609F498CC55
:1038C00028F5F2ECEF16FCE5FF0609F099CF8091A0
:1038D0009D0280FF85CC8E7F80939D0260919D022A
:1038E00070919E0280919F029091A0020E944F0EC3
:1038F000109259024FEF80E792E041508040904093
:10390000E1F700C000000E941B0AD5C924ECE216B2
:103910002CE5F20609F473CC4FE05FE069E17FE04B
:1039200035ECE3163CE5F30609F466CC69CF49ECC7
:10393000E4164CE5F40609F471CC88F4E7ECEE16D5
:10394000ECE5FE0609F465CC42E05FE065EF7EE061
:10395000F8ECEF16FCE5FF0609F44ECC51CF2AEC4B
:10396000E2162CE5F20609F45ECC43E25FE065E383
:103970007FE03BECE3163CE5F30609F43DCC40CF99
:1039800041EDE4164CE5F40609F462CCB8F49EEC83
:10399000E9169CE5F90609F453CC08F44ECCFFEC8B
:1039A000EF16FCE5FF0609F450CC6EE089E020ED4F
:1039B000E2162CE5F20609F445CC22CF34EDE316ED
:1039C0003CE5F30609F44ACC78F482EDE8168CE580
:1039D000F80609F440CC61E088E193EDE9169CE536
:1039E000F90609F402CC0CCFE5EDEE16ECE5FE0687
:1039F00009F437CC6AE285E2FDE5EF16FF0609F42B
:103A000021CCFECE1F93CF93DF938091DB01807F8B
:103A100009F049C08091D801882309F444C08091FD
:103A20000D02D091DC016091D6017091D701A09177
:103A3000D901B091DA01C62FC72316E0D81799F142
:103A400090E0109711F0CF3F19F401968770F6CFF0
:103A5000189F9001199F300D1124F901E352FE4F78
:103A600041814713F2CF40814613EFCF428141118C
:103A7000ECCF438154814A1B5B0B483C510528F72E
:103A80008091DB018F7080618093DB01F901EE5141
:103A9000FE4F80818F708061808386ED91E00E946F
:103AA000FD150E94F508DF91CF911F910895A1E1C6
:103AB000B0E0EDE5FDE10C9449288C0185E0F801CA
:103AC000DE011D9601900D928A95E1F7F801E280E2
:103AD00086EDA82E81E0B82E6091D9017091DA01AF
:103AE0006115710509F426C19091D6014091D70165
:103AF000892F84238F3F09F41DC120813181C38028
:103B0000D480F090D801F601E61BF70BFF2009F4F2
:103B1000DCC08091DB01582F507FE83CF10508F0B4
:103B20009FC051116BC0FE2C431314C0921312C0DE
:103B3000E11010C08F7080618093DB01C5010E948D
:103B4000FD158091DB01F80185838F2D6196EAE0F8
:103B50000C946528C114D10429F0822F83238F3F50
:103B600009F003C180E0F82FF170DF2E80FF3CC028
:103B700080910D024091DC0156E0841315C02D8721
:103B80003E878D859E850E94610D292F22952F707D
:103B90002230F0F0243018F59F70F1F0F801958193
:103BA000907FD1F4D12C1EC090E0589FF001599F16
:103BB000F00D1124E352FE4F6181361306C060817F
:103BC000261303C06281E6120FC001968770D5CF1D
:103BD0009F7011F0882331F3805E883018F3C8019C
:103BE0000E94FD15FD2CB1CFEE2009F4AECF8091DF
:103BF000DB0181608093DB01F12CA7CF431306C06A
:103C0000921304C0F801EE2009F479C0C8010E94A3
:103C10006E0D882309F1EE20F9F08091DB018032EE
:103C200070F02091D6013091D70138872F83198603
:103C3000DB86CA868C87CE0107960E94FD1586E03A
:103C4000F801A6EDB1E001900D928A95E1F70E948E
:103C5000021DFF24F39479CFC8010E94FD15F9CF0E
:103C600051110AC086ED91E00E94FD1586E0F50134
:103C700011928A95E9F7C0CF43130FC092130DC07C
:103C8000E1100BC0F8018583C8010E94FD1586E094
:103C9000F50111928A95E9F758CFC8010E946E0D7F
:103CA0008823D1F2EE20C1F28091DB01803238F21C
:103CB0002091D6013091D7013A8329831B82DD827E
:103CC000CC828E83CE010196B8CFE83CF105F8F6A0
:103CD000FE2CEE2009F243131FC092131DC08091E9
:103CE000DB0180FD10C0982F907F69F0F80185837B
:103CF000903F31F0982F907F905F8F70892B858354
:103D0000C8010E94FD1586E0F801A6EDB1E0019022
:103D10000D928A95E1F719CFC8010E946E0D8111AD
:103D20008ECF8091DB0181608093DB01C8010E940E
:103D3000FD150BCFEE2009F48FCFC8010E946E0D48
:103D4000F82E882309F488CF86E0F801A6EDB1E0CB
:103D500001900D928A95E1F78091D6019091D7015B
:103D60000E94610D0E94021DF0CE81E08E25FBCEE7
:103D7000A7E1B0E0EEEBFEE10C9450284B8B5C8B9E
:103D80006D8B7E8B8F8B6111109217021A8A198AA4
:103D900085E0FE017396DE011D9601900D928A95D5
:103DA000E1F786E0FE013D96DE01179601900D9247
:103DB0008A95E1F7CE0107960E94571D811112C026
:103DC00086E0FE013796DE01119601900D928A95EC
:103DD000E1F78A859B85892B29F088859F81892336
:103DE0008F3F81F516E080910D029091DC018913DF
:103DF00017C06796E3E00C946C2896E0929FD00180
:103E0000939FB00D1124A352BE4FFE013196019035
:103E10000D929A95E1F78093DC010E94F508E2CFBC
:103E2000819FC001112483529E4F0E94571D8823F9
:103E300001F380910D0290E001968770992780939D
:103E40000D02D1CF2091DC0130E0C90101968770CD
:103E5000992740910D024817190679F60E940C1215
:103E60001092DC0110920D0286E0E6EDF1E0DF0138
:103E70001D928A95E9F7B6CFAAE0B0E0E2E4FFE14F
:103E80000C944F28182F092F1F830E8381E08887F9
:103E90000E94BD048160782F9A8789874E815F8157
:103EA00068858A850E94B81E1A8309831B820E9436
:103EB000BD048160782F9D838C8349815A816B81F9
:103EC0008D810E94B81E2A96E4E00C946B281F9204
:103ED0000F920FB60F9211242F933F934F935F933E
:103EE0006F937F938F939F93AF93BF93CF93DF9302
:103EF000EF93FF93D091E900DF708091EC00C82F21
:103F0000C17080FDC0E81092E9008091F000877FC9
:103F10008093F00078940E9418121092E90080912A
:103F2000F00088608093F000CD2BCF70C093E90043
:103F3000FF91EF91DF91CF91BF91AF919F918F91C1
:103F40007F916F915F914F913F912F910F900FBE95
:103F50000F901F9018951F920F920FB60F92112479
:103F60002F933F934F935F936F937F938F939F9381
:103F7000AF93BF93EF93FF938091E10082FF09C05D
:103F80008091E20082FF05C08091E1008B7F8093E9
:103F9000E1008091DA0080FF24C08091D80080FF8A
:103FA00020C08091DA008E7F8093DA008091D90062
:103FB00080FF9DC080E189BD82E189BD09B400FE1A
:103FC000FDCF81E08093BD028091B002811109C0D4
:103FD0000E9426030E94F1038091E2008460809396
:103FE000E2008091E10080FF17C08091E20080FF35
:103FF00013C08091E2008E7F8093E2008091E20006
:1040000080618093E2008091D80080628093D80024
:1040100019BC85E08093BD028091E10084FF2BC034
:104020008091E20084FF27C080E189BD82E189BDE3
:1040300089B5982F917080FFFBCF8091D8008F7D3C
:104040008093D8008091E1008F7E8093E100809181
:10405000E2008F7E8093E2008091E2008160809395
:10406000E2008091BE02882309F447C084E0809377
:10407000BD028091BD028091E10083FF27C0809145
:10408000E20083FF23C08091E100877F8093E100FD
:1040900082E08093BD021092BE028091E1008E7F8B
:1040A0008093E1008091E2008E7F8093E200809116
:1040B000E20080618093E20042E060E080E00E94E4
:1040C000BF038091F00088608093F000FF91EF9132
:1040D000BF91AF919F918F917F916F915F914F9120
:1040E0003F912F910F900FBE0F901F90189519BC04
:1040F0001092BD021092B00274CF8091E30087FD50
:1041000093E09093BD02B5CF78941F921FB61F9293
:1041100011248F939F93AF93BF938091A9029091A5
:10412000AA02A091AB02B091AC020196A11DB11DF3
:104130008093A9029093AA02A093AB02B093AC0221
:10414000BF91AF919F918F911F901FBE1F901895A7
:104150001F921FB61F9211248F939F93AF93BF930B
:104160008091A802811113C08091A9029091AA02A6
:10417000A091AB02B091AC024196A11DB11D8093FC
:10418000A9029093AA02A093AB02B093AC02BF9194
:10419000AF919F918F911F901FBE1F901895CDB723
:1041A000DEB7AA970FB6F894DEBF0FBECDBF84B7B7
:1041B000877F84BF0FB6F894A895809160008861CE
:1041C00080936000109260000FBE80E890E00FB610
:1041D000F89480936100909361000FBE85B780686A
:1041E00085BF85B7806885BF84E097E09093BF0165
:1041F0008093BE010E9426030E94F1038091E20099
:1042000084608093E20078948091BD028823A1F0BD
:104210001091E9001F709091EC00892F817090FD42
:1042200080E8182B1092E9008091E80083FD0E943D
:1042300018121F701093E90082E084BD93E095BDD1
:104240009AEF97BD80936E000E948E0D811102C07F
:104250000E94E50C01E511E0D8018D918D018F3FA1
:1042600011F00E940607B1E007351B07A9F707E523
:1042700011E04CE5E42E41E0F42EF80181918F012C
:104280008F3F11F00E940607E016F106B1F785E0B6
:10429000E0E4F2E0DF01282F1D922A95E9F7E4E23D
:1042A000F2E0DF011D928A95E9F780E00E946A0939
:1042B00060E078E582E090E00E940D278091D800D0
:1042C00080618093D800B5E3BA95F1F70000809142
:1042D000D9008170809304010E94F115811102C000
:1042E0000E94A11182E090E00E94EE2880932C02AF
:1042F0000E94A70D90932A02809329020E94D6144F
:10430000EFEFF6E721E0E150F0402040E1F700C098
:1043100000000E94D6148091400280FF08C06FEF19
:104320007FEF90E080E00E9420290E94F70983E05F
:1043300090E00E94EE280E94791080912B0281115A
:1043400033C00E94F115811104C00E94A1110E9486
:10435000AE0F88E090E00E94F62860939D02709373
:104360009E0280939F029093A0026E7F71F40E9440
:10437000AE0F88E090E00E94F62860939D02709353
:104380009E0280939F029093A0020E9423051092A8
:10439000590280919D0280FF04C060E086950E94D2
:1043A000470F81E080932B0284E080933A0240E83B
:1043B00051E03CE7A32E31E0B32E85019A0161E084
:1043C00070E0D9018D919D01E82FE295EF70F0E04A
:1043D000D1A08F707B0101C0EE0C8A95EAF79E2D6B
:1043E00090959D2191A382A18E2982A3F8018191AC
:1043F0008F01E82FE295EF70F0E0D1A08F707B0184
:1044000001C0EE0C8A95EAF79E2D90959D2191A30F
:1044100082A18E2982A3A458B14099F68FE891E039
:104420000197F1F700C0000010913A026BE372E0CF
:10443000FB018E2F861B811708F4A0C185E091E057
:104440009093A5028093A40208E1E02EF12C80E471
:1044500092E095E0B92EB80E24E0C22ED12C8091C6
:10446000BD0210E4A12E00E112E1853009F4E4C19F
:104470000E94D614882359F08FB7F8944091A9026E
:104480005091AA026091AB027091AC028FBFA0E480
:10449000B2E0EDE2F2E010E000E0302F8D912191EA
:1044A000281709F4DAC190E0AA24A3942827422F00
:1044B0004A2109F4CDC199A33AA38A2191E009F4D4
:1044C00090E09BA30E94BD048160782F9DA38CA3E4
:1044D00049A15AA16BA18DA10E94B81EF801E35D0C
:1044E000FD4F8081A826A082809159028823D1F1B6
:1044F00080915802E0919D02E695E81BE0935402FA
:10450000823009F0C1C1F0E0E65BFD4FE4910E2F6F
:1045100010E0BAE48B2EBCE09B2E809155028823DC
:1045200061F0109255020E94BD0490935302809353
:10453000520210925702109256020E94BD04E0915E
:104540005202F09153028E1B9F0B8F3F9F4750F4F6
:10455000E00FF11FF0935302E093520282E592E0E4
:10456000F4010995A12C712C80913A02A81608F447
:10457000F7C1772059F08FB7F8944091A902509174
:10458000AA026091AB027091AC028FBF86E0ECE4AE
:10459000F2E0DE01119601900D928A95E1F71092FA
:1045A0004E0210924F0210925002109251028B81D3
:1045B0009C81892B09F44AC080914A0290914B0258
:1045C0000E94AE049C0190914602992309F420C4F4
:1045D00025313105D8F19F3F19F09F5F9093460236
:1045E0001B81112359F00E948A069FEF11160CF4CB
:1045F00091E0899F802D112480934E021C8111230C
:1046000059F00E948A069FEF11160CF491E0899FE1
:10461000802D112480934F0230914E023323B1F04C
:1046200020914F02222391F045EB3403C001112465
:10463000992309F410C290934E0245EB2403900194
:104640001124332309F40BC230934F028D819E81D4
:10465000892B09F44AC080914802909149020E9436
:10466000AE049C0190914502992309F4CCC32135F5
:104670003105D8F19F3F19F09F5F909345021D814E
:10468000112359F00E9468069FEF11160CF491E077
:10469000899F802D1124809350021E81112359F08F
:1046A0000E9468069FEF11160CF491E0899F802DFF
:1046B000112480935102309150023323B1F02091A4
:1046C0005102222391F045EB3403C00111249923B8
:1046D00009F4C9C19093500245EB240390011124C1
:1046E000332309F4C4C13093510246E050E0BE01C7
:1046F0006F5F7F4F8CE492E00E94E128892B11F0DC
:104700000E94C80586E0FE013196ACE4B2E001905B
:104710000D928A95E1F70E940F0590913F0289174B
:1047200021F080933F020E9471098091BD02843084
:1047300009F095CE83E08093E9008091E80082FF44
:104740008ECE8091E80090E085FF06C00E94450370
:10475000882309F490C191E08091E8008B778093E1
:10476000E800992309F47BCEE981E150E33108F0B8
:1047700001C2F0E0E157F64D0C942528DA012D91A5
:10478000AD01822F82958F7090E0DC0190968C9124
:1047900090E02F7002C0959587952A95E2F7817079
:1047A000D5019D915D01292F22952F7030E0D9010F
:1047B00090962C9130E09F7002C0359527959A9580
:1047C000E2F790E020FD92E0892B819332CE809138
:1047D000BD02843021F180E00E9471091092A8028C
:1047E0000FB6F894A895E09260000FBEA09260000A
:1047F00083B7817F846083BF83B7816083BF7894F0
:10480000889583B78E7F83BF0FB6F894A895809163
:104810006000886180936000109260000FBE8091FC
:10482000BC02882349F00E94D614E0E4F2E08191B2
:104830008111C1C2BE12FBCF8091BD02853009F447
:10484000C6CF0E940C120E940F050E94710910CE63
:104850009F5FAA0C963009F02ACE0F5F1F4F0530DC
:10486000110509F01ACE8FEF8EA38FA318A60E9410
:10487000BD048160782F9AA789A74EA15FA168A582
:104880008AA50E94B81E30CE863059F4F0E0E95B6C
:10489000FD4FE4910E2F10E0AAE38A2EACE09A2E91
:1048A0003CCE893061F4E695F0E0EC5BFD4FE4919D
:1048B0000E2F10E0FEEA8F2EFBE09F2E2ECE8F30C3
:1048C00061F4E695F0E0EF5BFD4FE4910E2F10E010
:1048D000E0E58E2EEBE09E2E20CE853159F4F0E0FF
:1048E000E25CFD4FE4910E2F10E072E0872E7BE03A
:1048F000972E13CE08E210E047E8842E4AE0942E6B
:10490000883109F40ACE833249F4ECE3F2E00591F0
:10491000149169EE862E6BE0962EFFCD04EF11E028
:1049200030E5832E3AE0932E843209F4F6CD00ED83
:1049300017E022E2822E25E0922E853209F0EDCD9D
:104940008E2F63E00E94F127E92FF0E0E75CFD4F36
:10495000E4910E2F10E055EB852E5DE0952EDDCD18
:104960008A2C912CF401E058FE4F8081E82FE295CB
:10497000EF70F0E0E0A1F0E08F7002C0F595E795F0
:104980008A95E2F7E170D401A458BE4F2C91A22F72
:10499000A295AF70B0E090968C9190E02F7002C01D
:1049A000959587952A95E2F780FD53C080E08E2B80
:1049B000D401A55CBD4FEC919E2F9370891709F42B
:1049C00046C0EE0FEE0FE82BEC93EF70F0E0E459E9
:1049D000FE4F84010A5C1D4F8081D8019C91890F94
:1049E0008C9320E0843094F0F401EE5CFD4F8081E4
:1049F0008F5F8083F401EE0FFF1FEE0FFF1FE45A5D
:104A0000FE4F828193810E943C1F21E0F80180814A
:104A10008D3F94F4F401EE5CFD4F808181508083E2
:104A2000F401EE0FFF1FEE0FFF1FE45AFE4F8081CF
:104A300091810E943C1F21E0D8018C91082E000C2E
:104A4000990BB6010E941128F8018083722AA39461
:104A50008BCD82E0ACCF81E080934E02EECD81E041
:104A600080934F02F3CD81E08093500235CE81E0F8
:104A7000809351023ACE00E210E0CE0101964C0143
:104A80008091E80085FD0AC08091E8008B778093D3
:104A9000E8000E944503882399F35DCE8091F100E0
:104AA000D4018D934D010150110951F754CE1A8252
:104AB00089E08B832AC08A81823009F49BC18330CC
:104AC000A9F0813009F056C02FB7F8946091A9027F
:104AD0007091AA028091AB029091AC022FBF0E940C
:104AE0002B286B837C838D839E830FC08091400233
:104AF0008B83809141028C83809142028D838091CF
:104B000043028E83809144028F838091BD02843062
:104B100009F0A5CC1091E9001F709091EC00892F4D
:104B2000817090FD80E8182B82E08093E9008091ED
:104B3000E80080FF0DC050E040E060E270E0CE0190
:104B400001960E9476038091E8008E778093E800BA
:104B50001F701093E90083CC8A81823059F46B81F5
:104B60007C818D819E810E942B2886E290E00E94AC
:104B70000229CBCF8FEF8983C8CF4C816B818A818B
:104B80000E94F50C9827892798279E838D83BDCF97
:104B90002D813E813227232732274C816B818A81E8
:104BA0000E946E0CB2CF0E94940CAFCF8A818138E4
:104BB000C1F060F4803809F0A8CF20E04B8160910B
:104BC0009F0280919E020E94620E9FCF823859F10F
:104BD000833809F09ACF20E04091A0026C818B814C
:104BE000F2CF60E08B810E94470F9B8180919D02F4
:104BF000911111C08E7F80939D0210925902BFEFD8
:104C0000E0E7F2E0B150E040F040E1F700C0000022
:104C10000E941B0A7ACF816080939D0260E0869596
:104C20000E94470F72CF8B818093A1026ECF8A8141
:104C3000813899F030F4803809F067CF8091A00274
:104C400038CF823891F0833809F05FCF80919E028F
:104C50008B8380919F028C8358CF80919D0280FF2F
:104C600002C0869526CF80E024CF8091A10221CF7B
:104C700060919D0270919E0280919F029091A0028E
:104C80000E944F0E42CF80E18A833FCF82E08A8329
:104C900089EE0FCF0A811B81102701271027CE0133
:104CA00001963C018C80DC01A80DB11D4D01C801AD
:104CB000895E9E4F6814790409F427CF093EB2E05B
:104CC0001B0750F40E94EE28F30184830F5F1F4FEF
:104CD000BFEF6B1A7B0AEBCFD30114961C92F6CF71
:104CE0000A811B81102701271027FE0131963F0101
:104CF0008C80800E912E911CC801895E9E4F0815F4
:104D0000190509F402CF093EF2E01F0728F4D30188
:104D100014966C910E940229BFEF6B1A7B0A0F5FF9
:104D20001F4FEACF0E945E0CF0CE84E0ADCF0A8127
:104D30001B81102701271027FE0131963F018C802F
:104D4000CF01880D911D4C01C801879686149704E8
:104D500009F4DBCE003F110558F40E94EE28D30180
:104D600014968C930F5F1F4FFFEF6F1A7F0AECCFE3
:104D7000F3011482F7CF0A811B8110270127102726
:104D8000CE0101963C018C80800E912E911CC801B1
:104D900087968016910609F4B8CE003F110528F4D5
:104DA000D30114966C910E940229BFEF6B1A7B0A03
:104DB0000F5F1F4FECCF09BD19BD09B400FEFDCF39
:104DC0008091D8008F7D8093D8008091E000826030
:104DD0008093E0008091E00081FDFCCF0E940C12E6
:104DE000BFEFE3ECF9E0B150E040F040E1F700C084
:104DF000000022CD86E290E00E94EE281B821C82F9
:104E00001D828E8382CE2B30310508F035CC6DCCDF
:104E10002B30310508F0E1CB19CC9B01AC01F894A3
:104E200060E079E08DE390E00E94CF2721503109C6
:104E30004109510956954795379527952093CC0000
:104E400082E08093C80088E98093C90086E080935F
:104E5000CA0010920D0310920E031092CB02109212
:104E6000CC027894089590910E039F5F20910D03DA
:104E7000291303C00FB607FE0EC020910D0329179A
:104E8000E1F3E92FF0E0E15FFC4F808390930E03A4
:104E900088EB8093C90008959091CC028091CB0259
:104EA0009817D1F39091CB029F5F903408F090E077
:104EB000E92FF0E0E353FD4F80819093CB020895FA
:104EC0000F931F93CF93DF93EC018C01060F171FF5
:104ED000C017D10729F4DF91CF911F910F91089549
:104EE00089910E943327F4CF5091CC024091CB029C
:104EF000852F90E0242F30E0541748F0AC01421B7E
:104F0000530B81E0141615060CF080E00895805CC8
:104F10009F4FF4CF8F938FB78F939F93EF93FF9310
:104F200090910E0380910D0398130AC088E9809335
:104F3000C900FF91EF919F918F918FBF8F9118952D
:104F400080910D038F5FE82FF0E0E15FFC4F9081CF
:104F50009093CE0080930D03ECCF2F932FB72F9318
:104F60008F939F93EF93FF939091CE008091CC020B
:104F70008F5F803408F080E02091CB02281739F051
:104F8000E82FF0E0E353FD4F90838093CC02FF9134
:104F9000EF919F918F912F912FBF2F911895A1E2A3
:104FA0001A2EAA1BBB1BFD010DC0AA1FBB1FEE1FA3
:104FB000FF1FA217B307E407F50720F0A21BB30BEE
:104FC000E40BF50B661F771F881F991F1A9469F76A
:104FD00060957095809590959B01AC01BD01CF01C6
:104FE0000895991B79E004C0991F961708F0961B45
:104FF000881F7A95C9F780950895AA1BBB1B51E1BC
:1050000007C0AA1FBB1FA617B70710F0A61BB70B38
:10501000881F991F5A95A9F780959095BC01CD01DD
:10502000089597FB072E16F4009407D077FD09D05A
:105030000E94FD2707FC05D03EF4909581959F4F77
:105040000895709561957F4F0895EE0FFF1F0590AD
:10505000F491E02D099469279627692778278727F7
:10506000782708950E946829332312F48A1B9B0B2A
:105070000C943C280E946829B7FF0895821B930B6B
:1050800008952F923F924F925F926F927F928F92EC
:105090009F92AF92BF92CF92DF92EF92FF920F93C7
:1050A0001F93CF93DF93CDB7DEB7CA1BDB0B0FB6D1
:1050B000F894DEBF0FBECDBF09942A88398848888E
:1050C0005F846E847D848C849B84AA84B984C88424
:1050D000DF80EE80FD800C811B81AA81B981CE0F1B
:1050E000D11D0FB6F894DEBF0FBECDBFED01089500
:1050F0008F929F92AF92BF92CF92DF92EF92FF92E8
:10510000CF93DF93EC01688179818A819B8161155E
:1051100071058105910521F464E279ED8BE597E055
:105120002DE133EF41E050E00E94362949015A0158
:105130009B01AC01A7EAB1E40E9455296B017C01F7
:10514000ACEEB4EFA50194010E946329DC01CB0110
:105150008C0D9D1DAE1DBF1DB7FF03C00197A1099A
:10516000B04888839983AA83BB839F77DF91CF91CF
:10517000FF90EF90DF90CF90BF90AF909F908F9077
:1051800008950E947828089580E091E00E94782890
:105190000895B0E0A0E08093000190930101A093F6
:1051A0000201B09303010895FC014150504030F0DA
:1051B00001900616D1F73197CF01089588279927D6
:1051C0000895FB01DC0104C08D910190801921F448
:1051D00041505040C8F7881B990B0895F999FECFAC
:1051E00092BD81BDF89A992780B50895A6E1B0E0F7
:1051F00044E050E00C942829A8E1B0E042E050E0FF
:105200000C942829262FF999FECF92BD81BDF89ADA
:10521000019700B4021639F01FBA20BD0FB6F894FA
:10522000FA9AF99A0FBE08950396272F0E94032930
:105230000E940229252F0E940329242F0C94032960
:105240000196272F0E9403290C940229DC01CB012F
:10525000FC01F999FECF06C0F2BDE1BDF89A319686
:1052600000B40D9241505040B8F70895052E97FBB9
:105270001EF400940E944D2957FD07D00E94CF27AD
:1052800007FC03D04EF40C944D2950954095309571
:1052900021953F4F4F4F5F4F0895909580957095A2
:1052A00061957F4F8F4F9F4F08950E946829A59F5A
:1052B000900DB49F900DA49F800D911D1124089511
:1052C000B7FF0C9455290E945529821B930B089512
:1052D000A29FB001B39FC001A39F700D811D112437
:1052E000911DB29F700D811D1124911D0895F89498
:1052F000FFCFF9122113C4142113C41454137513CE
:10530000C414731480144919491984198419191A79
:10531000331AB319B3193E1AAB1ABB1ABB1A572565
:105320005B25AC25BD25C825D325D62517263826CF
:10533000BA25BA25432646264A2670269226952661
:045340009726BB26CB
:105344000100000001AB04CA09A909A4099F09AA24
:105354000401191A1B1C1D1E1F2021220102010118
:10536400818283E200E900EA00B500B600B700CD0F
:10537400008301CC008A01920194012102230224BA
:10538400022502260227022A02B300B4006F00702D
:1053940000FFFFF4F5F6F731C697669401000101AA
:1053A40002000201030003010400040100FF0100E4
:1053B400010000FFFF0000010001FF00333591925E
:1053C400323490930001020202020606060909091A
:1053D4000909090F0F0F0F0F0F15151518191919B2
:1053E40019191919191919232425252525252540A5
:0E53F400227B49012701AC0055056E058E0590
:00000001FF
